{
	"Patients/addPatients.sol": {
		"Patients": {
			"abi": [
				{
					"inputs": [
						{
							"internalType": "address",
							"name": "_implementation",
							"type": "address"
						}
					],
					"stateMutability": "nonpayable",
					"type": "constructor"
				},
				{
					"anonymous": false,
					"inputs": [
						{
							"indexed": false,
							"internalType": "string",
							"name": "role",
							"type": "string"
						},
						{
							"indexed": false,
							"internalType": "string",
							"name": "doctor",
							"type": "string"
						}
					],
					"name": "GetRole",
					"type": "event"
				},
				{
					"anonymous": false,
					"inputs": [
						{
							"indexed": false,
							"internalType": "string",
							"name": "func",
							"type": "string"
						},
						{
							"indexed": false,
							"internalType": "address",
							"name": "sender",
							"type": "address"
						},
						{
							"indexed": false,
							"internalType": "bytes",
							"name": "data",
							"type": "bytes"
						}
					],
					"name": "Log",
					"type": "event"
				},
				{
					"anonymous": false,
					"inputs": [
						{
							"indexed": false,
							"internalType": "string",
							"name": "notice",
							"type": "string"
						},
						{
							"indexed": false,
							"internalType": "address",
							"name": "patient",
							"type": "address"
						},
						{
							"indexed": false,
							"internalType": "uint256",
							"name": "number",
							"type": "uint256"
						},
						{
							"indexed": false,
							"internalType": "address",
							"name": "contractPatient",
							"type": "address"
						}
					],
					"name": "NewPatient",
					"type": "event"
				},
				{
					"stateMutability": "nonpayable",
					"type": "fallback"
				},
				{
					"inputs": [
						{
							"internalType": "string",
							"name": "_doctor",
							"type": "string"
						}
					],
					"name": "anualRole",
					"outputs": [],
					"stateMutability": "nonpayable",
					"type": "function"
				},
				{
					"inputs": [
						{
							"internalType": "address",
							"name": "_patient",
							"type": "address"
						},
						{
							"internalType": "string",
							"name": "_addr_doctor",
							"type": "string"
						}
					],
					"name": "checkAccess",
					"outputs": [
						{
							"internalType": "bool",
							"name": "",
							"type": "bool"
						}
					],
					"stateMutability": "view",
					"type": "function"
				},
				{
					"inputs": [],
					"name": "createPatient",
					"outputs": [],
					"stateMutability": "nonpayable",
					"type": "function"
				},
				{
					"inputs": [],
					"name": "getCountPatient",
					"outputs": [
						{
							"internalType": "uint256",
							"name": "",
							"type": "uint256"
						}
					],
					"stateMutability": "view",
					"type": "function"
				},
				{
					"inputs": [
						{
							"internalType": "string",
							"name": "_doctor",
							"type": "string"
						}
					],
					"name": "giveRole",
					"outputs": [],
					"stateMutability": "nonpayable",
					"type": "function"
				}
			],
			"devdoc": {
				"kind": "dev",
				"methods": {},
				"version": 1
			},
			"evm": {
				"assembly": "    /* \"Patients/addPatients.sol\":588:2754  contract Patients... */\n  mstore(0x40, 0x80)\n    /* \"Patients/addPatients.sol\":849:850  0 */\n  0x00\n    /* \"Patients/addPatients.sol\":817:850  uint256 private countPatients = 0 */\n  dup1\n  sstore\n    /* \"Patients/addPatients.sol\":955:1050  constructor (address _implementation) ... */\n  callvalue\n  dup1\n  iszero\n  tag_1\n  jumpi\n  0x00\n  dup1\n  revert\ntag_1:\n  pop\n  mload(0x40)\n  sub(codesize, bytecodeSize)\n  dup1\n  bytecodeSize\n  dup4\n  codecopy\n  dup2\n  dup2\n  add\n  0x40\n  mstore\n  dup2\n  add\n  swap1\n  tag_2\n  swap2\n  swap1\n  tag_3\n  jump\t// in\ntag_2:\n    /* \"Patients/addPatients.sol\":1027:1042  _implementation */\n  dup1\n    /* \"Patients/addPatients.sol\":1010:1024  implementation */\n  0x02\n  0x00\n    /* \"Patients/addPatients.sol\":1010:1042  implementation = _implementation */\n  0x0100\n  exp\n  dup2\n  sload\n  dup2\n  0xffffffffffffffffffffffffffffffffffffffff\n  mul\n  not\n  and\n  swap1\n  dup4\n  0xffffffffffffffffffffffffffffffffffffffff\n  and\n  mul\n  or\n  swap1\n  sstore\n  pop\n    /* \"Patients/addPatients.sol\":955:1050  constructor (address _implementation) ... */\n  pop\n    /* \"Patients/addPatients.sol\":588:2754  contract Patients... */\n  jump(tag_6)\n    /* \"#utility.yul\":88:205   */\ntag_8:\n    /* \"#utility.yul\":197:198   */\n  0x00\n    /* \"#utility.yul\":194:195   */\n  dup1\n    /* \"#utility.yul\":187:199   */\n  revert\n    /* \"#utility.yul\":334:460   */\ntag_10:\n    /* \"#utility.yul\":371:378   */\n  0x00\n    /* \"#utility.yul\":411:453   */\n  0xffffffffffffffffffffffffffffffffffffffff\n    /* \"#utility.yul\":404:409   */\n  dup3\n    /* \"#utility.yul\":400:454   */\n  and\n    /* \"#utility.yul\":389:454   */\n  swap1\n  pop\n    /* \"#utility.yul\":334:460   */\n  swap2\n  swap1\n  pop\n  jump\t// out\n    /* \"#utility.yul\":466:562   */\ntag_11:\n    /* \"#utility.yul\":503:510   */\n  0x00\n    /* \"#utility.yul\":532:556   */\n  tag_20\n    /* \"#utility.yul\":550:555   */\n  dup3\n    /* \"#utility.yul\":532:556   */\n  tag_10\n  jump\t// in\ntag_20:\n    /* \"#utility.yul\":521:556   */\n  swap1\n  pop\n    /* \"#utility.yul\":466:562   */\n  swap2\n  swap1\n  pop\n  jump\t// out\n    /* \"#utility.yul\":568:690   */\ntag_12:\n    /* \"#utility.yul\":641:665   */\n  tag_22\n    /* \"#utility.yul\":659:664   */\n  dup2\n    /* \"#utility.yul\":641:665   */\n  tag_11\n  jump\t// in\ntag_22:\n    /* \"#utility.yul\":634:639   */\n  dup2\n    /* \"#utility.yul\":631:666   */\n  eq\n    /* \"#utility.yul\":621:684   */\n  tag_23\n  jumpi\n    /* \"#utility.yul\":680:681   */\n  0x00\n    /* \"#utility.yul\":677:678   */\n  dup1\n    /* \"#utility.yul\":670:682   */\n  revert\n    /* \"#utility.yul\":621:684   */\ntag_23:\n    /* \"#utility.yul\":568:690   */\n  pop\n  jump\t// out\n    /* \"#utility.yul\":696:839   */\ntag_13:\n    /* \"#utility.yul\":753:758   */\n  0x00\n    /* \"#utility.yul\":784:790   */\n  dup2\n    /* \"#utility.yul\":778:791   */\n  mload\n    /* \"#utility.yul\":769:791   */\n  swap1\n  pop\n    /* \"#utility.yul\":800:833   */\n  tag_25\n    /* \"#utility.yul\":827:832   */\n  dup2\n    /* \"#utility.yul\":800:833   */\n  tag_12\n  jump\t// in\ntag_25:\n    /* \"#utility.yul\":696:839   */\n  swap3\n  swap2\n  pop\n  pop\n  jump\t// out\n    /* \"#utility.yul\":845:1196   */\ntag_3:\n    /* \"#utility.yul\":915:921   */\n  0x00\n    /* \"#utility.yul\":964:966   */\n  0x20\n    /* \"#utility.yul\":952:961   */\n  dup3\n    /* \"#utility.yul\":943:950   */\n  dup5\n    /* \"#utility.yul\":939:962   */\n  sub\n    /* \"#utility.yul\":935:967   */\n  slt\n    /* \"#utility.yul\":932:1051   */\n  iszero\n  tag_27\n  jumpi\n    /* \"#utility.yul\":970:1049   */\n  tag_28\n  tag_8\n  jump\t// in\ntag_28:\n    /* \"#utility.yul\":932:1051   */\ntag_27:\n    /* \"#utility.yul\":1090:1091   */\n  0x00\n    /* \"#utility.yul\":1115:1179   */\n  tag_29\n    /* \"#utility.yul\":1171:1178   */\n  dup5\n    /* \"#utility.yul\":1162:1168   */\n  dup3\n    /* \"#utility.yul\":1151:1160   */\n  dup6\n    /* \"#utility.yul\":1147:1169   */\n  add\n    /* \"#utility.yul\":1115:1179   */\n  tag_13\n  jump\t// in\ntag_29:\n    /* \"#utility.yul\":1105:1179   */\n  swap2\n  pop\n    /* \"#utility.yul\":1061:1189   */\n  pop\n    /* \"#utility.yul\":845:1196   */\n  swap3\n  swap2\n  pop\n  pop\n  jump\t// out\n    /* \"Patients/addPatients.sol\":588:2754  contract Patients... */\ntag_6:\n  dataSize(sub_0)\n  dup1\n  dataOffset(sub_0)\n  0x00\n  codecopy\n  0x00\n  return\nstop\n\nsub_0: assembly {\n        /* \"Patients/addPatients.sol\":588:2754  contract Patients... */\n      mstore(0x40, 0x80)\n      callvalue\n      dup1\n      iszero\n      tag_1\n      jumpi\n      0x00\n      dup1\n      revert\n    tag_1:\n      pop\n      jumpi(tag_2, lt(calldatasize, 0x04))\n      shr(0xe0, calldataload(0x00))\n      dup1\n      0x35a27178\n      eq\n      tag_4\n      jumpi\n      dup1\n      0x6ad248af\n      eq\n      tag_5\n      jumpi\n      dup1\n      0xa5657a91\n      eq\n      tag_6\n      jumpi\n      dup1\n      0xb4433477\n      eq\n      tag_7\n      jumpi\n      dup1\n      0xcd8cb137\n      eq\n      tag_8\n      jumpi\n      jump(tag_3)\n    tag_2:\n    tag_3:\n        /* \"Patients/addPatients.sol\":2706:2743  Log(\"fallback\", msg.sender, msg.data) */\n      0xa46ff6f8d8019b1a730a7666fa32a0236c89399dd776007c7485144b71e9e279\n        /* \"Patients/addPatients.sol\":2722:2732  msg.sender */\n      caller\n        /* \"Patients/addPatients.sol\":2734:2742  msg.data */\n      0x00\n      calldatasize\n        /* \"Patients/addPatients.sol\":2706:2743  Log(\"fallback\", msg.sender, msg.data) */\n      mload(0x40)\n      tag_11\n      swap4\n      swap3\n      swap2\n      swap1\n      tag_12\n      jump\t// in\n    tag_11:\n      mload(0x40)\n      dup1\n      swap2\n      sub\n      swap1\n      log1\n        /* \"Patients/addPatients.sol\":588:2754  contract Patients... */\n      stop\n        /* \"Patients/addPatients.sol\":1237:1645  function createPatient() external ... */\n    tag_4:\n      tag_13\n      tag_14\n      jump\t// in\n    tag_13:\n      stop\n        /* \"Patients/addPatients.sol\":2483:2656  function anualRole(string memory _doctor) external... */\n    tag_5:\n      tag_15\n      0x04\n      dup1\n      calldatasize\n      sub\n      dup2\n      add\n      swap1\n      tag_16\n      swap2\n      swap1\n      tag_17\n      jump\t// in\n    tag_16:\n      tag_18\n      jump\t// in\n    tag_15:\n      stop\n        /* \"Patients/addPatients.sol\":1653:1886  function checkAccess(address _patient,string memory _addr_doctor) external view  existsPatient(_patient)  returns (bool)... */\n    tag_6:\n      tag_19\n      0x04\n      dup1\n      calldatasize\n      sub\n      dup2\n      add\n      swap1\n      tag_20\n      swap2\n      swap1\n      tag_21\n      jump\t// in\n    tag_20:\n      tag_22\n      jump\t// in\n    tag_19:\n      mload(0x40)\n      tag_23\n      swap2\n      swap1\n      tag_24\n      jump\t// in\n    tag_23:\n      mload(0x40)\n      dup1\n      swap2\n      sub\n      swap1\n      return\n        /* \"Patients/addPatients.sol\":2262:2475  function giveRole(string memory _doctor) external... */\n    tag_7:\n      tag_25\n      0x04\n      dup1\n      calldatasize\n      sub\n      dup2\n      add\n      swap1\n      tag_26\n      swap2\n      swap1\n      tag_17\n      jump\t// in\n    tag_26:\n      tag_27\n      jump\t// in\n    tag_25:\n      stop\n        /* \"Patients/addPatients.sol\":1894:1993  function getCountPatient() external view returns(uint)... */\n    tag_8:\n      tag_28\n      tag_29\n      jump\t// in\n    tag_28:\n      mload(0x40)\n      tag_30\n      swap2\n      swap1\n      tag_31\n      jump\t// in\n    tag_30:\n      mload(0x40)\n      dup1\n      swap2\n      sub\n      swap1\n      return\n        /* \"Patients/addPatients.sol\":1237:1645  function createPatient() external ... */\n    tag_14:\n        /* \"Patients/addPatients.sol\":1333:1334  0 */\n      0x00\n        /* \"Patients/addPatients.sol\":1296:1335  adressesPatient[msg.sender]==address(0) */\n      0xffffffffffffffffffffffffffffffffffffffff\n      and\n        /* \"Patients/addPatients.sol\":1296:1311  adressesPatient */\n      0x01\n        /* \"Patients/addPatients.sol\":1296:1323  adressesPatient[msg.sender] */\n      0x00\n        /* \"Patients/addPatients.sol\":1312:1322  msg.sender */\n      caller\n        /* \"Patients/addPatients.sol\":1296:1323  adressesPatient[msg.sender] */\n      0xffffffffffffffffffffffffffffffffffffffff\n      and\n      0xffffffffffffffffffffffffffffffffffffffff\n      and\n      dup2\n      mstore\n      0x20\n      add\n      swap1\n      dup2\n      mstore\n      0x20\n      add\n      0x00\n      keccak256\n      0x00\n      swap1\n      sload\n      swap1\n      0x0100\n      exp\n      swap1\n      div\n      0xffffffffffffffffffffffffffffffffffffffff\n      and\n        /* \"Patients/addPatients.sol\":1296:1335  adressesPatient[msg.sender]==address(0) */\n      0xffffffffffffffffffffffffffffffffffffffff\n      and\n      eq\n        /* \"Patients/addPatients.sol\":1288:1357  require(adressesPatient[msg.sender]==address(0),\"You were register!\") */\n      tag_33\n      jumpi\n      mload(0x40)\n      0x08c379a000000000000000000000000000000000000000000000000000000000\n      dup2\n      mstore\n      0x04\n      add\n      tag_34\n      swap1\n      tag_35\n      jump\t// in\n    tag_34:\n      mload(0x40)\n      dup1\n      swap2\n      sub\n      swap1\n      revert\n    tag_33:\n        /* \"Patients/addPatients.sol\":1378:1393  address patient */\n      0x00\n        /* \"Patients/addPatients.sol\":1396:1424  Clones.clone(implementation) */\n      tag_36\n        /* \"Patients/addPatients.sol\":1409:1423  implementation */\n      0x02\n      0x00\n      swap1\n      sload\n      swap1\n      0x0100\n      exp\n      swap1\n      div\n      0xffffffffffffffffffffffffffffffffffffffff\n      and\n        /* \"Patients/addPatients.sol\":1396:1408  Clones.clone */\n      tag_37\n        /* \"Patients/addPatients.sol\":1396:1424  Clones.clone(implementation) */\n      jump\t// in\n    tag_36:\n        /* \"Patients/addPatients.sol\":1378:1424  address patient = Clones.clone(implementation) */\n      swap1\n      pop\n        /* \"Patients/addPatients.sol\":1445:1452  patient */\n      dup1\n        /* \"Patients/addPatients.sol\":1437:1462  Patient(patient).register */\n      0xffffffffffffffffffffffffffffffffffffffff\n      and\n      0x4420e486\n        /* \"Patients/addPatients.sol\":1463:1473  msg.sender */\n      caller\n        /* \"Patients/addPatients.sol\":1437:1474  Patient(patient).register(msg.sender) */\n      mload(0x40)\n      dup3\n      0xffffffff\n      and\n      0xe0\n      shl\n      dup2\n      mstore\n      0x04\n      add\n      tag_38\n      swap2\n      swap1\n      tag_39\n      jump\t// in\n    tag_38:\n      0x00\n      mload(0x40)\n      dup1\n      dup4\n      sub\n      dup2\n      0x00\n      dup8\n      dup1\n      extcodesize\n      iszero\n      dup1\n      iszero\n      tag_40\n      jumpi\n      0x00\n      dup1\n      revert\n    tag_40:\n      pop\n      gas\n      call\n      iszero\n      dup1\n      iszero\n      tag_42\n      jumpi\n      returndatasize\n      0x00\n      dup1\n      returndatacopy\n      revert(0x00, returndatasize)\n    tag_42:\n      pop\n      pop\n      pop\n      pop\n        /* \"Patients/addPatients.sol\":1517:1524  patient */\n      dup1\n        /* \"Patients/addPatients.sol\":1487:1502  adressesPatient */\n      0x01\n        /* \"Patients/addPatients.sol\":1487:1514  adressesPatient[msg.sender] */\n      0x00\n        /* \"Patients/addPatients.sol\":1503:1513  msg.sender */\n      caller\n        /* \"Patients/addPatients.sol\":1487:1514  adressesPatient[msg.sender] */\n      0xffffffffffffffffffffffffffffffffffffffff\n      and\n      0xffffffffffffffffffffffffffffffffffffffff\n      and\n      dup2\n      mstore\n      0x20\n      add\n      swap1\n      dup2\n      mstore\n      0x20\n      add\n      0x00\n      keccak256\n      0x00\n        /* \"Patients/addPatients.sol\":1487:1524  adressesPatient[msg.sender] = patient */\n      0x0100\n      exp\n      dup2\n      sload\n      dup2\n      0xffffffffffffffffffffffffffffffffffffffff\n      mul\n      not\n      and\n      swap1\n      dup4\n      0xffffffffffffffffffffffffffffffffffffffff\n      and\n      mul\n      or\n      swap1\n      sstore\n      pop\n        /* \"Patients/addPatients.sol\":1535:1548  countPatients */\n      0x00\n      dup1\n        /* \"Patients/addPatients.sol\":1535:1550  countPatients++ */\n      dup2\n      sload\n      dup1\n      swap3\n      swap2\n      swap1\n      tag_43\n      swap1\n      tag_44\n      jump\t// in\n    tag_43:\n      swap2\n      swap1\n      pop\n      sstore\n      pop\n        /* \"Patients/addPatients.sol\":1568:1633  NewPatient(\"Create patient: \",msg.sender,countPatients-1,patient) */\n      0x85858416f612212ddb7c6344d7b58182bad1de3be71438a88c6f19f0fa2b826d\n        /* \"Patients/addPatients.sol\":1598:1608  msg.sender */\n      caller\n        /* \"Patients/addPatients.sol\":1623:1624  1 */\n      0x01\n        /* \"Patients/addPatients.sol\":1609:1622  countPatients */\n      sload(0x00)\n        /* \"Patients/addPatients.sol\":1609:1624  countPatients-1 */\n      tag_45\n      swap2\n      swap1\n      tag_46\n      jump\t// in\n    tag_45:\n        /* \"Patients/addPatients.sol\":1625:1632  patient */\n      dup4\n        /* \"Patients/addPatients.sol\":1568:1633  NewPatient(\"Create patient: \",msg.sender,countPatients-1,patient) */\n      mload(0x40)\n      tag_47\n      swap4\n      swap3\n      swap2\n      swap1\n      tag_48\n      jump\t// in\n    tag_47:\n      mload(0x40)\n      dup1\n      swap2\n      sub\n      swap1\n      log1\n        /* \"Patients/addPatients.sol\":1277:1645  {... */\n      pop\n        /* \"Patients/addPatients.sol\":1237:1645  function createPatient() external ... */\n      jump\t// out\n        /* \"Patients/addPatients.sol\":2483:2656  function anualRole(string memory _doctor) external... */\n    tag_18:\n        /* \"Patients/addPatients.sol\":2550:2559  Patient p */\n      0x00\n        /* \"Patients/addPatients.sol\":2570:2585  adressesPatient */\n      0x01\n        /* \"Patients/addPatients.sol\":2570:2597  adressesPatient[msg.sender] */\n      0x00\n        /* \"Patients/addPatients.sol\":2586:2596  msg.sender */\n      caller\n        /* \"Patients/addPatients.sol\":2570:2597  adressesPatient[msg.sender] */\n      0xffffffffffffffffffffffffffffffffffffffff\n      and\n      0xffffffffffffffffffffffffffffffffffffffff\n      and\n      dup2\n      mstore\n      0x20\n      add\n      swap1\n      dup2\n      mstore\n      0x20\n      add\n      0x00\n      keccak256\n      0x00\n      swap1\n      sload\n      swap1\n      0x0100\n      exp\n      swap1\n      div\n      0xffffffffffffffffffffffffffffffffffffffff\n      and\n        /* \"Patients/addPatients.sol\":2550:2598  Patient p = Patient(adressesPatient[msg.sender]) */\n      swap1\n      pop\n        /* \"Patients/addPatients.sol\":2609:2610  p */\n      dup1\n        /* \"Patients/addPatients.sol\":2609:2628  p.revokeRole_Doctor */\n      0xffffffffffffffffffffffffffffffffffffffff\n      and\n      0xf3064211\n        /* \"Patients/addPatients.sol\":2629:2639  msg.sender */\n      caller\n        /* \"Patients/addPatients.sol\":2640:2647  _doctor */\n      dup5\n        /* \"Patients/addPatients.sol\":2609:2648  p.revokeRole_Doctor(msg.sender,_doctor) */\n      mload(0x40)\n      dup4\n      0xffffffff\n      and\n      0xe0\n      shl\n      dup2\n      mstore\n      0x04\n      add\n      tag_50\n      swap3\n      swap2\n      swap1\n      tag_51\n      jump\t// in\n    tag_50:\n      0x00\n      mload(0x40)\n      dup1\n      dup4\n      sub\n      dup2\n      0x00\n      dup8\n      dup1\n      extcodesize\n      iszero\n      dup1\n      iszero\n      tag_52\n      jumpi\n      0x00\n      dup1\n      revert\n    tag_52:\n      pop\n      gas\n      call\n      iszero\n      dup1\n      iszero\n      tag_54\n      jumpi\n      returndatasize\n      0x00\n      dup1\n      returndatacopy\n      revert(0x00, returndatasize)\n    tag_54:\n      pop\n      pop\n      pop\n      pop\n        /* \"Patients/addPatients.sol\":2539:2656  {... */\n      pop\n        /* \"Patients/addPatients.sol\":2483:2656  function anualRole(string memory _doctor) external... */\n      pop\n      jump\t// out\n        /* \"Patients/addPatients.sol\":1653:1886  function checkAccess(address _patient,string memory _addr_doctor) external view  existsPatient(_patient)  returns (bool)... */\n    tag_22:\n        /* \"Patients/addPatients.sol\":1768:1772  bool */\n      0x00\n        /* \"Patients/addPatients.sol\":1748:1756  _patient */\n      dup3\n        /* \"Patients/addPatients.sol\":1158:1159  0 */\n      0x00\n        /* \"Patients/addPatients.sol\":1123:1160  adressesPatient[_patient]!=address(0) */\n      0xffffffffffffffffffffffffffffffffffffffff\n      and\n        /* \"Patients/addPatients.sol\":1123:1138  adressesPatient */\n      0x01\n        /* \"Patients/addPatients.sol\":1123:1148  adressesPatient[_patient] */\n      0x00\n        /* \"Patients/addPatients.sol\":1139:1147  _patient */\n      dup4\n        /* \"Patients/addPatients.sol\":1123:1148  adressesPatient[_patient] */\n      0xffffffffffffffffffffffffffffffffffffffff\n      and\n      0xffffffffffffffffffffffffffffffffffffffff\n      and\n      dup2\n      mstore\n      0x20\n      add\n      swap1\n      dup2\n      mstore\n      0x20\n      add\n      0x00\n      keccak256\n      0x00\n      swap1\n      sload\n      swap1\n      0x0100\n      exp\n      swap1\n      div\n      0xffffffffffffffffffffffffffffffffffffffff\n      and\n        /* \"Patients/addPatients.sol\":1123:1160  adressesPatient[_patient]!=address(0) */\n      0xffffffffffffffffffffffffffffffffffffffff\n      and\n      sub\n        /* \"Patients/addPatients.sol\":1115:1209  require(adressesPatient[_patient]!=address(0),\"Patient don't exists!Check patient's account!\") */\n      tag_56\n      jumpi\n      mload(0x40)\n      0x08c379a000000000000000000000000000000000000000000000000000000000\n      dup2\n      mstore\n      0x04\n      add\n      tag_57\n      swap1\n      tag_58\n      jump\t// in\n    tag_57:\n      mload(0x40)\n      dup1\n      swap2\n      sub\n      swap1\n      revert\n    tag_56:\n        /* \"Patients/addPatients.sol\":1790:1799  Patient p */\n      0x00\n        /* \"Patients/addPatients.sol\":1810:1825  adressesPatient */\n      0x01\n        /* \"Patients/addPatients.sol\":1810:1835  adressesPatient[_patient] */\n      0x00\n        /* \"Patients/addPatients.sol\":1826:1834  _patient */\n      dup7\n        /* \"Patients/addPatients.sol\":1810:1835  adressesPatient[_patient] */\n      0xffffffffffffffffffffffffffffffffffffffff\n      and\n      0xffffffffffffffffffffffffffffffffffffffff\n      and\n      dup2\n      mstore\n      0x20\n      add\n      swap1\n      dup2\n      mstore\n      0x20\n      add\n      0x00\n      keccak256\n      0x00\n      swap1\n      sload\n      swap1\n      0x0100\n      exp\n      swap1\n      div\n      0xffffffffffffffffffffffffffffffffffffffff\n      and\n        /* \"Patients/addPatients.sol\":1790:1836  Patient p = Patient(adressesPatient[_patient]) */\n      swap1\n      pop\n        /* \"Patients/addPatients.sol\":1854:1855  p */\n      dup1\n        /* \"Patients/addPatients.sol\":1854:1864  p.isAccess */\n      0xffffffffffffffffffffffffffffffffffffffff\n      and\n      0xc8164863\n        /* \"Patients/addPatients.sol\":1865:1877  _addr_doctor */\n      dup6\n        /* \"Patients/addPatients.sol\":1854:1878  p.isAccess(_addr_doctor) */\n      mload(0x40)\n      dup3\n      0xffffffff\n      and\n      0xe0\n      shl\n      dup2\n      mstore\n      0x04\n      add\n      tag_60\n      swap2\n      swap1\n      tag_61\n      jump\t// in\n    tag_60:\n      0x20\n      mload(0x40)\n      dup1\n      dup4\n      sub\n      dup2\n      dup7\n      gas\n      staticcall\n      iszero\n      dup1\n      iszero\n      tag_63\n      jumpi\n      returndatasize\n      0x00\n      dup1\n      returndatacopy\n      revert(0x00, returndatasize)\n    tag_63:\n      pop\n      pop\n      pop\n      pop\n      mload(0x40)\n      returndatasize\n      not(0x1f)\n      0x1f\n      dup3\n      add\n      and\n      dup3\n      add\n      dup1\n      0x40\n      mstore\n      pop\n      dup2\n      add\n      swap1\n      tag_64\n      swap2\n      swap1\n      tag_65\n      jump\t// in\n    tag_64:\n        /* \"Patients/addPatients.sol\":1847:1878  return p.isAccess(_addr_doctor) */\n      swap3\n      pop\n      pop\n        /* \"Patients/addPatients.sol\":1653:1886  function checkAccess(address _patient,string memory _addr_doctor) external view  existsPatient(_patient)  returns (bool)... */\n      pop\n      swap3\n      swap2\n      pop\n      pop\n      jump\t// out\n        /* \"Patients/addPatients.sol\":2262:2475  function giveRole(string memory _doctor) external... */\n    tag_27:\n        /* \"Patients/addPatients.sol\":2328:2337  Patient p */\n      0x00\n        /* \"Patients/addPatients.sol\":2348:2363  adressesPatient */\n      0x01\n        /* \"Patients/addPatients.sol\":2348:2375  adressesPatient[msg.sender] */\n      0x00\n        /* \"Patients/addPatients.sol\":2364:2374  msg.sender */\n      caller\n        /* \"Patients/addPatients.sol\":2348:2375  adressesPatient[msg.sender] */\n      0xffffffffffffffffffffffffffffffffffffffff\n      and\n      0xffffffffffffffffffffffffffffffffffffffff\n      and\n      dup2\n      mstore\n      0x20\n      add\n      swap1\n      dup2\n      mstore\n      0x20\n      add\n      0x00\n      keccak256\n      0x00\n      swap1\n      sload\n      swap1\n      0x0100\n      exp\n      swap1\n      div\n      0xffffffffffffffffffffffffffffffffffffffff\n      and\n        /* \"Patients/addPatients.sol\":2328:2376  Patient p = Patient(adressesPatient[msg.sender]) */\n      swap1\n      pop\n        /* \"Patients/addPatients.sol\":2387:2388  p */\n      dup1\n        /* \"Patients/addPatients.sol\":2387:2405  p.setupRole_Doctor */\n      0xffffffffffffffffffffffffffffffffffffffff\n      and\n      0xf9ad4d73\n        /* \"Patients/addPatients.sol\":2406:2416  msg.sender */\n      caller\n        /* \"Patients/addPatients.sol\":2417:2424  _doctor */\n      dup5\n        /* \"Patients/addPatients.sol\":2387:2425  p.setupRole_Doctor(msg.sender,_doctor) */\n      mload(0x40)\n      dup4\n      0xffffffff\n      and\n      0xe0\n      shl\n      dup2\n      mstore\n      0x04\n      add\n      tag_67\n      swap3\n      swap2\n      swap1\n      tag_51\n      jump\t// in\n    tag_67:\n      0x00\n      mload(0x40)\n      dup1\n      dup4\n      sub\n      dup2\n      0x00\n      dup8\n      dup1\n      extcodesize\n      iszero\n      dup1\n      iszero\n      tag_68\n      jumpi\n      0x00\n      dup1\n      revert\n    tag_68:\n      pop\n      gas\n      call\n      iszero\n      dup1\n      iszero\n      tag_70\n      jumpi\n      returndatasize\n      0x00\n      dup1\n      returndatacopy\n      revert(0x00, returndatasize)\n    tag_70:\n      pop\n      pop\n      pop\n      pop\n        /* \"Patients/addPatients.sol\":2441:2467  GetRole(\"Doctor\", _doctor) */\n      0x2690dfdaec1cf49fcc01e1f85c19261f164f5000a265a51afd32a4bd19e68743\n        /* \"Patients/addPatients.sol\":2459:2466  _doctor */\n      dup3\n        /* \"Patients/addPatients.sol\":2441:2467  GetRole(\"Doctor\", _doctor) */\n      mload(0x40)\n      tag_71\n      swap2\n      swap1\n      tag_72\n      jump\t// in\n    tag_71:\n      mload(0x40)\n      dup1\n      swap2\n      sub\n      swap1\n      log1\n        /* \"Patients/addPatients.sol\":2317:2475  {... */\n      pop\n        /* \"Patients/addPatients.sol\":2262:2475  function giveRole(string memory _doctor) external... */\n      pop\n      jump\t// out\n        /* \"Patients/addPatients.sol\":1894:1993  function getCountPatient() external view returns(uint)... */\n    tag_29:\n        /* \"Patients/addPatients.sol\":1943:1947  uint */\n      0x00\n        /* \"Patients/addPatients.sol\":1972:1985  countPatients */\n      dup1\n      sload\n        /* \"Patients/addPatients.sol\":1965:1985  return countPatients */\n      swap1\n      pop\n        /* \"Patients/addPatients.sol\":1894:1993  function getCountPatient() external view returns(uint)... */\n      swap1\n      jump\t// out\n        /* \"https://github.com/OpenZeppelin/openzeppelin-contracts/blob/release-v4.9/contracts/proxy/Clones.sol\":973:1732  function clone(address implementation) internal returns (address instance) {... */\n    tag_37:\n        /* \"https://github.com/OpenZeppelin/openzeppelin-contracts/blob/release-v4.9/contracts/proxy/Clones.sol\":1030:1046  address instance */\n      0x00\n        /* \"https://github.com/OpenZeppelin/openzeppelin-contracts/blob/release-v4.9/contracts/proxy/Clones.sol\":1362:1410  0x3d602d80600a3d3981f3363d3d373d3d3d363d73000000 */\n      0x3d602d80600a3d3981f3363d3d373d3d3d363d73000000\n        /* \"https://github.com/OpenZeppelin/openzeppelin-contracts/blob/release-v4.9/contracts/proxy/Clones.sol\":1344:1358  implementation */\n      dup3\n        /* \"https://github.com/OpenZeppelin/openzeppelin-contracts/blob/release-v4.9/contracts/proxy/Clones.sol\":1338:1342  0x60 */\n      0x60\n        /* \"https://github.com/OpenZeppelin/openzeppelin-contracts/blob/release-v4.9/contracts/proxy/Clones.sol\":1334:1359  shl(0x60, implementation) */\n      shl\n        /* \"https://github.com/OpenZeppelin/openzeppelin-contracts/blob/release-v4.9/contracts/proxy/Clones.sol\":1328:1332  0xe8 */\n      0xe8\n        /* \"https://github.com/OpenZeppelin/openzeppelin-contracts/blob/release-v4.9/contracts/proxy/Clones.sol\":1324:1360  shr(0xe8, shl(0x60, implementation)) */\n      shr\n        /* \"https://github.com/OpenZeppelin/openzeppelin-contracts/blob/release-v4.9/contracts/proxy/Clones.sol\":1321:1411  or(shr(0xe8, shl(0x60, implementation)), 0x3d602d80600a3d3981f3363d3d373d3d3d363d73000000) */\n      or\n        /* \"https://github.com/OpenZeppelin/openzeppelin-contracts/blob/release-v4.9/contracts/proxy/Clones.sol\":1315:1319  0x00 */\n      0x00\n        /* \"https://github.com/OpenZeppelin/openzeppelin-contracts/blob/release-v4.9/contracts/proxy/Clones.sol\":1308:1412  mstore(0x00, or(shr(0xe8, shl(0x60, implementation)), 0x3d602d80600a3d3981f3363d3d373d3d3d363d73000000)) */\n      mstore\n        /* \"https://github.com/OpenZeppelin/openzeppelin-contracts/blob/release-v4.9/contracts/proxy/Clones.sol\":1569:1601  0x5af43d82803e903d91602b57fd5bf3 */\n      0x5af43d82803e903d91602b57fd5bf3\n        /* \"https://github.com/OpenZeppelin/openzeppelin-contracts/blob/release-v4.9/contracts/proxy/Clones.sol\":1552:1566  implementation */\n      dup3\n        /* \"https://github.com/OpenZeppelin/openzeppelin-contracts/blob/release-v4.9/contracts/proxy/Clones.sol\":1546:1550  0x78 */\n      0x78\n        /* \"https://github.com/OpenZeppelin/openzeppelin-contracts/blob/release-v4.9/contracts/proxy/Clones.sol\":1542:1567  shl(0x78, implementation) */\n      shl\n        /* \"https://github.com/OpenZeppelin/openzeppelin-contracts/blob/release-v4.9/contracts/proxy/Clones.sol\":1539:1602  or(shl(0x78, implementation), 0x5af43d82803e903d91602b57fd5bf3) */\n      or\n        /* \"https://github.com/OpenZeppelin/openzeppelin-contracts/blob/release-v4.9/contracts/proxy/Clones.sol\":1533:1537  0x20 */\n      0x20\n        /* \"https://github.com/OpenZeppelin/openzeppelin-contracts/blob/release-v4.9/contracts/proxy/Clones.sol\":1526:1603  mstore(0x20, or(shl(0x78, implementation), 0x5af43d82803e903d91602b57fd5bf3)) */\n      mstore\n        /* \"https://github.com/OpenZeppelin/openzeppelin-contracts/blob/release-v4.9/contracts/proxy/Clones.sol\":1644:1648  0x37 */\n      0x37\n        /* \"https://github.com/OpenZeppelin/openzeppelin-contracts/blob/release-v4.9/contracts/proxy/Clones.sol\":1638:1642  0x09 */\n      0x09\n        /* \"https://github.com/OpenZeppelin/openzeppelin-contracts/blob/release-v4.9/contracts/proxy/Clones.sol\":1635:1636  0 */\n      0x00\n        /* \"https://github.com/OpenZeppelin/openzeppelin-contracts/blob/release-v4.9/contracts/proxy/Clones.sol\":1628:1649  create(0, 0x09, 0x37) */\n      create\n        /* \"https://github.com/OpenZeppelin/openzeppelin-contracts/blob/release-v4.9/contracts/proxy/Clones.sol\":1616:1649  instance := create(0, 0x09, 0x37) */\n      swap1\n      pop\n        /* \"https://github.com/OpenZeppelin/openzeppelin-contracts/blob/release-v4.9/contracts/proxy/Clones.sol\":1696:1697  0 */\n      0x00\n        /* \"https://github.com/OpenZeppelin/openzeppelin-contracts/blob/release-v4.9/contracts/proxy/Clones.sol\":1676:1698  instance != address(0) */\n      0xffffffffffffffffffffffffffffffffffffffff\n      and\n        /* \"https://github.com/OpenZeppelin/openzeppelin-contracts/blob/release-v4.9/contracts/proxy/Clones.sol\":1676:1684  instance */\n      dup2\n        /* \"https://github.com/OpenZeppelin/openzeppelin-contracts/blob/release-v4.9/contracts/proxy/Clones.sol\":1676:1698  instance != address(0) */\n      0xffffffffffffffffffffffffffffffffffffffff\n      and\n      sub\n        /* \"https://github.com/OpenZeppelin/openzeppelin-contracts/blob/release-v4.9/contracts/proxy/Clones.sol\":1668:1725  require(instance != address(0), \"ERC1167: create failed\") */\n      tag_75\n      jumpi\n      mload(0x40)\n      0x08c379a000000000000000000000000000000000000000000000000000000000\n      dup2\n      mstore\n      0x04\n      add\n      tag_76\n      swap1\n      tag_77\n      jump\t// in\n    tag_76:\n      mload(0x40)\n      dup1\n      swap2\n      sub\n      swap1\n      revert\n    tag_75:\n        /* \"https://github.com/OpenZeppelin/openzeppelin-contracts/blob/release-v4.9/contracts/proxy/Clones.sol\":973:1732  function clone(address implementation) internal returns (address instance) {... */\n      swap2\n      swap1\n      pop\n      jump\t// out\n        /* \"#utility.yul\":7:176   */\n    tag_78:\n        /* \"#utility.yul\":91:102   */\n      0x00\n        /* \"#utility.yul\":125:131   */\n      dup3\n        /* \"#utility.yul\":120:123   */\n      dup3\n        /* \"#utility.yul\":113:132   */\n      mstore\n        /* \"#utility.yul\":165:169   */\n      0x20\n        /* \"#utility.yul\":160:163   */\n      dup3\n        /* \"#utility.yul\":156:170   */\n      add\n        /* \"#utility.yul\":141:170   */\n      swap1\n      pop\n        /* \"#utility.yul\":7:176   */\n      swap3\n      swap2\n      pop\n      pop\n      jump\t// out\n        /* \"#utility.yul\":182:340   */\n    tag_79:\n        /* \"#utility.yul\":322:332   */\n      0x66616c6c6261636b000000000000000000000000000000000000000000000000\n        /* \"#utility.yul\":318:319   */\n      0x00\n        /* \"#utility.yul\":310:316   */\n      dup3\n        /* \"#utility.yul\":306:320   */\n      add\n        /* \"#utility.yul\":299:333   */\n      mstore\n        /* \"#utility.yul\":182:340   */\n      pop\n      jump\t// out\n        /* \"#utility.yul\":346:711   */\n    tag_80:\n        /* \"#utility.yul\":488:491   */\n      0x00\n        /* \"#utility.yul\":509:575   */\n      tag_125\n        /* \"#utility.yul\":573:574   */\n      0x08\n        /* \"#utility.yul\":568:571   */\n      dup4\n        /* \"#utility.yul\":509:575   */\n      tag_78\n      jump\t// in\n    tag_125:\n        /* \"#utility.yul\":502:575   */\n      swap2\n      pop\n        /* \"#utility.yul\":584:677   */\n      tag_126\n        /* \"#utility.yul\":673:676   */\n      dup3\n        /* \"#utility.yul\":584:677   */\n      tag_79\n      jump\t// in\n    tag_126:\n        /* \"#utility.yul\":702:704   */\n      0x20\n        /* \"#utility.yul\":697:700   */\n      dup3\n        /* \"#utility.yul\":693:705   */\n      add\n        /* \"#utility.yul\":686:705   */\n      swap1\n      pop\n        /* \"#utility.yul\":346:711   */\n      swap2\n      swap1\n      pop\n      jump\t// out\n        /* \"#utility.yul\":717:843   */\n    tag_81:\n        /* \"#utility.yul\":754:761   */\n      0x00\n        /* \"#utility.yul\":794:836   */\n      0xffffffffffffffffffffffffffffffffffffffff\n        /* \"#utility.yul\":787:792   */\n      dup3\n        /* \"#utility.yul\":783:837   */\n      and\n        /* \"#utility.yul\":772:837   */\n      swap1\n      pop\n        /* \"#utility.yul\":717:843   */\n      swap2\n      swap1\n      pop\n      jump\t// out\n        /* \"#utility.yul\":849:945   */\n    tag_82:\n        /* \"#utility.yul\":886:893   */\n      0x00\n        /* \"#utility.yul\":915:939   */\n      tag_129\n        /* \"#utility.yul\":933:938   */\n      dup3\n        /* \"#utility.yul\":915:939   */\n      tag_81\n      jump\t// in\n    tag_129:\n        /* \"#utility.yul\":904:939   */\n      swap1\n      pop\n        /* \"#utility.yul\":849:945   */\n      swap2\n      swap1\n      pop\n      jump\t// out\n        /* \"#utility.yul\":951:1069   */\n    tag_83:\n        /* \"#utility.yul\":1038:1062   */\n      tag_131\n        /* \"#utility.yul\":1056:1061   */\n      dup2\n        /* \"#utility.yul\":1038:1062   */\n      tag_82\n      jump\t// in\n    tag_131:\n        /* \"#utility.yul\":1033:1036   */\n      dup3\n        /* \"#utility.yul\":1026:1063   */\n      mstore\n        /* \"#utility.yul\":951:1069   */\n      pop\n      pop\n      jump\t// out\n        /* \"#utility.yul\":1075:1243   */\n    tag_84:\n        /* \"#utility.yul\":1158:1169   */\n      0x00\n        /* \"#utility.yul\":1192:1198   */\n      dup3\n        /* \"#utility.yul\":1187:1190   */\n      dup3\n        /* \"#utility.yul\":1180:1199   */\n      mstore\n        /* \"#utility.yul\":1232:1236   */\n      0x20\n        /* \"#utility.yul\":1227:1230   */\n      dup3\n        /* \"#utility.yul\":1223:1237   */\n      add\n        /* \"#utility.yul\":1208:1237   */\n      swap1\n      pop\n        /* \"#utility.yul\":1075:1243   */\n      swap3\n      swap2\n      pop\n      pop\n      jump\t// out\n        /* \"#utility.yul\":1249:1395   */\n    tag_85:\n        /* \"#utility.yul\":1346:1352   */\n      dup3\n        /* \"#utility.yul\":1341:1344   */\n      dup2\n        /* \"#utility.yul\":1336:1339   */\n      dup4\n        /* \"#utility.yul\":1323:1353   */\n      calldatacopy\n        /* \"#utility.yul\":1387:1388   */\n      0x00\n        /* \"#utility.yul\":1378:1384   */\n      dup4\n        /* \"#utility.yul\":1373:1376   */\n      dup4\n        /* \"#utility.yul\":1369:1385   */\n      add\n        /* \"#utility.yul\":1362:1389   */\n      mstore\n        /* \"#utility.yul\":1249:1395   */\n      pop\n      pop\n      pop\n      jump\t// out\n        /* \"#utility.yul\":1401:1503   */\n    tag_86:\n        /* \"#utility.yul\":1442:1448   */\n      0x00\n        /* \"#utility.yul\":1493:1495   */\n      0x1f\n        /* \"#utility.yul\":1489:1496   */\n      not\n        /* \"#utility.yul\":1484:1486   */\n      0x1f\n        /* \"#utility.yul\":1477:1482   */\n      dup4\n        /* \"#utility.yul\":1473:1487   */\n      add\n        /* \"#utility.yul\":1469:1497   */\n      and\n        /* \"#utility.yul\":1459:1497   */\n      swap1\n      pop\n        /* \"#utility.yul\":1401:1503   */\n      swap2\n      swap1\n      pop\n      jump\t// out\n        /* \"#utility.yul\":1531:1845   */\n    tag_87:\n        /* \"#utility.yul\":1627:1630   */\n      0x00\n        /* \"#utility.yul\":1648:1718   */\n      tag_136\n        /* \"#utility.yul\":1711:1717   */\n      dup4\n        /* \"#utility.yul\":1706:1709   */\n      dup6\n        /* \"#utility.yul\":1648:1718   */\n      tag_84\n      jump\t// in\n    tag_136:\n        /* \"#utility.yul\":1641:1718   */\n      swap4\n      pop\n        /* \"#utility.yul\":1728:1784   */\n      tag_137\n        /* \"#utility.yul\":1777:1783   */\n      dup4\n        /* \"#utility.yul\":1772:1775   */\n      dup6\n        /* \"#utility.yul\":1765:1770   */\n      dup5\n        /* \"#utility.yul\":1728:1784   */\n      tag_85\n      jump\t// in\n    tag_137:\n        /* \"#utility.yul\":1809:1838   */\n      tag_138\n        /* \"#utility.yul\":1831:1837   */\n      dup4\n        /* \"#utility.yul\":1809:1838   */\n      tag_86\n      jump\t// in\n    tag_138:\n        /* \"#utility.yul\":1804:1807   */\n      dup5\n        /* \"#utility.yul\":1800:1839   */\n      add\n        /* \"#utility.yul\":1793:1839   */\n      swap1\n      pop\n        /* \"#utility.yul\":1531:1845   */\n      swap4\n      swap3\n      pop\n      pop\n      pop\n      jump\t// out\n        /* \"#utility.yul\":1851:2597   */\n    tag_12:\n        /* \"#utility.yul\":2101:2105   */\n      0x00\n        /* \"#utility.yul\":2139:2141   */\n      0x60\n        /* \"#utility.yul\":2128:2137   */\n      dup3\n        /* \"#utility.yul\":2124:2142   */\n      add\n        /* \"#utility.yul\":2116:2142   */\n      swap1\n      pop\n        /* \"#utility.yul\":2188:2197   */\n      dup2\n        /* \"#utility.yul\":2182:2186   */\n      dup2\n        /* \"#utility.yul\":2178:2198   */\n      sub\n        /* \"#utility.yul\":2174:2175   */\n      0x00\n        /* \"#utility.yul\":2163:2172   */\n      dup4\n        /* \"#utility.yul\":2159:2176   */\n      add\n        /* \"#utility.yul\":2152:2199   */\n      mstore\n        /* \"#utility.yul\":2216:2347   */\n      tag_140\n        /* \"#utility.yul\":2342:2346   */\n      dup2\n        /* \"#utility.yul\":2216:2347   */\n      tag_80\n      jump\t// in\n    tag_140:\n        /* \"#utility.yul\":2208:2347   */\n      swap1\n      pop\n        /* \"#utility.yul\":2357:2429   */\n      tag_141\n        /* \"#utility.yul\":2425:2427   */\n      0x20\n        /* \"#utility.yul\":2414:2423   */\n      dup4\n        /* \"#utility.yul\":2410:2428   */\n      add\n        /* \"#utility.yul\":2401:2407   */\n      dup7\n        /* \"#utility.yul\":2357:2429   */\n      tag_83\n      jump\t// in\n    tag_141:\n        /* \"#utility.yul\":2476:2485   */\n      dup2\n        /* \"#utility.yul\":2470:2474   */\n      dup2\n        /* \"#utility.yul\":2466:2486   */\n      sub\n        /* \"#utility.yul\":2461:2463   */\n      0x40\n        /* \"#utility.yul\":2450:2459   */\n      dup4\n        /* \"#utility.yul\":2446:2464   */\n      add\n        /* \"#utility.yul\":2439:2487   */\n      mstore\n        /* \"#utility.yul\":2504:2590   */\n      tag_142\n        /* \"#utility.yul\":2585:2589   */\n      dup2\n        /* \"#utility.yul\":2576:2582   */\n      dup5\n        /* \"#utility.yul\":2568:2574   */\n      dup7\n        /* \"#utility.yul\":2504:2590   */\n      tag_87\n      jump\t// in\n    tag_142:\n        /* \"#utility.yul\":2496:2590   */\n      swap1\n      pop\n        /* \"#utility.yul\":1851:2597   */\n      swap5\n      swap4\n      pop\n      pop\n      pop\n      pop\n      jump\t// out\n        /* \"#utility.yul\":2603:2678   */\n    tag_88:\n        /* \"#utility.yul\":2636:2642   */\n      0x00\n        /* \"#utility.yul\":2669:2671   */\n      0x40\n        /* \"#utility.yul\":2663:2672   */\n      mload\n        /* \"#utility.yul\":2653:2672   */\n      swap1\n      pop\n        /* \"#utility.yul\":2603:2678   */\n      swap1\n      jump\t// out\n        /* \"#utility.yul\":2684:2801   */\n    tag_89:\n        /* \"#utility.yul\":2793:2794   */\n      0x00\n        /* \"#utility.yul\":2790:2791   */\n      dup1\n        /* \"#utility.yul\":2783:2795   */\n      revert\n        /* \"#utility.yul\":2807:2924   */\n    tag_90:\n        /* \"#utility.yul\":2916:2917   */\n      0x00\n        /* \"#utility.yul\":2913:2914   */\n      dup1\n        /* \"#utility.yul\":2906:2918   */\n      revert\n        /* \"#utility.yul\":2930:3047   */\n    tag_91:\n        /* \"#utility.yul\":3039:3040   */\n      0x00\n        /* \"#utility.yul\":3036:3037   */\n      dup1\n        /* \"#utility.yul\":3029:3041   */\n      revert\n        /* \"#utility.yul\":3053:3170   */\n    tag_92:\n        /* \"#utility.yul\":3162:3163   */\n      0x00\n        /* \"#utility.yul\":3159:3160   */\n      dup1\n        /* \"#utility.yul\":3152:3164   */\n      revert\n        /* \"#utility.yul\":3176:3356   */\n    tag_93:\n        /* \"#utility.yul\":3224:3301   */\n      0x4e487b7100000000000000000000000000000000000000000000000000000000\n        /* \"#utility.yul\":3221:3222   */\n      0x00\n        /* \"#utility.yul\":3214:3302   */\n      mstore\n        /* \"#utility.yul\":3321:3325   */\n      0x41\n        /* \"#utility.yul\":3318:3319   */\n      0x04\n        /* \"#utility.yul\":3311:3326   */\n      mstore\n        /* \"#utility.yul\":3345:3349   */\n      0x24\n        /* \"#utility.yul\":3342:3343   */\n      0x00\n        /* \"#utility.yul\":3335:3350   */\n      revert\n        /* \"#utility.yul\":3362:3643   */\n    tag_94:\n        /* \"#utility.yul\":3445:3472   */\n      tag_150\n        /* \"#utility.yul\":3467:3471   */\n      dup3\n        /* \"#utility.yul\":3445:3472   */\n      tag_86\n      jump\t// in\n    tag_150:\n        /* \"#utility.yul\":3437:3443   */\n      dup2\n        /* \"#utility.yul\":3433:3473   */\n      add\n        /* \"#utility.yul\":3575:3581   */\n      dup2\n        /* \"#utility.yul\":3563:3573   */\n      dup2\n        /* \"#utility.yul\":3560:3582   */\n      lt\n        /* \"#utility.yul\":3539:3557   */\n      0xffffffffffffffff\n        /* \"#utility.yul\":3527:3537   */\n      dup3\n        /* \"#utility.yul\":3524:3558   */\n      gt\n        /* \"#utility.yul\":3521:3583   */\n      or\n        /* \"#utility.yul\":3518:3606   */\n      iszero\n      tag_151\n      jumpi\n        /* \"#utility.yul\":3586:3604   */\n      tag_152\n      tag_93\n      jump\t// in\n    tag_152:\n        /* \"#utility.yul\":3518:3606   */\n    tag_151:\n        /* \"#utility.yul\":3626:3636   */\n      dup1\n        /* \"#utility.yul\":3622:3624   */\n      0x40\n        /* \"#utility.yul\":3615:3637   */\n      mstore\n        /* \"#utility.yul\":3405:3643   */\n      pop\n        /* \"#utility.yul\":3362:3643   */\n      pop\n      pop\n      jump\t// out\n        /* \"#utility.yul\":3649:3778   */\n    tag_95:\n        /* \"#utility.yul\":3683:3689   */\n      0x00\n        /* \"#utility.yul\":3710:3730   */\n      tag_154\n      tag_88\n      jump\t// in\n    tag_154:\n        /* \"#utility.yul\":3700:3730   */\n      swap1\n      pop\n        /* \"#utility.yul\":3739:3772   */\n      tag_155\n        /* \"#utility.yul\":3767:3771   */\n      dup3\n        /* \"#utility.yul\":3759:3765   */\n      dup3\n        /* \"#utility.yul\":3739:3772   */\n      tag_94\n      jump\t// in\n    tag_155:\n        /* \"#utility.yul\":3649:3778   */\n      swap2\n      swap1\n      pop\n      jump\t// out\n        /* \"#utility.yul\":3784:4092   */\n    tag_96:\n        /* \"#utility.yul\":3846:3850   */\n      0x00\n        /* \"#utility.yul\":3936:3954   */\n      0xffffffffffffffff\n        /* \"#utility.yul\":3928:3934   */\n      dup3\n        /* \"#utility.yul\":3925:3955   */\n      gt\n        /* \"#utility.yul\":3922:3978   */\n      iszero\n      tag_157\n      jumpi\n        /* \"#utility.yul\":3958:3976   */\n      tag_158\n      tag_93\n      jump\t// in\n    tag_158:\n        /* \"#utility.yul\":3922:3978   */\n    tag_157:\n        /* \"#utility.yul\":3996:4025   */\n      tag_159\n        /* \"#utility.yul\":4018:4024   */\n      dup3\n        /* \"#utility.yul\":3996:4025   */\n      tag_86\n      jump\t// in\n    tag_159:\n        /* \"#utility.yul\":3988:4025   */\n      swap1\n      pop\n        /* \"#utility.yul\":4080:4084   */\n      0x20\n        /* \"#utility.yul\":4074:4078   */\n      dup2\n        /* \"#utility.yul\":4070:4085   */\n      add\n        /* \"#utility.yul\":4062:4085   */\n      swap1\n      pop\n        /* \"#utility.yul\":3784:4092   */\n      swap2\n      swap1\n      pop\n      jump\t// out\n        /* \"#utility.yul\":4098:4523   */\n    tag_97:\n        /* \"#utility.yul\":4176:4181   */\n      0x00\n        /* \"#utility.yul\":4201:4267   */\n      tag_161\n        /* \"#utility.yul\":4217:4266   */\n      tag_162\n        /* \"#utility.yul\":4259:4265   */\n      dup5\n        /* \"#utility.yul\":4217:4266   */\n      tag_96\n      jump\t// in\n    tag_162:\n        /* \"#utility.yul\":4201:4267   */\n      tag_95\n      jump\t// in\n    tag_161:\n        /* \"#utility.yul\":4192:4267   */\n      swap1\n      pop\n        /* \"#utility.yul\":4290:4296   */\n      dup3\n        /* \"#utility.yul\":4283:4288   */\n      dup2\n        /* \"#utility.yul\":4276:4297   */\n      mstore\n        /* \"#utility.yul\":4328:4332   */\n      0x20\n        /* \"#utility.yul\":4321:4326   */\n      dup2\n        /* \"#utility.yul\":4317:4333   */\n      add\n        /* \"#utility.yul\":4366:4369   */\n      dup5\n        /* \"#utility.yul\":4357:4363   */\n      dup5\n        /* \"#utility.yul\":4352:4355   */\n      dup5\n        /* \"#utility.yul\":4348:4364   */\n      add\n        /* \"#utility.yul\":4345:4370   */\n      gt\n        /* \"#utility.yul\":4342:4454   */\n      iszero\n      tag_163\n      jumpi\n        /* \"#utility.yul\":4373:4452   */\n      tag_164\n      tag_92\n      jump\t// in\n    tag_164:\n        /* \"#utility.yul\":4342:4454   */\n    tag_163:\n        /* \"#utility.yul\":4463:4517   */\n      tag_165\n        /* \"#utility.yul\":4510:4516   */\n      dup5\n        /* \"#utility.yul\":4505:4508   */\n      dup3\n        /* \"#utility.yul\":4500:4503   */\n      dup6\n        /* \"#utility.yul\":4463:4517   */\n      tag_85\n      jump\t// in\n    tag_165:\n        /* \"#utility.yul\":4182:4523   */\n      pop\n        /* \"#utility.yul\":4098:4523   */\n      swap4\n      swap3\n      pop\n      pop\n      pop\n      jump\t// out\n        /* \"#utility.yul\":4543:4883   */\n    tag_98:\n        /* \"#utility.yul\":4599:4604   */\n      0x00\n        /* \"#utility.yul\":4648:4651   */\n      dup3\n        /* \"#utility.yul\":4641:4645   */\n      0x1f\n        /* \"#utility.yul\":4633:4639   */\n      dup4\n        /* \"#utility.yul\":4629:4646   */\n      add\n        /* \"#utility.yul\":4625:4652   */\n      slt\n        /* \"#utility.yul\":4615:4737   */\n      tag_167\n      jumpi\n        /* \"#utility.yul\":4656:4735   */\n      tag_168\n      tag_91\n      jump\t// in\n    tag_168:\n        /* \"#utility.yul\":4615:4737   */\n    tag_167:\n        /* \"#utility.yul\":4773:4779   */\n      dup2\n        /* \"#utility.yul\":4760:4780   */\n      calldataload\n        /* \"#utility.yul\":4798:4877   */\n      tag_169\n        /* \"#utility.yul\":4873:4876   */\n      dup5\n        /* \"#utility.yul\":4865:4871   */\n      dup3\n        /* \"#utility.yul\":4858:4862   */\n      0x20\n        /* \"#utility.yul\":4850:4856   */\n      dup7\n        /* \"#utility.yul\":4846:4863   */\n      add\n        /* \"#utility.yul\":4798:4877   */\n      tag_97\n      jump\t// in\n    tag_169:\n        /* \"#utility.yul\":4789:4877   */\n      swap2\n      pop\n        /* \"#utility.yul\":4605:4883   */\n      pop\n        /* \"#utility.yul\":4543:4883   */\n      swap3\n      swap2\n      pop\n      pop\n      jump\t// out\n        /* \"#utility.yul\":4889:5398   */\n    tag_17:\n        /* \"#utility.yul\":4958:4964   */\n      0x00\n        /* \"#utility.yul\":5007:5009   */\n      0x20\n        /* \"#utility.yul\":4995:5004   */\n      dup3\n        /* \"#utility.yul\":4986:4993   */\n      dup5\n        /* \"#utility.yul\":4982:5005   */\n      sub\n        /* \"#utility.yul\":4978:5010   */\n      slt\n        /* \"#utility.yul\":4975:5094   */\n      iszero\n      tag_171\n      jumpi\n        /* \"#utility.yul\":5013:5092   */\n      tag_172\n      tag_89\n      jump\t// in\n    tag_172:\n        /* \"#utility.yul\":4975:5094   */\n    tag_171:\n        /* \"#utility.yul\":5161:5162   */\n      0x00\n        /* \"#utility.yul\":5150:5159   */\n      dup3\n        /* \"#utility.yul\":5146:5163   */\n      add\n        /* \"#utility.yul\":5133:5164   */\n      calldataload\n        /* \"#utility.yul\":5191:5209   */\n      0xffffffffffffffff\n        /* \"#utility.yul\":5183:5189   */\n      dup2\n        /* \"#utility.yul\":5180:5210   */\n      gt\n        /* \"#utility.yul\":5177:5294   */\n      iszero\n      tag_173\n      jumpi\n        /* \"#utility.yul\":5213:5292   */\n      tag_174\n      tag_90\n      jump\t// in\n    tag_174:\n        /* \"#utility.yul\":5177:5294   */\n    tag_173:\n        /* \"#utility.yul\":5318:5381   */\n      tag_175\n        /* \"#utility.yul\":5373:5380   */\n      dup5\n        /* \"#utility.yul\":5364:5370   */\n      dup3\n        /* \"#utility.yul\":5353:5362   */\n      dup6\n        /* \"#utility.yul\":5349:5371   */\n      add\n        /* \"#utility.yul\":5318:5381   */\n      tag_98\n      jump\t// in\n    tag_175:\n        /* \"#utility.yul\":5308:5381   */\n      swap2\n      pop\n        /* \"#utility.yul\":5104:5391   */\n      pop\n        /* \"#utility.yul\":4889:5398   */\n      swap3\n      swap2\n      pop\n      pop\n      jump\t// out\n        /* \"#utility.yul\":5404:5526   */\n    tag_99:\n        /* \"#utility.yul\":5477:5501   */\n      tag_177\n        /* \"#utility.yul\":5495:5500   */\n      dup2\n        /* \"#utility.yul\":5477:5501   */\n      tag_82\n      jump\t// in\n    tag_177:\n        /* \"#utility.yul\":5470:5475   */\n      dup2\n        /* \"#utility.yul\":5467:5502   */\n      eq\n        /* \"#utility.yul\":5457:5520   */\n      tag_178\n      jumpi\n        /* \"#utility.yul\":5516:5517   */\n      0x00\n        /* \"#utility.yul\":5513:5514   */\n      dup1\n        /* \"#utility.yul\":5506:5518   */\n      revert\n        /* \"#utility.yul\":5457:5520   */\n    tag_178:\n        /* \"#utility.yul\":5404:5526   */\n      pop\n      jump\t// out\n        /* \"#utility.yul\":5532:5671   */\n    tag_100:\n        /* \"#utility.yul\":5578:5583   */\n      0x00\n        /* \"#utility.yul\":5616:5622   */\n      dup2\n        /* \"#utility.yul\":5603:5623   */\n      calldataload\n        /* \"#utility.yul\":5594:5623   */\n      swap1\n      pop\n        /* \"#utility.yul\":5632:5665   */\n      tag_180\n        /* \"#utility.yul\":5659:5664   */\n      dup2\n        /* \"#utility.yul\":5632:5665   */\n      tag_99\n      jump\t// in\n    tag_180:\n        /* \"#utility.yul\":5532:5671   */\n      swap3\n      swap2\n      pop\n      pop\n      jump\t// out\n        /* \"#utility.yul\":5677:6331   */\n    tag_21:\n        /* \"#utility.yul\":5755:5761   */\n      0x00\n        /* \"#utility.yul\":5763:5769   */\n      dup1\n        /* \"#utility.yul\":5812:5814   */\n      0x40\n        /* \"#utility.yul\":5800:5809   */\n      dup4\n        /* \"#utility.yul\":5791:5798   */\n      dup6\n        /* \"#utility.yul\":5787:5810   */\n      sub\n        /* \"#utility.yul\":5783:5815   */\n      slt\n        /* \"#utility.yul\":5780:5899   */\n      iszero\n      tag_182\n      jumpi\n        /* \"#utility.yul\":5818:5897   */\n      tag_183\n      tag_89\n      jump\t// in\n    tag_183:\n        /* \"#utility.yul\":5780:5899   */\n    tag_182:\n        /* \"#utility.yul\":5938:5939   */\n      0x00\n        /* \"#utility.yul\":5963:6016   */\n      tag_184\n        /* \"#utility.yul\":6008:6015   */\n      dup6\n        /* \"#utility.yul\":5999:6005   */\n      dup3\n        /* \"#utility.yul\":5988:5997   */\n      dup7\n        /* \"#utility.yul\":5984:6006   */\n      add\n        /* \"#utility.yul\":5963:6016   */\n      tag_100\n      jump\t// in\n    tag_184:\n        /* \"#utility.yul\":5953:6016   */\n      swap3\n      pop\n        /* \"#utility.yul\":5909:6026   */\n      pop\n        /* \"#utility.yul\":6093:6095   */\n      0x20\n        /* \"#utility.yul\":6082:6091   */\n      dup4\n        /* \"#utility.yul\":6078:6096   */\n      add\n        /* \"#utility.yul\":6065:6097   */\n      calldataload\n        /* \"#utility.yul\":6124:6142   */\n      0xffffffffffffffff\n        /* \"#utility.yul\":6116:6122   */\n      dup2\n        /* \"#utility.yul\":6113:6143   */\n      gt\n        /* \"#utility.yul\":6110:6227   */\n      iszero\n      tag_185\n      jumpi\n        /* \"#utility.yul\":6146:6225   */\n      tag_186\n      tag_90\n      jump\t// in\n    tag_186:\n        /* \"#utility.yul\":6110:6227   */\n    tag_185:\n        /* \"#utility.yul\":6251:6314   */\n      tag_187\n        /* \"#utility.yul\":6306:6313   */\n      dup6\n        /* \"#utility.yul\":6297:6303   */\n      dup3\n        /* \"#utility.yul\":6286:6295   */\n      dup7\n        /* \"#utility.yul\":6282:6304   */\n      add\n        /* \"#utility.yul\":6251:6314   */\n      tag_98\n      jump\t// in\n    tag_187:\n        /* \"#utility.yul\":6241:6314   */\n      swap2\n      pop\n        /* \"#utility.yul\":6036:6324   */\n      pop\n        /* \"#utility.yul\":5677:6331   */\n      swap3\n      pop\n      swap3\n      swap1\n      pop\n      jump\t// out\n        /* \"#utility.yul\":6337:6427   */\n    tag_101:\n        /* \"#utility.yul\":6371:6378   */\n      0x00\n        /* \"#utility.yul\":6414:6419   */\n      dup2\n        /* \"#utility.yul\":6407:6420   */\n      iszero\n        /* \"#utility.yul\":6400:6421   */\n      iszero\n        /* \"#utility.yul\":6389:6421   */\n      swap1\n      pop\n        /* \"#utility.yul\":6337:6427   */\n      swap2\n      swap1\n      pop\n      jump\t// out\n        /* \"#utility.yul\":6433:6542   */\n    tag_102:\n        /* \"#utility.yul\":6514:6535   */\n      tag_190\n        /* \"#utility.yul\":6529:6534   */\n      dup2\n        /* \"#utility.yul\":6514:6535   */\n      tag_101\n      jump\t// in\n    tag_190:\n        /* \"#utility.yul\":6509:6512   */\n      dup3\n        /* \"#utility.yul\":6502:6536   */\n      mstore\n        /* \"#utility.yul\":6433:6542   */\n      pop\n      pop\n      jump\t// out\n        /* \"#utility.yul\":6548:6758   */\n    tag_24:\n        /* \"#utility.yul\":6635:6639   */\n      0x00\n        /* \"#utility.yul\":6673:6675   */\n      0x20\n        /* \"#utility.yul\":6662:6671   */\n      dup3\n        /* \"#utility.yul\":6658:6676   */\n      add\n        /* \"#utility.yul\":6650:6676   */\n      swap1\n      pop\n        /* \"#utility.yul\":6686:6751   */\n      tag_192\n        /* \"#utility.yul\":6748:6749   */\n      0x00\n        /* \"#utility.yul\":6737:6746   */\n      dup4\n        /* \"#utility.yul\":6733:6750   */\n      add\n        /* \"#utility.yul\":6724:6730   */\n      dup5\n        /* \"#utility.yul\":6686:6751   */\n      tag_102\n      jump\t// in\n    tag_192:\n        /* \"#utility.yul\":6548:6758   */\n      swap3\n      swap2\n      pop\n      pop\n      jump\t// out\n        /* \"#utility.yul\":6764:6841   */\n    tag_103:\n        /* \"#utility.yul\":6801:6808   */\n      0x00\n        /* \"#utility.yul\":6830:6835   */\n      dup2\n        /* \"#utility.yul\":6819:6835   */\n      swap1\n      pop\n        /* \"#utility.yul\":6764:6841   */\n      swap2\n      swap1\n      pop\n      jump\t// out\n        /* \"#utility.yul\":6847:6965   */\n    tag_104:\n        /* \"#utility.yul\":6934:6958   */\n      tag_195\n        /* \"#utility.yul\":6952:6957   */\n      dup2\n        /* \"#utility.yul\":6934:6958   */\n      tag_103\n      jump\t// in\n    tag_195:\n        /* \"#utility.yul\":6929:6932   */\n      dup3\n        /* \"#utility.yul\":6922:6959   */\n      mstore\n        /* \"#utility.yul\":6847:6965   */\n      pop\n      pop\n      jump\t// out\n        /* \"#utility.yul\":6971:7193   */\n    tag_31:\n        /* \"#utility.yul\":7064:7068   */\n      0x00\n        /* \"#utility.yul\":7102:7104   */\n      0x20\n        /* \"#utility.yul\":7091:7100   */\n      dup3\n        /* \"#utility.yul\":7087:7105   */\n      add\n        /* \"#utility.yul\":7079:7105   */\n      swap1\n      pop\n        /* \"#utility.yul\":7115:7186   */\n      tag_197\n        /* \"#utility.yul\":7183:7184   */\n      0x00\n        /* \"#utility.yul\":7172:7181   */\n      dup4\n        /* \"#utility.yul\":7168:7185   */\n      add\n        /* \"#utility.yul\":7159:7165   */\n      dup5\n        /* \"#utility.yul\":7115:7186   */\n      tag_104\n      jump\t// in\n    tag_197:\n        /* \"#utility.yul\":6971:7193   */\n      swap3\n      swap2\n      pop\n      pop\n      jump\t// out\n        /* \"#utility.yul\":7199:7367   */\n    tag_105:\n        /* \"#utility.yul\":7339:7359   */\n      0x596f752077657265207265676973746572210000000000000000000000000000\n        /* \"#utility.yul\":7335:7336   */\n      0x00\n        /* \"#utility.yul\":7327:7333   */\n      dup3\n        /* \"#utility.yul\":7323:7337   */\n      add\n        /* \"#utility.yul\":7316:7360   */\n      mstore\n        /* \"#utility.yul\":7199:7367   */\n      pop\n      jump\t// out\n        /* \"#utility.yul\":7373:7739   */\n    tag_106:\n        /* \"#utility.yul\":7515:7518   */\n      0x00\n        /* \"#utility.yul\":7536:7603   */\n      tag_200\n        /* \"#utility.yul\":7600:7602   */\n      0x12\n        /* \"#utility.yul\":7595:7598   */\n      dup4\n        /* \"#utility.yul\":7536:7603   */\n      tag_78\n      jump\t// in\n    tag_200:\n        /* \"#utility.yul\":7529:7603   */\n      swap2\n      pop\n        /* \"#utility.yul\":7612:7705   */\n      tag_201\n        /* \"#utility.yul\":7701:7704   */\n      dup3\n        /* \"#utility.yul\":7612:7705   */\n      tag_105\n      jump\t// in\n    tag_201:\n        /* \"#utility.yul\":7730:7732   */\n      0x20\n        /* \"#utility.yul\":7725:7728   */\n      dup3\n        /* \"#utility.yul\":7721:7733   */\n      add\n        /* \"#utility.yul\":7714:7733   */\n      swap1\n      pop\n        /* \"#utility.yul\":7373:7739   */\n      swap2\n      swap1\n      pop\n      jump\t// out\n        /* \"#utility.yul\":7745:8164   */\n    tag_35:\n        /* \"#utility.yul\":7911:7915   */\n      0x00\n        /* \"#utility.yul\":7949:7951   */\n      0x20\n        /* \"#utility.yul\":7938:7947   */\n      dup3\n        /* \"#utility.yul\":7934:7952   */\n      add\n        /* \"#utility.yul\":7926:7952   */\n      swap1\n      pop\n        /* \"#utility.yul\":7998:8007   */\n      dup2\n        /* \"#utility.yul\":7992:7996   */\n      dup2\n        /* \"#utility.yul\":7988:8008   */\n      sub\n        /* \"#utility.yul\":7984:7985   */\n      0x00\n        /* \"#utility.yul\":7973:7982   */\n      dup4\n        /* \"#utility.yul\":7969:7986   */\n      add\n        /* \"#utility.yul\":7962:8009   */\n      mstore\n        /* \"#utility.yul\":8026:8157   */\n      tag_203\n        /* \"#utility.yul\":8152:8156   */\n      dup2\n        /* \"#utility.yul\":8026:8157   */\n      tag_106\n      jump\t// in\n    tag_203:\n        /* \"#utility.yul\":8018:8157   */\n      swap1\n      pop\n        /* \"#utility.yul\":7745:8164   */\n      swap2\n      swap1\n      pop\n      jump\t// out\n        /* \"#utility.yul\":8170:8392   */\n    tag_39:\n        /* \"#utility.yul\":8263:8267   */\n      0x00\n        /* \"#utility.yul\":8301:8303   */\n      0x20\n        /* \"#utility.yul\":8290:8299   */\n      dup3\n        /* \"#utility.yul\":8286:8304   */\n      add\n        /* \"#utility.yul\":8278:8304   */\n      swap1\n      pop\n        /* \"#utility.yul\":8314:8385   */\n      tag_205\n        /* \"#utility.yul\":8382:8383   */\n      0x00\n        /* \"#utility.yul\":8371:8380   */\n      dup4\n        /* \"#utility.yul\":8367:8384   */\n      add\n        /* \"#utility.yul\":8358:8364   */\n      dup5\n        /* \"#utility.yul\":8314:8385   */\n      tag_83\n      jump\t// in\n    tag_205:\n        /* \"#utility.yul\":8170:8392   */\n      swap3\n      swap2\n      pop\n      pop\n      jump\t// out\n        /* \"#utility.yul\":8398:8578   */\n    tag_107:\n        /* \"#utility.yul\":8446:8523   */\n      0x4e487b7100000000000000000000000000000000000000000000000000000000\n        /* \"#utility.yul\":8443:8444   */\n      0x00\n        /* \"#utility.yul\":8436:8524   */\n      mstore\n        /* \"#utility.yul\":8543:8547   */\n      0x11\n        /* \"#utility.yul\":8540:8541   */\n      0x04\n        /* \"#utility.yul\":8533:8548   */\n      mstore\n        /* \"#utility.yul\":8567:8571   */\n      0x24\n        /* \"#utility.yul\":8564:8565   */\n      0x00\n        /* \"#utility.yul\":8557:8572   */\n      revert\n        /* \"#utility.yul\":8584:8817   */\n    tag_44:\n        /* \"#utility.yul\":8623:8626   */\n      0x00\n        /* \"#utility.yul\":8646:8670   */\n      tag_208\n        /* \"#utility.yul\":8664:8669   */\n      dup3\n        /* \"#utility.yul\":8646:8670   */\n      tag_103\n      jump\t// in\n    tag_208:\n        /* \"#utility.yul\":8637:8670   */\n      swap2\n      pop\n        /* \"#utility.yul\":8692:8758   */\n      0xffffffffffffffffffffffffffffffffffffffffffffffffffffffffffffffff\n        /* \"#utility.yul\":8685:8690   */\n      dup3\n        /* \"#utility.yul\":8682:8759   */\n      sub\n        /* \"#utility.yul\":8679:8782   */\n      tag_209\n      jumpi\n        /* \"#utility.yul\":8762:8780   */\n      tag_210\n      tag_107\n      jump\t// in\n    tag_210:\n        /* \"#utility.yul\":8679:8782   */\n    tag_209:\n        /* \"#utility.yul\":8809:8810   */\n      0x01\n        /* \"#utility.yul\":8802:8807   */\n      dup3\n        /* \"#utility.yul\":8798:8811   */\n      add\n        /* \"#utility.yul\":8791:8811   */\n      swap1\n      pop\n        /* \"#utility.yul\":8584:8817   */\n      swap2\n      swap1\n      pop\n      jump\t// out\n        /* \"#utility.yul\":8823:9017   */\n    tag_46:\n        /* \"#utility.yul\":8863:8867   */\n      0x00\n        /* \"#utility.yul\":8883:8903   */\n      tag_212\n        /* \"#utility.yul\":8901:8902   */\n      dup3\n        /* \"#utility.yul\":8883:8903   */\n      tag_103\n      jump\t// in\n    tag_212:\n        /* \"#utility.yul\":8878:8903   */\n      swap2\n      pop\n        /* \"#utility.yul\":8917:8937   */\n      tag_213\n        /* \"#utility.yul\":8935:8936   */\n      dup4\n        /* \"#utility.yul\":8917:8937   */\n      tag_103\n      jump\t// in\n    tag_213:\n        /* \"#utility.yul\":8912:8937   */\n      swap3\n      pop\n        /* \"#utility.yul\":8961:8962   */\n      dup3\n        /* \"#utility.yul\":8958:8959   */\n      dup3\n        /* \"#utility.yul\":8954:8963   */\n      sub\n        /* \"#utility.yul\":8946:8963   */\n      swap1\n      pop\n        /* \"#utility.yul\":8985:8986   */\n      dup2\n        /* \"#utility.yul\":8979:8983   */\n      dup2\n        /* \"#utility.yul\":8976:8987   */\n      gt\n        /* \"#utility.yul\":8973:9010   */\n      iszero\n      tag_214\n      jumpi\n        /* \"#utility.yul\":8990:9008   */\n      tag_215\n      tag_107\n      jump\t// in\n    tag_215:\n        /* \"#utility.yul\":8973:9010   */\n    tag_214:\n        /* \"#utility.yul\":8823:9017   */\n      swap3\n      swap2\n      pop\n      pop\n      jump\t// out\n        /* \"#utility.yul\":9023:9189   */\n    tag_108:\n        /* \"#utility.yul\":9163:9181   */\n      0x4372656174652070617469656e743a2000000000000000000000000000000000\n        /* \"#utility.yul\":9159:9160   */\n      0x00\n        /* \"#utility.yul\":9151:9157   */\n      dup3\n        /* \"#utility.yul\":9147:9161   */\n      add\n        /* \"#utility.yul\":9140:9182   */\n      mstore\n        /* \"#utility.yul\":9023:9189   */\n      pop\n      jump\t// out\n        /* \"#utility.yul\":9195:9561   */\n    tag_109:\n        /* \"#utility.yul\":9337:9340   */\n      0x00\n        /* \"#utility.yul\":9358:9425   */\n      tag_218\n        /* \"#utility.yul\":9422:9424   */\n      0x10\n        /* \"#utility.yul\":9417:9420   */\n      dup4\n        /* \"#utility.yul\":9358:9425   */\n      tag_78\n      jump\t// in\n    tag_218:\n        /* \"#utility.yul\":9351:9425   */\n      swap2\n      pop\n        /* \"#utility.yul\":9434:9527   */\n      tag_219\n        /* \"#utility.yul\":9523:9526   */\n      dup3\n        /* \"#utility.yul\":9434:9527   */\n      tag_108\n      jump\t// in\n    tag_219:\n        /* \"#utility.yul\":9552:9554   */\n      0x20\n        /* \"#utility.yul\":9547:9550   */\n      dup3\n        /* \"#utility.yul\":9543:9555   */\n      add\n        /* \"#utility.yul\":9536:9555   */\n      swap1\n      pop\n        /* \"#utility.yul\":9195:9561   */\n      swap2\n      swap1\n      pop\n      jump\t// out\n        /* \"#utility.yul\":9567:10317   */\n    tag_48:\n        /* \"#utility.yul\":9817:9821   */\n      0x00\n        /* \"#utility.yul\":9855:9858   */\n      0x80\n        /* \"#utility.yul\":9844:9853   */\n      dup3\n        /* \"#utility.yul\":9840:9859   */\n      add\n        /* \"#utility.yul\":9832:9859   */\n      swap1\n      pop\n        /* \"#utility.yul\":9905:9914   */\n      dup2\n        /* \"#utility.yul\":9899:9903   */\n      dup2\n        /* \"#utility.yul\":9895:9915   */\n      sub\n        /* \"#utility.yul\":9891:9892   */\n      0x00\n        /* \"#utility.yul\":9880:9889   */\n      dup4\n        /* \"#utility.yul\":9876:9893   */\n      add\n        /* \"#utility.yul\":9869:9916   */\n      mstore\n        /* \"#utility.yul\":9933:10064   */\n      tag_221\n        /* \"#utility.yul\":10059:10063   */\n      dup2\n        /* \"#utility.yul\":9933:10064   */\n      tag_109\n      jump\t// in\n    tag_221:\n        /* \"#utility.yul\":9925:10064   */\n      swap1\n      pop\n        /* \"#utility.yul\":10074:10146   */\n      tag_222\n        /* \"#utility.yul\":10142:10144   */\n      0x20\n        /* \"#utility.yul\":10131:10140   */\n      dup4\n        /* \"#utility.yul\":10127:10145   */\n      add\n        /* \"#utility.yul\":10118:10124   */\n      dup7\n        /* \"#utility.yul\":10074:10146   */\n      tag_83\n      jump\t// in\n    tag_222:\n        /* \"#utility.yul\":10156:10228   */\n      tag_223\n        /* \"#utility.yul\":10224:10226   */\n      0x40\n        /* \"#utility.yul\":10213:10222   */\n      dup4\n        /* \"#utility.yul\":10209:10227   */\n      add\n        /* \"#utility.yul\":10200:10206   */\n      dup6\n        /* \"#utility.yul\":10156:10228   */\n      tag_104\n      jump\t// in\n    tag_223:\n        /* \"#utility.yul\":10238:10310   */\n      tag_224\n        /* \"#utility.yul\":10306:10308   */\n      0x60\n        /* \"#utility.yul\":10295:10304   */\n      dup4\n        /* \"#utility.yul\":10291:10309   */\n      add\n        /* \"#utility.yul\":10282:10288   */\n      dup5\n        /* \"#utility.yul\":10238:10310   */\n      tag_83\n      jump\t// in\n    tag_224:\n        /* \"#utility.yul\":9567:10317   */\n      swap5\n      swap4\n      pop\n      pop\n      pop\n      pop\n      jump\t// out\n        /* \"#utility.yul\":10323:10422   */\n    tag_110:\n        /* \"#utility.yul\":10375:10381   */\n      0x00\n        /* \"#utility.yul\":10409:10414   */\n      dup2\n        /* \"#utility.yul\":10403:10415   */\n      mload\n        /* \"#utility.yul\":10393:10415   */\n      swap1\n      pop\n        /* \"#utility.yul\":10323:10422   */\n      swap2\n      swap1\n      pop\n      jump\t// out\n        /* \"#utility.yul\":10428:10674   */\n    tag_111:\n        /* \"#utility.yul\":10509:10510   */\n      0x00\n        /* \"#utility.yul\":10519:10632   */\n    tag_227:\n        /* \"#utility.yul\":10533:10539   */\n      dup4\n        /* \"#utility.yul\":10530:10531   */\n      dup2\n        /* \"#utility.yul\":10527:10540   */\n      lt\n        /* \"#utility.yul\":10519:10632   */\n      iszero\n      tag_229\n      jumpi\n        /* \"#utility.yul\":10618:10619   */\n      dup1\n        /* \"#utility.yul\":10613:10616   */\n      dup3\n        /* \"#utility.yul\":10609:10620   */\n      add\n        /* \"#utility.yul\":10603:10621   */\n      mload\n        /* \"#utility.yul\":10599:10600   */\n      dup2\n        /* \"#utility.yul\":10594:10597   */\n      dup5\n        /* \"#utility.yul\":10590:10601   */\n      add\n        /* \"#utility.yul\":10583:10622   */\n      mstore\n        /* \"#utility.yul\":10555:10557   */\n      0x20\n        /* \"#utility.yul\":10552:10553   */\n      dup2\n        /* \"#utility.yul\":10548:10558   */\n      add\n        /* \"#utility.yul\":10543:10558   */\n      swap1\n      pop\n        /* \"#utility.yul\":10519:10632   */\n      jump(tag_227)\n    tag_229:\n        /* \"#utility.yul\":10666:10667   */\n      0x00\n        /* \"#utility.yul\":10657:10663   */\n      dup5\n        /* \"#utility.yul\":10652:10655   */\n      dup5\n        /* \"#utility.yul\":10648:10664   */\n      add\n        /* \"#utility.yul\":10641:10668   */\n      mstore\n        /* \"#utility.yul\":10490:10674   */\n      pop\n        /* \"#utility.yul\":10428:10674   */\n      pop\n      pop\n      pop\n      jump\t// out\n        /* \"#utility.yul\":10680:11057   */\n    tag_112:\n        /* \"#utility.yul\":10768:10771   */\n      0x00\n        /* \"#utility.yul\":10796:10835   */\n      tag_231\n        /* \"#utility.yul\":10829:10834   */\n      dup3\n        /* \"#utility.yul\":10796:10835   */\n      tag_110\n      jump\t// in\n    tag_231:\n        /* \"#utility.yul\":10851:10922   */\n      tag_232\n        /* \"#utility.yul\":10915:10921   */\n      dup2\n        /* \"#utility.yul\":10910:10913   */\n      dup6\n        /* \"#utility.yul\":10851:10922   */\n      tag_78\n      jump\t// in\n    tag_232:\n        /* \"#utility.yul\":10844:10922   */\n      swap4\n      pop\n        /* \"#utility.yul\":10931:10996   */\n      tag_233\n        /* \"#utility.yul\":10989:10995   */\n      dup2\n        /* \"#utility.yul\":10984:10987   */\n      dup6\n        /* \"#utility.yul\":10977:10981   */\n      0x20\n        /* \"#utility.yul\":10970:10975   */\n      dup7\n        /* \"#utility.yul\":10966:10982   */\n      add\n        /* \"#utility.yul\":10931:10996   */\n      tag_111\n      jump\t// in\n    tag_233:\n        /* \"#utility.yul\":11021:11050   */\n      tag_234\n        /* \"#utility.yul\":11043:11049   */\n      dup2\n        /* \"#utility.yul\":11021:11050   */\n      tag_86\n      jump\t// in\n    tag_234:\n        /* \"#utility.yul\":11016:11019   */\n      dup5\n        /* \"#utility.yul\":11012:11051   */\n      add\n        /* \"#utility.yul\":11005:11051   */\n      swap2\n      pop\n        /* \"#utility.yul\":10772:11057   */\n      pop\n        /* \"#utility.yul\":10680:11057   */\n      swap3\n      swap2\n      pop\n      pop\n      jump\t// out\n        /* \"#utility.yul\":11063:11486   */\n    tag_51:\n        /* \"#utility.yul\":11204:11208   */\n      0x00\n        /* \"#utility.yul\":11242:11244   */\n      0x40\n        /* \"#utility.yul\":11231:11240   */\n      dup3\n        /* \"#utility.yul\":11227:11245   */\n      add\n        /* \"#utility.yul\":11219:11245   */\n      swap1\n      pop\n        /* \"#utility.yul\":11255:11326   */\n      tag_236\n        /* \"#utility.yul\":11323:11324   */\n      0x00\n        /* \"#utility.yul\":11312:11321   */\n      dup4\n        /* \"#utility.yul\":11308:11325   */\n      add\n        /* \"#utility.yul\":11299:11305   */\n      dup6\n        /* \"#utility.yul\":11255:11326   */\n      tag_83\n      jump\t// in\n    tag_236:\n        /* \"#utility.yul\":11373:11382   */\n      dup2\n        /* \"#utility.yul\":11367:11371   */\n      dup2\n        /* \"#utility.yul\":11363:11383   */\n      sub\n        /* \"#utility.yul\":11358:11360   */\n      0x20\n        /* \"#utility.yul\":11347:11356   */\n      dup4\n        /* \"#utility.yul\":11343:11361   */\n      add\n        /* \"#utility.yul\":11336:11384   */\n      mstore\n        /* \"#utility.yul\":11401:11479   */\n      tag_237\n        /* \"#utility.yul\":11474:11478   */\n      dup2\n        /* \"#utility.yul\":11465:11471   */\n      dup5\n        /* \"#utility.yul\":11401:11479   */\n      tag_112\n      jump\t// in\n    tag_237:\n        /* \"#utility.yul\":11393:11479   */\n      swap1\n      pop\n        /* \"#utility.yul\":11063:11486   */\n      swap4\n      swap3\n      pop\n      pop\n      pop\n      jump\t// out\n        /* \"#utility.yul\":11492:11724   */\n    tag_113:\n        /* \"#utility.yul\":11632:11666   */\n      0x50617469656e7420646f6e27742065786973747321436865636b207061746965\n        /* \"#utility.yul\":11628:11629   */\n      0x00\n        /* \"#utility.yul\":11620:11626   */\n      dup3\n        /* \"#utility.yul\":11616:11630   */\n      add\n        /* \"#utility.yul\":11609:11667   */\n      mstore\n        /* \"#utility.yul\":11701:11716   */\n      0x6e742773206163636f756e742100000000000000000000000000000000000000\n        /* \"#utility.yul\":11696:11698   */\n      0x20\n        /* \"#utility.yul\":11688:11694   */\n      dup3\n        /* \"#utility.yul\":11684:11699   */\n      add\n        /* \"#utility.yul\":11677:11717   */\n      mstore\n        /* \"#utility.yul\":11492:11724   */\n      pop\n      jump\t// out\n        /* \"#utility.yul\":11730:12096   */\n    tag_114:\n        /* \"#utility.yul\":11872:11875   */\n      0x00\n        /* \"#utility.yul\":11893:11960   */\n      tag_240\n        /* \"#utility.yul\":11957:11959   */\n      0x2d\n        /* \"#utility.yul\":11952:11955   */\n      dup4\n        /* \"#utility.yul\":11893:11960   */\n      tag_78\n      jump\t// in\n    tag_240:\n        /* \"#utility.yul\":11886:11960   */\n      swap2\n      pop\n        /* \"#utility.yul\":11969:12062   */\n      tag_241\n        /* \"#utility.yul\":12058:12061   */\n      dup3\n        /* \"#utility.yul\":11969:12062   */\n      tag_113\n      jump\t// in\n    tag_241:\n        /* \"#utility.yul\":12087:12089   */\n      0x40\n        /* \"#utility.yul\":12082:12085   */\n      dup3\n        /* \"#utility.yul\":12078:12090   */\n      add\n        /* \"#utility.yul\":12071:12090   */\n      swap1\n      pop\n        /* \"#utility.yul\":11730:12096   */\n      swap2\n      swap1\n      pop\n      jump\t// out\n        /* \"#utility.yul\":12102:12521   */\n    tag_58:\n        /* \"#utility.yul\":12268:12272   */\n      0x00\n        /* \"#utility.yul\":12306:12308   */\n      0x20\n        /* \"#utility.yul\":12295:12304   */\n      dup3\n        /* \"#utility.yul\":12291:12309   */\n      add\n        /* \"#utility.yul\":12283:12309   */\n      swap1\n      pop\n        /* \"#utility.yul\":12355:12364   */\n      dup2\n        /* \"#utility.yul\":12349:12353   */\n      dup2\n        /* \"#utility.yul\":12345:12365   */\n      sub\n        /* \"#utility.yul\":12341:12342   */\n      0x00\n        /* \"#utility.yul\":12330:12339   */\n      dup4\n        /* \"#utility.yul\":12326:12343   */\n      add\n        /* \"#utility.yul\":12319:12366   */\n      mstore\n        /* \"#utility.yul\":12383:12514   */\n      tag_243\n        /* \"#utility.yul\":12509:12513   */\n      dup2\n        /* \"#utility.yul\":12383:12514   */\n      tag_114\n      jump\t// in\n    tag_243:\n        /* \"#utility.yul\":12375:12514   */\n      swap1\n      pop\n        /* \"#utility.yul\":12102:12521   */\n      swap2\n      swap1\n      pop\n      jump\t// out\n        /* \"#utility.yul\":12527:12840   */\n    tag_61:\n        /* \"#utility.yul\":12640:12644   */\n      0x00\n        /* \"#utility.yul\":12678:12680   */\n      0x20\n        /* \"#utility.yul\":12667:12676   */\n      dup3\n        /* \"#utility.yul\":12663:12681   */\n      add\n        /* \"#utility.yul\":12655:12681   */\n      swap1\n      pop\n        /* \"#utility.yul\":12727:12736   */\n      dup2\n        /* \"#utility.yul\":12721:12725   */\n      dup2\n        /* \"#utility.yul\":12717:12737   */\n      sub\n        /* \"#utility.yul\":12713:12714   */\n      0x00\n        /* \"#utility.yul\":12702:12711   */\n      dup4\n        /* \"#utility.yul\":12698:12715   */\n      add\n        /* \"#utility.yul\":12691:12738   */\n      mstore\n        /* \"#utility.yul\":12755:12833   */\n      tag_245\n        /* \"#utility.yul\":12828:12832   */\n      dup2\n        /* \"#utility.yul\":12819:12825   */\n      dup5\n        /* \"#utility.yul\":12755:12833   */\n      tag_112\n      jump\t// in\n    tag_245:\n        /* \"#utility.yul\":12747:12833   */\n      swap1\n      pop\n        /* \"#utility.yul\":12527:12840   */\n      swap3\n      swap2\n      pop\n      pop\n      jump\t// out\n        /* \"#utility.yul\":12846:12962   */\n    tag_115:\n        /* \"#utility.yul\":12916:12937   */\n      tag_247\n        /* \"#utility.yul\":12931:12936   */\n      dup2\n        /* \"#utility.yul\":12916:12937   */\n      tag_101\n      jump\t// in\n    tag_247:\n        /* \"#utility.yul\":12909:12914   */\n      dup2\n        /* \"#utility.yul\":12906:12938   */\n      eq\n        /* \"#utility.yul\":12896:12956   */\n      tag_248\n      jumpi\n        /* \"#utility.yul\":12952:12953   */\n      0x00\n        /* \"#utility.yul\":12949:12950   */\n      dup1\n        /* \"#utility.yul\":12942:12954   */\n      revert\n        /* \"#utility.yul\":12896:12956   */\n    tag_248:\n        /* \"#utility.yul\":12846:12962   */\n      pop\n      jump\t// out\n        /* \"#utility.yul\":12968:13105   */\n    tag_116:\n        /* \"#utility.yul\":13022:13027   */\n      0x00\n        /* \"#utility.yul\":13053:13059   */\n      dup2\n        /* \"#utility.yul\":13047:13060   */\n      mload\n        /* \"#utility.yul\":13038:13060   */\n      swap1\n      pop\n        /* \"#utility.yul\":13069:13099   */\n      tag_250\n        /* \"#utility.yul\":13093:13098   */\n      dup2\n        /* \"#utility.yul\":13069:13099   */\n      tag_115\n      jump\t// in\n    tag_250:\n        /* \"#utility.yul\":12968:13105   */\n      swap3\n      swap2\n      pop\n      pop\n      jump\t// out\n        /* \"#utility.yul\":13111:13456   */\n    tag_65:\n        /* \"#utility.yul\":13178:13184   */\n      0x00\n        /* \"#utility.yul\":13227:13229   */\n      0x20\n        /* \"#utility.yul\":13215:13224   */\n      dup3\n        /* \"#utility.yul\":13206:13213   */\n      dup5\n        /* \"#utility.yul\":13202:13225   */\n      sub\n        /* \"#utility.yul\":13198:13230   */\n      slt\n        /* \"#utility.yul\":13195:13314   */\n      iszero\n      tag_252\n      jumpi\n        /* \"#utility.yul\":13233:13312   */\n      tag_253\n      tag_89\n      jump\t// in\n    tag_253:\n        /* \"#utility.yul\":13195:13314   */\n    tag_252:\n        /* \"#utility.yul\":13353:13354   */\n      0x00\n        /* \"#utility.yul\":13378:13439   */\n      tag_254\n        /* \"#utility.yul\":13431:13438   */\n      dup5\n        /* \"#utility.yul\":13422:13428   */\n      dup3\n        /* \"#utility.yul\":13411:13420   */\n      dup6\n        /* \"#utility.yul\":13407:13429   */\n      add\n        /* \"#utility.yul\":13378:13439   */\n      tag_116\n      jump\t// in\n    tag_254:\n        /* \"#utility.yul\":13368:13439   */\n      swap2\n      pop\n        /* \"#utility.yul\":13324:13449   */\n      pop\n        /* \"#utility.yul\":13111:13456   */\n      swap3\n      swap2\n      pop\n      pop\n      jump\t// out\n        /* \"#utility.yul\":13462:13618   */\n    tag_117:\n        /* \"#utility.yul\":13602:13610   */\n      0x446f63746f720000000000000000000000000000000000000000000000000000\n        /* \"#utility.yul\":13598:13599   */\n      0x00\n        /* \"#utility.yul\":13590:13596   */\n      dup3\n        /* \"#utility.yul\":13586:13600   */\n      add\n        /* \"#utility.yul\":13579:13611   */\n      mstore\n        /* \"#utility.yul\":13462:13618   */\n      pop\n      jump\t// out\n        /* \"#utility.yul\":13624:13989   */\n    tag_118:\n        /* \"#utility.yul\":13766:13769   */\n      0x00\n        /* \"#utility.yul\":13787:13853   */\n      tag_257\n        /* \"#utility.yul\":13851:13852   */\n      0x06\n        /* \"#utility.yul\":13846:13849   */\n      dup4\n        /* \"#utility.yul\":13787:13853   */\n      tag_78\n      jump\t// in\n    tag_257:\n        /* \"#utility.yul\":13780:13853   */\n      swap2\n      pop\n        /* \"#utility.yul\":13862:13955   */\n      tag_258\n        /* \"#utility.yul\":13951:13954   */\n      dup3\n        /* \"#utility.yul\":13862:13955   */\n      tag_117\n      jump\t// in\n    tag_258:\n        /* \"#utility.yul\":13980:13982   */\n      0x20\n        /* \"#utility.yul\":13975:13978   */\n      dup3\n        /* \"#utility.yul\":13971:13983   */\n      add\n        /* \"#utility.yul\":13964:13983   */\n      swap1\n      pop\n        /* \"#utility.yul\":13624:13989   */\n      swap2\n      swap1\n      pop\n      jump\t// out\n        /* \"#utility.yul\":13995:14615   */\n    tag_72:\n        /* \"#utility.yul\":14209:14213   */\n      0x00\n        /* \"#utility.yul\":14247:14249   */\n      0x40\n        /* \"#utility.yul\":14236:14245   */\n      dup3\n        /* \"#utility.yul\":14232:14250   */\n      add\n        /* \"#utility.yul\":14224:14250   */\n      swap1\n      pop\n        /* \"#utility.yul\":14296:14305   */\n      dup2\n        /* \"#utility.yul\":14290:14294   */\n      dup2\n        /* \"#utility.yul\":14286:14306   */\n      sub\n        /* \"#utility.yul\":14282:14283   */\n      0x00\n        /* \"#utility.yul\":14271:14280   */\n      dup4\n        /* \"#utility.yul\":14267:14284   */\n      add\n        /* \"#utility.yul\":14260:14307   */\n      mstore\n        /* \"#utility.yul\":14324:14455   */\n      tag_260\n        /* \"#utility.yul\":14450:14454   */\n      dup2\n        /* \"#utility.yul\":14324:14455   */\n      tag_118\n      jump\t// in\n    tag_260:\n        /* \"#utility.yul\":14316:14455   */\n      swap1\n      pop\n        /* \"#utility.yul\":14502:14511   */\n      dup2\n        /* \"#utility.yul\":14496:14500   */\n      dup2\n        /* \"#utility.yul\":14492:14512   */\n      sub\n        /* \"#utility.yul\":14487:14489   */\n      0x20\n        /* \"#utility.yul\":14476:14485   */\n      dup4\n        /* \"#utility.yul\":14472:14490   */\n      add\n        /* \"#utility.yul\":14465:14513   */\n      mstore\n        /* \"#utility.yul\":14530:14608   */\n      tag_261\n        /* \"#utility.yul\":14603:14607   */\n      dup2\n        /* \"#utility.yul\":14594:14600   */\n      dup5\n        /* \"#utility.yul\":14530:14608   */\n      tag_112\n      jump\t// in\n    tag_261:\n        /* \"#utility.yul\":14522:14608   */\n      swap1\n      pop\n        /* \"#utility.yul\":13995:14615   */\n      swap3\n      swap2\n      pop\n      pop\n      jump\t// out\n        /* \"#utility.yul\":14621:14793   */\n    tag_119:\n        /* \"#utility.yul\":14761:14785   */\n      0x455243313136373a20637265617465206661696c656400000000000000000000\n        /* \"#utility.yul\":14757:14758   */\n      0x00\n        /* \"#utility.yul\":14749:14755   */\n      dup3\n        /* \"#utility.yul\":14745:14759   */\n      add\n        /* \"#utility.yul\":14738:14786   */\n      mstore\n        /* \"#utility.yul\":14621:14793   */\n      pop\n      jump\t// out\n        /* \"#utility.yul\":14799:15165   */\n    tag_120:\n        /* \"#utility.yul\":14941:14944   */\n      0x00\n        /* \"#utility.yul\":14962:15029   */\n      tag_264\n        /* \"#utility.yul\":15026:15028   */\n      0x16\n        /* \"#utility.yul\":15021:15024   */\n      dup4\n        /* \"#utility.yul\":14962:15029   */\n      tag_78\n      jump\t// in\n    tag_264:\n        /* \"#utility.yul\":14955:15029   */\n      swap2\n      pop\n        /* \"#utility.yul\":15038:15131   */\n      tag_265\n        /* \"#utility.yul\":15127:15130   */\n      dup3\n        /* \"#utility.yul\":15038:15131   */\n      tag_119\n      jump\t// in\n    tag_265:\n        /* \"#utility.yul\":15156:15158   */\n      0x20\n        /* \"#utility.yul\":15151:15154   */\n      dup3\n        /* \"#utility.yul\":15147:15159   */\n      add\n        /* \"#utility.yul\":15140:15159   */\n      swap1\n      pop\n        /* \"#utility.yul\":14799:15165   */\n      swap2\n      swap1\n      pop\n      jump\t// out\n        /* \"#utility.yul\":15171:15590   */\n    tag_77:\n        /* \"#utility.yul\":15337:15341   */\n      0x00\n        /* \"#utility.yul\":15375:15377   */\n      0x20\n        /* \"#utility.yul\":15364:15373   */\n      dup3\n        /* \"#utility.yul\":15360:15378   */\n      add\n        /* \"#utility.yul\":15352:15378   */\n      swap1\n      pop\n        /* \"#utility.yul\":15424:15433   */\n      dup2\n        /* \"#utility.yul\":15418:15422   */\n      dup2\n        /* \"#utility.yul\":15414:15434   */\n      sub\n        /* \"#utility.yul\":15410:15411   */\n      0x00\n        /* \"#utility.yul\":15399:15408   */\n      dup4\n        /* \"#utility.yul\":15395:15412   */\n      add\n        /* \"#utility.yul\":15388:15435   */\n      mstore\n        /* \"#utility.yul\":15452:15583   */\n      tag_267\n        /* \"#utility.yul\":15578:15582   */\n      dup2\n        /* \"#utility.yul\":15452:15583   */\n      tag_120\n      jump\t// in\n    tag_267:\n        /* \"#utility.yul\":15444:15583   */\n      swap1\n      pop\n        /* \"#utility.yul\":15171:15590   */\n      swap2\n      swap1\n      pop\n      jump\t// out\n\n    auxdata: 0xa264697066735822122070cd019b8a3501b631e496dfa1ec332ed2ac7318951756c04ea8096c4d74f7e764736f6c63430008120033\n}\n",
				"bytecode": {
					"linkReferences": {},
					"object": "6080604052600080553480156200001557600080fd5b506040516200114b3803806200114b83398181016040528101906200003b9190620000ed565b80600260006101000a81548173ffffffffffffffffffffffffffffffffffffffff021916908373ffffffffffffffffffffffffffffffffffffffff160217905550506200011f565b600080fd5b600073ffffffffffffffffffffffffffffffffffffffff82169050919050565b6000620000b58262000088565b9050919050565b620000c781620000a8565b8114620000d357600080fd5b50565b600081519050620000e781620000bc565b92915050565b60006020828403121562000106576200010562000083565b5b60006200011684828501620000d6565b91505092915050565b61101c806200012f6000396000f3fe608060405234801561001057600080fd5b506004361061005b5760003560e01c806335a271781461009a5780636ad248af146100a4578063a5657a91146100c0578063b4433477146100f0578063cd8cb1371461010c5761005c565b5b7fa46ff6f8d8019b1a730a7666fa32a0236c89399dd776007c7485144b71e9e27933600036604051610090939291906108cc565b60405180910390a1005b6100a261012a565b005b6100be60048036038101906100b99190610a4b565b610373565b005b6100da60048036038101906100d59190610ac0565b610448565b6040516100e79190610b37565b60405180910390f35b61010a60048036038101906101059190610a4b565b610601565b005b61011461070d565b6040516101219190610b6b565b60405180910390f35b600073ffffffffffffffffffffffffffffffffffffffff16600160003373ffffffffffffffffffffffffffffffffffffffff1673ffffffffffffffffffffffffffffffffffffffff16815260200190815260200160002060009054906101000a900473ffffffffffffffffffffffffffffffffffffffff1673ffffffffffffffffffffffffffffffffffffffff16146101f8576040517f08c379a00000000000000000000000000000000000000000000000000000000081526004016101ef90610bd2565b60405180910390fd5b6000610225600260009054906101000a900473ffffffffffffffffffffffffffffffffffffffff16610716565b90508073ffffffffffffffffffffffffffffffffffffffff16634420e486336040518263ffffffff1660e01b81526004016102609190610bf2565b600060405180830381600087803b15801561027a57600080fd5b505af115801561028e573d6000803e3d6000fd5b5050505080600160003373ffffffffffffffffffffffffffffffffffffffff1673ffffffffffffffffffffffffffffffffffffffff16815260200190815260200160002060006101000a81548173ffffffffffffffffffffffffffffffffffffffff021916908373ffffffffffffffffffffffffffffffffffffffff16021790555060008081548092919061032290610c3c565b91905055507f85858416f612212ddb7c6344d7b58182bad1de3be71438a88c6f19f0fa2b826d3360016000546103589190610c84565b8360405161036893929190610d04565b60405180910390a150565b6000600160003373ffffffffffffffffffffffffffffffffffffffff1673ffffffffffffffffffffffffffffffffffffffff16815260200190815260200160002060009054906101000a900473ffffffffffffffffffffffffffffffffffffffff1690508073ffffffffffffffffffffffffffffffffffffffff1663f306421133846040518363ffffffff1660e01b8152600401610412929190610dbc565b600060405180830381600087803b15801561042c57600080fd5b505af1158015610440573d6000803e3d6000fd5b505050505050565b600082600073ffffffffffffffffffffffffffffffffffffffff16600160008373ffffffffffffffffffffffffffffffffffffffff1673ffffffffffffffffffffffffffffffffffffffff16815260200190815260200160002060009054906101000a900473ffffffffffffffffffffffffffffffffffffffff1673ffffffffffffffffffffffffffffffffffffffff1603610519576040517f08c379a000000000000000000000000000000000000000000000000000000000815260040161051090610e5e565b60405180910390fd5b6000600160008673ffffffffffffffffffffffffffffffffffffffff1673ffffffffffffffffffffffffffffffffffffffff16815260200190815260200160002060009054906101000a900473ffffffffffffffffffffffffffffffffffffffff1690508073ffffffffffffffffffffffffffffffffffffffff1663c8164863856040518263ffffffff1660e01b81526004016105b69190610e7e565b602060405180830381865afa1580156105d3573d6000803e3d6000fd5b505050506040513d601f19601f820116820180604052508101906105f79190610ecc565b9250505092915050565b6000600160003373ffffffffffffffffffffffffffffffffffffffff1673ffffffffffffffffffffffffffffffffffffffff16815260200190815260200160002060009054906101000a900473ffffffffffffffffffffffffffffffffffffffff1690508073ffffffffffffffffffffffffffffffffffffffff1663f9ad4d7333846040518363ffffffff1660e01b81526004016106a0929190610dbc565b600060405180830381600087803b1580156106ba57600080fd5b505af11580156106ce573d6000803e3d6000fd5b505050507f2690dfdaec1cf49fcc01e1f85c19261f164f5000a265a51afd32a4bd19e68743826040516107019190610f45565b60405180910390a15050565b60008054905090565b6000763d602d80600a3d3981f3363d3d373d3d3d363d730000008260601b60e81c176000526e5af43d82803e903d91602b57fd5bf38260781b17602052603760096000f09050600073ffffffffffffffffffffffffffffffffffffffff168173ffffffffffffffffffffffffffffffffffffffff16036107cb576040517f08c379a00000000000000000000000000000000000000000000000000000000081526004016107c290610fc6565b60405180910390fd5b919050565b600082825260208201905092915050565b7f66616c6c6261636b000000000000000000000000000000000000000000000000600082015250565b60006108176008836107d0565b9150610822826107e1565b602082019050919050565b600073ffffffffffffffffffffffffffffffffffffffff82169050919050565b60006108588261082d565b9050919050565b6108688161084d565b82525050565b600082825260208201905092915050565b82818337600083830152505050565b6000601f19601f8301169050919050565b60006108ab838561086e565b93506108b883858461087f565b6108c18361088e565b840190509392505050565b600060608201905081810360008301526108e58161080a565b90506108f4602083018661085f565b818103604083015261090781848661089f565b9050949350505050565b6000604051905090565b600080fd5b600080fd5b600080fd5b600080fd5b7f4e487b7100000000000000000000000000000000000000000000000000000000600052604160045260246000fd5b6109678261088e565b810181811067ffffffffffffffff821117156109865761098561092f565b5b80604052505050565b6000610999610911565b90506109a5828261095e565b919050565b600067ffffffffffffffff8211156109c5576109c461092f565b5b6109ce8261088e565b9050602081019050919050565b60006109ee6109e9846109aa565b61098f565b905082815260208101848484011115610a0a57610a0961092a565b5b610a1584828561087f565b509392505050565b600082601f830112610a3257610a31610925565b5b8135610a428482602086016109db565b91505092915050565b600060208284031215610a6157610a6061091b565b5b600082013567ffffffffffffffff811115610a7f57610a7e610920565b5b610a8b84828501610a1d565b91505092915050565b610a9d8161084d565b8114610aa857600080fd5b50565b600081359050610aba81610a94565b92915050565b60008060408385031215610ad757610ad661091b565b5b6000610ae585828601610aab565b925050602083013567ffffffffffffffff811115610b0657610b05610920565b5b610b1285828601610a1d565b9150509250929050565b60008115159050919050565b610b3181610b1c565b82525050565b6000602082019050610b4c6000830184610b28565b92915050565b6000819050919050565b610b6581610b52565b82525050565b6000602082019050610b806000830184610b5c565b92915050565b7f596f752077657265207265676973746572210000000000000000000000000000600082015250565b6000610bbc6012836107d0565b9150610bc782610b86565b602082019050919050565b60006020820190508181036000830152610beb81610baf565b9050919050565b6000602082019050610c07600083018461085f565b92915050565b7f4e487b7100000000000000000000000000000000000000000000000000000000600052601160045260246000fd5b6000610c4782610b52565b91507fffffffffffffffffffffffffffffffffffffffffffffffffffffffffffffffff8203610c7957610c78610c0d565b5b600182019050919050565b6000610c8f82610b52565b9150610c9a83610b52565b9250828203905081811115610cb257610cb1610c0d565b5b92915050565b7f4372656174652070617469656e743a2000000000000000000000000000000000600082015250565b6000610cee6010836107d0565b9150610cf982610cb8565b602082019050919050565b60006080820190508181036000830152610d1d81610ce1565b9050610d2c602083018661085f565b610d396040830185610b5c565b610d46606083018461085f565b949350505050565b600081519050919050565b60005b83811015610d77578082015181840152602081019050610d5c565b60008484015250505050565b6000610d8e82610d4e565b610d9881856107d0565b9350610da8818560208601610d59565b610db18161088e565b840191505092915050565b6000604082019050610dd1600083018561085f565b8181036020830152610de38184610d83565b90509392505050565b7f50617469656e7420646f6e27742065786973747321436865636b20706174696560008201527f6e742773206163636f756e742100000000000000000000000000000000000000602082015250565b6000610e48602d836107d0565b9150610e5382610dec565b604082019050919050565b60006020820190508181036000830152610e7781610e3b565b9050919050565b60006020820190508181036000830152610e988184610d83565b905092915050565b610ea981610b1c565b8114610eb457600080fd5b50565b600081519050610ec681610ea0565b92915050565b600060208284031215610ee257610ee161091b565b5b6000610ef084828501610eb7565b91505092915050565b7f446f63746f720000000000000000000000000000000000000000000000000000600082015250565b6000610f2f6006836107d0565b9150610f3a82610ef9565b602082019050919050565b60006040820190508181036000830152610f5e81610f22565b90508181036020830152610f728184610d83565b905092915050565b7f455243313136373a20637265617465206661696c656400000000000000000000600082015250565b6000610fb06016836107d0565b9150610fbb82610f7a565b602082019050919050565b60006020820190508181036000830152610fdf81610fa3565b905091905056fea264697066735822122070cd019b8a3501b631e496dfa1ec332ed2ac7318951756c04ea8096c4d74f7e764736f6c63430008120033",
					"opcodes": "PUSH1 0x80 PUSH1 0x40 MSTORE PUSH1 0x0 DUP1 SSTORE CALLVALUE DUP1 ISZERO PUSH3 0x15 JUMPI PUSH1 0x0 DUP1 REVERT JUMPDEST POP PUSH1 0x40 MLOAD PUSH3 0x114B CODESIZE SUB DUP1 PUSH3 0x114B DUP4 CODECOPY DUP2 DUP2 ADD PUSH1 0x40 MSTORE DUP2 ADD SWAP1 PUSH3 0x3B SWAP2 SWAP1 PUSH3 0xED JUMP JUMPDEST DUP1 PUSH1 0x2 PUSH1 0x0 PUSH2 0x100 EXP DUP2 SLOAD DUP2 PUSH20 0xFFFFFFFFFFFFFFFFFFFFFFFFFFFFFFFFFFFFFFFF MUL NOT AND SWAP1 DUP4 PUSH20 0xFFFFFFFFFFFFFFFFFFFFFFFFFFFFFFFFFFFFFFFF AND MUL OR SWAP1 SSTORE POP POP PUSH3 0x11F JUMP JUMPDEST PUSH1 0x0 DUP1 REVERT JUMPDEST PUSH1 0x0 PUSH20 0xFFFFFFFFFFFFFFFFFFFFFFFFFFFFFFFFFFFFFFFF DUP3 AND SWAP1 POP SWAP2 SWAP1 POP JUMP JUMPDEST PUSH1 0x0 PUSH3 0xB5 DUP3 PUSH3 0x88 JUMP JUMPDEST SWAP1 POP SWAP2 SWAP1 POP JUMP JUMPDEST PUSH3 0xC7 DUP2 PUSH3 0xA8 JUMP JUMPDEST DUP2 EQ PUSH3 0xD3 JUMPI PUSH1 0x0 DUP1 REVERT JUMPDEST POP JUMP JUMPDEST PUSH1 0x0 DUP2 MLOAD SWAP1 POP PUSH3 0xE7 DUP2 PUSH3 0xBC JUMP JUMPDEST SWAP3 SWAP2 POP POP JUMP JUMPDEST PUSH1 0x0 PUSH1 0x20 DUP3 DUP5 SUB SLT ISZERO PUSH3 0x106 JUMPI PUSH3 0x105 PUSH3 0x83 JUMP JUMPDEST JUMPDEST PUSH1 0x0 PUSH3 0x116 DUP5 DUP3 DUP6 ADD PUSH3 0xD6 JUMP JUMPDEST SWAP2 POP POP SWAP3 SWAP2 POP POP JUMP JUMPDEST PUSH2 0x101C DUP1 PUSH3 0x12F PUSH1 0x0 CODECOPY PUSH1 0x0 RETURN INVALID PUSH1 0x80 PUSH1 0x40 MSTORE CALLVALUE DUP1 ISZERO PUSH2 0x10 JUMPI PUSH1 0x0 DUP1 REVERT JUMPDEST POP PUSH1 0x4 CALLDATASIZE LT PUSH2 0x5B JUMPI PUSH1 0x0 CALLDATALOAD PUSH1 0xE0 SHR DUP1 PUSH4 0x35A27178 EQ PUSH2 0x9A JUMPI DUP1 PUSH4 0x6AD248AF EQ PUSH2 0xA4 JUMPI DUP1 PUSH4 0xA5657A91 EQ PUSH2 0xC0 JUMPI DUP1 PUSH4 0xB4433477 EQ PUSH2 0xF0 JUMPI DUP1 PUSH4 0xCD8CB137 EQ PUSH2 0x10C JUMPI PUSH2 0x5C JUMP JUMPDEST JUMPDEST PUSH32 0xA46FF6F8D8019B1A730A7666FA32A0236C89399DD776007C7485144B71E9E279 CALLER PUSH1 0x0 CALLDATASIZE PUSH1 0x40 MLOAD PUSH2 0x90 SWAP4 SWAP3 SWAP2 SWAP1 PUSH2 0x8CC JUMP JUMPDEST PUSH1 0x40 MLOAD DUP1 SWAP2 SUB SWAP1 LOG1 STOP JUMPDEST PUSH2 0xA2 PUSH2 0x12A JUMP JUMPDEST STOP JUMPDEST PUSH2 0xBE PUSH1 0x4 DUP1 CALLDATASIZE SUB DUP2 ADD SWAP1 PUSH2 0xB9 SWAP2 SWAP1 PUSH2 0xA4B JUMP JUMPDEST PUSH2 0x373 JUMP JUMPDEST STOP JUMPDEST PUSH2 0xDA PUSH1 0x4 DUP1 CALLDATASIZE SUB DUP2 ADD SWAP1 PUSH2 0xD5 SWAP2 SWAP1 PUSH2 0xAC0 JUMP JUMPDEST PUSH2 0x448 JUMP JUMPDEST PUSH1 0x40 MLOAD PUSH2 0xE7 SWAP2 SWAP1 PUSH2 0xB37 JUMP JUMPDEST PUSH1 0x40 MLOAD DUP1 SWAP2 SUB SWAP1 RETURN JUMPDEST PUSH2 0x10A PUSH1 0x4 DUP1 CALLDATASIZE SUB DUP2 ADD SWAP1 PUSH2 0x105 SWAP2 SWAP1 PUSH2 0xA4B JUMP JUMPDEST PUSH2 0x601 JUMP JUMPDEST STOP JUMPDEST PUSH2 0x114 PUSH2 0x70D JUMP JUMPDEST PUSH1 0x40 MLOAD PUSH2 0x121 SWAP2 SWAP1 PUSH2 0xB6B JUMP JUMPDEST PUSH1 0x40 MLOAD DUP1 SWAP2 SUB SWAP1 RETURN JUMPDEST PUSH1 0x0 PUSH20 0xFFFFFFFFFFFFFFFFFFFFFFFFFFFFFFFFFFFFFFFF AND PUSH1 0x1 PUSH1 0x0 CALLER PUSH20 0xFFFFFFFFFFFFFFFFFFFFFFFFFFFFFFFFFFFFFFFF AND PUSH20 0xFFFFFFFFFFFFFFFFFFFFFFFFFFFFFFFFFFFFFFFF AND DUP2 MSTORE PUSH1 0x20 ADD SWAP1 DUP2 MSTORE PUSH1 0x20 ADD PUSH1 0x0 KECCAK256 PUSH1 0x0 SWAP1 SLOAD SWAP1 PUSH2 0x100 EXP SWAP1 DIV PUSH20 0xFFFFFFFFFFFFFFFFFFFFFFFFFFFFFFFFFFFFFFFF AND PUSH20 0xFFFFFFFFFFFFFFFFFFFFFFFFFFFFFFFFFFFFFFFF AND EQ PUSH2 0x1F8 JUMPI PUSH1 0x40 MLOAD PUSH32 0x8C379A000000000000000000000000000000000000000000000000000000000 DUP2 MSTORE PUSH1 0x4 ADD PUSH2 0x1EF SWAP1 PUSH2 0xBD2 JUMP JUMPDEST PUSH1 0x40 MLOAD DUP1 SWAP2 SUB SWAP1 REVERT JUMPDEST PUSH1 0x0 PUSH2 0x225 PUSH1 0x2 PUSH1 0x0 SWAP1 SLOAD SWAP1 PUSH2 0x100 EXP SWAP1 DIV PUSH20 0xFFFFFFFFFFFFFFFFFFFFFFFFFFFFFFFFFFFFFFFF AND PUSH2 0x716 JUMP JUMPDEST SWAP1 POP DUP1 PUSH20 0xFFFFFFFFFFFFFFFFFFFFFFFFFFFFFFFFFFFFFFFF AND PUSH4 0x4420E486 CALLER PUSH1 0x40 MLOAD DUP3 PUSH4 0xFFFFFFFF AND PUSH1 0xE0 SHL DUP2 MSTORE PUSH1 0x4 ADD PUSH2 0x260 SWAP2 SWAP1 PUSH2 0xBF2 JUMP JUMPDEST PUSH1 0x0 PUSH1 0x40 MLOAD DUP1 DUP4 SUB DUP2 PUSH1 0x0 DUP8 DUP1 EXTCODESIZE ISZERO DUP1 ISZERO PUSH2 0x27A JUMPI PUSH1 0x0 DUP1 REVERT JUMPDEST POP GAS CALL ISZERO DUP1 ISZERO PUSH2 0x28E JUMPI RETURNDATASIZE PUSH1 0x0 DUP1 RETURNDATACOPY RETURNDATASIZE PUSH1 0x0 REVERT JUMPDEST POP POP POP POP DUP1 PUSH1 0x1 PUSH1 0x0 CALLER PUSH20 0xFFFFFFFFFFFFFFFFFFFFFFFFFFFFFFFFFFFFFFFF AND PUSH20 0xFFFFFFFFFFFFFFFFFFFFFFFFFFFFFFFFFFFFFFFF AND DUP2 MSTORE PUSH1 0x20 ADD SWAP1 DUP2 MSTORE PUSH1 0x20 ADD PUSH1 0x0 KECCAK256 PUSH1 0x0 PUSH2 0x100 EXP DUP2 SLOAD DUP2 PUSH20 0xFFFFFFFFFFFFFFFFFFFFFFFFFFFFFFFFFFFFFFFF MUL NOT AND SWAP1 DUP4 PUSH20 0xFFFFFFFFFFFFFFFFFFFFFFFFFFFFFFFFFFFFFFFF AND MUL OR SWAP1 SSTORE POP PUSH1 0x0 DUP1 DUP2 SLOAD DUP1 SWAP3 SWAP2 SWAP1 PUSH2 0x322 SWAP1 PUSH2 0xC3C JUMP JUMPDEST SWAP2 SWAP1 POP SSTORE POP PUSH32 0x85858416F612212DDB7C6344D7B58182BAD1DE3BE71438A88C6F19F0FA2B826D CALLER PUSH1 0x1 PUSH1 0x0 SLOAD PUSH2 0x358 SWAP2 SWAP1 PUSH2 0xC84 JUMP JUMPDEST DUP4 PUSH1 0x40 MLOAD PUSH2 0x368 SWAP4 SWAP3 SWAP2 SWAP1 PUSH2 0xD04 JUMP JUMPDEST PUSH1 0x40 MLOAD DUP1 SWAP2 SUB SWAP1 LOG1 POP JUMP JUMPDEST PUSH1 0x0 PUSH1 0x1 PUSH1 0x0 CALLER PUSH20 0xFFFFFFFFFFFFFFFFFFFFFFFFFFFFFFFFFFFFFFFF AND PUSH20 0xFFFFFFFFFFFFFFFFFFFFFFFFFFFFFFFFFFFFFFFF AND DUP2 MSTORE PUSH1 0x20 ADD SWAP1 DUP2 MSTORE PUSH1 0x20 ADD PUSH1 0x0 KECCAK256 PUSH1 0x0 SWAP1 SLOAD SWAP1 PUSH2 0x100 EXP SWAP1 DIV PUSH20 0xFFFFFFFFFFFFFFFFFFFFFFFFFFFFFFFFFFFFFFFF AND SWAP1 POP DUP1 PUSH20 0xFFFFFFFFFFFFFFFFFFFFFFFFFFFFFFFFFFFFFFFF AND PUSH4 0xF3064211 CALLER DUP5 PUSH1 0x40 MLOAD DUP4 PUSH4 0xFFFFFFFF AND PUSH1 0xE0 SHL DUP2 MSTORE PUSH1 0x4 ADD PUSH2 0x412 SWAP3 SWAP2 SWAP1 PUSH2 0xDBC JUMP JUMPDEST PUSH1 0x0 PUSH1 0x40 MLOAD DUP1 DUP4 SUB DUP2 PUSH1 0x0 DUP8 DUP1 EXTCODESIZE ISZERO DUP1 ISZERO PUSH2 0x42C JUMPI PUSH1 0x0 DUP1 REVERT JUMPDEST POP GAS CALL ISZERO DUP1 ISZERO PUSH2 0x440 JUMPI RETURNDATASIZE PUSH1 0x0 DUP1 RETURNDATACOPY RETURNDATASIZE PUSH1 0x0 REVERT JUMPDEST POP POP POP POP POP POP JUMP JUMPDEST PUSH1 0x0 DUP3 PUSH1 0x0 PUSH20 0xFFFFFFFFFFFFFFFFFFFFFFFFFFFFFFFFFFFFFFFF AND PUSH1 0x1 PUSH1 0x0 DUP4 PUSH20 0xFFFFFFFFFFFFFFFFFFFFFFFFFFFFFFFFFFFFFFFF AND PUSH20 0xFFFFFFFFFFFFFFFFFFFFFFFFFFFFFFFFFFFFFFFF AND DUP2 MSTORE PUSH1 0x20 ADD SWAP1 DUP2 MSTORE PUSH1 0x20 ADD PUSH1 0x0 KECCAK256 PUSH1 0x0 SWAP1 SLOAD SWAP1 PUSH2 0x100 EXP SWAP1 DIV PUSH20 0xFFFFFFFFFFFFFFFFFFFFFFFFFFFFFFFFFFFFFFFF AND PUSH20 0xFFFFFFFFFFFFFFFFFFFFFFFFFFFFFFFFFFFFFFFF AND SUB PUSH2 0x519 JUMPI PUSH1 0x40 MLOAD PUSH32 0x8C379A000000000000000000000000000000000000000000000000000000000 DUP2 MSTORE PUSH1 0x4 ADD PUSH2 0x510 SWAP1 PUSH2 0xE5E JUMP JUMPDEST PUSH1 0x40 MLOAD DUP1 SWAP2 SUB SWAP1 REVERT JUMPDEST PUSH1 0x0 PUSH1 0x1 PUSH1 0x0 DUP7 PUSH20 0xFFFFFFFFFFFFFFFFFFFFFFFFFFFFFFFFFFFFFFFF AND PUSH20 0xFFFFFFFFFFFFFFFFFFFFFFFFFFFFFFFFFFFFFFFF AND DUP2 MSTORE PUSH1 0x20 ADD SWAP1 DUP2 MSTORE PUSH1 0x20 ADD PUSH1 0x0 KECCAK256 PUSH1 0x0 SWAP1 SLOAD SWAP1 PUSH2 0x100 EXP SWAP1 DIV PUSH20 0xFFFFFFFFFFFFFFFFFFFFFFFFFFFFFFFFFFFFFFFF AND SWAP1 POP DUP1 PUSH20 0xFFFFFFFFFFFFFFFFFFFFFFFFFFFFFFFFFFFFFFFF AND PUSH4 0xC8164863 DUP6 PUSH1 0x40 MLOAD DUP3 PUSH4 0xFFFFFFFF AND PUSH1 0xE0 SHL DUP2 MSTORE PUSH1 0x4 ADD PUSH2 0x5B6 SWAP2 SWAP1 PUSH2 0xE7E JUMP JUMPDEST PUSH1 0x20 PUSH1 0x40 MLOAD DUP1 DUP4 SUB DUP2 DUP7 GAS STATICCALL ISZERO DUP1 ISZERO PUSH2 0x5D3 JUMPI RETURNDATASIZE PUSH1 0x0 DUP1 RETURNDATACOPY RETURNDATASIZE PUSH1 0x0 REVERT JUMPDEST POP POP POP POP PUSH1 0x40 MLOAD RETURNDATASIZE PUSH1 0x1F NOT PUSH1 0x1F DUP3 ADD AND DUP3 ADD DUP1 PUSH1 0x40 MSTORE POP DUP2 ADD SWAP1 PUSH2 0x5F7 SWAP2 SWAP1 PUSH2 0xECC JUMP JUMPDEST SWAP3 POP POP POP SWAP3 SWAP2 POP POP JUMP JUMPDEST PUSH1 0x0 PUSH1 0x1 PUSH1 0x0 CALLER PUSH20 0xFFFFFFFFFFFFFFFFFFFFFFFFFFFFFFFFFFFFFFFF AND PUSH20 0xFFFFFFFFFFFFFFFFFFFFFFFFFFFFFFFFFFFFFFFF AND DUP2 MSTORE PUSH1 0x20 ADD SWAP1 DUP2 MSTORE PUSH1 0x20 ADD PUSH1 0x0 KECCAK256 PUSH1 0x0 SWAP1 SLOAD SWAP1 PUSH2 0x100 EXP SWAP1 DIV PUSH20 0xFFFFFFFFFFFFFFFFFFFFFFFFFFFFFFFFFFFFFFFF AND SWAP1 POP DUP1 PUSH20 0xFFFFFFFFFFFFFFFFFFFFFFFFFFFFFFFFFFFFFFFF AND PUSH4 0xF9AD4D73 CALLER DUP5 PUSH1 0x40 MLOAD DUP4 PUSH4 0xFFFFFFFF AND PUSH1 0xE0 SHL DUP2 MSTORE PUSH1 0x4 ADD PUSH2 0x6A0 SWAP3 SWAP2 SWAP1 PUSH2 0xDBC JUMP JUMPDEST PUSH1 0x0 PUSH1 0x40 MLOAD DUP1 DUP4 SUB DUP2 PUSH1 0x0 DUP8 DUP1 EXTCODESIZE ISZERO DUP1 ISZERO PUSH2 0x6BA JUMPI PUSH1 0x0 DUP1 REVERT JUMPDEST POP GAS CALL ISZERO DUP1 ISZERO PUSH2 0x6CE JUMPI RETURNDATASIZE PUSH1 0x0 DUP1 RETURNDATACOPY RETURNDATASIZE PUSH1 0x0 REVERT JUMPDEST POP POP POP POP PUSH32 0x2690DFDAEC1CF49FCC01E1F85C19261F164F5000A265A51AFD32A4BD19E68743 DUP3 PUSH1 0x40 MLOAD PUSH2 0x701 SWAP2 SWAP1 PUSH2 0xF45 JUMP JUMPDEST PUSH1 0x40 MLOAD DUP1 SWAP2 SUB SWAP1 LOG1 POP POP JUMP JUMPDEST PUSH1 0x0 DUP1 SLOAD SWAP1 POP SWAP1 JUMP JUMPDEST PUSH1 0x0 PUSH23 0x3D602D80600A3D3981F3363D3D373D3D3D363D73000000 DUP3 PUSH1 0x60 SHL PUSH1 0xE8 SHR OR PUSH1 0x0 MSTORE PUSH15 0x5AF43D82803E903D91602B57FD5BF3 DUP3 PUSH1 0x78 SHL OR PUSH1 0x20 MSTORE PUSH1 0x37 PUSH1 0x9 PUSH1 0x0 CREATE SWAP1 POP PUSH1 0x0 PUSH20 0xFFFFFFFFFFFFFFFFFFFFFFFFFFFFFFFFFFFFFFFF AND DUP2 PUSH20 0xFFFFFFFFFFFFFFFFFFFFFFFFFFFFFFFFFFFFFFFF AND SUB PUSH2 0x7CB JUMPI PUSH1 0x40 MLOAD PUSH32 0x8C379A000000000000000000000000000000000000000000000000000000000 DUP2 MSTORE PUSH1 0x4 ADD PUSH2 0x7C2 SWAP1 PUSH2 0xFC6 JUMP JUMPDEST PUSH1 0x40 MLOAD DUP1 SWAP2 SUB SWAP1 REVERT JUMPDEST SWAP2 SWAP1 POP JUMP JUMPDEST PUSH1 0x0 DUP3 DUP3 MSTORE PUSH1 0x20 DUP3 ADD SWAP1 POP SWAP3 SWAP2 POP POP JUMP JUMPDEST PUSH32 0x66616C6C6261636B000000000000000000000000000000000000000000000000 PUSH1 0x0 DUP3 ADD MSTORE POP JUMP JUMPDEST PUSH1 0x0 PUSH2 0x817 PUSH1 0x8 DUP4 PUSH2 0x7D0 JUMP JUMPDEST SWAP2 POP PUSH2 0x822 DUP3 PUSH2 0x7E1 JUMP JUMPDEST PUSH1 0x20 DUP3 ADD SWAP1 POP SWAP2 SWAP1 POP JUMP JUMPDEST PUSH1 0x0 PUSH20 0xFFFFFFFFFFFFFFFFFFFFFFFFFFFFFFFFFFFFFFFF DUP3 AND SWAP1 POP SWAP2 SWAP1 POP JUMP JUMPDEST PUSH1 0x0 PUSH2 0x858 DUP3 PUSH2 0x82D JUMP JUMPDEST SWAP1 POP SWAP2 SWAP1 POP JUMP JUMPDEST PUSH2 0x868 DUP2 PUSH2 0x84D JUMP JUMPDEST DUP3 MSTORE POP POP JUMP JUMPDEST PUSH1 0x0 DUP3 DUP3 MSTORE PUSH1 0x20 DUP3 ADD SWAP1 POP SWAP3 SWAP2 POP POP JUMP JUMPDEST DUP3 DUP2 DUP4 CALLDATACOPY PUSH1 0x0 DUP4 DUP4 ADD MSTORE POP POP POP JUMP JUMPDEST PUSH1 0x0 PUSH1 0x1F NOT PUSH1 0x1F DUP4 ADD AND SWAP1 POP SWAP2 SWAP1 POP JUMP JUMPDEST PUSH1 0x0 PUSH2 0x8AB DUP4 DUP6 PUSH2 0x86E JUMP JUMPDEST SWAP4 POP PUSH2 0x8B8 DUP4 DUP6 DUP5 PUSH2 0x87F JUMP JUMPDEST PUSH2 0x8C1 DUP4 PUSH2 0x88E JUMP JUMPDEST DUP5 ADD SWAP1 POP SWAP4 SWAP3 POP POP POP JUMP JUMPDEST PUSH1 0x0 PUSH1 0x60 DUP3 ADD SWAP1 POP DUP2 DUP2 SUB PUSH1 0x0 DUP4 ADD MSTORE PUSH2 0x8E5 DUP2 PUSH2 0x80A JUMP JUMPDEST SWAP1 POP PUSH2 0x8F4 PUSH1 0x20 DUP4 ADD DUP7 PUSH2 0x85F JUMP JUMPDEST DUP2 DUP2 SUB PUSH1 0x40 DUP4 ADD MSTORE PUSH2 0x907 DUP2 DUP5 DUP7 PUSH2 0x89F JUMP JUMPDEST SWAP1 POP SWAP5 SWAP4 POP POP POP POP JUMP JUMPDEST PUSH1 0x0 PUSH1 0x40 MLOAD SWAP1 POP SWAP1 JUMP JUMPDEST PUSH1 0x0 DUP1 REVERT JUMPDEST PUSH1 0x0 DUP1 REVERT JUMPDEST PUSH1 0x0 DUP1 REVERT JUMPDEST PUSH1 0x0 DUP1 REVERT JUMPDEST PUSH32 0x4E487B7100000000000000000000000000000000000000000000000000000000 PUSH1 0x0 MSTORE PUSH1 0x41 PUSH1 0x4 MSTORE PUSH1 0x24 PUSH1 0x0 REVERT JUMPDEST PUSH2 0x967 DUP3 PUSH2 0x88E JUMP JUMPDEST DUP2 ADD DUP2 DUP2 LT PUSH8 0xFFFFFFFFFFFFFFFF DUP3 GT OR ISZERO PUSH2 0x986 JUMPI PUSH2 0x985 PUSH2 0x92F JUMP JUMPDEST JUMPDEST DUP1 PUSH1 0x40 MSTORE POP POP POP JUMP JUMPDEST PUSH1 0x0 PUSH2 0x999 PUSH2 0x911 JUMP JUMPDEST SWAP1 POP PUSH2 0x9A5 DUP3 DUP3 PUSH2 0x95E JUMP JUMPDEST SWAP2 SWAP1 POP JUMP JUMPDEST PUSH1 0x0 PUSH8 0xFFFFFFFFFFFFFFFF DUP3 GT ISZERO PUSH2 0x9C5 JUMPI PUSH2 0x9C4 PUSH2 0x92F JUMP JUMPDEST JUMPDEST PUSH2 0x9CE DUP3 PUSH2 0x88E JUMP JUMPDEST SWAP1 POP PUSH1 0x20 DUP2 ADD SWAP1 POP SWAP2 SWAP1 POP JUMP JUMPDEST PUSH1 0x0 PUSH2 0x9EE PUSH2 0x9E9 DUP5 PUSH2 0x9AA JUMP JUMPDEST PUSH2 0x98F JUMP JUMPDEST SWAP1 POP DUP3 DUP2 MSTORE PUSH1 0x20 DUP2 ADD DUP5 DUP5 DUP5 ADD GT ISZERO PUSH2 0xA0A JUMPI PUSH2 0xA09 PUSH2 0x92A JUMP JUMPDEST JUMPDEST PUSH2 0xA15 DUP5 DUP3 DUP6 PUSH2 0x87F JUMP JUMPDEST POP SWAP4 SWAP3 POP POP POP JUMP JUMPDEST PUSH1 0x0 DUP3 PUSH1 0x1F DUP4 ADD SLT PUSH2 0xA32 JUMPI PUSH2 0xA31 PUSH2 0x925 JUMP JUMPDEST JUMPDEST DUP2 CALLDATALOAD PUSH2 0xA42 DUP5 DUP3 PUSH1 0x20 DUP7 ADD PUSH2 0x9DB JUMP JUMPDEST SWAP2 POP POP SWAP3 SWAP2 POP POP JUMP JUMPDEST PUSH1 0x0 PUSH1 0x20 DUP3 DUP5 SUB SLT ISZERO PUSH2 0xA61 JUMPI PUSH2 0xA60 PUSH2 0x91B JUMP JUMPDEST JUMPDEST PUSH1 0x0 DUP3 ADD CALLDATALOAD PUSH8 0xFFFFFFFFFFFFFFFF DUP2 GT ISZERO PUSH2 0xA7F JUMPI PUSH2 0xA7E PUSH2 0x920 JUMP JUMPDEST JUMPDEST PUSH2 0xA8B DUP5 DUP3 DUP6 ADD PUSH2 0xA1D JUMP JUMPDEST SWAP2 POP POP SWAP3 SWAP2 POP POP JUMP JUMPDEST PUSH2 0xA9D DUP2 PUSH2 0x84D JUMP JUMPDEST DUP2 EQ PUSH2 0xAA8 JUMPI PUSH1 0x0 DUP1 REVERT JUMPDEST POP JUMP JUMPDEST PUSH1 0x0 DUP2 CALLDATALOAD SWAP1 POP PUSH2 0xABA DUP2 PUSH2 0xA94 JUMP JUMPDEST SWAP3 SWAP2 POP POP JUMP JUMPDEST PUSH1 0x0 DUP1 PUSH1 0x40 DUP4 DUP6 SUB SLT ISZERO PUSH2 0xAD7 JUMPI PUSH2 0xAD6 PUSH2 0x91B JUMP JUMPDEST JUMPDEST PUSH1 0x0 PUSH2 0xAE5 DUP6 DUP3 DUP7 ADD PUSH2 0xAAB JUMP JUMPDEST SWAP3 POP POP PUSH1 0x20 DUP4 ADD CALLDATALOAD PUSH8 0xFFFFFFFFFFFFFFFF DUP2 GT ISZERO PUSH2 0xB06 JUMPI PUSH2 0xB05 PUSH2 0x920 JUMP JUMPDEST JUMPDEST PUSH2 0xB12 DUP6 DUP3 DUP7 ADD PUSH2 0xA1D JUMP JUMPDEST SWAP2 POP POP SWAP3 POP SWAP3 SWAP1 POP JUMP JUMPDEST PUSH1 0x0 DUP2 ISZERO ISZERO SWAP1 POP SWAP2 SWAP1 POP JUMP JUMPDEST PUSH2 0xB31 DUP2 PUSH2 0xB1C JUMP JUMPDEST DUP3 MSTORE POP POP JUMP JUMPDEST PUSH1 0x0 PUSH1 0x20 DUP3 ADD SWAP1 POP PUSH2 0xB4C PUSH1 0x0 DUP4 ADD DUP5 PUSH2 0xB28 JUMP JUMPDEST SWAP3 SWAP2 POP POP JUMP JUMPDEST PUSH1 0x0 DUP2 SWAP1 POP SWAP2 SWAP1 POP JUMP JUMPDEST PUSH2 0xB65 DUP2 PUSH2 0xB52 JUMP JUMPDEST DUP3 MSTORE POP POP JUMP JUMPDEST PUSH1 0x0 PUSH1 0x20 DUP3 ADD SWAP1 POP PUSH2 0xB80 PUSH1 0x0 DUP4 ADD DUP5 PUSH2 0xB5C JUMP JUMPDEST SWAP3 SWAP2 POP POP JUMP JUMPDEST PUSH32 0x596F752077657265207265676973746572210000000000000000000000000000 PUSH1 0x0 DUP3 ADD MSTORE POP JUMP JUMPDEST PUSH1 0x0 PUSH2 0xBBC PUSH1 0x12 DUP4 PUSH2 0x7D0 JUMP JUMPDEST SWAP2 POP PUSH2 0xBC7 DUP3 PUSH2 0xB86 JUMP JUMPDEST PUSH1 0x20 DUP3 ADD SWAP1 POP SWAP2 SWAP1 POP JUMP JUMPDEST PUSH1 0x0 PUSH1 0x20 DUP3 ADD SWAP1 POP DUP2 DUP2 SUB PUSH1 0x0 DUP4 ADD MSTORE PUSH2 0xBEB DUP2 PUSH2 0xBAF JUMP JUMPDEST SWAP1 POP SWAP2 SWAP1 POP JUMP JUMPDEST PUSH1 0x0 PUSH1 0x20 DUP3 ADD SWAP1 POP PUSH2 0xC07 PUSH1 0x0 DUP4 ADD DUP5 PUSH2 0x85F JUMP JUMPDEST SWAP3 SWAP2 POP POP JUMP JUMPDEST PUSH32 0x4E487B7100000000000000000000000000000000000000000000000000000000 PUSH1 0x0 MSTORE PUSH1 0x11 PUSH1 0x4 MSTORE PUSH1 0x24 PUSH1 0x0 REVERT JUMPDEST PUSH1 0x0 PUSH2 0xC47 DUP3 PUSH2 0xB52 JUMP JUMPDEST SWAP2 POP PUSH32 0xFFFFFFFFFFFFFFFFFFFFFFFFFFFFFFFFFFFFFFFFFFFFFFFFFFFFFFFFFFFFFFFF DUP3 SUB PUSH2 0xC79 JUMPI PUSH2 0xC78 PUSH2 0xC0D JUMP JUMPDEST JUMPDEST PUSH1 0x1 DUP3 ADD SWAP1 POP SWAP2 SWAP1 POP JUMP JUMPDEST PUSH1 0x0 PUSH2 0xC8F DUP3 PUSH2 0xB52 JUMP JUMPDEST SWAP2 POP PUSH2 0xC9A DUP4 PUSH2 0xB52 JUMP JUMPDEST SWAP3 POP DUP3 DUP3 SUB SWAP1 POP DUP2 DUP2 GT ISZERO PUSH2 0xCB2 JUMPI PUSH2 0xCB1 PUSH2 0xC0D JUMP JUMPDEST JUMPDEST SWAP3 SWAP2 POP POP JUMP JUMPDEST PUSH32 0x4372656174652070617469656E743A2000000000000000000000000000000000 PUSH1 0x0 DUP3 ADD MSTORE POP JUMP JUMPDEST PUSH1 0x0 PUSH2 0xCEE PUSH1 0x10 DUP4 PUSH2 0x7D0 JUMP JUMPDEST SWAP2 POP PUSH2 0xCF9 DUP3 PUSH2 0xCB8 JUMP JUMPDEST PUSH1 0x20 DUP3 ADD SWAP1 POP SWAP2 SWAP1 POP JUMP JUMPDEST PUSH1 0x0 PUSH1 0x80 DUP3 ADD SWAP1 POP DUP2 DUP2 SUB PUSH1 0x0 DUP4 ADD MSTORE PUSH2 0xD1D DUP2 PUSH2 0xCE1 JUMP JUMPDEST SWAP1 POP PUSH2 0xD2C PUSH1 0x20 DUP4 ADD DUP7 PUSH2 0x85F JUMP JUMPDEST PUSH2 0xD39 PUSH1 0x40 DUP4 ADD DUP6 PUSH2 0xB5C JUMP JUMPDEST PUSH2 0xD46 PUSH1 0x60 DUP4 ADD DUP5 PUSH2 0x85F JUMP JUMPDEST SWAP5 SWAP4 POP POP POP POP JUMP JUMPDEST PUSH1 0x0 DUP2 MLOAD SWAP1 POP SWAP2 SWAP1 POP JUMP JUMPDEST PUSH1 0x0 JUMPDEST DUP4 DUP2 LT ISZERO PUSH2 0xD77 JUMPI DUP1 DUP3 ADD MLOAD DUP2 DUP5 ADD MSTORE PUSH1 0x20 DUP2 ADD SWAP1 POP PUSH2 0xD5C JUMP JUMPDEST PUSH1 0x0 DUP5 DUP5 ADD MSTORE POP POP POP POP JUMP JUMPDEST PUSH1 0x0 PUSH2 0xD8E DUP3 PUSH2 0xD4E JUMP JUMPDEST PUSH2 0xD98 DUP2 DUP6 PUSH2 0x7D0 JUMP JUMPDEST SWAP4 POP PUSH2 0xDA8 DUP2 DUP6 PUSH1 0x20 DUP7 ADD PUSH2 0xD59 JUMP JUMPDEST PUSH2 0xDB1 DUP2 PUSH2 0x88E JUMP JUMPDEST DUP5 ADD SWAP2 POP POP SWAP3 SWAP2 POP POP JUMP JUMPDEST PUSH1 0x0 PUSH1 0x40 DUP3 ADD SWAP1 POP PUSH2 0xDD1 PUSH1 0x0 DUP4 ADD DUP6 PUSH2 0x85F JUMP JUMPDEST DUP2 DUP2 SUB PUSH1 0x20 DUP4 ADD MSTORE PUSH2 0xDE3 DUP2 DUP5 PUSH2 0xD83 JUMP JUMPDEST SWAP1 POP SWAP4 SWAP3 POP POP POP JUMP JUMPDEST PUSH32 0x50617469656E7420646F6E27742065786973747321436865636B207061746965 PUSH1 0x0 DUP3 ADD MSTORE PUSH32 0x6E742773206163636F756E742100000000000000000000000000000000000000 PUSH1 0x20 DUP3 ADD MSTORE POP JUMP JUMPDEST PUSH1 0x0 PUSH2 0xE48 PUSH1 0x2D DUP4 PUSH2 0x7D0 JUMP JUMPDEST SWAP2 POP PUSH2 0xE53 DUP3 PUSH2 0xDEC JUMP JUMPDEST PUSH1 0x40 DUP3 ADD SWAP1 POP SWAP2 SWAP1 POP JUMP JUMPDEST PUSH1 0x0 PUSH1 0x20 DUP3 ADD SWAP1 POP DUP2 DUP2 SUB PUSH1 0x0 DUP4 ADD MSTORE PUSH2 0xE77 DUP2 PUSH2 0xE3B JUMP JUMPDEST SWAP1 POP SWAP2 SWAP1 POP JUMP JUMPDEST PUSH1 0x0 PUSH1 0x20 DUP3 ADD SWAP1 POP DUP2 DUP2 SUB PUSH1 0x0 DUP4 ADD MSTORE PUSH2 0xE98 DUP2 DUP5 PUSH2 0xD83 JUMP JUMPDEST SWAP1 POP SWAP3 SWAP2 POP POP JUMP JUMPDEST PUSH2 0xEA9 DUP2 PUSH2 0xB1C JUMP JUMPDEST DUP2 EQ PUSH2 0xEB4 JUMPI PUSH1 0x0 DUP1 REVERT JUMPDEST POP JUMP JUMPDEST PUSH1 0x0 DUP2 MLOAD SWAP1 POP PUSH2 0xEC6 DUP2 PUSH2 0xEA0 JUMP JUMPDEST SWAP3 SWAP2 POP POP JUMP JUMPDEST PUSH1 0x0 PUSH1 0x20 DUP3 DUP5 SUB SLT ISZERO PUSH2 0xEE2 JUMPI PUSH2 0xEE1 PUSH2 0x91B JUMP JUMPDEST JUMPDEST PUSH1 0x0 PUSH2 0xEF0 DUP5 DUP3 DUP6 ADD PUSH2 0xEB7 JUMP JUMPDEST SWAP2 POP POP SWAP3 SWAP2 POP POP JUMP JUMPDEST PUSH32 0x446F63746F720000000000000000000000000000000000000000000000000000 PUSH1 0x0 DUP3 ADD MSTORE POP JUMP JUMPDEST PUSH1 0x0 PUSH2 0xF2F PUSH1 0x6 DUP4 PUSH2 0x7D0 JUMP JUMPDEST SWAP2 POP PUSH2 0xF3A DUP3 PUSH2 0xEF9 JUMP JUMPDEST PUSH1 0x20 DUP3 ADD SWAP1 POP SWAP2 SWAP1 POP JUMP JUMPDEST PUSH1 0x0 PUSH1 0x40 DUP3 ADD SWAP1 POP DUP2 DUP2 SUB PUSH1 0x0 DUP4 ADD MSTORE PUSH2 0xF5E DUP2 PUSH2 0xF22 JUMP JUMPDEST SWAP1 POP DUP2 DUP2 SUB PUSH1 0x20 DUP4 ADD MSTORE PUSH2 0xF72 DUP2 DUP5 PUSH2 0xD83 JUMP JUMPDEST SWAP1 POP SWAP3 SWAP2 POP POP JUMP JUMPDEST PUSH32 0x455243313136373A20637265617465206661696C656400000000000000000000 PUSH1 0x0 DUP3 ADD MSTORE POP JUMP JUMPDEST PUSH1 0x0 PUSH2 0xFB0 PUSH1 0x16 DUP4 PUSH2 0x7D0 JUMP JUMPDEST SWAP2 POP PUSH2 0xFBB DUP3 PUSH2 0xF7A JUMP JUMPDEST PUSH1 0x20 DUP3 ADD SWAP1 POP SWAP2 SWAP1 POP JUMP JUMPDEST PUSH1 0x0 PUSH1 0x20 DUP3 ADD SWAP1 POP DUP2 DUP2 SUB PUSH1 0x0 DUP4 ADD MSTORE PUSH2 0xFDF DUP2 PUSH2 0xFA3 JUMP JUMPDEST SWAP1 POP SWAP2 SWAP1 POP JUMP INVALID LOG2 PUSH5 0x6970667358 0x22 SLT KECCAK256 PUSH17 0xCD019B8A3501B631E496DFA1EC332ED2AC PUSH20 0x18951756C04EA8096C4D74F7E764736F6C634300 ADDMOD SLT STOP CALLER "
				},
				"gasEstimates": {
					"creation": {
						"codeDepositCost": "824800",
						"executionCost": "infinite",
						"totalCost": "infinite"
					},
					"external": {
						"": "infinite",
						"anualRole(string)": "infinite",
						"checkAccess(address,string)": "infinite",
						"createPatient()": "infinite",
						"getCountPatient()": "2503",
						"giveRole(string)": "infinite"
					}
				},
				"methodIdentifiers": {
					"anualRole(string)": "6ad248af",
					"checkAccess(address,string)": "a5657a91",
					"createPatient()": "35a27178",
					"getCountPatient()": "cd8cb137",
					"giveRole(string)": "b4433477"
				}
			},
			"storageLayout": {
				"storage": [
					{
						"astId": 716,
						"contract": "Patients/addPatients.sol:Patients",
						"label": "countPatients",
						"offset": 0,
						"slot": "0",
						"type": "t_uint256"
					},
					{
						"astId": 720,
						"contract": "Patients/addPatients.sol:Patients",
						"label": "adressesPatient",
						"offset": 0,
						"slot": "1",
						"type": "t_mapping(t_address,t_address)"
					},
					{
						"astId": 722,
						"contract": "Patients/addPatients.sol:Patients",
						"label": "implementation",
						"offset": 0,
						"slot": "2",
						"type": "t_address"
					}
				],
				"types": {
					"t_address": {
						"encoding": "inplace",
						"label": "address",
						"numberOfBytes": "20"
					},
					"t_mapping(t_address,t_address)": {
						"encoding": "mapping",
						"key": "t_address",
						"label": "mapping(address => address)",
						"numberOfBytes": "32",
						"value": "t_address"
					},
					"t_uint256": {
						"encoding": "inplace",
						"label": "uint256",
						"numberOfBytes": "32"
					}
				}
			},
			"userdoc": {
				"kind": "user",
				"methods": {},
				"version": 1
			}
		}
	}
}