{
	"Patients/Patient.sol": {
		"Patient": {
			"abi": [
				{
					"inputs": [],
					"stateMutability": "nonpayable",
					"type": "constructor"
				},
				{
					"anonymous": false,
					"inputs": [
						{
							"indexed": true,
							"internalType": "address",
							"name": "previousOwner",
							"type": "address"
						},
						{
							"indexed": true,
							"internalType": "address",
							"name": "newOwner",
							"type": "address"
						}
					],
					"name": "OwnershipTransferred",
					"type": "event"
				},
				{
					"anonymous": false,
					"inputs": [
						{
							"indexed": true,
							"internalType": "bytes32",
							"name": "role",
							"type": "bytes32"
						},
						{
							"indexed": true,
							"internalType": "bytes32",
							"name": "previousAdminRole",
							"type": "bytes32"
						},
						{
							"indexed": true,
							"internalType": "bytes32",
							"name": "newAdminRole",
							"type": "bytes32"
						}
					],
					"name": "RoleAdminChanged",
					"type": "event"
				},
				{
					"anonymous": false,
					"inputs": [
						{
							"indexed": true,
							"internalType": "bytes32",
							"name": "role",
							"type": "bytes32"
						},
						{
							"indexed": true,
							"internalType": "address",
							"name": "account",
							"type": "address"
						},
						{
							"indexed": true,
							"internalType": "address",
							"name": "sender",
							"type": "address"
						}
					],
					"name": "RoleGranted",
					"type": "event"
				},
				{
					"anonymous": false,
					"inputs": [
						{
							"indexed": true,
							"internalType": "bytes32",
							"name": "role",
							"type": "bytes32"
						},
						{
							"indexed": true,
							"internalType": "address",
							"name": "account",
							"type": "address"
						},
						{
							"indexed": true,
							"internalType": "address",
							"name": "sender",
							"type": "address"
						}
					],
					"name": "RoleRevoked",
					"type": "event"
				},
				{
					"inputs": [],
					"name": "DEFAULT_ADMIN_ROLE",
					"outputs": [
						{
							"internalType": "bytes32",
							"name": "",
							"type": "bytes32"
						}
					],
					"stateMutability": "view",
					"type": "function"
				},
				{
					"inputs": [
						{
							"internalType": "bytes32",
							"name": "role",
							"type": "bytes32"
						}
					],
					"name": "getRoleAdmin",
					"outputs": [
						{
							"internalType": "bytes32",
							"name": "",
							"type": "bytes32"
						}
					],
					"stateMutability": "view",
					"type": "function"
				},
				{
					"inputs": [
						{
							"internalType": "bytes32",
							"name": "role",
							"type": "bytes32"
						},
						{
							"internalType": "address",
							"name": "account",
							"type": "address"
						}
					],
					"name": "hasRole",
					"outputs": [
						{
							"internalType": "bool",
							"name": "",
							"type": "bool"
						}
					],
					"stateMutability": "view",
					"type": "function"
				},
				{
					"inputs": [
						{
							"internalType": "string",
							"name": "_doctor",
							"type": "string"
						}
					],
					"name": "isAccess",
					"outputs": [
						{
							"internalType": "bool",
							"name": "",
							"type": "bool"
						}
					],
					"stateMutability": "view",
					"type": "function"
				},
				{
					"inputs": [],
					"name": "owner",
					"outputs": [
						{
							"internalType": "address",
							"name": "",
							"type": "address"
						}
					],
					"stateMutability": "view",
					"type": "function"
				},
				{
					"inputs": [
						{
							"internalType": "address",
							"name": "_patient",
							"type": "address"
						}
					],
					"name": "register",
					"outputs": [],
					"stateMutability": "nonpayable",
					"type": "function"
				},
				{
					"inputs": [
						{
							"internalType": "bytes32",
							"name": "role",
							"type": "bytes32"
						},
						{
							"internalType": "address",
							"name": "account",
							"type": "address"
						}
					],
					"name": "renounceRole",
					"outputs": [],
					"stateMutability": "nonpayable",
					"type": "function"
				},
				{
					"inputs": [
						{
							"internalType": "address",
							"name": "_patient",
							"type": "address"
						},
						{
							"internalType": "string",
							"name": "_doctor",
							"type": "string"
						}
					],
					"name": "revokeRole_Doctor",
					"outputs": [],
					"stateMutability": "nonpayable",
					"type": "function"
				},
				{
					"inputs": [
						{
							"internalType": "address",
							"name": "_patient",
							"type": "address"
						},
						{
							"internalType": "string",
							"name": "_doctor",
							"type": "string"
						}
					],
					"name": "setupRole_Doctor",
					"outputs": [],
					"stateMutability": "nonpayable",
					"type": "function"
				},
				{
					"inputs": [
						{
							"internalType": "bytes4",
							"name": "interfaceId",
							"type": "bytes4"
						}
					],
					"name": "supportsInterface",
					"outputs": [
						{
							"internalType": "bool",
							"name": "",
							"type": "bool"
						}
					],
					"stateMutability": "view",
					"type": "function"
				},
				{
					"inputs": [
						{
							"internalType": "address",
							"name": "_newOwner",
							"type": "address"
						}
					],
					"name": "transferOwnership",
					"outputs": [],
					"stateMutability": "nonpayable",
					"type": "function"
				}
			],
			"devdoc": {
				"events": {
					"RoleAdminChanged(bytes32,bytes32,bytes32)": {
						"details": "Emitted when `newAdminRole` is set as ``role``'s admin role, replacing `previousAdminRole` `DEFAULT_ADMIN_ROLE` is the starting admin for all roles, despite {RoleAdminChanged} not being emitted signaling this. _Available since v3.1._"
					},
					"RoleGranted(bytes32,address,address)": {
						"details": "Emitted when `account` is granted `role`. `sender` is the account that originated the contract call, an admin role bearer except when using {AccessControl-_setupRole}."
					},
					"RoleRevoked(bytes32,address,address)": {
						"details": "Emitted when `account` is revoked `role`. `sender` is the account that originated the contract call:   - if using `revokeRole`, it is the admin role bearer   - if using `renounceRole`, it is the role bearer (i.e. `account`)"
					}
				},
				"kind": "dev",
				"methods": {
					"getRoleAdmin(bytes32)": {
						"details": "Returns the admin role that controls `role`. See {grantRole} and {revokeRole}. To change a role's admin, use {_setRoleAdmin}."
					},
					"hasRole(bytes32,address)": {
						"details": "Returns `true` if `account` has been granted `role`."
					},
					"renounceRole(bytes32,address)": {
						"details": "Revokes `role` from the calling account. Roles are often managed via {grantRole} and {revokeRole}: this function's purpose is to provide a mechanism for accounts to lose their privileges if they are compromised (such as when a trusted device is misplaced). If the calling account had been revoked `role`, emits a {RoleRevoked} event. Requirements: - the caller must be `account`. May emit a {RoleRevoked} event."
					},
					"supportsInterface(bytes4)": {
						"details": "See {IERC165-supportsInterface}."
					}
				},
				"version": 1
			},
			"evm": {
				"assembly": "    /* \"Patients/Patient.sol\":735:3732  contract Patient is Owner, AccessControl ... */\n  mstore(0x40, 0x80)\n    /* \"Patients/Patient.sol\":1326:1360  constructor() Owner(msg.sender) {} */\n  callvalue\n  dup1\n  iszero\n  tag_1\n  jumpi\n  0x00\n  dup1\n  revert\ntag_1:\n  pop\n    /* \"Patients/Patient.sol\":1346:1356  msg.sender */\n  caller\n    /* \"Patients/access/Owner.sol\":448:477  _transferOwnership(_newOwner) */\n  tag_5\n    /* \"Patients/access/Owner.sol\":467:476  _newOwner */\n  dup2\n    /* \"Patients/access/Owner.sol\":448:466  _transferOwnership */\n  shl(0x20, tag_6)\n    /* \"Patients/access/Owner.sol\":448:477  _transferOwnership(_newOwner) */\n  0x20\n  shr\n  jump\t// in\ntag_5:\n    /* \"Patients/access/Owner.sol\":400:485  constructor(address _newOwner) ... */\n  pop\n    /* \"Patients/Patient.sol\":735:3732  contract Patient is Owner, AccessControl ... */\n  jump(tag_8)\n    /* \"Patients/access/Owner.sol\":980:1172  function _transferOwnership(address _newOwner) private  ... */\ntag_6:\n    /* \"Patients/access/Owner.sol\":1053:1069  address oldOwner */\n  0x00\n    /* \"Patients/access/Owner.sol\":1072:1078  _owner */\n  dup1\n  0x00\n  swap1\n  sload\n  swap1\n  0x0100\n  exp\n  swap1\n  div\n  0xffffffffffffffffffffffffffffffffffffffff\n  and\n    /* \"Patients/access/Owner.sol\":1053:1078  address oldOwner = _owner */\n  swap1\n  pop\n    /* \"Patients/access/Owner.sol\":1098:1107  _newOwner */\n  dup2\n    /* \"Patients/access/Owner.sol\":1089:1095  _owner */\n  0x00\n  dup1\n    /* \"Patients/access/Owner.sol\":1089:1107  _owner = _newOwner */\n  0x0100\n  exp\n  dup2\n  sload\n  dup2\n  0xffffffffffffffffffffffffffffffffffffffff\n  mul\n  not\n  and\n  swap1\n  dup4\n  0xffffffffffffffffffffffffffffffffffffffff\n  and\n  mul\n  or\n  swap1\n  sstore\n  pop\n    /* \"Patients/access/Owner.sol\":1154:1163  _newOwner */\n  dup2\n    /* \"Patients/access/Owner.sol\":1123:1164  OwnershipTransferred(oldOwner, _newOwner) */\n  0xffffffffffffffffffffffffffffffffffffffff\n  and\n    /* \"Patients/access/Owner.sol\":1144:1152  oldOwner */\n  dup2\n    /* \"Patients/access/Owner.sol\":1123:1164  OwnershipTransferred(oldOwner, _newOwner) */\n  0xffffffffffffffffffffffffffffffffffffffff\n  and\n  0x8be0079c531659141344cd1fd0a4f28419497f9722a3daafe3b4186f6b6457e0\n  mload(0x40)\n  mload(0x40)\n  dup1\n  swap2\n  sub\n  swap1\n  log3\n    /* \"Patients/access/Owner.sol\":1042:1172  {... */\n  pop\n    /* \"Patients/access/Owner.sol\":980:1172  function _transferOwnership(address _newOwner) private  ... */\n  pop\n  jump\t// out\n    /* \"Patients/Patient.sol\":735:3732  contract Patient is Owner, AccessControl ... */\ntag_8:\n  dataSize(sub_0)\n  dup1\n  dataOffset(sub_0)\n  0x00\n  codecopy\n  0x00\n  return\nstop\n\nsub_0: assembly {\n        /* \"Patients/Patient.sol\":735:3732  contract Patient is Owner, AccessControl ... */\n      mstore(0x40, 0x80)\n      callvalue\n      dup1\n      iszero\n      tag_1\n      jumpi\n      0x00\n      dup1\n      revert\n    tag_1:\n      pop\n      jumpi(tag_2, lt(calldatasize, 0x04))\n      shr(0xe0, calldataload(0x00))\n      dup1\n      0x91d14854\n      gt\n      tag_14\n      jumpi\n      dup1\n      0x91d14854\n      eq\n      tag_8\n      jumpi\n      dup1\n      0xa217fddf\n      eq\n      tag_9\n      jumpi\n      dup1\n      0xc8164863\n      eq\n      tag_10\n      jumpi\n      dup1\n      0xf2fde38b\n      eq\n      tag_11\n      jumpi\n      dup1\n      0xf3064211\n      eq\n      tag_12\n      jumpi\n      dup1\n      0xf9ad4d73\n      eq\n      tag_13\n      jumpi\n      jump(tag_2)\n    tag_14:\n      dup1\n      0x01ffc9a7\n      eq\n      tag_3\n      jumpi\n      dup1\n      0x248a9ca3\n      eq\n      tag_4\n      jumpi\n      dup1\n      0x36568abe\n      eq\n      tag_5\n      jumpi\n      dup1\n      0x4420e486\n      eq\n      tag_6\n      jumpi\n      dup1\n      0x8da5cb5b\n      eq\n      tag_7\n      jumpi\n    tag_2:\n      0x00\n      dup1\n      revert\n        /* \"https://github.com/OpenZeppelin/openzeppelin-contracts/blob/release-v4.9/contracts/utils/introspection/ERC165.sol\":829:984  function supportsInterface(bytes4 interfaceId) public view virtual override returns (bool) {... */\n    tag_3:\n      tag_15\n      0x04\n      dup1\n      calldatasize\n      sub\n      dup2\n      add\n      swap1\n      tag_16\n      swap2\n      swap1\n      tag_17\n      jump\t// in\n    tag_16:\n      tag_18\n      jump\t// in\n    tag_15:\n      mload(0x40)\n      tag_19\n      swap2\n      swap1\n      tag_20\n      jump\t// in\n    tag_19:\n      mload(0x40)\n      dup1\n      swap2\n      sub\n      swap1\n      return\n        /* \"Patients/access/Roles.sol\":6110:6232  function getRoleAdmin(bytes32 role) public view virtual returns (bytes32) {... */\n    tag_4:\n      tag_21\n      0x04\n      dup1\n      calldatasize\n      sub\n      dup2\n      add\n      swap1\n      tag_22\n      swap2\n      swap1\n      tag_23\n      jump\t// in\n    tag_22:\n      tag_24\n      jump\t// in\n    tag_21:\n      mload(0x40)\n      tag_25\n      swap2\n      swap1\n      tag_26\n      jump\t// in\n    tag_25:\n      mload(0x40)\n      dup1\n      swap2\n      sub\n      swap1\n      return\n        /* \"Patients/access/Roles.sol\":7684:7890  function renounceRole(bytes32 role, address account) public virtual ... */\n    tag_5:\n      tag_27\n      0x04\n      dup1\n      calldatasize\n      sub\n      dup2\n      add\n      swap1\n      tag_28\n      swap2\n      swap1\n      tag_29\n      jump\t// in\n    tag_28:\n      tag_30\n      jump\t// in\n    tag_27:\n      stop\n        /* \"Patients/Patient.sol\":1486:1660  function register(address _patient) external ... */\n    tag_6:\n      tag_31\n      0x04\n      dup1\n      calldatasize\n      sub\n      dup2\n      add\n      swap1\n      tag_32\n      swap2\n      swap1\n      tag_33\n      jump\t// in\n    tag_32:\n      tag_34\n      jump\t// in\n    tag_31:\n      stop\n        /* \"Patients/access/Owner.sol\":653:746  function owner() public view virtual returns (address) ... */\n    tag_7:\n      tag_35\n      tag_36\n      jump\t// in\n    tag_35:\n      mload(0x40)\n      tag_37\n      swap2\n      swap1\n      tag_38\n      jump\t// in\n    tag_37:\n      mload(0x40)\n      dup1\n      swap2\n      sub\n      swap1\n      return\n        /* \"Patients/access/Roles.sol\":4579:4717  function hasRole(bytes32 role, address account) public view virtual returns (bool) {... */\n    tag_8:\n      tag_39\n      0x04\n      dup1\n      calldatasize\n      sub\n      dup2\n      add\n      swap1\n      tag_40\n      swap2\n      swap1\n      tag_29\n      jump\t// in\n    tag_40:\n      tag_41\n      jump\t// in\n    tag_39:\n      mload(0x40)\n      tag_42\n      swap2\n      swap1\n      tag_20\n      jump\t// in\n    tag_42:\n      mload(0x40)\n      dup1\n      swap2\n      sub\n      swap1\n      return\n        /* \"Patients/access/Roles.sol\":3520:3569  bytes32 public constant DEFAULT_ADMIN_ROLE = 0x00 */\n    tag_9:\n      tag_43\n      tag_44\n      jump\t// in\n    tag_43:\n      mload(0x40)\n      tag_45\n      swap2\n      swap1\n      tag_26\n      jump\t// in\n    tag_45:\n      mload(0x40)\n      dup1\n      swap2\n      sub\n      swap1\n      return\n        /* \"Patients/Patient.sol\":2789:2934  function isAccess(string memory _doctor) external view returns(bool)... */\n    tag_10:\n      tag_46\n      0x04\n      dup1\n      calldatasize\n      sub\n      dup2\n      add\n      swap1\n      tag_47\n      swap2\n      swap1\n      tag_48\n      jump\t// in\n    tag_47:\n      tag_49\n      jump\t// in\n    tag_46:\n      mload(0x40)\n      tag_50\n      swap2\n      swap1\n      tag_20\n      jump\t// in\n    tag_50:\n      mload(0x40)\n      dup1\n      swap2\n      sub\n      swap1\n      return\n        /* \"Patients/access/Owner.sol\":754:972  function transferOwnership(address _newOwner) public virtual onlyOwner(_owner) ... */\n    tag_11:\n      tag_51\n      0x04\n      dup1\n      calldatasize\n      sub\n      dup2\n      add\n      swap1\n      tag_52\n      swap2\n      swap1\n      tag_33\n      jump\t// in\n    tag_52:\n      tag_53\n      jump\t// in\n    tag_51:\n      stop\n        /* \"Patients/Patient.sol\":3220:3730  function revokeRole_Doctor(address _patient, string memory _doctor) external onlyOwner(_patient)... */\n    tag_12:\n      tag_54\n      0x04\n      dup1\n      calldatasize\n      sub\n      dup2\n      add\n      swap1\n      tag_55\n      swap2\n      swap1\n      tag_56\n      jump\t// in\n    tag_55:\n      tag_57\n      jump\t// in\n    tag_54:\n      stop\n        /* \"Patients/Patient.sol\":2940:3214  function setupRole_Doctor(address _patient, string memory _doctor) external onlyOwner(_patient)... */\n    tag_13:\n      tag_58\n      0x04\n      dup1\n      calldatasize\n      sub\n      dup2\n      add\n      swap1\n      tag_59\n      swap2\n      swap1\n      tag_56\n      jump\t// in\n    tag_59:\n      tag_60\n      jump\t// in\n    tag_58:\n      stop\n        /* \"https://github.com/OpenZeppelin/openzeppelin-contracts/blob/release-v4.9/contracts/utils/introspection/ERC165.sol\":829:984  function supportsInterface(bytes4 interfaceId) public view virtual override returns (bool) {... */\n    tag_18:\n        /* \"https://github.com/OpenZeppelin/openzeppelin-contracts/blob/release-v4.9/contracts/utils/introspection/ERC165.sol\":914:918  bool */\n      0x00\n        /* \"https://github.com/OpenZeppelin/openzeppelin-contracts/blob/release-v4.9/contracts/utils/introspection/ERC165.sol\":952:977  type(IERC165).interfaceId */\n      0x01ffc9a700000000000000000000000000000000000000000000000000000000\n        /* \"https://github.com/OpenZeppelin/openzeppelin-contracts/blob/release-v4.9/contracts/utils/introspection/ERC165.sol\":937:977  interfaceId == type(IERC165).interfaceId */\n      not(0xffffffffffffffffffffffffffffffffffffffffffffffffffffffff)\n      and\n        /* \"https://github.com/OpenZeppelin/openzeppelin-contracts/blob/release-v4.9/contracts/utils/introspection/ERC165.sol\":937:948  interfaceId */\n      dup3\n        /* \"https://github.com/OpenZeppelin/openzeppelin-contracts/blob/release-v4.9/contracts/utils/introspection/ERC165.sol\":937:977  interfaceId == type(IERC165).interfaceId */\n      not(0xffffffffffffffffffffffffffffffffffffffffffffffffffffffff)\n      and\n      eq\n        /* \"https://github.com/OpenZeppelin/openzeppelin-contracts/blob/release-v4.9/contracts/utils/introspection/ERC165.sol\":930:977  return interfaceId == type(IERC165).interfaceId */\n      swap1\n      pop\n        /* \"https://github.com/OpenZeppelin/openzeppelin-contracts/blob/release-v4.9/contracts/utils/introspection/ERC165.sol\":829:984  function supportsInterface(bytes4 interfaceId) public view virtual override returns (bool) {... */\n      swap2\n      swap1\n      pop\n      jump\t// out\n        /* \"Patients/access/Roles.sol\":6110:6232  function getRoleAdmin(bytes32 role) public view virtual returns (bytes32) {... */\n    tag_24:\n        /* \"Patients/access/Roles.sol\":6175:6182  bytes32 */\n      0x00\n        /* \"Patients/access/Roles.sol\":6202:6208  _roles */\n      0x01\n        /* \"Patients/access/Roles.sol\":6202:6214  _roles[role] */\n      0x00\n        /* \"Patients/access/Roles.sol\":6209:6213  role */\n      dup4\n        /* \"Patients/access/Roles.sol\":6202:6214  _roles[role] */\n      dup2\n      mstore\n      0x20\n      add\n      swap1\n      dup2\n      mstore\n      0x20\n      add\n      0x00\n      keccak256\n        /* \"Patients/access/Roles.sol\":6202:6224  _roles[role].adminRole */\n      0x01\n      add\n      sload\n        /* \"Patients/access/Roles.sol\":6195:6224  return _roles[role].adminRole */\n      swap1\n      pop\n        /* \"Patients/access/Roles.sol\":6110:6232  function getRoleAdmin(bytes32 role) public view virtual returns (bytes32) {... */\n      swap2\n      swap1\n      pop\n      jump\t// out\n        /* \"Patients/access/Roles.sol\":7684:7890  function renounceRole(bytes32 role, address account) public virtual ... */\n    tag_30:\n        /* \"Patients/access/Roles.sol\":7788:7793  admin */\n      0x02\n      0x00\n      swap1\n      sload\n      swap1\n      0x0100\n      exp\n      swap1\n      div\n      0xffffffffffffffffffffffffffffffffffffffff\n      and\n        /* \"Patients/access/Roles.sol\":7777:7793  account == admin */\n      0xffffffffffffffffffffffffffffffffffffffff\n      and\n        /* \"Patients/access/Roles.sol\":7777:7784  account */\n      dup2\n        /* \"Patients/access/Roles.sol\":7777:7793  account == admin */\n      0xffffffffffffffffffffffffffffffffffffffff\n      and\n      eq\n        /* \"Patients/access/Roles.sol\":7769:7845  require(account == admin, \"AccessControl: can only renounce roles for self\") */\n      tag_64\n      jumpi\n      mload(0x40)\n      0x08c379a000000000000000000000000000000000000000000000000000000000\n      dup2\n      mstore\n      0x04\n      add\n      tag_65\n      swap1\n      tag_66\n      jump\t// in\n    tag_65:\n      mload(0x40)\n      dup1\n      swap2\n      sub\n      swap1\n      revert\n    tag_64:\n        /* \"Patients/access/Roles.sol\":7856:7882  _revokeRole(role, account) */\n      tag_67\n        /* \"Patients/access/Roles.sol\":7868:7872  role */\n      dup3\n        /* \"Patients/access/Roles.sol\":7874:7881  account */\n      dup3\n        /* \"Patients/access/Roles.sol\":7856:7867  _revokeRole */\n      tag_68\n        /* \"Patients/access/Roles.sol\":7856:7882  _revokeRole(role, account) */\n      jump\t// in\n    tag_67:\n        /* \"Patients/access/Roles.sol\":7684:7890  function renounceRole(bytes32 role, address account) public virtual ... */\n      pop\n      pop\n      jump\t// out\n        /* \"Patients/Patient.sol\":1486:1660  function register(address _patient) external ... */\n    tag_34:\n        /* \"Patients/Patient.sol\":1546:1573  transferOwnership(_patient) */\n      tag_70\n        /* \"Patients/Patient.sol\":1564:1572  _patient */\n      dup2\n        /* \"Patients/Patient.sol\":1546:1563  transferOwnership */\n      tag_53\n        /* \"Patients/Patient.sol\":1546:1573  transferOwnership(_patient) */\n      jump\t// in\n    tag_70:\n        /* \"Patients/Patient.sol\":1583:1601  setAdmin(_patient) */\n      tag_71\n        /* \"Patients/Patient.sol\":1592:1600  _patient */\n      dup2\n        /* \"Patients/Patient.sol\":1583:1591  setAdmin */\n      tag_72\n        /* \"Patients/Patient.sol\":1583:1601  setAdmin(_patient) */\n      jump\t// in\n    tag_71:\n        /* \"Patients/Patient.sol\":1611:1651  _setupRole(DEFAULT_ADMIN_ROLE, _patient) */\n      tag_73\n        /* \"Patients/access/Roles.sol\":3565:3569  0x00 */\n      0x00\n        /* \"Patients/Patient.sol\":1622:1640  DEFAULT_ADMIN_ROLE */\n      dup1\n      shl\n        /* \"Patients/Patient.sol\":1642:1650  _patient */\n      dup3\n        /* \"Patients/Patient.sol\":1611:1621  _setupRole */\n      tag_74\n        /* \"Patients/Patient.sol\":1611:1651  _setupRole(DEFAULT_ADMIN_ROLE, _patient) */\n      jump\t// in\n    tag_73:\n        /* \"Patients/Patient.sol\":1486:1660  function register(address _patient) external ... */\n      pop\n      jump\t// out\n        /* \"Patients/access/Owner.sol\":653:746  function owner() public view virtual returns (address) ... */\n    tag_36:\n        /* \"Patients/access/Owner.sol\":699:706  address */\n      0x00\n        /* \"Patients/access/Owner.sol\":732:738  _owner */\n      dup1\n      0x00\n      swap1\n      sload\n      swap1\n      0x0100\n      exp\n      swap1\n      div\n      0xffffffffffffffffffffffffffffffffffffffff\n      and\n        /* \"Patients/access/Owner.sol\":725:738  return _owner */\n      swap1\n      pop\n        /* \"Patients/access/Owner.sol\":653:746  function owner() public view virtual returns (address) ... */\n      swap1\n      jump\t// out\n        /* \"Patients/access/Roles.sol\":4579:4717  function hasRole(bytes32 role, address account) public view virtual returns (bool) {... */\n    tag_41:\n        /* \"Patients/access/Roles.sol\":4656:4660  bool */\n      0x00\n        /* \"Patients/access/Roles.sol\":4680:4686  _roles */\n      0x01\n        /* \"Patients/access/Roles.sol\":4680:4692  _roles[role] */\n      0x00\n        /* \"Patients/access/Roles.sol\":4687:4691  role */\n      dup5\n        /* \"Patients/access/Roles.sol\":4680:4692  _roles[role] */\n      dup2\n      mstore\n      0x20\n      add\n      swap1\n      dup2\n      mstore\n      0x20\n      add\n      0x00\n      keccak256\n        /* \"Patients/access/Roles.sol\":4680:4700  _roles[role].members */\n      0x00\n      add\n        /* \"Patients/access/Roles.sol\":4680:4709  _roles[role].members[account] */\n      0x00\n        /* \"Patients/access/Roles.sol\":4701:4708  account */\n      dup4\n        /* \"Patients/access/Roles.sol\":4680:4709  _roles[role].members[account] */\n      0xffffffffffffffffffffffffffffffffffffffff\n      and\n      0xffffffffffffffffffffffffffffffffffffffff\n      and\n      dup2\n      mstore\n      0x20\n      add\n      swap1\n      dup2\n      mstore\n      0x20\n      add\n      0x00\n      keccak256\n      0x00\n      swap1\n      sload\n      swap1\n      0x0100\n      exp\n      swap1\n      div\n      0xff\n      and\n        /* \"Patients/access/Roles.sol\":4673:4709  return _roles[role].members[account] */\n      swap1\n      pop\n        /* \"Patients/access/Roles.sol\":4579:4717  function hasRole(bytes32 role, address account) public view virtual returns (bool) {... */\n      swap3\n      swap2\n      pop\n      pop\n      jump\t// out\n        /* \"Patients/access/Roles.sol\":3520:3569  bytes32 public constant DEFAULT_ADMIN_ROLE = 0x00 */\n    tag_44:\n        /* \"Patients/access/Roles.sol\":3565:3569  0x00 */\n      0x00\n        /* \"Patients/access/Roles.sol\":3520:3569  bytes32 public constant DEFAULT_ADMIN_ROLE = 0x00 */\n      dup1\n      shl\n      dup2\n      jump\t// out\n        /* \"Patients/Patient.sol\":2789:2934  function isAccess(string memory _doctor) external view returns(bool)... */\n    tag_49:\n        /* \"Patients/Patient.sol\":2852:2856  bool */\n      0x00\n        /* \"Patients/Patient.sol\":2871:2882  bool access */\n      dup1\n        /* \"Patients/Patient.sol\":2885:2905  _checkArray(_doctor) */\n      tag_78\n        /* \"Patients/Patient.sol\":2897:2904  _doctor */\n      dup4\n        /* \"Patients/Patient.sol\":2885:2896  _checkArray */\n      tag_79\n        /* \"Patients/Patient.sol\":2885:2905  _checkArray(_doctor) */\n      jump\t// in\n    tag_78:\n        /* \"Patients/Patient.sol\":2871:2905  bool access = _checkArray(_doctor) */\n      swap1\n      pop\n        /* \"Patients/Patient.sol\":2921:2927  access */\n      dup1\n        /* \"Patients/Patient.sol\":2914:2927  return access */\n      swap2\n      pop\n      pop\n        /* \"Patients/Patient.sol\":2789:2934  function isAccess(string memory _doctor) external view returns(bool)... */\n      swap2\n      swap1\n      pop\n      jump\t// out\n        /* \"Patients/access/Owner.sol\":754:972  function transferOwnership(address _newOwner) public virtual onlyOwner(_owner) ... */\n    tag_53:\n        /* \"Patients/access/Owner.sol\":825:831  _owner */\n      0x00\n      dup1\n      sload\n      swap1\n      0x0100\n      exp\n      swap1\n      div\n      0xffffffffffffffffffffffffffffffffffffffff\n      and\n        /* \"Patients/access/Owner.sol\":352:372  _checkOwner(_sender) */\n      tag_81\n        /* \"Patients/access/Owner.sol\":364:371  _sender */\n      dup2\n        /* \"Patients/access/Owner.sol\":352:363  _checkOwner */\n      tag_82\n        /* \"Patients/access/Owner.sol\":352:372  _checkOwner(_sender) */\n      jump\t// in\n    tag_81:\n        /* \"Patients/access/Owner.sol\":879:880  0 */\n      0x00\n        /* \"Patients/access/Owner.sol\":858:881  _newOwner != address(0) */\n      0xffffffffffffffffffffffffffffffffffffffff\n      and\n        /* \"Patients/access/Owner.sol\":858:867  _newOwner */\n      dup3\n        /* \"Patients/access/Owner.sol\":858:881  _newOwner != address(0) */\n      0xffffffffffffffffffffffffffffffffffffffff\n      and\n      sub\n        /* \"Patients/access/Owner.sol\":850:924  require(_newOwner != address(0), \"Ownable: new owner is the zero address\") */\n      tag_84\n      jumpi\n      mload(0x40)\n      0x08c379a000000000000000000000000000000000000000000000000000000000\n      dup2\n      mstore\n      0x04\n      add\n      tag_85\n      swap1\n      tag_86\n      jump\t// in\n    tag_85:\n      mload(0x40)\n      dup1\n      swap2\n      sub\n      swap1\n      revert\n    tag_84:\n        /* \"Patients/access/Owner.sol\":935:964  _transferOwnership(_newOwner) */\n      tag_87\n        /* \"Patients/access/Owner.sol\":954:963  _newOwner */\n      dup3\n        /* \"Patients/access/Owner.sol\":935:953  _transferOwnership */\n      tag_88\n        /* \"Patients/access/Owner.sol\":935:964  _transferOwnership(_newOwner) */\n      jump\t// in\n    tag_87:\n        /* \"Patients/access/Owner.sol\":754:972  function transferOwnership(address _newOwner) public virtual onlyOwner(_owner) ... */\n      pop\n      pop\n      jump\t// out\n        /* \"Patients/Patient.sol\":3220:3730  function revokeRole_Doctor(address _patient, string memory _doctor) external onlyOwner(_patient)... */\n    tag_57:\n        /* \"Patients/Patient.sol\":3307:3315  _patient */\n      dup2\n        /* \"Patients/access/Owner.sol\":352:372  _checkOwner(_sender) */\n      tag_90\n        /* \"Patients/access/Owner.sol\":364:371  _sender */\n      dup2\n        /* \"Patients/access/Owner.sol\":352:363  _checkOwner */\n      tag_82\n        /* \"Patients/access/Owner.sol\":352:372  _checkOwner(_sender) */\n      jump\t// in\n    tag_90:\n        /* \"Patients/access/Roles.sol\":3565:3569  0x00 */\n      0x00\n        /* \"Patients/Patient.sol\":3334:3352  DEFAULT_ADMIN_ROLE */\n      dup1\n      shl\n        /* \"Patients/Patient.sol\":3354:3362  _patient */\n      dup4\n        /* \"Patients/access/Roles.sol\":4164:4187  _checkRole(role,sender) */\n      tag_92\n        /* \"Patients/access/Roles.sol\":4175:4179  role */\n      dup3\n        /* \"Patients/access/Roles.sol\":4180:4186  sender */\n      dup3\n        /* \"Patients/access/Roles.sol\":4164:4174  _checkRole */\n      tag_93\n        /* \"Patients/access/Roles.sol\":4164:4187  _checkRole(role,sender) */\n      jump\t// in\n    tag_92:\n        /* \"Patients/Patient.sol\":3378:3385  int pos */\n      0x00\n        /* \"Patients/Patient.sol\":3388:3390  -1 */\n      0xffffffffffffffffffffffffffffffffffffffffffffffffffffffffffffffff\n        /* \"Patients/Patient.sol\":3378:3390  int pos = -1 */\n      swap1\n      pop\n        /* \"Patients/Patient.sol\":3404:3413  uint256 i */\n      0x00\n        /* \"Patients/Patient.sol\":3400:3704  for(uint256 i=0;i<docs.length-1;i++)... */\n    tag_95:\n        /* \"Patients/Patient.sol\":3430:3431  1 */\n      0x01\n        /* \"Patients/Patient.sol\":3418:3422  docs */\n      0x03\n        /* \"Patients/Patient.sol\":3418:3429  docs.length */\n      dup1\n      sload\n      swap1\n      pop\n        /* \"Patients/Patient.sol\":3418:3431  docs.length-1 */\n      tag_98\n      swap2\n      swap1\n      tag_99\n      jump\t// in\n    tag_98:\n        /* \"Patients/Patient.sol\":3416:3417  i */\n      dup2\n        /* \"Patients/Patient.sol\":3416:3431  i<docs.length-1 */\n      lt\n        /* \"Patients/Patient.sol\":3400:3704  for(uint256 i=0;i<docs.length-1;i++)... */\n      iszero\n      tag_96\n      jumpi\n        /* \"Patients/Patient.sol\":3459:3471  bool isEqual */\n      0x00\n        /* \"Patients/Patient.sol\":3542:3546  docs */\n      0x03\n        /* \"Patients/Patient.sol\":3547:3548  i */\n      dup3\n        /* \"Patients/Patient.sol\":3542:3549  docs[i] */\n      dup2\n      sload\n      dup2\n      lt\n      tag_100\n      jumpi\n      tag_101\n      tag_102\n      jump\t// in\n    tag_101:\n    tag_100:\n      swap1\n      0x00\n      mstore\n      keccak256(0x00, 0x20)\n      add\n        /* \"Patients/Patient.sol\":3525:3550  abi.encodePacked(docs[i]) */\n      add(0x20, mload(0x40))\n      tag_104\n      swap2\n      swap1\n      tag_105\n      jump\t// in\n    tag_104:\n      mload(0x40)\n      0x20\n      dup2\n      dup4\n      sub\n      sub\n      dup2\n      mstore\n      swap1\n      0x40\n      mstore\n        /* \"Patients/Patient.sol\":3515:3551  keccak256(abi.encodePacked(docs[i])) */\n      dup1\n      mload\n      swap1\n      0x20\n      add\n      keccak256\n        /* \"Patients/Patient.sol\":3502:3509  _doctor */\n      dup8\n        /* \"Patients/Patient.sol\":3485:3510  abi.encodePacked(_doctor) */\n      add(0x20, mload(0x40))\n      tag_106\n      swap2\n      swap1\n      tag_107\n      jump\t// in\n    tag_106:\n      mload(0x40)\n      0x20\n      dup2\n      dup4\n      sub\n      sub\n      dup2\n      mstore\n      swap1\n      0x40\n      mstore\n        /* \"Patients/Patient.sol\":3475:3511  keccak256(abi.encodePacked(_doctor)) */\n      dup1\n      mload\n      swap1\n      0x20\n      add\n      keccak256\n        /* \"Patients/Patient.sol\":3475:3551  keccak256(abi.encodePacked(_doctor)) == keccak256(abi.encodePacked(docs[i])) */\n      eq\n        /* \"Patients/Patient.sol\":3459:3552  bool isEqual = (keccak256(abi.encodePacked(_doctor)) == keccak256(abi.encodePacked(docs[i]))) */\n      swap1\n      pop\n        /* \"Patients/Patient.sol\":3576:3578  -1 */\n      0xffffffffffffffffffffffffffffffffffffffffffffffffffffffffffffffff\n        /* \"Patients/Patient.sol\":3569:3572  pos */\n      dup4\n        /* \"Patients/Patient.sol\":3569:3578  pos == -1 */\n      eq\n        /* \"Patients/Patient.sol\":3569:3597  pos == -1 && isEqual == true */\n      dup1\n      iszero\n      tag_108\n      jumpi\n      pop\n        /* \"Patients/Patient.sol\":3593:3597  true */\n      0x01\n        /* \"Patients/Patient.sol\":3582:3597  isEqual == true */\n      iszero\n      iszero\n        /* \"Patients/Patient.sol\":3582:3589  isEqual */\n      dup2\n        /* \"Patients/Patient.sol\":3582:3597  isEqual == true */\n      iszero\n      iszero\n      eq\n        /* \"Patients/Patient.sol\":3569:3597  pos == -1 && isEqual == true */\n    tag_108:\n        /* \"Patients/Patient.sol\":3566:3627  if(pos == -1 && isEqual == true)... */\n      iszero\n      tag_109\n      jumpi\n        /* \"Patients/Patient.sol\":3625:3626  i */\n      dup2\n        /* \"Patients/Patient.sol\":3615:3627  pos = int(i) */\n      swap3\n      pop\n        /* \"Patients/Patient.sol\":3566:3627  if(pos == -1 && isEqual == true)... */\n    tag_109:\n        /* \"Patients/Patient.sol\":3654:3656  -1 */\n      0xffffffffffffffffffffffffffffffffffffffffffffffffffffffffffffffff\n        /* \"Patients/Patient.sol\":3649:3652  pos */\n      dup4\n        /* \"Patients/Patient.sol\":3649:3656  pos!=-1 */\n      eq\n        /* \"Patients/Patient.sol\":3646:3693  if(pos!=-1)... */\n      tag_110\n      jumpi\n        /* \"Patients/Patient.sol\":3684:3688  docs */\n      0x03\n        /* \"Patients/Patient.sol\":3691:3692  1 */\n      0x01\n        /* \"Patients/Patient.sol\":3689:3690  i */\n      dup4\n        /* \"Patients/Patient.sol\":3689:3692  i+1 */\n      tag_111\n      swap2\n      swap1\n      tag_112\n      jump\t// in\n    tag_111:\n        /* \"Patients/Patient.sol\":3684:3693  docs[i+1] */\n      dup2\n      sload\n      dup2\n      lt\n      tag_113\n      jumpi\n      tag_114\n      tag_102\n      jump\t// in\n    tag_114:\n    tag_113:\n      swap1\n      0x00\n      mstore\n      keccak256(0x00, 0x20)\n      add\n        /* \"Patients/Patient.sol\":3674:3678  docs */\n      0x03\n        /* \"Patients/Patient.sol\":3679:3680  i */\n      dup4\n        /* \"Patients/Patient.sol\":3674:3681  docs[i] */\n      dup2\n      sload\n      dup2\n      lt\n      tag_116\n      jumpi\n      tag_117\n      tag_102\n      jump\t// in\n    tag_117:\n    tag_116:\n      swap1\n      0x00\n      mstore\n      keccak256(0x00, 0x20)\n      add\n        /* \"Patients/Patient.sol\":3674:3693  docs[i] = docs[i+1] */\n      swap1\n      dup2\n      tag_119\n      swap2\n      swap1\n      tag_120\n      jump\t// in\n    tag_119:\n      pop\n        /* \"Patients/Patient.sol\":3646:3693  if(pos!=-1)... */\n    tag_110:\n        /* \"Patients/Patient.sol\":3445:3704  {... */\n      pop\n        /* \"Patients/Patient.sol\":3432:3435  i++ */\n      dup1\n      dup1\n      tag_121\n      swap1\n      tag_122\n      jump\t// in\n    tag_121:\n      swap2\n      pop\n      pop\n        /* \"Patients/Patient.sol\":3400:3704  for(uint256 i=0;i<docs.length-1;i++)... */\n      jump(tag_95)\n    tag_96:\n      pop\n        /* \"Patients/Patient.sol\":3713:3717  docs */\n      0x03\n        /* \"Patients/Patient.sol\":3713:3723  docs.pop() */\n      dup1\n      sload\n      dup1\n      tag_123\n      jumpi\n      tag_124\n      tag_125\n      jump\t// in\n    tag_124:\n    tag_123:\n      0x01\n      swap1\n      sub\n      dup2\n      dup2\n      swap1\n      0x00\n      mstore\n      keccak256(0x00, 0x20)\n      add\n      0x00\n      tag_127\n      swap2\n      swap1\n      tag_128\n      jump\t// in\n    tag_127:\n      swap1\n      sstore\n        /* \"Patients/Patient.sol\":3368:3730  {... */\n      pop\n        /* \"Patients/access/Owner.sol\":383:384  _ */\n      pop\n      pop\n        /* \"Patients/Patient.sol\":3220:3730  function revokeRole_Doctor(address _patient, string memory _doctor) external onlyOwner(_patient)... */\n      pop\n      pop\n      pop\n      jump\t// out\n        /* \"Patients/Patient.sol\":2940:3214  function setupRole_Doctor(address _patient, string memory _doctor) external onlyOwner(_patient)... */\n    tag_60:\n        /* \"Patients/Patient.sol\":3026:3034  _patient */\n      dup2\n        /* \"Patients/access/Owner.sol\":352:372  _checkOwner(_sender) */\n      tag_130\n        /* \"Patients/access/Owner.sol\":364:371  _sender */\n      dup2\n        /* \"Patients/access/Owner.sol\":352:363  _checkOwner */\n      tag_82\n        /* \"Patients/access/Owner.sol\":352:372  _checkOwner(_sender) */\n      jump\t// in\n    tag_130:\n        /* \"Patients/access/Roles.sol\":3565:3569  0x00 */\n      0x00\n        /* \"Patients/Patient.sol\":3050:3068  DEFAULT_ADMIN_ROLE */\n      dup1\n      shl\n        /* \"Patients/Patient.sol\":3070:3078  _patient */\n      dup4\n        /* \"Patients/access/Roles.sol\":4164:4187  _checkRole(role,sender) */\n      tag_132\n        /* \"Patients/access/Roles.sol\":4175:4179  role */\n      dup3\n        /* \"Patients/access/Roles.sol\":4180:4186  sender */\n      dup3\n        /* \"Patients/access/Roles.sol\":4164:4174  _checkRole */\n      tag_93\n        /* \"Patients/access/Roles.sol\":4164:4187  _checkRole(role,sender) */\n      jump\t// in\n    tag_132:\n        /* \"Patients/Patient.sol\":3094:3107  bool isExists */\n      0x00\n        /* \"Patients/Patient.sol\":3110:3130  _checkArray(_doctor) */\n      tag_134\n        /* \"Patients/Patient.sol\":3122:3129  _doctor */\n      dup6\n        /* \"Patients/Patient.sol\":3110:3121  _checkArray */\n      tag_79\n        /* \"Patients/Patient.sol\":3110:3130  _checkArray(_doctor) */\n      jump\t// in\n    tag_134:\n        /* \"Patients/Patient.sol\":3094:3130  bool isExists = _checkArray(_doctor) */\n      swap1\n      pop\n        /* \"Patients/Patient.sol\":3155:3159  true */\n      0x01\n        /* \"Patients/Patient.sol\":3143:3159  isExists == true */\n      iszero\n      iszero\n        /* \"Patients/Patient.sol\":3143:3151  isExists */\n      dup2\n        /* \"Patients/Patient.sol\":3143:3159  isExists == true */\n      iszero\n      iszero\n      sub\n        /* \"Patients/Patient.sol\":3140:3180  if(isExists == true)... */\n      tag_135\n      jumpi\n        /* \"Patients/Patient.sol\":3173:3180  return; */\n      pop\n      jump(tag_133)\n        /* \"Patients/Patient.sol\":3140:3180  if(isExists == true)... */\n    tag_135:\n        /* \"Patients/Patient.sol\":3189:3193  docs */\n      0x03\n        /* \"Patients/Patient.sol\":3199:3206  _doctor */\n      dup6\n        /* \"Patients/Patient.sol\":3189:3207  docs.push(_doctor) */\n      swap1\n      dup1\n      0x01\n      dup2\n      sload\n      add\n      dup1\n      dup3\n      sstore\n      dup1\n      swap2\n      pop\n      pop\n      0x01\n      swap1\n      sub\n      swap1\n      0x00\n      mstore\n      keccak256(0x00, 0x20)\n      add\n      0x00\n      swap1\n      swap2\n      swap1\n      swap2\n      swap1\n      swap2\n      pop\n      swap1\n      dup2\n      tag_137\n      swap2\n      swap1\n      tag_138\n      jump\t// in\n    tag_137:\n      pop\n        /* \"Patients/Patient.sol\":3084:3214  {... */\n      pop\n        /* \"Patients/access/Roles.sol\":4198:4199  _ */\n    tag_133:\n        /* \"Patients/access/Owner.sol\":383:384  _ */\n      pop\n      pop\n        /* \"Patients/Patient.sol\":2940:3214  function setupRole_Doctor(address _patient, string memory _doctor) external onlyOwner(_patient)... */\n      pop\n      pop\n      pop\n      jump\t// out\n        /* \"Patients/access/Roles.sol\":9745:9969  function _revokeRole(bytes32 role, address account) private  {... */\n    tag_68:\n        /* \"Patients/access/Roles.sol\":9821:9843  hasRole(role, account) */\n      tag_140\n        /* \"Patients/access/Roles.sol\":9829:9833  role */\n      dup3\n        /* \"Patients/access/Roles.sol\":9835:9842  account */\n      dup3\n        /* \"Patients/access/Roles.sol\":9821:9828  hasRole */\n      tag_41\n        /* \"Patients/access/Roles.sol\":9821:9843  hasRole(role, account) */\n      jump\t// in\n    tag_140:\n        /* \"Patients/access/Roles.sol\":9817:9962  if (hasRole(role, account)) {... */\n      iszero\n      tag_141\n      jumpi\n        /* \"Patients/access/Roles.sol\":9892:9897  false */\n      0x00\n        /* \"Patients/access/Roles.sol\":9860:9866  _roles */\n      0x01\n        /* \"Patients/access/Roles.sol\":9860:9872  _roles[role] */\n      0x00\n        /* \"Patients/access/Roles.sol\":9867:9871  role */\n      dup5\n        /* \"Patients/access/Roles.sol\":9860:9872  _roles[role] */\n      dup2\n      mstore\n      0x20\n      add\n      swap1\n      dup2\n      mstore\n      0x20\n      add\n      0x00\n      keccak256\n        /* \"Patients/access/Roles.sol\":9860:9880  _roles[role].members */\n      0x00\n      add\n        /* \"Patients/access/Roles.sol\":9860:9889  _roles[role].members[account] */\n      0x00\n        /* \"Patients/access/Roles.sol\":9881:9888  account */\n      dup4\n        /* \"Patients/access/Roles.sol\":9860:9889  _roles[role].members[account] */\n      0xffffffffffffffffffffffffffffffffffffffff\n      and\n      0xffffffffffffffffffffffffffffffffffffffff\n      and\n      dup2\n      mstore\n      0x20\n      add\n      swap1\n      dup2\n      mstore\n      0x20\n      add\n      0x00\n      keccak256\n      0x00\n        /* \"Patients/access/Roles.sol\":9860:9897  _roles[role].members[account] = false */\n      0x0100\n      exp\n      dup2\n      sload\n      dup2\n      0xff\n      mul\n      not\n      and\n      swap1\n      dup4\n      iszero\n      iszero\n      mul\n      or\n      swap1\n      sstore\n      pop\n        /* \"Patients/access/Roles.sol\":9944:9949  admin */\n      0x02\n      0x00\n      swap1\n      sload\n      swap1\n      0x0100\n      exp\n      swap1\n      div\n      0xffffffffffffffffffffffffffffffffffffffff\n      and\n        /* \"Patients/access/Roles.sol\":9917:9950  RoleRevoked(role, account, admin) */\n      0xffffffffffffffffffffffffffffffffffffffff\n      and\n        /* \"Patients/access/Roles.sol\":9935:9942  account */\n      dup2\n        /* \"Patients/access/Roles.sol\":9917:9950  RoleRevoked(role, account, admin) */\n      0xffffffffffffffffffffffffffffffffffffffff\n      and\n        /* \"Patients/access/Roles.sol\":9929:9933  role */\n      dup4\n        /* \"Patients/access/Roles.sol\":9917:9950  RoleRevoked(role, account, admin) */\n      0xf6391f5c32d9c69d2a47ea670b442974b53935d1edc7fd64eb21e047a839171b\n      mload(0x40)\n      mload(0x40)\n      dup1\n      swap2\n      sub\n      swap1\n      log4\n        /* \"Patients/access/Roles.sol\":9817:9962  if (hasRole(role, account)) {... */\n    tag_141:\n        /* \"Patients/access/Roles.sol\":9745:9969  function _revokeRole(bytes32 role, address account) private  {... */\n      pop\n      pop\n      jump\t// out\n        /* \"Patients/access/Roles.sol\":3608:3710  function setAdmin(address _sender) internal onlyOwner(_sender)... */\n    tag_72:\n        /* \"Patients/access/Roles.sol\":3662:3669  _sender */\n      dup1\n        /* \"Patients/access/Owner.sol\":352:372  _checkOwner(_sender) */\n      tag_143\n        /* \"Patients/access/Owner.sol\":364:371  _sender */\n      dup2\n        /* \"Patients/access/Owner.sol\":352:363  _checkOwner */\n      tag_82\n        /* \"Patients/access/Owner.sol\":352:372  _checkOwner(_sender) */\n      jump\t// in\n    tag_143:\n        /* \"Patients/access/Roles.sol\":3695:3702  _sender */\n      dup2\n        /* \"Patients/access/Roles.sol\":3687:3692  admin */\n      0x02\n      0x00\n        /* \"Patients/access/Roles.sol\":3687:3702  admin = _sender */\n      0x0100\n      exp\n      dup2\n      sload\n      dup2\n      0xffffffffffffffffffffffffffffffffffffffff\n      mul\n      not\n      and\n      swap1\n      dup4\n      0xffffffffffffffffffffffffffffffffffffffff\n      and\n      mul\n      or\n      swap1\n      sstore\n      pop\n        /* \"Patients/access/Roles.sol\":3608:3710  function setAdmin(address _sender) internal onlyOwner(_sender)... */\n      pop\n      pop\n      jump\t// out\n        /* \"Patients/access/Roles.sol\":8597:8731  function _setupRole(bytes32 role, address account) internal virtual onlyOwner(admin)... */\n    tag_74:\n        /* \"Patients/access/Roles.sol\":8675:8680  admin */\n      0x02\n      0x00\n      swap1\n      sload\n      swap1\n      0x0100\n      exp\n      swap1\n      div\n      0xffffffffffffffffffffffffffffffffffffffff\n      and\n        /* \"Patients/access/Owner.sol\":352:372  _checkOwner(_sender) */\n      tag_146\n        /* \"Patients/access/Owner.sol\":364:371  _sender */\n      dup2\n        /* \"Patients/access/Owner.sol\":352:363  _checkOwner */\n      tag_82\n        /* \"Patients/access/Owner.sol\":352:372  _checkOwner(_sender) */\n      jump\t// in\n    tag_146:\n        /* \"Patients/access/Roles.sol\":8698:8723  _grantRole(role, account) */\n      tag_148\n        /* \"Patients/access/Roles.sol\":8709:8713  role */\n      dup4\n        /* \"Patients/access/Roles.sol\":8715:8722  account */\n      dup4\n        /* \"Patients/access/Roles.sol\":8698:8708  _grantRole */\n      tag_149\n        /* \"Patients/access/Roles.sol\":8698:8723  _grantRole(role, account) */\n      jump\t// in\n    tag_148:\n        /* \"Patients/access/Roles.sol\":8597:8731  function _setupRole(bytes32 role, address account) internal virtual onlyOwner(admin)... */\n      pop\n      pop\n      pop\n      jump\t// out\n        /* \"Patients/Patient.sol\":2441:2784  function _checkArray(string memory addr_doctor) private view returns(bool)... */\n    tag_79:\n        /* \"Patients/Patient.sol\":2510:2514  bool */\n      0x00\n        /* \"Patients/Patient.sol\":2534:2543  uint256 i */\n      dup1\n        /* \"Patients/Patient.sol\":2544:2545  0 */\n      0x00\n        /* \"Patients/Patient.sol\":2534:2545  uint256 i=0 */\n      swap1\n      pop\n        /* \"Patients/Patient.sol\":2530:2756  for(uint256 i=0;i<docs.length;i++)... */\n    tag_151:\n        /* \"Patients/Patient.sol\":2548:2552  docs */\n      0x03\n        /* \"Patients/Patient.sol\":2548:2559  docs.length */\n      dup1\n      sload\n      swap1\n      pop\n        /* \"Patients/Patient.sol\":2546:2547  i */\n      dup2\n        /* \"Patients/Patient.sol\":2546:2559  i<docs.length */\n      lt\n        /* \"Patients/Patient.sol\":2530:2756  for(uint256 i=0;i<docs.length;i++)... */\n      iszero\n      tag_152\n      jumpi\n        /* \"Patients/Patient.sol\":2587:2599  bool isEqual */\n      0x00\n        /* \"Patients/Patient.sol\":2674:2678  docs */\n      0x03\n        /* \"Patients/Patient.sol\":2679:2680  i */\n      dup3\n        /* \"Patients/Patient.sol\":2674:2681  docs[i] */\n      dup2\n      sload\n      dup2\n      lt\n      tag_154\n      jumpi\n      tag_155\n      tag_102\n      jump\t// in\n    tag_155:\n    tag_154:\n      swap1\n      0x00\n      mstore\n      keccak256(0x00, 0x20)\n      add\n        /* \"Patients/Patient.sol\":2657:2682  abi.encodePacked(docs[i]) */\n      add(0x20, mload(0x40))\n      tag_157\n      swap2\n      swap1\n      tag_105\n      jump\t// in\n    tag_157:\n      mload(0x40)\n      0x20\n      dup2\n      dup4\n      sub\n      sub\n      dup2\n      mstore\n      swap1\n      0x40\n      mstore\n        /* \"Patients/Patient.sol\":2647:2683  keccak256(abi.encodePacked(docs[i])) */\n      dup1\n      mload\n      swap1\n      0x20\n      add\n      keccak256\n        /* \"Patients/Patient.sol\":2630:2641  addr_doctor */\n      dup5\n        /* \"Patients/Patient.sol\":2613:2642  abi.encodePacked(addr_doctor) */\n      add(0x20, mload(0x40))\n      tag_158\n      swap2\n      swap1\n      tag_107\n      jump\t// in\n    tag_158:\n      mload(0x40)\n      0x20\n      dup2\n      dup4\n      sub\n      sub\n      dup2\n      mstore\n      swap1\n      0x40\n      mstore\n        /* \"Patients/Patient.sol\":2603:2643  keccak256(abi.encodePacked(addr_doctor)) */\n      dup1\n      mload\n      swap1\n      0x20\n      add\n      keccak256\n        /* \"Patients/Patient.sol\":2603:2683  keccak256(abi.encodePacked(addr_doctor)) == keccak256(abi.encodePacked(docs[i])) */\n      eq\n        /* \"Patients/Patient.sol\":2587:2684  bool isEqual = (keccak256(abi.encodePacked(addr_doctor)) == keccak256(abi.encodePacked(docs[i]))) */\n      swap1\n      pop\n        /* \"Patients/Patient.sol\":2712:2716  true */\n      0x01\n        /* \"Patients/Patient.sol\":2701:2716  isEqual == true */\n      iszero\n      iszero\n        /* \"Patients/Patient.sol\":2701:2708  isEqual */\n      dup2\n        /* \"Patients/Patient.sol\":2701:2716  isEqual == true */\n      iszero\n      iszero\n      sub\n        /* \"Patients/Patient.sol\":2698:2745  if(isEqual == true)... */\n      tag_159\n      jumpi\n        /* \"Patients/Patient.sol\":2741:2745  true */\n      0x01\n        /* \"Patients/Patient.sol\":2734:2745  return true */\n      swap3\n      pop\n      pop\n      pop\n      jump(tag_150)\n        /* \"Patients/Patient.sol\":2698:2745  if(isEqual == true)... */\n    tag_159:\n        /* \"Patients/Patient.sol\":2573:2756  {... */\n      pop\n        /* \"Patients/Patient.sol\":2560:2563  i++ */\n      dup1\n      dup1\n      tag_160\n      swap1\n      tag_122\n      jump\t// in\n    tag_160:\n      swap2\n      pop\n      pop\n        /* \"Patients/Patient.sol\":2530:2756  for(uint256 i=0;i<docs.length;i++)... */\n      jump(tag_151)\n    tag_152:\n      pop\n        /* \"Patients/Patient.sol\":2772:2777  false */\n      0x00\n        /* \"Patients/Patient.sol\":2765:2777  return false */\n      swap1\n      pop\n        /* \"Patients/Patient.sol\":2441:2784  function _checkArray(string memory addr_doctor) private view returns(bool)... */\n    tag_150:\n      swap2\n      swap1\n      pop\n      jump\t// out\n        /* \"Patients/access/Owner.sol\":497:645  function _checkOwner(address _sender) internal view virtual ... */\n    tag_82:\n        /* \"Patients/access/Owner.sol\":593:600  _sender */\n      dup1\n        /* \"Patients/access/Owner.sol\":582:600  owner() == _sender */\n      0xffffffffffffffffffffffffffffffffffffffff\n      and\n        /* \"Patients/access/Owner.sol\":582:589  owner() */\n      tag_162\n        /* \"Patients/access/Owner.sol\":582:587  owner */\n      tag_36\n        /* \"Patients/access/Owner.sol\":582:589  owner() */\n      jump\t// in\n    tag_162:\n        /* \"Patients/access/Owner.sol\":582:600  owner() == _sender */\n      0xffffffffffffffffffffffffffffffffffffffff\n      and\n      eq\n        /* \"Patients/access/Owner.sol\":574:637  require(owner() == _sender, \"Ownable: caller is not the owner\") */\n      tag_163\n      jumpi\n      mload(0x40)\n      0x08c379a000000000000000000000000000000000000000000000000000000000\n      dup2\n      mstore\n      0x04\n      add\n      tag_164\n      swap1\n      tag_165\n      jump\t// in\n    tag_164:\n      mload(0x40)\n      dup1\n      swap2\n      sub\n      swap1\n      revert\n    tag_163:\n        /* \"Patients/access/Owner.sol\":497:645  function _checkOwner(address _sender) internal view virtual ... */\n      pop\n      jump\t// out\n        /* \"Patients/access/Owner.sol\":980:1172  function _transferOwnership(address _newOwner) private  ... */\n    tag_88:\n        /* \"Patients/access/Owner.sol\":1053:1069  address oldOwner */\n      0x00\n        /* \"Patients/access/Owner.sol\":1072:1078  _owner */\n      dup1\n      0x00\n      swap1\n      sload\n      swap1\n      0x0100\n      exp\n      swap1\n      div\n      0xffffffffffffffffffffffffffffffffffffffff\n      and\n        /* \"Patients/access/Owner.sol\":1053:1078  address oldOwner = _owner */\n      swap1\n      pop\n        /* \"Patients/access/Owner.sol\":1098:1107  _newOwner */\n      dup2\n        /* \"Patients/access/Owner.sol\":1089:1095  _owner */\n      0x00\n      dup1\n        /* \"Patients/access/Owner.sol\":1089:1107  _owner = _newOwner */\n      0x0100\n      exp\n      dup2\n      sload\n      dup2\n      0xffffffffffffffffffffffffffffffffffffffff\n      mul\n      not\n      and\n      swap1\n      dup4\n      0xffffffffffffffffffffffffffffffffffffffff\n      and\n      mul\n      or\n      swap1\n      sstore\n      pop\n        /* \"Patients/access/Owner.sol\":1154:1163  _newOwner */\n      dup2\n        /* \"Patients/access/Owner.sol\":1123:1164  OwnershipTransferred(oldOwner, _newOwner) */\n      0xffffffffffffffffffffffffffffffffffffffff\n      and\n        /* \"Patients/access/Owner.sol\":1144:1152  oldOwner */\n      dup2\n        /* \"Patients/access/Owner.sol\":1123:1164  OwnershipTransferred(oldOwner, _newOwner) */\n      0xffffffffffffffffffffffffffffffffffffffff\n      and\n      0x8be0079c531659141344cd1fd0a4f28419497f9722a3daafe3b4186f6b6457e0\n      mload(0x40)\n      mload(0x40)\n      dup1\n      swap2\n      sub\n      swap1\n      log3\n        /* \"Patients/access/Owner.sol\":1042:1172  {... */\n      pop\n        /* \"Patients/access/Owner.sol\":980:1172  function _transferOwnership(address _newOwner) private  ... */\n      pop\n      jump\t// out\n        /* \"Patients/access/Roles.sol\":5429:5921  function _checkRole(bytes32 role, address account) internal view virtual {... */\n    tag_93:\n        /* \"Patients/access/Roles.sol\":5518:5540  hasRole(role, account) */\n      tag_168\n        /* \"Patients/access/Roles.sol\":5526:5530  role */\n      dup3\n        /* \"Patients/access/Roles.sol\":5532:5539  account */\n      dup3\n        /* \"Patients/access/Roles.sol\":5518:5525  hasRole */\n      tag_41\n        /* \"Patients/access/Roles.sol\":5518:5540  hasRole(role, account) */\n      jump\t// in\n    tag_168:\n        /* \"Patients/access/Roles.sol\":5513:5914  if (!hasRole(role, account)) {... */\n      tag_169\n      jumpi\n        /* \"Patients/access/Roles.sol\":5706:5734  Strings.toHexString(account) */\n      tag_170\n        /* \"Patients/access/Roles.sol\":5726:5733  account */\n      dup2\n        /* \"Patients/access/Roles.sol\":5706:5725  Strings.toHexString */\n      tag_171\n        /* \"Patients/access/Roles.sol\":5706:5734  Strings.toHexString(account) */\n      jump\t// in\n    tag_170:\n        /* \"Patients/access/Roles.sol\":5807:5845  Strings.toHexString(uint256(role), 32) */\n      tag_172\n        /* \"Patients/access/Roles.sol\":5835:5839  role */\n      dup4\n        /* \"Patients/access/Roles.sol\":5827:5840  uint256(role) */\n      0x00\n      shr\n        /* \"Patients/access/Roles.sol\":5842:5844  32 */\n      0x20\n        /* \"Patients/access/Roles.sol\":5807:5826  Strings.toHexString */\n      tag_173\n        /* \"Patients/access/Roles.sol\":5807:5845  Strings.toHexString(uint256(role), 32) */\n      jump\t// in\n    tag_172:\n        /* \"Patients/access/Roles.sol\":5611:5868  abi.encodePacked(... */\n      add(0x20, mload(0x40))\n      tag_174\n      swap3\n      swap2\n      swap1\n      tag_175\n      jump\t// in\n    tag_174:\n      mload(0x40)\n      0x20\n      dup2\n      dup4\n      sub\n      sub\n      dup2\n      mstore\n      swap1\n      0x40\n      mstore\n        /* \"Patients/access/Roles.sol\":5557:5902  revert(... */\n      mload(0x40)\n      0x08c379a000000000000000000000000000000000000000000000000000000000\n      dup2\n      mstore\n      0x04\n      add\n      tag_176\n      swap2\n      swap1\n      tag_177\n      jump\t// in\n    tag_176:\n      mload(0x40)\n      dup1\n      swap2\n      sub\n      swap1\n      revert\n        /* \"Patients/access/Roles.sol\":5513:5914  if (!hasRole(role, account)) {... */\n    tag_169:\n        /* \"Patients/access/Roles.sol\":5429:5921  function _checkRole(bytes32 role, address account) internal view virtual {... */\n      pop\n      pop\n      jump\t// out\n        /* \"Patients/access/Roles.sol\":9326:9565  function _grantRole(bytes32 role, address account) private  ... */\n    tag_149:\n        /* \"Patients/access/Roles.sol\":9408:9430  hasRole(role, account) */\n      tag_179\n        /* \"Patients/access/Roles.sol\":9416:9420  role */\n      dup3\n        /* \"Patients/access/Roles.sol\":9422:9429  account */\n      dup3\n        /* \"Patients/access/Roles.sol\":9408:9415  hasRole */\n      tag_41\n        /* \"Patients/access/Roles.sol\":9408:9430  hasRole(role, account) */\n      jump\t// in\n    tag_179:\n        /* \"Patients/access/Roles.sol\":9403:9558  if (!hasRole(role, account)) ... */\n      tag_180\n      jumpi\n        /* \"Patients/access/Roles.sol\":9489:9493  true */\n      0x01\n        /* \"Patients/access/Roles.sol\":9457:9463  _roles */\n      dup1\n        /* \"Patients/access/Roles.sol\":9457:9469  _roles[role] */\n      0x00\n        /* \"Patients/access/Roles.sol\":9464:9468  role */\n      dup5\n        /* \"Patients/access/Roles.sol\":9457:9469  _roles[role] */\n      dup2\n      mstore\n      0x20\n      add\n      swap1\n      dup2\n      mstore\n      0x20\n      add\n      0x00\n      keccak256\n        /* \"Patients/access/Roles.sol\":9457:9477  _roles[role].members */\n      0x00\n      add\n        /* \"Patients/access/Roles.sol\":9457:9486  _roles[role].members[account] */\n      0x00\n        /* \"Patients/access/Roles.sol\":9478:9485  account */\n      dup4\n        /* \"Patients/access/Roles.sol\":9457:9486  _roles[role].members[account] */\n      0xffffffffffffffffffffffffffffffffffffffff\n      and\n      0xffffffffffffffffffffffffffffffffffffffff\n      and\n      dup2\n      mstore\n      0x20\n      add\n      swap1\n      dup2\n      mstore\n      0x20\n      add\n      0x00\n      keccak256\n      0x00\n        /* \"Patients/access/Roles.sol\":9457:9493  _roles[role].members[account] = true */\n      0x0100\n      exp\n      dup2\n      sload\n      dup2\n      0xff\n      mul\n      not\n      and\n      swap1\n      dup4\n      iszero\n      iszero\n      mul\n      or\n      swap1\n      sstore\n      pop\n        /* \"Patients/access/Roles.sol\":9540:9545  admin */\n      0x02\n      0x00\n      swap1\n      sload\n      swap1\n      0x0100\n      exp\n      swap1\n      div\n      0xffffffffffffffffffffffffffffffffffffffff\n      and\n        /* \"Patients/access/Roles.sol\":9513:9546  RoleGranted(role, account, admin) */\n      0xffffffffffffffffffffffffffffffffffffffff\n      and\n        /* \"Patients/access/Roles.sol\":9531:9538  account */\n      dup2\n        /* \"Patients/access/Roles.sol\":9513:9546  RoleGranted(role, account, admin) */\n      0xffffffffffffffffffffffffffffffffffffffff\n      and\n        /* \"Patients/access/Roles.sol\":9525:9529  role */\n      dup4\n        /* \"Patients/access/Roles.sol\":9513:9546  RoleGranted(role, account, admin) */\n      0x2f8788117e7eff1d82e926ec794901d17c78024a50270940304540a733656f0d\n      mload(0x40)\n      mload(0x40)\n      dup1\n      swap2\n      sub\n      swap1\n      log4\n        /* \"Patients/access/Roles.sol\":9403:9558  if (!hasRole(role, account)) ... */\n    tag_180:\n        /* \"Patients/access/Roles.sol\":9326:9565  function _grantRole(bytes32 role, address account) private  ... */\n      pop\n      pop\n      jump\t// out\n        /* \"https://github.com/OpenZeppelin/openzeppelin-contracts/blob/release-v4.9/contracts/utils/Strings.sol\":2407:2556  function toHexString(address addr) internal pure returns (string memory) {... */\n    tag_171:\n        /* \"https://github.com/OpenZeppelin/openzeppelin-contracts/blob/release-v4.9/contracts/utils/Strings.sol\":2465:2478  string memory */\n      0x60\n        /* \"https://github.com/OpenZeppelin/openzeppelin-contracts/blob/release-v4.9/contracts/utils/Strings.sol\":2497:2549  toHexString(uint256(uint160(addr)), _ADDRESS_LENGTH) */\n      tag_182\n        /* \"https://github.com/OpenZeppelin/openzeppelin-contracts/blob/release-v4.9/contracts/utils/Strings.sol\":2525:2529  addr */\n      dup3\n        /* \"https://github.com/OpenZeppelin/openzeppelin-contracts/blob/release-v4.9/contracts/utils/Strings.sol\":2509:2531  uint256(uint160(addr)) */\n      0xffffffffffffffffffffffffffffffffffffffff\n      and\n        /* \"https://github.com/OpenZeppelin/openzeppelin-contracts/blob/release-v4.9/contracts/utils/Strings.sol\":343:345  20 */\n      0x14\n        /* \"https://github.com/OpenZeppelin/openzeppelin-contracts/blob/release-v4.9/contracts/utils/Strings.sol\":2497:2549  toHexString(uint256(uint160(addr)), _ADDRESS_LENGTH) */\n      0xff\n      and\n        /* \"https://github.com/OpenZeppelin/openzeppelin-contracts/blob/release-v4.9/contracts/utils/Strings.sol\":2497:2508  toHexString */\n      tag_173\n        /* \"https://github.com/OpenZeppelin/openzeppelin-contracts/blob/release-v4.9/contracts/utils/Strings.sol\":2497:2549  toHexString(uint256(uint160(addr)), _ADDRESS_LENGTH) */\n      jump\t// in\n    tag_182:\n        /* \"https://github.com/OpenZeppelin/openzeppelin-contracts/blob/release-v4.9/contracts/utils/Strings.sol\":2490:2549  return toHexString(uint256(uint160(addr)), _ADDRESS_LENGTH) */\n      swap1\n      pop\n        /* \"https://github.com/OpenZeppelin/openzeppelin-contracts/blob/release-v4.9/contracts/utils/Strings.sol\":2407:2556  function toHexString(address addr) internal pure returns (string memory) {... */\n      swap2\n      swap1\n      pop\n      jump\t// out\n        /* \"https://github.com/OpenZeppelin/openzeppelin-contracts/blob/release-v4.9/contracts/utils/Strings.sol\":1818:2255  function toHexString(uint256 value, uint256 length) internal pure returns (string memory) {... */\n    tag_173:\n        /* \"https://github.com/OpenZeppelin/openzeppelin-contracts/blob/release-v4.9/contracts/utils/Strings.sol\":1893:1906  string memory */\n      0x60\n        /* \"https://github.com/OpenZeppelin/openzeppelin-contracts/blob/release-v4.9/contracts/utils/Strings.sol\":1918:1937  bytes memory buffer */\n      0x00\n        /* \"https://github.com/OpenZeppelin/openzeppelin-contracts/blob/release-v4.9/contracts/utils/Strings.sol\":1963:1964  2 */\n      0x02\n        /* \"https://github.com/OpenZeppelin/openzeppelin-contracts/blob/release-v4.9/contracts/utils/Strings.sol\":1954:1960  length */\n      dup4\n        /* \"https://github.com/OpenZeppelin/openzeppelin-contracts/blob/release-v4.9/contracts/utils/Strings.sol\":1950:1951  2 */\n      0x02\n        /* \"https://github.com/OpenZeppelin/openzeppelin-contracts/blob/release-v4.9/contracts/utils/Strings.sol\":1950:1960  2 * length */\n      tag_184\n      swap2\n      swap1\n      tag_185\n      jump\t// in\n    tag_184:\n        /* \"https://github.com/OpenZeppelin/openzeppelin-contracts/blob/release-v4.9/contracts/utils/Strings.sol\":1950:1964  2 * length + 2 */\n      tag_186\n      swap2\n      swap1\n      tag_112\n      jump\t// in\n    tag_186:\n        /* \"https://github.com/OpenZeppelin/openzeppelin-contracts/blob/release-v4.9/contracts/utils/Strings.sol\":1940:1965  new bytes(2 * length + 2) */\n      0xffffffffffffffff\n      dup2\n      gt\n      iszero\n      tag_187\n      jumpi\n      tag_188\n      tag_189\n      jump\t// in\n    tag_188:\n    tag_187:\n      mload(0x40)\n      swap1\n      dup1\n      dup3\n      mstore\n      dup1\n      0x1f\n      add\n      not(0x1f)\n      and\n      0x20\n      add\n      dup3\n      add\n      0x40\n      mstore\n      dup1\n      iszero\n      tag_190\n      jumpi\n      dup2\n      0x20\n      add\n      0x01\n      dup3\n      mul\n      dup1\n      calldatasize\n      dup4\n      calldatacopy\n      dup1\n      dup3\n      add\n      swap2\n      pop\n      pop\n      swap1\n      pop\n    tag_190:\n      pop\n        /* \"https://github.com/OpenZeppelin/openzeppelin-contracts/blob/release-v4.9/contracts/utils/Strings.sol\":1918:1965  bytes memory buffer = new bytes(2 * length + 2) */\n      swap1\n      pop\n        /* \"https://github.com/OpenZeppelin/openzeppelin-contracts/blob/release-v4.9/contracts/utils/Strings.sol\":1975:1990  buffer[0] = \"0\" */\n      0x3000000000000000000000000000000000000000000000000000000000000000\n        /* \"https://github.com/OpenZeppelin/openzeppelin-contracts/blob/release-v4.9/contracts/utils/Strings.sol\":1975:1981  buffer */\n      dup2\n        /* \"https://github.com/OpenZeppelin/openzeppelin-contracts/blob/release-v4.9/contracts/utils/Strings.sol\":1982:1983  0 */\n      0x00\n        /* \"https://github.com/OpenZeppelin/openzeppelin-contracts/blob/release-v4.9/contracts/utils/Strings.sol\":1975:1984  buffer[0] */\n      dup2\n      mload\n      dup2\n      lt\n      tag_191\n      jumpi\n      tag_192\n      tag_102\n      jump\t// in\n    tag_192:\n    tag_191:\n      0x20\n      add\n      add\n        /* \"https://github.com/OpenZeppelin/openzeppelin-contracts/blob/release-v4.9/contracts/utils/Strings.sol\":1975:1990  buffer[0] = \"0\" */\n      swap1\n      not(0xffffffffffffffffffffffffffffffffffffffffffffffffffffffffffffff)\n      and\n      swap1\n      dup2\n      0x00\n      byte\n      swap1\n      mstore8\n      pop\n        /* \"https://github.com/OpenZeppelin/openzeppelin-contracts/blob/release-v4.9/contracts/utils/Strings.sol\":2000:2015  buffer[1] = \"x\" */\n      0x7800000000000000000000000000000000000000000000000000000000000000\n        /* \"https://github.com/OpenZeppelin/openzeppelin-contracts/blob/release-v4.9/contracts/utils/Strings.sol\":2000:2006  buffer */\n      dup2\n        /* \"https://github.com/OpenZeppelin/openzeppelin-contracts/blob/release-v4.9/contracts/utils/Strings.sol\":2007:2008  1 */\n      0x01\n        /* \"https://github.com/OpenZeppelin/openzeppelin-contracts/blob/release-v4.9/contracts/utils/Strings.sol\":2000:2009  buffer[1] */\n      dup2\n      mload\n      dup2\n      lt\n      tag_193\n      jumpi\n      tag_194\n      tag_102\n      jump\t// in\n    tag_194:\n    tag_193:\n      0x20\n      add\n      add\n        /* \"https://github.com/OpenZeppelin/openzeppelin-contracts/blob/release-v4.9/contracts/utils/Strings.sol\":2000:2015  buffer[1] = \"x\" */\n      swap1\n      not(0xffffffffffffffffffffffffffffffffffffffffffffffffffffffffffffff)\n      and\n      swap1\n      dup2\n      0x00\n      byte\n      swap1\n      mstore8\n      pop\n        /* \"https://github.com/OpenZeppelin/openzeppelin-contracts/blob/release-v4.9/contracts/utils/Strings.sol\":2030:2039  uint256 i */\n      0x00\n        /* \"https://github.com/OpenZeppelin/openzeppelin-contracts/blob/release-v4.9/contracts/utils/Strings.sol\":2055:2056  1 */\n      0x01\n        /* \"https://github.com/OpenZeppelin/openzeppelin-contracts/blob/release-v4.9/contracts/utils/Strings.sol\":2046:2052  length */\n      dup5\n        /* \"https://github.com/OpenZeppelin/openzeppelin-contracts/blob/release-v4.9/contracts/utils/Strings.sol\":2042:2043  2 */\n      0x02\n        /* \"https://github.com/OpenZeppelin/openzeppelin-contracts/blob/release-v4.9/contracts/utils/Strings.sol\":2042:2052  2 * length */\n      tag_198\n      swap2\n      swap1\n      tag_185\n      jump\t// in\n    tag_198:\n        /* \"https://github.com/OpenZeppelin/openzeppelin-contracts/blob/release-v4.9/contracts/utils/Strings.sol\":2042:2056  2 * length + 1 */\n      tag_199\n      swap2\n      swap1\n      tag_112\n      jump\t// in\n    tag_199:\n        /* \"https://github.com/OpenZeppelin/openzeppelin-contracts/blob/release-v4.9/contracts/utils/Strings.sol\":2030:2056  uint256 i = 2 * length + 1 */\n      swap1\n      pop\n        /* \"https://github.com/OpenZeppelin/openzeppelin-contracts/blob/release-v4.9/contracts/utils/Strings.sol\":2025:2153  for (uint256 i = 2 * length + 1; i > 1; --i) {... */\n    tag_195:\n        /* \"https://github.com/OpenZeppelin/openzeppelin-contracts/blob/release-v4.9/contracts/utils/Strings.sol\":2062:2063  1 */\n      0x01\n        /* \"https://github.com/OpenZeppelin/openzeppelin-contracts/blob/release-v4.9/contracts/utils/Strings.sol\":2058:2059  i */\n      dup2\n        /* \"https://github.com/OpenZeppelin/openzeppelin-contracts/blob/release-v4.9/contracts/utils/Strings.sol\":2058:2063  i > 1 */\n      gt\n        /* \"https://github.com/OpenZeppelin/openzeppelin-contracts/blob/release-v4.9/contracts/utils/Strings.sol\":2025:2153  for (uint256 i = 2 * length + 1; i > 1; --i) {... */\n      iszero\n      tag_196\n      jumpi\n        /* \"https://github.com/OpenZeppelin/openzeppelin-contracts/blob/release-v4.9/contracts/utils/Strings.sol\":2096:2104  _SYMBOLS */\n      0x3031323334353637383961626364656600000000000000000000000000000000\n        /* \"https://github.com/OpenZeppelin/openzeppelin-contracts/blob/release-v4.9/contracts/utils/Strings.sol\":2113:2116  0xf */\n      0x0f\n        /* \"https://github.com/OpenZeppelin/openzeppelin-contracts/blob/release-v4.9/contracts/utils/Strings.sol\":2105:2110  value */\n      dup7\n        /* \"https://github.com/OpenZeppelin/openzeppelin-contracts/blob/release-v4.9/contracts/utils/Strings.sol\":2105:2116  value & 0xf */\n      and\n        /* \"https://github.com/OpenZeppelin/openzeppelin-contracts/blob/release-v4.9/contracts/utils/Strings.sol\":2096:2117  _SYMBOLS[value & 0xf] */\n      0x10\n      dup2\n      lt\n      tag_200\n      jumpi\n      tag_201\n      tag_102\n      jump\t// in\n    tag_201:\n    tag_200:\n      byte\n      0xf8\n      shl\n        /* \"https://github.com/OpenZeppelin/openzeppelin-contracts/blob/release-v4.9/contracts/utils/Strings.sol\":2084:2090  buffer */\n      dup3\n        /* \"https://github.com/OpenZeppelin/openzeppelin-contracts/blob/release-v4.9/contracts/utils/Strings.sol\":2091:2092  i */\n      dup3\n        /* \"https://github.com/OpenZeppelin/openzeppelin-contracts/blob/release-v4.9/contracts/utils/Strings.sol\":2084:2093  buffer[i] */\n      dup2\n      mload\n      dup2\n      lt\n      tag_202\n      jumpi\n      tag_203\n      tag_102\n      jump\t// in\n    tag_203:\n    tag_202:\n      0x20\n      add\n      add\n        /* \"https://github.com/OpenZeppelin/openzeppelin-contracts/blob/release-v4.9/contracts/utils/Strings.sol\":2084:2117  buffer[i] = _SYMBOLS[value & 0xf] */\n      swap1\n      not(0xffffffffffffffffffffffffffffffffffffffffffffffffffffffffffffff)\n      and\n      swap1\n      dup2\n      0x00\n      byte\n      swap1\n      mstore8\n      pop\n        /* \"https://github.com/OpenZeppelin/openzeppelin-contracts/blob/release-v4.9/contracts/utils/Strings.sol\":2141:2142  4 */\n      0x04\n        /* \"https://github.com/OpenZeppelin/openzeppelin-contracts/blob/release-v4.9/contracts/utils/Strings.sol\":2131:2142  value >>= 4 */\n      dup6\n      swap1\n      shr\n      swap5\n      pop\n        /* \"https://github.com/OpenZeppelin/openzeppelin-contracts/blob/release-v4.9/contracts/utils/Strings.sol\":2065:2068  --i */\n      dup1\n      tag_204\n      swap1\n      tag_205\n      jump\t// in\n    tag_204:\n      swap1\n      pop\n        /* \"https://github.com/OpenZeppelin/openzeppelin-contracts/blob/release-v4.9/contracts/utils/Strings.sol\":2025:2153  for (uint256 i = 2 * length + 1; i > 1; --i) {... */\n      jump(tag_195)\n    tag_196:\n      pop\n        /* \"https://github.com/OpenZeppelin/openzeppelin-contracts/blob/release-v4.9/contracts/utils/Strings.sol\":2179:2180  0 */\n      0x00\n        /* \"https://github.com/OpenZeppelin/openzeppelin-contracts/blob/release-v4.9/contracts/utils/Strings.sol\":2170:2175  value */\n      dup5\n        /* \"https://github.com/OpenZeppelin/openzeppelin-contracts/blob/release-v4.9/contracts/utils/Strings.sol\":2170:2180  value == 0 */\n      eq\n        /* \"https://github.com/OpenZeppelin/openzeppelin-contracts/blob/release-v4.9/contracts/utils/Strings.sol\":2162:2217  require(value == 0, \"Strings: hex length insufficient\") */\n      tag_206\n      jumpi\n      mload(0x40)\n      0x08c379a000000000000000000000000000000000000000000000000000000000\n      dup2\n      mstore\n      0x04\n      add\n      tag_207\n      swap1\n      tag_208\n      jump\t// in\n    tag_207:\n      mload(0x40)\n      dup1\n      swap2\n      sub\n      swap1\n      revert\n    tag_206:\n        /* \"https://github.com/OpenZeppelin/openzeppelin-contracts/blob/release-v4.9/contracts/utils/Strings.sol\":2241:2247  buffer */\n      dup1\n        /* \"https://github.com/OpenZeppelin/openzeppelin-contracts/blob/release-v4.9/contracts/utils/Strings.sol\":2227:2248  return string(buffer) */\n      swap2\n      pop\n      pop\n        /* \"https://github.com/OpenZeppelin/openzeppelin-contracts/blob/release-v4.9/contracts/utils/Strings.sol\":1818:2255  function toHexString(uint256 value, uint256 length) internal pure returns (string memory) {... */\n      swap3\n      swap2\n      pop\n      pop\n      jump\t// out\n    tag_128:\n      pop\n      dup1\n      sload\n      tag_209\n      swap1\n      tag_210\n      jump\t// in\n    tag_209:\n      0x00\n      dup3\n      sstore\n      dup1\n      0x1f\n      lt\n      tag_212\n      jumpi\n      pop\n      jump(tag_211)\n    tag_212:\n      0x1f\n      add\n      0x20\n      swap1\n      div\n      swap1\n      0x00\n      mstore\n      keccak256(0x00, 0x20)\n      swap1\n      dup2\n      add\n      swap1\n      tag_213\n      swap2\n      swap1\n      tag_214\n      jump\t// in\n    tag_213:\n    tag_211:\n      pop\n      jump\t// out\n    tag_214:\n    tag_215:\n      dup1\n      dup3\n      gt\n      iszero\n      tag_216\n      jumpi\n      0x00\n      dup2\n      0x00\n      swap1\n      sstore\n      pop\n      0x01\n      add\n      jump(tag_215)\n    tag_216:\n      pop\n      swap1\n      jump\t// out\n        /* \"#utility.yul\":7:82   */\n    tag_217:\n        /* \"#utility.yul\":40:46   */\n      0x00\n        /* \"#utility.yul\":73:75   */\n      0x40\n        /* \"#utility.yul\":67:76   */\n      mload\n        /* \"#utility.yul\":57:76   */\n      swap1\n      pop\n        /* \"#utility.yul\":7:82   */\n      swap1\n      jump\t// out\n        /* \"#utility.yul\":88:205   */\n    tag_218:\n        /* \"#utility.yul\":197:198   */\n      0x00\n        /* \"#utility.yul\":194:195   */\n      dup1\n        /* \"#utility.yul\":187:199   */\n      revert\n        /* \"#utility.yul\":211:328   */\n    tag_219:\n        /* \"#utility.yul\":320:321   */\n      0x00\n        /* \"#utility.yul\":317:318   */\n      dup1\n        /* \"#utility.yul\":310:322   */\n      revert\n        /* \"#utility.yul\":334:483   */\n    tag_220:\n        /* \"#utility.yul\":370:377   */\n      0x00\n        /* \"#utility.yul\":410:476   */\n      0xffffffff00000000000000000000000000000000000000000000000000000000\n        /* \"#utility.yul\":403:408   */\n      dup3\n        /* \"#utility.yul\":399:477   */\n      and\n        /* \"#utility.yul\":388:477   */\n      swap1\n      pop\n        /* \"#utility.yul\":334:483   */\n      swap2\n      swap1\n      pop\n      jump\t// out\n        /* \"#utility.yul\":489:609   */\n    tag_221:\n        /* \"#utility.yul\":561:584   */\n      tag_288\n        /* \"#utility.yul\":578:583   */\n      dup2\n        /* \"#utility.yul\":561:584   */\n      tag_220\n      jump\t// in\n    tag_288:\n        /* \"#utility.yul\":554:559   */\n      dup2\n        /* \"#utility.yul\":551:585   */\n      eq\n        /* \"#utility.yul\":541:603   */\n      tag_289\n      jumpi\n        /* \"#utility.yul\":599:600   */\n      0x00\n        /* \"#utility.yul\":596:597   */\n      dup1\n        /* \"#utility.yul\":589:601   */\n      revert\n        /* \"#utility.yul\":541:603   */\n    tag_289:\n        /* \"#utility.yul\":489:609   */\n      pop\n      jump\t// out\n        /* \"#utility.yul\":615:752   */\n    tag_222:\n        /* \"#utility.yul\":660:665   */\n      0x00\n        /* \"#utility.yul\":698:704   */\n      dup2\n        /* \"#utility.yul\":685:705   */\n      calldataload\n        /* \"#utility.yul\":676:705   */\n      swap1\n      pop\n        /* \"#utility.yul\":714:746   */\n      tag_291\n        /* \"#utility.yul\":740:745   */\n      dup2\n        /* \"#utility.yul\":714:746   */\n      tag_221\n      jump\t// in\n    tag_291:\n        /* \"#utility.yul\":615:752   */\n      swap3\n      swap2\n      pop\n      pop\n      jump\t// out\n        /* \"#utility.yul\":758:1085   */\n    tag_17:\n        /* \"#utility.yul\":816:822   */\n      0x00\n        /* \"#utility.yul\":865:867   */\n      0x20\n        /* \"#utility.yul\":853:862   */\n      dup3\n        /* \"#utility.yul\":844:851   */\n      dup5\n        /* \"#utility.yul\":840:863   */\n      sub\n        /* \"#utility.yul\":836:868   */\n      slt\n        /* \"#utility.yul\":833:952   */\n      iszero\n      tag_293\n      jumpi\n        /* \"#utility.yul\":871:950   */\n      tag_294\n      tag_218\n      jump\t// in\n    tag_294:\n        /* \"#utility.yul\":833:952   */\n    tag_293:\n        /* \"#utility.yul\":991:992   */\n      0x00\n        /* \"#utility.yul\":1016:1068   */\n      tag_295\n        /* \"#utility.yul\":1060:1067   */\n      dup5\n        /* \"#utility.yul\":1051:1057   */\n      dup3\n        /* \"#utility.yul\":1040:1049   */\n      dup6\n        /* \"#utility.yul\":1036:1058   */\n      add\n        /* \"#utility.yul\":1016:1068   */\n      tag_222\n      jump\t// in\n    tag_295:\n        /* \"#utility.yul\":1006:1068   */\n      swap2\n      pop\n        /* \"#utility.yul\":962:1078   */\n      pop\n        /* \"#utility.yul\":758:1085   */\n      swap3\n      swap2\n      pop\n      pop\n      jump\t// out\n        /* \"#utility.yul\":1091:1181   */\n    tag_223:\n        /* \"#utility.yul\":1125:1132   */\n      0x00\n        /* \"#utility.yul\":1168:1173   */\n      dup2\n        /* \"#utility.yul\":1161:1174   */\n      iszero\n        /* \"#utility.yul\":1154:1175   */\n      iszero\n        /* \"#utility.yul\":1143:1175   */\n      swap1\n      pop\n        /* \"#utility.yul\":1091:1181   */\n      swap2\n      swap1\n      pop\n      jump\t// out\n        /* \"#utility.yul\":1187:1296   */\n    tag_224:\n        /* \"#utility.yul\":1268:1289   */\n      tag_298\n        /* \"#utility.yul\":1283:1288   */\n      dup2\n        /* \"#utility.yul\":1268:1289   */\n      tag_223\n      jump\t// in\n    tag_298:\n        /* \"#utility.yul\":1263:1266   */\n      dup3\n        /* \"#utility.yul\":1256:1290   */\n      mstore\n        /* \"#utility.yul\":1187:1296   */\n      pop\n      pop\n      jump\t// out\n        /* \"#utility.yul\":1302:1512   */\n    tag_20:\n        /* \"#utility.yul\":1389:1393   */\n      0x00\n        /* \"#utility.yul\":1427:1429   */\n      0x20\n        /* \"#utility.yul\":1416:1425   */\n      dup3\n        /* \"#utility.yul\":1412:1430   */\n      add\n        /* \"#utility.yul\":1404:1430   */\n      swap1\n      pop\n        /* \"#utility.yul\":1440:1505   */\n      tag_300\n        /* \"#utility.yul\":1502:1503   */\n      0x00\n        /* \"#utility.yul\":1491:1500   */\n      dup4\n        /* \"#utility.yul\":1487:1504   */\n      add\n        /* \"#utility.yul\":1478:1484   */\n      dup5\n        /* \"#utility.yul\":1440:1505   */\n      tag_224\n      jump\t// in\n    tag_300:\n        /* \"#utility.yul\":1302:1512   */\n      swap3\n      swap2\n      pop\n      pop\n      jump\t// out\n        /* \"#utility.yul\":1518:1595   */\n    tag_225:\n        /* \"#utility.yul\":1555:1562   */\n      0x00\n        /* \"#utility.yul\":1584:1589   */\n      dup2\n        /* \"#utility.yul\":1573:1589   */\n      swap1\n      pop\n        /* \"#utility.yul\":1518:1595   */\n      swap2\n      swap1\n      pop\n      jump\t// out\n        /* \"#utility.yul\":1601:1723   */\n    tag_226:\n        /* \"#utility.yul\":1674:1698   */\n      tag_303\n        /* \"#utility.yul\":1692:1697   */\n      dup2\n        /* \"#utility.yul\":1674:1698   */\n      tag_225\n      jump\t// in\n    tag_303:\n        /* \"#utility.yul\":1667:1672   */\n      dup2\n        /* \"#utility.yul\":1664:1699   */\n      eq\n        /* \"#utility.yul\":1654:1717   */\n      tag_304\n      jumpi\n        /* \"#utility.yul\":1713:1714   */\n      0x00\n        /* \"#utility.yul\":1710:1711   */\n      dup1\n        /* \"#utility.yul\":1703:1715   */\n      revert\n        /* \"#utility.yul\":1654:1717   */\n    tag_304:\n        /* \"#utility.yul\":1601:1723   */\n      pop\n      jump\t// out\n        /* \"#utility.yul\":1729:1868   */\n    tag_227:\n        /* \"#utility.yul\":1775:1780   */\n      0x00\n        /* \"#utility.yul\":1813:1819   */\n      dup2\n        /* \"#utility.yul\":1800:1820   */\n      calldataload\n        /* \"#utility.yul\":1791:1820   */\n      swap1\n      pop\n        /* \"#utility.yul\":1829:1862   */\n      tag_306\n        /* \"#utility.yul\":1856:1861   */\n      dup2\n        /* \"#utility.yul\":1829:1862   */\n      tag_226\n      jump\t// in\n    tag_306:\n        /* \"#utility.yul\":1729:1868   */\n      swap3\n      swap2\n      pop\n      pop\n      jump\t// out\n        /* \"#utility.yul\":1874:2203   */\n    tag_23:\n        /* \"#utility.yul\":1933:1939   */\n      0x00\n        /* \"#utility.yul\":1982:1984   */\n      0x20\n        /* \"#utility.yul\":1970:1979   */\n      dup3\n        /* \"#utility.yul\":1961:1968   */\n      dup5\n        /* \"#utility.yul\":1957:1980   */\n      sub\n        /* \"#utility.yul\":1953:1985   */\n      slt\n        /* \"#utility.yul\":1950:2069   */\n      iszero\n      tag_308\n      jumpi\n        /* \"#utility.yul\":1988:2067   */\n      tag_309\n      tag_218\n      jump\t// in\n    tag_309:\n        /* \"#utility.yul\":1950:2069   */\n    tag_308:\n        /* \"#utility.yul\":2108:2109   */\n      0x00\n        /* \"#utility.yul\":2133:2186   */\n      tag_310\n        /* \"#utility.yul\":2178:2185   */\n      dup5\n        /* \"#utility.yul\":2169:2175   */\n      dup3\n        /* \"#utility.yul\":2158:2167   */\n      dup6\n        /* \"#utility.yul\":2154:2176   */\n      add\n        /* \"#utility.yul\":2133:2186   */\n      tag_227\n      jump\t// in\n    tag_310:\n        /* \"#utility.yul\":2123:2186   */\n      swap2\n      pop\n        /* \"#utility.yul\":2079:2196   */\n      pop\n        /* \"#utility.yul\":1874:2203   */\n      swap3\n      swap2\n      pop\n      pop\n      jump\t// out\n        /* \"#utility.yul\":2209:2327   */\n    tag_228:\n        /* \"#utility.yul\":2296:2320   */\n      tag_312\n        /* \"#utility.yul\":2314:2319   */\n      dup2\n        /* \"#utility.yul\":2296:2320   */\n      tag_225\n      jump\t// in\n    tag_312:\n        /* \"#utility.yul\":2291:2294   */\n      dup3\n        /* \"#utility.yul\":2284:2321   */\n      mstore\n        /* \"#utility.yul\":2209:2327   */\n      pop\n      pop\n      jump\t// out\n        /* \"#utility.yul\":2333:2555   */\n    tag_26:\n        /* \"#utility.yul\":2426:2430   */\n      0x00\n        /* \"#utility.yul\":2464:2466   */\n      0x20\n        /* \"#utility.yul\":2453:2462   */\n      dup3\n        /* \"#utility.yul\":2449:2467   */\n      add\n        /* \"#utility.yul\":2441:2467   */\n      swap1\n      pop\n        /* \"#utility.yul\":2477:2548   */\n      tag_314\n        /* \"#utility.yul\":2545:2546   */\n      0x00\n        /* \"#utility.yul\":2534:2543   */\n      dup4\n        /* \"#utility.yul\":2530:2547   */\n      add\n        /* \"#utility.yul\":2521:2527   */\n      dup5\n        /* \"#utility.yul\":2477:2548   */\n      tag_228\n      jump\t// in\n    tag_314:\n        /* \"#utility.yul\":2333:2555   */\n      swap3\n      swap2\n      pop\n      pop\n      jump\t// out\n        /* \"#utility.yul\":2561:2687   */\n    tag_229:\n        /* \"#utility.yul\":2598:2605   */\n      0x00\n        /* \"#utility.yul\":2638:2680   */\n      0xffffffffffffffffffffffffffffffffffffffff\n        /* \"#utility.yul\":2631:2636   */\n      dup3\n        /* \"#utility.yul\":2627:2681   */\n      and\n        /* \"#utility.yul\":2616:2681   */\n      swap1\n      pop\n        /* \"#utility.yul\":2561:2687   */\n      swap2\n      swap1\n      pop\n      jump\t// out\n        /* \"#utility.yul\":2693:2789   */\n    tag_230:\n        /* \"#utility.yul\":2730:2737   */\n      0x00\n        /* \"#utility.yul\":2759:2783   */\n      tag_317\n        /* \"#utility.yul\":2777:2782   */\n      dup3\n        /* \"#utility.yul\":2759:2783   */\n      tag_229\n      jump\t// in\n    tag_317:\n        /* \"#utility.yul\":2748:2783   */\n      swap1\n      pop\n        /* \"#utility.yul\":2693:2789   */\n      swap2\n      swap1\n      pop\n      jump\t// out\n        /* \"#utility.yul\":2795:2917   */\n    tag_231:\n        /* \"#utility.yul\":2868:2892   */\n      tag_319\n        /* \"#utility.yul\":2886:2891   */\n      dup2\n        /* \"#utility.yul\":2868:2892   */\n      tag_230\n      jump\t// in\n    tag_319:\n        /* \"#utility.yul\":2861:2866   */\n      dup2\n        /* \"#utility.yul\":2858:2893   */\n      eq\n        /* \"#utility.yul\":2848:2911   */\n      tag_320\n      jumpi\n        /* \"#utility.yul\":2907:2908   */\n      0x00\n        /* \"#utility.yul\":2904:2905   */\n      dup1\n        /* \"#utility.yul\":2897:2909   */\n      revert\n        /* \"#utility.yul\":2848:2911   */\n    tag_320:\n        /* \"#utility.yul\":2795:2917   */\n      pop\n      jump\t// out\n        /* \"#utility.yul\":2923:3062   */\n    tag_232:\n        /* \"#utility.yul\":2969:2974   */\n      0x00\n        /* \"#utility.yul\":3007:3013   */\n      dup2\n        /* \"#utility.yul\":2994:3014   */\n      calldataload\n        /* \"#utility.yul\":2985:3014   */\n      swap1\n      pop\n        /* \"#utility.yul\":3023:3056   */\n      tag_322\n        /* \"#utility.yul\":3050:3055   */\n      dup2\n        /* \"#utility.yul\":3023:3056   */\n      tag_231\n      jump\t// in\n    tag_322:\n        /* \"#utility.yul\":2923:3062   */\n      swap3\n      swap2\n      pop\n      pop\n      jump\t// out\n        /* \"#utility.yul\":3068:3542   */\n    tag_29:\n        /* \"#utility.yul\":3136:3142   */\n      0x00\n        /* \"#utility.yul\":3144:3150   */\n      dup1\n        /* \"#utility.yul\":3193:3195   */\n      0x40\n        /* \"#utility.yul\":3181:3190   */\n      dup4\n        /* \"#utility.yul\":3172:3179   */\n      dup6\n        /* \"#utility.yul\":3168:3191   */\n      sub\n        /* \"#utility.yul\":3164:3196   */\n      slt\n        /* \"#utility.yul\":3161:3280   */\n      iszero\n      tag_324\n      jumpi\n        /* \"#utility.yul\":3199:3278   */\n      tag_325\n      tag_218\n      jump\t// in\n    tag_325:\n        /* \"#utility.yul\":3161:3280   */\n    tag_324:\n        /* \"#utility.yul\":3319:3320   */\n      0x00\n        /* \"#utility.yul\":3344:3397   */\n      tag_326\n        /* \"#utility.yul\":3389:3396   */\n      dup6\n        /* \"#utility.yul\":3380:3386   */\n      dup3\n        /* \"#utility.yul\":3369:3378   */\n      dup7\n        /* \"#utility.yul\":3365:3387   */\n      add\n        /* \"#utility.yul\":3344:3397   */\n      tag_227\n      jump\t// in\n    tag_326:\n        /* \"#utility.yul\":3334:3397   */\n      swap3\n      pop\n        /* \"#utility.yul\":3290:3407   */\n      pop\n        /* \"#utility.yul\":3446:3448   */\n      0x20\n        /* \"#utility.yul\":3472:3525   */\n      tag_327\n        /* \"#utility.yul\":3517:3524   */\n      dup6\n        /* \"#utility.yul\":3508:3514   */\n      dup3\n        /* \"#utility.yul\":3497:3506   */\n      dup7\n        /* \"#utility.yul\":3493:3515   */\n      add\n        /* \"#utility.yul\":3472:3525   */\n      tag_232\n      jump\t// in\n    tag_327:\n        /* \"#utility.yul\":3462:3525   */\n      swap2\n      pop\n        /* \"#utility.yul\":3417:3535   */\n      pop\n        /* \"#utility.yul\":3068:3542   */\n      swap3\n      pop\n      swap3\n      swap1\n      pop\n      jump\t// out\n        /* \"#utility.yul\":3548:3877   */\n    tag_33:\n        /* \"#utility.yul\":3607:3613   */\n      0x00\n        /* \"#utility.yul\":3656:3658   */\n      0x20\n        /* \"#utility.yul\":3644:3653   */\n      dup3\n        /* \"#utility.yul\":3635:3642   */\n      dup5\n        /* \"#utility.yul\":3631:3654   */\n      sub\n        /* \"#utility.yul\":3627:3659   */\n      slt\n        /* \"#utility.yul\":3624:3743   */\n      iszero\n      tag_329\n      jumpi\n        /* \"#utility.yul\":3662:3741   */\n      tag_330\n      tag_218\n      jump\t// in\n    tag_330:\n        /* \"#utility.yul\":3624:3743   */\n    tag_329:\n        /* \"#utility.yul\":3782:3783   */\n      0x00\n        /* \"#utility.yul\":3807:3860   */\n      tag_331\n        /* \"#utility.yul\":3852:3859   */\n      dup5\n        /* \"#utility.yul\":3843:3849   */\n      dup3\n        /* \"#utility.yul\":3832:3841   */\n      dup6\n        /* \"#utility.yul\":3828:3850   */\n      add\n        /* \"#utility.yul\":3807:3860   */\n      tag_232\n      jump\t// in\n    tag_331:\n        /* \"#utility.yul\":3797:3860   */\n      swap2\n      pop\n        /* \"#utility.yul\":3753:3870   */\n      pop\n        /* \"#utility.yul\":3548:3877   */\n      swap3\n      swap2\n      pop\n      pop\n      jump\t// out\n        /* \"#utility.yul\":3883:4001   */\n    tag_233:\n        /* \"#utility.yul\":3970:3994   */\n      tag_333\n        /* \"#utility.yul\":3988:3993   */\n      dup2\n        /* \"#utility.yul\":3970:3994   */\n      tag_230\n      jump\t// in\n    tag_333:\n        /* \"#utility.yul\":3965:3968   */\n      dup3\n        /* \"#utility.yul\":3958:3995   */\n      mstore\n        /* \"#utility.yul\":3883:4001   */\n      pop\n      pop\n      jump\t// out\n        /* \"#utility.yul\":4007:4229   */\n    tag_38:\n        /* \"#utility.yul\":4100:4104   */\n      0x00\n        /* \"#utility.yul\":4138:4140   */\n      0x20\n        /* \"#utility.yul\":4127:4136   */\n      dup3\n        /* \"#utility.yul\":4123:4141   */\n      add\n        /* \"#utility.yul\":4115:4141   */\n      swap1\n      pop\n        /* \"#utility.yul\":4151:4222   */\n      tag_335\n        /* \"#utility.yul\":4219:4220   */\n      0x00\n        /* \"#utility.yul\":4208:4217   */\n      dup4\n        /* \"#utility.yul\":4204:4221   */\n      add\n        /* \"#utility.yul\":4195:4201   */\n      dup5\n        /* \"#utility.yul\":4151:4222   */\n      tag_233\n      jump\t// in\n    tag_335:\n        /* \"#utility.yul\":4007:4229   */\n      swap3\n      swap2\n      pop\n      pop\n      jump\t// out\n        /* \"#utility.yul\":4235:4352   */\n    tag_234:\n        /* \"#utility.yul\":4344:4345   */\n      0x00\n        /* \"#utility.yul\":4341:4342   */\n      dup1\n        /* \"#utility.yul\":4334:4346   */\n      revert\n        /* \"#utility.yul\":4358:4475   */\n    tag_235:\n        /* \"#utility.yul\":4467:4468   */\n      0x00\n        /* \"#utility.yul\":4464:4465   */\n      dup1\n        /* \"#utility.yul\":4457:4469   */\n      revert\n        /* \"#utility.yul\":4481:4583   */\n    tag_236:\n        /* \"#utility.yul\":4522:4528   */\n      0x00\n        /* \"#utility.yul\":4573:4575   */\n      0x1f\n        /* \"#utility.yul\":4569:4576   */\n      not\n        /* \"#utility.yul\":4564:4566   */\n      0x1f\n        /* \"#utility.yul\":4557:4562   */\n      dup4\n        /* \"#utility.yul\":4553:4567   */\n      add\n        /* \"#utility.yul\":4549:4577   */\n      and\n        /* \"#utility.yul\":4539:4577   */\n      swap1\n      pop\n        /* \"#utility.yul\":4481:4583   */\n      swap2\n      swap1\n      pop\n      jump\t// out\n        /* \"#utility.yul\":4589:4769   */\n    tag_189:\n        /* \"#utility.yul\":4637:4714   */\n      0x4e487b7100000000000000000000000000000000000000000000000000000000\n        /* \"#utility.yul\":4634:4635   */\n      0x00\n        /* \"#utility.yul\":4627:4715   */\n      mstore\n        /* \"#utility.yul\":4734:4738   */\n      0x41\n        /* \"#utility.yul\":4731:4732   */\n      0x04\n        /* \"#utility.yul\":4724:4739   */\n      mstore\n        /* \"#utility.yul\":4758:4762   */\n      0x24\n        /* \"#utility.yul\":4755:4756   */\n      0x00\n        /* \"#utility.yul\":4748:4763   */\n      revert\n        /* \"#utility.yul\":4775:5056   */\n    tag_237:\n        /* \"#utility.yul\":4858:4885   */\n      tag_341\n        /* \"#utility.yul\":4880:4884   */\n      dup3\n        /* \"#utility.yul\":4858:4885   */\n      tag_236\n      jump\t// in\n    tag_341:\n        /* \"#utility.yul\":4850:4856   */\n      dup2\n        /* \"#utility.yul\":4846:4886   */\n      add\n        /* \"#utility.yul\":4988:4994   */\n      dup2\n        /* \"#utility.yul\":4976:4986   */\n      dup2\n        /* \"#utility.yul\":4973:4995   */\n      lt\n        /* \"#utility.yul\":4952:4970   */\n      0xffffffffffffffff\n        /* \"#utility.yul\":4940:4950   */\n      dup3\n        /* \"#utility.yul\":4937:4971   */\n      gt\n        /* \"#utility.yul\":4934:4996   */\n      or\n        /* \"#utility.yul\":4931:5019   */\n      iszero\n      tag_342\n      jumpi\n        /* \"#utility.yul\":4999:5017   */\n      tag_343\n      tag_189\n      jump\t// in\n    tag_343:\n        /* \"#utility.yul\":4931:5019   */\n    tag_342:\n        /* \"#utility.yul\":5039:5049   */\n      dup1\n        /* \"#utility.yul\":5035:5037   */\n      0x40\n        /* \"#utility.yul\":5028:5050   */\n      mstore\n        /* \"#utility.yul\":4818:5056   */\n      pop\n        /* \"#utility.yul\":4775:5056   */\n      pop\n      pop\n      jump\t// out\n        /* \"#utility.yul\":5062:5191   */\n    tag_238:\n        /* \"#utility.yul\":5096:5102   */\n      0x00\n        /* \"#utility.yul\":5123:5143   */\n      tag_345\n      tag_217\n      jump\t// in\n    tag_345:\n        /* \"#utility.yul\":5113:5143   */\n      swap1\n      pop\n        /* \"#utility.yul\":5152:5185   */\n      tag_346\n        /* \"#utility.yul\":5180:5184   */\n      dup3\n        /* \"#utility.yul\":5172:5178   */\n      dup3\n        /* \"#utility.yul\":5152:5185   */\n      tag_237\n      jump\t// in\n    tag_346:\n        /* \"#utility.yul\":5062:5191   */\n      swap2\n      swap1\n      pop\n      jump\t// out\n        /* \"#utility.yul\":5197:5505   */\n    tag_239:\n        /* \"#utility.yul\":5259:5263   */\n      0x00\n        /* \"#utility.yul\":5349:5367   */\n      0xffffffffffffffff\n        /* \"#utility.yul\":5341:5347   */\n      dup3\n        /* \"#utility.yul\":5338:5368   */\n      gt\n        /* \"#utility.yul\":5335:5391   */\n      iszero\n      tag_348\n      jumpi\n        /* \"#utility.yul\":5371:5389   */\n      tag_349\n      tag_189\n      jump\t// in\n    tag_349:\n        /* \"#utility.yul\":5335:5391   */\n    tag_348:\n        /* \"#utility.yul\":5409:5438   */\n      tag_350\n        /* \"#utility.yul\":5431:5437   */\n      dup3\n        /* \"#utility.yul\":5409:5438   */\n      tag_236\n      jump\t// in\n    tag_350:\n        /* \"#utility.yul\":5401:5438   */\n      swap1\n      pop\n        /* \"#utility.yul\":5493:5497   */\n      0x20\n        /* \"#utility.yul\":5487:5491   */\n      dup2\n        /* \"#utility.yul\":5483:5498   */\n      add\n        /* \"#utility.yul\":5475:5498   */\n      swap1\n      pop\n        /* \"#utility.yul\":5197:5505   */\n      swap2\n      swap1\n      pop\n      jump\t// out\n        /* \"#utility.yul\":5511:5657   */\n    tag_240:\n        /* \"#utility.yul\":5608:5614   */\n      dup3\n        /* \"#utility.yul\":5603:5606   */\n      dup2\n        /* \"#utility.yul\":5598:5601   */\n      dup4\n        /* \"#utility.yul\":5585:5615   */\n      calldatacopy\n        /* \"#utility.yul\":5649:5650   */\n      0x00\n        /* \"#utility.yul\":5640:5646   */\n      dup4\n        /* \"#utility.yul\":5635:5638   */\n      dup4\n        /* \"#utility.yul\":5631:5647   */\n      add\n        /* \"#utility.yul\":5624:5651   */\n      mstore\n        /* \"#utility.yul\":5511:5657   */\n      pop\n      pop\n      pop\n      jump\t// out\n        /* \"#utility.yul\":5663:6088   */\n    tag_241:\n        /* \"#utility.yul\":5741:5746   */\n      0x00\n        /* \"#utility.yul\":5766:5832   */\n      tag_353\n        /* \"#utility.yul\":5782:5831   */\n      tag_354\n        /* \"#utility.yul\":5824:5830   */\n      dup5\n        /* \"#utility.yul\":5782:5831   */\n      tag_239\n      jump\t// in\n    tag_354:\n        /* \"#utility.yul\":5766:5832   */\n      tag_238\n      jump\t// in\n    tag_353:\n        /* \"#utility.yul\":5757:5832   */\n      swap1\n      pop\n        /* \"#utility.yul\":5855:5861   */\n      dup3\n        /* \"#utility.yul\":5848:5853   */\n      dup2\n        /* \"#utility.yul\":5841:5862   */\n      mstore\n        /* \"#utility.yul\":5893:5897   */\n      0x20\n        /* \"#utility.yul\":5886:5891   */\n      dup2\n        /* \"#utility.yul\":5882:5898   */\n      add\n        /* \"#utility.yul\":5931:5934   */\n      dup5\n        /* \"#utility.yul\":5922:5928   */\n      dup5\n        /* \"#utility.yul\":5917:5920   */\n      dup5\n        /* \"#utility.yul\":5913:5929   */\n      add\n        /* \"#utility.yul\":5910:5935   */\n      gt\n        /* \"#utility.yul\":5907:6019   */\n      iszero\n      tag_355\n      jumpi\n        /* \"#utility.yul\":5938:6017   */\n      tag_356\n      tag_235\n      jump\t// in\n    tag_356:\n        /* \"#utility.yul\":5907:6019   */\n    tag_355:\n        /* \"#utility.yul\":6028:6082   */\n      tag_357\n        /* \"#utility.yul\":6075:6081   */\n      dup5\n        /* \"#utility.yul\":6070:6073   */\n      dup3\n        /* \"#utility.yul\":6065:6068   */\n      dup6\n        /* \"#utility.yul\":6028:6082   */\n      tag_240\n      jump\t// in\n    tag_357:\n        /* \"#utility.yul\":5747:6088   */\n      pop\n        /* \"#utility.yul\":5663:6088   */\n      swap4\n      swap3\n      pop\n      pop\n      pop\n      jump\t// out\n        /* \"#utility.yul\":6108:6448   */\n    tag_242:\n        /* \"#utility.yul\":6164:6169   */\n      0x00\n        /* \"#utility.yul\":6213:6216   */\n      dup3\n        /* \"#utility.yul\":6206:6210   */\n      0x1f\n        /* \"#utility.yul\":6198:6204   */\n      dup4\n        /* \"#utility.yul\":6194:6211   */\n      add\n        /* \"#utility.yul\":6190:6217   */\n      slt\n        /* \"#utility.yul\":6180:6302   */\n      tag_359\n      jumpi\n        /* \"#utility.yul\":6221:6300   */\n      tag_360\n      tag_234\n      jump\t// in\n    tag_360:\n        /* \"#utility.yul\":6180:6302   */\n    tag_359:\n        /* \"#utility.yul\":6338:6344   */\n      dup2\n        /* \"#utility.yul\":6325:6345   */\n      calldataload\n        /* \"#utility.yul\":6363:6442   */\n      tag_361\n        /* \"#utility.yul\":6438:6441   */\n      dup5\n        /* \"#utility.yul\":6430:6436   */\n      dup3\n        /* \"#utility.yul\":6423:6427   */\n      0x20\n        /* \"#utility.yul\":6415:6421   */\n      dup7\n        /* \"#utility.yul\":6411:6428   */\n      add\n        /* \"#utility.yul\":6363:6442   */\n      tag_241\n      jump\t// in\n    tag_361:\n        /* \"#utility.yul\":6354:6442   */\n      swap2\n      pop\n        /* \"#utility.yul\":6170:6448   */\n      pop\n        /* \"#utility.yul\":6108:6448   */\n      swap3\n      swap2\n      pop\n      pop\n      jump\t// out\n        /* \"#utility.yul\":6454:6963   */\n    tag_48:\n        /* \"#utility.yul\":6523:6529   */\n      0x00\n        /* \"#utility.yul\":6572:6574   */\n      0x20\n        /* \"#utility.yul\":6560:6569   */\n      dup3\n        /* \"#utility.yul\":6551:6558   */\n      dup5\n        /* \"#utility.yul\":6547:6570   */\n      sub\n        /* \"#utility.yul\":6543:6575   */\n      slt\n        /* \"#utility.yul\":6540:6659   */\n      iszero\n      tag_363\n      jumpi\n        /* \"#utility.yul\":6578:6657   */\n      tag_364\n      tag_218\n      jump\t// in\n    tag_364:\n        /* \"#utility.yul\":6540:6659   */\n    tag_363:\n        /* \"#utility.yul\":6726:6727   */\n      0x00\n        /* \"#utility.yul\":6715:6724   */\n      dup3\n        /* \"#utility.yul\":6711:6728   */\n      add\n        /* \"#utility.yul\":6698:6729   */\n      calldataload\n        /* \"#utility.yul\":6756:6774   */\n      0xffffffffffffffff\n        /* \"#utility.yul\":6748:6754   */\n      dup2\n        /* \"#utility.yul\":6745:6775   */\n      gt\n        /* \"#utility.yul\":6742:6859   */\n      iszero\n      tag_365\n      jumpi\n        /* \"#utility.yul\":6778:6857   */\n      tag_366\n      tag_219\n      jump\t// in\n    tag_366:\n        /* \"#utility.yul\":6742:6859   */\n    tag_365:\n        /* \"#utility.yul\":6883:6946   */\n      tag_367\n        /* \"#utility.yul\":6938:6945   */\n      dup5\n        /* \"#utility.yul\":6929:6935   */\n      dup3\n        /* \"#utility.yul\":6918:6927   */\n      dup6\n        /* \"#utility.yul\":6914:6936   */\n      add\n        /* \"#utility.yul\":6883:6946   */\n      tag_242\n      jump\t// in\n    tag_367:\n        /* \"#utility.yul\":6873:6946   */\n      swap2\n      pop\n        /* \"#utility.yul\":6669:6956   */\n      pop\n        /* \"#utility.yul\":6454:6963   */\n      swap3\n      swap2\n      pop\n      pop\n      jump\t// out\n        /* \"#utility.yul\":6969:7623   */\n    tag_56:\n        /* \"#utility.yul\":7047:7053   */\n      0x00\n        /* \"#utility.yul\":7055:7061   */\n      dup1\n        /* \"#utility.yul\":7104:7106   */\n      0x40\n        /* \"#utility.yul\":7092:7101   */\n      dup4\n        /* \"#utility.yul\":7083:7090   */\n      dup6\n        /* \"#utility.yul\":7079:7102   */\n      sub\n        /* \"#utility.yul\":7075:7107   */\n      slt\n        /* \"#utility.yul\":7072:7191   */\n      iszero\n      tag_369\n      jumpi\n        /* \"#utility.yul\":7110:7189   */\n      tag_370\n      tag_218\n      jump\t// in\n    tag_370:\n        /* \"#utility.yul\":7072:7191   */\n    tag_369:\n        /* \"#utility.yul\":7230:7231   */\n      0x00\n        /* \"#utility.yul\":7255:7308   */\n      tag_371\n        /* \"#utility.yul\":7300:7307   */\n      dup6\n        /* \"#utility.yul\":7291:7297   */\n      dup3\n        /* \"#utility.yul\":7280:7289   */\n      dup7\n        /* \"#utility.yul\":7276:7298   */\n      add\n        /* \"#utility.yul\":7255:7308   */\n      tag_232\n      jump\t// in\n    tag_371:\n        /* \"#utility.yul\":7245:7308   */\n      swap3\n      pop\n        /* \"#utility.yul\":7201:7318   */\n      pop\n        /* \"#utility.yul\":7385:7387   */\n      0x20\n        /* \"#utility.yul\":7374:7383   */\n      dup4\n        /* \"#utility.yul\":7370:7388   */\n      add\n        /* \"#utility.yul\":7357:7389   */\n      calldataload\n        /* \"#utility.yul\":7416:7434   */\n      0xffffffffffffffff\n        /* \"#utility.yul\":7408:7414   */\n      dup2\n        /* \"#utility.yul\":7405:7435   */\n      gt\n        /* \"#utility.yul\":7402:7519   */\n      iszero\n      tag_372\n      jumpi\n        /* \"#utility.yul\":7438:7517   */\n      tag_373\n      tag_219\n      jump\t// in\n    tag_373:\n        /* \"#utility.yul\":7402:7519   */\n    tag_372:\n        /* \"#utility.yul\":7543:7606   */\n      tag_374\n        /* \"#utility.yul\":7598:7605   */\n      dup6\n        /* \"#utility.yul\":7589:7595   */\n      dup3\n        /* \"#utility.yul\":7578:7587   */\n      dup7\n        /* \"#utility.yul\":7574:7596   */\n      add\n        /* \"#utility.yul\":7543:7606   */\n      tag_242\n      jump\t// in\n    tag_374:\n        /* \"#utility.yul\":7533:7606   */\n      swap2\n      pop\n        /* \"#utility.yul\":7328:7616   */\n      pop\n        /* \"#utility.yul\":6969:7623   */\n      swap3\n      pop\n      swap3\n      swap1\n      pop\n      jump\t// out\n        /* \"#utility.yul\":7629:7798   */\n    tag_243:\n        /* \"#utility.yul\":7713:7724   */\n      0x00\n        /* \"#utility.yul\":7747:7753   */\n      dup3\n        /* \"#utility.yul\":7742:7745   */\n      dup3\n        /* \"#utility.yul\":7735:7754   */\n      mstore\n        /* \"#utility.yul\":7787:7791   */\n      0x20\n        /* \"#utility.yul\":7782:7785   */\n      dup3\n        /* \"#utility.yul\":7778:7792   */\n      add\n        /* \"#utility.yul\":7763:7792   */\n      swap1\n      pop\n        /* \"#utility.yul\":7629:7798   */\n      swap3\n      swap2\n      pop\n      pop\n      jump\t// out\n        /* \"#utility.yul\":7804:8038   */\n    tag_244:\n        /* \"#utility.yul\":7944:7978   */\n      0x416363657373436f6e74726f6c3a2063616e206f6e6c792072656e6f756e6365\n        /* \"#utility.yul\":7940:7941   */\n      0x00\n        /* \"#utility.yul\":7932:7938   */\n      dup3\n        /* \"#utility.yul\":7928:7942   */\n      add\n        /* \"#utility.yul\":7921:7979   */\n      mstore\n        /* \"#utility.yul\":8013:8030   */\n      0x20726f6c657320666f722073656c660000000000000000000000000000000000\n        /* \"#utility.yul\":8008:8010   */\n      0x20\n        /* \"#utility.yul\":8000:8006   */\n      dup3\n        /* \"#utility.yul\":7996:8011   */\n      add\n        /* \"#utility.yul\":7989:8031   */\n      mstore\n        /* \"#utility.yul\":7804:8038   */\n      pop\n      jump\t// out\n        /* \"#utility.yul\":8044:8410   */\n    tag_245:\n        /* \"#utility.yul\":8186:8189   */\n      0x00\n        /* \"#utility.yul\":8207:8274   */\n      tag_378\n        /* \"#utility.yul\":8271:8273   */\n      0x2f\n        /* \"#utility.yul\":8266:8269   */\n      dup4\n        /* \"#utility.yul\":8207:8274   */\n      tag_243\n      jump\t// in\n    tag_378:\n        /* \"#utility.yul\":8200:8274   */\n      swap2\n      pop\n        /* \"#utility.yul\":8283:8376   */\n      tag_379\n        /* \"#utility.yul\":8372:8375   */\n      dup3\n        /* \"#utility.yul\":8283:8376   */\n      tag_244\n      jump\t// in\n    tag_379:\n        /* \"#utility.yul\":8401:8403   */\n      0x40\n        /* \"#utility.yul\":8396:8399   */\n      dup3\n        /* \"#utility.yul\":8392:8404   */\n      add\n        /* \"#utility.yul\":8385:8404   */\n      swap1\n      pop\n        /* \"#utility.yul\":8044:8410   */\n      swap2\n      swap1\n      pop\n      jump\t// out\n        /* \"#utility.yul\":8416:8835   */\n    tag_66:\n        /* \"#utility.yul\":8582:8586   */\n      0x00\n        /* \"#utility.yul\":8620:8622   */\n      0x20\n        /* \"#utility.yul\":8609:8618   */\n      dup3\n        /* \"#utility.yul\":8605:8623   */\n      add\n        /* \"#utility.yul\":8597:8623   */\n      swap1\n      pop\n        /* \"#utility.yul\":8669:8678   */\n      dup2\n        /* \"#utility.yul\":8663:8667   */\n      dup2\n        /* \"#utility.yul\":8659:8679   */\n      sub\n        /* \"#utility.yul\":8655:8656   */\n      0x00\n        /* \"#utility.yul\":8644:8653   */\n      dup4\n        /* \"#utility.yul\":8640:8657   */\n      add\n        /* \"#utility.yul\":8633:8680   */\n      mstore\n        /* \"#utility.yul\":8697:8828   */\n      tag_381\n        /* \"#utility.yul\":8823:8827   */\n      dup2\n        /* \"#utility.yul\":8697:8828   */\n      tag_245\n      jump\t// in\n    tag_381:\n        /* \"#utility.yul\":8689:8828   */\n      swap1\n      pop\n        /* \"#utility.yul\":8416:8835   */\n      swap2\n      swap1\n      pop\n      jump\t// out\n        /* \"#utility.yul\":8841:9066   */\n    tag_246:\n        /* \"#utility.yul\":8981:9015   */\n      0x4f776e61626c653a206e6577206f776e657220697320746865207a65726f2061\n        /* \"#utility.yul\":8977:8978   */\n      0x00\n        /* \"#utility.yul\":8969:8975   */\n      dup3\n        /* \"#utility.yul\":8965:8979   */\n      add\n        /* \"#utility.yul\":8958:9016   */\n      mstore\n        /* \"#utility.yul\":9050:9058   */\n      0x6464726573730000000000000000000000000000000000000000000000000000\n        /* \"#utility.yul\":9045:9047   */\n      0x20\n        /* \"#utility.yul\":9037:9043   */\n      dup3\n        /* \"#utility.yul\":9033:9048   */\n      add\n        /* \"#utility.yul\":9026:9059   */\n      mstore\n        /* \"#utility.yul\":8841:9066   */\n      pop\n      jump\t// out\n        /* \"#utility.yul\":9072:9438   */\n    tag_247:\n        /* \"#utility.yul\":9214:9217   */\n      0x00\n        /* \"#utility.yul\":9235:9302   */\n      tag_384\n        /* \"#utility.yul\":9299:9301   */\n      0x26\n        /* \"#utility.yul\":9294:9297   */\n      dup4\n        /* \"#utility.yul\":9235:9302   */\n      tag_243\n      jump\t// in\n    tag_384:\n        /* \"#utility.yul\":9228:9302   */\n      swap2\n      pop\n        /* \"#utility.yul\":9311:9404   */\n      tag_385\n        /* \"#utility.yul\":9400:9403   */\n      dup3\n        /* \"#utility.yul\":9311:9404   */\n      tag_246\n      jump\t// in\n    tag_385:\n        /* \"#utility.yul\":9429:9431   */\n      0x40\n        /* \"#utility.yul\":9424:9427   */\n      dup3\n        /* \"#utility.yul\":9420:9432   */\n      add\n        /* \"#utility.yul\":9413:9432   */\n      swap1\n      pop\n        /* \"#utility.yul\":9072:9438   */\n      swap2\n      swap1\n      pop\n      jump\t// out\n        /* \"#utility.yul\":9444:9863   */\n    tag_86:\n        /* \"#utility.yul\":9610:9614   */\n      0x00\n        /* \"#utility.yul\":9648:9650   */\n      0x20\n        /* \"#utility.yul\":9637:9646   */\n      dup3\n        /* \"#utility.yul\":9633:9651   */\n      add\n        /* \"#utility.yul\":9625:9651   */\n      swap1\n      pop\n        /* \"#utility.yul\":9697:9706   */\n      dup2\n        /* \"#utility.yul\":9691:9695   */\n      dup2\n        /* \"#utility.yul\":9687:9707   */\n      sub\n        /* \"#utility.yul\":9683:9684   */\n      0x00\n        /* \"#utility.yul\":9672:9681   */\n      dup4\n        /* \"#utility.yul\":9668:9685   */\n      add\n        /* \"#utility.yul\":9661:9708   */\n      mstore\n        /* \"#utility.yul\":9725:9856   */\n      tag_387\n        /* \"#utility.yul\":9851:9855   */\n      dup2\n        /* \"#utility.yul\":9725:9856   */\n      tag_247\n      jump\t// in\n    tag_387:\n        /* \"#utility.yul\":9717:9856   */\n      swap1\n      pop\n        /* \"#utility.yul\":9444:9863   */\n      swap2\n      swap1\n      pop\n      jump\t// out\n        /* \"#utility.yul\":9869:9946   */\n    tag_248:\n        /* \"#utility.yul\":9906:9913   */\n      0x00\n        /* \"#utility.yul\":9935:9940   */\n      dup2\n        /* \"#utility.yul\":9924:9940   */\n      swap1\n      pop\n        /* \"#utility.yul\":9869:9946   */\n      swap2\n      swap1\n      pop\n      jump\t// out\n        /* \"#utility.yul\":9952:10132   */\n    tag_249:\n        /* \"#utility.yul\":10000:10077   */\n      0x4e487b7100000000000000000000000000000000000000000000000000000000\n        /* \"#utility.yul\":9997:9998   */\n      0x00\n        /* \"#utility.yul\":9990:10078   */\n      mstore\n        /* \"#utility.yul\":10097:10101   */\n      0x11\n        /* \"#utility.yul\":10094:10095   */\n      0x04\n        /* \"#utility.yul\":10087:10102   */\n      mstore\n        /* \"#utility.yul\":10121:10125   */\n      0x24\n        /* \"#utility.yul\":10118:10119   */\n      0x00\n        /* \"#utility.yul\":10111:10126   */\n      revert\n        /* \"#utility.yul\":10138:10332   */\n    tag_99:\n        /* \"#utility.yul\":10178:10182   */\n      0x00\n        /* \"#utility.yul\":10198:10218   */\n      tag_391\n        /* \"#utility.yul\":10216:10217   */\n      dup3\n        /* \"#utility.yul\":10198:10218   */\n      tag_248\n      jump\t// in\n    tag_391:\n        /* \"#utility.yul\":10193:10218   */\n      swap2\n      pop\n        /* \"#utility.yul\":10232:10252   */\n      tag_392\n        /* \"#utility.yul\":10250:10251   */\n      dup4\n        /* \"#utility.yul\":10232:10252   */\n      tag_248\n      jump\t// in\n    tag_392:\n        /* \"#utility.yul\":10227:10252   */\n      swap3\n      pop\n        /* \"#utility.yul\":10276:10277   */\n      dup3\n        /* \"#utility.yul\":10273:10274   */\n      dup3\n        /* \"#utility.yul\":10269:10278   */\n      sub\n        /* \"#utility.yul\":10261:10278   */\n      swap1\n      pop\n        /* \"#utility.yul\":10300:10301   */\n      dup2\n        /* \"#utility.yul\":10294:10298   */\n      dup2\n        /* \"#utility.yul\":10291:10302   */\n      gt\n        /* \"#utility.yul\":10288:10325   */\n      iszero\n      tag_393\n      jumpi\n        /* \"#utility.yul\":10305:10323   */\n      tag_394\n      tag_249\n      jump\t// in\n    tag_394:\n        /* \"#utility.yul\":10288:10325   */\n    tag_393:\n        /* \"#utility.yul\":10138:10332   */\n      swap3\n      swap2\n      pop\n      pop\n      jump\t// out\n        /* \"#utility.yul\":10338:10518   */\n    tag_102:\n        /* \"#utility.yul\":10386:10463   */\n      0x4e487b7100000000000000000000000000000000000000000000000000000000\n        /* \"#utility.yul\":10383:10384   */\n      0x00\n        /* \"#utility.yul\":10376:10464   */\n      mstore\n        /* \"#utility.yul\":10483:10487   */\n      0x32\n        /* \"#utility.yul\":10480:10481   */\n      0x04\n        /* \"#utility.yul\":10473:10488   */\n      mstore\n        /* \"#utility.yul\":10507:10511   */\n      0x24\n        /* \"#utility.yul\":10504:10505   */\n      0x00\n        /* \"#utility.yul\":10497:10512   */\n      revert\n        /* \"#utility.yul\":10524:10704   */\n    tag_250:\n        /* \"#utility.yul\":10572:10649   */\n      0x4e487b7100000000000000000000000000000000000000000000000000000000\n        /* \"#utility.yul\":10569:10570   */\n      0x00\n        /* \"#utility.yul\":10562:10650   */\n      mstore\n        /* \"#utility.yul\":10669:10673   */\n      0x22\n        /* \"#utility.yul\":10666:10667   */\n      0x04\n        /* \"#utility.yul\":10659:10674   */\n      mstore\n        /* \"#utility.yul\":10693:10697   */\n      0x24\n        /* \"#utility.yul\":10690:10691   */\n      0x00\n        /* \"#utility.yul\":10683:10698   */\n      revert\n        /* \"#utility.yul\":10710:11030   */\n    tag_210:\n        /* \"#utility.yul\":10754:10760   */\n      0x00\n        /* \"#utility.yul\":10791:10792   */\n      0x02\n        /* \"#utility.yul\":10785:10789   */\n      dup3\n        /* \"#utility.yul\":10781:10793   */\n      div\n        /* \"#utility.yul\":10771:10793   */\n      swap1\n      pop\n        /* \"#utility.yul\":10838:10839   */\n      0x01\n        /* \"#utility.yul\":10832:10836   */\n      dup3\n        /* \"#utility.yul\":10828:10840   */\n      and\n        /* \"#utility.yul\":10859:10877   */\n      dup1\n        /* \"#utility.yul\":10849:10930   */\n      tag_398\n      jumpi\n        /* \"#utility.yul\":10915:10919   */\n      0x7f\n        /* \"#utility.yul\":10907:10913   */\n      dup3\n        /* \"#utility.yul\":10903:10920   */\n      and\n        /* \"#utility.yul\":10893:10920   */\n      swap2\n      pop\n        /* \"#utility.yul\":10849:10930   */\n    tag_398:\n        /* \"#utility.yul\":10977:10979   */\n      0x20\n        /* \"#utility.yul\":10969:10975   */\n      dup3\n        /* \"#utility.yul\":10966:10980   */\n      lt\n        /* \"#utility.yul\":10946:10964   */\n      dup2\n        /* \"#utility.yul\":10943:10981   */\n      sub\n        /* \"#utility.yul\":10940:11024   */\n      tag_399\n      jumpi\n        /* \"#utility.yul\":10996:11014   */\n      tag_400\n      tag_250\n      jump\t// in\n    tag_400:\n        /* \"#utility.yul\":10940:11024   */\n    tag_399:\n        /* \"#utility.yul\":10761:11030   */\n      pop\n        /* \"#utility.yul\":10710:11030   */\n      swap2\n      swap1\n      pop\n      jump\t// out\n        /* \"#utility.yul\":11036:11184   */\n    tag_251:\n        /* \"#utility.yul\":11138:11149   */\n      0x00\n        /* \"#utility.yul\":11175:11178   */\n      dup2\n        /* \"#utility.yul\":11160:11178   */\n      swap1\n      pop\n        /* \"#utility.yul\":11036:11184   */\n      swap3\n      swap2\n      pop\n      pop\n      jump\t// out\n        /* \"#utility.yul\":11190:11331   */\n    tag_252:\n        /* \"#utility.yul\":11239:11243   */\n      0x00\n        /* \"#utility.yul\":11262:11265   */\n      dup2\n        /* \"#utility.yul\":11254:11265   */\n      swap1\n      pop\n        /* \"#utility.yul\":11285:11288   */\n      dup2\n        /* \"#utility.yul\":11282:11283   */\n      0x00\n        /* \"#utility.yul\":11275:11289   */\n      mstore\n        /* \"#utility.yul\":11319:11323   */\n      0x20\n        /* \"#utility.yul\":11316:11317   */\n      0x00\n        /* \"#utility.yul\":11306:11324   */\n      keccak256\n        /* \"#utility.yul\":11298:11324   */\n      swap1\n      pop\n        /* \"#utility.yul\":11190:11331   */\n      swap2\n      swap1\n      pop\n      jump\t// out\n        /* \"#utility.yul\":11361:12235   */\n    tag_253:\n        /* \"#utility.yul\":11464:11467   */\n      0x00\n        /* \"#utility.yul\":11501:11506   */\n      dup2\n        /* \"#utility.yul\":11495:11507   */\n      sload\n        /* \"#utility.yul\":11530:11566   */\n      tag_404\n        /* \"#utility.yul\":11556:11565   */\n      dup2\n        /* \"#utility.yul\":11530:11566   */\n      tag_210\n      jump\t// in\n    tag_404:\n        /* \"#utility.yul\":11582:11671   */\n      tag_405\n        /* \"#utility.yul\":11664:11670   */\n      dup2\n        /* \"#utility.yul\":11659:11662   */\n      dup7\n        /* \"#utility.yul\":11582:11671   */\n      tag_251\n      jump\t// in\n    tag_405:\n        /* \"#utility.yul\":11575:11671   */\n      swap5\n      pop\n        /* \"#utility.yul\":11702:11703   */\n      0x01\n        /* \"#utility.yul\":11691:11700   */\n      dup3\n        /* \"#utility.yul\":11687:11704   */\n      and\n        /* \"#utility.yul\":11718:11719   */\n      0x00\n        /* \"#utility.yul\":11713:11879   */\n      dup2\n      eq\n      tag_407\n      jumpi\n        /* \"#utility.yul\":11893:11894   */\n      0x01\n        /* \"#utility.yul\":11888:12229   */\n      dup2\n      eq\n      tag_408\n      jumpi\n        /* \"#utility.yul\":11680:12229   */\n      jump(tag_406)\n        /* \"#utility.yul\":11713:11879   */\n    tag_407:\n        /* \"#utility.yul\":11797:11801   */\n      0xff\n        /* \"#utility.yul\":11793:11802   */\n      not\n        /* \"#utility.yul\":11782:11791   */\n      dup4\n        /* \"#utility.yul\":11778:11803   */\n      and\n        /* \"#utility.yul\":11773:11776   */\n      dup7\n        /* \"#utility.yul\":11766:11804   */\n      mstore\n        /* \"#utility.yul\":11859:11865   */\n      dup2\n        /* \"#utility.yul\":11852:11866   */\n      iszero\n        /* \"#utility.yul\":11845:11867   */\n      iszero\n        /* \"#utility.yul\":11837:11843   */\n      dup3\n        /* \"#utility.yul\":11833:11868   */\n      mul\n        /* \"#utility.yul\":11828:11831   */\n      dup7\n        /* \"#utility.yul\":11824:11869   */\n      add\n        /* \"#utility.yul\":11817:11869   */\n      swap4\n      pop\n        /* \"#utility.yul\":11713:11879   */\n      jump(tag_406)\n        /* \"#utility.yul\":11888:12229   */\n    tag_408:\n        /* \"#utility.yul\":11955:11993   */\n      tag_409\n        /* \"#utility.yul\":11987:11992   */\n      dup6\n        /* \"#utility.yul\":11955:11993   */\n      tag_252\n      jump\t// in\n    tag_409:\n        /* \"#utility.yul\":12015:12016   */\n      0x00\n        /* \"#utility.yul\":12029:12183   */\n    tag_410:\n        /* \"#utility.yul\":12043:12049   */\n      dup4\n        /* \"#utility.yul\":12040:12041   */\n      dup2\n        /* \"#utility.yul\":12037:12050   */\n      lt\n        /* \"#utility.yul\":12029:12183   */\n      iszero\n      tag_412\n      jumpi\n        /* \"#utility.yul\":12117:12124   */\n      dup2\n        /* \"#utility.yul\":12111:12125   */\n      sload\n        /* \"#utility.yul\":12107:12108   */\n      dup2\n        /* \"#utility.yul\":12102:12105   */\n      dup10\n        /* \"#utility.yul\":12098:12109   */\n      add\n        /* \"#utility.yul\":12091:12126   */\n      mstore\n        /* \"#utility.yul\":12167:12168   */\n      0x01\n        /* \"#utility.yul\":12158:12165   */\n      dup3\n        /* \"#utility.yul\":12154:12169   */\n      add\n        /* \"#utility.yul\":12143:12169   */\n      swap2\n      pop\n        /* \"#utility.yul\":12065:12069   */\n      0x20\n        /* \"#utility.yul\":12062:12063   */\n      dup2\n        /* \"#utility.yul\":12058:12070   */\n      add\n        /* \"#utility.yul\":12053:12070   */\n      swap1\n      pop\n        /* \"#utility.yul\":12029:12183   */\n      jump(tag_410)\n    tag_412:\n        /* \"#utility.yul\":12212:12218   */\n      dup4\n        /* \"#utility.yul\":12207:12210   */\n      dup9\n        /* \"#utility.yul\":12203:12219   */\n      add\n        /* \"#utility.yul\":12196:12219   */\n      swap6\n      pop\n        /* \"#utility.yul\":11895:12229   */\n      pop\n      pop\n        /* \"#utility.yul\":11680:12229   */\n    tag_406:\n      pop\n        /* \"#utility.yul\":11468:12235   */\n      pop\n      pop\n        /* \"#utility.yul\":11361:12235   */\n      swap3\n      swap2\n      pop\n      pop\n      jump\t// out\n        /* \"#utility.yul\":12241:12510   */\n    tag_105:\n        /* \"#utility.yul\":12370:12373   */\n      0x00\n        /* \"#utility.yul\":12392:12484   */\n      tag_414\n        /* \"#utility.yul\":12480:12483   */\n      dup3\n        /* \"#utility.yul\":12471:12477   */\n      dup5\n        /* \"#utility.yul\":12392:12484   */\n      tag_253\n      jump\t// in\n    tag_414:\n        /* \"#utility.yul\":12385:12484   */\n      swap2\n      pop\n        /* \"#utility.yul\":12501:12504   */\n      dup2\n        /* \"#utility.yul\":12494:12504   */\n      swap1\n      pop\n        /* \"#utility.yul\":12241:12510   */\n      swap3\n      swap2\n      pop\n      pop\n      jump\t// out\n        /* \"#utility.yul\":12516:12615   */\n    tag_254:\n        /* \"#utility.yul\":12568:12574   */\n      0x00\n        /* \"#utility.yul\":12602:12607   */\n      dup2\n        /* \"#utility.yul\":12596:12608   */\n      mload\n        /* \"#utility.yul\":12586:12608   */\n      swap1\n      pop\n        /* \"#utility.yul\":12516:12615   */\n      swap2\n      swap1\n      pop\n      jump\t// out\n        /* \"#utility.yul\":12621:12867   */\n    tag_255:\n        /* \"#utility.yul\":12702:12703   */\n      0x00\n        /* \"#utility.yul\":12712:12825   */\n    tag_417:\n        /* \"#utility.yul\":12726:12732   */\n      dup4\n        /* \"#utility.yul\":12723:12724   */\n      dup2\n        /* \"#utility.yul\":12720:12733   */\n      lt\n        /* \"#utility.yul\":12712:12825   */\n      iszero\n      tag_419\n      jumpi\n        /* \"#utility.yul\":12811:12812   */\n      dup1\n        /* \"#utility.yul\":12806:12809   */\n      dup3\n        /* \"#utility.yul\":12802:12813   */\n      add\n        /* \"#utility.yul\":12796:12814   */\n      mload\n        /* \"#utility.yul\":12792:12793   */\n      dup2\n        /* \"#utility.yul\":12787:12790   */\n      dup5\n        /* \"#utility.yul\":12783:12794   */\n      add\n        /* \"#utility.yul\":12776:12815   */\n      mstore\n        /* \"#utility.yul\":12748:12750   */\n      0x20\n        /* \"#utility.yul\":12745:12746   */\n      dup2\n        /* \"#utility.yul\":12741:12751   */\n      add\n        /* \"#utility.yul\":12736:12751   */\n      swap1\n      pop\n        /* \"#utility.yul\":12712:12825   */\n      jump(tag_417)\n    tag_419:\n        /* \"#utility.yul\":12859:12860   */\n      0x00\n        /* \"#utility.yul\":12850:12856   */\n      dup5\n        /* \"#utility.yul\":12845:12848   */\n      dup5\n        /* \"#utility.yul\":12841:12857   */\n      add\n        /* \"#utility.yul\":12834:12861   */\n      mstore\n        /* \"#utility.yul\":12683:12867   */\n      pop\n        /* \"#utility.yul\":12621:12867   */\n      pop\n      pop\n      pop\n      jump\t// out\n        /* \"#utility.yul\":12873:13263   */\n    tag_256:\n        /* \"#utility.yul\":12979:12982   */\n      0x00\n        /* \"#utility.yul\":13007:13046   */\n      tag_421\n        /* \"#utility.yul\":13040:13045   */\n      dup3\n        /* \"#utility.yul\":13007:13046   */\n      tag_254\n      jump\t// in\n    tag_421:\n        /* \"#utility.yul\":13062:13151   */\n      tag_422\n        /* \"#utility.yul\":13144:13150   */\n      dup2\n        /* \"#utility.yul\":13139:13142   */\n      dup6\n        /* \"#utility.yul\":13062:13151   */\n      tag_251\n      jump\t// in\n    tag_422:\n        /* \"#utility.yul\":13055:13151   */\n      swap4\n      pop\n        /* \"#utility.yul\":13160:13225   */\n      tag_423\n        /* \"#utility.yul\":13218:13224   */\n      dup2\n        /* \"#utility.yul\":13213:13216   */\n      dup6\n        /* \"#utility.yul\":13206:13210   */\n      0x20\n        /* \"#utility.yul\":13199:13204   */\n      dup7\n        /* \"#utility.yul\":13195:13211   */\n      add\n        /* \"#utility.yul\":13160:13225   */\n      tag_255\n      jump\t// in\n    tag_423:\n        /* \"#utility.yul\":13250:13256   */\n      dup1\n        /* \"#utility.yul\":13245:13248   */\n      dup5\n        /* \"#utility.yul\":13241:13257   */\n      add\n        /* \"#utility.yul\":13234:13257   */\n      swap2\n      pop\n        /* \"#utility.yul\":12983:13263   */\n      pop\n        /* \"#utility.yul\":12873:13263   */\n      swap3\n      swap2\n      pop\n      pop\n      jump\t// out\n        /* \"#utility.yul\":13269:13544   */\n    tag_107:\n        /* \"#utility.yul\":13401:13404   */\n      0x00\n        /* \"#utility.yul\":13423:13518   */\n      tag_425\n        /* \"#utility.yul\":13514:13517   */\n      dup3\n        /* \"#utility.yul\":13505:13511   */\n      dup5\n        /* \"#utility.yul\":13423:13518   */\n      tag_256\n      jump\t// in\n    tag_425:\n        /* \"#utility.yul\":13416:13518   */\n      swap2\n      pop\n        /* \"#utility.yul\":13535:13538   */\n      dup2\n        /* \"#utility.yul\":13528:13538   */\n      swap1\n      pop\n        /* \"#utility.yul\":13269:13544   */\n      swap3\n      swap2\n      pop\n      pop\n      jump\t// out\n        /* \"#utility.yul\":13550:13741   */\n    tag_112:\n        /* \"#utility.yul\":13590:13593   */\n      0x00\n        /* \"#utility.yul\":13609:13629   */\n      tag_427\n        /* \"#utility.yul\":13627:13628   */\n      dup3\n        /* \"#utility.yul\":13609:13629   */\n      tag_248\n      jump\t// in\n    tag_427:\n        /* \"#utility.yul\":13604:13629   */\n      swap2\n      pop\n        /* \"#utility.yul\":13643:13663   */\n      tag_428\n        /* \"#utility.yul\":13661:13662   */\n      dup4\n        /* \"#utility.yul\":13643:13663   */\n      tag_248\n      jump\t// in\n    tag_428:\n        /* \"#utility.yul\":13638:13663   */\n      swap3\n      pop\n        /* \"#utility.yul\":13686:13687   */\n      dup3\n        /* \"#utility.yul\":13683:13684   */\n      dup3\n        /* \"#utility.yul\":13679:13688   */\n      add\n        /* \"#utility.yul\":13672:13688   */\n      swap1\n      pop\n        /* \"#utility.yul\":13707:13710   */\n      dup1\n        /* \"#utility.yul\":13704:13705   */\n      dup3\n        /* \"#utility.yul\":13701:13711   */\n      gt\n        /* \"#utility.yul\":13698:13734   */\n      iszero\n      tag_429\n      jumpi\n        /* \"#utility.yul\":13714:13732   */\n      tag_430\n      tag_249\n      jump\t// in\n    tag_430:\n        /* \"#utility.yul\":13698:13734   */\n    tag_429:\n        /* \"#utility.yul\":13550:13741   */\n      swap3\n      swap2\n      pop\n      pop\n      jump\t// out\n        /* \"#utility.yul\":13747:13900   */\n    tag_257:\n        /* \"#utility.yul\":13800:13806   */\n      0x00\n        /* \"#utility.yul\":13834:13839   */\n      dup2\n        /* \"#utility.yul\":13828:13840   */\n      sload\n        /* \"#utility.yul\":13818:13840   */\n      swap1\n      pop\n        /* \"#utility.yul\":13860:13893   */\n      tag_432\n        /* \"#utility.yul\":13886:13892   */\n      dup2\n        /* \"#utility.yul\":13860:13893   */\n      tag_210\n      jump\t// in\n    tag_432:\n        /* \"#utility.yul\":13850:13893   */\n      swap1\n      pop\n        /* \"#utility.yul\":13747:13900   */\n      swap2\n      swap1\n      pop\n      jump\t// out\n        /* \"#utility.yul\":13906:14051   */\n    tag_258:\n        /* \"#utility.yul\":13959:13963   */\n      0x00\n        /* \"#utility.yul\":13982:13985   */\n      dup2\n        /* \"#utility.yul\":13974:13985   */\n      swap1\n      pop\n        /* \"#utility.yul\":14005:14008   */\n      dup2\n        /* \"#utility.yul\":14002:14003   */\n      0x00\n        /* \"#utility.yul\":13995:14009   */\n      mstore\n        /* \"#utility.yul\":14039:14043   */\n      0x20\n        /* \"#utility.yul\":14036:14037   */\n      0x00\n        /* \"#utility.yul\":14026:14044   */\n      keccak256\n        /* \"#utility.yul\":14018:14044   */\n      swap1\n      pop\n        /* \"#utility.yul\":13906:14051   */\n      swap2\n      swap1\n      pop\n      jump\t// out\n        /* \"#utility.yul\":14057:14150   */\n    tag_259:\n        /* \"#utility.yul\":14094:14100   */\n      0x00\n        /* \"#utility.yul\":14141:14143   */\n      0x20\n        /* \"#utility.yul\":14136:14138   */\n      0x1f\n        /* \"#utility.yul\":14129:14134   */\n      dup4\n        /* \"#utility.yul\":14125:14139   */\n      add\n        /* \"#utility.yul\":14121:14144   */\n      div\n        /* \"#utility.yul\":14111:14144   */\n      swap1\n      pop\n        /* \"#utility.yul\":14057:14150   */\n      swap2\n      swap1\n      pop\n      jump\t// out\n        /* \"#utility.yul\":14156:14263   */\n    tag_260:\n        /* \"#utility.yul\":14200:14208   */\n      0x00\n        /* \"#utility.yul\":14250:14255   */\n      dup3\n        /* \"#utility.yul\":14244:14248   */\n      dup3\n        /* \"#utility.yul\":14240:14256   */\n      shl\n        /* \"#utility.yul\":14219:14256   */\n      swap1\n      pop\n        /* \"#utility.yul\":14156:14263   */\n      swap3\n      swap2\n      pop\n      pop\n      jump\t// out\n        /* \"#utility.yul\":14269:14662   */\n    tag_261:\n        /* \"#utility.yul\":14338:14344   */\n      0x00\n        /* \"#utility.yul\":14388:14389   */\n      0x08\n        /* \"#utility.yul\":14376:14386   */\n      dup4\n        /* \"#utility.yul\":14372:14390   */\n      mul\n        /* \"#utility.yul\":14411:14508   */\n      tag_437\n        /* \"#utility.yul\":14441:14507   */\n      0xffffffffffffffffffffffffffffffffffffffffffffffffffffffffffffffff\n        /* \"#utility.yul\":14430:14439   */\n      dup3\n        /* \"#utility.yul\":14411:14508   */\n      tag_260\n      jump\t// in\n    tag_437:\n        /* \"#utility.yul\":14529:14568   */\n      tag_438\n        /* \"#utility.yul\":14559:14567   */\n      dup7\n        /* \"#utility.yul\":14548:14557   */\n      dup4\n        /* \"#utility.yul\":14529:14568   */\n      tag_260\n      jump\t// in\n    tag_438:\n        /* \"#utility.yul\":14517:14568   */\n      swap6\n      pop\n        /* \"#utility.yul\":14601:14605   */\n      dup1\n        /* \"#utility.yul\":14597:14606   */\n      not\n        /* \"#utility.yul\":14590:14595   */\n      dup5\n        /* \"#utility.yul\":14586:14607   */\n      and\n        /* \"#utility.yul\":14577:14607   */\n      swap4\n      pop\n        /* \"#utility.yul\":14650:14654   */\n      dup1\n        /* \"#utility.yul\":14640:14648   */\n      dup7\n        /* \"#utility.yul\":14636:14655   */\n      and\n        /* \"#utility.yul\":14629:14634   */\n      dup5\n        /* \"#utility.yul\":14626:14656   */\n      or\n        /* \"#utility.yul\":14616:14656   */\n      swap3\n      pop\n        /* \"#utility.yul\":14345:14662   */\n      pop\n      pop\n        /* \"#utility.yul\":14269:14662   */\n      swap4\n      swap3\n      pop\n      pop\n      pop\n      jump\t// out\n        /* \"#utility.yul\":14668:14728   */\n    tag_262:\n        /* \"#utility.yul\":14696:14699   */\n      0x00\n        /* \"#utility.yul\":14717:14722   */\n      dup2\n        /* \"#utility.yul\":14710:14722   */\n      swap1\n      pop\n        /* \"#utility.yul\":14668:14728   */\n      swap2\n      swap1\n      pop\n      jump\t// out\n        /* \"#utility.yul\":14734:14876   */\n    tag_263:\n        /* \"#utility.yul\":14784:14793   */\n      0x00\n        /* \"#utility.yul\":14817:14870   */\n      tag_441\n        /* \"#utility.yul\":14835:14869   */\n      tag_442\n        /* \"#utility.yul\":14844:14868   */\n      tag_443\n        /* \"#utility.yul\":14862:14867   */\n      dup5\n        /* \"#utility.yul\":14844:14868   */\n      tag_248\n      jump\t// in\n    tag_443:\n        /* \"#utility.yul\":14835:14869   */\n      tag_262\n      jump\t// in\n    tag_442:\n        /* \"#utility.yul\":14817:14870   */\n      tag_248\n      jump\t// in\n    tag_441:\n        /* \"#utility.yul\":14804:14870   */\n      swap1\n      pop\n        /* \"#utility.yul\":14734:14876   */\n      swap2\n      swap1\n      pop\n      jump\t// out\n        /* \"#utility.yul\":14882:14957   */\n    tag_264:\n        /* \"#utility.yul\":14925:14928   */\n      0x00\n        /* \"#utility.yul\":14946:14951   */\n      dup2\n        /* \"#utility.yul\":14939:14951   */\n      swap1\n      pop\n        /* \"#utility.yul\":14882:14957   */\n      swap2\n      swap1\n      pop\n      jump\t// out\n        /* \"#utility.yul\":14963:15232   */\n    tag_265:\n        /* \"#utility.yul\":15073:15112   */\n      tag_446\n        /* \"#utility.yul\":15104:15111   */\n      dup4\n        /* \"#utility.yul\":15073:15112   */\n      tag_263\n      jump\t// in\n    tag_446:\n        /* \"#utility.yul\":15134:15225   */\n      tag_447\n        /* \"#utility.yul\":15183:15224   */\n      tag_448\n        /* \"#utility.yul\":15207:15223   */\n      dup3\n        /* \"#utility.yul\":15183:15224   */\n      tag_264\n      jump\t// in\n    tag_448:\n        /* \"#utility.yul\":15175:15181   */\n      dup5\n        /* \"#utility.yul\":15168:15172   */\n      dup5\n        /* \"#utility.yul\":15162:15173   */\n      sload\n        /* \"#utility.yul\":15134:15225   */\n      tag_261\n      jump\t// in\n    tag_447:\n        /* \"#utility.yul\":15128:15132   */\n      dup3\n        /* \"#utility.yul\":15121:15226   */\n      sstore\n        /* \"#utility.yul\":15039:15232   */\n      pop\n        /* \"#utility.yul\":14963:15232   */\n      pop\n      pop\n      pop\n      jump\t// out\n        /* \"#utility.yul\":15238:15311   */\n    tag_266:\n        /* \"#utility.yul\":15283:15286   */\n      0x00\n        /* \"#utility.yul\":15238:15311   */\n      swap1\n      jump\t// out\n        /* \"#utility.yul\":15317:15506   */\n    tag_267:\n        /* \"#utility.yul\":15394:15426   */\n      tag_451\n      tag_266\n      jump\t// in\n    tag_451:\n        /* \"#utility.yul\":15435:15500   */\n      tag_452\n        /* \"#utility.yul\":15493:15499   */\n      dup2\n        /* \"#utility.yul\":15485:15491   */\n      dup5\n        /* \"#utility.yul\":15479:15483   */\n      dup5\n        /* \"#utility.yul\":15435:15500   */\n      tag_265\n      jump\t// in\n    tag_452:\n        /* \"#utility.yul\":15370:15506   */\n      pop\n        /* \"#utility.yul\":15317:15506   */\n      pop\n      pop\n      jump\t// out\n        /* \"#utility.yul\":15512:15698   */\n    tag_268:\n        /* \"#utility.yul\":15572:15692   */\n    tag_454:\n        /* \"#utility.yul\":15589:15592   */\n      dup2\n        /* \"#utility.yul\":15582:15587   */\n      dup2\n        /* \"#utility.yul\":15579:15593   */\n      lt\n        /* \"#utility.yul\":15572:15692   */\n      iszero\n      tag_456\n      jumpi\n        /* \"#utility.yul\":15643:15682   */\n      tag_457\n        /* \"#utility.yul\":15680:15681   */\n      0x00\n        /* \"#utility.yul\":15673:15678   */\n      dup3\n        /* \"#utility.yul\":15643:15682   */\n      tag_267\n      jump\t// in\n    tag_457:\n        /* \"#utility.yul\":15616:15617   */\n      0x01\n        /* \"#utility.yul\":15609:15614   */\n      dup2\n        /* \"#utility.yul\":15605:15618   */\n      add\n        /* \"#utility.yul\":15596:15618   */\n      swap1\n      pop\n        /* \"#utility.yul\":15572:15692   */\n      jump(tag_454)\n    tag_456:\n        /* \"#utility.yul\":15512:15698   */\n      pop\n      pop\n      jump\t// out\n        /* \"#utility.yul\":15704:16247   */\n    tag_269:\n        /* \"#utility.yul\":15805:15807   */\n      0x1f\n        /* \"#utility.yul\":15800:15803   */\n      dup3\n        /* \"#utility.yul\":15797:15808   */\n      gt\n        /* \"#utility.yul\":15794:16240   */\n      iszero\n      tag_459\n      jumpi\n        /* \"#utility.yul\":15839:15877   */\n      tag_460\n        /* \"#utility.yul\":15871:15876   */\n      dup2\n        /* \"#utility.yul\":15839:15877   */\n      tag_252\n      jump\t// in\n    tag_460:\n        /* \"#utility.yul\":15923:15952   */\n      tag_461\n        /* \"#utility.yul\":15941:15951   */\n      dup5\n        /* \"#utility.yul\":15923:15952   */\n      tag_259\n      jump\t// in\n    tag_461:\n        /* \"#utility.yul\":15913:15921   */\n      dup2\n        /* \"#utility.yul\":15909:15953   */\n      add\n        /* \"#utility.yul\":16106:16108   */\n      0x20\n        /* \"#utility.yul\":16094:16104   */\n      dup6\n        /* \"#utility.yul\":16091:16109   */\n      lt\n        /* \"#utility.yul\":16088:16137   */\n      iszero\n      tag_462\n      jumpi\n        /* \"#utility.yul\":16127:16135   */\n      dup2\n        /* \"#utility.yul\":16112:16135   */\n      swap1\n      pop\n        /* \"#utility.yul\":16088:16137   */\n    tag_462:\n        /* \"#utility.yul\":16150:16230   */\n      tag_463\n        /* \"#utility.yul\":16206:16228   */\n      tag_464\n        /* \"#utility.yul\":16224:16227   */\n      dup6\n        /* \"#utility.yul\":16206:16228   */\n      tag_259\n      jump\t// in\n    tag_464:\n        /* \"#utility.yul\":16196:16204   */\n      dup4\n        /* \"#utility.yul\":16192:16229   */\n      add\n        /* \"#utility.yul\":16179:16190   */\n      dup3\n        /* \"#utility.yul\":16150:16230   */\n      tag_268\n      jump\t// in\n    tag_463:\n        /* \"#utility.yul\":15809:16240   */\n      pop\n      pop\n        /* \"#utility.yul\":15794:16240   */\n    tag_459:\n        /* \"#utility.yul\":15704:16247   */\n      pop\n      pop\n      pop\n      jump\t// out\n        /* \"#utility.yul\":16253:16370   */\n    tag_270:\n        /* \"#utility.yul\":16307:16315   */\n      0x00\n        /* \"#utility.yul\":16357:16362   */\n      dup3\n        /* \"#utility.yul\":16351:16355   */\n      dup3\n        /* \"#utility.yul\":16347:16363   */\n      shr\n        /* \"#utility.yul\":16326:16363   */\n      swap1\n      pop\n        /* \"#utility.yul\":16253:16370   */\n      swap3\n      swap2\n      pop\n      pop\n      jump\t// out\n        /* \"#utility.yul\":16376:16545   */\n    tag_271:\n        /* \"#utility.yul\":16420:16426   */\n      0x00\n        /* \"#utility.yul\":16453:16504   */\n      tag_467\n        /* \"#utility.yul\":16501:16502   */\n      0x00\n        /* \"#utility.yul\":16497:16503   */\n      not\n        /* \"#utility.yul\":16489:16494   */\n      dup5\n        /* \"#utility.yul\":16486:16487   */\n      0x08\n        /* \"#utility.yul\":16482:16495   */\n      mul\n        /* \"#utility.yul\":16453:16504   */\n      tag_270\n      jump\t// in\n    tag_467:\n        /* \"#utility.yul\":16449:16505   */\n      not\n        /* \"#utility.yul\":16534:16538   */\n      dup1\n        /* \"#utility.yul\":16528:16532   */\n      dup4\n        /* \"#utility.yul\":16524:16539   */\n      and\n        /* \"#utility.yul\":16514:16539   */\n      swap2\n      pop\n        /* \"#utility.yul\":16427:16545   */\n      pop\n        /* \"#utility.yul\":16376:16545   */\n      swap3\n      swap2\n      pop\n      pop\n      jump\t// out\n        /* \"#utility.yul\":16550:16845   */\n    tag_272:\n        /* \"#utility.yul\":16626:16630   */\n      0x00\n        /* \"#utility.yul\":16772:16801   */\n      tag_469\n        /* \"#utility.yul\":16797:16800   */\n      dup4\n        /* \"#utility.yul\":16791:16795   */\n      dup4\n        /* \"#utility.yul\":16772:16801   */\n      tag_271\n      jump\t// in\n    tag_469:\n        /* \"#utility.yul\":16764:16801   */\n      swap2\n      pop\n        /* \"#utility.yul\":16834:16837   */\n      dup3\n        /* \"#utility.yul\":16831:16832   */\n      0x02\n        /* \"#utility.yul\":16827:16838   */\n      mul\n        /* \"#utility.yul\":16821:16825   */\n      dup3\n        /* \"#utility.yul\":16818:16839   */\n      or\n        /* \"#utility.yul\":16810:16839   */\n      swap1\n      pop\n        /* \"#utility.yul\":16550:16845   */\n      swap3\n      swap2\n      pop\n      pop\n      jump\t// out\n        /* \"#utility.yul\":16850:18313   */\n    tag_120:\n        /* \"#utility.yul\":16965:16968   */\n      dup2\n        /* \"#utility.yul\":16959:16963   */\n      dup2\n        /* \"#utility.yul\":16956:16969   */\n      sub\n        /* \"#utility.yul\":16953:16979   */\n      tag_471\n      jumpi\n        /* \"#utility.yul\":16972:16977   */\n      pop\n      pop\n      jump(tag_470)\n        /* \"#utility.yul\":16953:16979   */\n    tag_471:\n        /* \"#utility.yul\":17003:17041   */\n      tag_472\n        /* \"#utility.yul\":17037:17040   */\n      dup3\n        /* \"#utility.yul\":17003:17041   */\n      tag_257\n      jump\t// in\n    tag_472:\n        /* \"#utility.yul\":17106:17124   */\n      0xffffffffffffffff\n        /* \"#utility.yul\":17098:17104   */\n      dup2\n        /* \"#utility.yul\":17095:17125   */\n      gt\n        /* \"#utility.yul\":17092:17148   */\n      iszero\n      tag_473\n      jumpi\n        /* \"#utility.yul\":17128:17146   */\n      tag_474\n      tag_189\n      jump\t// in\n    tag_474:\n        /* \"#utility.yul\":17092:17148   */\n    tag_473:\n        /* \"#utility.yul\":17172:17210   */\n      tag_475\n        /* \"#utility.yul\":17204:17208   */\n      dup3\n        /* \"#utility.yul\":17198:17209   */\n      sload\n        /* \"#utility.yul\":17172:17210   */\n      tag_210\n      jump\t// in\n    tag_475:\n        /* \"#utility.yul\":17257:17324   */\n      tag_476\n        /* \"#utility.yul\":17317:17323   */\n      dup3\n        /* \"#utility.yul\":17309:17315   */\n      dup3\n        /* \"#utility.yul\":17303:17307   */\n      dup6\n        /* \"#utility.yul\":17257:17324   */\n      tag_269\n      jump\t// in\n    tag_476:\n        /* \"#utility.yul\":17351:17352   */\n      0x00\n        /* \"#utility.yul\":17380:17382   */\n      0x1f\n        /* \"#utility.yul\":17372:17378   */\n      dup4\n        /* \"#utility.yul\":17369:17383   */\n      gt\n        /* \"#utility.yul\":17397:17398   */\n      0x01\n        /* \"#utility.yul\":17392:18068   */\n      dup2\n      eq\n      tag_478\n      jumpi\n        /* \"#utility.yul\":18112:18113   */\n      0x00\n        /* \"#utility.yul\":18129:18135   */\n      dup5\n        /* \"#utility.yul\":18126:18203   */\n      iszero\n      tag_479\n      jumpi\n        /* \"#utility.yul\":18178:18187   */\n      dup3\n        /* \"#utility.yul\":18173:18176   */\n      dup8\n        /* \"#utility.yul\":18169:18188   */\n      add\n        /* \"#utility.yul\":18163:18189   */\n      sload\n        /* \"#utility.yul\":18154:18189   */\n      swap1\n      pop\n        /* \"#utility.yul\":18126:18203   */\n    tag_479:\n        /* \"#utility.yul\":18229:18296   */\n      tag_480\n        /* \"#utility.yul\":18289:18295   */\n      dup6\n        /* \"#utility.yul\":18282:18287   */\n      dup3\n        /* \"#utility.yul\":18229:18296   */\n      tag_272\n      jump\t// in\n    tag_480:\n        /* \"#utility.yul\":18223:18227   */\n      dup7\n        /* \"#utility.yul\":18216:18297   */\n      sstore\n        /* \"#utility.yul\":18085:18307   */\n      pop\n        /* \"#utility.yul\":17362:18307   */\n      jump(tag_477)\n        /* \"#utility.yul\":17392:18068   */\n    tag_478:\n        /* \"#utility.yul\":17444:17448   */\n      0x1f\n        /* \"#utility.yul\":17440:17449   */\n      not\n        /* \"#utility.yul\":17432:17438   */\n      dup5\n        /* \"#utility.yul\":17428:17450   */\n      and\n        /* \"#utility.yul\":17470:17510   */\n      tag_481\n        /* \"#utility.yul\":17506:17509   */\n      dup8\n        /* \"#utility.yul\":17470:17510   */\n      tag_258\n      jump\t// in\n    tag_481:\n        /* \"#utility.yul\":17463:17510   */\n      swap7\n      pop\n        /* \"#utility.yul\":17537:17574   */\n      tag_482\n        /* \"#utility.yul\":17569:17573   */\n      dup7\n        /* \"#utility.yul\":17537:17574   */\n      tag_252\n      jump\t// in\n    tag_482:\n        /* \"#utility.yul\":17596:17597   */\n      0x00\n        /* \"#utility.yul\":17610:17817   */\n    tag_483:\n        /* \"#utility.yul\":17624:17631   */\n      dup3\n        /* \"#utility.yul\":17621:17622   */\n      dup2\n        /* \"#utility.yul\":17618:17632   */\n      lt\n        /* \"#utility.yul\":17610:17817   */\n      iszero\n      tag_485\n      jumpi\n        /* \"#utility.yul\":17703:17712   */\n      dup5\n        /* \"#utility.yul\":17698:17701   */\n      dup10\n        /* \"#utility.yul\":17694:17713   */\n      add\n        /* \"#utility.yul\":17688:17714   */\n      sload\n        /* \"#utility.yul\":17680:17686   */\n      dup3\n        /* \"#utility.yul\":17673:17715   */\n      sstore\n        /* \"#utility.yul\":17754:17755   */\n      0x01\n        /* \"#utility.yul\":17746:17752   */\n      dup3\n        /* \"#utility.yul\":17742:17756   */\n      add\n        /* \"#utility.yul\":17732:17756   */\n      swap2\n      pop\n        /* \"#utility.yul\":17801:17802   */\n      0x01\n        /* \"#utility.yul\":17790:17799   */\n      dup6\n        /* \"#utility.yul\":17786:17803   */\n      add\n        /* \"#utility.yul\":17773:17803   */\n      swap5\n      pop\n        /* \"#utility.yul\":17647:17651   */\n      0x20\n        /* \"#utility.yul\":17644:17645   */\n      dup2\n        /* \"#utility.yul\":17640:17652   */\n      add\n        /* \"#utility.yul\":17635:17652   */\n      swap1\n      pop\n        /* \"#utility.yul\":17610:17817   */\n      jump(tag_483)\n    tag_485:\n        /* \"#utility.yul\":17845:17851   */\n      dup7\n        /* \"#utility.yul\":17836:17843   */\n      dup4\n        /* \"#utility.yul\":17833:17852   */\n      lt\n        /* \"#utility.yul\":17830:18009   */\n      iszero\n      tag_486\n      jumpi\n        /* \"#utility.yul\":17903:17912   */\n      dup5\n        /* \"#utility.yul\":17898:17901   */\n      dup10\n        /* \"#utility.yul\":17894:17913   */\n      add\n        /* \"#utility.yul\":17888:17914   */\n      sload\n        /* \"#utility.yul\":17946:17994   */\n      tag_487\n        /* \"#utility.yul\":17988:17992   */\n      0x1f\n        /* \"#utility.yul\":17980:17986   */\n      dup10\n        /* \"#utility.yul\":17976:17993   */\n      and\n        /* \"#utility.yul\":17965:17974   */\n      dup3\n        /* \"#utility.yul\":17946:17994   */\n      tag_271\n      jump\t// in\n    tag_487:\n        /* \"#utility.yul\":17938:17944   */\n      dup4\n        /* \"#utility.yul\":17931:17995   */\n      sstore\n        /* \"#utility.yul\":17853:18009   */\n      pop\n        /* \"#utility.yul\":17830:18009   */\n    tag_486:\n        /* \"#utility.yul\":18055:18056   */\n      0x01\n        /* \"#utility.yul\":18051:18052   */\n      0x02\n        /* \"#utility.yul\":18043:18049   */\n      dup9\n        /* \"#utility.yul\":18039:18053   */\n      mul\n        /* \"#utility.yul\":18035:18057   */\n      add\n        /* \"#utility.yul\":18029:18033   */\n      dup9\n        /* \"#utility.yul\":18022:18058   */\n      sstore\n        /* \"#utility.yul\":17399:18068   */\n      pop\n      pop\n      pop\n        /* \"#utility.yul\":17362:18307   */\n    tag_477:\n      pop\n        /* \"#utility.yul\":16943:18313   */\n      pop\n      pop\n      pop\n        /* \"#utility.yul\":16850:18313   */\n      pop\n      pop\n    tag_470:\n      jump\t// out\n        /* \"#utility.yul\":18319:18552   */\n    tag_122:\n        /* \"#utility.yul\":18358:18361   */\n      0x00\n        /* \"#utility.yul\":18381:18405   */\n      tag_489\n        /* \"#utility.yul\":18399:18404   */\n      dup3\n        /* \"#utility.yul\":18381:18405   */\n      tag_248\n      jump\t// in\n    tag_489:\n        /* \"#utility.yul\":18372:18405   */\n      swap2\n      pop\n        /* \"#utility.yul\":18427:18493   */\n      0xffffffffffffffffffffffffffffffffffffffffffffffffffffffffffffffff\n        /* \"#utility.yul\":18420:18425   */\n      dup3\n        /* \"#utility.yul\":18417:18494   */\n      sub\n        /* \"#utility.yul\":18414:18517   */\n      tag_490\n      jumpi\n        /* \"#utility.yul\":18497:18515   */\n      tag_491\n      tag_249\n      jump\t// in\n    tag_491:\n        /* \"#utility.yul\":18414:18517   */\n    tag_490:\n        /* \"#utility.yul\":18544:18545   */\n      0x01\n        /* \"#utility.yul\":18537:18542   */\n      dup3\n        /* \"#utility.yul\":18533:18546   */\n      add\n        /* \"#utility.yul\":18526:18546   */\n      swap1\n      pop\n        /* \"#utility.yul\":18319:18552   */\n      swap2\n      swap1\n      pop\n      jump\t// out\n        /* \"#utility.yul\":18558:18738   */\n    tag_125:\n        /* \"#utility.yul\":18606:18683   */\n      0x4e487b7100000000000000000000000000000000000000000000000000000000\n        /* \"#utility.yul\":18603:18604   */\n      0x00\n        /* \"#utility.yul\":18596:18684   */\n      mstore\n        /* \"#utility.yul\":18703:18707   */\n      0x31\n        /* \"#utility.yul\":18700:18701   */\n      0x04\n        /* \"#utility.yul\":18693:18708   */\n      mstore\n        /* \"#utility.yul\":18727:18731   */\n      0x24\n        /* \"#utility.yul\":18724:18725   */\n      0x00\n        /* \"#utility.yul\":18717:18732   */\n      revert\n        /* \"#utility.yul\":18744:20139   */\n    tag_138:\n        /* \"#utility.yul\":18861:18898   */\n      tag_494\n        /* \"#utility.yul\":18894:18897   */\n      dup3\n        /* \"#utility.yul\":18861:18898   */\n      tag_254\n      jump\t// in\n    tag_494:\n        /* \"#utility.yul\":18963:18981   */\n      0xffffffffffffffff\n        /* \"#utility.yul\":18955:18961   */\n      dup2\n        /* \"#utility.yul\":18952:18982   */\n      gt\n        /* \"#utility.yul\":18949:19005   */\n      iszero\n      tag_495\n      jumpi\n        /* \"#utility.yul\":18985:19003   */\n      tag_496\n      tag_189\n      jump\t// in\n    tag_496:\n        /* \"#utility.yul\":18949:19005   */\n    tag_495:\n        /* \"#utility.yul\":19029:19067   */\n      tag_497\n        /* \"#utility.yul\":19061:19065   */\n      dup3\n        /* \"#utility.yul\":19055:19066   */\n      sload\n        /* \"#utility.yul\":19029:19067   */\n      tag_210\n      jump\t// in\n    tag_497:\n        /* \"#utility.yul\":19114:19181   */\n      tag_498\n        /* \"#utility.yul\":19174:19180   */\n      dup3\n        /* \"#utility.yul\":19166:19172   */\n      dup3\n        /* \"#utility.yul\":19160:19164   */\n      dup6\n        /* \"#utility.yul\":19114:19181   */\n      tag_269\n      jump\t// in\n    tag_498:\n        /* \"#utility.yul\":19208:19209   */\n      0x00\n        /* \"#utility.yul\":19232:19236   */\n      0x20\n        /* \"#utility.yul\":19219:19236   */\n      swap1\n      pop\n        /* \"#utility.yul\":19264:19266   */\n      0x1f\n        /* \"#utility.yul\":19256:19262   */\n      dup4\n        /* \"#utility.yul\":19253:19267   */\n      gt\n        /* \"#utility.yul\":19281:19282   */\n      0x01\n        /* \"#utility.yul\":19276:19894   */\n      dup2\n      eq\n      tag_500\n      jumpi\n        /* \"#utility.yul\":19938:19939   */\n      0x00\n        /* \"#utility.yul\":19955:19961   */\n      dup5\n        /* \"#utility.yul\":19952:20029   */\n      iszero\n      tag_501\n      jumpi\n        /* \"#utility.yul\":20004:20013   */\n      dup3\n        /* \"#utility.yul\":19999:20002   */\n      dup8\n        /* \"#utility.yul\":19995:20014   */\n      add\n        /* \"#utility.yul\":19989:20015   */\n      mload\n        /* \"#utility.yul\":19980:20015   */\n      swap1\n      pop\n        /* \"#utility.yul\":19952:20029   */\n    tag_501:\n        /* \"#utility.yul\":20055:20122   */\n      tag_502\n        /* \"#utility.yul\":20115:20121   */\n      dup6\n        /* \"#utility.yul\":20108:20113   */\n      dup3\n        /* \"#utility.yul\":20055:20122   */\n      tag_272\n      jump\t// in\n    tag_502:\n        /* \"#utility.yul\":20049:20053   */\n      dup7\n        /* \"#utility.yul\":20042:20123   */\n      sstore\n        /* \"#utility.yul\":19911:20133   */\n      pop\n        /* \"#utility.yul\":19246:20133   */\n      jump(tag_499)\n        /* \"#utility.yul\":19276:19894   */\n    tag_500:\n        /* \"#utility.yul\":19328:19332   */\n      0x1f\n        /* \"#utility.yul\":19324:19333   */\n      not\n        /* \"#utility.yul\":19316:19322   */\n      dup5\n        /* \"#utility.yul\":19312:19334   */\n      and\n        /* \"#utility.yul\":19362:19399   */\n      tag_503\n        /* \"#utility.yul\":19394:19398   */\n      dup7\n        /* \"#utility.yul\":19362:19399   */\n      tag_252\n      jump\t// in\n    tag_503:\n        /* \"#utility.yul\":19421:19422   */\n      0x00\n        /* \"#utility.yul\":19435:19643   */\n    tag_504:\n        /* \"#utility.yul\":19449:19456   */\n      dup3\n        /* \"#utility.yul\":19446:19447   */\n      dup2\n        /* \"#utility.yul\":19443:19457   */\n      lt\n        /* \"#utility.yul\":19435:19643   */\n      iszero\n      tag_506\n      jumpi\n        /* \"#utility.yul\":19528:19537   */\n      dup5\n        /* \"#utility.yul\":19523:19526   */\n      dup10\n        /* \"#utility.yul\":19519:19538   */\n      add\n        /* \"#utility.yul\":19513:19539   */\n      mload\n        /* \"#utility.yul\":19505:19511   */\n      dup3\n        /* \"#utility.yul\":19498:19540   */\n      sstore\n        /* \"#utility.yul\":19579:19580   */\n      0x01\n        /* \"#utility.yul\":19571:19577   */\n      dup3\n        /* \"#utility.yul\":19567:19581   */\n      add\n        /* \"#utility.yul\":19557:19581   */\n      swap2\n      pop\n        /* \"#utility.yul\":19626:19628   */\n      0x20\n        /* \"#utility.yul\":19615:19624   */\n      dup6\n        /* \"#utility.yul\":19611:19629   */\n      add\n        /* \"#utility.yul\":19598:19629   */\n      swap5\n      pop\n        /* \"#utility.yul\":19472:19476   */\n      0x20\n        /* \"#utility.yul\":19469:19470   */\n      dup2\n        /* \"#utility.yul\":19465:19477   */\n      add\n        /* \"#utility.yul\":19460:19477   */\n      swap1\n      pop\n        /* \"#utility.yul\":19435:19643   */\n      jump(tag_504)\n    tag_506:\n        /* \"#utility.yul\":19671:19677   */\n      dup7\n        /* \"#utility.yul\":19662:19669   */\n      dup4\n        /* \"#utility.yul\":19659:19678   */\n      lt\n        /* \"#utility.yul\":19656:19835   */\n      iszero\n      tag_507\n      jumpi\n        /* \"#utility.yul\":19729:19738   */\n      dup5\n        /* \"#utility.yul\":19724:19727   */\n      dup10\n        /* \"#utility.yul\":19720:19739   */\n      add\n        /* \"#utility.yul\":19714:19740   */\n      mload\n        /* \"#utility.yul\":19772:19820   */\n      tag_508\n        /* \"#utility.yul\":19814:19818   */\n      0x1f\n        /* \"#utility.yul\":19806:19812   */\n      dup10\n        /* \"#utility.yul\":19802:19819   */\n      and\n        /* \"#utility.yul\":19791:19800   */\n      dup3\n        /* \"#utility.yul\":19772:19820   */\n      tag_271\n      jump\t// in\n    tag_508:\n        /* \"#utility.yul\":19764:19770   */\n      dup4\n        /* \"#utility.yul\":19757:19821   */\n      sstore\n        /* \"#utility.yul\":19679:19835   */\n      pop\n        /* \"#utility.yul\":19656:19835   */\n    tag_507:\n        /* \"#utility.yul\":19881:19882   */\n      0x01\n        /* \"#utility.yul\":19877:19878   */\n      0x02\n        /* \"#utility.yul\":19869:19875   */\n      dup9\n        /* \"#utility.yul\":19865:19879   */\n      mul\n        /* \"#utility.yul\":19861:19883   */\n      add\n        /* \"#utility.yul\":19855:19859   */\n      dup9\n        /* \"#utility.yul\":19848:19884   */\n      sstore\n        /* \"#utility.yul\":19283:19894   */\n      pop\n      pop\n      pop\n        /* \"#utility.yul\":19246:20133   */\n    tag_499:\n      pop\n        /* \"#utility.yul\":18836:20139   */\n      pop\n      pop\n      pop\n        /* \"#utility.yul\":18744:20139   */\n      pop\n      pop\n      jump\t// out\n        /* \"#utility.yul\":20145:20327   */\n    tag_273:\n        /* \"#utility.yul\":20285:20319   */\n      0x4f776e61626c653a2063616c6c6572206973206e6f7420746865206f776e6572\n        /* \"#utility.yul\":20281:20282   */\n      0x00\n        /* \"#utility.yul\":20273:20279   */\n      dup3\n        /* \"#utility.yul\":20269:20283   */\n      add\n        /* \"#utility.yul\":20262:20320   */\n      mstore\n        /* \"#utility.yul\":20145:20327   */\n      pop\n      jump\t// out\n        /* \"#utility.yul\":20333:20699   */\n    tag_274:\n        /* \"#utility.yul\":20475:20478   */\n      0x00\n        /* \"#utility.yul\":20496:20563   */\n      tag_511\n        /* \"#utility.yul\":20560:20562   */\n      0x20\n        /* \"#utility.yul\":20555:20558   */\n      dup4\n        /* \"#utility.yul\":20496:20563   */\n      tag_243\n      jump\t// in\n    tag_511:\n        /* \"#utility.yul\":20489:20563   */\n      swap2\n      pop\n        /* \"#utility.yul\":20572:20665   */\n      tag_512\n        /* \"#utility.yul\":20661:20664   */\n      dup3\n        /* \"#utility.yul\":20572:20665   */\n      tag_273\n      jump\t// in\n    tag_512:\n        /* \"#utility.yul\":20690:20692   */\n      0x20\n        /* \"#utility.yul\":20685:20688   */\n      dup3\n        /* \"#utility.yul\":20681:20693   */\n      add\n        /* \"#utility.yul\":20674:20693   */\n      swap1\n      pop\n        /* \"#utility.yul\":20333:20699   */\n      swap2\n      swap1\n      pop\n      jump\t// out\n        /* \"#utility.yul\":20705:21124   */\n    tag_165:\n        /* \"#utility.yul\":20871:20875   */\n      0x00\n        /* \"#utility.yul\":20909:20911   */\n      0x20\n        /* \"#utility.yul\":20898:20907   */\n      dup3\n        /* \"#utility.yul\":20894:20912   */\n      add\n        /* \"#utility.yul\":20886:20912   */\n      swap1\n      pop\n        /* \"#utility.yul\":20958:20967   */\n      dup2\n        /* \"#utility.yul\":20952:20956   */\n      dup2\n        /* \"#utility.yul\":20948:20968   */\n      sub\n        /* \"#utility.yul\":20944:20945   */\n      0x00\n        /* \"#utility.yul\":20933:20942   */\n      dup4\n        /* \"#utility.yul\":20929:20946   */\n      add\n        /* \"#utility.yul\":20922:20969   */\n      mstore\n        /* \"#utility.yul\":20986:21117   */\n      tag_514\n        /* \"#utility.yul\":21112:21116   */\n      dup2\n        /* \"#utility.yul\":20986:21117   */\n      tag_274\n      jump\t// in\n    tag_514:\n        /* \"#utility.yul\":20978:21117   */\n      swap1\n      pop\n        /* \"#utility.yul\":20705:21124   */\n      swap2\n      swap1\n      pop\n      jump\t// out\n        /* \"#utility.yul\":21130:21303   */\n    tag_275:\n        /* \"#utility.yul\":21270:21295   */\n      0x416363657373436f6e74726f6c3a206163636f756e7420000000000000000000\n        /* \"#utility.yul\":21266:21267   */\n      0x00\n        /* \"#utility.yul\":21258:21264   */\n      dup3\n        /* \"#utility.yul\":21254:21268   */\n      add\n        /* \"#utility.yul\":21247:21296   */\n      mstore\n        /* \"#utility.yul\":21130:21303   */\n      pop\n      jump\t// out\n        /* \"#utility.yul\":21309:21711   */\n    tag_276:\n        /* \"#utility.yul\":21469:21472   */\n      0x00\n        /* \"#utility.yul\":21490:21575   */\n      tag_517\n        /* \"#utility.yul\":21572:21574   */\n      0x17\n        /* \"#utility.yul\":21567:21570   */\n      dup4\n        /* \"#utility.yul\":21490:21575   */\n      tag_251\n      jump\t// in\n    tag_517:\n        /* \"#utility.yul\":21483:21575   */\n      swap2\n      pop\n        /* \"#utility.yul\":21584:21677   */\n      tag_518\n        /* \"#utility.yul\":21673:21676   */\n      dup3\n        /* \"#utility.yul\":21584:21677   */\n      tag_275\n      jump\t// in\n    tag_518:\n        /* \"#utility.yul\":21702:21704   */\n      0x17\n        /* \"#utility.yul\":21697:21700   */\n      dup3\n        /* \"#utility.yul\":21693:21705   */\n      add\n        /* \"#utility.yul\":21686:21705   */\n      swap1\n      pop\n        /* \"#utility.yul\":21309:21711   */\n      swap2\n      swap1\n      pop\n      jump\t// out\n        /* \"#utility.yul\":21717:21884   */\n    tag_277:\n        /* \"#utility.yul\":21857:21876   */\n      0x206973206d697373696e6720726f6c6520000000000000000000000000000000\n        /* \"#utility.yul\":21853:21854   */\n      0x00\n        /* \"#utility.yul\":21845:21851   */\n      dup3\n        /* \"#utility.yul\":21841:21855   */\n      add\n        /* \"#utility.yul\":21834:21877   */\n      mstore\n        /* \"#utility.yul\":21717:21884   */\n      pop\n      jump\t// out\n        /* \"#utility.yul\":21890:22292   */\n    tag_278:\n        /* \"#utility.yul\":22050:22053   */\n      0x00\n        /* \"#utility.yul\":22071:22156   */\n      tag_521\n        /* \"#utility.yul\":22153:22155   */\n      0x11\n        /* \"#utility.yul\":22148:22151   */\n      dup4\n        /* \"#utility.yul\":22071:22156   */\n      tag_251\n      jump\t// in\n    tag_521:\n        /* \"#utility.yul\":22064:22156   */\n      swap2\n      pop\n        /* \"#utility.yul\":22165:22258   */\n      tag_522\n        /* \"#utility.yul\":22254:22257   */\n      dup3\n        /* \"#utility.yul\":22165:22258   */\n      tag_277\n      jump\t// in\n    tag_522:\n        /* \"#utility.yul\":22283:22285   */\n      0x11\n        /* \"#utility.yul\":22278:22281   */\n      dup3\n        /* \"#utility.yul\":22274:22286   */\n      add\n        /* \"#utility.yul\":22267:22286   */\n      swap1\n      pop\n        /* \"#utility.yul\":21890:22292   */\n      swap2\n      swap1\n      pop\n      jump\t// out\n        /* \"#utility.yul\":22298:23265   */\n    tag_175:\n        /* \"#utility.yul\":22680:22683   */\n      0x00\n        /* \"#utility.yul\":22702:22850   */\n      tag_524\n        /* \"#utility.yul\":22846:22849   */\n      dup3\n        /* \"#utility.yul\":22702:22850   */\n      tag_276\n      jump\t// in\n    tag_524:\n        /* \"#utility.yul\":22695:22850   */\n      swap2\n      pop\n        /* \"#utility.yul\":22867:22962   */\n      tag_525\n        /* \"#utility.yul\":22958:22961   */\n      dup3\n        /* \"#utility.yul\":22949:22955   */\n      dup6\n        /* \"#utility.yul\":22867:22962   */\n      tag_256\n      jump\t// in\n    tag_525:\n        /* \"#utility.yul\":22860:22962   */\n      swap2\n      pop\n        /* \"#utility.yul\":22979:23127   */\n      tag_526\n        /* \"#utility.yul\":23123:23126   */\n      dup3\n        /* \"#utility.yul\":22979:23127   */\n      tag_278\n      jump\t// in\n    tag_526:\n        /* \"#utility.yul\":22972:23127   */\n      swap2\n      pop\n        /* \"#utility.yul\":23144:23239   */\n      tag_527\n        /* \"#utility.yul\":23235:23238   */\n      dup3\n        /* \"#utility.yul\":23226:23232   */\n      dup5\n        /* \"#utility.yul\":23144:23239   */\n      tag_256\n      jump\t// in\n    tag_527:\n        /* \"#utility.yul\":23137:23239   */\n      swap2\n      pop\n        /* \"#utility.yul\":23256:23259   */\n      dup2\n        /* \"#utility.yul\":23249:23259   */\n      swap1\n      pop\n        /* \"#utility.yul\":22298:23265   */\n      swap4\n      swap3\n      pop\n      pop\n      pop\n      jump\t// out\n        /* \"#utility.yul\":23271:23648   */\n    tag_279:\n        /* \"#utility.yul\":23359:23362   */\n      0x00\n        /* \"#utility.yul\":23387:23426   */\n      tag_529\n        /* \"#utility.yul\":23420:23425   */\n      dup3\n        /* \"#utility.yul\":23387:23426   */\n      tag_254\n      jump\t// in\n    tag_529:\n        /* \"#utility.yul\":23442:23513   */\n      tag_530\n        /* \"#utility.yul\":23506:23512   */\n      dup2\n        /* \"#utility.yul\":23501:23504   */\n      dup6\n        /* \"#utility.yul\":23442:23513   */\n      tag_243\n      jump\t// in\n    tag_530:\n        /* \"#utility.yul\":23435:23513   */\n      swap4\n      pop\n        /* \"#utility.yul\":23522:23587   */\n      tag_531\n        /* \"#utility.yul\":23580:23586   */\n      dup2\n        /* \"#utility.yul\":23575:23578   */\n      dup6\n        /* \"#utility.yul\":23568:23572   */\n      0x20\n        /* \"#utility.yul\":23561:23566   */\n      dup7\n        /* \"#utility.yul\":23557:23573   */\n      add\n        /* \"#utility.yul\":23522:23587   */\n      tag_255\n      jump\t// in\n    tag_531:\n        /* \"#utility.yul\":23612:23641   */\n      tag_532\n        /* \"#utility.yul\":23634:23640   */\n      dup2\n        /* \"#utility.yul\":23612:23641   */\n      tag_236\n      jump\t// in\n    tag_532:\n        /* \"#utility.yul\":23607:23610   */\n      dup5\n        /* \"#utility.yul\":23603:23642   */\n      add\n        /* \"#utility.yul\":23596:23642   */\n      swap2\n      pop\n        /* \"#utility.yul\":23363:23648   */\n      pop\n        /* \"#utility.yul\":23271:23648   */\n      swap3\n      swap2\n      pop\n      pop\n      jump\t// out\n        /* \"#utility.yul\":23654:23967   */\n    tag_177:\n        /* \"#utility.yul\":23767:23771   */\n      0x00\n        /* \"#utility.yul\":23805:23807   */\n      0x20\n        /* \"#utility.yul\":23794:23803   */\n      dup3\n        /* \"#utility.yul\":23790:23808   */\n      add\n        /* \"#utility.yul\":23782:23808   */\n      swap1\n      pop\n        /* \"#utility.yul\":23854:23863   */\n      dup2\n        /* \"#utility.yul\":23848:23852   */\n      dup2\n        /* \"#utility.yul\":23844:23864   */\n      sub\n        /* \"#utility.yul\":23840:23841   */\n      0x00\n        /* \"#utility.yul\":23829:23838   */\n      dup4\n        /* \"#utility.yul\":23825:23842   */\n      add\n        /* \"#utility.yul\":23818:23865   */\n      mstore\n        /* \"#utility.yul\":23882:23960   */\n      tag_534\n        /* \"#utility.yul\":23955:23959   */\n      dup2\n        /* \"#utility.yul\":23946:23952   */\n      dup5\n        /* \"#utility.yul\":23882:23960   */\n      tag_279\n      jump\t// in\n    tag_534:\n        /* \"#utility.yul\":23874:23960   */\n      swap1\n      pop\n        /* \"#utility.yul\":23654:23967   */\n      swap3\n      swap2\n      pop\n      pop\n      jump\t// out\n        /* \"#utility.yul\":23973:24383   */\n    tag_185:\n        /* \"#utility.yul\":24013:24020   */\n      0x00\n        /* \"#utility.yul\":24036:24056   */\n      tag_536\n        /* \"#utility.yul\":24054:24055   */\n      dup3\n        /* \"#utility.yul\":24036:24056   */\n      tag_248\n      jump\t// in\n    tag_536:\n        /* \"#utility.yul\":24031:24056   */\n      swap2\n      pop\n        /* \"#utility.yul\":24070:24090   */\n      tag_537\n        /* \"#utility.yul\":24088:24089   */\n      dup4\n        /* \"#utility.yul\":24070:24090   */\n      tag_248\n      jump\t// in\n    tag_537:\n        /* \"#utility.yul\":24065:24090   */\n      swap3\n      pop\n        /* \"#utility.yul\":24125:24126   */\n      dup3\n        /* \"#utility.yul\":24122:24123   */\n      dup3\n        /* \"#utility.yul\":24118:24127   */\n      mul\n        /* \"#utility.yul\":24147:24177   */\n      tag_538\n        /* \"#utility.yul\":24165:24176   */\n      dup2\n        /* \"#utility.yul\":24147:24177   */\n      tag_248\n      jump\t// in\n    tag_538:\n        /* \"#utility.yul\":24136:24177   */\n      swap2\n      pop\n        /* \"#utility.yul\":24326:24327   */\n      dup3\n        /* \"#utility.yul\":24317:24324   */\n      dup3\n        /* \"#utility.yul\":24313:24328   */\n      div\n        /* \"#utility.yul\":24310:24311   */\n      dup5\n        /* \"#utility.yul\":24307:24329   */\n      eq\n        /* \"#utility.yul\":24287:24288   */\n      dup4\n        /* \"#utility.yul\":24280:24289   */\n      iszero\n        /* \"#utility.yul\":24260:24343   */\n      or\n        /* \"#utility.yul\":24237:24376   */\n      tag_539\n      jumpi\n        /* \"#utility.yul\":24356:24374   */\n      tag_540\n      tag_249\n      jump\t// in\n    tag_540:\n        /* \"#utility.yul\":24237:24376   */\n    tag_539:\n        /* \"#utility.yul\":24021:24383   */\n      pop\n        /* \"#utility.yul\":23973:24383   */\n      swap3\n      swap2\n      pop\n      pop\n      jump\t// out\n        /* \"#utility.yul\":24389:24560   */\n    tag_205:\n        /* \"#utility.yul\":24428:24431   */\n      0x00\n        /* \"#utility.yul\":24451:24475   */\n      tag_542\n        /* \"#utility.yul\":24469:24474   */\n      dup3\n        /* \"#utility.yul\":24451:24475   */\n      tag_248\n      jump\t// in\n    tag_542:\n        /* \"#utility.yul\":24442:24475   */\n      swap2\n      pop\n        /* \"#utility.yul\":24497:24501   */\n      0x00\n        /* \"#utility.yul\":24490:24495   */\n      dup3\n        /* \"#utility.yul\":24487:24502   */\n      sub\n        /* \"#utility.yul\":24484:24525   */\n      tag_543\n      jumpi\n        /* \"#utility.yul\":24505:24523   */\n      tag_544\n      tag_249\n      jump\t// in\n    tag_544:\n        /* \"#utility.yul\":24484:24525   */\n    tag_543:\n        /* \"#utility.yul\":24552:24553   */\n      0x01\n        /* \"#utility.yul\":24545:24550   */\n      dup3\n        /* \"#utility.yul\":24541:24554   */\n      sub\n        /* \"#utility.yul\":24534:24554   */\n      swap1\n      pop\n        /* \"#utility.yul\":24389:24560   */\n      swap2\n      swap1\n      pop\n      jump\t// out\n        /* \"#utility.yul\":24566:24748   */\n    tag_280:\n        /* \"#utility.yul\":24706:24740   */\n      0x537472696e67733a20686578206c656e67746820696e73756666696369656e74\n        /* \"#utility.yul\":24702:24703   */\n      0x00\n        /* \"#utility.yul\":24694:24700   */\n      dup3\n        /* \"#utility.yul\":24690:24704   */\n      add\n        /* \"#utility.yul\":24683:24741   */\n      mstore\n        /* \"#utility.yul\":24566:24748   */\n      pop\n      jump\t// out\n        /* \"#utility.yul\":24754:25120   */\n    tag_281:\n        /* \"#utility.yul\":24896:24899   */\n      0x00\n        /* \"#utility.yul\":24917:24984   */\n      tag_547\n        /* \"#utility.yul\":24981:24983   */\n      0x20\n        /* \"#utility.yul\":24976:24979   */\n      dup4\n        /* \"#utility.yul\":24917:24984   */\n      tag_243\n      jump\t// in\n    tag_547:\n        /* \"#utility.yul\":24910:24984   */\n      swap2\n      pop\n        /* \"#utility.yul\":24993:25086   */\n      tag_548\n        /* \"#utility.yul\":25082:25085   */\n      dup3\n        /* \"#utility.yul\":24993:25086   */\n      tag_280\n      jump\t// in\n    tag_548:\n        /* \"#utility.yul\":25111:25113   */\n      0x20\n        /* \"#utility.yul\":25106:25109   */\n      dup3\n        /* \"#utility.yul\":25102:25114   */\n      add\n        /* \"#utility.yul\":25095:25114   */\n      swap1\n      pop\n        /* \"#utility.yul\":24754:25120   */\n      swap2\n      swap1\n      pop\n      jump\t// out\n        /* \"#utility.yul\":25126:25545   */\n    tag_208:\n        /* \"#utility.yul\":25292:25296   */\n      0x00\n        /* \"#utility.yul\":25330:25332   */\n      0x20\n        /* \"#utility.yul\":25319:25328   */\n      dup3\n        /* \"#utility.yul\":25315:25333   */\n      add\n        /* \"#utility.yul\":25307:25333   */\n      swap1\n      pop\n        /* \"#utility.yul\":25379:25388   */\n      dup2\n        /* \"#utility.yul\":25373:25377   */\n      dup2\n        /* \"#utility.yul\":25369:25389   */\n      sub\n        /* \"#utility.yul\":25365:25366   */\n      0x00\n        /* \"#utility.yul\":25354:25363   */\n      dup4\n        /* \"#utility.yul\":25350:25367   */\n      add\n        /* \"#utility.yul\":25343:25390   */\n      mstore\n        /* \"#utility.yul\":25407:25538   */\n      tag_550\n        /* \"#utility.yul\":25533:25537   */\n      dup2\n        /* \"#utility.yul\":25407:25538   */\n      tag_281\n      jump\t// in\n    tag_550:\n        /* \"#utility.yul\":25399:25538   */\n      swap1\n      pop\n        /* \"#utility.yul\":25126:25545   */\n      swap2\n      swap1\n      pop\n      jump\t// out\n\n    auxdata: 0xa2646970667358221220174c2148e7b8ffcaf572c36e548f2e3a5d4d3f09991ecd80e5dc5b33e6729b4764736f6c63430008120033\n}\n",
				"bytecode": {
					"linkReferences": {},
					"object": "608060405234801561001057600080fd5b50336100218161002760201b60201c565b506100eb565b60008060009054906101000a900473ffffffffffffffffffffffffffffffffffffffff169050816000806101000a81548173ffffffffffffffffffffffffffffffffffffffff021916908373ffffffffffffffffffffffffffffffffffffffff1602179055508173ffffffffffffffffffffffffffffffffffffffff168173ffffffffffffffffffffffffffffffffffffffff167f8be0079c531659141344cd1fd0a4f28419497f9722a3daafe3b4186f6b6457e060405160405180910390a35050565b611d53806100fa6000396000f3fe608060405234801561001057600080fd5b50600436106100a95760003560e01c806391d148541161007157806391d1485414610164578063a217fddf14610194578063c8164863146101b2578063f2fde38b146101e2578063f3064211146101fe578063f9ad4d731461021a576100a9565b806301ffc9a7146100ae578063248a9ca3146100de57806336568abe1461010e5780634420e4861461012a5780638da5cb5b14610146575b600080fd5b6100c860048036038101906100c39190610f4e565b610236565b6040516100d59190610f96565b60405180910390f35b6100f860048036038101906100f39190610fe7565b6102a0565b6040516101059190611023565b60405180910390f35b6101286004803603810190610123919061109c565b6102c0565b005b610144600480360381019061013f91906110dc565b61035e565b005b61014e610380565b60405161015b9190611118565b60405180910390f35b61017e6004803603810190610179919061109c565b6103a9565b60405161018b9190610f96565b60405180910390f35b61019c610414565b6040516101a99190611023565b60405180910390f35b6101cc60048036038101906101c79190611279565b61041b565b6040516101d99190610f96565b60405180910390f35b6101fc60048036038101906101f791906110dc565b610432565b005b610218600480360381019061021391906112c2565b6104d8565b005b610234600480360381019061022f91906112c2565b6106a8565b005b60007f01ffc9a7000000000000000000000000000000000000000000000000000000007bffffffffffffffffffffffffffffffffffffffffffffffffffffffff1916827bffffffffffffffffffffffffffffffffffffffffffffffffffffffff1916149050919050565b600060016000838152602001908152602001600020600101549050919050565b600260009054906101000a900473ffffffffffffffffffffffffffffffffffffffff1673ffffffffffffffffffffffffffffffffffffffff168173ffffffffffffffffffffffffffffffffffffffff1614610350576040517f08c379a0000000000000000000000000000000000000000000000000000000008152600401610347906113a1565b60405180910390fd5b61035a828261071e565b5050565b61036781610432565b6103708161081b565b61037d6000801b8261086a565b50565b60008060009054906101000a900473ffffffffffffffffffffffffffffffffffffffff16905090565b60006001600084815260200190815260200160002060000160008373ffffffffffffffffffffffffffffffffffffffff1673ffffffffffffffffffffffffffffffffffffffff16815260200190815260200160002060009054906101000a900460ff16905092915050565b6000801b81565b600080610427836108a5565b905080915050919050565b60008054906101000a900473ffffffffffffffffffffffffffffffffffffffff1661045c81610960565b600073ffffffffffffffffffffffffffffffffffffffff168273ffffffffffffffffffffffffffffffffffffffff16036104cb576040517f08c379a00000000000000000000000000000000000000000000000000000000081526004016104c290611433565b60405180910390fd5b6104d4826109d8565b5050565b816104e281610960565b6000801b836104f18282610a9c565b60007fffffffffffffffffffffffffffffffffffffffffffffffffffffffffffffffff905060005b600160038054905061052b919061148c565b81101561066f57600060038281548110610548576105476114c0565b5b9060005260206000200160405160200161056291906115f2565b6040516020818303038152906040528051906020012087604051602001610589919061166f565b604051602081830303815290604052805190602001201490507fffffffffffffffffffffffffffffffffffffffffffffffffffffffffffffffff831480156105d5575060011515811515145b156105de578192505b7fffffffffffffffffffffffffffffffffffffffffffffffffffffffffffffffff831461065b5760036001836106149190611686565b81548110610625576106246114c0565b5b9060005260206000200160038381548110610643576106426114c0565b5b906000526020600020019081610659919061187c565b505b50808061066790611964565b915050610519565b506003805480610682576106816119ac565b5b60019003818190600052602060002001600061069e9190610e85565b9055505050505050565b816106b281610960565b6000801b836106c18282610a9c565b60006106cc856108a5565b905060011515811515036106e05750610717565b60038590806001815401808255809150506001900390600052602060002001600090919091909150908161071491906119db565b50505b5050505050565b61072882826103a9565b156108175760006001600084815260200190815260200160002060000160008373ffffffffffffffffffffffffffffffffffffffff1673ffffffffffffffffffffffffffffffffffffffff16815260200190815260200160002060006101000a81548160ff021916908315150217905550600260009054906101000a900473ffffffffffffffffffffffffffffffffffffffff1673ffffffffffffffffffffffffffffffffffffffff168173ffffffffffffffffffffffffffffffffffffffff16837ff6391f5c32d9c69d2a47ea670b442974b53935d1edc7fd64eb21e047a839171b60405160405180910390a45b5050565b8061082581610960565b81600260006101000a81548173ffffffffffffffffffffffffffffffffffffffff021916908373ffffffffffffffffffffffffffffffffffffffff1602179055505050565b600260009054906101000a900473ffffffffffffffffffffffffffffffffffffffff1661089681610960565b6108a08383610b21565b505050565b600080600090505b600380549050811015610955576000600382815481106108d0576108cf6114c0565b5b906000526020600020016040516020016108ea91906115f2565b6040516020818303038152906040528051906020012084604051602001610911919061166f565b6040516020818303038152906040528051906020012014905060011515811515036109415760019250505061095b565b50808061094d90611964565b9150506108ad565b50600090505b919050565b8073ffffffffffffffffffffffffffffffffffffffff1661097f610380565b73ffffffffffffffffffffffffffffffffffffffff16146109d5576040517f08c379a00000000000000000000000000000000000000000000000000000000081526004016109cc90611af9565b60405180910390fd5b50565b60008060009054906101000a900473ffffffffffffffffffffffffffffffffffffffff169050816000806101000a81548173ffffffffffffffffffffffffffffffffffffffff021916908373ffffffffffffffffffffffffffffffffffffffff1602179055508173ffffffffffffffffffffffffffffffffffffffff168173ffffffffffffffffffffffffffffffffffffffff167f8be0079c531659141344cd1fd0a4f28419497f9722a3daafe3b4186f6b6457e060405160405180910390a35050565b610aa682826103a9565b610b1d57610ab381610c1c565b610ac18360001c6020610c49565b604051602001610ad2929190611bb1565b6040516020818303038152906040526040517f08c379a0000000000000000000000000000000000000000000000000000000008152600401610b149190611c24565b60405180910390fd5b5050565b610b2b82826103a9565b610c1857600180600084815260200190815260200160002060000160008373ffffffffffffffffffffffffffffffffffffffff1673ffffffffffffffffffffffffffffffffffffffff16815260200190815260200160002060006101000a81548160ff021916908315150217905550600260009054906101000a900473ffffffffffffffffffffffffffffffffffffffff1673ffffffffffffffffffffffffffffffffffffffff168173ffffffffffffffffffffffffffffffffffffffff16837f2f8788117e7eff1d82e926ec794901d17c78024a50270940304540a733656f0d60405160405180910390a45b5050565b6060610c428273ffffffffffffffffffffffffffffffffffffffff16601460ff16610c49565b9050919050565b606060006002836002610c5c9190611c46565b610c669190611686565b67ffffffffffffffff811115610c7f57610c7e61114e565b5b6040519080825280601f01601f191660200182016040528015610cb15781602001600182028036833780820191505090505b5090507f300000000000000000000000000000000000000000000000000000000000000081600081518110610ce957610ce86114c0565b5b60200101907effffffffffffffffffffffffffffffffffffffffffffffffffffffffffffff1916908160001a9053507f780000000000000000000000000000000000000000000000000000000000000081600181518110610d4d57610d4c6114c0565b5b60200101907effffffffffffffffffffffffffffffffffffffffffffffffffffffffffffff1916908160001a90535060006001846002610d8d9190611c46565b610d979190611686565b90505b6001811115610e37577f3031323334353637383961626364656600000000000000000000000000000000600f861660108110610dd957610dd86114c0565b5b1a60f81b828281518110610df057610def6114c0565b5b60200101907effffffffffffffffffffffffffffffffffffffffffffffffffffffffffffff1916908160001a905350600485901c945080610e3090611c88565b9050610d9a565b5060008414610e7b576040517f08c379a0000000000000000000000000000000000000000000000000000000008152600401610e7290611cfd565b60405180910390fd5b8091505092915050565b508054610e919061151e565b6000825580601f10610ea35750610ec2565b601f016020900490600052602060002090810190610ec19190610ec5565b5b50565b5b80821115610ede576000816000905550600101610ec6565b5090565b6000604051905090565b600080fd5b600080fd5b60007fffffffff0000000000000000000000000000000000000000000000000000000082169050919050565b610f2b81610ef6565b8114610f3657600080fd5b50565b600081359050610f4881610f22565b92915050565b600060208284031215610f6457610f63610eec565b5b6000610f7284828501610f39565b91505092915050565b60008115159050919050565b610f9081610f7b565b82525050565b6000602082019050610fab6000830184610f87565b92915050565b6000819050919050565b610fc481610fb1565b8114610fcf57600080fd5b50565b600081359050610fe181610fbb565b92915050565b600060208284031215610ffd57610ffc610eec565b5b600061100b84828501610fd2565b91505092915050565b61101d81610fb1565b82525050565b60006020820190506110386000830184611014565b92915050565b600073ffffffffffffffffffffffffffffffffffffffff82169050919050565b60006110698261103e565b9050919050565b6110798161105e565b811461108457600080fd5b50565b60008135905061109681611070565b92915050565b600080604083850312156110b3576110b2610eec565b5b60006110c185828601610fd2565b92505060206110d285828601611087565b9150509250929050565b6000602082840312156110f2576110f1610eec565b5b600061110084828501611087565b91505092915050565b6111128161105e565b82525050565b600060208201905061112d6000830184611109565b92915050565b600080fd5b600080fd5b6000601f19601f8301169050919050565b7f4e487b7100000000000000000000000000000000000000000000000000000000600052604160045260246000fd5b6111868261113d565b810181811067ffffffffffffffff821117156111a5576111a461114e565b5b80604052505050565b60006111b8610ee2565b90506111c4828261117d565b919050565b600067ffffffffffffffff8211156111e4576111e361114e565b5b6111ed8261113d565b9050602081019050919050565b82818337600083830152505050565b600061121c611217846111c9565b6111ae565b90508281526020810184848401111561123857611237611138565b5b6112438482856111fa565b509392505050565b600082601f8301126112605761125f611133565b5b8135611270848260208601611209565b91505092915050565b60006020828403121561128f5761128e610eec565b5b600082013567ffffffffffffffff8111156112ad576112ac610ef1565b5b6112b98482850161124b565b91505092915050565b600080604083850312156112d9576112d8610eec565b5b60006112e785828601611087565b925050602083013567ffffffffffffffff81111561130857611307610ef1565b5b6113148582860161124b565b9150509250929050565b600082825260208201905092915050565b7f416363657373436f6e74726f6c3a2063616e206f6e6c792072656e6f756e636560008201527f20726f6c657320666f722073656c660000000000000000000000000000000000602082015250565b600061138b602f8361131e565b91506113968261132f565b604082019050919050565b600060208201905081810360008301526113ba8161137e565b9050919050565b7f4f776e61626c653a206e6577206f776e657220697320746865207a65726f206160008201527f6464726573730000000000000000000000000000000000000000000000000000602082015250565b600061141d60268361131e565b9150611428826113c1565b604082019050919050565b6000602082019050818103600083015261144c81611410565b9050919050565b6000819050919050565b7f4e487b7100000000000000000000000000000000000000000000000000000000600052601160045260246000fd5b600061149782611453565b91506114a283611453565b92508282039050818111156114ba576114b961145d565b5b92915050565b7f4e487b7100000000000000000000000000000000000000000000000000000000600052603260045260246000fd5b7f4e487b7100000000000000000000000000000000000000000000000000000000600052602260045260246000fd5b6000600282049050600182168061153657607f821691505b602082108103611549576115486114ef565b5b50919050565b600081905092915050565b60008190508160005260206000209050919050565b6000815461157c8161151e565b611586818661154f565b945060018216600081146115a157600181146115b6576115e9565b60ff19831686528115158202860193506115e9565b6115bf8561155a565b60005b838110156115e1578154818901526001820191506020810190506115c2565b838801955050505b50505092915050565b60006115fe828461156f565b915081905092915050565b600081519050919050565b60005b83811015611632578082015181840152602081019050611617565b60008484015250505050565b600061164982611609565b611653818561154f565b9350611663818560208601611614565b80840191505092915050565b600061167b828461163e565b915081905092915050565b600061169182611453565b915061169c83611453565b92508282019050808211156116b4576116b361145d565b5b92915050565b6000815490506116c98161151e565b9050919050565b60008190508160005260206000209050919050565b60006020601f8301049050919050565b600082821b905092915050565b6000600883026117327fffffffffffffffffffffffffffffffffffffffffffffffffffffffffffffffff826116f5565b61173c86836116f5565b95508019841693508086168417925050509392505050565b6000819050919050565b600061177961177461176f84611453565b611754565b611453565b9050919050565b6000819050919050565b6117938361175e565b6117a761179f82611780565b848454611702565b825550505050565b600090565b6117bc6117af565b6117c781848461178a565b505050565b5b818110156117eb576117e06000826117b4565b6001810190506117cd565b5050565b601f821115611830576118018161155a565b61180a846116e5565b81016020851015611819578190505b61182d611825856116e5565b8301826117cc565b50505b505050565b600082821c905092915050565b600061185360001984600802611835565b1980831691505092915050565b600061186c8383611842565b9150826002028217905092915050565b81810361188a575050611962565b611893826116ba565b67ffffffffffffffff8111156118ac576118ab61114e565b5b6118b6825461151e565b6118c18282856117ef565b6000601f8311600181146118f057600084156118de578287015490505b6118e88582611860565b86555061195b565b601f1984166118fe876116d0565b96506119098661155a565b60005b828110156119315784890154825560018201915060018501945060208101905061190c565b8683101561194e578489015461194a601f891682611842565b8355505b6001600288020188555050505b5050505050505b565b600061196f82611453565b91507fffffffffffffffffffffffffffffffffffffffffffffffffffffffffffffffff82036119a1576119a061145d565b5b600182019050919050565b7f4e487b7100000000000000000000000000000000000000000000000000000000600052603160045260246000fd5b6119e482611609565b67ffffffffffffffff8111156119fd576119fc61114e565b5b611a07825461151e565b611a128282856117ef565b600060209050601f831160018114611a455760008415611a33578287015190505b611a3d8582611860565b865550611aa5565b601f198416611a538661155a565b60005b82811015611a7b57848901518255600182019150602085019450602081019050611a56565b86831015611a985784890151611a94601f891682611842565b8355505b6001600288020188555050505b505050505050565b7f4f776e61626c653a2063616c6c6572206973206e6f7420746865206f776e6572600082015250565b6000611ae360208361131e565b9150611aee82611aad565b602082019050919050565b60006020820190508181036000830152611b1281611ad6565b9050919050565b7f416363657373436f6e74726f6c3a206163636f756e7420000000000000000000600082015250565b6000611b4f60178361154f565b9150611b5a82611b19565b601782019050919050565b7f206973206d697373696e6720726f6c6520000000000000000000000000000000600082015250565b6000611b9b60118361154f565b9150611ba682611b65565b601182019050919050565b6000611bbc82611b42565b9150611bc8828561163e565b9150611bd382611b8e565b9150611bdf828461163e565b91508190509392505050565b6000611bf682611609565b611c00818561131e565b9350611c10818560208601611614565b611c198161113d565b840191505092915050565b60006020820190508181036000830152611c3e8184611beb565b905092915050565b6000611c5182611453565b9150611c5c83611453565b9250828202611c6a81611453565b91508282048414831517611c8157611c8061145d565b5b5092915050565b6000611c9382611453565b915060008203611ca657611ca561145d565b5b600182039050919050565b7f537472696e67733a20686578206c656e67746820696e73756666696369656e74600082015250565b6000611ce760208361131e565b9150611cf282611cb1565b602082019050919050565b60006020820190508181036000830152611d1681611cda565b905091905056fea2646970667358221220174c2148e7b8ffcaf572c36e548f2e3a5d4d3f09991ecd80e5dc5b33e6729b4764736f6c63430008120033",
					"opcodes": "PUSH1 0x80 PUSH1 0x40 MSTORE CALLVALUE DUP1 ISZERO PUSH2 0x10 JUMPI PUSH1 0x0 DUP1 REVERT JUMPDEST POP CALLER PUSH2 0x21 DUP2 PUSH2 0x27 PUSH1 0x20 SHL PUSH1 0x20 SHR JUMP JUMPDEST POP PUSH2 0xEB JUMP JUMPDEST PUSH1 0x0 DUP1 PUSH1 0x0 SWAP1 SLOAD SWAP1 PUSH2 0x100 EXP SWAP1 DIV PUSH20 0xFFFFFFFFFFFFFFFFFFFFFFFFFFFFFFFFFFFFFFFF AND SWAP1 POP DUP2 PUSH1 0x0 DUP1 PUSH2 0x100 EXP DUP2 SLOAD DUP2 PUSH20 0xFFFFFFFFFFFFFFFFFFFFFFFFFFFFFFFFFFFFFFFF MUL NOT AND SWAP1 DUP4 PUSH20 0xFFFFFFFFFFFFFFFFFFFFFFFFFFFFFFFFFFFFFFFF AND MUL OR SWAP1 SSTORE POP DUP2 PUSH20 0xFFFFFFFFFFFFFFFFFFFFFFFFFFFFFFFFFFFFFFFF AND DUP2 PUSH20 0xFFFFFFFFFFFFFFFFFFFFFFFFFFFFFFFFFFFFFFFF AND PUSH32 0x8BE0079C531659141344CD1FD0A4F28419497F9722A3DAAFE3B4186F6B6457E0 PUSH1 0x40 MLOAD PUSH1 0x40 MLOAD DUP1 SWAP2 SUB SWAP1 LOG3 POP POP JUMP JUMPDEST PUSH2 0x1D53 DUP1 PUSH2 0xFA PUSH1 0x0 CODECOPY PUSH1 0x0 RETURN INVALID PUSH1 0x80 PUSH1 0x40 MSTORE CALLVALUE DUP1 ISZERO PUSH2 0x10 JUMPI PUSH1 0x0 DUP1 REVERT JUMPDEST POP PUSH1 0x4 CALLDATASIZE LT PUSH2 0xA9 JUMPI PUSH1 0x0 CALLDATALOAD PUSH1 0xE0 SHR DUP1 PUSH4 0x91D14854 GT PUSH2 0x71 JUMPI DUP1 PUSH4 0x91D14854 EQ PUSH2 0x164 JUMPI DUP1 PUSH4 0xA217FDDF EQ PUSH2 0x194 JUMPI DUP1 PUSH4 0xC8164863 EQ PUSH2 0x1B2 JUMPI DUP1 PUSH4 0xF2FDE38B EQ PUSH2 0x1E2 JUMPI DUP1 PUSH4 0xF3064211 EQ PUSH2 0x1FE JUMPI DUP1 PUSH4 0xF9AD4D73 EQ PUSH2 0x21A JUMPI PUSH2 0xA9 JUMP JUMPDEST DUP1 PUSH4 0x1FFC9A7 EQ PUSH2 0xAE JUMPI DUP1 PUSH4 0x248A9CA3 EQ PUSH2 0xDE JUMPI DUP1 PUSH4 0x36568ABE EQ PUSH2 0x10E JUMPI DUP1 PUSH4 0x4420E486 EQ PUSH2 0x12A JUMPI DUP1 PUSH4 0x8DA5CB5B EQ PUSH2 0x146 JUMPI JUMPDEST PUSH1 0x0 DUP1 REVERT JUMPDEST PUSH2 0xC8 PUSH1 0x4 DUP1 CALLDATASIZE SUB DUP2 ADD SWAP1 PUSH2 0xC3 SWAP2 SWAP1 PUSH2 0xF4E JUMP JUMPDEST PUSH2 0x236 JUMP JUMPDEST PUSH1 0x40 MLOAD PUSH2 0xD5 SWAP2 SWAP1 PUSH2 0xF96 JUMP JUMPDEST PUSH1 0x40 MLOAD DUP1 SWAP2 SUB SWAP1 RETURN JUMPDEST PUSH2 0xF8 PUSH1 0x4 DUP1 CALLDATASIZE SUB DUP2 ADD SWAP1 PUSH2 0xF3 SWAP2 SWAP1 PUSH2 0xFE7 JUMP JUMPDEST PUSH2 0x2A0 JUMP JUMPDEST PUSH1 0x40 MLOAD PUSH2 0x105 SWAP2 SWAP1 PUSH2 0x1023 JUMP JUMPDEST PUSH1 0x40 MLOAD DUP1 SWAP2 SUB SWAP1 RETURN JUMPDEST PUSH2 0x128 PUSH1 0x4 DUP1 CALLDATASIZE SUB DUP2 ADD SWAP1 PUSH2 0x123 SWAP2 SWAP1 PUSH2 0x109C JUMP JUMPDEST PUSH2 0x2C0 JUMP JUMPDEST STOP JUMPDEST PUSH2 0x144 PUSH1 0x4 DUP1 CALLDATASIZE SUB DUP2 ADD SWAP1 PUSH2 0x13F SWAP2 SWAP1 PUSH2 0x10DC JUMP JUMPDEST PUSH2 0x35E JUMP JUMPDEST STOP JUMPDEST PUSH2 0x14E PUSH2 0x380 JUMP JUMPDEST PUSH1 0x40 MLOAD PUSH2 0x15B SWAP2 SWAP1 PUSH2 0x1118 JUMP JUMPDEST PUSH1 0x40 MLOAD DUP1 SWAP2 SUB SWAP1 RETURN JUMPDEST PUSH2 0x17E PUSH1 0x4 DUP1 CALLDATASIZE SUB DUP2 ADD SWAP1 PUSH2 0x179 SWAP2 SWAP1 PUSH2 0x109C JUMP JUMPDEST PUSH2 0x3A9 JUMP JUMPDEST PUSH1 0x40 MLOAD PUSH2 0x18B SWAP2 SWAP1 PUSH2 0xF96 JUMP JUMPDEST PUSH1 0x40 MLOAD DUP1 SWAP2 SUB SWAP1 RETURN JUMPDEST PUSH2 0x19C PUSH2 0x414 JUMP JUMPDEST PUSH1 0x40 MLOAD PUSH2 0x1A9 SWAP2 SWAP1 PUSH2 0x1023 JUMP JUMPDEST PUSH1 0x40 MLOAD DUP1 SWAP2 SUB SWAP1 RETURN JUMPDEST PUSH2 0x1CC PUSH1 0x4 DUP1 CALLDATASIZE SUB DUP2 ADD SWAP1 PUSH2 0x1C7 SWAP2 SWAP1 PUSH2 0x1279 JUMP JUMPDEST PUSH2 0x41B JUMP JUMPDEST PUSH1 0x40 MLOAD PUSH2 0x1D9 SWAP2 SWAP1 PUSH2 0xF96 JUMP JUMPDEST PUSH1 0x40 MLOAD DUP1 SWAP2 SUB SWAP1 RETURN JUMPDEST PUSH2 0x1FC PUSH1 0x4 DUP1 CALLDATASIZE SUB DUP2 ADD SWAP1 PUSH2 0x1F7 SWAP2 SWAP1 PUSH2 0x10DC JUMP JUMPDEST PUSH2 0x432 JUMP JUMPDEST STOP JUMPDEST PUSH2 0x218 PUSH1 0x4 DUP1 CALLDATASIZE SUB DUP2 ADD SWAP1 PUSH2 0x213 SWAP2 SWAP1 PUSH2 0x12C2 JUMP JUMPDEST PUSH2 0x4D8 JUMP JUMPDEST STOP JUMPDEST PUSH2 0x234 PUSH1 0x4 DUP1 CALLDATASIZE SUB DUP2 ADD SWAP1 PUSH2 0x22F SWAP2 SWAP1 PUSH2 0x12C2 JUMP JUMPDEST PUSH2 0x6A8 JUMP JUMPDEST STOP JUMPDEST PUSH1 0x0 PUSH32 0x1FFC9A700000000000000000000000000000000000000000000000000000000 PUSH28 0xFFFFFFFFFFFFFFFFFFFFFFFFFFFFFFFFFFFFFFFFFFFFFFFFFFFFFFFF NOT AND DUP3 PUSH28 0xFFFFFFFFFFFFFFFFFFFFFFFFFFFFFFFFFFFFFFFFFFFFFFFFFFFFFFFF NOT AND EQ SWAP1 POP SWAP2 SWAP1 POP JUMP JUMPDEST PUSH1 0x0 PUSH1 0x1 PUSH1 0x0 DUP4 DUP2 MSTORE PUSH1 0x20 ADD SWAP1 DUP2 MSTORE PUSH1 0x20 ADD PUSH1 0x0 KECCAK256 PUSH1 0x1 ADD SLOAD SWAP1 POP SWAP2 SWAP1 POP JUMP JUMPDEST PUSH1 0x2 PUSH1 0x0 SWAP1 SLOAD SWAP1 PUSH2 0x100 EXP SWAP1 DIV PUSH20 0xFFFFFFFFFFFFFFFFFFFFFFFFFFFFFFFFFFFFFFFF AND PUSH20 0xFFFFFFFFFFFFFFFFFFFFFFFFFFFFFFFFFFFFFFFF AND DUP2 PUSH20 0xFFFFFFFFFFFFFFFFFFFFFFFFFFFFFFFFFFFFFFFF AND EQ PUSH2 0x350 JUMPI PUSH1 0x40 MLOAD PUSH32 0x8C379A000000000000000000000000000000000000000000000000000000000 DUP2 MSTORE PUSH1 0x4 ADD PUSH2 0x347 SWAP1 PUSH2 0x13A1 JUMP JUMPDEST PUSH1 0x40 MLOAD DUP1 SWAP2 SUB SWAP1 REVERT JUMPDEST PUSH2 0x35A DUP3 DUP3 PUSH2 0x71E JUMP JUMPDEST POP POP JUMP JUMPDEST PUSH2 0x367 DUP2 PUSH2 0x432 JUMP JUMPDEST PUSH2 0x370 DUP2 PUSH2 0x81B JUMP JUMPDEST PUSH2 0x37D PUSH1 0x0 DUP1 SHL DUP3 PUSH2 0x86A JUMP JUMPDEST POP JUMP JUMPDEST PUSH1 0x0 DUP1 PUSH1 0x0 SWAP1 SLOAD SWAP1 PUSH2 0x100 EXP SWAP1 DIV PUSH20 0xFFFFFFFFFFFFFFFFFFFFFFFFFFFFFFFFFFFFFFFF AND SWAP1 POP SWAP1 JUMP JUMPDEST PUSH1 0x0 PUSH1 0x1 PUSH1 0x0 DUP5 DUP2 MSTORE PUSH1 0x20 ADD SWAP1 DUP2 MSTORE PUSH1 0x20 ADD PUSH1 0x0 KECCAK256 PUSH1 0x0 ADD PUSH1 0x0 DUP4 PUSH20 0xFFFFFFFFFFFFFFFFFFFFFFFFFFFFFFFFFFFFFFFF AND PUSH20 0xFFFFFFFFFFFFFFFFFFFFFFFFFFFFFFFFFFFFFFFF AND DUP2 MSTORE PUSH1 0x20 ADD SWAP1 DUP2 MSTORE PUSH1 0x20 ADD PUSH1 0x0 KECCAK256 PUSH1 0x0 SWAP1 SLOAD SWAP1 PUSH2 0x100 EXP SWAP1 DIV PUSH1 0xFF AND SWAP1 POP SWAP3 SWAP2 POP POP JUMP JUMPDEST PUSH1 0x0 DUP1 SHL DUP2 JUMP JUMPDEST PUSH1 0x0 DUP1 PUSH2 0x427 DUP4 PUSH2 0x8A5 JUMP JUMPDEST SWAP1 POP DUP1 SWAP2 POP POP SWAP2 SWAP1 POP JUMP JUMPDEST PUSH1 0x0 DUP1 SLOAD SWAP1 PUSH2 0x100 EXP SWAP1 DIV PUSH20 0xFFFFFFFFFFFFFFFFFFFFFFFFFFFFFFFFFFFFFFFF AND PUSH2 0x45C DUP2 PUSH2 0x960 JUMP JUMPDEST PUSH1 0x0 PUSH20 0xFFFFFFFFFFFFFFFFFFFFFFFFFFFFFFFFFFFFFFFF AND DUP3 PUSH20 0xFFFFFFFFFFFFFFFFFFFFFFFFFFFFFFFFFFFFFFFF AND SUB PUSH2 0x4CB JUMPI PUSH1 0x40 MLOAD PUSH32 0x8C379A000000000000000000000000000000000000000000000000000000000 DUP2 MSTORE PUSH1 0x4 ADD PUSH2 0x4C2 SWAP1 PUSH2 0x1433 JUMP JUMPDEST PUSH1 0x40 MLOAD DUP1 SWAP2 SUB SWAP1 REVERT JUMPDEST PUSH2 0x4D4 DUP3 PUSH2 0x9D8 JUMP JUMPDEST POP POP JUMP JUMPDEST DUP2 PUSH2 0x4E2 DUP2 PUSH2 0x960 JUMP JUMPDEST PUSH1 0x0 DUP1 SHL DUP4 PUSH2 0x4F1 DUP3 DUP3 PUSH2 0xA9C JUMP JUMPDEST PUSH1 0x0 PUSH32 0xFFFFFFFFFFFFFFFFFFFFFFFFFFFFFFFFFFFFFFFFFFFFFFFFFFFFFFFFFFFFFFFF SWAP1 POP PUSH1 0x0 JUMPDEST PUSH1 0x1 PUSH1 0x3 DUP1 SLOAD SWAP1 POP PUSH2 0x52B SWAP2 SWAP1 PUSH2 0x148C JUMP JUMPDEST DUP2 LT ISZERO PUSH2 0x66F JUMPI PUSH1 0x0 PUSH1 0x3 DUP3 DUP2 SLOAD DUP2 LT PUSH2 0x548 JUMPI PUSH2 0x547 PUSH2 0x14C0 JUMP JUMPDEST JUMPDEST SWAP1 PUSH1 0x0 MSTORE PUSH1 0x20 PUSH1 0x0 KECCAK256 ADD PUSH1 0x40 MLOAD PUSH1 0x20 ADD PUSH2 0x562 SWAP2 SWAP1 PUSH2 0x15F2 JUMP JUMPDEST PUSH1 0x40 MLOAD PUSH1 0x20 DUP2 DUP4 SUB SUB DUP2 MSTORE SWAP1 PUSH1 0x40 MSTORE DUP1 MLOAD SWAP1 PUSH1 0x20 ADD KECCAK256 DUP8 PUSH1 0x40 MLOAD PUSH1 0x20 ADD PUSH2 0x589 SWAP2 SWAP1 PUSH2 0x166F JUMP JUMPDEST PUSH1 0x40 MLOAD PUSH1 0x20 DUP2 DUP4 SUB SUB DUP2 MSTORE SWAP1 PUSH1 0x40 MSTORE DUP1 MLOAD SWAP1 PUSH1 0x20 ADD KECCAK256 EQ SWAP1 POP PUSH32 0xFFFFFFFFFFFFFFFFFFFFFFFFFFFFFFFFFFFFFFFFFFFFFFFFFFFFFFFFFFFFFFFF DUP4 EQ DUP1 ISZERO PUSH2 0x5D5 JUMPI POP PUSH1 0x1 ISZERO ISZERO DUP2 ISZERO ISZERO EQ JUMPDEST ISZERO PUSH2 0x5DE JUMPI DUP2 SWAP3 POP JUMPDEST PUSH32 0xFFFFFFFFFFFFFFFFFFFFFFFFFFFFFFFFFFFFFFFFFFFFFFFFFFFFFFFFFFFFFFFF DUP4 EQ PUSH2 0x65B JUMPI PUSH1 0x3 PUSH1 0x1 DUP4 PUSH2 0x614 SWAP2 SWAP1 PUSH2 0x1686 JUMP JUMPDEST DUP2 SLOAD DUP2 LT PUSH2 0x625 JUMPI PUSH2 0x624 PUSH2 0x14C0 JUMP JUMPDEST JUMPDEST SWAP1 PUSH1 0x0 MSTORE PUSH1 0x20 PUSH1 0x0 KECCAK256 ADD PUSH1 0x3 DUP4 DUP2 SLOAD DUP2 LT PUSH2 0x643 JUMPI PUSH2 0x642 PUSH2 0x14C0 JUMP JUMPDEST JUMPDEST SWAP1 PUSH1 0x0 MSTORE PUSH1 0x20 PUSH1 0x0 KECCAK256 ADD SWAP1 DUP2 PUSH2 0x659 SWAP2 SWAP1 PUSH2 0x187C JUMP JUMPDEST POP JUMPDEST POP DUP1 DUP1 PUSH2 0x667 SWAP1 PUSH2 0x1964 JUMP JUMPDEST SWAP2 POP POP PUSH2 0x519 JUMP JUMPDEST POP PUSH1 0x3 DUP1 SLOAD DUP1 PUSH2 0x682 JUMPI PUSH2 0x681 PUSH2 0x19AC JUMP JUMPDEST JUMPDEST PUSH1 0x1 SWAP1 SUB DUP2 DUP2 SWAP1 PUSH1 0x0 MSTORE PUSH1 0x20 PUSH1 0x0 KECCAK256 ADD PUSH1 0x0 PUSH2 0x69E SWAP2 SWAP1 PUSH2 0xE85 JUMP JUMPDEST SWAP1 SSTORE POP POP POP POP POP POP JUMP JUMPDEST DUP2 PUSH2 0x6B2 DUP2 PUSH2 0x960 JUMP JUMPDEST PUSH1 0x0 DUP1 SHL DUP4 PUSH2 0x6C1 DUP3 DUP3 PUSH2 0xA9C JUMP JUMPDEST PUSH1 0x0 PUSH2 0x6CC DUP6 PUSH2 0x8A5 JUMP JUMPDEST SWAP1 POP PUSH1 0x1 ISZERO ISZERO DUP2 ISZERO ISZERO SUB PUSH2 0x6E0 JUMPI POP PUSH2 0x717 JUMP JUMPDEST PUSH1 0x3 DUP6 SWAP1 DUP1 PUSH1 0x1 DUP2 SLOAD ADD DUP1 DUP3 SSTORE DUP1 SWAP2 POP POP PUSH1 0x1 SWAP1 SUB SWAP1 PUSH1 0x0 MSTORE PUSH1 0x20 PUSH1 0x0 KECCAK256 ADD PUSH1 0x0 SWAP1 SWAP2 SWAP1 SWAP2 SWAP1 SWAP2 POP SWAP1 DUP2 PUSH2 0x714 SWAP2 SWAP1 PUSH2 0x19DB JUMP JUMPDEST POP POP JUMPDEST POP POP POP POP POP JUMP JUMPDEST PUSH2 0x728 DUP3 DUP3 PUSH2 0x3A9 JUMP JUMPDEST ISZERO PUSH2 0x817 JUMPI PUSH1 0x0 PUSH1 0x1 PUSH1 0x0 DUP5 DUP2 MSTORE PUSH1 0x20 ADD SWAP1 DUP2 MSTORE PUSH1 0x20 ADD PUSH1 0x0 KECCAK256 PUSH1 0x0 ADD PUSH1 0x0 DUP4 PUSH20 0xFFFFFFFFFFFFFFFFFFFFFFFFFFFFFFFFFFFFFFFF AND PUSH20 0xFFFFFFFFFFFFFFFFFFFFFFFFFFFFFFFFFFFFFFFF AND DUP2 MSTORE PUSH1 0x20 ADD SWAP1 DUP2 MSTORE PUSH1 0x20 ADD PUSH1 0x0 KECCAK256 PUSH1 0x0 PUSH2 0x100 EXP DUP2 SLOAD DUP2 PUSH1 0xFF MUL NOT AND SWAP1 DUP4 ISZERO ISZERO MUL OR SWAP1 SSTORE POP PUSH1 0x2 PUSH1 0x0 SWAP1 SLOAD SWAP1 PUSH2 0x100 EXP SWAP1 DIV PUSH20 0xFFFFFFFFFFFFFFFFFFFFFFFFFFFFFFFFFFFFFFFF AND PUSH20 0xFFFFFFFFFFFFFFFFFFFFFFFFFFFFFFFFFFFFFFFF AND DUP2 PUSH20 0xFFFFFFFFFFFFFFFFFFFFFFFFFFFFFFFFFFFFFFFF AND DUP4 PUSH32 0xF6391F5C32D9C69D2A47EA670B442974B53935D1EDC7FD64EB21E047A839171B PUSH1 0x40 MLOAD PUSH1 0x40 MLOAD DUP1 SWAP2 SUB SWAP1 LOG4 JUMPDEST POP POP JUMP JUMPDEST DUP1 PUSH2 0x825 DUP2 PUSH2 0x960 JUMP JUMPDEST DUP2 PUSH1 0x2 PUSH1 0x0 PUSH2 0x100 EXP DUP2 SLOAD DUP2 PUSH20 0xFFFFFFFFFFFFFFFFFFFFFFFFFFFFFFFFFFFFFFFF MUL NOT AND SWAP1 DUP4 PUSH20 0xFFFFFFFFFFFFFFFFFFFFFFFFFFFFFFFFFFFFFFFF AND MUL OR SWAP1 SSTORE POP POP POP JUMP JUMPDEST PUSH1 0x2 PUSH1 0x0 SWAP1 SLOAD SWAP1 PUSH2 0x100 EXP SWAP1 DIV PUSH20 0xFFFFFFFFFFFFFFFFFFFFFFFFFFFFFFFFFFFFFFFF AND PUSH2 0x896 DUP2 PUSH2 0x960 JUMP JUMPDEST PUSH2 0x8A0 DUP4 DUP4 PUSH2 0xB21 JUMP JUMPDEST POP POP POP JUMP JUMPDEST PUSH1 0x0 DUP1 PUSH1 0x0 SWAP1 POP JUMPDEST PUSH1 0x3 DUP1 SLOAD SWAP1 POP DUP2 LT ISZERO PUSH2 0x955 JUMPI PUSH1 0x0 PUSH1 0x3 DUP3 DUP2 SLOAD DUP2 LT PUSH2 0x8D0 JUMPI PUSH2 0x8CF PUSH2 0x14C0 JUMP JUMPDEST JUMPDEST SWAP1 PUSH1 0x0 MSTORE PUSH1 0x20 PUSH1 0x0 KECCAK256 ADD PUSH1 0x40 MLOAD PUSH1 0x20 ADD PUSH2 0x8EA SWAP2 SWAP1 PUSH2 0x15F2 JUMP JUMPDEST PUSH1 0x40 MLOAD PUSH1 0x20 DUP2 DUP4 SUB SUB DUP2 MSTORE SWAP1 PUSH1 0x40 MSTORE DUP1 MLOAD SWAP1 PUSH1 0x20 ADD KECCAK256 DUP5 PUSH1 0x40 MLOAD PUSH1 0x20 ADD PUSH2 0x911 SWAP2 SWAP1 PUSH2 0x166F JUMP JUMPDEST PUSH1 0x40 MLOAD PUSH1 0x20 DUP2 DUP4 SUB SUB DUP2 MSTORE SWAP1 PUSH1 0x40 MSTORE DUP1 MLOAD SWAP1 PUSH1 0x20 ADD KECCAK256 EQ SWAP1 POP PUSH1 0x1 ISZERO ISZERO DUP2 ISZERO ISZERO SUB PUSH2 0x941 JUMPI PUSH1 0x1 SWAP3 POP POP POP PUSH2 0x95B JUMP JUMPDEST POP DUP1 DUP1 PUSH2 0x94D SWAP1 PUSH2 0x1964 JUMP JUMPDEST SWAP2 POP POP PUSH2 0x8AD JUMP JUMPDEST POP PUSH1 0x0 SWAP1 POP JUMPDEST SWAP2 SWAP1 POP JUMP JUMPDEST DUP1 PUSH20 0xFFFFFFFFFFFFFFFFFFFFFFFFFFFFFFFFFFFFFFFF AND PUSH2 0x97F PUSH2 0x380 JUMP JUMPDEST PUSH20 0xFFFFFFFFFFFFFFFFFFFFFFFFFFFFFFFFFFFFFFFF AND EQ PUSH2 0x9D5 JUMPI PUSH1 0x40 MLOAD PUSH32 0x8C379A000000000000000000000000000000000000000000000000000000000 DUP2 MSTORE PUSH1 0x4 ADD PUSH2 0x9CC SWAP1 PUSH2 0x1AF9 JUMP JUMPDEST PUSH1 0x40 MLOAD DUP1 SWAP2 SUB SWAP1 REVERT JUMPDEST POP JUMP JUMPDEST PUSH1 0x0 DUP1 PUSH1 0x0 SWAP1 SLOAD SWAP1 PUSH2 0x100 EXP SWAP1 DIV PUSH20 0xFFFFFFFFFFFFFFFFFFFFFFFFFFFFFFFFFFFFFFFF AND SWAP1 POP DUP2 PUSH1 0x0 DUP1 PUSH2 0x100 EXP DUP2 SLOAD DUP2 PUSH20 0xFFFFFFFFFFFFFFFFFFFFFFFFFFFFFFFFFFFFFFFF MUL NOT AND SWAP1 DUP4 PUSH20 0xFFFFFFFFFFFFFFFFFFFFFFFFFFFFFFFFFFFFFFFF AND MUL OR SWAP1 SSTORE POP DUP2 PUSH20 0xFFFFFFFFFFFFFFFFFFFFFFFFFFFFFFFFFFFFFFFF AND DUP2 PUSH20 0xFFFFFFFFFFFFFFFFFFFFFFFFFFFFFFFFFFFFFFFF AND PUSH32 0x8BE0079C531659141344CD1FD0A4F28419497F9722A3DAAFE3B4186F6B6457E0 PUSH1 0x40 MLOAD PUSH1 0x40 MLOAD DUP1 SWAP2 SUB SWAP1 LOG3 POP POP JUMP JUMPDEST PUSH2 0xAA6 DUP3 DUP3 PUSH2 0x3A9 JUMP JUMPDEST PUSH2 0xB1D JUMPI PUSH2 0xAB3 DUP2 PUSH2 0xC1C JUMP JUMPDEST PUSH2 0xAC1 DUP4 PUSH1 0x0 SHR PUSH1 0x20 PUSH2 0xC49 JUMP JUMPDEST PUSH1 0x40 MLOAD PUSH1 0x20 ADD PUSH2 0xAD2 SWAP3 SWAP2 SWAP1 PUSH2 0x1BB1 JUMP JUMPDEST PUSH1 0x40 MLOAD PUSH1 0x20 DUP2 DUP4 SUB SUB DUP2 MSTORE SWAP1 PUSH1 0x40 MSTORE PUSH1 0x40 MLOAD PUSH32 0x8C379A000000000000000000000000000000000000000000000000000000000 DUP2 MSTORE PUSH1 0x4 ADD PUSH2 0xB14 SWAP2 SWAP1 PUSH2 0x1C24 JUMP JUMPDEST PUSH1 0x40 MLOAD DUP1 SWAP2 SUB SWAP1 REVERT JUMPDEST POP POP JUMP JUMPDEST PUSH2 0xB2B DUP3 DUP3 PUSH2 0x3A9 JUMP JUMPDEST PUSH2 0xC18 JUMPI PUSH1 0x1 DUP1 PUSH1 0x0 DUP5 DUP2 MSTORE PUSH1 0x20 ADD SWAP1 DUP2 MSTORE PUSH1 0x20 ADD PUSH1 0x0 KECCAK256 PUSH1 0x0 ADD PUSH1 0x0 DUP4 PUSH20 0xFFFFFFFFFFFFFFFFFFFFFFFFFFFFFFFFFFFFFFFF AND PUSH20 0xFFFFFFFFFFFFFFFFFFFFFFFFFFFFFFFFFFFFFFFF AND DUP2 MSTORE PUSH1 0x20 ADD SWAP1 DUP2 MSTORE PUSH1 0x20 ADD PUSH1 0x0 KECCAK256 PUSH1 0x0 PUSH2 0x100 EXP DUP2 SLOAD DUP2 PUSH1 0xFF MUL NOT AND SWAP1 DUP4 ISZERO ISZERO MUL OR SWAP1 SSTORE POP PUSH1 0x2 PUSH1 0x0 SWAP1 SLOAD SWAP1 PUSH2 0x100 EXP SWAP1 DIV PUSH20 0xFFFFFFFFFFFFFFFFFFFFFFFFFFFFFFFFFFFFFFFF AND PUSH20 0xFFFFFFFFFFFFFFFFFFFFFFFFFFFFFFFFFFFFFFFF AND DUP2 PUSH20 0xFFFFFFFFFFFFFFFFFFFFFFFFFFFFFFFFFFFFFFFF AND DUP4 PUSH32 0x2F8788117E7EFF1D82E926EC794901D17C78024A50270940304540A733656F0D PUSH1 0x40 MLOAD PUSH1 0x40 MLOAD DUP1 SWAP2 SUB SWAP1 LOG4 JUMPDEST POP POP JUMP JUMPDEST PUSH1 0x60 PUSH2 0xC42 DUP3 PUSH20 0xFFFFFFFFFFFFFFFFFFFFFFFFFFFFFFFFFFFFFFFF AND PUSH1 0x14 PUSH1 0xFF AND PUSH2 0xC49 JUMP JUMPDEST SWAP1 POP SWAP2 SWAP1 POP JUMP JUMPDEST PUSH1 0x60 PUSH1 0x0 PUSH1 0x2 DUP4 PUSH1 0x2 PUSH2 0xC5C SWAP2 SWAP1 PUSH2 0x1C46 JUMP JUMPDEST PUSH2 0xC66 SWAP2 SWAP1 PUSH2 0x1686 JUMP JUMPDEST PUSH8 0xFFFFFFFFFFFFFFFF DUP2 GT ISZERO PUSH2 0xC7F JUMPI PUSH2 0xC7E PUSH2 0x114E JUMP JUMPDEST JUMPDEST PUSH1 0x40 MLOAD SWAP1 DUP1 DUP3 MSTORE DUP1 PUSH1 0x1F ADD PUSH1 0x1F NOT AND PUSH1 0x20 ADD DUP3 ADD PUSH1 0x40 MSTORE DUP1 ISZERO PUSH2 0xCB1 JUMPI DUP2 PUSH1 0x20 ADD PUSH1 0x1 DUP3 MUL DUP1 CALLDATASIZE DUP4 CALLDATACOPY DUP1 DUP3 ADD SWAP2 POP POP SWAP1 POP JUMPDEST POP SWAP1 POP PUSH32 0x3000000000000000000000000000000000000000000000000000000000000000 DUP2 PUSH1 0x0 DUP2 MLOAD DUP2 LT PUSH2 0xCE9 JUMPI PUSH2 0xCE8 PUSH2 0x14C0 JUMP JUMPDEST JUMPDEST PUSH1 0x20 ADD ADD SWAP1 PUSH31 0xFFFFFFFFFFFFFFFFFFFFFFFFFFFFFFFFFFFFFFFFFFFFFFFFFFFFFFFFFFFFFF NOT AND SWAP1 DUP2 PUSH1 0x0 BYTE SWAP1 MSTORE8 POP PUSH32 0x7800000000000000000000000000000000000000000000000000000000000000 DUP2 PUSH1 0x1 DUP2 MLOAD DUP2 LT PUSH2 0xD4D JUMPI PUSH2 0xD4C PUSH2 0x14C0 JUMP JUMPDEST JUMPDEST PUSH1 0x20 ADD ADD SWAP1 PUSH31 0xFFFFFFFFFFFFFFFFFFFFFFFFFFFFFFFFFFFFFFFFFFFFFFFFFFFFFFFFFFFFFF NOT AND SWAP1 DUP2 PUSH1 0x0 BYTE SWAP1 MSTORE8 POP PUSH1 0x0 PUSH1 0x1 DUP5 PUSH1 0x2 PUSH2 0xD8D SWAP2 SWAP1 PUSH2 0x1C46 JUMP JUMPDEST PUSH2 0xD97 SWAP2 SWAP1 PUSH2 0x1686 JUMP JUMPDEST SWAP1 POP JUMPDEST PUSH1 0x1 DUP2 GT ISZERO PUSH2 0xE37 JUMPI PUSH32 0x3031323334353637383961626364656600000000000000000000000000000000 PUSH1 0xF DUP7 AND PUSH1 0x10 DUP2 LT PUSH2 0xDD9 JUMPI PUSH2 0xDD8 PUSH2 0x14C0 JUMP JUMPDEST JUMPDEST BYTE PUSH1 0xF8 SHL DUP3 DUP3 DUP2 MLOAD DUP2 LT PUSH2 0xDF0 JUMPI PUSH2 0xDEF PUSH2 0x14C0 JUMP JUMPDEST JUMPDEST PUSH1 0x20 ADD ADD SWAP1 PUSH31 0xFFFFFFFFFFFFFFFFFFFFFFFFFFFFFFFFFFFFFFFFFFFFFFFFFFFFFFFFFFFFFF NOT AND SWAP1 DUP2 PUSH1 0x0 BYTE SWAP1 MSTORE8 POP PUSH1 0x4 DUP6 SWAP1 SHR SWAP5 POP DUP1 PUSH2 0xE30 SWAP1 PUSH2 0x1C88 JUMP JUMPDEST SWAP1 POP PUSH2 0xD9A JUMP JUMPDEST POP PUSH1 0x0 DUP5 EQ PUSH2 0xE7B JUMPI PUSH1 0x40 MLOAD PUSH32 0x8C379A000000000000000000000000000000000000000000000000000000000 DUP2 MSTORE PUSH1 0x4 ADD PUSH2 0xE72 SWAP1 PUSH2 0x1CFD JUMP JUMPDEST PUSH1 0x40 MLOAD DUP1 SWAP2 SUB SWAP1 REVERT JUMPDEST DUP1 SWAP2 POP POP SWAP3 SWAP2 POP POP JUMP JUMPDEST POP DUP1 SLOAD PUSH2 0xE91 SWAP1 PUSH2 0x151E JUMP JUMPDEST PUSH1 0x0 DUP3 SSTORE DUP1 PUSH1 0x1F LT PUSH2 0xEA3 JUMPI POP PUSH2 0xEC2 JUMP JUMPDEST PUSH1 0x1F ADD PUSH1 0x20 SWAP1 DIV SWAP1 PUSH1 0x0 MSTORE PUSH1 0x20 PUSH1 0x0 KECCAK256 SWAP1 DUP2 ADD SWAP1 PUSH2 0xEC1 SWAP2 SWAP1 PUSH2 0xEC5 JUMP JUMPDEST JUMPDEST POP JUMP JUMPDEST JUMPDEST DUP1 DUP3 GT ISZERO PUSH2 0xEDE JUMPI PUSH1 0x0 DUP2 PUSH1 0x0 SWAP1 SSTORE POP PUSH1 0x1 ADD PUSH2 0xEC6 JUMP JUMPDEST POP SWAP1 JUMP JUMPDEST PUSH1 0x0 PUSH1 0x40 MLOAD SWAP1 POP SWAP1 JUMP JUMPDEST PUSH1 0x0 DUP1 REVERT JUMPDEST PUSH1 0x0 DUP1 REVERT JUMPDEST PUSH1 0x0 PUSH32 0xFFFFFFFF00000000000000000000000000000000000000000000000000000000 DUP3 AND SWAP1 POP SWAP2 SWAP1 POP JUMP JUMPDEST PUSH2 0xF2B DUP2 PUSH2 0xEF6 JUMP JUMPDEST DUP2 EQ PUSH2 0xF36 JUMPI PUSH1 0x0 DUP1 REVERT JUMPDEST POP JUMP JUMPDEST PUSH1 0x0 DUP2 CALLDATALOAD SWAP1 POP PUSH2 0xF48 DUP2 PUSH2 0xF22 JUMP JUMPDEST SWAP3 SWAP2 POP POP JUMP JUMPDEST PUSH1 0x0 PUSH1 0x20 DUP3 DUP5 SUB SLT ISZERO PUSH2 0xF64 JUMPI PUSH2 0xF63 PUSH2 0xEEC JUMP JUMPDEST JUMPDEST PUSH1 0x0 PUSH2 0xF72 DUP5 DUP3 DUP6 ADD PUSH2 0xF39 JUMP JUMPDEST SWAP2 POP POP SWAP3 SWAP2 POP POP JUMP JUMPDEST PUSH1 0x0 DUP2 ISZERO ISZERO SWAP1 POP SWAP2 SWAP1 POP JUMP JUMPDEST PUSH2 0xF90 DUP2 PUSH2 0xF7B JUMP JUMPDEST DUP3 MSTORE POP POP JUMP JUMPDEST PUSH1 0x0 PUSH1 0x20 DUP3 ADD SWAP1 POP PUSH2 0xFAB PUSH1 0x0 DUP4 ADD DUP5 PUSH2 0xF87 JUMP JUMPDEST SWAP3 SWAP2 POP POP JUMP JUMPDEST PUSH1 0x0 DUP2 SWAP1 POP SWAP2 SWAP1 POP JUMP JUMPDEST PUSH2 0xFC4 DUP2 PUSH2 0xFB1 JUMP JUMPDEST DUP2 EQ PUSH2 0xFCF JUMPI PUSH1 0x0 DUP1 REVERT JUMPDEST POP JUMP JUMPDEST PUSH1 0x0 DUP2 CALLDATALOAD SWAP1 POP PUSH2 0xFE1 DUP2 PUSH2 0xFBB JUMP JUMPDEST SWAP3 SWAP2 POP POP JUMP JUMPDEST PUSH1 0x0 PUSH1 0x20 DUP3 DUP5 SUB SLT ISZERO PUSH2 0xFFD JUMPI PUSH2 0xFFC PUSH2 0xEEC JUMP JUMPDEST JUMPDEST PUSH1 0x0 PUSH2 0x100B DUP5 DUP3 DUP6 ADD PUSH2 0xFD2 JUMP JUMPDEST SWAP2 POP POP SWAP3 SWAP2 POP POP JUMP JUMPDEST PUSH2 0x101D DUP2 PUSH2 0xFB1 JUMP JUMPDEST DUP3 MSTORE POP POP JUMP JUMPDEST PUSH1 0x0 PUSH1 0x20 DUP3 ADD SWAP1 POP PUSH2 0x1038 PUSH1 0x0 DUP4 ADD DUP5 PUSH2 0x1014 JUMP JUMPDEST SWAP3 SWAP2 POP POP JUMP JUMPDEST PUSH1 0x0 PUSH20 0xFFFFFFFFFFFFFFFFFFFFFFFFFFFFFFFFFFFFFFFF DUP3 AND SWAP1 POP SWAP2 SWAP1 POP JUMP JUMPDEST PUSH1 0x0 PUSH2 0x1069 DUP3 PUSH2 0x103E JUMP JUMPDEST SWAP1 POP SWAP2 SWAP1 POP JUMP JUMPDEST PUSH2 0x1079 DUP2 PUSH2 0x105E JUMP JUMPDEST DUP2 EQ PUSH2 0x1084 JUMPI PUSH1 0x0 DUP1 REVERT JUMPDEST POP JUMP JUMPDEST PUSH1 0x0 DUP2 CALLDATALOAD SWAP1 POP PUSH2 0x1096 DUP2 PUSH2 0x1070 JUMP JUMPDEST SWAP3 SWAP2 POP POP JUMP JUMPDEST PUSH1 0x0 DUP1 PUSH1 0x40 DUP4 DUP6 SUB SLT ISZERO PUSH2 0x10B3 JUMPI PUSH2 0x10B2 PUSH2 0xEEC JUMP JUMPDEST JUMPDEST PUSH1 0x0 PUSH2 0x10C1 DUP6 DUP3 DUP7 ADD PUSH2 0xFD2 JUMP JUMPDEST SWAP3 POP POP PUSH1 0x20 PUSH2 0x10D2 DUP6 DUP3 DUP7 ADD PUSH2 0x1087 JUMP JUMPDEST SWAP2 POP POP SWAP3 POP SWAP3 SWAP1 POP JUMP JUMPDEST PUSH1 0x0 PUSH1 0x20 DUP3 DUP5 SUB SLT ISZERO PUSH2 0x10F2 JUMPI PUSH2 0x10F1 PUSH2 0xEEC JUMP JUMPDEST JUMPDEST PUSH1 0x0 PUSH2 0x1100 DUP5 DUP3 DUP6 ADD PUSH2 0x1087 JUMP JUMPDEST SWAP2 POP POP SWAP3 SWAP2 POP POP JUMP JUMPDEST PUSH2 0x1112 DUP2 PUSH2 0x105E JUMP JUMPDEST DUP3 MSTORE POP POP JUMP JUMPDEST PUSH1 0x0 PUSH1 0x20 DUP3 ADD SWAP1 POP PUSH2 0x112D PUSH1 0x0 DUP4 ADD DUP5 PUSH2 0x1109 JUMP JUMPDEST SWAP3 SWAP2 POP POP JUMP JUMPDEST PUSH1 0x0 DUP1 REVERT JUMPDEST PUSH1 0x0 DUP1 REVERT JUMPDEST PUSH1 0x0 PUSH1 0x1F NOT PUSH1 0x1F DUP4 ADD AND SWAP1 POP SWAP2 SWAP1 POP JUMP JUMPDEST PUSH32 0x4E487B7100000000000000000000000000000000000000000000000000000000 PUSH1 0x0 MSTORE PUSH1 0x41 PUSH1 0x4 MSTORE PUSH1 0x24 PUSH1 0x0 REVERT JUMPDEST PUSH2 0x1186 DUP3 PUSH2 0x113D JUMP JUMPDEST DUP2 ADD DUP2 DUP2 LT PUSH8 0xFFFFFFFFFFFFFFFF DUP3 GT OR ISZERO PUSH2 0x11A5 JUMPI PUSH2 0x11A4 PUSH2 0x114E JUMP JUMPDEST JUMPDEST DUP1 PUSH1 0x40 MSTORE POP POP POP JUMP JUMPDEST PUSH1 0x0 PUSH2 0x11B8 PUSH2 0xEE2 JUMP JUMPDEST SWAP1 POP PUSH2 0x11C4 DUP3 DUP3 PUSH2 0x117D JUMP JUMPDEST SWAP2 SWAP1 POP JUMP JUMPDEST PUSH1 0x0 PUSH8 0xFFFFFFFFFFFFFFFF DUP3 GT ISZERO PUSH2 0x11E4 JUMPI PUSH2 0x11E3 PUSH2 0x114E JUMP JUMPDEST JUMPDEST PUSH2 0x11ED DUP3 PUSH2 0x113D JUMP JUMPDEST SWAP1 POP PUSH1 0x20 DUP2 ADD SWAP1 POP SWAP2 SWAP1 POP JUMP JUMPDEST DUP3 DUP2 DUP4 CALLDATACOPY PUSH1 0x0 DUP4 DUP4 ADD MSTORE POP POP POP JUMP JUMPDEST PUSH1 0x0 PUSH2 0x121C PUSH2 0x1217 DUP5 PUSH2 0x11C9 JUMP JUMPDEST PUSH2 0x11AE JUMP JUMPDEST SWAP1 POP DUP3 DUP2 MSTORE PUSH1 0x20 DUP2 ADD DUP5 DUP5 DUP5 ADD GT ISZERO PUSH2 0x1238 JUMPI PUSH2 0x1237 PUSH2 0x1138 JUMP JUMPDEST JUMPDEST PUSH2 0x1243 DUP5 DUP3 DUP6 PUSH2 0x11FA JUMP JUMPDEST POP SWAP4 SWAP3 POP POP POP JUMP JUMPDEST PUSH1 0x0 DUP3 PUSH1 0x1F DUP4 ADD SLT PUSH2 0x1260 JUMPI PUSH2 0x125F PUSH2 0x1133 JUMP JUMPDEST JUMPDEST DUP2 CALLDATALOAD PUSH2 0x1270 DUP5 DUP3 PUSH1 0x20 DUP7 ADD PUSH2 0x1209 JUMP JUMPDEST SWAP2 POP POP SWAP3 SWAP2 POP POP JUMP JUMPDEST PUSH1 0x0 PUSH1 0x20 DUP3 DUP5 SUB SLT ISZERO PUSH2 0x128F JUMPI PUSH2 0x128E PUSH2 0xEEC JUMP JUMPDEST JUMPDEST PUSH1 0x0 DUP3 ADD CALLDATALOAD PUSH8 0xFFFFFFFFFFFFFFFF DUP2 GT ISZERO PUSH2 0x12AD JUMPI PUSH2 0x12AC PUSH2 0xEF1 JUMP JUMPDEST JUMPDEST PUSH2 0x12B9 DUP5 DUP3 DUP6 ADD PUSH2 0x124B JUMP JUMPDEST SWAP2 POP POP SWAP3 SWAP2 POP POP JUMP JUMPDEST PUSH1 0x0 DUP1 PUSH1 0x40 DUP4 DUP6 SUB SLT ISZERO PUSH2 0x12D9 JUMPI PUSH2 0x12D8 PUSH2 0xEEC JUMP JUMPDEST JUMPDEST PUSH1 0x0 PUSH2 0x12E7 DUP6 DUP3 DUP7 ADD PUSH2 0x1087 JUMP JUMPDEST SWAP3 POP POP PUSH1 0x20 DUP4 ADD CALLDATALOAD PUSH8 0xFFFFFFFFFFFFFFFF DUP2 GT ISZERO PUSH2 0x1308 JUMPI PUSH2 0x1307 PUSH2 0xEF1 JUMP JUMPDEST JUMPDEST PUSH2 0x1314 DUP6 DUP3 DUP7 ADD PUSH2 0x124B JUMP JUMPDEST SWAP2 POP POP SWAP3 POP SWAP3 SWAP1 POP JUMP JUMPDEST PUSH1 0x0 DUP3 DUP3 MSTORE PUSH1 0x20 DUP3 ADD SWAP1 POP SWAP3 SWAP2 POP POP JUMP JUMPDEST PUSH32 0x416363657373436F6E74726F6C3A2063616E206F6E6C792072656E6F756E6365 PUSH1 0x0 DUP3 ADD MSTORE PUSH32 0x20726F6C657320666F722073656C660000000000000000000000000000000000 PUSH1 0x20 DUP3 ADD MSTORE POP JUMP JUMPDEST PUSH1 0x0 PUSH2 0x138B PUSH1 0x2F DUP4 PUSH2 0x131E JUMP JUMPDEST SWAP2 POP PUSH2 0x1396 DUP3 PUSH2 0x132F JUMP JUMPDEST PUSH1 0x40 DUP3 ADD SWAP1 POP SWAP2 SWAP1 POP JUMP JUMPDEST PUSH1 0x0 PUSH1 0x20 DUP3 ADD SWAP1 POP DUP2 DUP2 SUB PUSH1 0x0 DUP4 ADD MSTORE PUSH2 0x13BA DUP2 PUSH2 0x137E JUMP JUMPDEST SWAP1 POP SWAP2 SWAP1 POP JUMP JUMPDEST PUSH32 0x4F776E61626C653A206E6577206F776E657220697320746865207A65726F2061 PUSH1 0x0 DUP3 ADD MSTORE PUSH32 0x6464726573730000000000000000000000000000000000000000000000000000 PUSH1 0x20 DUP3 ADD MSTORE POP JUMP JUMPDEST PUSH1 0x0 PUSH2 0x141D PUSH1 0x26 DUP4 PUSH2 0x131E JUMP JUMPDEST SWAP2 POP PUSH2 0x1428 DUP3 PUSH2 0x13C1 JUMP JUMPDEST PUSH1 0x40 DUP3 ADD SWAP1 POP SWAP2 SWAP1 POP JUMP JUMPDEST PUSH1 0x0 PUSH1 0x20 DUP3 ADD SWAP1 POP DUP2 DUP2 SUB PUSH1 0x0 DUP4 ADD MSTORE PUSH2 0x144C DUP2 PUSH2 0x1410 JUMP JUMPDEST SWAP1 POP SWAP2 SWAP1 POP JUMP JUMPDEST PUSH1 0x0 DUP2 SWAP1 POP SWAP2 SWAP1 POP JUMP JUMPDEST PUSH32 0x4E487B7100000000000000000000000000000000000000000000000000000000 PUSH1 0x0 MSTORE PUSH1 0x11 PUSH1 0x4 MSTORE PUSH1 0x24 PUSH1 0x0 REVERT JUMPDEST PUSH1 0x0 PUSH2 0x1497 DUP3 PUSH2 0x1453 JUMP JUMPDEST SWAP2 POP PUSH2 0x14A2 DUP4 PUSH2 0x1453 JUMP JUMPDEST SWAP3 POP DUP3 DUP3 SUB SWAP1 POP DUP2 DUP2 GT ISZERO PUSH2 0x14BA JUMPI PUSH2 0x14B9 PUSH2 0x145D JUMP JUMPDEST JUMPDEST SWAP3 SWAP2 POP POP JUMP JUMPDEST PUSH32 0x4E487B7100000000000000000000000000000000000000000000000000000000 PUSH1 0x0 MSTORE PUSH1 0x32 PUSH1 0x4 MSTORE PUSH1 0x24 PUSH1 0x0 REVERT JUMPDEST PUSH32 0x4E487B7100000000000000000000000000000000000000000000000000000000 PUSH1 0x0 MSTORE PUSH1 0x22 PUSH1 0x4 MSTORE PUSH1 0x24 PUSH1 0x0 REVERT JUMPDEST PUSH1 0x0 PUSH1 0x2 DUP3 DIV SWAP1 POP PUSH1 0x1 DUP3 AND DUP1 PUSH2 0x1536 JUMPI PUSH1 0x7F DUP3 AND SWAP2 POP JUMPDEST PUSH1 0x20 DUP3 LT DUP2 SUB PUSH2 0x1549 JUMPI PUSH2 0x1548 PUSH2 0x14EF JUMP JUMPDEST JUMPDEST POP SWAP2 SWAP1 POP JUMP JUMPDEST PUSH1 0x0 DUP2 SWAP1 POP SWAP3 SWAP2 POP POP JUMP JUMPDEST PUSH1 0x0 DUP2 SWAP1 POP DUP2 PUSH1 0x0 MSTORE PUSH1 0x20 PUSH1 0x0 KECCAK256 SWAP1 POP SWAP2 SWAP1 POP JUMP JUMPDEST PUSH1 0x0 DUP2 SLOAD PUSH2 0x157C DUP2 PUSH2 0x151E JUMP JUMPDEST PUSH2 0x1586 DUP2 DUP7 PUSH2 0x154F JUMP JUMPDEST SWAP5 POP PUSH1 0x1 DUP3 AND PUSH1 0x0 DUP2 EQ PUSH2 0x15A1 JUMPI PUSH1 0x1 DUP2 EQ PUSH2 0x15B6 JUMPI PUSH2 0x15E9 JUMP JUMPDEST PUSH1 0xFF NOT DUP4 AND DUP7 MSTORE DUP2 ISZERO ISZERO DUP3 MUL DUP7 ADD SWAP4 POP PUSH2 0x15E9 JUMP JUMPDEST PUSH2 0x15BF DUP6 PUSH2 0x155A JUMP JUMPDEST PUSH1 0x0 JUMPDEST DUP4 DUP2 LT ISZERO PUSH2 0x15E1 JUMPI DUP2 SLOAD DUP2 DUP10 ADD MSTORE PUSH1 0x1 DUP3 ADD SWAP2 POP PUSH1 0x20 DUP2 ADD SWAP1 POP PUSH2 0x15C2 JUMP JUMPDEST DUP4 DUP9 ADD SWAP6 POP POP POP JUMPDEST POP POP POP SWAP3 SWAP2 POP POP JUMP JUMPDEST PUSH1 0x0 PUSH2 0x15FE DUP3 DUP5 PUSH2 0x156F JUMP JUMPDEST SWAP2 POP DUP2 SWAP1 POP SWAP3 SWAP2 POP POP JUMP JUMPDEST PUSH1 0x0 DUP2 MLOAD SWAP1 POP SWAP2 SWAP1 POP JUMP JUMPDEST PUSH1 0x0 JUMPDEST DUP4 DUP2 LT ISZERO PUSH2 0x1632 JUMPI DUP1 DUP3 ADD MLOAD DUP2 DUP5 ADD MSTORE PUSH1 0x20 DUP2 ADD SWAP1 POP PUSH2 0x1617 JUMP JUMPDEST PUSH1 0x0 DUP5 DUP5 ADD MSTORE POP POP POP POP JUMP JUMPDEST PUSH1 0x0 PUSH2 0x1649 DUP3 PUSH2 0x1609 JUMP JUMPDEST PUSH2 0x1653 DUP2 DUP6 PUSH2 0x154F JUMP JUMPDEST SWAP4 POP PUSH2 0x1663 DUP2 DUP6 PUSH1 0x20 DUP7 ADD PUSH2 0x1614 JUMP JUMPDEST DUP1 DUP5 ADD SWAP2 POP POP SWAP3 SWAP2 POP POP JUMP JUMPDEST PUSH1 0x0 PUSH2 0x167B DUP3 DUP5 PUSH2 0x163E JUMP JUMPDEST SWAP2 POP DUP2 SWAP1 POP SWAP3 SWAP2 POP POP JUMP JUMPDEST PUSH1 0x0 PUSH2 0x1691 DUP3 PUSH2 0x1453 JUMP JUMPDEST SWAP2 POP PUSH2 0x169C DUP4 PUSH2 0x1453 JUMP JUMPDEST SWAP3 POP DUP3 DUP3 ADD SWAP1 POP DUP1 DUP3 GT ISZERO PUSH2 0x16B4 JUMPI PUSH2 0x16B3 PUSH2 0x145D JUMP JUMPDEST JUMPDEST SWAP3 SWAP2 POP POP JUMP JUMPDEST PUSH1 0x0 DUP2 SLOAD SWAP1 POP PUSH2 0x16C9 DUP2 PUSH2 0x151E JUMP JUMPDEST SWAP1 POP SWAP2 SWAP1 POP JUMP JUMPDEST PUSH1 0x0 DUP2 SWAP1 POP DUP2 PUSH1 0x0 MSTORE PUSH1 0x20 PUSH1 0x0 KECCAK256 SWAP1 POP SWAP2 SWAP1 POP JUMP JUMPDEST PUSH1 0x0 PUSH1 0x20 PUSH1 0x1F DUP4 ADD DIV SWAP1 POP SWAP2 SWAP1 POP JUMP JUMPDEST PUSH1 0x0 DUP3 DUP3 SHL SWAP1 POP SWAP3 SWAP2 POP POP JUMP JUMPDEST PUSH1 0x0 PUSH1 0x8 DUP4 MUL PUSH2 0x1732 PUSH32 0xFFFFFFFFFFFFFFFFFFFFFFFFFFFFFFFFFFFFFFFFFFFFFFFFFFFFFFFFFFFFFFFF DUP3 PUSH2 0x16F5 JUMP JUMPDEST PUSH2 0x173C DUP7 DUP4 PUSH2 0x16F5 JUMP JUMPDEST SWAP6 POP DUP1 NOT DUP5 AND SWAP4 POP DUP1 DUP7 AND DUP5 OR SWAP3 POP POP POP SWAP4 SWAP3 POP POP POP JUMP JUMPDEST PUSH1 0x0 DUP2 SWAP1 POP SWAP2 SWAP1 POP JUMP JUMPDEST PUSH1 0x0 PUSH2 0x1779 PUSH2 0x1774 PUSH2 0x176F DUP5 PUSH2 0x1453 JUMP JUMPDEST PUSH2 0x1754 JUMP JUMPDEST PUSH2 0x1453 JUMP JUMPDEST SWAP1 POP SWAP2 SWAP1 POP JUMP JUMPDEST PUSH1 0x0 DUP2 SWAP1 POP SWAP2 SWAP1 POP JUMP JUMPDEST PUSH2 0x1793 DUP4 PUSH2 0x175E JUMP JUMPDEST PUSH2 0x17A7 PUSH2 0x179F DUP3 PUSH2 0x1780 JUMP JUMPDEST DUP5 DUP5 SLOAD PUSH2 0x1702 JUMP JUMPDEST DUP3 SSTORE POP POP POP POP JUMP JUMPDEST PUSH1 0x0 SWAP1 JUMP JUMPDEST PUSH2 0x17BC PUSH2 0x17AF JUMP JUMPDEST PUSH2 0x17C7 DUP2 DUP5 DUP5 PUSH2 0x178A JUMP JUMPDEST POP POP POP JUMP JUMPDEST JUMPDEST DUP2 DUP2 LT ISZERO PUSH2 0x17EB JUMPI PUSH2 0x17E0 PUSH1 0x0 DUP3 PUSH2 0x17B4 JUMP JUMPDEST PUSH1 0x1 DUP2 ADD SWAP1 POP PUSH2 0x17CD JUMP JUMPDEST POP POP JUMP JUMPDEST PUSH1 0x1F DUP3 GT ISZERO PUSH2 0x1830 JUMPI PUSH2 0x1801 DUP2 PUSH2 0x155A JUMP JUMPDEST PUSH2 0x180A DUP5 PUSH2 0x16E5 JUMP JUMPDEST DUP2 ADD PUSH1 0x20 DUP6 LT ISZERO PUSH2 0x1819 JUMPI DUP2 SWAP1 POP JUMPDEST PUSH2 0x182D PUSH2 0x1825 DUP6 PUSH2 0x16E5 JUMP JUMPDEST DUP4 ADD DUP3 PUSH2 0x17CC JUMP JUMPDEST POP POP JUMPDEST POP POP POP JUMP JUMPDEST PUSH1 0x0 DUP3 DUP3 SHR SWAP1 POP SWAP3 SWAP2 POP POP JUMP JUMPDEST PUSH1 0x0 PUSH2 0x1853 PUSH1 0x0 NOT DUP5 PUSH1 0x8 MUL PUSH2 0x1835 JUMP JUMPDEST NOT DUP1 DUP4 AND SWAP2 POP POP SWAP3 SWAP2 POP POP JUMP JUMPDEST PUSH1 0x0 PUSH2 0x186C DUP4 DUP4 PUSH2 0x1842 JUMP JUMPDEST SWAP2 POP DUP3 PUSH1 0x2 MUL DUP3 OR SWAP1 POP SWAP3 SWAP2 POP POP JUMP JUMPDEST DUP2 DUP2 SUB PUSH2 0x188A JUMPI POP POP PUSH2 0x1962 JUMP JUMPDEST PUSH2 0x1893 DUP3 PUSH2 0x16BA JUMP JUMPDEST PUSH8 0xFFFFFFFFFFFFFFFF DUP2 GT ISZERO PUSH2 0x18AC JUMPI PUSH2 0x18AB PUSH2 0x114E JUMP JUMPDEST JUMPDEST PUSH2 0x18B6 DUP3 SLOAD PUSH2 0x151E JUMP JUMPDEST PUSH2 0x18C1 DUP3 DUP3 DUP6 PUSH2 0x17EF JUMP JUMPDEST PUSH1 0x0 PUSH1 0x1F DUP4 GT PUSH1 0x1 DUP2 EQ PUSH2 0x18F0 JUMPI PUSH1 0x0 DUP5 ISZERO PUSH2 0x18DE JUMPI DUP3 DUP8 ADD SLOAD SWAP1 POP JUMPDEST PUSH2 0x18E8 DUP6 DUP3 PUSH2 0x1860 JUMP JUMPDEST DUP7 SSTORE POP PUSH2 0x195B JUMP JUMPDEST PUSH1 0x1F NOT DUP5 AND PUSH2 0x18FE DUP8 PUSH2 0x16D0 JUMP JUMPDEST SWAP7 POP PUSH2 0x1909 DUP7 PUSH2 0x155A JUMP JUMPDEST PUSH1 0x0 JUMPDEST DUP3 DUP2 LT ISZERO PUSH2 0x1931 JUMPI DUP5 DUP10 ADD SLOAD DUP3 SSTORE PUSH1 0x1 DUP3 ADD SWAP2 POP PUSH1 0x1 DUP6 ADD SWAP5 POP PUSH1 0x20 DUP2 ADD SWAP1 POP PUSH2 0x190C JUMP JUMPDEST DUP7 DUP4 LT ISZERO PUSH2 0x194E JUMPI DUP5 DUP10 ADD SLOAD PUSH2 0x194A PUSH1 0x1F DUP10 AND DUP3 PUSH2 0x1842 JUMP JUMPDEST DUP4 SSTORE POP JUMPDEST PUSH1 0x1 PUSH1 0x2 DUP9 MUL ADD DUP9 SSTORE POP POP POP JUMPDEST POP POP POP POP POP POP JUMPDEST JUMP JUMPDEST PUSH1 0x0 PUSH2 0x196F DUP3 PUSH2 0x1453 JUMP JUMPDEST SWAP2 POP PUSH32 0xFFFFFFFFFFFFFFFFFFFFFFFFFFFFFFFFFFFFFFFFFFFFFFFFFFFFFFFFFFFFFFFF DUP3 SUB PUSH2 0x19A1 JUMPI PUSH2 0x19A0 PUSH2 0x145D JUMP JUMPDEST JUMPDEST PUSH1 0x1 DUP3 ADD SWAP1 POP SWAP2 SWAP1 POP JUMP JUMPDEST PUSH32 0x4E487B7100000000000000000000000000000000000000000000000000000000 PUSH1 0x0 MSTORE PUSH1 0x31 PUSH1 0x4 MSTORE PUSH1 0x24 PUSH1 0x0 REVERT JUMPDEST PUSH2 0x19E4 DUP3 PUSH2 0x1609 JUMP JUMPDEST PUSH8 0xFFFFFFFFFFFFFFFF DUP2 GT ISZERO PUSH2 0x19FD JUMPI PUSH2 0x19FC PUSH2 0x114E JUMP JUMPDEST JUMPDEST PUSH2 0x1A07 DUP3 SLOAD PUSH2 0x151E JUMP JUMPDEST PUSH2 0x1A12 DUP3 DUP3 DUP6 PUSH2 0x17EF JUMP JUMPDEST PUSH1 0x0 PUSH1 0x20 SWAP1 POP PUSH1 0x1F DUP4 GT PUSH1 0x1 DUP2 EQ PUSH2 0x1A45 JUMPI PUSH1 0x0 DUP5 ISZERO PUSH2 0x1A33 JUMPI DUP3 DUP8 ADD MLOAD SWAP1 POP JUMPDEST PUSH2 0x1A3D DUP6 DUP3 PUSH2 0x1860 JUMP JUMPDEST DUP7 SSTORE POP PUSH2 0x1AA5 JUMP JUMPDEST PUSH1 0x1F NOT DUP5 AND PUSH2 0x1A53 DUP7 PUSH2 0x155A JUMP JUMPDEST PUSH1 0x0 JUMPDEST DUP3 DUP2 LT ISZERO PUSH2 0x1A7B JUMPI DUP5 DUP10 ADD MLOAD DUP3 SSTORE PUSH1 0x1 DUP3 ADD SWAP2 POP PUSH1 0x20 DUP6 ADD SWAP5 POP PUSH1 0x20 DUP2 ADD SWAP1 POP PUSH2 0x1A56 JUMP JUMPDEST DUP7 DUP4 LT ISZERO PUSH2 0x1A98 JUMPI DUP5 DUP10 ADD MLOAD PUSH2 0x1A94 PUSH1 0x1F DUP10 AND DUP3 PUSH2 0x1842 JUMP JUMPDEST DUP4 SSTORE POP JUMPDEST PUSH1 0x1 PUSH1 0x2 DUP9 MUL ADD DUP9 SSTORE POP POP POP JUMPDEST POP POP POP POP POP POP JUMP JUMPDEST PUSH32 0x4F776E61626C653A2063616C6C6572206973206E6F7420746865206F776E6572 PUSH1 0x0 DUP3 ADD MSTORE POP JUMP JUMPDEST PUSH1 0x0 PUSH2 0x1AE3 PUSH1 0x20 DUP4 PUSH2 0x131E JUMP JUMPDEST SWAP2 POP PUSH2 0x1AEE DUP3 PUSH2 0x1AAD JUMP JUMPDEST PUSH1 0x20 DUP3 ADD SWAP1 POP SWAP2 SWAP1 POP JUMP JUMPDEST PUSH1 0x0 PUSH1 0x20 DUP3 ADD SWAP1 POP DUP2 DUP2 SUB PUSH1 0x0 DUP4 ADD MSTORE PUSH2 0x1B12 DUP2 PUSH2 0x1AD6 JUMP JUMPDEST SWAP1 POP SWAP2 SWAP1 POP JUMP JUMPDEST PUSH32 0x416363657373436F6E74726F6C3A206163636F756E7420000000000000000000 PUSH1 0x0 DUP3 ADD MSTORE POP JUMP JUMPDEST PUSH1 0x0 PUSH2 0x1B4F PUSH1 0x17 DUP4 PUSH2 0x154F JUMP JUMPDEST SWAP2 POP PUSH2 0x1B5A DUP3 PUSH2 0x1B19 JUMP JUMPDEST PUSH1 0x17 DUP3 ADD SWAP1 POP SWAP2 SWAP1 POP JUMP JUMPDEST PUSH32 0x206973206D697373696E6720726F6C6520000000000000000000000000000000 PUSH1 0x0 DUP3 ADD MSTORE POP JUMP JUMPDEST PUSH1 0x0 PUSH2 0x1B9B PUSH1 0x11 DUP4 PUSH2 0x154F JUMP JUMPDEST SWAP2 POP PUSH2 0x1BA6 DUP3 PUSH2 0x1B65 JUMP JUMPDEST PUSH1 0x11 DUP3 ADD SWAP1 POP SWAP2 SWAP1 POP JUMP JUMPDEST PUSH1 0x0 PUSH2 0x1BBC DUP3 PUSH2 0x1B42 JUMP JUMPDEST SWAP2 POP PUSH2 0x1BC8 DUP3 DUP6 PUSH2 0x163E JUMP JUMPDEST SWAP2 POP PUSH2 0x1BD3 DUP3 PUSH2 0x1B8E JUMP JUMPDEST SWAP2 POP PUSH2 0x1BDF DUP3 DUP5 PUSH2 0x163E JUMP JUMPDEST SWAP2 POP DUP2 SWAP1 POP SWAP4 SWAP3 POP POP POP JUMP JUMPDEST PUSH1 0x0 PUSH2 0x1BF6 DUP3 PUSH2 0x1609 JUMP JUMPDEST PUSH2 0x1C00 DUP2 DUP6 PUSH2 0x131E JUMP JUMPDEST SWAP4 POP PUSH2 0x1C10 DUP2 DUP6 PUSH1 0x20 DUP7 ADD PUSH2 0x1614 JUMP JUMPDEST PUSH2 0x1C19 DUP2 PUSH2 0x113D JUMP JUMPDEST DUP5 ADD SWAP2 POP POP SWAP3 SWAP2 POP POP JUMP JUMPDEST PUSH1 0x0 PUSH1 0x20 DUP3 ADD SWAP1 POP DUP2 DUP2 SUB PUSH1 0x0 DUP4 ADD MSTORE PUSH2 0x1C3E DUP2 DUP5 PUSH2 0x1BEB JUMP JUMPDEST SWAP1 POP SWAP3 SWAP2 POP POP JUMP JUMPDEST PUSH1 0x0 PUSH2 0x1C51 DUP3 PUSH2 0x1453 JUMP JUMPDEST SWAP2 POP PUSH2 0x1C5C DUP4 PUSH2 0x1453 JUMP JUMPDEST SWAP3 POP DUP3 DUP3 MUL PUSH2 0x1C6A DUP2 PUSH2 0x1453 JUMP JUMPDEST SWAP2 POP DUP3 DUP3 DIV DUP5 EQ DUP4 ISZERO OR PUSH2 0x1C81 JUMPI PUSH2 0x1C80 PUSH2 0x145D JUMP JUMPDEST JUMPDEST POP SWAP3 SWAP2 POP POP JUMP JUMPDEST PUSH1 0x0 PUSH2 0x1C93 DUP3 PUSH2 0x1453 JUMP JUMPDEST SWAP2 POP PUSH1 0x0 DUP3 SUB PUSH2 0x1CA6 JUMPI PUSH2 0x1CA5 PUSH2 0x145D JUMP JUMPDEST JUMPDEST PUSH1 0x1 DUP3 SUB SWAP1 POP SWAP2 SWAP1 POP JUMP JUMPDEST PUSH32 0x537472696E67733A20686578206C656E67746820696E73756666696369656E74 PUSH1 0x0 DUP3 ADD MSTORE POP JUMP JUMPDEST PUSH1 0x0 PUSH2 0x1CE7 PUSH1 0x20 DUP4 PUSH2 0x131E JUMP JUMPDEST SWAP2 POP PUSH2 0x1CF2 DUP3 PUSH2 0x1CB1 JUMP JUMPDEST PUSH1 0x20 DUP3 ADD SWAP1 POP SWAP2 SWAP1 POP JUMP JUMPDEST PUSH1 0x0 PUSH1 0x20 DUP3 ADD SWAP1 POP DUP2 DUP2 SUB PUSH1 0x0 DUP4 ADD MSTORE PUSH2 0x1D16 DUP2 PUSH2 0x1CDA JUMP JUMPDEST SWAP1 POP SWAP2 SWAP1 POP JUMP INVALID LOG2 PUSH5 0x6970667358 0x22 SLT KECCAK256 OR 0x4C 0x21 BASEFEE 0xE7 0xB8 SELFDESTRUCT 0xCA CREATE2 PUSH19 0xC36E548F2E3A5D4D3F09991ECD80E5DC5B33E6 PUSH19 0x9B4764736F6C63430008120033000000000000 "
				},
				"gasEstimates": {
					"creation": {
						"codeDepositCost": "1501400",
						"executionCost": "infinite",
						"totalCost": "infinite"
					},
					"external": {
						"DEFAULT_ADMIN_ROLE()": "357",
						"getRoleAdmin(bytes32)": "infinite",
						"hasRole(bytes32,address)": "3140",
						"isAccess(string)": "infinite",
						"owner()": "2611",
						"register(address)": "infinite",
						"renounceRole(bytes32,address)": "33756",
						"revokeRole_Doctor(address,string)": "infinite",
						"setupRole_Doctor(address,string)": "infinite",
						"supportsInterface(bytes4)": "639",
						"transferOwnership(address)": "32919"
					},
					"internal": {
						"_checkArray(string memory)": "infinite"
					}
				},
				"methodIdentifiers": {
					"DEFAULT_ADMIN_ROLE()": "a217fddf",
					"getRoleAdmin(bytes32)": "248a9ca3",
					"hasRole(bytes32,address)": "91d14854",
					"isAccess(string)": "c8164863",
					"owner()": "8da5cb5b",
					"register(address)": "4420e486",
					"renounceRole(bytes32,address)": "36568abe",
					"revokeRole_Doctor(address,string)": "f3064211",
					"setupRole_Doctor(address,string)": "f9ad4d73",
					"supportsInterface(bytes4)": "01ffc9a7",
					"transferOwnership(address)": "f2fde38b"
				}
			},
			"storageLayout": {
				"storage": [
					{
						"astId": 252,
						"contract": "Patients/Patient.sol:Patient",
						"label": "_owner",
						"offset": 0,
						"slot": "0",
						"type": "t_address"
					},
					{
						"astId": 408,
						"contract": "Patients/Patient.sol:Patient",
						"label": "_roles",
						"offset": 0,
						"slot": "1",
						"type": "t_mapping(t_bytes32,t_struct(RoleData)403_storage)"
					},
					{
						"astId": 413,
						"contract": "Patients/Patient.sol:Patient",
						"label": "admin",
						"offset": 0,
						"slot": "2",
						"type": "t_address"
					},
					{
						"astId": 10,
						"contract": "Patients/Patient.sol:Patient",
						"label": "docs",
						"offset": 0,
						"slot": "3",
						"type": "t_array(t_string_storage)dyn_storage"
					}
				],
				"types": {
					"t_address": {
						"encoding": "inplace",
						"label": "address",
						"numberOfBytes": "20"
					},
					"t_array(t_string_storage)dyn_storage": {
						"base": "t_string_storage",
						"encoding": "dynamic_array",
						"label": "string[]",
						"numberOfBytes": "32"
					},
					"t_bool": {
						"encoding": "inplace",
						"label": "bool",
						"numberOfBytes": "1"
					},
					"t_bytes32": {
						"encoding": "inplace",
						"label": "bytes32",
						"numberOfBytes": "32"
					},
					"t_mapping(t_address,t_bool)": {
						"encoding": "mapping",
						"key": "t_address",
						"label": "mapping(address => bool)",
						"numberOfBytes": "32",
						"value": "t_bool"
					},
					"t_mapping(t_bytes32,t_struct(RoleData)403_storage)": {
						"encoding": "mapping",
						"key": "t_bytes32",
						"label": "mapping(bytes32 => struct AccessControl.RoleData)",
						"numberOfBytes": "32",
						"value": "t_struct(RoleData)403_storage"
					},
					"t_string_storage": {
						"encoding": "bytes",
						"label": "string",
						"numberOfBytes": "32"
					},
					"t_struct(RoleData)403_storage": {
						"encoding": "inplace",
						"label": "struct AccessControl.RoleData",
						"members": [
							{
								"astId": 400,
								"contract": "Patients/Patient.sol:Patient",
								"label": "members",
								"offset": 0,
								"slot": "0",
								"type": "t_mapping(t_address,t_bool)"
							},
							{
								"astId": 402,
								"contract": "Patients/Patient.sol:Patient",
								"label": "adminRole",
								"offset": 0,
								"slot": "1",
								"type": "t_bytes32"
							}
						],
						"numberOfBytes": "64"
					}
				}
			},
			"userdoc": {
				"kind": "user",
				"methods": {},
				"version": 1
			}
		}
	}
}