{
	"Patient.sol": {
		"Patient": {
			"abi": [
				{
					"inputs": [],
					"stateMutability": "nonpayable",
					"type": "constructor"
				},
				{
					"anonymous": false,
					"inputs": [
						{
							"indexed": true,
							"internalType": "address",
							"name": "previousOwner",
							"type": "address"
						},
						{
							"indexed": true,
							"internalType": "address",
							"name": "newOwner",
							"type": "address"
						}
					],
					"name": "OwnershipTransferred",
					"type": "event"
				},
				{
					"anonymous": false,
					"inputs": [
						{
							"indexed": true,
							"internalType": "bytes32",
							"name": "role",
							"type": "bytes32"
						},
						{
							"indexed": true,
							"internalType": "bytes32",
							"name": "previousAdminRole",
							"type": "bytes32"
						},
						{
							"indexed": true,
							"internalType": "bytes32",
							"name": "newAdminRole",
							"type": "bytes32"
						}
					],
					"name": "RoleAdminChanged",
					"type": "event"
				},
				{
					"anonymous": false,
					"inputs": [
						{
							"indexed": true,
							"internalType": "bytes32",
							"name": "role",
							"type": "bytes32"
						},
						{
							"indexed": true,
							"internalType": "address",
							"name": "account",
							"type": "address"
						},
						{
							"indexed": true,
							"internalType": "address",
							"name": "sender",
							"type": "address"
						}
					],
					"name": "RoleGranted",
					"type": "event"
				},
				{
					"anonymous": false,
					"inputs": [
						{
							"indexed": true,
							"internalType": "bytes32",
							"name": "role",
							"type": "bytes32"
						},
						{
							"indexed": true,
							"internalType": "address",
							"name": "account",
							"type": "address"
						},
						{
							"indexed": true,
							"internalType": "address",
							"name": "sender",
							"type": "address"
						}
					],
					"name": "RoleRevoked",
					"type": "event"
				},
				{
					"inputs": [],
					"name": "DEFAULT_ADMIN_ROLE",
					"outputs": [
						{
							"internalType": "bytes32",
							"name": "",
							"type": "bytes32"
						}
					],
					"stateMutability": "view",
					"type": "function"
				},
				{
					"inputs": [
						{
							"internalType": "bytes32",
							"name": "role",
							"type": "bytes32"
						}
					],
					"name": "getRoleAdmin",
					"outputs": [
						{
							"internalType": "bytes32",
							"name": "",
							"type": "bytes32"
						}
					],
					"stateMutability": "view",
					"type": "function"
				},
				{
					"inputs": [
						{
							"internalType": "bytes32",
							"name": "role",
							"type": "bytes32"
						},
						{
							"internalType": "address",
							"name": "account",
							"type": "address"
						}
					],
					"name": "hasRole",
					"outputs": [
						{
							"internalType": "bool",
							"name": "",
							"type": "bool"
						}
					],
					"stateMutability": "view",
					"type": "function"
				},
				{
					"inputs": [
						{
							"internalType": "address",
							"name": "_doctor",
							"type": "address"
						}
					],
					"name": "isAccess",
					"outputs": [
						{
							"internalType": "bool",
							"name": "",
							"type": "bool"
						}
					],
					"stateMutability": "view",
					"type": "function"
				},
				{
					"inputs": [],
					"name": "owner",
					"outputs": [
						{
							"internalType": "address",
							"name": "",
							"type": "address"
						}
					],
					"stateMutability": "view",
					"type": "function"
				},
				{
					"inputs": [
						{
							"internalType": "address",
							"name": "_patient",
							"type": "address"
						}
					],
					"name": "register",
					"outputs": [],
					"stateMutability": "nonpayable",
					"type": "function"
				},
				{
					"inputs": [
						{
							"internalType": "bytes32",
							"name": "role",
							"type": "bytes32"
						},
						{
							"internalType": "address",
							"name": "account",
							"type": "address"
						}
					],
					"name": "renounceRole",
					"outputs": [],
					"stateMutability": "nonpayable",
					"type": "function"
				},
				{
					"inputs": [
						{
							"internalType": "address",
							"name": "_patient",
							"type": "address"
						},
						{
							"internalType": "address",
							"name": "_doctor",
							"type": "address"
						}
					],
					"name": "revokeRole_Doctor",
					"outputs": [],
					"stateMutability": "nonpayable",
					"type": "function"
				},
				{
					"inputs": [
						{
							"internalType": "address",
							"name": "_patient",
							"type": "address"
						},
						{
							"internalType": "address",
							"name": "_doctor",
							"type": "address"
						}
					],
					"name": "setupRole_Doctor",
					"outputs": [],
					"stateMutability": "nonpayable",
					"type": "function"
				},
				{
					"inputs": [
						{
							"internalType": "bytes4",
							"name": "interfaceId",
							"type": "bytes4"
						}
					],
					"name": "supportsInterface",
					"outputs": [
						{
							"internalType": "bool",
							"name": "",
							"type": "bool"
						}
					],
					"stateMutability": "view",
					"type": "function"
				},
				{
					"inputs": [
						{
							"internalType": "address",
							"name": "_newOwner",
							"type": "address"
						}
					],
					"name": "transferOwnership",
					"outputs": [],
					"stateMutability": "nonpayable",
					"type": "function"
				}
			],
			"devdoc": {
				"events": {
					"RoleAdminChanged(bytes32,bytes32,bytes32)": {
						"details": "Emitted when `newAdminRole` is set as ``role``'s admin role, replacing `previousAdminRole` `DEFAULT_ADMIN_ROLE` is the starting admin for all roles, despite {RoleAdminChanged} not being emitted signaling this. _Available since v3.1._"
					},
					"RoleGranted(bytes32,address,address)": {
						"details": "Emitted when `account` is granted `role`. `sender` is the account that originated the contract call, an admin role bearer except when using {AccessControl-_setupRole}."
					},
					"RoleRevoked(bytes32,address,address)": {
						"details": "Emitted when `account` is revoked `role`. `sender` is the account that originated the contract call:   - if using `revokeRole`, it is the admin role bearer   - if using `renounceRole`, it is the role bearer (i.e. `account`)"
					}
				},
				"kind": "dev",
				"methods": {
					"getRoleAdmin(bytes32)": {
						"details": "Returns the admin role that controls `role`. See {grantRole} and {revokeRole}. To change a role's admin, use {_setRoleAdmin}."
					},
					"hasRole(bytes32,address)": {
						"details": "Returns `true` if `account` has been granted `role`."
					},
					"renounceRole(bytes32,address)": {
						"details": "Revokes `role` from the calling account. Roles are often managed via {grantRole} and {revokeRole}: this function's purpose is to provide a mechanism for accounts to lose their privileges if they are compromised (such as when a trusted device is misplaced). If the calling account had been revoked `role`, emits a {RoleRevoked} event. Requirements: - the caller must be `account`. May emit a {RoleRevoked} event."
					},
					"supportsInterface(bytes4)": {
						"details": "See {IERC165-supportsInterface}."
					}
				},
				"version": 1
			},
			"evm": {
				"assembly": "    /* \"Patient.sol\":735:3701  contract Patient is Owner, AccessControl ... */\n  mstore(0x40, 0x80)\n    /* \"Patient.sol\":1329:1363  constructor() Owner(msg.sender) {} */\n  callvalue\n  dup1\n  iszero\n  tag_1\n  jumpi\n  0x00\n  dup1\n  revert\ntag_1:\n  pop\n    /* \"Patient.sol\":1349:1359  msg.sender */\n  caller\n    /* \"access/Owner.sol\":448:477  _transferOwnership(_newOwner) */\n  tag_5\n    /* \"access/Owner.sol\":467:476  _newOwner */\n  dup2\n    /* \"access/Owner.sol\":448:466  _transferOwnership */\n  shl(0x20, tag_6)\n    /* \"access/Owner.sol\":448:477  _transferOwnership(_newOwner) */\n  0x20\n  shr\n  jump\t// in\ntag_5:\n    /* \"access/Owner.sol\":400:485  constructor(address _newOwner) ... */\n  pop\n    /* \"Patient.sol\":735:3701  contract Patient is Owner, AccessControl ... */\n  jump(tag_8)\n    /* \"access/Owner.sol\":980:1172  function _transferOwnership(address _newOwner) private  ... */\ntag_6:\n    /* \"access/Owner.sol\":1053:1069  address oldOwner */\n  0x00\n    /* \"access/Owner.sol\":1072:1078  _owner */\n  dup1\n  0x00\n  swap1\n  sload\n  swap1\n  0x0100\n  exp\n  swap1\n  div\n  0xffffffffffffffffffffffffffffffffffffffff\n  and\n    /* \"access/Owner.sol\":1053:1078  address oldOwner = _owner */\n  swap1\n  pop\n    /* \"access/Owner.sol\":1098:1107  _newOwner */\n  dup2\n    /* \"access/Owner.sol\":1089:1095  _owner */\n  0x00\n  dup1\n    /* \"access/Owner.sol\":1089:1107  _owner = _newOwner */\n  0x0100\n  exp\n  dup2\n  sload\n  dup2\n  0xffffffffffffffffffffffffffffffffffffffff\n  mul\n  not\n  and\n  swap1\n  dup4\n  0xffffffffffffffffffffffffffffffffffffffff\n  and\n  mul\n  or\n  swap1\n  sstore\n  pop\n    /* \"access/Owner.sol\":1154:1163  _newOwner */\n  dup2\n    /* \"access/Owner.sol\":1123:1164  OwnershipTransferred(oldOwner, _newOwner) */\n  0xffffffffffffffffffffffffffffffffffffffff\n  and\n    /* \"access/Owner.sol\":1144:1152  oldOwner */\n  dup2\n    /* \"access/Owner.sol\":1123:1164  OwnershipTransferred(oldOwner, _newOwner) */\n  0xffffffffffffffffffffffffffffffffffffffff\n  and\n  0x8be0079c531659141344cd1fd0a4f28419497f9722a3daafe3b4186f6b6457e0\n  mload(0x40)\n  mload(0x40)\n  dup1\n  swap2\n  sub\n  swap1\n  log3\n    /* \"access/Owner.sol\":1042:1172  {... */\n  pop\n    /* \"access/Owner.sol\":980:1172  function _transferOwnership(address _newOwner) private  ... */\n  pop\n  jump\t// out\n    /* \"Patient.sol\":735:3701  contract Patient is Owner, AccessControl ... */\ntag_8:\n  dataSize(sub_0)\n  dup1\n  dataOffset(sub_0)\n  0x00\n  codecopy\n  0x00\n  return\nstop\n\nsub_0: assembly {\n        /* \"Patient.sol\":735:3701  contract Patient is Owner, AccessControl ... */\n      mstore(0x40, 0x80)\n      callvalue\n      dup1\n      iszero\n      tag_1\n      jumpi\n      0x00\n      dup1\n      revert\n    tag_1:\n      pop\n      jumpi(tag_2, lt(calldatasize, 0x04))\n      shr(0xe0, calldataload(0x00))\n      dup1\n      0x8da5cb5b\n      gt\n      tag_14\n      jumpi\n      dup1\n      0x8da5cb5b\n      eq\n      tag_8\n      jumpi\n      dup1\n      0x91d14854\n      eq\n      tag_9\n      jumpi\n      dup1\n      0xa217fddf\n      eq\n      tag_10\n      jumpi\n      dup1\n      0xa8f2be76\n      eq\n      tag_11\n      jumpi\n      dup1\n      0xac0cc465\n      eq\n      tag_12\n      jumpi\n      dup1\n      0xf2fde38b\n      eq\n      tag_13\n      jumpi\n      jump(tag_2)\n    tag_14:\n      dup1\n      0x01ffc9a7\n      eq\n      tag_3\n      jumpi\n      dup1\n      0x248a9ca3\n      eq\n      tag_4\n      jumpi\n      dup1\n      0x36568abe\n      eq\n      tag_5\n      jumpi\n      dup1\n      0x4420e486\n      eq\n      tag_6\n      jumpi\n      dup1\n      0x4cc2f081\n      eq\n      tag_7\n      jumpi\n    tag_2:\n      0x00\n      dup1\n      revert\n        /* \"github.com/OpenZeppelin/openzeppelin-contracts/blob/master/contracts/utils/introspection/ERC165.sol\":829:984  function supportsInterface(bytes4 interfaceId) public view virtual override returns (bool) {... */\n    tag_3:\n      tag_15\n      0x04\n      dup1\n      calldatasize\n      sub\n      dup2\n      add\n      swap1\n      tag_16\n      swap2\n      swap1\n      tag_17\n      jump\t// in\n    tag_16:\n      tag_18\n      jump\t// in\n    tag_15:\n      mload(0x40)\n      tag_19\n      swap2\n      swap1\n      tag_20\n      jump\t// in\n    tag_19:\n      mload(0x40)\n      dup1\n      swap2\n      sub\n      swap1\n      return\n        /* \"access/Roles.sol\":5871:5993  function getRoleAdmin(bytes32 role) public view virtual returns (bytes32) {... */\n    tag_4:\n      tag_21\n      0x04\n      dup1\n      calldatasize\n      sub\n      dup2\n      add\n      swap1\n      tag_22\n      swap2\n      swap1\n      tag_23\n      jump\t// in\n    tag_22:\n      tag_24\n      jump\t// in\n    tag_21:\n      mload(0x40)\n      tag_25\n      swap2\n      swap1\n      tag_26\n      jump\t// in\n    tag_25:\n      mload(0x40)\n      dup1\n      swap2\n      sub\n      swap1\n      return\n        /* \"access/Roles.sol\":7445:7651  function renounceRole(bytes32 role, address account) public virtual ... */\n    tag_5:\n      tag_27\n      0x04\n      dup1\n      calldatasize\n      sub\n      dup2\n      add\n      swap1\n      tag_28\n      swap2\n      swap1\n      tag_29\n      jump\t// in\n    tag_28:\n      tag_30\n      jump\t// in\n    tag_27:\n      stop\n        /* \"Patient.sol\":1489:1663  function register(address _patient) external ... */\n    tag_6:\n      tag_31\n      0x04\n      dup1\n      calldatasize\n      sub\n      dup2\n      add\n      swap1\n      tag_32\n      swap2\n      swap1\n      tag_33\n      jump\t// in\n    tag_32:\n      tag_34\n      jump\t// in\n    tag_31:\n      stop\n        /* \"Patient.sol\":3270:3699  function revokeRole_Doctor(address _patient, address _doctor) external onlyOwner(_patient)... */\n    tag_7:\n      tag_35\n      0x04\n      dup1\n      calldatasize\n      sub\n      dup2\n      add\n      swap1\n      tag_36\n      swap2\n      swap1\n      tag_37\n      jump\t// in\n    tag_36:\n      tag_38\n      jump\t// in\n    tag_35:\n      stop\n        /* \"access/Owner.sol\":653:746  function owner() public view virtual returns (address) ... */\n    tag_8:\n      tag_39\n      tag_40\n      jump\t// in\n    tag_39:\n      mload(0x40)\n      tag_41\n      swap2\n      swap1\n      tag_42\n      jump\t// in\n    tag_41:\n      mload(0x40)\n      dup1\n      swap2\n      sub\n      swap1\n      return\n        /* \"access/Roles.sol\":4340:4478  function hasRole(bytes32 role, address account) public view virtual returns (bool) {... */\n    tag_9:\n      tag_43\n      0x04\n      dup1\n      calldatasize\n      sub\n      dup2\n      add\n      swap1\n      tag_44\n      swap2\n      swap1\n      tag_29\n      jump\t// in\n    tag_44:\n      tag_45\n      jump\t// in\n    tag_43:\n      mload(0x40)\n      tag_46\n      swap2\n      swap1\n      tag_20\n      jump\t// in\n    tag_46:\n      mload(0x40)\n      dup1\n      swap2\n      sub\n      swap1\n      return\n        /* \"access/Roles.sol\":3281:3330  bytes32 public constant DEFAULT_ADMIN_ROLE = 0x00 */\n    tag_10:\n      tag_47\n      tag_48\n      jump\t// in\n    tag_47:\n      mload(0x40)\n      tag_49\n      swap2\n      swap1\n      tag_26\n      jump\t// in\n    tag_49:\n      mload(0x40)\n      dup1\n      swap2\n      sub\n      swap1\n      return\n        /* \"Patient.sol\":2698:2921  function isAccess(address _doctor) external view returns(bool)... */\n    tag_11:\n      tag_50\n      0x04\n      dup1\n      calldatasize\n      sub\n      dup2\n      add\n      swap1\n      tag_51\n      swap2\n      swap1\n      tag_33\n      jump\t// in\n    tag_51:\n      tag_52\n      jump\t// in\n    tag_50:\n      mload(0x40)\n      tag_53\n      swap2\n      swap1\n      tag_20\n      jump\t// in\n    tag_53:\n      mload(0x40)\n      dup1\n      swap2\n      sub\n      swap1\n      return\n        /* \"Patient.sol\":2927:3264  function setupRole_Doctor(address _patient, address _doctor) external onlyOwner(_patient)... */\n    tag_12:\n      tag_54\n      0x04\n      dup1\n      calldatasize\n      sub\n      dup2\n      add\n      swap1\n      tag_55\n      swap2\n      swap1\n      tag_37\n      jump\t// in\n    tag_55:\n      tag_56\n      jump\t// in\n    tag_54:\n      stop\n        /* \"access/Owner.sol\":754:972  function transferOwnership(address _newOwner) public virtual onlyOwner(_owner) ... */\n    tag_13:\n      tag_57\n      0x04\n      dup1\n      calldatasize\n      sub\n      dup2\n      add\n      swap1\n      tag_58\n      swap2\n      swap1\n      tag_33\n      jump\t// in\n    tag_58:\n      tag_59\n      jump\t// in\n    tag_57:\n      stop\n        /* \"github.com/OpenZeppelin/openzeppelin-contracts/blob/master/contracts/utils/introspection/ERC165.sol\":829:984  function supportsInterface(bytes4 interfaceId) public view virtual override returns (bool) {... */\n    tag_18:\n        /* \"github.com/OpenZeppelin/openzeppelin-contracts/blob/master/contracts/utils/introspection/ERC165.sol\":914:918  bool */\n      0x00\n        /* \"github.com/OpenZeppelin/openzeppelin-contracts/blob/master/contracts/utils/introspection/ERC165.sol\":952:977  type(IERC165).interfaceId */\n      0x01ffc9a700000000000000000000000000000000000000000000000000000000\n        /* \"github.com/OpenZeppelin/openzeppelin-contracts/blob/master/contracts/utils/introspection/ERC165.sol\":937:977  interfaceId == type(IERC165).interfaceId */\n      not(0xffffffffffffffffffffffffffffffffffffffffffffffffffffffff)\n      and\n        /* \"github.com/OpenZeppelin/openzeppelin-contracts/blob/master/contracts/utils/introspection/ERC165.sol\":937:948  interfaceId */\n      dup3\n        /* \"github.com/OpenZeppelin/openzeppelin-contracts/blob/master/contracts/utils/introspection/ERC165.sol\":937:977  interfaceId == type(IERC165).interfaceId */\n      not(0xffffffffffffffffffffffffffffffffffffffffffffffffffffffff)\n      and\n      eq\n        /* \"github.com/OpenZeppelin/openzeppelin-contracts/blob/master/contracts/utils/introspection/ERC165.sol\":930:977  return interfaceId == type(IERC165).interfaceId */\n      swap1\n      pop\n        /* \"github.com/OpenZeppelin/openzeppelin-contracts/blob/master/contracts/utils/introspection/ERC165.sol\":829:984  function supportsInterface(bytes4 interfaceId) public view virtual override returns (bool) {... */\n      swap2\n      swap1\n      pop\n      jump\t// out\n        /* \"access/Roles.sol\":5871:5993  function getRoleAdmin(bytes32 role) public view virtual returns (bytes32) {... */\n    tag_24:\n        /* \"access/Roles.sol\":5936:5943  bytes32 */\n      0x00\n        /* \"access/Roles.sol\":5963:5969  _roles */\n      0x01\n        /* \"access/Roles.sol\":5963:5975  _roles[role] */\n      0x00\n        /* \"access/Roles.sol\":5970:5974  role */\n      dup4\n        /* \"access/Roles.sol\":5963:5975  _roles[role] */\n      dup2\n      mstore\n      0x20\n      add\n      swap1\n      dup2\n      mstore\n      0x20\n      add\n      0x00\n      keccak256\n        /* \"access/Roles.sol\":5963:5985  _roles[role].adminRole */\n      0x01\n      add\n      sload\n        /* \"access/Roles.sol\":5956:5985  return _roles[role].adminRole */\n      swap1\n      pop\n        /* \"access/Roles.sol\":5871:5993  function getRoleAdmin(bytes32 role) public view virtual returns (bytes32) {... */\n      swap2\n      swap1\n      pop\n      jump\t// out\n        /* \"access/Roles.sol\":7445:7651  function renounceRole(bytes32 role, address account) public virtual ... */\n    tag_30:\n        /* \"access/Roles.sol\":7549:7554  admin */\n      0x02\n      0x00\n      swap1\n      sload\n      swap1\n      0x0100\n      exp\n      swap1\n      div\n      0xffffffffffffffffffffffffffffffffffffffff\n      and\n        /* \"access/Roles.sol\":7538:7554  account == admin */\n      0xffffffffffffffffffffffffffffffffffffffff\n      and\n        /* \"access/Roles.sol\":7538:7545  account */\n      dup2\n        /* \"access/Roles.sol\":7538:7554  account == admin */\n      0xffffffffffffffffffffffffffffffffffffffff\n      and\n      eq\n        /* \"access/Roles.sol\":7530:7606  require(account == admin, \"AccessControl: can only renounce roles for self\") */\n      tag_63\n      jumpi\n      mload(0x40)\n      0x08c379a000000000000000000000000000000000000000000000000000000000\n      dup2\n      mstore\n      0x04\n      add\n      tag_64\n      swap1\n      tag_65\n      jump\t// in\n    tag_64:\n      mload(0x40)\n      dup1\n      swap2\n      sub\n      swap1\n      revert\n    tag_63:\n        /* \"access/Roles.sol\":7617:7643  _revokeRole(role, account) */\n      tag_66\n        /* \"access/Roles.sol\":7629:7633  role */\n      dup3\n        /* \"access/Roles.sol\":7635:7642  account */\n      dup3\n        /* \"access/Roles.sol\":7617:7628  _revokeRole */\n      tag_67\n        /* \"access/Roles.sol\":7617:7643  _revokeRole(role, account) */\n      jump\t// in\n    tag_66:\n        /* \"access/Roles.sol\":7445:7651  function renounceRole(bytes32 role, address account) public virtual ... */\n      pop\n      pop\n      jump\t// out\n        /* \"Patient.sol\":1489:1663  function register(address _patient) external ... */\n    tag_34:\n        /* \"Patient.sol\":1549:1576  transferOwnership(_patient) */\n      tag_69\n        /* \"Patient.sol\":1567:1575  _patient */\n      dup2\n        /* \"Patient.sol\":1549:1566  transferOwnership */\n      tag_59\n        /* \"Patient.sol\":1549:1576  transferOwnership(_patient) */\n      jump\t// in\n    tag_69:\n        /* \"Patient.sol\":1586:1604  setAdmin(_patient) */\n      tag_70\n        /* \"Patient.sol\":1595:1603  _patient */\n      dup2\n        /* \"Patient.sol\":1586:1594  setAdmin */\n      tag_71\n        /* \"Patient.sol\":1586:1604  setAdmin(_patient) */\n      jump\t// in\n    tag_70:\n        /* \"Patient.sol\":1614:1654  _setupRole(DEFAULT_ADMIN_ROLE, _patient) */\n      tag_72\n        /* \"access/Roles.sol\":3326:3330  0x00 */\n      0x00\n        /* \"Patient.sol\":1625:1643  DEFAULT_ADMIN_ROLE */\n      dup1\n      shl\n        /* \"Patient.sol\":1645:1653  _patient */\n      dup3\n        /* \"Patient.sol\":1614:1624  _setupRole */\n      tag_73\n        /* \"Patient.sol\":1614:1654  _setupRole(DEFAULT_ADMIN_ROLE, _patient) */\n      jump\t// in\n    tag_72:\n        /* \"Patient.sol\":1489:1663  function register(address _patient) external ... */\n      pop\n      jump\t// out\n        /* \"Patient.sol\":3270:3699  function revokeRole_Doctor(address _patient, address _doctor) external onlyOwner(_patient)... */\n    tag_38:\n        /* \"Patient.sol\":3351:3359  _patient */\n      dup2\n        /* \"access/Owner.sol\":352:372  _checkOwner(_sender) */\n      tag_75\n        /* \"access/Owner.sol\":364:371  _sender */\n      dup2\n        /* \"access/Owner.sol\":352:363  _checkOwner */\n      tag_76\n        /* \"access/Owner.sol\":352:372  _checkOwner(_sender) */\n      jump\t// in\n    tag_75:\n        /* \"access/Roles.sol\":3326:3330  0x00 */\n      0x00\n        /* \"Patient.sol\":3378:3396  DEFAULT_ADMIN_ROLE */\n      dup1\n      shl\n        /* \"Patient.sol\":3398:3406  _patient */\n      dup4\n        /* \"access/Roles.sol\":3925:3948  _checkRole(role,sender) */\n      tag_78\n        /* \"access/Roles.sol\":3936:3940  role */\n      dup3\n        /* \"access/Roles.sol\":3941:3947  sender */\n      dup3\n        /* \"access/Roles.sol\":3925:3935  _checkRole */\n      tag_79\n        /* \"access/Roles.sol\":3925:3948  _checkRole(role,sender) */\n      jump\t// in\n    tag_78:\n        /* \"Patient.sol\":3422:3454  revokeRole(DOCTOR_ROLE, _doctor) */\n      tag_81\n        /* \"Patient.sol\":1063:1087  keccak256(\"DOCTOR_ROLE\") */\n      0x0af1dac7dea2fd7f7738119cec7df099dfad49aa9d2e7d17ba6b60f63ae7411f\n        /* \"Patient.sol\":3446:3453  _doctor */\n      dup6\n        /* \"Patient.sol\":3422:3432  revokeRole */\n      tag_82\n        /* \"Patient.sol\":3422:3454  revokeRole(DOCTOR_ROLE, _doctor) */\n      jump\t// in\n    tag_81:\n        /* \"Patient.sol\":3464:3471  int pos */\n      0x00\n        /* \"Patient.sol\":3474:3476  -1 */\n      0xffffffffffffffffffffffffffffffffffffffffffffffffffffffffffffffff\n        /* \"Patient.sol\":3464:3476  int pos = -1 */\n      swap1\n      pop\n        /* \"Patient.sol\":3490:3499  uint256 i */\n      0x00\n        /* \"Patient.sol\":3486:3673  for(uint256 i=0;i<docs.length-1;i++)... */\n    tag_83:\n        /* \"Patient.sol\":3516:3517  1 */\n      0x01\n        /* \"Patient.sol\":3504:3508  docs */\n      0x03\n        /* \"Patient.sol\":3504:3515  docs.length */\n      dup1\n      sload\n      swap1\n      pop\n        /* \"Patient.sol\":3504:3517  docs.length-1 */\n      tag_86\n      swap2\n      swap1\n      tag_87\n      jump\t// in\n    tag_86:\n        /* \"Patient.sol\":3502:3503  i */\n      dup2\n        /* \"Patient.sol\":3502:3517  i<docs.length-1 */\n      lt\n        /* \"Patient.sol\":3486:3673  for(uint256 i=0;i<docs.length-1;i++)... */\n      iszero\n      tag_84\n      jumpi\n        /* \"Patient.sol\":3559:3566  _doctor */\n      dup6\n        /* \"Patient.sol\":3548:3566  docs[i] == _doctor */\n      0xffffffffffffffffffffffffffffffffffffffff\n      and\n        /* \"Patient.sol\":3548:3552  docs */\n      0x03\n        /* \"Patient.sol\":3553:3554  i */\n      dup3\n        /* \"Patient.sol\":3548:3555  docs[i] */\n      dup2\n      sload\n      dup2\n      lt\n      tag_88\n      jumpi\n      tag_89\n      tag_90\n      jump\t// in\n    tag_89:\n    tag_88:\n      swap1\n      0x00\n      mstore\n      keccak256(0x00, 0x20)\n      add\n      0x00\n      swap1\n      sload\n      swap1\n      0x0100\n      exp\n      swap1\n      div\n      0xffffffffffffffffffffffffffffffffffffffff\n      and\n        /* \"Patient.sol\":3548:3566  docs[i] == _doctor */\n      0xffffffffffffffffffffffffffffffffffffffff\n      and\n      sub\n        /* \"Patient.sol\":3545:3596  if(docs[i] == _doctor)... */\n      tag_92\n      jumpi\n        /* \"Patient.sol\":3594:3595  i */\n      dup1\n        /* \"Patient.sol\":3584:3596  pos = int(i) */\n      swap2\n      pop\n        /* \"Patient.sol\":3545:3596  if(docs[i] == _doctor)... */\n    tag_92:\n        /* \"Patient.sol\":3623:3625  -1 */\n      0xffffffffffffffffffffffffffffffffffffffffffffffffffffffffffffffff\n        /* \"Patient.sol\":3618:3621  pos */\n      dup3\n        /* \"Patient.sol\":3618:3625  pos!=-1 */\n      eq\n        /* \"Patient.sol\":3615:3662  if(pos!=-1)... */\n      tag_93\n      jumpi\n        /* \"Patient.sol\":3653:3657  docs */\n      0x03\n        /* \"Patient.sol\":3660:3661  1 */\n      0x01\n        /* \"Patient.sol\":3658:3659  i */\n      dup3\n        /* \"Patient.sol\":3658:3661  i+1 */\n      tag_94\n      swap2\n      swap1\n      tag_95\n      jump\t// in\n    tag_94:\n        /* \"Patient.sol\":3653:3662  docs[i+1] */\n      dup2\n      sload\n      dup2\n      lt\n      tag_96\n      jumpi\n      tag_97\n      tag_90\n      jump\t// in\n    tag_97:\n    tag_96:\n      swap1\n      0x00\n      mstore\n      keccak256(0x00, 0x20)\n      add\n      0x00\n      swap1\n      sload\n      swap1\n      0x0100\n      exp\n      swap1\n      div\n      0xffffffffffffffffffffffffffffffffffffffff\n      and\n        /* \"Patient.sol\":3643:3647  docs */\n      0x03\n        /* \"Patient.sol\":3648:3649  i */\n      dup3\n        /* \"Patient.sol\":3643:3650  docs[i] */\n      dup2\n      sload\n      dup2\n      lt\n      tag_99\n      jumpi\n      tag_100\n      tag_90\n      jump\t// in\n    tag_100:\n    tag_99:\n      swap1\n      0x00\n      mstore\n      keccak256(0x00, 0x20)\n      add\n      0x00\n        /* \"Patient.sol\":3643:3662  docs[i] = docs[i+1] */\n      0x0100\n      exp\n      dup2\n      sload\n      dup2\n      0xffffffffffffffffffffffffffffffffffffffff\n      mul\n      not\n      and\n      swap1\n      dup4\n      0xffffffffffffffffffffffffffffffffffffffff\n      and\n      mul\n      or\n      swap1\n      sstore\n      pop\n        /* \"Patient.sol\":3615:3662  if(pos!=-1)... */\n    tag_93:\n        /* \"Patient.sol\":3518:3521  i++ */\n      dup1\n      dup1\n      tag_102\n      swap1\n      tag_103\n      jump\t// in\n    tag_102:\n      swap2\n      pop\n      pop\n        /* \"Patient.sol\":3486:3673  for(uint256 i=0;i<docs.length-1;i++)... */\n      jump(tag_83)\n    tag_84:\n      pop\n        /* \"Patient.sol\":3682:3686  docs */\n      0x03\n        /* \"Patient.sol\":3682:3692  docs.pop() */\n      dup1\n      sload\n      dup1\n      tag_104\n      jumpi\n      tag_105\n      tag_106\n      jump\t// in\n    tag_105:\n    tag_104:\n      0x01\n      swap1\n      sub\n      dup2\n      dup2\n      swap1\n      0x00\n      mstore\n      keccak256(0x00, 0x20)\n      add\n      exp(0x0100, 0x00)\n      dup2\n      sload\n      swap1\n      0xffffffffffffffffffffffffffffffffffffffff\n      mul\n      not\n      and\n      swap1\n      sstore\n      swap1\n      sstore\n        /* \"Patient.sol\":3412:3699  {... */\n      pop\n        /* \"access/Owner.sol\":383:384  _ */\n      pop\n      pop\n        /* \"Patient.sol\":3270:3699  function revokeRole_Doctor(address _patient, address _doctor) external onlyOwner(_patient)... */\n      pop\n      pop\n      pop\n      jump\t// out\n        /* \"access/Owner.sol\":653:746  function owner() public view virtual returns (address) ... */\n    tag_40:\n        /* \"access/Owner.sol\":699:706  address */\n      0x00\n        /* \"access/Owner.sol\":732:738  _owner */\n      dup1\n      0x00\n      swap1\n      sload\n      swap1\n      0x0100\n      exp\n      swap1\n      div\n      0xffffffffffffffffffffffffffffffffffffffff\n      and\n        /* \"access/Owner.sol\":725:738  return _owner */\n      swap1\n      pop\n        /* \"access/Owner.sol\":653:746  function owner() public view virtual returns (address) ... */\n      swap1\n      jump\t// out\n        /* \"access/Roles.sol\":4340:4478  function hasRole(bytes32 role, address account) public view virtual returns (bool) {... */\n    tag_45:\n        /* \"access/Roles.sol\":4417:4421  bool */\n      0x00\n        /* \"access/Roles.sol\":4441:4447  _roles */\n      0x01\n        /* \"access/Roles.sol\":4441:4453  _roles[role] */\n      0x00\n        /* \"access/Roles.sol\":4448:4452  role */\n      dup5\n        /* \"access/Roles.sol\":4441:4453  _roles[role] */\n      dup2\n      mstore\n      0x20\n      add\n      swap1\n      dup2\n      mstore\n      0x20\n      add\n      0x00\n      keccak256\n        /* \"access/Roles.sol\":4441:4461  _roles[role].members */\n      0x00\n      add\n        /* \"access/Roles.sol\":4441:4470  _roles[role].members[account] */\n      0x00\n        /* \"access/Roles.sol\":4462:4469  account */\n      dup4\n        /* \"access/Roles.sol\":4441:4470  _roles[role].members[account] */\n      0xffffffffffffffffffffffffffffffffffffffff\n      and\n      0xffffffffffffffffffffffffffffffffffffffff\n      and\n      dup2\n      mstore\n      0x20\n      add\n      swap1\n      dup2\n      mstore\n      0x20\n      add\n      0x00\n      keccak256\n      0x00\n      swap1\n      sload\n      swap1\n      0x0100\n      exp\n      swap1\n      div\n      0xff\n      and\n        /* \"access/Roles.sol\":4434:4470  return _roles[role].members[account] */\n      swap1\n      pop\n        /* \"access/Roles.sol\":4340:4478  function hasRole(bytes32 role, address account) public view virtual returns (bool) {... */\n      swap3\n      swap2\n      pop\n      pop\n      jump\t// out\n        /* \"access/Roles.sol\":3281:3330  bytes32 public constant DEFAULT_ADMIN_ROLE = 0x00 */\n    tag_48:\n        /* \"access/Roles.sol\":3326:3330  0x00 */\n      0x00\n        /* \"access/Roles.sol\":3281:3330  bytes32 public constant DEFAULT_ADMIN_ROLE = 0x00 */\n      dup1\n      shl\n      dup2\n      jump\t// out\n        /* \"Patient.sol\":2698:2921  function isAccess(address _doctor) external view returns(bool)... */\n    tag_52:\n        /* \"Patient.sol\":2755:2759  bool */\n      0x00\n        /* \"Patient.sol\":2779:2788  uint256 i */\n      dup1\n        /* \"Patient.sol\":2789:2790  0 */\n      0x00\n        /* \"Patient.sol\":2779:2790  uint256 i=0 */\n      swap1\n      pop\n        /* \"Patient.sol\":2775:2893  for(uint256 i=0;i<docs.length;i++)... */\n    tag_111:\n        /* \"Patient.sol\":2793:2797  docs */\n      0x03\n        /* \"Patient.sol\":2793:2804  docs.length */\n      dup1\n      sload\n      swap1\n      pop\n        /* \"Patient.sol\":2791:2792  i */\n      dup2\n        /* \"Patient.sol\":2791:2804  i<docs.length */\n      lt\n        /* \"Patient.sol\":2775:2893  for(uint256 i=0;i<docs.length;i++)... */\n      iszero\n      tag_112\n      jumpi\n        /* \"Patient.sol\":2846:2853  _doctor */\n      dup3\n        /* \"Patient.sol\":2835:2853  docs[i] == _doctor */\n      0xffffffffffffffffffffffffffffffffffffffff\n      and\n        /* \"Patient.sol\":2835:2839  docs */\n      0x03\n        /* \"Patient.sol\":2840:2841  i */\n      dup3\n        /* \"Patient.sol\":2835:2842  docs[i] */\n      dup2\n      sload\n      dup2\n      lt\n      tag_114\n      jumpi\n      tag_115\n      tag_90\n      jump\t// in\n    tag_115:\n    tag_114:\n      swap1\n      0x00\n      mstore\n      keccak256(0x00, 0x20)\n      add\n      0x00\n      swap1\n      sload\n      swap1\n      0x0100\n      exp\n      swap1\n      div\n      0xffffffffffffffffffffffffffffffffffffffff\n      and\n        /* \"Patient.sol\":2835:2853  docs[i] == _doctor */\n      0xffffffffffffffffffffffffffffffffffffffff\n      and\n      sub\n        /* \"Patient.sol\":2832:2882  if(docs[i] == _doctor)... */\n      tag_117\n      jumpi\n        /* \"Patient.sol\":2878:2882  true */\n      0x01\n        /* \"Patient.sol\":2871:2882  return true */\n      swap2\n      pop\n      pop\n      jump(tag_110)\n        /* \"Patient.sol\":2832:2882  if(docs[i] == _doctor)... */\n    tag_117:\n        /* \"Patient.sol\":2805:2808  i++ */\n      dup1\n      dup1\n      tag_118\n      swap1\n      tag_103\n      jump\t// in\n    tag_118:\n      swap2\n      pop\n      pop\n        /* \"Patient.sol\":2775:2893  for(uint256 i=0;i<docs.length;i++)... */\n      jump(tag_111)\n    tag_112:\n      pop\n        /* \"Patient.sol\":2909:2914  false */\n      0x00\n        /* \"Patient.sol\":2902:2914  return false */\n      swap1\n      pop\n        /* \"Patient.sol\":2698:2921  function isAccess(address _doctor) external view returns(bool)... */\n    tag_110:\n      swap2\n      swap1\n      pop\n      jump\t// out\n        /* \"Patient.sol\":2927:3264  function setupRole_Doctor(address _patient, address _doctor) external onlyOwner(_patient)... */\n    tag_56:\n        /* \"Patient.sol\":3007:3015  _patient */\n      dup2\n        /* \"access/Owner.sol\":352:372  _checkOwner(_sender) */\n      tag_120\n        /* \"access/Owner.sol\":364:371  _sender */\n      dup2\n        /* \"access/Owner.sol\":352:363  _checkOwner */\n      tag_76\n        /* \"access/Owner.sol\":352:372  _checkOwner(_sender) */\n      jump\t// in\n    tag_120:\n        /* \"access/Roles.sol\":3326:3330  0x00 */\n      0x00\n        /* \"Patient.sol\":3031:3049  DEFAULT_ADMIN_ROLE */\n      dup1\n      shl\n        /* \"Patient.sol\":3051:3059  _patient */\n      dup4\n        /* \"access/Roles.sol\":3925:3948  _checkRole(role,sender) */\n      tag_122\n        /* \"access/Roles.sol\":3936:3940  role */\n      dup3\n        /* \"access/Roles.sol\":3941:3947  sender */\n      dup3\n        /* \"access/Roles.sol\":3925:3935  _checkRole */\n      tag_79\n        /* \"access/Roles.sol\":3925:3948  _checkRole(role,sender) */\n      jump\t// in\n    tag_122:\n        /* \"Patient.sol\":3075:3106  grantRole(DOCTOR_ROLE, _doctor) */\n      tag_124\n        /* \"Patient.sol\":1063:1087  keccak256(\"DOCTOR_ROLE\") */\n      0x0af1dac7dea2fd7f7738119cec7df099dfad49aa9d2e7d17ba6b60f63ae7411f\n        /* \"Patient.sol\":3098:3105  _doctor */\n      dup6\n        /* \"Patient.sol\":3075:3084  grantRole */\n      tag_125\n        /* \"Patient.sol\":3075:3106  grantRole(DOCTOR_ROLE, _doctor) */\n      jump\t// in\n    tag_124:\n        /* \"Patient.sol\":3121:3130  uint256 i */\n      0x00\n        /* \"Patient.sol\":3117:3230  for(uint256 i=0;i<docs.length;i++)... */\n    tag_126:\n        /* \"Patient.sol\":3135:3139  docs */\n      0x03\n        /* \"Patient.sol\":3135:3146  docs.length */\n      dup1\n      sload\n      swap1\n      pop\n        /* \"Patient.sol\":3133:3134  i */\n      dup2\n        /* \"Patient.sol\":3133:3146  i<docs.length */\n      lt\n        /* \"Patient.sol\":3117:3230  for(uint256 i=0;i<docs.length;i++)... */\n      iszero\n      tag_127\n      jumpi\n        /* \"Patient.sol\":3188:3195  _doctor */\n      dup5\n        /* \"Patient.sol\":3177:3195  docs[i] == _doctor */\n      0xffffffffffffffffffffffffffffffffffffffff\n      and\n        /* \"Patient.sol\":3177:3181  docs */\n      0x03\n        /* \"Patient.sol\":3182:3183  i */\n      dup3\n        /* \"Patient.sol\":3177:3184  docs[i] */\n      dup2\n      sload\n      dup2\n      lt\n      tag_129\n      jumpi\n      tag_130\n      tag_90\n      jump\t// in\n    tag_130:\n    tag_129:\n      swap1\n      0x00\n      mstore\n      keccak256(0x00, 0x20)\n      add\n      0x00\n      swap1\n      sload\n      swap1\n      0x0100\n      exp\n      swap1\n      div\n      0xffffffffffffffffffffffffffffffffffffffff\n      and\n        /* \"Patient.sol\":3177:3195  docs[i] == _doctor */\n      0xffffffffffffffffffffffffffffffffffffffff\n      and\n      sub\n        /* \"Patient.sol\":3174:3220  if(docs[i] == _doctor)... */\n      tag_132\n      jumpi\n        /* \"Patient.sol\":3213:3220  return; */\n      pop\n      jump(tag_123)\n        /* \"Patient.sol\":3174:3220  if(docs[i] == _doctor)... */\n    tag_132:\n        /* \"Patient.sol\":3147:3150  i++ */\n      dup1\n      dup1\n      tag_133\n      swap1\n      tag_103\n      jump\t// in\n    tag_133:\n      swap2\n      pop\n      pop\n        /* \"Patient.sol\":3117:3230  for(uint256 i=0;i<docs.length;i++)... */\n      jump(tag_126)\n    tag_127:\n      pop\n        /* \"Patient.sol\":3239:3243  docs */\n      0x03\n        /* \"Patient.sol\":3249:3256  _doctor */\n      dup5\n        /* \"Patient.sol\":3239:3257  docs.push(_doctor) */\n      swap1\n      dup1\n      0x01\n      dup2\n      sload\n      add\n      dup1\n      dup3\n      sstore\n      dup1\n      swap2\n      pop\n      pop\n      0x01\n      swap1\n      sub\n      swap1\n      0x00\n      mstore\n      keccak256(0x00, 0x20)\n      add\n      0x00\n      swap1\n      swap2\n      swap1\n      swap2\n      swap1\n      swap2\n      0x0100\n      exp\n      dup2\n      sload\n      dup2\n      0xffffffffffffffffffffffffffffffffffffffff\n      mul\n      not\n      and\n      swap1\n      dup4\n      0xffffffffffffffffffffffffffffffffffffffff\n      and\n      mul\n      or\n      swap1\n      sstore\n      pop\n        /* \"access/Roles.sol\":3959:3960  _ */\n    tag_123:\n        /* \"access/Owner.sol\":383:384  _ */\n      pop\n      pop\n        /* \"Patient.sol\":2927:3264  function setupRole_Doctor(address _patient, address _doctor) external onlyOwner(_patient)... */\n      pop\n      pop\n      pop\n      jump\t// out\n        /* \"access/Owner.sol\":754:972  function transferOwnership(address _newOwner) public virtual onlyOwner(_owner) ... */\n    tag_59:\n        /* \"access/Owner.sol\":825:831  _owner */\n      0x00\n      dup1\n      sload\n      swap1\n      0x0100\n      exp\n      swap1\n      div\n      0xffffffffffffffffffffffffffffffffffffffff\n      and\n        /* \"access/Owner.sol\":352:372  _checkOwner(_sender) */\n      tag_136\n        /* \"access/Owner.sol\":364:371  _sender */\n      dup2\n        /* \"access/Owner.sol\":352:363  _checkOwner */\n      tag_76\n        /* \"access/Owner.sol\":352:372  _checkOwner(_sender) */\n      jump\t// in\n    tag_136:\n        /* \"access/Owner.sol\":879:880  0 */\n      0x00\n        /* \"access/Owner.sol\":858:881  _newOwner != address(0) */\n      0xffffffffffffffffffffffffffffffffffffffff\n      and\n        /* \"access/Owner.sol\":858:867  _newOwner */\n      dup3\n        /* \"access/Owner.sol\":858:881  _newOwner != address(0) */\n      0xffffffffffffffffffffffffffffffffffffffff\n      and\n      sub\n        /* \"access/Owner.sol\":850:924  require(_newOwner != address(0), \"Ownable: new owner is the zero address\") */\n      tag_138\n      jumpi\n      mload(0x40)\n      0x08c379a000000000000000000000000000000000000000000000000000000000\n      dup2\n      mstore\n      0x04\n      add\n      tag_139\n      swap1\n      tag_140\n      jump\t// in\n    tag_139:\n      mload(0x40)\n      dup1\n      swap2\n      sub\n      swap1\n      revert\n    tag_138:\n        /* \"access/Owner.sol\":935:964  _transferOwnership(_newOwner) */\n      tag_141\n        /* \"access/Owner.sol\":954:963  _newOwner */\n      dup3\n        /* \"access/Owner.sol\":935:953  _transferOwnership */\n      tag_142\n        /* \"access/Owner.sol\":935:964  _transferOwnership(_newOwner) */\n      jump\t// in\n    tag_141:\n        /* \"access/Owner.sol\":754:972  function transferOwnership(address _newOwner) public virtual onlyOwner(_owner) ... */\n      pop\n      pop\n      jump\t// out\n        /* \"access/Roles.sol\":9506:9730  function _revokeRole(bytes32 role, address account) private  {... */\n    tag_67:\n        /* \"access/Roles.sol\":9582:9604  hasRole(role, account) */\n      tag_144\n        /* \"access/Roles.sol\":9590:9594  role */\n      dup3\n        /* \"access/Roles.sol\":9596:9603  account */\n      dup3\n        /* \"access/Roles.sol\":9582:9589  hasRole */\n      tag_45\n        /* \"access/Roles.sol\":9582:9604  hasRole(role, account) */\n      jump\t// in\n    tag_144:\n        /* \"access/Roles.sol\":9578:9723  if (hasRole(role, account)) {... */\n      iszero\n      tag_145\n      jumpi\n        /* \"access/Roles.sol\":9653:9658  false */\n      0x00\n        /* \"access/Roles.sol\":9621:9627  _roles */\n      0x01\n        /* \"access/Roles.sol\":9621:9633  _roles[role] */\n      0x00\n        /* \"access/Roles.sol\":9628:9632  role */\n      dup5\n        /* \"access/Roles.sol\":9621:9633  _roles[role] */\n      dup2\n      mstore\n      0x20\n      add\n      swap1\n      dup2\n      mstore\n      0x20\n      add\n      0x00\n      keccak256\n        /* \"access/Roles.sol\":9621:9641  _roles[role].members */\n      0x00\n      add\n        /* \"access/Roles.sol\":9621:9650  _roles[role].members[account] */\n      0x00\n        /* \"access/Roles.sol\":9642:9649  account */\n      dup4\n        /* \"access/Roles.sol\":9621:9650  _roles[role].members[account] */\n      0xffffffffffffffffffffffffffffffffffffffff\n      and\n      0xffffffffffffffffffffffffffffffffffffffff\n      and\n      dup2\n      mstore\n      0x20\n      add\n      swap1\n      dup2\n      mstore\n      0x20\n      add\n      0x00\n      keccak256\n      0x00\n        /* \"access/Roles.sol\":9621:9658  _roles[role].members[account] = false */\n      0x0100\n      exp\n      dup2\n      sload\n      dup2\n      0xff\n      mul\n      not\n      and\n      swap1\n      dup4\n      iszero\n      iszero\n      mul\n      or\n      swap1\n      sstore\n      pop\n        /* \"access/Roles.sol\":9705:9710  admin */\n      0x02\n      0x00\n      swap1\n      sload\n      swap1\n      0x0100\n      exp\n      swap1\n      div\n      0xffffffffffffffffffffffffffffffffffffffff\n      and\n        /* \"access/Roles.sol\":9678:9711  RoleRevoked(role, account, admin) */\n      0xffffffffffffffffffffffffffffffffffffffff\n      and\n        /* \"access/Roles.sol\":9696:9703  account */\n      dup2\n        /* \"access/Roles.sol\":9678:9711  RoleRevoked(role, account, admin) */\n      0xffffffffffffffffffffffffffffffffffffffff\n      and\n        /* \"access/Roles.sol\":9690:9694  role */\n      dup4\n        /* \"access/Roles.sol\":9678:9711  RoleRevoked(role, account, admin) */\n      0xf6391f5c32d9c69d2a47ea670b442974b53935d1edc7fd64eb21e047a839171b\n      mload(0x40)\n      mload(0x40)\n      dup1\n      swap2\n      sub\n      swap1\n      log4\n        /* \"access/Roles.sol\":9578:9723  if (hasRole(role, account)) {... */\n    tag_145:\n        /* \"access/Roles.sol\":9506:9730  function _revokeRole(bytes32 role, address account) private  {... */\n      pop\n      pop\n      jump\t// out\n        /* \"access/Roles.sol\":3369:3471  function setAdmin(address _sender) internal onlyOwner(_sender)... */\n    tag_71:\n        /* \"access/Roles.sol\":3423:3430  _sender */\n      dup1\n        /* \"access/Owner.sol\":352:372  _checkOwner(_sender) */\n      tag_147\n        /* \"access/Owner.sol\":364:371  _sender */\n      dup2\n        /* \"access/Owner.sol\":352:363  _checkOwner */\n      tag_76\n        /* \"access/Owner.sol\":352:372  _checkOwner(_sender) */\n      jump\t// in\n    tag_147:\n        /* \"access/Roles.sol\":3456:3463  _sender */\n      dup2\n        /* \"access/Roles.sol\":3448:3453  admin */\n      0x02\n      0x00\n        /* \"access/Roles.sol\":3448:3463  admin = _sender */\n      0x0100\n      exp\n      dup2\n      sload\n      dup2\n      0xffffffffffffffffffffffffffffffffffffffff\n      mul\n      not\n      and\n      swap1\n      dup4\n      0xffffffffffffffffffffffffffffffffffffffff\n      and\n      mul\n      or\n      swap1\n      sstore\n      pop\n        /* \"access/Roles.sol\":3369:3471  function setAdmin(address _sender) internal onlyOwner(_sender)... */\n      pop\n      pop\n      jump\t// out\n        /* \"access/Roles.sol\":8358:8492  function _setupRole(bytes32 role, address account) internal virtual onlyOwner(admin)... */\n    tag_73:\n        /* \"access/Roles.sol\":8436:8441  admin */\n      0x02\n      0x00\n      swap1\n      sload\n      swap1\n      0x0100\n      exp\n      swap1\n      div\n      0xffffffffffffffffffffffffffffffffffffffff\n      and\n        /* \"access/Owner.sol\":352:372  _checkOwner(_sender) */\n      tag_150\n        /* \"access/Owner.sol\":364:371  _sender */\n      dup2\n        /* \"access/Owner.sol\":352:363  _checkOwner */\n      tag_76\n        /* \"access/Owner.sol\":352:372  _checkOwner(_sender) */\n      jump\t// in\n    tag_150:\n        /* \"access/Roles.sol\":8459:8484  _grantRole(role, account) */\n      tag_152\n        /* \"access/Roles.sol\":8470:8474  role */\n      dup4\n        /* \"access/Roles.sol\":8476:8483  account */\n      dup4\n        /* \"access/Roles.sol\":8459:8469  _grantRole */\n      tag_153\n        /* \"access/Roles.sol\":8459:8484  _grantRole(role, account) */\n      jump\t// in\n    tag_152:\n        /* \"access/Roles.sol\":8358:8492  function _setupRole(bytes32 role, address account) internal virtual onlyOwner(admin)... */\n      pop\n      pop\n      pop\n      jump\t// out\n        /* \"access/Owner.sol\":497:645  function _checkOwner(address _sender) internal view virtual ... */\n    tag_76:\n        /* \"access/Owner.sol\":593:600  _sender */\n      dup1\n        /* \"access/Owner.sol\":582:600  owner() == _sender */\n      0xffffffffffffffffffffffffffffffffffffffff\n      and\n        /* \"access/Owner.sol\":582:589  owner() */\n      tag_155\n        /* \"access/Owner.sol\":582:587  owner */\n      tag_40\n        /* \"access/Owner.sol\":582:589  owner() */\n      jump\t// in\n    tag_155:\n        /* \"access/Owner.sol\":582:600  owner() == _sender */\n      0xffffffffffffffffffffffffffffffffffffffff\n      and\n      eq\n        /* \"access/Owner.sol\":574:637  require(owner() == _sender, \"Ownable: caller is not the owner\") */\n      tag_156\n      jumpi\n      mload(0x40)\n      0x08c379a000000000000000000000000000000000000000000000000000000000\n      dup2\n      mstore\n      0x04\n      add\n      tag_157\n      swap1\n      tag_158\n      jump\t// in\n    tag_157:\n      mload(0x40)\n      dup1\n      swap2\n      sub\n      swap1\n      revert\n    tag_156:\n        /* \"access/Owner.sol\":497:645  function _checkOwner(address _sender) internal view virtual ... */\n      pop\n      jump\t// out\n        /* \"access/Roles.sol\":5190:5682  function _checkRole(bytes32 role, address account) internal view virtual {... */\n    tag_79:\n        /* \"access/Roles.sol\":5279:5301  hasRole(role, account) */\n      tag_160\n        /* \"access/Roles.sol\":5287:5291  role */\n      dup3\n        /* \"access/Roles.sol\":5293:5300  account */\n      dup3\n        /* \"access/Roles.sol\":5279:5286  hasRole */\n      tag_45\n        /* \"access/Roles.sol\":5279:5301  hasRole(role, account) */\n      jump\t// in\n    tag_160:\n        /* \"access/Roles.sol\":5274:5675  if (!hasRole(role, account)) {... */\n      tag_161\n      jumpi\n        /* \"access/Roles.sol\":5467:5495  Strings.toHexString(account) */\n      tag_162\n        /* \"access/Roles.sol\":5487:5494  account */\n      dup2\n        /* \"access/Roles.sol\":5467:5486  Strings.toHexString */\n      tag_163\n        /* \"access/Roles.sol\":5467:5495  Strings.toHexString(account) */\n      jump\t// in\n    tag_162:\n        /* \"access/Roles.sol\":5568:5606  Strings.toHexString(uint256(role), 32) */\n      tag_164\n        /* \"access/Roles.sol\":5596:5600  role */\n      dup4\n        /* \"access/Roles.sol\":5588:5601  uint256(role) */\n      0x00\n      shr\n        /* \"access/Roles.sol\":5603:5605  32 */\n      0x20\n        /* \"access/Roles.sol\":5568:5587  Strings.toHexString */\n      tag_165\n        /* \"access/Roles.sol\":5568:5606  Strings.toHexString(uint256(role), 32) */\n      jump\t// in\n    tag_164:\n        /* \"access/Roles.sol\":5372:5629  abi.encodePacked(... */\n      add(0x20, mload(0x40))\n      tag_166\n      swap3\n      swap2\n      swap1\n      tag_167\n      jump\t// in\n    tag_166:\n      mload(0x40)\n      0x20\n      dup2\n      dup4\n      sub\n      sub\n      dup2\n      mstore\n      swap1\n      0x40\n      mstore\n        /* \"access/Roles.sol\":5318:5663  revert(... */\n      mload(0x40)\n      0x08c379a000000000000000000000000000000000000000000000000000000000\n      dup2\n      mstore\n      0x04\n      add\n      tag_168\n      swap2\n      swap1\n      tag_169\n      jump\t// in\n    tag_168:\n      mload(0x40)\n      dup1\n      swap2\n      sub\n      swap1\n      revert\n        /* \"access/Roles.sol\":5274:5675  if (!hasRole(role, account)) {... */\n    tag_161:\n        /* \"access/Roles.sol\":5190:5682  function _checkRole(bytes32 role, address account) internal view virtual {... */\n      pop\n      pop\n      jump\t// out\n        /* \"access/Roles.sol\":6742:6890  function revokeRole(bytes32 role, address account) internal virtual onlyRole(getRoleAdmin(role),admin) {... */\n    tag_82:\n        /* \"access/Roles.sol\":6819:6837  getRoleAdmin(role) */\n      tag_170\n        /* \"access/Roles.sol\":6832:6836  role */\n      dup3\n        /* \"access/Roles.sol\":6819:6831  getRoleAdmin */\n      tag_24\n        /* \"access/Roles.sol\":6819:6837  getRoleAdmin(role) */\n      jump\t// in\n    tag_170:\n        /* \"access/Roles.sol\":6838:6843  admin */\n      0x02\n      0x00\n      swap1\n      sload\n      swap1\n      0x0100\n      exp\n      swap1\n      div\n      0xffffffffffffffffffffffffffffffffffffffff\n      and\n        /* \"access/Roles.sol\":3925:3948  _checkRole(role,sender) */\n      tag_172\n        /* \"access/Roles.sol\":3936:3940  role */\n      dup3\n        /* \"access/Roles.sol\":3941:3947  sender */\n      dup3\n        /* \"access/Roles.sol\":3925:3935  _checkRole */\n      tag_79\n        /* \"access/Roles.sol\":3925:3948  _checkRole(role,sender) */\n      jump\t// in\n    tag_172:\n        /* \"access/Roles.sol\":6856:6882  _revokeRole(role, account) */\n      tag_174\n        /* \"access/Roles.sol\":6868:6872  role */\n      dup5\n        /* \"access/Roles.sol\":6874:6881  account */\n      dup5\n        /* \"access/Roles.sol\":6856:6867  _revokeRole */\n      tag_67\n        /* \"access/Roles.sol\":6856:6882  _revokeRole(role, account) */\n      jump\t// in\n    tag_174:\n        /* \"access/Roles.sol\":6742:6890  function revokeRole(bytes32 role, address account) internal virtual onlyRole(getRoleAdmin(role),admin) {... */\n      pop\n      pop\n      pop\n      pop\n      jump\t// out\n        /* \"access/Roles.sol\":6303:6449  function grantRole(bytes32 role, address account) internal virtual onlyRole(getRoleAdmin(role),admin) {... */\n    tag_125:\n        /* \"access/Roles.sol\":6379:6397  getRoleAdmin(role) */\n      tag_175\n        /* \"access/Roles.sol\":6392:6396  role */\n      dup3\n        /* \"access/Roles.sol\":6379:6391  getRoleAdmin */\n      tag_24\n        /* \"access/Roles.sol\":6379:6397  getRoleAdmin(role) */\n      jump\t// in\n    tag_175:\n        /* \"access/Roles.sol\":6398:6403  admin */\n      0x02\n      0x00\n      swap1\n      sload\n      swap1\n      0x0100\n      exp\n      swap1\n      div\n      0xffffffffffffffffffffffffffffffffffffffff\n      and\n        /* \"access/Roles.sol\":3925:3948  _checkRole(role,sender) */\n      tag_177\n        /* \"access/Roles.sol\":3936:3940  role */\n      dup3\n        /* \"access/Roles.sol\":3941:3947  sender */\n      dup3\n        /* \"access/Roles.sol\":3925:3935  _checkRole */\n      tag_79\n        /* \"access/Roles.sol\":3925:3948  _checkRole(role,sender) */\n      jump\t// in\n    tag_177:\n        /* \"access/Roles.sol\":6416:6441  _grantRole(role, account) */\n      tag_179\n        /* \"access/Roles.sol\":6427:6431  role */\n      dup5\n        /* \"access/Roles.sol\":6433:6440  account */\n      dup5\n        /* \"access/Roles.sol\":6416:6426  _grantRole */\n      tag_153\n        /* \"access/Roles.sol\":6416:6441  _grantRole(role, account) */\n      jump\t// in\n    tag_179:\n        /* \"access/Roles.sol\":6303:6449  function grantRole(bytes32 role, address account) internal virtual onlyRole(getRoleAdmin(role),admin) {... */\n      pop\n      pop\n      pop\n      pop\n      jump\t// out\n        /* \"access/Owner.sol\":980:1172  function _transferOwnership(address _newOwner) private  ... */\n    tag_142:\n        /* \"access/Owner.sol\":1053:1069  address oldOwner */\n      0x00\n        /* \"access/Owner.sol\":1072:1078  _owner */\n      dup1\n      0x00\n      swap1\n      sload\n      swap1\n      0x0100\n      exp\n      swap1\n      div\n      0xffffffffffffffffffffffffffffffffffffffff\n      and\n        /* \"access/Owner.sol\":1053:1078  address oldOwner = _owner */\n      swap1\n      pop\n        /* \"access/Owner.sol\":1098:1107  _newOwner */\n      dup2\n        /* \"access/Owner.sol\":1089:1095  _owner */\n      0x00\n      dup1\n        /* \"access/Owner.sol\":1089:1107  _owner = _newOwner */\n      0x0100\n      exp\n      dup2\n      sload\n      dup2\n      0xffffffffffffffffffffffffffffffffffffffff\n      mul\n      not\n      and\n      swap1\n      dup4\n      0xffffffffffffffffffffffffffffffffffffffff\n      and\n      mul\n      or\n      swap1\n      sstore\n      pop\n        /* \"access/Owner.sol\":1154:1163  _newOwner */\n      dup2\n        /* \"access/Owner.sol\":1123:1164  OwnershipTransferred(oldOwner, _newOwner) */\n      0xffffffffffffffffffffffffffffffffffffffff\n      and\n        /* \"access/Owner.sol\":1144:1152  oldOwner */\n      dup2\n        /* \"access/Owner.sol\":1123:1164  OwnershipTransferred(oldOwner, _newOwner) */\n      0xffffffffffffffffffffffffffffffffffffffff\n      and\n      0x8be0079c531659141344cd1fd0a4f28419497f9722a3daafe3b4186f6b6457e0\n      mload(0x40)\n      mload(0x40)\n      dup1\n      swap2\n      sub\n      swap1\n      log3\n        /* \"access/Owner.sol\":1042:1172  {... */\n      pop\n        /* \"access/Owner.sol\":980:1172  function _transferOwnership(address _newOwner) private  ... */\n      pop\n      jump\t// out\n        /* \"access/Roles.sol\":9087:9326  function _grantRole(bytes32 role, address account) private  ... */\n    tag_153:\n        /* \"access/Roles.sol\":9169:9191  hasRole(role, account) */\n      tag_182\n        /* \"access/Roles.sol\":9177:9181  role */\n      dup3\n        /* \"access/Roles.sol\":9183:9190  account */\n      dup3\n        /* \"access/Roles.sol\":9169:9176  hasRole */\n      tag_45\n        /* \"access/Roles.sol\":9169:9191  hasRole(role, account) */\n      jump\t// in\n    tag_182:\n        /* \"access/Roles.sol\":9164:9319  if (!hasRole(role, account)) ... */\n      tag_183\n      jumpi\n        /* \"access/Roles.sol\":9250:9254  true */\n      0x01\n        /* \"access/Roles.sol\":9218:9224  _roles */\n      dup1\n        /* \"access/Roles.sol\":9218:9230  _roles[role] */\n      0x00\n        /* \"access/Roles.sol\":9225:9229  role */\n      dup5\n        /* \"access/Roles.sol\":9218:9230  _roles[role] */\n      dup2\n      mstore\n      0x20\n      add\n      swap1\n      dup2\n      mstore\n      0x20\n      add\n      0x00\n      keccak256\n        /* \"access/Roles.sol\":9218:9238  _roles[role].members */\n      0x00\n      add\n        /* \"access/Roles.sol\":9218:9247  _roles[role].members[account] */\n      0x00\n        /* \"access/Roles.sol\":9239:9246  account */\n      dup4\n        /* \"access/Roles.sol\":9218:9247  _roles[role].members[account] */\n      0xffffffffffffffffffffffffffffffffffffffff\n      and\n      0xffffffffffffffffffffffffffffffffffffffff\n      and\n      dup2\n      mstore\n      0x20\n      add\n      swap1\n      dup2\n      mstore\n      0x20\n      add\n      0x00\n      keccak256\n      0x00\n        /* \"access/Roles.sol\":9218:9254  _roles[role].members[account] = true */\n      0x0100\n      exp\n      dup2\n      sload\n      dup2\n      0xff\n      mul\n      not\n      and\n      swap1\n      dup4\n      iszero\n      iszero\n      mul\n      or\n      swap1\n      sstore\n      pop\n        /* \"access/Roles.sol\":9301:9306  admin */\n      0x02\n      0x00\n      swap1\n      sload\n      swap1\n      0x0100\n      exp\n      swap1\n      div\n      0xffffffffffffffffffffffffffffffffffffffff\n      and\n        /* \"access/Roles.sol\":9274:9307  RoleGranted(role, account, admin) */\n      0xffffffffffffffffffffffffffffffffffffffff\n      and\n        /* \"access/Roles.sol\":9292:9299  account */\n      dup2\n        /* \"access/Roles.sol\":9274:9307  RoleGranted(role, account, admin) */\n      0xffffffffffffffffffffffffffffffffffffffff\n      and\n        /* \"access/Roles.sol\":9286:9290  role */\n      dup4\n        /* \"access/Roles.sol\":9274:9307  RoleGranted(role, account, admin) */\n      0x2f8788117e7eff1d82e926ec794901d17c78024a50270940304540a733656f0d\n      mload(0x40)\n      mload(0x40)\n      dup1\n      swap2\n      sub\n      swap1\n      log4\n        /* \"access/Roles.sol\":9164:9319  if (!hasRole(role, account)) ... */\n    tag_183:\n        /* \"access/Roles.sol\":9087:9326  function _grantRole(bytes32 role, address account) private  ... */\n      pop\n      pop\n      jump\t// out\n        /* \"github.com/OpenZeppelin/openzeppelin-contracts/blob/master/contracts/utils/Strings.sol\":2407:2556  function toHexString(address addr) internal pure returns (string memory) {... */\n    tag_163:\n        /* \"github.com/OpenZeppelin/openzeppelin-contracts/blob/master/contracts/utils/Strings.sol\":2465:2478  string memory */\n      0x60\n        /* \"github.com/OpenZeppelin/openzeppelin-contracts/blob/master/contracts/utils/Strings.sol\":2497:2549  toHexString(uint256(uint160(addr)), _ADDRESS_LENGTH) */\n      tag_185\n        /* \"github.com/OpenZeppelin/openzeppelin-contracts/blob/master/contracts/utils/Strings.sol\":2525:2529  addr */\n      dup3\n        /* \"github.com/OpenZeppelin/openzeppelin-contracts/blob/master/contracts/utils/Strings.sol\":2509:2531  uint256(uint160(addr)) */\n      0xffffffffffffffffffffffffffffffffffffffff\n      and\n        /* \"github.com/OpenZeppelin/openzeppelin-contracts/blob/master/contracts/utils/Strings.sol\":343:345  20 */\n      0x14\n        /* \"github.com/OpenZeppelin/openzeppelin-contracts/blob/master/contracts/utils/Strings.sol\":2497:2549  toHexString(uint256(uint160(addr)), _ADDRESS_LENGTH) */\n      0xff\n      and\n        /* \"github.com/OpenZeppelin/openzeppelin-contracts/blob/master/contracts/utils/Strings.sol\":2497:2508  toHexString */\n      tag_165\n        /* \"github.com/OpenZeppelin/openzeppelin-contracts/blob/master/contracts/utils/Strings.sol\":2497:2549  toHexString(uint256(uint160(addr)), _ADDRESS_LENGTH) */\n      jump\t// in\n    tag_185:\n        /* \"github.com/OpenZeppelin/openzeppelin-contracts/blob/master/contracts/utils/Strings.sol\":2490:2549  return toHexString(uint256(uint160(addr)), _ADDRESS_LENGTH) */\n      swap1\n      pop\n        /* \"github.com/OpenZeppelin/openzeppelin-contracts/blob/master/contracts/utils/Strings.sol\":2407:2556  function toHexString(address addr) internal pure returns (string memory) {... */\n      swap2\n      swap1\n      pop\n      jump\t// out\n        /* \"github.com/OpenZeppelin/openzeppelin-contracts/blob/master/contracts/utils/Strings.sol\":1818:2255  function toHexString(uint256 value, uint256 length) internal pure returns (string memory) {... */\n    tag_165:\n        /* \"github.com/OpenZeppelin/openzeppelin-contracts/blob/master/contracts/utils/Strings.sol\":1893:1906  string memory */\n      0x60\n        /* \"github.com/OpenZeppelin/openzeppelin-contracts/blob/master/contracts/utils/Strings.sol\":1918:1937  bytes memory buffer */\n      0x00\n        /* \"github.com/OpenZeppelin/openzeppelin-contracts/blob/master/contracts/utils/Strings.sol\":1963:1964  2 */\n      0x02\n        /* \"github.com/OpenZeppelin/openzeppelin-contracts/blob/master/contracts/utils/Strings.sol\":1954:1960  length */\n      dup4\n        /* \"github.com/OpenZeppelin/openzeppelin-contracts/blob/master/contracts/utils/Strings.sol\":1950:1951  2 */\n      0x02\n        /* \"github.com/OpenZeppelin/openzeppelin-contracts/blob/master/contracts/utils/Strings.sol\":1950:1960  2 * length */\n      tag_187\n      swap2\n      swap1\n      tag_188\n      jump\t// in\n    tag_187:\n        /* \"github.com/OpenZeppelin/openzeppelin-contracts/blob/master/contracts/utils/Strings.sol\":1950:1964  2 * length + 2 */\n      tag_189\n      swap2\n      swap1\n      tag_95\n      jump\t// in\n    tag_189:\n        /* \"github.com/OpenZeppelin/openzeppelin-contracts/blob/master/contracts/utils/Strings.sol\":1940:1965  new bytes(2 * length + 2) */\n      0xffffffffffffffff\n      dup2\n      gt\n      iszero\n      tag_190\n      jumpi\n      tag_191\n      tag_192\n      jump\t// in\n    tag_191:\n    tag_190:\n      mload(0x40)\n      swap1\n      dup1\n      dup3\n      mstore\n      dup1\n      0x1f\n      add\n      not(0x1f)\n      and\n      0x20\n      add\n      dup3\n      add\n      0x40\n      mstore\n      dup1\n      iszero\n      tag_193\n      jumpi\n      dup2\n      0x20\n      add\n      0x01\n      dup3\n      mul\n      dup1\n      calldatasize\n      dup4\n      calldatacopy\n      dup1\n      dup3\n      add\n      swap2\n      pop\n      pop\n      swap1\n      pop\n    tag_193:\n      pop\n        /* \"github.com/OpenZeppelin/openzeppelin-contracts/blob/master/contracts/utils/Strings.sol\":1918:1965  bytes memory buffer = new bytes(2 * length + 2) */\n      swap1\n      pop\n        /* \"github.com/OpenZeppelin/openzeppelin-contracts/blob/master/contracts/utils/Strings.sol\":1975:1990  buffer[0] = \"0\" */\n      0x3000000000000000000000000000000000000000000000000000000000000000\n        /* \"github.com/OpenZeppelin/openzeppelin-contracts/blob/master/contracts/utils/Strings.sol\":1975:1981  buffer */\n      dup2\n        /* \"github.com/OpenZeppelin/openzeppelin-contracts/blob/master/contracts/utils/Strings.sol\":1982:1983  0 */\n      0x00\n        /* \"github.com/OpenZeppelin/openzeppelin-contracts/blob/master/contracts/utils/Strings.sol\":1975:1984  buffer[0] */\n      dup2\n      mload\n      dup2\n      lt\n      tag_194\n      jumpi\n      tag_195\n      tag_90\n      jump\t// in\n    tag_195:\n    tag_194:\n      0x20\n      add\n      add\n        /* \"github.com/OpenZeppelin/openzeppelin-contracts/blob/master/contracts/utils/Strings.sol\":1975:1990  buffer[0] = \"0\" */\n      swap1\n      not(0xffffffffffffffffffffffffffffffffffffffffffffffffffffffffffffff)\n      and\n      swap1\n      dup2\n      0x00\n      byte\n      swap1\n      mstore8\n      pop\n        /* \"github.com/OpenZeppelin/openzeppelin-contracts/blob/master/contracts/utils/Strings.sol\":2000:2015  buffer[1] = \"x\" */\n      0x7800000000000000000000000000000000000000000000000000000000000000\n        /* \"github.com/OpenZeppelin/openzeppelin-contracts/blob/master/contracts/utils/Strings.sol\":2000:2006  buffer */\n      dup2\n        /* \"github.com/OpenZeppelin/openzeppelin-contracts/blob/master/contracts/utils/Strings.sol\":2007:2008  1 */\n      0x01\n        /* \"github.com/OpenZeppelin/openzeppelin-contracts/blob/master/contracts/utils/Strings.sol\":2000:2009  buffer[1] */\n      dup2\n      mload\n      dup2\n      lt\n      tag_196\n      jumpi\n      tag_197\n      tag_90\n      jump\t// in\n    tag_197:\n    tag_196:\n      0x20\n      add\n      add\n        /* \"github.com/OpenZeppelin/openzeppelin-contracts/blob/master/contracts/utils/Strings.sol\":2000:2015  buffer[1] = \"x\" */\n      swap1\n      not(0xffffffffffffffffffffffffffffffffffffffffffffffffffffffffffffff)\n      and\n      swap1\n      dup2\n      0x00\n      byte\n      swap1\n      mstore8\n      pop\n        /* \"github.com/OpenZeppelin/openzeppelin-contracts/blob/master/contracts/utils/Strings.sol\":2030:2039  uint256 i */\n      0x00\n        /* \"github.com/OpenZeppelin/openzeppelin-contracts/blob/master/contracts/utils/Strings.sol\":2055:2056  1 */\n      0x01\n        /* \"github.com/OpenZeppelin/openzeppelin-contracts/blob/master/contracts/utils/Strings.sol\":2046:2052  length */\n      dup5\n        /* \"github.com/OpenZeppelin/openzeppelin-contracts/blob/master/contracts/utils/Strings.sol\":2042:2043  2 */\n      0x02\n        /* \"github.com/OpenZeppelin/openzeppelin-contracts/blob/master/contracts/utils/Strings.sol\":2042:2052  2 * length */\n      tag_201\n      swap2\n      swap1\n      tag_188\n      jump\t// in\n    tag_201:\n        /* \"github.com/OpenZeppelin/openzeppelin-contracts/blob/master/contracts/utils/Strings.sol\":2042:2056  2 * length + 1 */\n      tag_202\n      swap2\n      swap1\n      tag_95\n      jump\t// in\n    tag_202:\n        /* \"github.com/OpenZeppelin/openzeppelin-contracts/blob/master/contracts/utils/Strings.sol\":2030:2056  uint256 i = 2 * length + 1 */\n      swap1\n      pop\n        /* \"github.com/OpenZeppelin/openzeppelin-contracts/blob/master/contracts/utils/Strings.sol\":2025:2153  for (uint256 i = 2 * length + 1; i > 1; --i) {... */\n    tag_198:\n        /* \"github.com/OpenZeppelin/openzeppelin-contracts/blob/master/contracts/utils/Strings.sol\":2062:2063  1 */\n      0x01\n        /* \"github.com/OpenZeppelin/openzeppelin-contracts/blob/master/contracts/utils/Strings.sol\":2058:2059  i */\n      dup2\n        /* \"github.com/OpenZeppelin/openzeppelin-contracts/blob/master/contracts/utils/Strings.sol\":2058:2063  i > 1 */\n      gt\n        /* \"github.com/OpenZeppelin/openzeppelin-contracts/blob/master/contracts/utils/Strings.sol\":2025:2153  for (uint256 i = 2 * length + 1; i > 1; --i) {... */\n      iszero\n      tag_199\n      jumpi\n        /* \"github.com/OpenZeppelin/openzeppelin-contracts/blob/master/contracts/utils/Strings.sol\":2096:2104  _SYMBOLS */\n      0x3031323334353637383961626364656600000000000000000000000000000000\n        /* \"github.com/OpenZeppelin/openzeppelin-contracts/blob/master/contracts/utils/Strings.sol\":2113:2116  0xf */\n      0x0f\n        /* \"github.com/OpenZeppelin/openzeppelin-contracts/blob/master/contracts/utils/Strings.sol\":2105:2110  value */\n      dup7\n        /* \"github.com/OpenZeppelin/openzeppelin-contracts/blob/master/contracts/utils/Strings.sol\":2105:2116  value & 0xf */\n      and\n        /* \"github.com/OpenZeppelin/openzeppelin-contracts/blob/master/contracts/utils/Strings.sol\":2096:2117  _SYMBOLS[value & 0xf] */\n      0x10\n      dup2\n      lt\n      tag_203\n      jumpi\n      tag_204\n      tag_90\n      jump\t// in\n    tag_204:\n    tag_203:\n      byte\n      0xf8\n      shl\n        /* \"github.com/OpenZeppelin/openzeppelin-contracts/blob/master/contracts/utils/Strings.sol\":2084:2090  buffer */\n      dup3\n        /* \"github.com/OpenZeppelin/openzeppelin-contracts/blob/master/contracts/utils/Strings.sol\":2091:2092  i */\n      dup3\n        /* \"github.com/OpenZeppelin/openzeppelin-contracts/blob/master/contracts/utils/Strings.sol\":2084:2093  buffer[i] */\n      dup2\n      mload\n      dup2\n      lt\n      tag_205\n      jumpi\n      tag_206\n      tag_90\n      jump\t// in\n    tag_206:\n    tag_205:\n      0x20\n      add\n      add\n        /* \"github.com/OpenZeppelin/openzeppelin-contracts/blob/master/contracts/utils/Strings.sol\":2084:2117  buffer[i] = _SYMBOLS[value & 0xf] */\n      swap1\n      not(0xffffffffffffffffffffffffffffffffffffffffffffffffffffffffffffff)\n      and\n      swap1\n      dup2\n      0x00\n      byte\n      swap1\n      mstore8\n      pop\n        /* \"github.com/OpenZeppelin/openzeppelin-contracts/blob/master/contracts/utils/Strings.sol\":2141:2142  4 */\n      0x04\n        /* \"github.com/OpenZeppelin/openzeppelin-contracts/blob/master/contracts/utils/Strings.sol\":2131:2142  value >>= 4 */\n      dup6\n      swap1\n      shr\n      swap5\n      pop\n        /* \"github.com/OpenZeppelin/openzeppelin-contracts/blob/master/contracts/utils/Strings.sol\":2065:2068  --i */\n      dup1\n      tag_207\n      swap1\n      tag_208\n      jump\t// in\n    tag_207:\n      swap1\n      pop\n        /* \"github.com/OpenZeppelin/openzeppelin-contracts/blob/master/contracts/utils/Strings.sol\":2025:2153  for (uint256 i = 2 * length + 1; i > 1; --i) {... */\n      jump(tag_198)\n    tag_199:\n      pop\n        /* \"github.com/OpenZeppelin/openzeppelin-contracts/blob/master/contracts/utils/Strings.sol\":2179:2180  0 */\n      0x00\n        /* \"github.com/OpenZeppelin/openzeppelin-contracts/blob/master/contracts/utils/Strings.sol\":2170:2175  value */\n      dup5\n        /* \"github.com/OpenZeppelin/openzeppelin-contracts/blob/master/contracts/utils/Strings.sol\":2170:2180  value == 0 */\n      eq\n        /* \"github.com/OpenZeppelin/openzeppelin-contracts/blob/master/contracts/utils/Strings.sol\":2162:2217  require(value == 0, \"Strings: hex length insufficient\") */\n      tag_209\n      jumpi\n      mload(0x40)\n      0x08c379a000000000000000000000000000000000000000000000000000000000\n      dup2\n      mstore\n      0x04\n      add\n      tag_210\n      swap1\n      tag_211\n      jump\t// in\n    tag_210:\n      mload(0x40)\n      dup1\n      swap2\n      sub\n      swap1\n      revert\n    tag_209:\n        /* \"github.com/OpenZeppelin/openzeppelin-contracts/blob/master/contracts/utils/Strings.sol\":2241:2247  buffer */\n      dup1\n        /* \"github.com/OpenZeppelin/openzeppelin-contracts/blob/master/contracts/utils/Strings.sol\":2227:2248  return string(buffer) */\n      swap2\n      pop\n      pop\n        /* \"github.com/OpenZeppelin/openzeppelin-contracts/blob/master/contracts/utils/Strings.sol\":1818:2255  function toHexString(uint256 value, uint256 length) internal pure returns (string memory) {... */\n      swap3\n      swap2\n      pop\n      pop\n      jump\t// out\n        /* \"#utility.yul\":88:205   */\n    tag_213:\n        /* \"#utility.yul\":197:198   */\n      0x00\n        /* \"#utility.yul\":194:195   */\n      dup1\n        /* \"#utility.yul\":187:199   */\n      revert\n        /* \"#utility.yul\":334:483   */\n    tag_215:\n        /* \"#utility.yul\":370:377   */\n      0x00\n        /* \"#utility.yul\":410:476   */\n      0xffffffff00000000000000000000000000000000000000000000000000000000\n        /* \"#utility.yul\":403:408   */\n      dup3\n        /* \"#utility.yul\":399:477   */\n      and\n        /* \"#utility.yul\":388:477   */\n      swap1\n      pop\n        /* \"#utility.yul\":334:483   */\n      swap2\n      swap1\n      pop\n      jump\t// out\n        /* \"#utility.yul\":489:609   */\n    tag_216:\n        /* \"#utility.yul\":561:584   */\n      tag_256\n        /* \"#utility.yul\":578:583   */\n      dup2\n        /* \"#utility.yul\":561:584   */\n      tag_215\n      jump\t// in\n    tag_256:\n        /* \"#utility.yul\":554:559   */\n      dup2\n        /* \"#utility.yul\":551:585   */\n      eq\n        /* \"#utility.yul\":541:603   */\n      tag_257\n      jumpi\n        /* \"#utility.yul\":599:600   */\n      0x00\n        /* \"#utility.yul\":596:597   */\n      dup1\n        /* \"#utility.yul\":589:601   */\n      revert\n        /* \"#utility.yul\":541:603   */\n    tag_257:\n        /* \"#utility.yul\":489:609   */\n      pop\n      jump\t// out\n        /* \"#utility.yul\":615:752   */\n    tag_217:\n        /* \"#utility.yul\":660:665   */\n      0x00\n        /* \"#utility.yul\":698:704   */\n      dup2\n        /* \"#utility.yul\":685:705   */\n      calldataload\n        /* \"#utility.yul\":676:705   */\n      swap1\n      pop\n        /* \"#utility.yul\":714:746   */\n      tag_259\n        /* \"#utility.yul\":740:745   */\n      dup2\n        /* \"#utility.yul\":714:746   */\n      tag_216\n      jump\t// in\n    tag_259:\n        /* \"#utility.yul\":615:752   */\n      swap3\n      swap2\n      pop\n      pop\n      jump\t// out\n        /* \"#utility.yul\":758:1085   */\n    tag_17:\n        /* \"#utility.yul\":816:822   */\n      0x00\n        /* \"#utility.yul\":865:867   */\n      0x20\n        /* \"#utility.yul\":853:862   */\n      dup3\n        /* \"#utility.yul\":844:851   */\n      dup5\n        /* \"#utility.yul\":840:863   */\n      sub\n        /* \"#utility.yul\":836:868   */\n      slt\n        /* \"#utility.yul\":833:952   */\n      iszero\n      tag_261\n      jumpi\n        /* \"#utility.yul\":871:950   */\n      tag_262\n      tag_213\n      jump\t// in\n    tag_262:\n        /* \"#utility.yul\":833:952   */\n    tag_261:\n        /* \"#utility.yul\":991:992   */\n      0x00\n        /* \"#utility.yul\":1016:1068   */\n      tag_263\n        /* \"#utility.yul\":1060:1067   */\n      dup5\n        /* \"#utility.yul\":1051:1057   */\n      dup3\n        /* \"#utility.yul\":1040:1049   */\n      dup6\n        /* \"#utility.yul\":1036:1058   */\n      add\n        /* \"#utility.yul\":1016:1068   */\n      tag_217\n      jump\t// in\n    tag_263:\n        /* \"#utility.yul\":1006:1068   */\n      swap2\n      pop\n        /* \"#utility.yul\":962:1078   */\n      pop\n        /* \"#utility.yul\":758:1085   */\n      swap3\n      swap2\n      pop\n      pop\n      jump\t// out\n        /* \"#utility.yul\":1091:1181   */\n    tag_218:\n        /* \"#utility.yul\":1125:1132   */\n      0x00\n        /* \"#utility.yul\":1168:1173   */\n      dup2\n        /* \"#utility.yul\":1161:1174   */\n      iszero\n        /* \"#utility.yul\":1154:1175   */\n      iszero\n        /* \"#utility.yul\":1143:1175   */\n      swap1\n      pop\n        /* \"#utility.yul\":1091:1181   */\n      swap2\n      swap1\n      pop\n      jump\t// out\n        /* \"#utility.yul\":1187:1296   */\n    tag_219:\n        /* \"#utility.yul\":1268:1289   */\n      tag_266\n        /* \"#utility.yul\":1283:1288   */\n      dup2\n        /* \"#utility.yul\":1268:1289   */\n      tag_218\n      jump\t// in\n    tag_266:\n        /* \"#utility.yul\":1263:1266   */\n      dup3\n        /* \"#utility.yul\":1256:1290   */\n      mstore\n        /* \"#utility.yul\":1187:1296   */\n      pop\n      pop\n      jump\t// out\n        /* \"#utility.yul\":1302:1512   */\n    tag_20:\n        /* \"#utility.yul\":1389:1393   */\n      0x00\n        /* \"#utility.yul\":1427:1429   */\n      0x20\n        /* \"#utility.yul\":1416:1425   */\n      dup3\n        /* \"#utility.yul\":1412:1430   */\n      add\n        /* \"#utility.yul\":1404:1430   */\n      swap1\n      pop\n        /* \"#utility.yul\":1440:1505   */\n      tag_268\n        /* \"#utility.yul\":1502:1503   */\n      0x00\n        /* \"#utility.yul\":1491:1500   */\n      dup4\n        /* \"#utility.yul\":1487:1504   */\n      add\n        /* \"#utility.yul\":1478:1484   */\n      dup5\n        /* \"#utility.yul\":1440:1505   */\n      tag_219\n      jump\t// in\n    tag_268:\n        /* \"#utility.yul\":1302:1512   */\n      swap3\n      swap2\n      pop\n      pop\n      jump\t// out\n        /* \"#utility.yul\":1518:1595   */\n    tag_220:\n        /* \"#utility.yul\":1555:1562   */\n      0x00\n        /* \"#utility.yul\":1584:1589   */\n      dup2\n        /* \"#utility.yul\":1573:1589   */\n      swap1\n      pop\n        /* \"#utility.yul\":1518:1595   */\n      swap2\n      swap1\n      pop\n      jump\t// out\n        /* \"#utility.yul\":1601:1723   */\n    tag_221:\n        /* \"#utility.yul\":1674:1698   */\n      tag_271\n        /* \"#utility.yul\":1692:1697   */\n      dup2\n        /* \"#utility.yul\":1674:1698   */\n      tag_220\n      jump\t// in\n    tag_271:\n        /* \"#utility.yul\":1667:1672   */\n      dup2\n        /* \"#utility.yul\":1664:1699   */\n      eq\n        /* \"#utility.yul\":1654:1717   */\n      tag_272\n      jumpi\n        /* \"#utility.yul\":1713:1714   */\n      0x00\n        /* \"#utility.yul\":1710:1711   */\n      dup1\n        /* \"#utility.yul\":1703:1715   */\n      revert\n        /* \"#utility.yul\":1654:1717   */\n    tag_272:\n        /* \"#utility.yul\":1601:1723   */\n      pop\n      jump\t// out\n        /* \"#utility.yul\":1729:1868   */\n    tag_222:\n        /* \"#utility.yul\":1775:1780   */\n      0x00\n        /* \"#utility.yul\":1813:1819   */\n      dup2\n        /* \"#utility.yul\":1800:1820   */\n      calldataload\n        /* \"#utility.yul\":1791:1820   */\n      swap1\n      pop\n        /* \"#utility.yul\":1829:1862   */\n      tag_274\n        /* \"#utility.yul\":1856:1861   */\n      dup2\n        /* \"#utility.yul\":1829:1862   */\n      tag_221\n      jump\t// in\n    tag_274:\n        /* \"#utility.yul\":1729:1868   */\n      swap3\n      swap2\n      pop\n      pop\n      jump\t// out\n        /* \"#utility.yul\":1874:2203   */\n    tag_23:\n        /* \"#utility.yul\":1933:1939   */\n      0x00\n        /* \"#utility.yul\":1982:1984   */\n      0x20\n        /* \"#utility.yul\":1970:1979   */\n      dup3\n        /* \"#utility.yul\":1961:1968   */\n      dup5\n        /* \"#utility.yul\":1957:1980   */\n      sub\n        /* \"#utility.yul\":1953:1985   */\n      slt\n        /* \"#utility.yul\":1950:2069   */\n      iszero\n      tag_276\n      jumpi\n        /* \"#utility.yul\":1988:2067   */\n      tag_277\n      tag_213\n      jump\t// in\n    tag_277:\n        /* \"#utility.yul\":1950:2069   */\n    tag_276:\n        /* \"#utility.yul\":2108:2109   */\n      0x00\n        /* \"#utility.yul\":2133:2186   */\n      tag_278\n        /* \"#utility.yul\":2178:2185   */\n      dup5\n        /* \"#utility.yul\":2169:2175   */\n      dup3\n        /* \"#utility.yul\":2158:2167   */\n      dup6\n        /* \"#utility.yul\":2154:2176   */\n      add\n        /* \"#utility.yul\":2133:2186   */\n      tag_222\n      jump\t// in\n    tag_278:\n        /* \"#utility.yul\":2123:2186   */\n      swap2\n      pop\n        /* \"#utility.yul\":2079:2196   */\n      pop\n        /* \"#utility.yul\":1874:2203   */\n      swap3\n      swap2\n      pop\n      pop\n      jump\t// out\n        /* \"#utility.yul\":2209:2327   */\n    tag_223:\n        /* \"#utility.yul\":2296:2320   */\n      tag_280\n        /* \"#utility.yul\":2314:2319   */\n      dup2\n        /* \"#utility.yul\":2296:2320   */\n      tag_220\n      jump\t// in\n    tag_280:\n        /* \"#utility.yul\":2291:2294   */\n      dup3\n        /* \"#utility.yul\":2284:2321   */\n      mstore\n        /* \"#utility.yul\":2209:2327   */\n      pop\n      pop\n      jump\t// out\n        /* \"#utility.yul\":2333:2555   */\n    tag_26:\n        /* \"#utility.yul\":2426:2430   */\n      0x00\n        /* \"#utility.yul\":2464:2466   */\n      0x20\n        /* \"#utility.yul\":2453:2462   */\n      dup3\n        /* \"#utility.yul\":2449:2467   */\n      add\n        /* \"#utility.yul\":2441:2467   */\n      swap1\n      pop\n        /* \"#utility.yul\":2477:2548   */\n      tag_282\n        /* \"#utility.yul\":2545:2546   */\n      0x00\n        /* \"#utility.yul\":2534:2543   */\n      dup4\n        /* \"#utility.yul\":2530:2547   */\n      add\n        /* \"#utility.yul\":2521:2527   */\n      dup5\n        /* \"#utility.yul\":2477:2548   */\n      tag_223\n      jump\t// in\n    tag_282:\n        /* \"#utility.yul\":2333:2555   */\n      swap3\n      swap2\n      pop\n      pop\n      jump\t// out\n        /* \"#utility.yul\":2561:2687   */\n    tag_224:\n        /* \"#utility.yul\":2598:2605   */\n      0x00\n        /* \"#utility.yul\":2638:2680   */\n      0xffffffffffffffffffffffffffffffffffffffff\n        /* \"#utility.yul\":2631:2636   */\n      dup3\n        /* \"#utility.yul\":2627:2681   */\n      and\n        /* \"#utility.yul\":2616:2681   */\n      swap1\n      pop\n        /* \"#utility.yul\":2561:2687   */\n      swap2\n      swap1\n      pop\n      jump\t// out\n        /* \"#utility.yul\":2693:2789   */\n    tag_225:\n        /* \"#utility.yul\":2730:2737   */\n      0x00\n        /* \"#utility.yul\":2759:2783   */\n      tag_285\n        /* \"#utility.yul\":2777:2782   */\n      dup3\n        /* \"#utility.yul\":2759:2783   */\n      tag_224\n      jump\t// in\n    tag_285:\n        /* \"#utility.yul\":2748:2783   */\n      swap1\n      pop\n        /* \"#utility.yul\":2693:2789   */\n      swap2\n      swap1\n      pop\n      jump\t// out\n        /* \"#utility.yul\":2795:2917   */\n    tag_226:\n        /* \"#utility.yul\":2868:2892   */\n      tag_287\n        /* \"#utility.yul\":2886:2891   */\n      dup2\n        /* \"#utility.yul\":2868:2892   */\n      tag_225\n      jump\t// in\n    tag_287:\n        /* \"#utility.yul\":2861:2866   */\n      dup2\n        /* \"#utility.yul\":2858:2893   */\n      eq\n        /* \"#utility.yul\":2848:2911   */\n      tag_288\n      jumpi\n        /* \"#utility.yul\":2907:2908   */\n      0x00\n        /* \"#utility.yul\":2904:2905   */\n      dup1\n        /* \"#utility.yul\":2897:2909   */\n      revert\n        /* \"#utility.yul\":2848:2911   */\n    tag_288:\n        /* \"#utility.yul\":2795:2917   */\n      pop\n      jump\t// out\n        /* \"#utility.yul\":2923:3062   */\n    tag_227:\n        /* \"#utility.yul\":2969:2974   */\n      0x00\n        /* \"#utility.yul\":3007:3013   */\n      dup2\n        /* \"#utility.yul\":2994:3014   */\n      calldataload\n        /* \"#utility.yul\":2985:3014   */\n      swap1\n      pop\n        /* \"#utility.yul\":3023:3056   */\n      tag_290\n        /* \"#utility.yul\":3050:3055   */\n      dup2\n        /* \"#utility.yul\":3023:3056   */\n      tag_226\n      jump\t// in\n    tag_290:\n        /* \"#utility.yul\":2923:3062   */\n      swap3\n      swap2\n      pop\n      pop\n      jump\t// out\n        /* \"#utility.yul\":3068:3542   */\n    tag_29:\n        /* \"#utility.yul\":3136:3142   */\n      0x00\n        /* \"#utility.yul\":3144:3150   */\n      dup1\n        /* \"#utility.yul\":3193:3195   */\n      0x40\n        /* \"#utility.yul\":3181:3190   */\n      dup4\n        /* \"#utility.yul\":3172:3179   */\n      dup6\n        /* \"#utility.yul\":3168:3191   */\n      sub\n        /* \"#utility.yul\":3164:3196   */\n      slt\n        /* \"#utility.yul\":3161:3280   */\n      iszero\n      tag_292\n      jumpi\n        /* \"#utility.yul\":3199:3278   */\n      tag_293\n      tag_213\n      jump\t// in\n    tag_293:\n        /* \"#utility.yul\":3161:3280   */\n    tag_292:\n        /* \"#utility.yul\":3319:3320   */\n      0x00\n        /* \"#utility.yul\":3344:3397   */\n      tag_294\n        /* \"#utility.yul\":3389:3396   */\n      dup6\n        /* \"#utility.yul\":3380:3386   */\n      dup3\n        /* \"#utility.yul\":3369:3378   */\n      dup7\n        /* \"#utility.yul\":3365:3387   */\n      add\n        /* \"#utility.yul\":3344:3397   */\n      tag_222\n      jump\t// in\n    tag_294:\n        /* \"#utility.yul\":3334:3397   */\n      swap3\n      pop\n        /* \"#utility.yul\":3290:3407   */\n      pop\n        /* \"#utility.yul\":3446:3448   */\n      0x20\n        /* \"#utility.yul\":3472:3525   */\n      tag_295\n        /* \"#utility.yul\":3517:3524   */\n      dup6\n        /* \"#utility.yul\":3508:3514   */\n      dup3\n        /* \"#utility.yul\":3497:3506   */\n      dup7\n        /* \"#utility.yul\":3493:3515   */\n      add\n        /* \"#utility.yul\":3472:3525   */\n      tag_227\n      jump\t// in\n    tag_295:\n        /* \"#utility.yul\":3462:3525   */\n      swap2\n      pop\n        /* \"#utility.yul\":3417:3535   */\n      pop\n        /* \"#utility.yul\":3068:3542   */\n      swap3\n      pop\n      swap3\n      swap1\n      pop\n      jump\t// out\n        /* \"#utility.yul\":3548:3877   */\n    tag_33:\n        /* \"#utility.yul\":3607:3613   */\n      0x00\n        /* \"#utility.yul\":3656:3658   */\n      0x20\n        /* \"#utility.yul\":3644:3653   */\n      dup3\n        /* \"#utility.yul\":3635:3642   */\n      dup5\n        /* \"#utility.yul\":3631:3654   */\n      sub\n        /* \"#utility.yul\":3627:3659   */\n      slt\n        /* \"#utility.yul\":3624:3743   */\n      iszero\n      tag_297\n      jumpi\n        /* \"#utility.yul\":3662:3741   */\n      tag_298\n      tag_213\n      jump\t// in\n    tag_298:\n        /* \"#utility.yul\":3624:3743   */\n    tag_297:\n        /* \"#utility.yul\":3782:3783   */\n      0x00\n        /* \"#utility.yul\":3807:3860   */\n      tag_299\n        /* \"#utility.yul\":3852:3859   */\n      dup5\n        /* \"#utility.yul\":3843:3849   */\n      dup3\n        /* \"#utility.yul\":3832:3841   */\n      dup6\n        /* \"#utility.yul\":3828:3850   */\n      add\n        /* \"#utility.yul\":3807:3860   */\n      tag_227\n      jump\t// in\n    tag_299:\n        /* \"#utility.yul\":3797:3860   */\n      swap2\n      pop\n        /* \"#utility.yul\":3753:3870   */\n      pop\n        /* \"#utility.yul\":3548:3877   */\n      swap3\n      swap2\n      pop\n      pop\n      jump\t// out\n        /* \"#utility.yul\":3883:4357   */\n    tag_37:\n        /* \"#utility.yul\":3951:3957   */\n      0x00\n        /* \"#utility.yul\":3959:3965   */\n      dup1\n        /* \"#utility.yul\":4008:4010   */\n      0x40\n        /* \"#utility.yul\":3996:4005   */\n      dup4\n        /* \"#utility.yul\":3987:3994   */\n      dup6\n        /* \"#utility.yul\":3983:4006   */\n      sub\n        /* \"#utility.yul\":3979:4011   */\n      slt\n        /* \"#utility.yul\":3976:4095   */\n      iszero\n      tag_301\n      jumpi\n        /* \"#utility.yul\":4014:4093   */\n      tag_302\n      tag_213\n      jump\t// in\n    tag_302:\n        /* \"#utility.yul\":3976:4095   */\n    tag_301:\n        /* \"#utility.yul\":4134:4135   */\n      0x00\n        /* \"#utility.yul\":4159:4212   */\n      tag_303\n        /* \"#utility.yul\":4204:4211   */\n      dup6\n        /* \"#utility.yul\":4195:4201   */\n      dup3\n        /* \"#utility.yul\":4184:4193   */\n      dup7\n        /* \"#utility.yul\":4180:4202   */\n      add\n        /* \"#utility.yul\":4159:4212   */\n      tag_227\n      jump\t// in\n    tag_303:\n        /* \"#utility.yul\":4149:4212   */\n      swap3\n      pop\n        /* \"#utility.yul\":4105:4222   */\n      pop\n        /* \"#utility.yul\":4261:4263   */\n      0x20\n        /* \"#utility.yul\":4287:4340   */\n      tag_304\n        /* \"#utility.yul\":4332:4339   */\n      dup6\n        /* \"#utility.yul\":4323:4329   */\n      dup3\n        /* \"#utility.yul\":4312:4321   */\n      dup7\n        /* \"#utility.yul\":4308:4330   */\n      add\n        /* \"#utility.yul\":4287:4340   */\n      tag_227\n      jump\t// in\n    tag_304:\n        /* \"#utility.yul\":4277:4340   */\n      swap2\n      pop\n        /* \"#utility.yul\":4232:4350   */\n      pop\n        /* \"#utility.yul\":3883:4357   */\n      swap3\n      pop\n      swap3\n      swap1\n      pop\n      jump\t// out\n        /* \"#utility.yul\":4363:4481   */\n    tag_228:\n        /* \"#utility.yul\":4450:4474   */\n      tag_306\n        /* \"#utility.yul\":4468:4473   */\n      dup2\n        /* \"#utility.yul\":4450:4474   */\n      tag_225\n      jump\t// in\n    tag_306:\n        /* \"#utility.yul\":4445:4448   */\n      dup3\n        /* \"#utility.yul\":4438:4475   */\n      mstore\n        /* \"#utility.yul\":4363:4481   */\n      pop\n      pop\n      jump\t// out\n        /* \"#utility.yul\":4487:4709   */\n    tag_42:\n        /* \"#utility.yul\":4580:4584   */\n      0x00\n        /* \"#utility.yul\":4618:4620   */\n      0x20\n        /* \"#utility.yul\":4607:4616   */\n      dup3\n        /* \"#utility.yul\":4603:4621   */\n      add\n        /* \"#utility.yul\":4595:4621   */\n      swap1\n      pop\n        /* \"#utility.yul\":4631:4702   */\n      tag_308\n        /* \"#utility.yul\":4699:4700   */\n      0x00\n        /* \"#utility.yul\":4688:4697   */\n      dup4\n        /* \"#utility.yul\":4684:4701   */\n      add\n        /* \"#utility.yul\":4675:4681   */\n      dup5\n        /* \"#utility.yul\":4631:4702   */\n      tag_228\n      jump\t// in\n    tag_308:\n        /* \"#utility.yul\":4487:4709   */\n      swap3\n      swap2\n      pop\n      pop\n      jump\t// out\n        /* \"#utility.yul\":4715:4884   */\n    tag_229:\n        /* \"#utility.yul\":4799:4810   */\n      0x00\n        /* \"#utility.yul\":4833:4839   */\n      dup3\n        /* \"#utility.yul\":4828:4831   */\n      dup3\n        /* \"#utility.yul\":4821:4840   */\n      mstore\n        /* \"#utility.yul\":4873:4877   */\n      0x20\n        /* \"#utility.yul\":4868:4871   */\n      dup3\n        /* \"#utility.yul\":4864:4878   */\n      add\n        /* \"#utility.yul\":4849:4878   */\n      swap1\n      pop\n        /* \"#utility.yul\":4715:4884   */\n      swap3\n      swap2\n      pop\n      pop\n      jump\t// out\n        /* \"#utility.yul\":4890:5124   */\n    tag_230:\n        /* \"#utility.yul\":5030:5064   */\n      0x416363657373436f6e74726f6c3a2063616e206f6e6c792072656e6f756e6365\n        /* \"#utility.yul\":5026:5027   */\n      0x00\n        /* \"#utility.yul\":5018:5024   */\n      dup3\n        /* \"#utility.yul\":5014:5028   */\n      add\n        /* \"#utility.yul\":5007:5065   */\n      mstore\n        /* \"#utility.yul\":5099:5116   */\n      0x20726f6c657320666f722073656c660000000000000000000000000000000000\n        /* \"#utility.yul\":5094:5096   */\n      0x20\n        /* \"#utility.yul\":5086:5092   */\n      dup3\n        /* \"#utility.yul\":5082:5097   */\n      add\n        /* \"#utility.yul\":5075:5117   */\n      mstore\n        /* \"#utility.yul\":4890:5124   */\n      pop\n      jump\t// out\n        /* \"#utility.yul\":5130:5496   */\n    tag_231:\n        /* \"#utility.yul\":5272:5275   */\n      0x00\n        /* \"#utility.yul\":5293:5360   */\n      tag_312\n        /* \"#utility.yul\":5357:5359   */\n      0x2f\n        /* \"#utility.yul\":5352:5355   */\n      dup4\n        /* \"#utility.yul\":5293:5360   */\n      tag_229\n      jump\t// in\n    tag_312:\n        /* \"#utility.yul\":5286:5360   */\n      swap2\n      pop\n        /* \"#utility.yul\":5369:5462   */\n      tag_313\n        /* \"#utility.yul\":5458:5461   */\n      dup3\n        /* \"#utility.yul\":5369:5462   */\n      tag_230\n      jump\t// in\n    tag_313:\n        /* \"#utility.yul\":5487:5489   */\n      0x40\n        /* \"#utility.yul\":5482:5485   */\n      dup3\n        /* \"#utility.yul\":5478:5490   */\n      add\n        /* \"#utility.yul\":5471:5490   */\n      swap1\n      pop\n        /* \"#utility.yul\":5130:5496   */\n      swap2\n      swap1\n      pop\n      jump\t// out\n        /* \"#utility.yul\":5502:5921   */\n    tag_65:\n        /* \"#utility.yul\":5668:5672   */\n      0x00\n        /* \"#utility.yul\":5706:5708   */\n      0x20\n        /* \"#utility.yul\":5695:5704   */\n      dup3\n        /* \"#utility.yul\":5691:5709   */\n      add\n        /* \"#utility.yul\":5683:5709   */\n      swap1\n      pop\n        /* \"#utility.yul\":5755:5764   */\n      dup2\n        /* \"#utility.yul\":5749:5753   */\n      dup2\n        /* \"#utility.yul\":5745:5765   */\n      sub\n        /* \"#utility.yul\":5741:5742   */\n      0x00\n        /* \"#utility.yul\":5730:5739   */\n      dup4\n        /* \"#utility.yul\":5726:5743   */\n      add\n        /* \"#utility.yul\":5719:5766   */\n      mstore\n        /* \"#utility.yul\":5783:5914   */\n      tag_315\n        /* \"#utility.yul\":5909:5913   */\n      dup2\n        /* \"#utility.yul\":5783:5914   */\n      tag_231\n      jump\t// in\n    tag_315:\n        /* \"#utility.yul\":5775:5914   */\n      swap1\n      pop\n        /* \"#utility.yul\":5502:5921   */\n      swap2\n      swap1\n      pop\n      jump\t// out\n        /* \"#utility.yul\":5927:6004   */\n    tag_232:\n        /* \"#utility.yul\":5964:5971   */\n      0x00\n        /* \"#utility.yul\":5993:5998   */\n      dup2\n        /* \"#utility.yul\":5982:5998   */\n      swap1\n      pop\n        /* \"#utility.yul\":5927:6004   */\n      swap2\n      swap1\n      pop\n      jump\t// out\n        /* \"#utility.yul\":6010:6190   */\n    tag_233:\n        /* \"#utility.yul\":6058:6135   */\n      0x4e487b7100000000000000000000000000000000000000000000000000000000\n        /* \"#utility.yul\":6055:6056   */\n      0x00\n        /* \"#utility.yul\":6048:6136   */\n      mstore\n        /* \"#utility.yul\":6155:6159   */\n      0x11\n        /* \"#utility.yul\":6152:6153   */\n      0x04\n        /* \"#utility.yul\":6145:6160   */\n      mstore\n        /* \"#utility.yul\":6179:6183   */\n      0x24\n        /* \"#utility.yul\":6176:6177   */\n      0x00\n        /* \"#utility.yul\":6169:6184   */\n      revert\n        /* \"#utility.yul\":6196:6390   */\n    tag_87:\n        /* \"#utility.yul\":6236:6240   */\n      0x00\n        /* \"#utility.yul\":6256:6276   */\n      tag_319\n        /* \"#utility.yul\":6274:6275   */\n      dup3\n        /* \"#utility.yul\":6256:6276   */\n      tag_232\n      jump\t// in\n    tag_319:\n        /* \"#utility.yul\":6251:6276   */\n      swap2\n      pop\n        /* \"#utility.yul\":6290:6310   */\n      tag_320\n        /* \"#utility.yul\":6308:6309   */\n      dup4\n        /* \"#utility.yul\":6290:6310   */\n      tag_232\n      jump\t// in\n    tag_320:\n        /* \"#utility.yul\":6285:6310   */\n      swap3\n      pop\n        /* \"#utility.yul\":6334:6335   */\n      dup3\n        /* \"#utility.yul\":6331:6332   */\n      dup3\n        /* \"#utility.yul\":6327:6336   */\n      sub\n        /* \"#utility.yul\":6319:6336   */\n      swap1\n      pop\n        /* \"#utility.yul\":6358:6359   */\n      dup2\n        /* \"#utility.yul\":6352:6356   */\n      dup2\n        /* \"#utility.yul\":6349:6360   */\n      gt\n        /* \"#utility.yul\":6346:6383   */\n      iszero\n      tag_321\n      jumpi\n        /* \"#utility.yul\":6363:6381   */\n      tag_322\n      tag_233\n      jump\t// in\n    tag_322:\n        /* \"#utility.yul\":6346:6383   */\n    tag_321:\n        /* \"#utility.yul\":6196:6390   */\n      swap3\n      swap2\n      pop\n      pop\n      jump\t// out\n        /* \"#utility.yul\":6396:6576   */\n    tag_90:\n        /* \"#utility.yul\":6444:6521   */\n      0x4e487b7100000000000000000000000000000000000000000000000000000000\n        /* \"#utility.yul\":6441:6442   */\n      0x00\n        /* \"#utility.yul\":6434:6522   */\n      mstore\n        /* \"#utility.yul\":6541:6545   */\n      0x32\n        /* \"#utility.yul\":6538:6539   */\n      0x04\n        /* \"#utility.yul\":6531:6546   */\n      mstore\n        /* \"#utility.yul\":6565:6569   */\n      0x24\n        /* \"#utility.yul\":6562:6563   */\n      0x00\n        /* \"#utility.yul\":6555:6570   */\n      revert\n        /* \"#utility.yul\":6582:6773   */\n    tag_95:\n        /* \"#utility.yul\":6622:6625   */\n      0x00\n        /* \"#utility.yul\":6641:6661   */\n      tag_325\n        /* \"#utility.yul\":6659:6660   */\n      dup3\n        /* \"#utility.yul\":6641:6661   */\n      tag_232\n      jump\t// in\n    tag_325:\n        /* \"#utility.yul\":6636:6661   */\n      swap2\n      pop\n        /* \"#utility.yul\":6675:6695   */\n      tag_326\n        /* \"#utility.yul\":6693:6694   */\n      dup4\n        /* \"#utility.yul\":6675:6695   */\n      tag_232\n      jump\t// in\n    tag_326:\n        /* \"#utility.yul\":6670:6695   */\n      swap3\n      pop\n        /* \"#utility.yul\":6718:6719   */\n      dup3\n        /* \"#utility.yul\":6715:6716   */\n      dup3\n        /* \"#utility.yul\":6711:6720   */\n      add\n        /* \"#utility.yul\":6704:6720   */\n      swap1\n      pop\n        /* \"#utility.yul\":6739:6742   */\n      dup1\n        /* \"#utility.yul\":6736:6737   */\n      dup3\n        /* \"#utility.yul\":6733:6743   */\n      gt\n        /* \"#utility.yul\":6730:6766   */\n      iszero\n      tag_327\n      jumpi\n        /* \"#utility.yul\":6746:6764   */\n      tag_328\n      tag_233\n      jump\t// in\n    tag_328:\n        /* \"#utility.yul\":6730:6766   */\n    tag_327:\n        /* \"#utility.yul\":6582:6773   */\n      swap3\n      swap2\n      pop\n      pop\n      jump\t// out\n        /* \"#utility.yul\":6779:7012   */\n    tag_103:\n        /* \"#utility.yul\":6818:6821   */\n      0x00\n        /* \"#utility.yul\":6841:6865   */\n      tag_330\n        /* \"#utility.yul\":6859:6864   */\n      dup3\n        /* \"#utility.yul\":6841:6865   */\n      tag_232\n      jump\t// in\n    tag_330:\n        /* \"#utility.yul\":6832:6865   */\n      swap2\n      pop\n        /* \"#utility.yul\":6887:6953   */\n      0xffffffffffffffffffffffffffffffffffffffffffffffffffffffffffffffff\n        /* \"#utility.yul\":6880:6885   */\n      dup3\n        /* \"#utility.yul\":6877:6954   */\n      sub\n        /* \"#utility.yul\":6874:6977   */\n      tag_331\n      jumpi\n        /* \"#utility.yul\":6957:6975   */\n      tag_332\n      tag_233\n      jump\t// in\n    tag_332:\n        /* \"#utility.yul\":6874:6977   */\n    tag_331:\n        /* \"#utility.yul\":7004:7005   */\n      0x01\n        /* \"#utility.yul\":6997:7002   */\n      dup3\n        /* \"#utility.yul\":6993:7006   */\n      add\n        /* \"#utility.yul\":6986:7006   */\n      swap1\n      pop\n        /* \"#utility.yul\":6779:7012   */\n      swap2\n      swap1\n      pop\n      jump\t// out\n        /* \"#utility.yul\":7018:7198   */\n    tag_106:\n        /* \"#utility.yul\":7066:7143   */\n      0x4e487b7100000000000000000000000000000000000000000000000000000000\n        /* \"#utility.yul\":7063:7064   */\n      0x00\n        /* \"#utility.yul\":7056:7144   */\n      mstore\n        /* \"#utility.yul\":7163:7167   */\n      0x31\n        /* \"#utility.yul\":7160:7161   */\n      0x04\n        /* \"#utility.yul\":7153:7168   */\n      mstore\n        /* \"#utility.yul\":7187:7191   */\n      0x24\n        /* \"#utility.yul\":7184:7185   */\n      0x00\n        /* \"#utility.yul\":7177:7192   */\n      revert\n        /* \"#utility.yul\":7204:7429   */\n    tag_234:\n        /* \"#utility.yul\":7344:7378   */\n      0x4f776e61626c653a206e6577206f776e657220697320746865207a65726f2061\n        /* \"#utility.yul\":7340:7341   */\n      0x00\n        /* \"#utility.yul\":7332:7338   */\n      dup3\n        /* \"#utility.yul\":7328:7342   */\n      add\n        /* \"#utility.yul\":7321:7379   */\n      mstore\n        /* \"#utility.yul\":7413:7421   */\n      0x6464726573730000000000000000000000000000000000000000000000000000\n        /* \"#utility.yul\":7408:7410   */\n      0x20\n        /* \"#utility.yul\":7400:7406   */\n      dup3\n        /* \"#utility.yul\":7396:7411   */\n      add\n        /* \"#utility.yul\":7389:7422   */\n      mstore\n        /* \"#utility.yul\":7204:7429   */\n      pop\n      jump\t// out\n        /* \"#utility.yul\":7435:7801   */\n    tag_235:\n        /* \"#utility.yul\":7577:7580   */\n      0x00\n        /* \"#utility.yul\":7598:7665   */\n      tag_336\n        /* \"#utility.yul\":7662:7664   */\n      0x26\n        /* \"#utility.yul\":7657:7660   */\n      dup4\n        /* \"#utility.yul\":7598:7665   */\n      tag_229\n      jump\t// in\n    tag_336:\n        /* \"#utility.yul\":7591:7665   */\n      swap2\n      pop\n        /* \"#utility.yul\":7674:7767   */\n      tag_337\n        /* \"#utility.yul\":7763:7766   */\n      dup3\n        /* \"#utility.yul\":7674:7767   */\n      tag_234\n      jump\t// in\n    tag_337:\n        /* \"#utility.yul\":7792:7794   */\n      0x40\n        /* \"#utility.yul\":7787:7790   */\n      dup3\n        /* \"#utility.yul\":7783:7795   */\n      add\n        /* \"#utility.yul\":7776:7795   */\n      swap1\n      pop\n        /* \"#utility.yul\":7435:7801   */\n      swap2\n      swap1\n      pop\n      jump\t// out\n        /* \"#utility.yul\":7807:8226   */\n    tag_140:\n        /* \"#utility.yul\":7973:7977   */\n      0x00\n        /* \"#utility.yul\":8011:8013   */\n      0x20\n        /* \"#utility.yul\":8000:8009   */\n      dup3\n        /* \"#utility.yul\":7996:8014   */\n      add\n        /* \"#utility.yul\":7988:8014   */\n      swap1\n      pop\n        /* \"#utility.yul\":8060:8069   */\n      dup2\n        /* \"#utility.yul\":8054:8058   */\n      dup2\n        /* \"#utility.yul\":8050:8070   */\n      sub\n        /* \"#utility.yul\":8046:8047   */\n      0x00\n        /* \"#utility.yul\":8035:8044   */\n      dup4\n        /* \"#utility.yul\":8031:8048   */\n      add\n        /* \"#utility.yul\":8024:8071   */\n      mstore\n        /* \"#utility.yul\":8088:8219   */\n      tag_339\n        /* \"#utility.yul\":8214:8218   */\n      dup2\n        /* \"#utility.yul\":8088:8219   */\n      tag_235\n      jump\t// in\n    tag_339:\n        /* \"#utility.yul\":8080:8219   */\n      swap1\n      pop\n        /* \"#utility.yul\":7807:8226   */\n      swap2\n      swap1\n      pop\n      jump\t// out\n        /* \"#utility.yul\":8232:8414   */\n    tag_236:\n        /* \"#utility.yul\":8372:8406   */\n      0x4f776e61626c653a2063616c6c6572206973206e6f7420746865206f776e6572\n        /* \"#utility.yul\":8368:8369   */\n      0x00\n        /* \"#utility.yul\":8360:8366   */\n      dup3\n        /* \"#utility.yul\":8356:8370   */\n      add\n        /* \"#utility.yul\":8349:8407   */\n      mstore\n        /* \"#utility.yul\":8232:8414   */\n      pop\n      jump\t// out\n        /* \"#utility.yul\":8420:8786   */\n    tag_237:\n        /* \"#utility.yul\":8562:8565   */\n      0x00\n        /* \"#utility.yul\":8583:8650   */\n      tag_342\n        /* \"#utility.yul\":8647:8649   */\n      0x20\n        /* \"#utility.yul\":8642:8645   */\n      dup4\n        /* \"#utility.yul\":8583:8650   */\n      tag_229\n      jump\t// in\n    tag_342:\n        /* \"#utility.yul\":8576:8650   */\n      swap2\n      pop\n        /* \"#utility.yul\":8659:8752   */\n      tag_343\n        /* \"#utility.yul\":8748:8751   */\n      dup3\n        /* \"#utility.yul\":8659:8752   */\n      tag_236\n      jump\t// in\n    tag_343:\n        /* \"#utility.yul\":8777:8779   */\n      0x20\n        /* \"#utility.yul\":8772:8775   */\n      dup3\n        /* \"#utility.yul\":8768:8780   */\n      add\n        /* \"#utility.yul\":8761:8780   */\n      swap1\n      pop\n        /* \"#utility.yul\":8420:8786   */\n      swap2\n      swap1\n      pop\n      jump\t// out\n        /* \"#utility.yul\":8792:9211   */\n    tag_158:\n        /* \"#utility.yul\":8958:8962   */\n      0x00\n        /* \"#utility.yul\":8996:8998   */\n      0x20\n        /* \"#utility.yul\":8985:8994   */\n      dup3\n        /* \"#utility.yul\":8981:8999   */\n      add\n        /* \"#utility.yul\":8973:8999   */\n      swap1\n      pop\n        /* \"#utility.yul\":9045:9054   */\n      dup2\n        /* \"#utility.yul\":9039:9043   */\n      dup2\n        /* \"#utility.yul\":9035:9055   */\n      sub\n        /* \"#utility.yul\":9031:9032   */\n      0x00\n        /* \"#utility.yul\":9020:9029   */\n      dup4\n        /* \"#utility.yul\":9016:9033   */\n      add\n        /* \"#utility.yul\":9009:9056   */\n      mstore\n        /* \"#utility.yul\":9073:9204   */\n      tag_345\n        /* \"#utility.yul\":9199:9203   */\n      dup2\n        /* \"#utility.yul\":9073:9204   */\n      tag_237\n      jump\t// in\n    tag_345:\n        /* \"#utility.yul\":9065:9204   */\n      swap1\n      pop\n        /* \"#utility.yul\":8792:9211   */\n      swap2\n      swap1\n      pop\n      jump\t// out\n        /* \"#utility.yul\":9217:9365   */\n    tag_238:\n        /* \"#utility.yul\":9319:9330   */\n      0x00\n        /* \"#utility.yul\":9356:9359   */\n      dup2\n        /* \"#utility.yul\":9341:9359   */\n      swap1\n      pop\n        /* \"#utility.yul\":9217:9365   */\n      swap3\n      swap2\n      pop\n      pop\n      jump\t// out\n        /* \"#utility.yul\":9371:9544   */\n    tag_239:\n        /* \"#utility.yul\":9511:9536   */\n      0x416363657373436f6e74726f6c3a206163636f756e7420000000000000000000\n        /* \"#utility.yul\":9507:9508   */\n      0x00\n        /* \"#utility.yul\":9499:9505   */\n      dup3\n        /* \"#utility.yul\":9495:9509   */\n      add\n        /* \"#utility.yul\":9488:9537   */\n      mstore\n        /* \"#utility.yul\":9371:9544   */\n      pop\n      jump\t// out\n        /* \"#utility.yul\":9550:9952   */\n    tag_240:\n        /* \"#utility.yul\":9710:9713   */\n      0x00\n        /* \"#utility.yul\":9731:9816   */\n      tag_349\n        /* \"#utility.yul\":9813:9815   */\n      0x17\n        /* \"#utility.yul\":9808:9811   */\n      dup4\n        /* \"#utility.yul\":9731:9816   */\n      tag_238\n      jump\t// in\n    tag_349:\n        /* \"#utility.yul\":9724:9816   */\n      swap2\n      pop\n        /* \"#utility.yul\":9825:9918   */\n      tag_350\n        /* \"#utility.yul\":9914:9917   */\n      dup3\n        /* \"#utility.yul\":9825:9918   */\n      tag_239\n      jump\t// in\n    tag_350:\n        /* \"#utility.yul\":9943:9945   */\n      0x17\n        /* \"#utility.yul\":9938:9941   */\n      dup3\n        /* \"#utility.yul\":9934:9946   */\n      add\n        /* \"#utility.yul\":9927:9946   */\n      swap1\n      pop\n        /* \"#utility.yul\":9550:9952   */\n      swap2\n      swap1\n      pop\n      jump\t// out\n        /* \"#utility.yul\":9958:10057   */\n    tag_241:\n        /* \"#utility.yul\":10010:10016   */\n      0x00\n        /* \"#utility.yul\":10044:10049   */\n      dup2\n        /* \"#utility.yul\":10038:10050   */\n      mload\n        /* \"#utility.yul\":10028:10050   */\n      swap1\n      pop\n        /* \"#utility.yul\":9958:10057   */\n      swap2\n      swap1\n      pop\n      jump\t// out\n        /* \"#utility.yul\":10063:10309   */\n    tag_242:\n        /* \"#utility.yul\":10144:10145   */\n      0x00\n        /* \"#utility.yul\":10154:10267   */\n    tag_353:\n        /* \"#utility.yul\":10168:10174   */\n      dup4\n        /* \"#utility.yul\":10165:10166   */\n      dup2\n        /* \"#utility.yul\":10162:10175   */\n      lt\n        /* \"#utility.yul\":10154:10267   */\n      iszero\n      tag_355\n      jumpi\n        /* \"#utility.yul\":10253:10254   */\n      dup1\n        /* \"#utility.yul\":10248:10251   */\n      dup3\n        /* \"#utility.yul\":10244:10255   */\n      add\n        /* \"#utility.yul\":10238:10256   */\n      mload\n        /* \"#utility.yul\":10234:10235   */\n      dup2\n        /* \"#utility.yul\":10229:10232   */\n      dup5\n        /* \"#utility.yul\":10225:10236   */\n      add\n        /* \"#utility.yul\":10218:10257   */\n      mstore\n        /* \"#utility.yul\":10190:10192   */\n      0x20\n        /* \"#utility.yul\":10187:10188   */\n      dup2\n        /* \"#utility.yul\":10183:10193   */\n      add\n        /* \"#utility.yul\":10178:10193   */\n      swap1\n      pop\n        /* \"#utility.yul\":10154:10267   */\n      jump(tag_353)\n    tag_355:\n        /* \"#utility.yul\":10301:10302   */\n      0x00\n        /* \"#utility.yul\":10292:10298   */\n      dup5\n        /* \"#utility.yul\":10287:10290   */\n      dup5\n        /* \"#utility.yul\":10283:10299   */\n      add\n        /* \"#utility.yul\":10276:10303   */\n      mstore\n        /* \"#utility.yul\":10125:10309   */\n      pop\n        /* \"#utility.yul\":10063:10309   */\n      pop\n      pop\n      pop\n      jump\t// out\n        /* \"#utility.yul\":10315:10705   */\n    tag_243:\n        /* \"#utility.yul\":10421:10424   */\n      0x00\n        /* \"#utility.yul\":10449:10488   */\n      tag_357\n        /* \"#utility.yul\":10482:10487   */\n      dup3\n        /* \"#utility.yul\":10449:10488   */\n      tag_241\n      jump\t// in\n    tag_357:\n        /* \"#utility.yul\":10504:10593   */\n      tag_358\n        /* \"#utility.yul\":10586:10592   */\n      dup2\n        /* \"#utility.yul\":10581:10584   */\n      dup6\n        /* \"#utility.yul\":10504:10593   */\n      tag_238\n      jump\t// in\n    tag_358:\n        /* \"#utility.yul\":10497:10593   */\n      swap4\n      pop\n        /* \"#utility.yul\":10602:10667   */\n      tag_359\n        /* \"#utility.yul\":10660:10666   */\n      dup2\n        /* \"#utility.yul\":10655:10658   */\n      dup6\n        /* \"#utility.yul\":10648:10652   */\n      0x20\n        /* \"#utility.yul\":10641:10646   */\n      dup7\n        /* \"#utility.yul\":10637:10653   */\n      add\n        /* \"#utility.yul\":10602:10667   */\n      tag_242\n      jump\t// in\n    tag_359:\n        /* \"#utility.yul\":10692:10698   */\n      dup1\n        /* \"#utility.yul\":10687:10690   */\n      dup5\n        /* \"#utility.yul\":10683:10699   */\n      add\n        /* \"#utility.yul\":10676:10699   */\n      swap2\n      pop\n        /* \"#utility.yul\":10425:10705   */\n      pop\n        /* \"#utility.yul\":10315:10705   */\n      swap3\n      swap2\n      pop\n      pop\n      jump\t// out\n        /* \"#utility.yul\":10711:10878   */\n    tag_244:\n        /* \"#utility.yul\":10851:10870   */\n      0x206973206d697373696e6720726f6c6520000000000000000000000000000000\n        /* \"#utility.yul\":10847:10848   */\n      0x00\n        /* \"#utility.yul\":10839:10845   */\n      dup3\n        /* \"#utility.yul\":10835:10849   */\n      add\n        /* \"#utility.yul\":10828:10871   */\n      mstore\n        /* \"#utility.yul\":10711:10878   */\n      pop\n      jump\t// out\n        /* \"#utility.yul\":10884:11286   */\n    tag_245:\n        /* \"#utility.yul\":11044:11047   */\n      0x00\n        /* \"#utility.yul\":11065:11150   */\n      tag_362\n        /* \"#utility.yul\":11147:11149   */\n      0x11\n        /* \"#utility.yul\":11142:11145   */\n      dup4\n        /* \"#utility.yul\":11065:11150   */\n      tag_238\n      jump\t// in\n    tag_362:\n        /* \"#utility.yul\":11058:11150   */\n      swap2\n      pop\n        /* \"#utility.yul\":11159:11252   */\n      tag_363\n        /* \"#utility.yul\":11248:11251   */\n      dup3\n        /* \"#utility.yul\":11159:11252   */\n      tag_244\n      jump\t// in\n    tag_363:\n        /* \"#utility.yul\":11277:11279   */\n      0x11\n        /* \"#utility.yul\":11272:11275   */\n      dup3\n        /* \"#utility.yul\":11268:11280   */\n      add\n        /* \"#utility.yul\":11261:11280   */\n      swap1\n      pop\n        /* \"#utility.yul\":10884:11286   */\n      swap2\n      swap1\n      pop\n      jump\t// out\n        /* \"#utility.yul\":11292:12259   */\n    tag_167:\n        /* \"#utility.yul\":11674:11677   */\n      0x00\n        /* \"#utility.yul\":11696:11844   */\n      tag_365\n        /* \"#utility.yul\":11840:11843   */\n      dup3\n        /* \"#utility.yul\":11696:11844   */\n      tag_240\n      jump\t// in\n    tag_365:\n        /* \"#utility.yul\":11689:11844   */\n      swap2\n      pop\n        /* \"#utility.yul\":11861:11956   */\n      tag_366\n        /* \"#utility.yul\":11952:11955   */\n      dup3\n        /* \"#utility.yul\":11943:11949   */\n      dup6\n        /* \"#utility.yul\":11861:11956   */\n      tag_243\n      jump\t// in\n    tag_366:\n        /* \"#utility.yul\":11854:11956   */\n      swap2\n      pop\n        /* \"#utility.yul\":11973:12121   */\n      tag_367\n        /* \"#utility.yul\":12117:12120   */\n      dup3\n        /* \"#utility.yul\":11973:12121   */\n      tag_245\n      jump\t// in\n    tag_367:\n        /* \"#utility.yul\":11966:12121   */\n      swap2\n      pop\n        /* \"#utility.yul\":12138:12233   */\n      tag_368\n        /* \"#utility.yul\":12229:12232   */\n      dup3\n        /* \"#utility.yul\":12220:12226   */\n      dup5\n        /* \"#utility.yul\":12138:12233   */\n      tag_243\n      jump\t// in\n    tag_368:\n        /* \"#utility.yul\":12131:12233   */\n      swap2\n      pop\n        /* \"#utility.yul\":12250:12253   */\n      dup2\n        /* \"#utility.yul\":12243:12253   */\n      swap1\n      pop\n        /* \"#utility.yul\":11292:12259   */\n      swap4\n      swap3\n      pop\n      pop\n      pop\n      jump\t// out\n        /* \"#utility.yul\":12265:12367   */\n    tag_246:\n        /* \"#utility.yul\":12306:12312   */\n      0x00\n        /* \"#utility.yul\":12357:12359   */\n      0x1f\n        /* \"#utility.yul\":12353:12360   */\n      not\n        /* \"#utility.yul\":12348:12350   */\n      0x1f\n        /* \"#utility.yul\":12341:12346   */\n      dup4\n        /* \"#utility.yul\":12337:12351   */\n      add\n        /* \"#utility.yul\":12333:12361   */\n      and\n        /* \"#utility.yul\":12323:12361   */\n      swap1\n      pop\n        /* \"#utility.yul\":12265:12367   */\n      swap2\n      swap1\n      pop\n      jump\t// out\n        /* \"#utility.yul\":12373:12750   */\n    tag_247:\n        /* \"#utility.yul\":12461:12464   */\n      0x00\n        /* \"#utility.yul\":12489:12528   */\n      tag_371\n        /* \"#utility.yul\":12522:12527   */\n      dup3\n        /* \"#utility.yul\":12489:12528   */\n      tag_241\n      jump\t// in\n    tag_371:\n        /* \"#utility.yul\":12544:12615   */\n      tag_372\n        /* \"#utility.yul\":12608:12614   */\n      dup2\n        /* \"#utility.yul\":12603:12606   */\n      dup6\n        /* \"#utility.yul\":12544:12615   */\n      tag_229\n      jump\t// in\n    tag_372:\n        /* \"#utility.yul\":12537:12615   */\n      swap4\n      pop\n        /* \"#utility.yul\":12624:12689   */\n      tag_373\n        /* \"#utility.yul\":12682:12688   */\n      dup2\n        /* \"#utility.yul\":12677:12680   */\n      dup6\n        /* \"#utility.yul\":12670:12674   */\n      0x20\n        /* \"#utility.yul\":12663:12668   */\n      dup7\n        /* \"#utility.yul\":12659:12675   */\n      add\n        /* \"#utility.yul\":12624:12689   */\n      tag_242\n      jump\t// in\n    tag_373:\n        /* \"#utility.yul\":12714:12743   */\n      tag_374\n        /* \"#utility.yul\":12736:12742   */\n      dup2\n        /* \"#utility.yul\":12714:12743   */\n      tag_246\n      jump\t// in\n    tag_374:\n        /* \"#utility.yul\":12709:12712   */\n      dup5\n        /* \"#utility.yul\":12705:12744   */\n      add\n        /* \"#utility.yul\":12698:12744   */\n      swap2\n      pop\n        /* \"#utility.yul\":12465:12750   */\n      pop\n        /* \"#utility.yul\":12373:12750   */\n      swap3\n      swap2\n      pop\n      pop\n      jump\t// out\n        /* \"#utility.yul\":12756:13069   */\n    tag_169:\n        /* \"#utility.yul\":12869:12873   */\n      0x00\n        /* \"#utility.yul\":12907:12909   */\n      0x20\n        /* \"#utility.yul\":12896:12905   */\n      dup3\n        /* \"#utility.yul\":12892:12910   */\n      add\n        /* \"#utility.yul\":12884:12910   */\n      swap1\n      pop\n        /* \"#utility.yul\":12956:12965   */\n      dup2\n        /* \"#utility.yul\":12950:12954   */\n      dup2\n        /* \"#utility.yul\":12946:12966   */\n      sub\n        /* \"#utility.yul\":12942:12943   */\n      0x00\n        /* \"#utility.yul\":12931:12940   */\n      dup4\n        /* \"#utility.yul\":12927:12944   */\n      add\n        /* \"#utility.yul\":12920:12967   */\n      mstore\n        /* \"#utility.yul\":12984:13062   */\n      tag_376\n        /* \"#utility.yul\":13057:13061   */\n      dup2\n        /* \"#utility.yul\":13048:13054   */\n      dup5\n        /* \"#utility.yul\":12984:13062   */\n      tag_247\n      jump\t// in\n    tag_376:\n        /* \"#utility.yul\":12976:13062   */\n      swap1\n      pop\n        /* \"#utility.yul\":12756:13069   */\n      swap3\n      swap2\n      pop\n      pop\n      jump\t// out\n        /* \"#utility.yul\":13075:13485   */\n    tag_188:\n        /* \"#utility.yul\":13115:13122   */\n      0x00\n        /* \"#utility.yul\":13138:13158   */\n      tag_378\n        /* \"#utility.yul\":13156:13157   */\n      dup3\n        /* \"#utility.yul\":13138:13158   */\n      tag_232\n      jump\t// in\n    tag_378:\n        /* \"#utility.yul\":13133:13158   */\n      swap2\n      pop\n        /* \"#utility.yul\":13172:13192   */\n      tag_379\n        /* \"#utility.yul\":13190:13191   */\n      dup4\n        /* \"#utility.yul\":13172:13192   */\n      tag_232\n      jump\t// in\n    tag_379:\n        /* \"#utility.yul\":13167:13192   */\n      swap3\n      pop\n        /* \"#utility.yul\":13227:13228   */\n      dup3\n        /* \"#utility.yul\":13224:13225   */\n      dup3\n        /* \"#utility.yul\":13220:13229   */\n      mul\n        /* \"#utility.yul\":13249:13279   */\n      tag_380\n        /* \"#utility.yul\":13267:13278   */\n      dup2\n        /* \"#utility.yul\":13249:13279   */\n      tag_232\n      jump\t// in\n    tag_380:\n        /* \"#utility.yul\":13238:13279   */\n      swap2\n      pop\n        /* \"#utility.yul\":13428:13429   */\n      dup3\n        /* \"#utility.yul\":13419:13426   */\n      dup3\n        /* \"#utility.yul\":13415:13430   */\n      div\n        /* \"#utility.yul\":13412:13413   */\n      dup5\n        /* \"#utility.yul\":13409:13431   */\n      eq\n        /* \"#utility.yul\":13389:13390   */\n      dup4\n        /* \"#utility.yul\":13382:13391   */\n      iszero\n        /* \"#utility.yul\":13362:13445   */\n      or\n        /* \"#utility.yul\":13339:13478   */\n      tag_381\n      jumpi\n        /* \"#utility.yul\":13458:13476   */\n      tag_382\n      tag_233\n      jump\t// in\n    tag_382:\n        /* \"#utility.yul\":13339:13478   */\n    tag_381:\n        /* \"#utility.yul\":13123:13485   */\n      pop\n        /* \"#utility.yul\":13075:13485   */\n      swap3\n      swap2\n      pop\n      pop\n      jump\t// out\n        /* \"#utility.yul\":13491:13671   */\n    tag_192:\n        /* \"#utility.yul\":13539:13616   */\n      0x4e487b7100000000000000000000000000000000000000000000000000000000\n        /* \"#utility.yul\":13536:13537   */\n      0x00\n        /* \"#utility.yul\":13529:13617   */\n      mstore\n        /* \"#utility.yul\":13636:13640   */\n      0x41\n        /* \"#utility.yul\":13633:13634   */\n      0x04\n        /* \"#utility.yul\":13626:13641   */\n      mstore\n        /* \"#utility.yul\":13660:13664   */\n      0x24\n        /* \"#utility.yul\":13657:13658   */\n      0x00\n        /* \"#utility.yul\":13650:13665   */\n      revert\n        /* \"#utility.yul\":13677:13848   */\n    tag_208:\n        /* \"#utility.yul\":13716:13719   */\n      0x00\n        /* \"#utility.yul\":13739:13763   */\n      tag_385\n        /* \"#utility.yul\":13757:13762   */\n      dup3\n        /* \"#utility.yul\":13739:13763   */\n      tag_232\n      jump\t// in\n    tag_385:\n        /* \"#utility.yul\":13730:13763   */\n      swap2\n      pop\n        /* \"#utility.yul\":13785:13789   */\n      0x00\n        /* \"#utility.yul\":13778:13783   */\n      dup3\n        /* \"#utility.yul\":13775:13790   */\n      sub\n        /* \"#utility.yul\":13772:13813   */\n      tag_386\n      jumpi\n        /* \"#utility.yul\":13793:13811   */\n      tag_387\n      tag_233\n      jump\t// in\n    tag_387:\n        /* \"#utility.yul\":13772:13813   */\n    tag_386:\n        /* \"#utility.yul\":13840:13841   */\n      0x01\n        /* \"#utility.yul\":13833:13838   */\n      dup3\n        /* \"#utility.yul\":13829:13842   */\n      sub\n        /* \"#utility.yul\":13822:13842   */\n      swap1\n      pop\n        /* \"#utility.yul\":13677:13848   */\n      swap2\n      swap1\n      pop\n      jump\t// out\n        /* \"#utility.yul\":13854:14036   */\n    tag_248:\n        /* \"#utility.yul\":13994:14028   */\n      0x537472696e67733a20686578206c656e67746820696e73756666696369656e74\n        /* \"#utility.yul\":13990:13991   */\n      0x00\n        /* \"#utility.yul\":13982:13988   */\n      dup3\n        /* \"#utility.yul\":13978:13992   */\n      add\n        /* \"#utility.yul\":13971:14029   */\n      mstore\n        /* \"#utility.yul\":13854:14036   */\n      pop\n      jump\t// out\n        /* \"#utility.yul\":14042:14408   */\n    tag_249:\n        /* \"#utility.yul\":14184:14187   */\n      0x00\n        /* \"#utility.yul\":14205:14272   */\n      tag_390\n        /* \"#utility.yul\":14269:14271   */\n      0x20\n        /* \"#utility.yul\":14264:14267   */\n      dup4\n        /* \"#utility.yul\":14205:14272   */\n      tag_229\n      jump\t// in\n    tag_390:\n        /* \"#utility.yul\":14198:14272   */\n      swap2\n      pop\n        /* \"#utility.yul\":14281:14374   */\n      tag_391\n        /* \"#utility.yul\":14370:14373   */\n      dup3\n        /* \"#utility.yul\":14281:14374   */\n      tag_248\n      jump\t// in\n    tag_391:\n        /* \"#utility.yul\":14399:14401   */\n      0x20\n        /* \"#utility.yul\":14394:14397   */\n      dup3\n        /* \"#utility.yul\":14390:14402   */\n      add\n        /* \"#utility.yul\":14383:14402   */\n      swap1\n      pop\n        /* \"#utility.yul\":14042:14408   */\n      swap2\n      swap1\n      pop\n      jump\t// out\n        /* \"#utility.yul\":14414:14833   */\n    tag_211:\n        /* \"#utility.yul\":14580:14584   */\n      0x00\n        /* \"#utility.yul\":14618:14620   */\n      0x20\n        /* \"#utility.yul\":14607:14616   */\n      dup3\n        /* \"#utility.yul\":14603:14621   */\n      add\n        /* \"#utility.yul\":14595:14621   */\n      swap1\n      pop\n        /* \"#utility.yul\":14667:14676   */\n      dup2\n        /* \"#utility.yul\":14661:14665   */\n      dup2\n        /* \"#utility.yul\":14657:14677   */\n      sub\n        /* \"#utility.yul\":14653:14654   */\n      0x00\n        /* \"#utility.yul\":14642:14651   */\n      dup4\n        /* \"#utility.yul\":14638:14655   */\n      add\n        /* \"#utility.yul\":14631:14678   */\n      mstore\n        /* \"#utility.yul\":14695:14826   */\n      tag_393\n        /* \"#utility.yul\":14821:14825   */\n      dup2\n        /* \"#utility.yul\":14695:14826   */\n      tag_249\n      jump\t// in\n    tag_393:\n        /* \"#utility.yul\":14687:14826   */\n      swap1\n      pop\n        /* \"#utility.yul\":14414:14833   */\n      swap2\n      swap1\n      pop\n      jump\t// out\n\n    auxdata: 0xa26469706673582212200b97f41989442ffa3f6514f574b6db57e2d272eddd6224db358e55bb3f8e06c864736f6c63430008120033\n}\n",
				"bytecode": {
					"linkReferences": {},
					"object": "608060405234801561001057600080fd5b50336100218161002760201b60201c565b506100eb565b60008060009054906101000a900473ffffffffffffffffffffffffffffffffffffffff169050816000806101000a81548173ffffffffffffffffffffffffffffffffffffffff021916908373ffffffffffffffffffffffffffffffffffffffff1602179055508173ffffffffffffffffffffffffffffffffffffffff168173ffffffffffffffffffffffffffffffffffffffff167f8be0079c531659141344cd1fd0a4f28419497f9722a3daafe3b4186f6b6457e060405160405180910390a35050565b611870806100fa6000396000f3fe608060405234801561001057600080fd5b50600436106100a95760003560e01c80638da5cb5b116100715780638da5cb5b1461016257806391d1485414610180578063a217fddf146101b0578063a8f2be76146101ce578063ac0cc465146101fe578063f2fde38b1461021a576100a9565b806301ffc9a7146100ae578063248a9ca3146100de57806336568abe1461010e5780634420e4861461012a5780634cc2f08114610146575b600080fd5b6100c860048036038101906100c39190611078565b610236565b6040516100d591906110c0565b60405180910390f35b6100f860048036038101906100f39190611111565b6102a0565b604051610105919061114d565b60405180910390f35b610128600480360381019061012391906111c6565b6102c0565b005b610144600480360381019061013f9190611206565b61035e565b005b610160600480360381019061015b9190611233565b610380565b005b61016a6105ab565b6040516101779190611282565b60405180910390f35b61019a600480360381019061019591906111c6565b6105d4565b6040516101a791906110c0565b60405180910390f35b6101b861063f565b6040516101c5919061114d565b60405180910390f35b6101e860048036038101906101e39190611206565b610646565b6040516101f591906110c0565b60405180910390f35b61021860048036038101906102139190611233565b6106f4565b005b610234600480360381019061022f9190611206565b61083d565b005b60007f01ffc9a7000000000000000000000000000000000000000000000000000000007bffffffffffffffffffffffffffffffffffffffffffffffffffffffff1916827bffffffffffffffffffffffffffffffffffffffffffffffffffffffff1916149050919050565b600060016000838152602001908152602001600020600101549050919050565b600260009054906101000a900473ffffffffffffffffffffffffffffffffffffffff1673ffffffffffffffffffffffffffffffffffffffff168173ffffffffffffffffffffffffffffffffffffffff1614610350576040517f08c379a000000000000000000000000000000000000000000000000000000000815260040161034790611320565b60405180910390fd5b61035a82826108e3565b5050565b6103678161083d565b610370816109e0565b61037d6000801b82610a2f565b50565b8161038a81610a6a565b6000801b836103998282610ae2565b6103c37f0af1dac7dea2fd7f7738119cec7df099dfad49aa9d2e7d17ba6b60f63ae7411f85610b67565b60007fffffffffffffffffffffffffffffffffffffffffffffffffffffffffffffffff905060005b60016003805490506103fd9190611379565b81101561055b578573ffffffffffffffffffffffffffffffffffffffff166003828154811061042f5761042e6113ad565b5b9060005260206000200160009054906101000a900473ffffffffffffffffffffffffffffffffffffffff1673ffffffffffffffffffffffffffffffffffffffff1603610479578091505b7fffffffffffffffffffffffffffffffffffffffffffffffffffffffffffffffff82146105485760036001826104af91906113dc565b815481106104c0576104bf6113ad565b5b9060005260206000200160009054906101000a900473ffffffffffffffffffffffffffffffffffffffff16600382815481106104ff576104fe6113ad565b5b9060005260206000200160006101000a81548173ffffffffffffffffffffffffffffffffffffffff021916908373ffffffffffffffffffffffffffffffffffffffff1602179055505b808061055390611410565b9150506103eb565b50600380548061056e5761056d611458565b5b6001900381819060005260206000200160006101000a81549073ffffffffffffffffffffffffffffffffffffffff02191690559055505050505050565b60008060009054906101000a900473ffffffffffffffffffffffffffffffffffffffff16905090565b60006001600084815260200190815260200160002060000160008373ffffffffffffffffffffffffffffffffffffffff1673ffffffffffffffffffffffffffffffffffffffff16815260200190815260200160002060009054906101000a900460ff16905092915050565b6000801b81565b600080600090505b6003805490508110156106e9578273ffffffffffffffffffffffffffffffffffffffff1660038281548110610686576106856113ad565b5b9060005260206000200160009054906101000a900473ffffffffffffffffffffffffffffffffffffffff1673ffffffffffffffffffffffffffffffffffffffff16036106d65760019150506106ef565b80806106e190611410565b91505061064e565b50600090505b919050565b816106fe81610a6a565b6000801b8361070d8282610ae2565b6107377f0af1dac7dea2fd7f7738119cec7df099dfad49aa9d2e7d17ba6b60f63ae7411f85610bad565b60005b6003805490508110156107d1578473ffffffffffffffffffffffffffffffffffffffff1660038281548110610772576107716113ad565b5b9060005260206000200160009054906101000a900473ffffffffffffffffffffffffffffffffffffffff1673ffffffffffffffffffffffffffffffffffffffff16036107be5750610836565b80806107c990611410565b91505061073a565b506003849080600181540180825580915050600190039060005260206000200160009091909190916101000a81548173ffffffffffffffffffffffffffffffffffffffff021916908373ffffffffffffffffffffffffffffffffffffffff1602179055505b5050505050565b60008054906101000a900473ffffffffffffffffffffffffffffffffffffffff1661086781610a6a565b600073ffffffffffffffffffffffffffffffffffffffff168273ffffffffffffffffffffffffffffffffffffffff16036108d6576040517f08c379a00000000000000000000000000000000000000000000000000000000081526004016108cd906114f9565b60405180910390fd5b6108df82610bf3565b5050565b6108ed82826105d4565b156109dc5760006001600084815260200190815260200160002060000160008373ffffffffffffffffffffffffffffffffffffffff1673ffffffffffffffffffffffffffffffffffffffff16815260200190815260200160002060006101000a81548160ff021916908315150217905550600260009054906101000a900473ffffffffffffffffffffffffffffffffffffffff1673ffffffffffffffffffffffffffffffffffffffff168173ffffffffffffffffffffffffffffffffffffffff16837ff6391f5c32d9c69d2a47ea670b442974b53935d1edc7fd64eb21e047a839171b60405160405180910390a45b5050565b806109ea81610a6a565b81600260006101000a81548173ffffffffffffffffffffffffffffffffffffffff021916908373ffffffffffffffffffffffffffffffffffffffff1602179055505050565b600260009054906101000a900473ffffffffffffffffffffffffffffffffffffffff16610a5b81610a6a565b610a658383610cb7565b505050565b8073ffffffffffffffffffffffffffffffffffffffff16610a896105ab565b73ffffffffffffffffffffffffffffffffffffffff1614610adf576040517f08c379a0000000000000000000000000000000000000000000000000000000008152600401610ad690611565565b60405180910390fd5b50565b610aec82826105d4565b610b6357610af981610db2565b610b078360001c6020610ddf565b604051602001610b1892919061168e565b6040516020818303038152906040526040517f08c379a0000000000000000000000000000000000000000000000000000000008152600401610b5a9190611712565b60405180910390fd5b5050565b610b70826102a0565b600260009054906101000a900473ffffffffffffffffffffffffffffffffffffffff16610b9d8282610ae2565b610ba784846108e3565b50505050565b610bb6826102a0565b600260009054906101000a900473ffffffffffffffffffffffffffffffffffffffff16610be38282610ae2565b610bed8484610cb7565b50505050565b60008060009054906101000a900473ffffffffffffffffffffffffffffffffffffffff169050816000806101000a81548173ffffffffffffffffffffffffffffffffffffffff021916908373ffffffffffffffffffffffffffffffffffffffff1602179055508173ffffffffffffffffffffffffffffffffffffffff168173ffffffffffffffffffffffffffffffffffffffff167f8be0079c531659141344cd1fd0a4f28419497f9722a3daafe3b4186f6b6457e060405160405180910390a35050565b610cc182826105d4565b610dae57600180600084815260200190815260200160002060000160008373ffffffffffffffffffffffffffffffffffffffff1673ffffffffffffffffffffffffffffffffffffffff16815260200190815260200160002060006101000a81548160ff021916908315150217905550600260009054906101000a900473ffffffffffffffffffffffffffffffffffffffff1673ffffffffffffffffffffffffffffffffffffffff168173ffffffffffffffffffffffffffffffffffffffff16837f2f8788117e7eff1d82e926ec794901d17c78024a50270940304540a733656f0d60405160405180910390a45b5050565b6060610dd88273ffffffffffffffffffffffffffffffffffffffff16601460ff16610ddf565b9050919050565b606060006002836002610df29190611734565b610dfc91906113dc565b67ffffffffffffffff811115610e1557610e14611776565b5b6040519080825280601f01601f191660200182016040528015610e475781602001600182028036833780820191505090505b5090507f300000000000000000000000000000000000000000000000000000000000000081600081518110610e7f57610e7e6113ad565b5b60200101907effffffffffffffffffffffffffffffffffffffffffffffffffffffffffffff1916908160001a9053507f780000000000000000000000000000000000000000000000000000000000000081600181518110610ee357610ee26113ad565b5b60200101907effffffffffffffffffffffffffffffffffffffffffffffffffffffffffffff1916908160001a90535060006001846002610f239190611734565b610f2d91906113dc565b90505b6001811115610fcd577f3031323334353637383961626364656600000000000000000000000000000000600f861660108110610f6f57610f6e6113ad565b5b1a60f81b828281518110610f8657610f856113ad565b5b60200101907effffffffffffffffffffffffffffffffffffffffffffffffffffffffffffff1916908160001a905350600485901c945080610fc6906117a5565b9050610f30565b5060008414611011576040517f08c379a00000000000000000000000000000000000000000000000000000000081526004016110089061181a565b60405180910390fd5b8091505092915050565b600080fd5b60007fffffffff0000000000000000000000000000000000000000000000000000000082169050919050565b61105581611020565b811461106057600080fd5b50565b6000813590506110728161104c565b92915050565b60006020828403121561108e5761108d61101b565b5b600061109c84828501611063565b91505092915050565b60008115159050919050565b6110ba816110a5565b82525050565b60006020820190506110d560008301846110b1565b92915050565b6000819050919050565b6110ee816110db565b81146110f957600080fd5b50565b60008135905061110b816110e5565b92915050565b6000602082840312156111275761112661101b565b5b6000611135848285016110fc565b91505092915050565b611147816110db565b82525050565b6000602082019050611162600083018461113e565b92915050565b600073ffffffffffffffffffffffffffffffffffffffff82169050919050565b600061119382611168565b9050919050565b6111a381611188565b81146111ae57600080fd5b50565b6000813590506111c08161119a565b92915050565b600080604083850312156111dd576111dc61101b565b5b60006111eb858286016110fc565b92505060206111fc858286016111b1565b9150509250929050565b60006020828403121561121c5761121b61101b565b5b600061122a848285016111b1565b91505092915050565b6000806040838503121561124a5761124961101b565b5b6000611258858286016111b1565b9250506020611269858286016111b1565b9150509250929050565b61127c81611188565b82525050565b60006020820190506112976000830184611273565b92915050565b600082825260208201905092915050565b7f416363657373436f6e74726f6c3a2063616e206f6e6c792072656e6f756e636560008201527f20726f6c657320666f722073656c660000000000000000000000000000000000602082015250565b600061130a602f8361129d565b9150611315826112ae565b604082019050919050565b60006020820190508181036000830152611339816112fd565b9050919050565b6000819050919050565b7f4e487b7100000000000000000000000000000000000000000000000000000000600052601160045260246000fd5b600061138482611340565b915061138f83611340565b92508282039050818111156113a7576113a661134a565b5b92915050565b7f4e487b7100000000000000000000000000000000000000000000000000000000600052603260045260246000fd5b60006113e782611340565b91506113f283611340565b925082820190508082111561140a5761140961134a565b5b92915050565b600061141b82611340565b91507fffffffffffffffffffffffffffffffffffffffffffffffffffffffffffffffff820361144d5761144c61134a565b5b600182019050919050565b7f4e487b7100000000000000000000000000000000000000000000000000000000600052603160045260246000fd5b7f4f776e61626c653a206e6577206f776e657220697320746865207a65726f206160008201527f6464726573730000000000000000000000000000000000000000000000000000602082015250565b60006114e360268361129d565b91506114ee82611487565b604082019050919050565b60006020820190508181036000830152611512816114d6565b9050919050565b7f4f776e61626c653a2063616c6c6572206973206e6f7420746865206f776e6572600082015250565b600061154f60208361129d565b915061155a82611519565b602082019050919050565b6000602082019050818103600083015261157e81611542565b9050919050565b600081905092915050565b7f416363657373436f6e74726f6c3a206163636f756e7420000000000000000000600082015250565b60006115c6601783611585565b91506115d182611590565b601782019050919050565b600081519050919050565b60005b838110156116055780820151818401526020810190506115ea565b60008484015250505050565b600061161c826115dc565b6116268185611585565b93506116368185602086016115e7565b80840191505092915050565b7f206973206d697373696e6720726f6c6520000000000000000000000000000000600082015250565b6000611678601183611585565b915061168382611642565b601182019050919050565b6000611699826115b9565b91506116a58285611611565b91506116b08261166b565b91506116bc8284611611565b91508190509392505050565b6000601f19601f8301169050919050565b60006116e4826115dc565b6116ee818561129d565b93506116fe8185602086016115e7565b611707816116c8565b840191505092915050565b6000602082019050818103600083015261172c81846116d9565b905092915050565b600061173f82611340565b915061174a83611340565b925082820261175881611340565b9150828204841483151761176f5761176e61134a565b5b5092915050565b7f4e487b7100000000000000000000000000000000000000000000000000000000600052604160045260246000fd5b60006117b082611340565b9150600082036117c3576117c261134a565b5b600182039050919050565b7f537472696e67733a20686578206c656e67746820696e73756666696369656e74600082015250565b600061180460208361129d565b915061180f826117ce565b602082019050919050565b60006020820190508181036000830152611833816117f7565b905091905056fea26469706673582212200b97f41989442ffa3f6514f574b6db57e2d272eddd6224db358e55bb3f8e06c864736f6c63430008120033",
					"opcodes": "PUSH1 0x80 PUSH1 0x40 MSTORE CALLVALUE DUP1 ISZERO PUSH2 0x10 JUMPI PUSH1 0x0 DUP1 REVERT JUMPDEST POP CALLER PUSH2 0x21 DUP2 PUSH2 0x27 PUSH1 0x20 SHL PUSH1 0x20 SHR JUMP JUMPDEST POP PUSH2 0xEB JUMP JUMPDEST PUSH1 0x0 DUP1 PUSH1 0x0 SWAP1 SLOAD SWAP1 PUSH2 0x100 EXP SWAP1 DIV PUSH20 0xFFFFFFFFFFFFFFFFFFFFFFFFFFFFFFFFFFFFFFFF AND SWAP1 POP DUP2 PUSH1 0x0 DUP1 PUSH2 0x100 EXP DUP2 SLOAD DUP2 PUSH20 0xFFFFFFFFFFFFFFFFFFFFFFFFFFFFFFFFFFFFFFFF MUL NOT AND SWAP1 DUP4 PUSH20 0xFFFFFFFFFFFFFFFFFFFFFFFFFFFFFFFFFFFFFFFF AND MUL OR SWAP1 SSTORE POP DUP2 PUSH20 0xFFFFFFFFFFFFFFFFFFFFFFFFFFFFFFFFFFFFFFFF AND DUP2 PUSH20 0xFFFFFFFFFFFFFFFFFFFFFFFFFFFFFFFFFFFFFFFF AND PUSH32 0x8BE0079C531659141344CD1FD0A4F28419497F9722A3DAAFE3B4186F6B6457E0 PUSH1 0x40 MLOAD PUSH1 0x40 MLOAD DUP1 SWAP2 SUB SWAP1 LOG3 POP POP JUMP JUMPDEST PUSH2 0x1870 DUP1 PUSH2 0xFA PUSH1 0x0 CODECOPY PUSH1 0x0 RETURN INVALID PUSH1 0x80 PUSH1 0x40 MSTORE CALLVALUE DUP1 ISZERO PUSH2 0x10 JUMPI PUSH1 0x0 DUP1 REVERT JUMPDEST POP PUSH1 0x4 CALLDATASIZE LT PUSH2 0xA9 JUMPI PUSH1 0x0 CALLDATALOAD PUSH1 0xE0 SHR DUP1 PUSH4 0x8DA5CB5B GT PUSH2 0x71 JUMPI DUP1 PUSH4 0x8DA5CB5B EQ PUSH2 0x162 JUMPI DUP1 PUSH4 0x91D14854 EQ PUSH2 0x180 JUMPI DUP1 PUSH4 0xA217FDDF EQ PUSH2 0x1B0 JUMPI DUP1 PUSH4 0xA8F2BE76 EQ PUSH2 0x1CE JUMPI DUP1 PUSH4 0xAC0CC465 EQ PUSH2 0x1FE JUMPI DUP1 PUSH4 0xF2FDE38B EQ PUSH2 0x21A JUMPI PUSH2 0xA9 JUMP JUMPDEST DUP1 PUSH4 0x1FFC9A7 EQ PUSH2 0xAE JUMPI DUP1 PUSH4 0x248A9CA3 EQ PUSH2 0xDE JUMPI DUP1 PUSH4 0x36568ABE EQ PUSH2 0x10E JUMPI DUP1 PUSH4 0x4420E486 EQ PUSH2 0x12A JUMPI DUP1 PUSH4 0x4CC2F081 EQ PUSH2 0x146 JUMPI JUMPDEST PUSH1 0x0 DUP1 REVERT JUMPDEST PUSH2 0xC8 PUSH1 0x4 DUP1 CALLDATASIZE SUB DUP2 ADD SWAP1 PUSH2 0xC3 SWAP2 SWAP1 PUSH2 0x1078 JUMP JUMPDEST PUSH2 0x236 JUMP JUMPDEST PUSH1 0x40 MLOAD PUSH2 0xD5 SWAP2 SWAP1 PUSH2 0x10C0 JUMP JUMPDEST PUSH1 0x40 MLOAD DUP1 SWAP2 SUB SWAP1 RETURN JUMPDEST PUSH2 0xF8 PUSH1 0x4 DUP1 CALLDATASIZE SUB DUP2 ADD SWAP1 PUSH2 0xF3 SWAP2 SWAP1 PUSH2 0x1111 JUMP JUMPDEST PUSH2 0x2A0 JUMP JUMPDEST PUSH1 0x40 MLOAD PUSH2 0x105 SWAP2 SWAP1 PUSH2 0x114D JUMP JUMPDEST PUSH1 0x40 MLOAD DUP1 SWAP2 SUB SWAP1 RETURN JUMPDEST PUSH2 0x128 PUSH1 0x4 DUP1 CALLDATASIZE SUB DUP2 ADD SWAP1 PUSH2 0x123 SWAP2 SWAP1 PUSH2 0x11C6 JUMP JUMPDEST PUSH2 0x2C0 JUMP JUMPDEST STOP JUMPDEST PUSH2 0x144 PUSH1 0x4 DUP1 CALLDATASIZE SUB DUP2 ADD SWAP1 PUSH2 0x13F SWAP2 SWAP1 PUSH2 0x1206 JUMP JUMPDEST PUSH2 0x35E JUMP JUMPDEST STOP JUMPDEST PUSH2 0x160 PUSH1 0x4 DUP1 CALLDATASIZE SUB DUP2 ADD SWAP1 PUSH2 0x15B SWAP2 SWAP1 PUSH2 0x1233 JUMP JUMPDEST PUSH2 0x380 JUMP JUMPDEST STOP JUMPDEST PUSH2 0x16A PUSH2 0x5AB JUMP JUMPDEST PUSH1 0x40 MLOAD PUSH2 0x177 SWAP2 SWAP1 PUSH2 0x1282 JUMP JUMPDEST PUSH1 0x40 MLOAD DUP1 SWAP2 SUB SWAP1 RETURN JUMPDEST PUSH2 0x19A PUSH1 0x4 DUP1 CALLDATASIZE SUB DUP2 ADD SWAP1 PUSH2 0x195 SWAP2 SWAP1 PUSH2 0x11C6 JUMP JUMPDEST PUSH2 0x5D4 JUMP JUMPDEST PUSH1 0x40 MLOAD PUSH2 0x1A7 SWAP2 SWAP1 PUSH2 0x10C0 JUMP JUMPDEST PUSH1 0x40 MLOAD DUP1 SWAP2 SUB SWAP1 RETURN JUMPDEST PUSH2 0x1B8 PUSH2 0x63F JUMP JUMPDEST PUSH1 0x40 MLOAD PUSH2 0x1C5 SWAP2 SWAP1 PUSH2 0x114D JUMP JUMPDEST PUSH1 0x40 MLOAD DUP1 SWAP2 SUB SWAP1 RETURN JUMPDEST PUSH2 0x1E8 PUSH1 0x4 DUP1 CALLDATASIZE SUB DUP2 ADD SWAP1 PUSH2 0x1E3 SWAP2 SWAP1 PUSH2 0x1206 JUMP JUMPDEST PUSH2 0x646 JUMP JUMPDEST PUSH1 0x40 MLOAD PUSH2 0x1F5 SWAP2 SWAP1 PUSH2 0x10C0 JUMP JUMPDEST PUSH1 0x40 MLOAD DUP1 SWAP2 SUB SWAP1 RETURN JUMPDEST PUSH2 0x218 PUSH1 0x4 DUP1 CALLDATASIZE SUB DUP2 ADD SWAP1 PUSH2 0x213 SWAP2 SWAP1 PUSH2 0x1233 JUMP JUMPDEST PUSH2 0x6F4 JUMP JUMPDEST STOP JUMPDEST PUSH2 0x234 PUSH1 0x4 DUP1 CALLDATASIZE SUB DUP2 ADD SWAP1 PUSH2 0x22F SWAP2 SWAP1 PUSH2 0x1206 JUMP JUMPDEST PUSH2 0x83D JUMP JUMPDEST STOP JUMPDEST PUSH1 0x0 PUSH32 0x1FFC9A700000000000000000000000000000000000000000000000000000000 PUSH28 0xFFFFFFFFFFFFFFFFFFFFFFFFFFFFFFFFFFFFFFFFFFFFFFFFFFFFFFFF NOT AND DUP3 PUSH28 0xFFFFFFFFFFFFFFFFFFFFFFFFFFFFFFFFFFFFFFFFFFFFFFFFFFFFFFFF NOT AND EQ SWAP1 POP SWAP2 SWAP1 POP JUMP JUMPDEST PUSH1 0x0 PUSH1 0x1 PUSH1 0x0 DUP4 DUP2 MSTORE PUSH1 0x20 ADD SWAP1 DUP2 MSTORE PUSH1 0x20 ADD PUSH1 0x0 KECCAK256 PUSH1 0x1 ADD SLOAD SWAP1 POP SWAP2 SWAP1 POP JUMP JUMPDEST PUSH1 0x2 PUSH1 0x0 SWAP1 SLOAD SWAP1 PUSH2 0x100 EXP SWAP1 DIV PUSH20 0xFFFFFFFFFFFFFFFFFFFFFFFFFFFFFFFFFFFFFFFF AND PUSH20 0xFFFFFFFFFFFFFFFFFFFFFFFFFFFFFFFFFFFFFFFF AND DUP2 PUSH20 0xFFFFFFFFFFFFFFFFFFFFFFFFFFFFFFFFFFFFFFFF AND EQ PUSH2 0x350 JUMPI PUSH1 0x40 MLOAD PUSH32 0x8C379A000000000000000000000000000000000000000000000000000000000 DUP2 MSTORE PUSH1 0x4 ADD PUSH2 0x347 SWAP1 PUSH2 0x1320 JUMP JUMPDEST PUSH1 0x40 MLOAD DUP1 SWAP2 SUB SWAP1 REVERT JUMPDEST PUSH2 0x35A DUP3 DUP3 PUSH2 0x8E3 JUMP JUMPDEST POP POP JUMP JUMPDEST PUSH2 0x367 DUP2 PUSH2 0x83D JUMP JUMPDEST PUSH2 0x370 DUP2 PUSH2 0x9E0 JUMP JUMPDEST PUSH2 0x37D PUSH1 0x0 DUP1 SHL DUP3 PUSH2 0xA2F JUMP JUMPDEST POP JUMP JUMPDEST DUP2 PUSH2 0x38A DUP2 PUSH2 0xA6A JUMP JUMPDEST PUSH1 0x0 DUP1 SHL DUP4 PUSH2 0x399 DUP3 DUP3 PUSH2 0xAE2 JUMP JUMPDEST PUSH2 0x3C3 PUSH32 0xAF1DAC7DEA2FD7F7738119CEC7DF099DFAD49AA9D2E7D17BA6B60F63AE7411F DUP6 PUSH2 0xB67 JUMP JUMPDEST PUSH1 0x0 PUSH32 0xFFFFFFFFFFFFFFFFFFFFFFFFFFFFFFFFFFFFFFFFFFFFFFFFFFFFFFFFFFFFFFFF SWAP1 POP PUSH1 0x0 JUMPDEST PUSH1 0x1 PUSH1 0x3 DUP1 SLOAD SWAP1 POP PUSH2 0x3FD SWAP2 SWAP1 PUSH2 0x1379 JUMP JUMPDEST DUP2 LT ISZERO PUSH2 0x55B JUMPI DUP6 PUSH20 0xFFFFFFFFFFFFFFFFFFFFFFFFFFFFFFFFFFFFFFFF AND PUSH1 0x3 DUP3 DUP2 SLOAD DUP2 LT PUSH2 0x42F JUMPI PUSH2 0x42E PUSH2 0x13AD JUMP JUMPDEST JUMPDEST SWAP1 PUSH1 0x0 MSTORE PUSH1 0x20 PUSH1 0x0 KECCAK256 ADD PUSH1 0x0 SWAP1 SLOAD SWAP1 PUSH2 0x100 EXP SWAP1 DIV PUSH20 0xFFFFFFFFFFFFFFFFFFFFFFFFFFFFFFFFFFFFFFFF AND PUSH20 0xFFFFFFFFFFFFFFFFFFFFFFFFFFFFFFFFFFFFFFFF AND SUB PUSH2 0x479 JUMPI DUP1 SWAP2 POP JUMPDEST PUSH32 0xFFFFFFFFFFFFFFFFFFFFFFFFFFFFFFFFFFFFFFFFFFFFFFFFFFFFFFFFFFFFFFFF DUP3 EQ PUSH2 0x548 JUMPI PUSH1 0x3 PUSH1 0x1 DUP3 PUSH2 0x4AF SWAP2 SWAP1 PUSH2 0x13DC JUMP JUMPDEST DUP2 SLOAD DUP2 LT PUSH2 0x4C0 JUMPI PUSH2 0x4BF PUSH2 0x13AD JUMP JUMPDEST JUMPDEST SWAP1 PUSH1 0x0 MSTORE PUSH1 0x20 PUSH1 0x0 KECCAK256 ADD PUSH1 0x0 SWAP1 SLOAD SWAP1 PUSH2 0x100 EXP SWAP1 DIV PUSH20 0xFFFFFFFFFFFFFFFFFFFFFFFFFFFFFFFFFFFFFFFF AND PUSH1 0x3 DUP3 DUP2 SLOAD DUP2 LT PUSH2 0x4FF JUMPI PUSH2 0x4FE PUSH2 0x13AD JUMP JUMPDEST JUMPDEST SWAP1 PUSH1 0x0 MSTORE PUSH1 0x20 PUSH1 0x0 KECCAK256 ADD PUSH1 0x0 PUSH2 0x100 EXP DUP2 SLOAD DUP2 PUSH20 0xFFFFFFFFFFFFFFFFFFFFFFFFFFFFFFFFFFFFFFFF MUL NOT AND SWAP1 DUP4 PUSH20 0xFFFFFFFFFFFFFFFFFFFFFFFFFFFFFFFFFFFFFFFF AND MUL OR SWAP1 SSTORE POP JUMPDEST DUP1 DUP1 PUSH2 0x553 SWAP1 PUSH2 0x1410 JUMP JUMPDEST SWAP2 POP POP PUSH2 0x3EB JUMP JUMPDEST POP PUSH1 0x3 DUP1 SLOAD DUP1 PUSH2 0x56E JUMPI PUSH2 0x56D PUSH2 0x1458 JUMP JUMPDEST JUMPDEST PUSH1 0x1 SWAP1 SUB DUP2 DUP2 SWAP1 PUSH1 0x0 MSTORE PUSH1 0x20 PUSH1 0x0 KECCAK256 ADD PUSH1 0x0 PUSH2 0x100 EXP DUP2 SLOAD SWAP1 PUSH20 0xFFFFFFFFFFFFFFFFFFFFFFFFFFFFFFFFFFFFFFFF MUL NOT AND SWAP1 SSTORE SWAP1 SSTORE POP POP POP POP POP POP JUMP JUMPDEST PUSH1 0x0 DUP1 PUSH1 0x0 SWAP1 SLOAD SWAP1 PUSH2 0x100 EXP SWAP1 DIV PUSH20 0xFFFFFFFFFFFFFFFFFFFFFFFFFFFFFFFFFFFFFFFF AND SWAP1 POP SWAP1 JUMP JUMPDEST PUSH1 0x0 PUSH1 0x1 PUSH1 0x0 DUP5 DUP2 MSTORE PUSH1 0x20 ADD SWAP1 DUP2 MSTORE PUSH1 0x20 ADD PUSH1 0x0 KECCAK256 PUSH1 0x0 ADD PUSH1 0x0 DUP4 PUSH20 0xFFFFFFFFFFFFFFFFFFFFFFFFFFFFFFFFFFFFFFFF AND PUSH20 0xFFFFFFFFFFFFFFFFFFFFFFFFFFFFFFFFFFFFFFFF AND DUP2 MSTORE PUSH1 0x20 ADD SWAP1 DUP2 MSTORE PUSH1 0x20 ADD PUSH1 0x0 KECCAK256 PUSH1 0x0 SWAP1 SLOAD SWAP1 PUSH2 0x100 EXP SWAP1 DIV PUSH1 0xFF AND SWAP1 POP SWAP3 SWAP2 POP POP JUMP JUMPDEST PUSH1 0x0 DUP1 SHL DUP2 JUMP JUMPDEST PUSH1 0x0 DUP1 PUSH1 0x0 SWAP1 POP JUMPDEST PUSH1 0x3 DUP1 SLOAD SWAP1 POP DUP2 LT ISZERO PUSH2 0x6E9 JUMPI DUP3 PUSH20 0xFFFFFFFFFFFFFFFFFFFFFFFFFFFFFFFFFFFFFFFF AND PUSH1 0x3 DUP3 DUP2 SLOAD DUP2 LT PUSH2 0x686 JUMPI PUSH2 0x685 PUSH2 0x13AD JUMP JUMPDEST JUMPDEST SWAP1 PUSH1 0x0 MSTORE PUSH1 0x20 PUSH1 0x0 KECCAK256 ADD PUSH1 0x0 SWAP1 SLOAD SWAP1 PUSH2 0x100 EXP SWAP1 DIV PUSH20 0xFFFFFFFFFFFFFFFFFFFFFFFFFFFFFFFFFFFFFFFF AND PUSH20 0xFFFFFFFFFFFFFFFFFFFFFFFFFFFFFFFFFFFFFFFF AND SUB PUSH2 0x6D6 JUMPI PUSH1 0x1 SWAP2 POP POP PUSH2 0x6EF JUMP JUMPDEST DUP1 DUP1 PUSH2 0x6E1 SWAP1 PUSH2 0x1410 JUMP JUMPDEST SWAP2 POP POP PUSH2 0x64E JUMP JUMPDEST POP PUSH1 0x0 SWAP1 POP JUMPDEST SWAP2 SWAP1 POP JUMP JUMPDEST DUP2 PUSH2 0x6FE DUP2 PUSH2 0xA6A JUMP JUMPDEST PUSH1 0x0 DUP1 SHL DUP4 PUSH2 0x70D DUP3 DUP3 PUSH2 0xAE2 JUMP JUMPDEST PUSH2 0x737 PUSH32 0xAF1DAC7DEA2FD7F7738119CEC7DF099DFAD49AA9D2E7D17BA6B60F63AE7411F DUP6 PUSH2 0xBAD JUMP JUMPDEST PUSH1 0x0 JUMPDEST PUSH1 0x3 DUP1 SLOAD SWAP1 POP DUP2 LT ISZERO PUSH2 0x7D1 JUMPI DUP5 PUSH20 0xFFFFFFFFFFFFFFFFFFFFFFFFFFFFFFFFFFFFFFFF AND PUSH1 0x3 DUP3 DUP2 SLOAD DUP2 LT PUSH2 0x772 JUMPI PUSH2 0x771 PUSH2 0x13AD JUMP JUMPDEST JUMPDEST SWAP1 PUSH1 0x0 MSTORE PUSH1 0x20 PUSH1 0x0 KECCAK256 ADD PUSH1 0x0 SWAP1 SLOAD SWAP1 PUSH2 0x100 EXP SWAP1 DIV PUSH20 0xFFFFFFFFFFFFFFFFFFFFFFFFFFFFFFFFFFFFFFFF AND PUSH20 0xFFFFFFFFFFFFFFFFFFFFFFFFFFFFFFFFFFFFFFFF AND SUB PUSH2 0x7BE JUMPI POP PUSH2 0x836 JUMP JUMPDEST DUP1 DUP1 PUSH2 0x7C9 SWAP1 PUSH2 0x1410 JUMP JUMPDEST SWAP2 POP POP PUSH2 0x73A JUMP JUMPDEST POP PUSH1 0x3 DUP5 SWAP1 DUP1 PUSH1 0x1 DUP2 SLOAD ADD DUP1 DUP3 SSTORE DUP1 SWAP2 POP POP PUSH1 0x1 SWAP1 SUB SWAP1 PUSH1 0x0 MSTORE PUSH1 0x20 PUSH1 0x0 KECCAK256 ADD PUSH1 0x0 SWAP1 SWAP2 SWAP1 SWAP2 SWAP1 SWAP2 PUSH2 0x100 EXP DUP2 SLOAD DUP2 PUSH20 0xFFFFFFFFFFFFFFFFFFFFFFFFFFFFFFFFFFFFFFFF MUL NOT AND SWAP1 DUP4 PUSH20 0xFFFFFFFFFFFFFFFFFFFFFFFFFFFFFFFFFFFFFFFF AND MUL OR SWAP1 SSTORE POP JUMPDEST POP POP POP POP POP JUMP JUMPDEST PUSH1 0x0 DUP1 SLOAD SWAP1 PUSH2 0x100 EXP SWAP1 DIV PUSH20 0xFFFFFFFFFFFFFFFFFFFFFFFFFFFFFFFFFFFFFFFF AND PUSH2 0x867 DUP2 PUSH2 0xA6A JUMP JUMPDEST PUSH1 0x0 PUSH20 0xFFFFFFFFFFFFFFFFFFFFFFFFFFFFFFFFFFFFFFFF AND DUP3 PUSH20 0xFFFFFFFFFFFFFFFFFFFFFFFFFFFFFFFFFFFFFFFF AND SUB PUSH2 0x8D6 JUMPI PUSH1 0x40 MLOAD PUSH32 0x8C379A000000000000000000000000000000000000000000000000000000000 DUP2 MSTORE PUSH1 0x4 ADD PUSH2 0x8CD SWAP1 PUSH2 0x14F9 JUMP JUMPDEST PUSH1 0x40 MLOAD DUP1 SWAP2 SUB SWAP1 REVERT JUMPDEST PUSH2 0x8DF DUP3 PUSH2 0xBF3 JUMP JUMPDEST POP POP JUMP JUMPDEST PUSH2 0x8ED DUP3 DUP3 PUSH2 0x5D4 JUMP JUMPDEST ISZERO PUSH2 0x9DC JUMPI PUSH1 0x0 PUSH1 0x1 PUSH1 0x0 DUP5 DUP2 MSTORE PUSH1 0x20 ADD SWAP1 DUP2 MSTORE PUSH1 0x20 ADD PUSH1 0x0 KECCAK256 PUSH1 0x0 ADD PUSH1 0x0 DUP4 PUSH20 0xFFFFFFFFFFFFFFFFFFFFFFFFFFFFFFFFFFFFFFFF AND PUSH20 0xFFFFFFFFFFFFFFFFFFFFFFFFFFFFFFFFFFFFFFFF AND DUP2 MSTORE PUSH1 0x20 ADD SWAP1 DUP2 MSTORE PUSH1 0x20 ADD PUSH1 0x0 KECCAK256 PUSH1 0x0 PUSH2 0x100 EXP DUP2 SLOAD DUP2 PUSH1 0xFF MUL NOT AND SWAP1 DUP4 ISZERO ISZERO MUL OR SWAP1 SSTORE POP PUSH1 0x2 PUSH1 0x0 SWAP1 SLOAD SWAP1 PUSH2 0x100 EXP SWAP1 DIV PUSH20 0xFFFFFFFFFFFFFFFFFFFFFFFFFFFFFFFFFFFFFFFF AND PUSH20 0xFFFFFFFFFFFFFFFFFFFFFFFFFFFFFFFFFFFFFFFF AND DUP2 PUSH20 0xFFFFFFFFFFFFFFFFFFFFFFFFFFFFFFFFFFFFFFFF AND DUP4 PUSH32 0xF6391F5C32D9C69D2A47EA670B442974B53935D1EDC7FD64EB21E047A839171B PUSH1 0x40 MLOAD PUSH1 0x40 MLOAD DUP1 SWAP2 SUB SWAP1 LOG4 JUMPDEST POP POP JUMP JUMPDEST DUP1 PUSH2 0x9EA DUP2 PUSH2 0xA6A JUMP JUMPDEST DUP2 PUSH1 0x2 PUSH1 0x0 PUSH2 0x100 EXP DUP2 SLOAD DUP2 PUSH20 0xFFFFFFFFFFFFFFFFFFFFFFFFFFFFFFFFFFFFFFFF MUL NOT AND SWAP1 DUP4 PUSH20 0xFFFFFFFFFFFFFFFFFFFFFFFFFFFFFFFFFFFFFFFF AND MUL OR SWAP1 SSTORE POP POP POP JUMP JUMPDEST PUSH1 0x2 PUSH1 0x0 SWAP1 SLOAD SWAP1 PUSH2 0x100 EXP SWAP1 DIV PUSH20 0xFFFFFFFFFFFFFFFFFFFFFFFFFFFFFFFFFFFFFFFF AND PUSH2 0xA5B DUP2 PUSH2 0xA6A JUMP JUMPDEST PUSH2 0xA65 DUP4 DUP4 PUSH2 0xCB7 JUMP JUMPDEST POP POP POP JUMP JUMPDEST DUP1 PUSH20 0xFFFFFFFFFFFFFFFFFFFFFFFFFFFFFFFFFFFFFFFF AND PUSH2 0xA89 PUSH2 0x5AB JUMP JUMPDEST PUSH20 0xFFFFFFFFFFFFFFFFFFFFFFFFFFFFFFFFFFFFFFFF AND EQ PUSH2 0xADF JUMPI PUSH1 0x40 MLOAD PUSH32 0x8C379A000000000000000000000000000000000000000000000000000000000 DUP2 MSTORE PUSH1 0x4 ADD PUSH2 0xAD6 SWAP1 PUSH2 0x1565 JUMP JUMPDEST PUSH1 0x40 MLOAD DUP1 SWAP2 SUB SWAP1 REVERT JUMPDEST POP JUMP JUMPDEST PUSH2 0xAEC DUP3 DUP3 PUSH2 0x5D4 JUMP JUMPDEST PUSH2 0xB63 JUMPI PUSH2 0xAF9 DUP2 PUSH2 0xDB2 JUMP JUMPDEST PUSH2 0xB07 DUP4 PUSH1 0x0 SHR PUSH1 0x20 PUSH2 0xDDF JUMP JUMPDEST PUSH1 0x40 MLOAD PUSH1 0x20 ADD PUSH2 0xB18 SWAP3 SWAP2 SWAP1 PUSH2 0x168E JUMP JUMPDEST PUSH1 0x40 MLOAD PUSH1 0x20 DUP2 DUP4 SUB SUB DUP2 MSTORE SWAP1 PUSH1 0x40 MSTORE PUSH1 0x40 MLOAD PUSH32 0x8C379A000000000000000000000000000000000000000000000000000000000 DUP2 MSTORE PUSH1 0x4 ADD PUSH2 0xB5A SWAP2 SWAP1 PUSH2 0x1712 JUMP JUMPDEST PUSH1 0x40 MLOAD DUP1 SWAP2 SUB SWAP1 REVERT JUMPDEST POP POP JUMP JUMPDEST PUSH2 0xB70 DUP3 PUSH2 0x2A0 JUMP JUMPDEST PUSH1 0x2 PUSH1 0x0 SWAP1 SLOAD SWAP1 PUSH2 0x100 EXP SWAP1 DIV PUSH20 0xFFFFFFFFFFFFFFFFFFFFFFFFFFFFFFFFFFFFFFFF AND PUSH2 0xB9D DUP3 DUP3 PUSH2 0xAE2 JUMP JUMPDEST PUSH2 0xBA7 DUP5 DUP5 PUSH2 0x8E3 JUMP JUMPDEST POP POP POP POP JUMP JUMPDEST PUSH2 0xBB6 DUP3 PUSH2 0x2A0 JUMP JUMPDEST PUSH1 0x2 PUSH1 0x0 SWAP1 SLOAD SWAP1 PUSH2 0x100 EXP SWAP1 DIV PUSH20 0xFFFFFFFFFFFFFFFFFFFFFFFFFFFFFFFFFFFFFFFF AND PUSH2 0xBE3 DUP3 DUP3 PUSH2 0xAE2 JUMP JUMPDEST PUSH2 0xBED DUP5 DUP5 PUSH2 0xCB7 JUMP JUMPDEST POP POP POP POP JUMP JUMPDEST PUSH1 0x0 DUP1 PUSH1 0x0 SWAP1 SLOAD SWAP1 PUSH2 0x100 EXP SWAP1 DIV PUSH20 0xFFFFFFFFFFFFFFFFFFFFFFFFFFFFFFFFFFFFFFFF AND SWAP1 POP DUP2 PUSH1 0x0 DUP1 PUSH2 0x100 EXP DUP2 SLOAD DUP2 PUSH20 0xFFFFFFFFFFFFFFFFFFFFFFFFFFFFFFFFFFFFFFFF MUL NOT AND SWAP1 DUP4 PUSH20 0xFFFFFFFFFFFFFFFFFFFFFFFFFFFFFFFFFFFFFFFF AND MUL OR SWAP1 SSTORE POP DUP2 PUSH20 0xFFFFFFFFFFFFFFFFFFFFFFFFFFFFFFFFFFFFFFFF AND DUP2 PUSH20 0xFFFFFFFFFFFFFFFFFFFFFFFFFFFFFFFFFFFFFFFF AND PUSH32 0x8BE0079C531659141344CD1FD0A4F28419497F9722A3DAAFE3B4186F6B6457E0 PUSH1 0x40 MLOAD PUSH1 0x40 MLOAD DUP1 SWAP2 SUB SWAP1 LOG3 POP POP JUMP JUMPDEST PUSH2 0xCC1 DUP3 DUP3 PUSH2 0x5D4 JUMP JUMPDEST PUSH2 0xDAE JUMPI PUSH1 0x1 DUP1 PUSH1 0x0 DUP5 DUP2 MSTORE PUSH1 0x20 ADD SWAP1 DUP2 MSTORE PUSH1 0x20 ADD PUSH1 0x0 KECCAK256 PUSH1 0x0 ADD PUSH1 0x0 DUP4 PUSH20 0xFFFFFFFFFFFFFFFFFFFFFFFFFFFFFFFFFFFFFFFF AND PUSH20 0xFFFFFFFFFFFFFFFFFFFFFFFFFFFFFFFFFFFFFFFF AND DUP2 MSTORE PUSH1 0x20 ADD SWAP1 DUP2 MSTORE PUSH1 0x20 ADD PUSH1 0x0 KECCAK256 PUSH1 0x0 PUSH2 0x100 EXP DUP2 SLOAD DUP2 PUSH1 0xFF MUL NOT AND SWAP1 DUP4 ISZERO ISZERO MUL OR SWAP1 SSTORE POP PUSH1 0x2 PUSH1 0x0 SWAP1 SLOAD SWAP1 PUSH2 0x100 EXP SWAP1 DIV PUSH20 0xFFFFFFFFFFFFFFFFFFFFFFFFFFFFFFFFFFFFFFFF AND PUSH20 0xFFFFFFFFFFFFFFFFFFFFFFFFFFFFFFFFFFFFFFFF AND DUP2 PUSH20 0xFFFFFFFFFFFFFFFFFFFFFFFFFFFFFFFFFFFFFFFF AND DUP4 PUSH32 0x2F8788117E7EFF1D82E926EC794901D17C78024A50270940304540A733656F0D PUSH1 0x40 MLOAD PUSH1 0x40 MLOAD DUP1 SWAP2 SUB SWAP1 LOG4 JUMPDEST POP POP JUMP JUMPDEST PUSH1 0x60 PUSH2 0xDD8 DUP3 PUSH20 0xFFFFFFFFFFFFFFFFFFFFFFFFFFFFFFFFFFFFFFFF AND PUSH1 0x14 PUSH1 0xFF AND PUSH2 0xDDF JUMP JUMPDEST SWAP1 POP SWAP2 SWAP1 POP JUMP JUMPDEST PUSH1 0x60 PUSH1 0x0 PUSH1 0x2 DUP4 PUSH1 0x2 PUSH2 0xDF2 SWAP2 SWAP1 PUSH2 0x1734 JUMP JUMPDEST PUSH2 0xDFC SWAP2 SWAP1 PUSH2 0x13DC JUMP JUMPDEST PUSH8 0xFFFFFFFFFFFFFFFF DUP2 GT ISZERO PUSH2 0xE15 JUMPI PUSH2 0xE14 PUSH2 0x1776 JUMP JUMPDEST JUMPDEST PUSH1 0x40 MLOAD SWAP1 DUP1 DUP3 MSTORE DUP1 PUSH1 0x1F ADD PUSH1 0x1F NOT AND PUSH1 0x20 ADD DUP3 ADD PUSH1 0x40 MSTORE DUP1 ISZERO PUSH2 0xE47 JUMPI DUP2 PUSH1 0x20 ADD PUSH1 0x1 DUP3 MUL DUP1 CALLDATASIZE DUP4 CALLDATACOPY DUP1 DUP3 ADD SWAP2 POP POP SWAP1 POP JUMPDEST POP SWAP1 POP PUSH32 0x3000000000000000000000000000000000000000000000000000000000000000 DUP2 PUSH1 0x0 DUP2 MLOAD DUP2 LT PUSH2 0xE7F JUMPI PUSH2 0xE7E PUSH2 0x13AD JUMP JUMPDEST JUMPDEST PUSH1 0x20 ADD ADD SWAP1 PUSH31 0xFFFFFFFFFFFFFFFFFFFFFFFFFFFFFFFFFFFFFFFFFFFFFFFFFFFFFFFFFFFFFF NOT AND SWAP1 DUP2 PUSH1 0x0 BYTE SWAP1 MSTORE8 POP PUSH32 0x7800000000000000000000000000000000000000000000000000000000000000 DUP2 PUSH1 0x1 DUP2 MLOAD DUP2 LT PUSH2 0xEE3 JUMPI PUSH2 0xEE2 PUSH2 0x13AD JUMP JUMPDEST JUMPDEST PUSH1 0x20 ADD ADD SWAP1 PUSH31 0xFFFFFFFFFFFFFFFFFFFFFFFFFFFFFFFFFFFFFFFFFFFFFFFFFFFFFFFFFFFFFF NOT AND SWAP1 DUP2 PUSH1 0x0 BYTE SWAP1 MSTORE8 POP PUSH1 0x0 PUSH1 0x1 DUP5 PUSH1 0x2 PUSH2 0xF23 SWAP2 SWAP1 PUSH2 0x1734 JUMP JUMPDEST PUSH2 0xF2D SWAP2 SWAP1 PUSH2 0x13DC JUMP JUMPDEST SWAP1 POP JUMPDEST PUSH1 0x1 DUP2 GT ISZERO PUSH2 0xFCD JUMPI PUSH32 0x3031323334353637383961626364656600000000000000000000000000000000 PUSH1 0xF DUP7 AND PUSH1 0x10 DUP2 LT PUSH2 0xF6F JUMPI PUSH2 0xF6E PUSH2 0x13AD JUMP JUMPDEST JUMPDEST BYTE PUSH1 0xF8 SHL DUP3 DUP3 DUP2 MLOAD DUP2 LT PUSH2 0xF86 JUMPI PUSH2 0xF85 PUSH2 0x13AD JUMP JUMPDEST JUMPDEST PUSH1 0x20 ADD ADD SWAP1 PUSH31 0xFFFFFFFFFFFFFFFFFFFFFFFFFFFFFFFFFFFFFFFFFFFFFFFFFFFFFFFFFFFFFF NOT AND SWAP1 DUP2 PUSH1 0x0 BYTE SWAP1 MSTORE8 POP PUSH1 0x4 DUP6 SWAP1 SHR SWAP5 POP DUP1 PUSH2 0xFC6 SWAP1 PUSH2 0x17A5 JUMP JUMPDEST SWAP1 POP PUSH2 0xF30 JUMP JUMPDEST POP PUSH1 0x0 DUP5 EQ PUSH2 0x1011 JUMPI PUSH1 0x40 MLOAD PUSH32 0x8C379A000000000000000000000000000000000000000000000000000000000 DUP2 MSTORE PUSH1 0x4 ADD PUSH2 0x1008 SWAP1 PUSH2 0x181A JUMP JUMPDEST PUSH1 0x40 MLOAD DUP1 SWAP2 SUB SWAP1 REVERT JUMPDEST DUP1 SWAP2 POP POP SWAP3 SWAP2 POP POP JUMP JUMPDEST PUSH1 0x0 DUP1 REVERT JUMPDEST PUSH1 0x0 PUSH32 0xFFFFFFFF00000000000000000000000000000000000000000000000000000000 DUP3 AND SWAP1 POP SWAP2 SWAP1 POP JUMP JUMPDEST PUSH2 0x1055 DUP2 PUSH2 0x1020 JUMP JUMPDEST DUP2 EQ PUSH2 0x1060 JUMPI PUSH1 0x0 DUP1 REVERT JUMPDEST POP JUMP JUMPDEST PUSH1 0x0 DUP2 CALLDATALOAD SWAP1 POP PUSH2 0x1072 DUP2 PUSH2 0x104C JUMP JUMPDEST SWAP3 SWAP2 POP POP JUMP JUMPDEST PUSH1 0x0 PUSH1 0x20 DUP3 DUP5 SUB SLT ISZERO PUSH2 0x108E JUMPI PUSH2 0x108D PUSH2 0x101B JUMP JUMPDEST JUMPDEST PUSH1 0x0 PUSH2 0x109C DUP5 DUP3 DUP6 ADD PUSH2 0x1063 JUMP JUMPDEST SWAP2 POP POP SWAP3 SWAP2 POP POP JUMP JUMPDEST PUSH1 0x0 DUP2 ISZERO ISZERO SWAP1 POP SWAP2 SWAP1 POP JUMP JUMPDEST PUSH2 0x10BA DUP2 PUSH2 0x10A5 JUMP JUMPDEST DUP3 MSTORE POP POP JUMP JUMPDEST PUSH1 0x0 PUSH1 0x20 DUP3 ADD SWAP1 POP PUSH2 0x10D5 PUSH1 0x0 DUP4 ADD DUP5 PUSH2 0x10B1 JUMP JUMPDEST SWAP3 SWAP2 POP POP JUMP JUMPDEST PUSH1 0x0 DUP2 SWAP1 POP SWAP2 SWAP1 POP JUMP JUMPDEST PUSH2 0x10EE DUP2 PUSH2 0x10DB JUMP JUMPDEST DUP2 EQ PUSH2 0x10F9 JUMPI PUSH1 0x0 DUP1 REVERT JUMPDEST POP JUMP JUMPDEST PUSH1 0x0 DUP2 CALLDATALOAD SWAP1 POP PUSH2 0x110B DUP2 PUSH2 0x10E5 JUMP JUMPDEST SWAP3 SWAP2 POP POP JUMP JUMPDEST PUSH1 0x0 PUSH1 0x20 DUP3 DUP5 SUB SLT ISZERO PUSH2 0x1127 JUMPI PUSH2 0x1126 PUSH2 0x101B JUMP JUMPDEST JUMPDEST PUSH1 0x0 PUSH2 0x1135 DUP5 DUP3 DUP6 ADD PUSH2 0x10FC JUMP JUMPDEST SWAP2 POP POP SWAP3 SWAP2 POP POP JUMP JUMPDEST PUSH2 0x1147 DUP2 PUSH2 0x10DB JUMP JUMPDEST DUP3 MSTORE POP POP JUMP JUMPDEST PUSH1 0x0 PUSH1 0x20 DUP3 ADD SWAP1 POP PUSH2 0x1162 PUSH1 0x0 DUP4 ADD DUP5 PUSH2 0x113E JUMP JUMPDEST SWAP3 SWAP2 POP POP JUMP JUMPDEST PUSH1 0x0 PUSH20 0xFFFFFFFFFFFFFFFFFFFFFFFFFFFFFFFFFFFFFFFF DUP3 AND SWAP1 POP SWAP2 SWAP1 POP JUMP JUMPDEST PUSH1 0x0 PUSH2 0x1193 DUP3 PUSH2 0x1168 JUMP JUMPDEST SWAP1 POP SWAP2 SWAP1 POP JUMP JUMPDEST PUSH2 0x11A3 DUP2 PUSH2 0x1188 JUMP JUMPDEST DUP2 EQ PUSH2 0x11AE JUMPI PUSH1 0x0 DUP1 REVERT JUMPDEST POP JUMP JUMPDEST PUSH1 0x0 DUP2 CALLDATALOAD SWAP1 POP PUSH2 0x11C0 DUP2 PUSH2 0x119A JUMP JUMPDEST SWAP3 SWAP2 POP POP JUMP JUMPDEST PUSH1 0x0 DUP1 PUSH1 0x40 DUP4 DUP6 SUB SLT ISZERO PUSH2 0x11DD JUMPI PUSH2 0x11DC PUSH2 0x101B JUMP JUMPDEST JUMPDEST PUSH1 0x0 PUSH2 0x11EB DUP6 DUP3 DUP7 ADD PUSH2 0x10FC JUMP JUMPDEST SWAP3 POP POP PUSH1 0x20 PUSH2 0x11FC DUP6 DUP3 DUP7 ADD PUSH2 0x11B1 JUMP JUMPDEST SWAP2 POP POP SWAP3 POP SWAP3 SWAP1 POP JUMP JUMPDEST PUSH1 0x0 PUSH1 0x20 DUP3 DUP5 SUB SLT ISZERO PUSH2 0x121C JUMPI PUSH2 0x121B PUSH2 0x101B JUMP JUMPDEST JUMPDEST PUSH1 0x0 PUSH2 0x122A DUP5 DUP3 DUP6 ADD PUSH2 0x11B1 JUMP JUMPDEST SWAP2 POP POP SWAP3 SWAP2 POP POP JUMP JUMPDEST PUSH1 0x0 DUP1 PUSH1 0x40 DUP4 DUP6 SUB SLT ISZERO PUSH2 0x124A JUMPI PUSH2 0x1249 PUSH2 0x101B JUMP JUMPDEST JUMPDEST PUSH1 0x0 PUSH2 0x1258 DUP6 DUP3 DUP7 ADD PUSH2 0x11B1 JUMP JUMPDEST SWAP3 POP POP PUSH1 0x20 PUSH2 0x1269 DUP6 DUP3 DUP7 ADD PUSH2 0x11B1 JUMP JUMPDEST SWAP2 POP POP SWAP3 POP SWAP3 SWAP1 POP JUMP JUMPDEST PUSH2 0x127C DUP2 PUSH2 0x1188 JUMP JUMPDEST DUP3 MSTORE POP POP JUMP JUMPDEST PUSH1 0x0 PUSH1 0x20 DUP3 ADD SWAP1 POP PUSH2 0x1297 PUSH1 0x0 DUP4 ADD DUP5 PUSH2 0x1273 JUMP JUMPDEST SWAP3 SWAP2 POP POP JUMP JUMPDEST PUSH1 0x0 DUP3 DUP3 MSTORE PUSH1 0x20 DUP3 ADD SWAP1 POP SWAP3 SWAP2 POP POP JUMP JUMPDEST PUSH32 0x416363657373436F6E74726F6C3A2063616E206F6E6C792072656E6F756E6365 PUSH1 0x0 DUP3 ADD MSTORE PUSH32 0x20726F6C657320666F722073656C660000000000000000000000000000000000 PUSH1 0x20 DUP3 ADD MSTORE POP JUMP JUMPDEST PUSH1 0x0 PUSH2 0x130A PUSH1 0x2F DUP4 PUSH2 0x129D JUMP JUMPDEST SWAP2 POP PUSH2 0x1315 DUP3 PUSH2 0x12AE JUMP JUMPDEST PUSH1 0x40 DUP3 ADD SWAP1 POP SWAP2 SWAP1 POP JUMP JUMPDEST PUSH1 0x0 PUSH1 0x20 DUP3 ADD SWAP1 POP DUP2 DUP2 SUB PUSH1 0x0 DUP4 ADD MSTORE PUSH2 0x1339 DUP2 PUSH2 0x12FD JUMP JUMPDEST SWAP1 POP SWAP2 SWAP1 POP JUMP JUMPDEST PUSH1 0x0 DUP2 SWAP1 POP SWAP2 SWAP1 POP JUMP JUMPDEST PUSH32 0x4E487B7100000000000000000000000000000000000000000000000000000000 PUSH1 0x0 MSTORE PUSH1 0x11 PUSH1 0x4 MSTORE PUSH1 0x24 PUSH1 0x0 REVERT JUMPDEST PUSH1 0x0 PUSH2 0x1384 DUP3 PUSH2 0x1340 JUMP JUMPDEST SWAP2 POP PUSH2 0x138F DUP4 PUSH2 0x1340 JUMP JUMPDEST SWAP3 POP DUP3 DUP3 SUB SWAP1 POP DUP2 DUP2 GT ISZERO PUSH2 0x13A7 JUMPI PUSH2 0x13A6 PUSH2 0x134A JUMP JUMPDEST JUMPDEST SWAP3 SWAP2 POP POP JUMP JUMPDEST PUSH32 0x4E487B7100000000000000000000000000000000000000000000000000000000 PUSH1 0x0 MSTORE PUSH1 0x32 PUSH1 0x4 MSTORE PUSH1 0x24 PUSH1 0x0 REVERT JUMPDEST PUSH1 0x0 PUSH2 0x13E7 DUP3 PUSH2 0x1340 JUMP JUMPDEST SWAP2 POP PUSH2 0x13F2 DUP4 PUSH2 0x1340 JUMP JUMPDEST SWAP3 POP DUP3 DUP3 ADD SWAP1 POP DUP1 DUP3 GT ISZERO PUSH2 0x140A JUMPI PUSH2 0x1409 PUSH2 0x134A JUMP JUMPDEST JUMPDEST SWAP3 SWAP2 POP POP JUMP JUMPDEST PUSH1 0x0 PUSH2 0x141B DUP3 PUSH2 0x1340 JUMP JUMPDEST SWAP2 POP PUSH32 0xFFFFFFFFFFFFFFFFFFFFFFFFFFFFFFFFFFFFFFFFFFFFFFFFFFFFFFFFFFFFFFFF DUP3 SUB PUSH2 0x144D JUMPI PUSH2 0x144C PUSH2 0x134A JUMP JUMPDEST JUMPDEST PUSH1 0x1 DUP3 ADD SWAP1 POP SWAP2 SWAP1 POP JUMP JUMPDEST PUSH32 0x4E487B7100000000000000000000000000000000000000000000000000000000 PUSH1 0x0 MSTORE PUSH1 0x31 PUSH1 0x4 MSTORE PUSH1 0x24 PUSH1 0x0 REVERT JUMPDEST PUSH32 0x4F776E61626C653A206E6577206F776E657220697320746865207A65726F2061 PUSH1 0x0 DUP3 ADD MSTORE PUSH32 0x6464726573730000000000000000000000000000000000000000000000000000 PUSH1 0x20 DUP3 ADD MSTORE POP JUMP JUMPDEST PUSH1 0x0 PUSH2 0x14E3 PUSH1 0x26 DUP4 PUSH2 0x129D JUMP JUMPDEST SWAP2 POP PUSH2 0x14EE DUP3 PUSH2 0x1487 JUMP JUMPDEST PUSH1 0x40 DUP3 ADD SWAP1 POP SWAP2 SWAP1 POP JUMP JUMPDEST PUSH1 0x0 PUSH1 0x20 DUP3 ADD SWAP1 POP DUP2 DUP2 SUB PUSH1 0x0 DUP4 ADD MSTORE PUSH2 0x1512 DUP2 PUSH2 0x14D6 JUMP JUMPDEST SWAP1 POP SWAP2 SWAP1 POP JUMP JUMPDEST PUSH32 0x4F776E61626C653A2063616C6C6572206973206E6F7420746865206F776E6572 PUSH1 0x0 DUP3 ADD MSTORE POP JUMP JUMPDEST PUSH1 0x0 PUSH2 0x154F PUSH1 0x20 DUP4 PUSH2 0x129D JUMP JUMPDEST SWAP2 POP PUSH2 0x155A DUP3 PUSH2 0x1519 JUMP JUMPDEST PUSH1 0x20 DUP3 ADD SWAP1 POP SWAP2 SWAP1 POP JUMP JUMPDEST PUSH1 0x0 PUSH1 0x20 DUP3 ADD SWAP1 POP DUP2 DUP2 SUB PUSH1 0x0 DUP4 ADD MSTORE PUSH2 0x157E DUP2 PUSH2 0x1542 JUMP JUMPDEST SWAP1 POP SWAP2 SWAP1 POP JUMP JUMPDEST PUSH1 0x0 DUP2 SWAP1 POP SWAP3 SWAP2 POP POP JUMP JUMPDEST PUSH32 0x416363657373436F6E74726F6C3A206163636F756E7420000000000000000000 PUSH1 0x0 DUP3 ADD MSTORE POP JUMP JUMPDEST PUSH1 0x0 PUSH2 0x15C6 PUSH1 0x17 DUP4 PUSH2 0x1585 JUMP JUMPDEST SWAP2 POP PUSH2 0x15D1 DUP3 PUSH2 0x1590 JUMP JUMPDEST PUSH1 0x17 DUP3 ADD SWAP1 POP SWAP2 SWAP1 POP JUMP JUMPDEST PUSH1 0x0 DUP2 MLOAD SWAP1 POP SWAP2 SWAP1 POP JUMP JUMPDEST PUSH1 0x0 JUMPDEST DUP4 DUP2 LT ISZERO PUSH2 0x1605 JUMPI DUP1 DUP3 ADD MLOAD DUP2 DUP5 ADD MSTORE PUSH1 0x20 DUP2 ADD SWAP1 POP PUSH2 0x15EA JUMP JUMPDEST PUSH1 0x0 DUP5 DUP5 ADD MSTORE POP POP POP POP JUMP JUMPDEST PUSH1 0x0 PUSH2 0x161C DUP3 PUSH2 0x15DC JUMP JUMPDEST PUSH2 0x1626 DUP2 DUP6 PUSH2 0x1585 JUMP JUMPDEST SWAP4 POP PUSH2 0x1636 DUP2 DUP6 PUSH1 0x20 DUP7 ADD PUSH2 0x15E7 JUMP JUMPDEST DUP1 DUP5 ADD SWAP2 POP POP SWAP3 SWAP2 POP POP JUMP JUMPDEST PUSH32 0x206973206D697373696E6720726F6C6520000000000000000000000000000000 PUSH1 0x0 DUP3 ADD MSTORE POP JUMP JUMPDEST PUSH1 0x0 PUSH2 0x1678 PUSH1 0x11 DUP4 PUSH2 0x1585 JUMP JUMPDEST SWAP2 POP PUSH2 0x1683 DUP3 PUSH2 0x1642 JUMP JUMPDEST PUSH1 0x11 DUP3 ADD SWAP1 POP SWAP2 SWAP1 POP JUMP JUMPDEST PUSH1 0x0 PUSH2 0x1699 DUP3 PUSH2 0x15B9 JUMP JUMPDEST SWAP2 POP PUSH2 0x16A5 DUP3 DUP6 PUSH2 0x1611 JUMP JUMPDEST SWAP2 POP PUSH2 0x16B0 DUP3 PUSH2 0x166B JUMP JUMPDEST SWAP2 POP PUSH2 0x16BC DUP3 DUP5 PUSH2 0x1611 JUMP JUMPDEST SWAP2 POP DUP2 SWAP1 POP SWAP4 SWAP3 POP POP POP JUMP JUMPDEST PUSH1 0x0 PUSH1 0x1F NOT PUSH1 0x1F DUP4 ADD AND SWAP1 POP SWAP2 SWAP1 POP JUMP JUMPDEST PUSH1 0x0 PUSH2 0x16E4 DUP3 PUSH2 0x15DC JUMP JUMPDEST PUSH2 0x16EE DUP2 DUP6 PUSH2 0x129D JUMP JUMPDEST SWAP4 POP PUSH2 0x16FE DUP2 DUP6 PUSH1 0x20 DUP7 ADD PUSH2 0x15E7 JUMP JUMPDEST PUSH2 0x1707 DUP2 PUSH2 0x16C8 JUMP JUMPDEST DUP5 ADD SWAP2 POP POP SWAP3 SWAP2 POP POP JUMP JUMPDEST PUSH1 0x0 PUSH1 0x20 DUP3 ADD SWAP1 POP DUP2 DUP2 SUB PUSH1 0x0 DUP4 ADD MSTORE PUSH2 0x172C DUP2 DUP5 PUSH2 0x16D9 JUMP JUMPDEST SWAP1 POP SWAP3 SWAP2 POP POP JUMP JUMPDEST PUSH1 0x0 PUSH2 0x173F DUP3 PUSH2 0x1340 JUMP JUMPDEST SWAP2 POP PUSH2 0x174A DUP4 PUSH2 0x1340 JUMP JUMPDEST SWAP3 POP DUP3 DUP3 MUL PUSH2 0x1758 DUP2 PUSH2 0x1340 JUMP JUMPDEST SWAP2 POP DUP3 DUP3 DIV DUP5 EQ DUP4 ISZERO OR PUSH2 0x176F JUMPI PUSH2 0x176E PUSH2 0x134A JUMP JUMPDEST JUMPDEST POP SWAP3 SWAP2 POP POP JUMP JUMPDEST PUSH32 0x4E487B7100000000000000000000000000000000000000000000000000000000 PUSH1 0x0 MSTORE PUSH1 0x41 PUSH1 0x4 MSTORE PUSH1 0x24 PUSH1 0x0 REVERT JUMPDEST PUSH1 0x0 PUSH2 0x17B0 DUP3 PUSH2 0x1340 JUMP JUMPDEST SWAP2 POP PUSH1 0x0 DUP3 SUB PUSH2 0x17C3 JUMPI PUSH2 0x17C2 PUSH2 0x134A JUMP JUMPDEST JUMPDEST PUSH1 0x1 DUP3 SUB SWAP1 POP SWAP2 SWAP1 POP JUMP JUMPDEST PUSH32 0x537472696E67733A20686578206C656E67746820696E73756666696369656E74 PUSH1 0x0 DUP3 ADD MSTORE POP JUMP JUMPDEST PUSH1 0x0 PUSH2 0x1804 PUSH1 0x20 DUP4 PUSH2 0x129D JUMP JUMPDEST SWAP2 POP PUSH2 0x180F DUP3 PUSH2 0x17CE JUMP JUMPDEST PUSH1 0x20 DUP3 ADD SWAP1 POP SWAP2 SWAP1 POP JUMP JUMPDEST PUSH1 0x0 PUSH1 0x20 DUP3 ADD SWAP1 POP DUP2 DUP2 SUB PUSH1 0x0 DUP4 ADD MSTORE PUSH2 0x1833 DUP2 PUSH2 0x17F7 JUMP JUMPDEST SWAP1 POP SWAP2 SWAP1 POP JUMP INVALID LOG2 PUSH5 0x6970667358 0x22 SLT KECCAK256 SIGNEXTEND SWAP8 DELEGATECALL NOT DUP10 PREVRANDAO 0x2F STATICCALL EXTCODEHASH PUSH6 0x14F574B6DB57 0xE2 0xD2 PUSH19 0xEDDD6224DB358E55BB3F8E06C864736F6C6343 STOP ADDMOD SLT STOP CALLER "
				},
				"gasEstimates": {
					"creation": {
						"codeDepositCost": "1251200",
						"executionCost": "infinite",
						"totalCost": "infinite"
					},
					"external": {
						"DEFAULT_ADMIN_ROLE()": "379",
						"getRoleAdmin(bytes32)": "infinite",
						"hasRole(bytes32,address)": "3162",
						"isAccess(address)": "infinite",
						"owner()": "2522",
						"register(address)": "infinite",
						"renounceRole(bytes32,address)": "33756",
						"revokeRole_Doctor(address,address)": "infinite",
						"setupRole_Doctor(address,address)": "infinite",
						"supportsInterface(bytes4)": "639",
						"transferOwnership(address)": "32963"
					}
				},
				"methodIdentifiers": {
					"DEFAULT_ADMIN_ROLE()": "a217fddf",
					"getRoleAdmin(bytes32)": "248a9ca3",
					"hasRole(bytes32,address)": "91d14854",
					"isAccess(address)": "a8f2be76",
					"owner()": "8da5cb5b",
					"register(address)": "4420e486",
					"renounceRole(bytes32,address)": "36568abe",
					"revokeRole_Doctor(address,address)": "4cc2f081",
					"setupRole_Doctor(address,address)": "ac0cc465",
					"supportsInterface(bytes4)": "01ffc9a7",
					"transferOwnership(address)": "f2fde38b"
				}
			},
			"storageLayout": {
				"storage": [
					{
						"astId": 216,
						"contract": "Patient.sol:Patient",
						"label": "_owner",
						"offset": 0,
						"slot": "0",
						"type": "t_address"
					},
					{
						"astId": 372,
						"contract": "Patient.sol:Patient",
						"label": "_roles",
						"offset": 0,
						"slot": "1",
						"type": "t_mapping(t_bytes32,t_struct(RoleData)367_storage)"
					},
					{
						"astId": 377,
						"contract": "Patient.sol:Patient",
						"label": "admin",
						"offset": 0,
						"slot": "2",
						"type": "t_address"
					},
					{
						"astId": 10,
						"contract": "Patient.sol:Patient",
						"label": "docs",
						"offset": 0,
						"slot": "3",
						"type": "t_array(t_address)dyn_storage"
					}
				],
				"types": {
					"t_address": {
						"encoding": "inplace",
						"label": "address",
						"numberOfBytes": "20"
					},
					"t_array(t_address)dyn_storage": {
						"base": "t_address",
						"encoding": "dynamic_array",
						"label": "address[]",
						"numberOfBytes": "32"
					},
					"t_bool": {
						"encoding": "inplace",
						"label": "bool",
						"numberOfBytes": "1"
					},
					"t_bytes32": {
						"encoding": "inplace",
						"label": "bytes32",
						"numberOfBytes": "32"
					},
					"t_mapping(t_address,t_bool)": {
						"encoding": "mapping",
						"key": "t_address",
						"label": "mapping(address => bool)",
						"numberOfBytes": "32",
						"value": "t_bool"
					},
					"t_mapping(t_bytes32,t_struct(RoleData)367_storage)": {
						"encoding": "mapping",
						"key": "t_bytes32",
						"label": "mapping(bytes32 => struct AccessControl.RoleData)",
						"numberOfBytes": "32",
						"value": "t_struct(RoleData)367_storage"
					},
					"t_struct(RoleData)367_storage": {
						"encoding": "inplace",
						"label": "struct AccessControl.RoleData",
						"members": [
							{
								"astId": 364,
								"contract": "Patient.sol:Patient",
								"label": "members",
								"offset": 0,
								"slot": "0",
								"type": "t_mapping(t_address,t_bool)"
							},
							{
								"astId": 366,
								"contract": "Patient.sol:Patient",
								"label": "adminRole",
								"offset": 0,
								"slot": "1",
								"type": "t_bytes32"
							}
						],
						"numberOfBytes": "64"
					}
				}
			},
			"userdoc": {
				"kind": "user",
				"methods": {},
				"version": 1
			}
		}
	}
}