{
	"Patients/Patient.sol": {
		"Patient": {
			"abi": [
				{
					"inputs": [],
					"stateMutability": "nonpayable",
					"type": "constructor"
				},
				{
					"inputs": [
						{
							"internalType": "uint256",
							"name": "value",
							"type": "uint256"
						},
						{
							"internalType": "uint256",
							"name": "length",
							"type": "uint256"
						}
					],
					"name": "StringsInsufficientHexLength",
					"type": "error"
				},
				{
					"anonymous": false,
					"inputs": [
						{
							"indexed": true,
							"internalType": "address",
							"name": "previousOwner",
							"type": "address"
						},
						{
							"indexed": true,
							"internalType": "address",
							"name": "newOwner",
							"type": "address"
						}
					],
					"name": "OwnershipTransferred",
					"type": "event"
				},
				{
					"anonymous": false,
					"inputs": [
						{
							"indexed": true,
							"internalType": "bytes32",
							"name": "role",
							"type": "bytes32"
						},
						{
							"indexed": true,
							"internalType": "bytes32",
							"name": "previousAdminRole",
							"type": "bytes32"
						},
						{
							"indexed": true,
							"internalType": "bytes32",
							"name": "newAdminRole",
							"type": "bytes32"
						}
					],
					"name": "RoleAdminChanged",
					"type": "event"
				},
				{
					"anonymous": false,
					"inputs": [
						{
							"indexed": true,
							"internalType": "bytes32",
							"name": "role",
							"type": "bytes32"
						},
						{
							"indexed": true,
							"internalType": "address",
							"name": "account",
							"type": "address"
						},
						{
							"indexed": true,
							"internalType": "address",
							"name": "sender",
							"type": "address"
						}
					],
					"name": "RoleGranted",
					"type": "event"
				},
				{
					"anonymous": false,
					"inputs": [
						{
							"indexed": true,
							"internalType": "bytes32",
							"name": "role",
							"type": "bytes32"
						},
						{
							"indexed": true,
							"internalType": "address",
							"name": "account",
							"type": "address"
						},
						{
							"indexed": true,
							"internalType": "address",
							"name": "sender",
							"type": "address"
						}
					],
					"name": "RoleRevoked",
					"type": "event"
				},
				{
					"inputs": [],
					"name": "DEFAULT_ADMIN_ROLE",
					"outputs": [
						{
							"internalType": "bytes32",
							"name": "",
							"type": "bytes32"
						}
					],
					"stateMutability": "view",
					"type": "function"
				},
				{
					"inputs": [
						{
							"internalType": "bytes32",
							"name": "role",
							"type": "bytes32"
						}
					],
					"name": "getRoleAdmin",
					"outputs": [
						{
							"internalType": "bytes32",
							"name": "",
							"type": "bytes32"
						}
					],
					"stateMutability": "view",
					"type": "function"
				},
				{
					"inputs": [
						{
							"internalType": "bytes32",
							"name": "role",
							"type": "bytes32"
						},
						{
							"internalType": "address",
							"name": "account",
							"type": "address"
						}
					],
					"name": "hasRole",
					"outputs": [
						{
							"internalType": "bool",
							"name": "",
							"type": "bool"
						}
					],
					"stateMutability": "view",
					"type": "function"
				},
				{
					"inputs": [
						{
							"internalType": "address",
							"name": "_doctor",
							"type": "address"
						}
					],
					"name": "isAccess",
					"outputs": [
						{
							"internalType": "bool",
							"name": "",
							"type": "bool"
						}
					],
					"stateMutability": "view",
					"type": "function"
				},
				{
					"inputs": [],
					"name": "owner",
					"outputs": [
						{
							"internalType": "address",
							"name": "",
							"type": "address"
						}
					],
					"stateMutability": "view",
					"type": "function"
				},
				{
					"inputs": [
						{
							"internalType": "address",
							"name": "_patient",
							"type": "address"
						}
					],
					"name": "register",
					"outputs": [],
					"stateMutability": "nonpayable",
					"type": "function"
				},
				{
					"inputs": [
						{
							"internalType": "bytes32",
							"name": "role",
							"type": "bytes32"
						},
						{
							"internalType": "address",
							"name": "account",
							"type": "address"
						}
					],
					"name": "renounceRole",
					"outputs": [],
					"stateMutability": "nonpayable",
					"type": "function"
				},
				{
					"inputs": [
						{
							"internalType": "address",
							"name": "_patient",
							"type": "address"
						},
						{
							"internalType": "address",
							"name": "_doctor",
							"type": "address"
						}
					],
					"name": "revokeRole_Doctor",
					"outputs": [],
					"stateMutability": "nonpayable",
					"type": "function"
				},
				{
					"inputs": [
						{
							"internalType": "address",
							"name": "_patient",
							"type": "address"
						},
						{
							"internalType": "address",
							"name": "_doctor",
							"type": "address"
						}
					],
					"name": "setupRole_Doctor",
					"outputs": [],
					"stateMutability": "nonpayable",
					"type": "function"
				},
				{
					"inputs": [
						{
							"internalType": "bytes4",
							"name": "interfaceId",
							"type": "bytes4"
						}
					],
					"name": "supportsInterface",
					"outputs": [
						{
							"internalType": "bool",
							"name": "",
							"type": "bool"
						}
					],
					"stateMutability": "view",
					"type": "function"
				},
				{
					"inputs": [
						{
							"internalType": "address",
							"name": "_newOwner",
							"type": "address"
						}
					],
					"name": "transferOwnership",
					"outputs": [],
					"stateMutability": "nonpayable",
					"type": "function"
				}
			],
			"devdoc": {
				"errors": {
					"StringsInsufficientHexLength(uint256,uint256)": [
						{
							"details": "The `value` string doesn't fit in the specified `length`."
						}
					]
				},
				"events": {
					"RoleAdminChanged(bytes32,bytes32,bytes32)": {
						"details": "Emitted when `newAdminRole` is set as ``role``'s admin role, replacing `previousAdminRole` `DEFAULT_ADMIN_ROLE` is the starting admin for all roles, despite {RoleAdminChanged} not being emitted signaling this. _Available since v3.1._"
					},
					"RoleGranted(bytes32,address,address)": {
						"details": "Emitted when `account` is granted `role`. `sender` is the account that originated the contract call, an admin role bearer except when using {AccessControl-_setupRole}."
					},
					"RoleRevoked(bytes32,address,address)": {
						"details": "Emitted when `account` is revoked `role`. `sender` is the account that originated the contract call:   - if using `revokeRole`, it is the admin role bearer   - if using `renounceRole`, it is the role bearer (i.e. `account`)"
					}
				},
				"kind": "dev",
				"methods": {
					"getRoleAdmin(bytes32)": {
						"details": "Returns the admin role that controls `role`. See {grantRole} and {revokeRole}. To change a role's admin, use {_setRoleAdmin}."
					},
					"hasRole(bytes32,address)": {
						"details": "Returns `true` if `account` has been granted `role`."
					},
					"renounceRole(bytes32,address)": {
						"details": "Revokes `role` from the calling account. Roles are often managed via {grantRole} and {revokeRole}: this function's purpose is to provide a mechanism for accounts to lose their privileges if they are compromised (such as when a trusted device is misplaced). If the calling account had been revoked `role`, emits a {RoleRevoked} event. Requirements: - the caller must be `account`. May emit a {RoleRevoked} event."
					},
					"supportsInterface(bytes4)": {
						"details": "See {IERC165-supportsInterface}."
					}
				},
				"version": 1
			},
			"evm": {
				"assembly": "    /* \"Patients/Patient.sol\":735:3861  contract Patient is Owner, AccessControl ... */\n  mstore(0x40, 0x80)\n    /* \"Patients/Patient.sol\":1326:1360  constructor() Owner(msg.sender) {} */\n  callvalue\n  dup1\n  iszero\n  tag_1\n  jumpi\n  0x00\n  dup1\n  revert\ntag_1:\n  pop\n    /* \"Patients/Patient.sol\":1346:1356  msg.sender */\n  caller\n    /* \"Patients/access/Owner.sol\":448:477  _transferOwnership(_newOwner) */\n  tag_5\n    /* \"Patients/access/Owner.sol\":467:476  _newOwner */\n  dup2\n    /* \"Patients/access/Owner.sol\":448:466  _transferOwnership */\n  shl(0x20, tag_6)\n    /* \"Patients/access/Owner.sol\":448:477  _transferOwnership(_newOwner) */\n  0x20\n  shr\n  jump\t// in\ntag_5:\n    /* \"Patients/access/Owner.sol\":400:485  constructor(address _newOwner) ... */\n  pop\n    /* \"Patients/Patient.sol\":735:3861  contract Patient is Owner, AccessControl ... */\n  jump(tag_8)\n    /* \"Patients/access/Owner.sol\":980:1172  function _transferOwnership(address _newOwner) private  ... */\ntag_6:\n    /* \"Patients/access/Owner.sol\":1053:1069  address oldOwner */\n  0x00\n    /* \"Patients/access/Owner.sol\":1072:1078  _owner */\n  dup1\n  0x00\n  swap1\n  sload\n  swap1\n  0x0100\n  exp\n  swap1\n  div\n  0xffffffffffffffffffffffffffffffffffffffff\n  and\n    /* \"Patients/access/Owner.sol\":1053:1078  address oldOwner = _owner */\n  swap1\n  pop\n    /* \"Patients/access/Owner.sol\":1098:1107  _newOwner */\n  dup2\n    /* \"Patients/access/Owner.sol\":1089:1095  _owner */\n  0x00\n  dup1\n    /* \"Patients/access/Owner.sol\":1089:1107  _owner = _newOwner */\n  0x0100\n  exp\n  dup2\n  sload\n  dup2\n  0xffffffffffffffffffffffffffffffffffffffff\n  mul\n  not\n  and\n  swap1\n  dup4\n  0xffffffffffffffffffffffffffffffffffffffff\n  and\n  mul\n  or\n  swap1\n  sstore\n  pop\n    /* \"Patients/access/Owner.sol\":1154:1163  _newOwner */\n  dup2\n    /* \"Patients/access/Owner.sol\":1123:1164  OwnershipTransferred(oldOwner, _newOwner) */\n  0xffffffffffffffffffffffffffffffffffffffff\n  and\n    /* \"Patients/access/Owner.sol\":1144:1152  oldOwner */\n  dup2\n    /* \"Patients/access/Owner.sol\":1123:1164  OwnershipTransferred(oldOwner, _newOwner) */\n  0xffffffffffffffffffffffffffffffffffffffff\n  and\n  0x8be0079c531659141344cd1fd0a4f28419497f9722a3daafe3b4186f6b6457e0\n  mload(0x40)\n  mload(0x40)\n  dup1\n  swap2\n  sub\n  swap1\n  log3\n    /* \"Patients/access/Owner.sol\":1042:1172  {... */\n  pop\n    /* \"Patients/access/Owner.sol\":980:1172  function _transferOwnership(address _newOwner) private  ... */\n  pop\n  jump\t// out\n    /* \"Patients/Patient.sol\":735:3861  contract Patient is Owner, AccessControl ... */\ntag_8:\n  dataSize(sub_0)\n  dup1\n  dataOffset(sub_0)\n  0x00\n  codecopy\n  0x00\n  return\nstop\n\nsub_0: assembly {\n        /* \"Patients/Patient.sol\":735:3861  contract Patient is Owner, AccessControl ... */\n      mstore(0x40, 0x80)\n      callvalue\n      dup1\n      iszero\n      tag_1\n      jumpi\n      0x00\n      dup1\n      revert\n    tag_1:\n      pop\n      jumpi(tag_2, lt(calldatasize, 0x04))\n      shr(0xe0, calldataload(0x00))\n      dup1\n      0x8da5cb5b\n      gt\n      tag_14\n      jumpi\n      dup1\n      0x8da5cb5b\n      eq\n      tag_8\n      jumpi\n      dup1\n      0x91d14854\n      eq\n      tag_9\n      jumpi\n      dup1\n      0xa217fddf\n      eq\n      tag_10\n      jumpi\n      dup1\n      0xa8f2be76\n      eq\n      tag_11\n      jumpi\n      dup1\n      0xac0cc465\n      eq\n      tag_12\n      jumpi\n      dup1\n      0xf2fde38b\n      eq\n      tag_13\n      jumpi\n      jump(tag_2)\n    tag_14:\n      dup1\n      0x01ffc9a7\n      eq\n      tag_3\n      jumpi\n      dup1\n      0x248a9ca3\n      eq\n      tag_4\n      jumpi\n      dup1\n      0x36568abe\n      eq\n      tag_5\n      jumpi\n      dup1\n      0x4420e486\n      eq\n      tag_6\n      jumpi\n      dup1\n      0x4cc2f081\n      eq\n      tag_7\n      jumpi\n    tag_2:\n      0x00\n      dup1\n      revert\n        /* \"github.com/OpenZeppelin/openzeppelin-contracts/blob/master/contracts/utils/introspection/ERC165.sol\":763:909  function supportsInterface(bytes4 interfaceId) public view virtual returns (bool) {... */\n    tag_3:\n      tag_15\n      0x04\n      dup1\n      calldatasize\n      sub\n      dup2\n      add\n      swap1\n      tag_16\n      swap2\n      swap1\n      tag_17\n      jump\t// in\n    tag_16:\n      tag_18\n      jump\t// in\n    tag_15:\n      mload(0x40)\n      tag_19\n      swap2\n      swap1\n      tag_20\n      jump\t// in\n    tag_19:\n      mload(0x40)\n      dup1\n      swap2\n      sub\n      swap1\n      return\n        /* \"Patients/access/Roles.sol\":5871:5993  function getRoleAdmin(bytes32 role) public view virtual returns (bytes32) {... */\n    tag_4:\n      tag_21\n      0x04\n      dup1\n      calldatasize\n      sub\n      dup2\n      add\n      swap1\n      tag_22\n      swap2\n      swap1\n      tag_23\n      jump\t// in\n    tag_22:\n      tag_24\n      jump\t// in\n    tag_21:\n      mload(0x40)\n      tag_25\n      swap2\n      swap1\n      tag_26\n      jump\t// in\n    tag_25:\n      mload(0x40)\n      dup1\n      swap2\n      sub\n      swap1\n      return\n        /* \"Patients/access/Roles.sol\":7445:7651  function renounceRole(bytes32 role, address account) public virtual ... */\n    tag_5:\n      tag_27\n      0x04\n      dup1\n      calldatasize\n      sub\n      dup2\n      add\n      swap1\n      tag_28\n      swap2\n      swap1\n      tag_29\n      jump\t// in\n    tag_28:\n      tag_30\n      jump\t// in\n    tag_27:\n      stop\n        /* \"Patients/Patient.sol\":1486:1660  function register(address _patient) external ... */\n    tag_6:\n      tag_31\n      0x04\n      dup1\n      calldatasize\n      sub\n      dup2\n      add\n      swap1\n      tag_32\n      swap2\n      swap1\n      tag_33\n      jump\t// in\n    tag_32:\n      tag_34\n      jump\t// in\n    tag_31:\n      stop\n        /* \"Patients/Patient.sol\":3288:3859  function revokeRole_Doctor(address _patient, address _doctor) external onlyOwner(_patient)... */\n    tag_7:\n      tag_35\n      0x04\n      dup1\n      calldatasize\n      sub\n      dup2\n      add\n      swap1\n      tag_36\n      swap2\n      swap1\n      tag_37\n      jump\t// in\n    tag_36:\n      tag_38\n      jump\t// in\n    tag_35:\n      stop\n        /* \"Patients/access/Owner.sol\":653:746  function owner() public view virtual returns (address) ... */\n    tag_8:\n      tag_39\n      tag_40\n      jump\t// in\n    tag_39:\n      mload(0x40)\n      tag_41\n      swap2\n      swap1\n      tag_42\n      jump\t// in\n    tag_41:\n      mload(0x40)\n      dup1\n      swap2\n      sub\n      swap1\n      return\n        /* \"Patients/access/Roles.sol\":4340:4478  function hasRole(bytes32 role, address account) public view virtual returns (bool) {... */\n    tag_9:\n      tag_43\n      0x04\n      dup1\n      calldatasize\n      sub\n      dup2\n      add\n      swap1\n      tag_44\n      swap2\n      swap1\n      tag_29\n      jump\t// in\n    tag_44:\n      tag_45\n      jump\t// in\n    tag_43:\n      mload(0x40)\n      tag_46\n      swap2\n      swap1\n      tag_20\n      jump\t// in\n    tag_46:\n      mload(0x40)\n      dup1\n      swap2\n      sub\n      swap1\n      return\n        /* \"Patients/access/Roles.sol\":3281:3330  bytes32 public constant DEFAULT_ADMIN_ROLE = 0x00 */\n    tag_10:\n      tag_47\n      tag_48\n      jump\t// in\n    tag_47:\n      mload(0x40)\n      tag_49\n      swap2\n      swap1\n      tag_26\n      jump\t// in\n    tag_49:\n      mload(0x40)\n      dup1\n      swap2\n      sub\n      swap1\n      return\n        /* \"Patients/Patient.sol\":2802:2941  function isAccess(address _doctor) external view returns(bool)... */\n    tag_11:\n      tag_50\n      0x04\n      dup1\n      calldatasize\n      sub\n      dup2\n      add\n      swap1\n      tag_51\n      swap2\n      swap1\n      tag_33\n      jump\t// in\n    tag_51:\n      tag_52\n      jump\t// in\n    tag_50:\n      mload(0x40)\n      tag_53\n      swap2\n      swap1\n      tag_20\n      jump\t// in\n    tag_53:\n      mload(0x40)\n      dup1\n      swap2\n      sub\n      swap1\n      return\n        /* \"Patients/Patient.sol\":2947:3282  function setupRole_Doctor(address _patient, address _doctor) external onlyOwner(_patient)... */\n    tag_12:\n      tag_54\n      0x04\n      dup1\n      calldatasize\n      sub\n      dup2\n      add\n      swap1\n      tag_55\n      swap2\n      swap1\n      tag_37\n      jump\t// in\n    tag_55:\n      tag_56\n      jump\t// in\n    tag_54:\n      stop\n        /* \"Patients/access/Owner.sol\":754:972  function transferOwnership(address _newOwner) public virtual onlyOwner(_owner) ... */\n    tag_13:\n      tag_57\n      0x04\n      dup1\n      calldatasize\n      sub\n      dup2\n      add\n      swap1\n      tag_58\n      swap2\n      swap1\n      tag_33\n      jump\t// in\n    tag_58:\n      tag_59\n      jump\t// in\n    tag_57:\n      stop\n        /* \"github.com/OpenZeppelin/openzeppelin-contracts/blob/master/contracts/utils/introspection/ERC165.sol\":763:909  function supportsInterface(bytes4 interfaceId) public view virtual returns (bool) {... */\n    tag_18:\n        /* \"github.com/OpenZeppelin/openzeppelin-contracts/blob/master/contracts/utils/introspection/ERC165.sol\":839:843  bool */\n      0x00\n        /* \"github.com/OpenZeppelin/openzeppelin-contracts/blob/master/contracts/utils/introspection/ERC165.sol\":877:902  type(IERC165).interfaceId */\n      0x01ffc9a700000000000000000000000000000000000000000000000000000000\n        /* \"github.com/OpenZeppelin/openzeppelin-contracts/blob/master/contracts/utils/introspection/ERC165.sol\":862:902  interfaceId == type(IERC165).interfaceId */\n      not(0xffffffffffffffffffffffffffffffffffffffffffffffffffffffff)\n      and\n        /* \"github.com/OpenZeppelin/openzeppelin-contracts/blob/master/contracts/utils/introspection/ERC165.sol\":862:873  interfaceId */\n      dup3\n        /* \"github.com/OpenZeppelin/openzeppelin-contracts/blob/master/contracts/utils/introspection/ERC165.sol\":862:902  interfaceId == type(IERC165).interfaceId */\n      not(0xffffffffffffffffffffffffffffffffffffffffffffffffffffffff)\n      and\n      eq\n        /* \"github.com/OpenZeppelin/openzeppelin-contracts/blob/master/contracts/utils/introspection/ERC165.sol\":855:902  return interfaceId == type(IERC165).interfaceId */\n      swap1\n      pop\n        /* \"github.com/OpenZeppelin/openzeppelin-contracts/blob/master/contracts/utils/introspection/ERC165.sol\":763:909  function supportsInterface(bytes4 interfaceId) public view virtual returns (bool) {... */\n      swap2\n      swap1\n      pop\n      jump\t// out\n        /* \"Patients/access/Roles.sol\":5871:5993  function getRoleAdmin(bytes32 role) public view virtual returns (bytes32) {... */\n    tag_24:\n        /* \"Patients/access/Roles.sol\":5936:5943  bytes32 */\n      0x00\n        /* \"Patients/access/Roles.sol\":5963:5969  _roles */\n      0x01\n        /* \"Patients/access/Roles.sol\":5963:5975  _roles[role] */\n      0x00\n        /* \"Patients/access/Roles.sol\":5970:5974  role */\n      dup4\n        /* \"Patients/access/Roles.sol\":5963:5975  _roles[role] */\n      dup2\n      mstore\n      0x20\n      add\n      swap1\n      dup2\n      mstore\n      0x20\n      add\n      0x00\n      keccak256\n        /* \"Patients/access/Roles.sol\":5963:5985  _roles[role].adminRole */\n      0x01\n      add\n      sload\n        /* \"Patients/access/Roles.sol\":5956:5985  return _roles[role].adminRole */\n      swap1\n      pop\n        /* \"Patients/access/Roles.sol\":5871:5993  function getRoleAdmin(bytes32 role) public view virtual returns (bytes32) {... */\n      swap2\n      swap1\n      pop\n      jump\t// out\n        /* \"Patients/access/Roles.sol\":7445:7651  function renounceRole(bytes32 role, address account) public virtual ... */\n    tag_30:\n        /* \"Patients/access/Roles.sol\":7549:7554  admin */\n      0x02\n      0x00\n      swap1\n      sload\n      swap1\n      0x0100\n      exp\n      swap1\n      div\n      0xffffffffffffffffffffffffffffffffffffffff\n      and\n        /* \"Patients/access/Roles.sol\":7538:7554  account == admin */\n      0xffffffffffffffffffffffffffffffffffffffff\n      and\n        /* \"Patients/access/Roles.sol\":7538:7545  account */\n      dup2\n        /* \"Patients/access/Roles.sol\":7538:7554  account == admin */\n      0xffffffffffffffffffffffffffffffffffffffff\n      and\n      eq\n        /* \"Patients/access/Roles.sol\":7530:7606  require(account == admin, \"AccessControl: can only renounce roles for self\") */\n      tag_63\n      jumpi\n      mload(0x40)\n      0x08c379a000000000000000000000000000000000000000000000000000000000\n      dup2\n      mstore\n      0x04\n      add\n      tag_64\n      swap1\n      tag_65\n      jump\t// in\n    tag_64:\n      mload(0x40)\n      dup1\n      swap2\n      sub\n      swap1\n      revert\n    tag_63:\n        /* \"Patients/access/Roles.sol\":7617:7643  _revokeRole(role, account) */\n      tag_66\n        /* \"Patients/access/Roles.sol\":7629:7633  role */\n      dup3\n        /* \"Patients/access/Roles.sol\":7635:7642  account */\n      dup3\n        /* \"Patients/access/Roles.sol\":7617:7628  _revokeRole */\n      tag_67\n        /* \"Patients/access/Roles.sol\":7617:7643  _revokeRole(role, account) */\n      jump\t// in\n    tag_66:\n        /* \"Patients/access/Roles.sol\":7445:7651  function renounceRole(bytes32 role, address account) public virtual ... */\n      pop\n      pop\n      jump\t// out\n        /* \"Patients/Patient.sol\":1486:1660  function register(address _patient) external ... */\n    tag_34:\n        /* \"Patients/Patient.sol\":1546:1573  transferOwnership(_patient) */\n      tag_69\n        /* \"Patients/Patient.sol\":1564:1572  _patient */\n      dup2\n        /* \"Patients/Patient.sol\":1546:1563  transferOwnership */\n      tag_59\n        /* \"Patients/Patient.sol\":1546:1573  transferOwnership(_patient) */\n      jump\t// in\n    tag_69:\n        /* \"Patients/Patient.sol\":1583:1601  setAdmin(_patient) */\n      tag_70\n        /* \"Patients/Patient.sol\":1592:1600  _patient */\n      dup2\n        /* \"Patients/Patient.sol\":1583:1591  setAdmin */\n      tag_71\n        /* \"Patients/Patient.sol\":1583:1601  setAdmin(_patient) */\n      jump\t// in\n    tag_70:\n        /* \"Patients/Patient.sol\":1611:1651  _setupRole(DEFAULT_ADMIN_ROLE, _patient) */\n      tag_72\n        /* \"Patients/access/Roles.sol\":3326:3330  0x00 */\n      0x00\n        /* \"Patients/Patient.sol\":1622:1640  DEFAULT_ADMIN_ROLE */\n      dup1\n      shl\n        /* \"Patients/Patient.sol\":1642:1650  _patient */\n      dup3\n        /* \"Patients/Patient.sol\":1611:1621  _setupRole */\n      tag_73\n        /* \"Patients/Patient.sol\":1611:1651  _setupRole(DEFAULT_ADMIN_ROLE, _patient) */\n      jump\t// in\n    tag_72:\n        /* \"Patients/Patient.sol\":1486:1660  function register(address _patient) external ... */\n      pop\n      jump\t// out\n        /* \"Patients/Patient.sol\":3288:3859  function revokeRole_Doctor(address _patient, address _doctor) external onlyOwner(_patient)... */\n    tag_38:\n        /* \"Patients/Patient.sol\":3369:3377  _patient */\n      dup2\n        /* \"Patients/access/Owner.sol\":352:372  _checkOwner(_sender) */\n      tag_75\n        /* \"Patients/access/Owner.sol\":364:371  _sender */\n      dup2\n        /* \"Patients/access/Owner.sol\":352:363  _checkOwner */\n      tag_76\n        /* \"Patients/access/Owner.sol\":352:372  _checkOwner(_sender) */\n      jump\t// in\n    tag_75:\n        /* \"Patients/access/Roles.sol\":3326:3330  0x00 */\n      0x00\n        /* \"Patients/Patient.sol\":3396:3414  DEFAULT_ADMIN_ROLE */\n      dup1\n      shl\n        /* \"Patients/Patient.sol\":3416:3424  _patient */\n      dup4\n        /* \"Patients/access/Roles.sol\":3925:3948  _checkRole(role,sender) */\n      tag_78\n        /* \"Patients/access/Roles.sol\":3936:3940  role */\n      dup3\n        /* \"Patients/access/Roles.sol\":3941:3947  sender */\n      dup3\n        /* \"Patients/access/Roles.sol\":3925:3935  _checkRole */\n      tag_79\n        /* \"Patients/access/Roles.sol\":3925:3948  _checkRole(role,sender) */\n      jump\t// in\n    tag_78:\n        /* \"Patients/Patient.sol\":3440:3447  int pos */\n      0x00\n        /* \"Patients/Patient.sol\":3450:3452  -1 */\n      0xffffffffffffffffffffffffffffffffffffffffffffffffffffffffffffffff\n        /* \"Patients/Patient.sol\":3440:3452  int pos = -1 */\n      swap1\n      pop\n        /* \"Patients/Patient.sol\":3462:3487  string memory addr_doctor */\n      0x00\n        /* \"Patients/Patient.sol\":3490:3515  _addressToString(_doctor) */\n      tag_81\n        /* \"Patients/Patient.sol\":3507:3514  _doctor */\n      dup7\n        /* \"Patients/Patient.sol\":3490:3506  _addressToString */\n      tag_82\n        /* \"Patients/Patient.sol\":3490:3515  _addressToString(_doctor) */\n      jump\t// in\n    tag_81:\n        /* \"Patients/Patient.sol\":3462:3515  string memory addr_doctor = _addressToString(_doctor) */\n      swap1\n      pop\n        /* \"Patients/Patient.sol\":3529:3538  uint256 i */\n      0x00\n        /* \"Patients/Patient.sol\":3525:3833  for(uint256 i=0;i<docs.length-1;i++)... */\n    tag_83:\n        /* \"Patients/Patient.sol\":3555:3556  1 */\n      0x01\n        /* \"Patients/Patient.sol\":3543:3547  docs */\n      0x03\n        /* \"Patients/Patient.sol\":3543:3554  docs.length */\n      dup1\n      sload\n      swap1\n      pop\n        /* \"Patients/Patient.sol\":3543:3556  docs.length-1 */\n      tag_86\n      swap2\n      swap1\n      tag_87\n      jump\t// in\n    tag_86:\n        /* \"Patients/Patient.sol\":3541:3542  i */\n      dup2\n        /* \"Patients/Patient.sol\":3541:3556  i<docs.length-1 */\n      lt\n        /* \"Patients/Patient.sol\":3525:3833  for(uint256 i=0;i<docs.length-1;i++)... */\n      iszero\n      tag_84\n      jumpi\n        /* \"Patients/Patient.sol\":3584:3596  bool isEqual */\n      0x00\n        /* \"Patients/Patient.sol\":3671:3675  docs */\n      0x03\n        /* \"Patients/Patient.sol\":3676:3677  i */\n      dup3\n        /* \"Patients/Patient.sol\":3671:3678  docs[i] */\n      dup2\n      sload\n      dup2\n      lt\n      tag_88\n      jumpi\n      tag_89\n      tag_90\n      jump\t// in\n    tag_89:\n    tag_88:\n      swap1\n      0x00\n      mstore\n      keccak256(0x00, 0x20)\n      add\n        /* \"Patients/Patient.sol\":3654:3679  abi.encodePacked(docs[i]) */\n      add(0x20, mload(0x40))\n      tag_92\n      swap2\n      swap1\n      tag_93\n      jump\t// in\n    tag_92:\n      mload(0x40)\n      0x20\n      dup2\n      dup4\n      sub\n      sub\n      dup2\n      mstore\n      swap1\n      0x40\n      mstore\n        /* \"Patients/Patient.sol\":3644:3680  keccak256(abi.encodePacked(docs[i])) */\n      dup1\n      mload\n      swap1\n      0x20\n      add\n      keccak256\n        /* \"Patients/Patient.sol\":3627:3638  addr_doctor */\n      dup4\n        /* \"Patients/Patient.sol\":3610:3639  abi.encodePacked(addr_doctor) */\n      add(0x20, mload(0x40))\n      tag_94\n      swap2\n      swap1\n      tag_95\n      jump\t// in\n    tag_94:\n      mload(0x40)\n      0x20\n      dup2\n      dup4\n      sub\n      sub\n      dup2\n      mstore\n      swap1\n      0x40\n      mstore\n        /* \"Patients/Patient.sol\":3600:3640  keccak256(abi.encodePacked(addr_doctor)) */\n      dup1\n      mload\n      swap1\n      0x20\n      add\n      keccak256\n        /* \"Patients/Patient.sol\":3600:3680  keccak256(abi.encodePacked(addr_doctor)) == keccak256(abi.encodePacked(docs[i])) */\n      eq\n        /* \"Patients/Patient.sol\":3584:3681  bool isEqual = (keccak256(abi.encodePacked(addr_doctor)) == keccak256(abi.encodePacked(docs[i]))) */\n      swap1\n      pop\n        /* \"Patients/Patient.sol\":3705:3707  -1 */\n      0xffffffffffffffffffffffffffffffffffffffffffffffffffffffffffffffff\n        /* \"Patients/Patient.sol\":3698:3701  pos */\n      dup5\n        /* \"Patients/Patient.sol\":3698:3707  pos == -1 */\n      eq\n        /* \"Patients/Patient.sol\":3698:3726  pos == -1 && isEqual == true */\n      dup1\n      iszero\n      tag_96\n      jumpi\n      pop\n        /* \"Patients/Patient.sol\":3722:3726  true */\n      0x01\n        /* \"Patients/Patient.sol\":3711:3726  isEqual == true */\n      iszero\n      iszero\n        /* \"Patients/Patient.sol\":3711:3718  isEqual */\n      dup2\n        /* \"Patients/Patient.sol\":3711:3726  isEqual == true */\n      iszero\n      iszero\n      eq\n        /* \"Patients/Patient.sol\":3698:3726  pos == -1 && isEqual == true */\n    tag_96:\n        /* \"Patients/Patient.sol\":3695:3756  if(pos == -1 && isEqual == true)... */\n      iszero\n      tag_97\n      jumpi\n        /* \"Patients/Patient.sol\":3754:3755  i */\n      dup2\n        /* \"Patients/Patient.sol\":3744:3756  pos = int(i) */\n      swap4\n      pop\n        /* \"Patients/Patient.sol\":3695:3756  if(pos == -1 && isEqual == true)... */\n    tag_97:\n        /* \"Patients/Patient.sol\":3783:3785  -1 */\n      0xffffffffffffffffffffffffffffffffffffffffffffffffffffffffffffffff\n        /* \"Patients/Patient.sol\":3778:3781  pos */\n      dup5\n        /* \"Patients/Patient.sol\":3778:3785  pos!=-1 */\n      eq\n        /* \"Patients/Patient.sol\":3775:3822  if(pos!=-1)... */\n      tag_98\n      jumpi\n        /* \"Patients/Patient.sol\":3813:3817  docs */\n      0x03\n        /* \"Patients/Patient.sol\":3820:3821  1 */\n      0x01\n        /* \"Patients/Patient.sol\":3818:3819  i */\n      dup4\n        /* \"Patients/Patient.sol\":3818:3821  i+1 */\n      tag_99\n      swap2\n      swap1\n      tag_100\n      jump\t// in\n    tag_99:\n        /* \"Patients/Patient.sol\":3813:3822  docs[i+1] */\n      dup2\n      sload\n      dup2\n      lt\n      tag_101\n      jumpi\n      tag_102\n      tag_90\n      jump\t// in\n    tag_102:\n    tag_101:\n      swap1\n      0x00\n      mstore\n      keccak256(0x00, 0x20)\n      add\n        /* \"Patients/Patient.sol\":3803:3807  docs */\n      0x03\n        /* \"Patients/Patient.sol\":3808:3809  i */\n      dup4\n        /* \"Patients/Patient.sol\":3803:3810  docs[i] */\n      dup2\n      sload\n      dup2\n      lt\n      tag_104\n      jumpi\n      tag_105\n      tag_90\n      jump\t// in\n    tag_105:\n    tag_104:\n      swap1\n      0x00\n      mstore\n      keccak256(0x00, 0x20)\n      add\n        /* \"Patients/Patient.sol\":3803:3822  docs[i] = docs[i+1] */\n      swap1\n      dup2\n      tag_107\n      swap2\n      swap1\n      tag_108\n      jump\t// in\n    tag_107:\n      pop\n        /* \"Patients/Patient.sol\":3775:3822  if(pos!=-1)... */\n    tag_98:\n        /* \"Patients/Patient.sol\":3570:3833  {... */\n      pop\n        /* \"Patients/Patient.sol\":3557:3560  i++ */\n      dup1\n      dup1\n      0x01\n      add\n      swap2\n      pop\n      pop\n        /* \"Patients/Patient.sol\":3525:3833  for(uint256 i=0;i<docs.length-1;i++)... */\n      jump(tag_83)\n    tag_84:\n      pop\n        /* \"Patients/Patient.sol\":3842:3846  docs */\n      0x03\n        /* \"Patients/Patient.sol\":3842:3852  docs.pop() */\n      dup1\n      sload\n      dup1\n      tag_109\n      jumpi\n      tag_110\n      tag_111\n      jump\t// in\n    tag_110:\n    tag_109:\n      0x01\n      swap1\n      sub\n      dup2\n      dup2\n      swap1\n      0x00\n      mstore\n      keccak256(0x00, 0x20)\n      add\n      0x00\n      tag_113\n      swap2\n      swap1\n      tag_114\n      jump\t// in\n    tag_113:\n      swap1\n      sstore\n        /* \"Patients/Patient.sol\":3430:3859  {... */\n      pop\n      pop\n        /* \"Patients/access/Owner.sol\":383:384  _ */\n      pop\n      pop\n        /* \"Patients/Patient.sol\":3288:3859  function revokeRole_Doctor(address _patient, address _doctor) external onlyOwner(_patient)... */\n      pop\n      pop\n      pop\n      jump\t// out\n        /* \"Patients/access/Owner.sol\":653:746  function owner() public view virtual returns (address) ... */\n    tag_40:\n        /* \"Patients/access/Owner.sol\":699:706  address */\n      0x00\n        /* \"Patients/access/Owner.sol\":732:738  _owner */\n      dup1\n      0x00\n      swap1\n      sload\n      swap1\n      0x0100\n      exp\n      swap1\n      div\n      0xffffffffffffffffffffffffffffffffffffffff\n      and\n        /* \"Patients/access/Owner.sol\":725:738  return _owner */\n      swap1\n      pop\n        /* \"Patients/access/Owner.sol\":653:746  function owner() public view virtual returns (address) ... */\n      swap1\n      jump\t// out\n        /* \"Patients/access/Roles.sol\":4340:4478  function hasRole(bytes32 role, address account) public view virtual returns (bool) {... */\n    tag_45:\n        /* \"Patients/access/Roles.sol\":4417:4421  bool */\n      0x00\n        /* \"Patients/access/Roles.sol\":4441:4447  _roles */\n      0x01\n        /* \"Patients/access/Roles.sol\":4441:4453  _roles[role] */\n      0x00\n        /* \"Patients/access/Roles.sol\":4448:4452  role */\n      dup5\n        /* \"Patients/access/Roles.sol\":4441:4453  _roles[role] */\n      dup2\n      mstore\n      0x20\n      add\n      swap1\n      dup2\n      mstore\n      0x20\n      add\n      0x00\n      keccak256\n        /* \"Patients/access/Roles.sol\":4441:4461  _roles[role].members */\n      0x00\n      add\n        /* \"Patients/access/Roles.sol\":4441:4470  _roles[role].members[account] */\n      0x00\n        /* \"Patients/access/Roles.sol\":4462:4469  account */\n      dup4\n        /* \"Patients/access/Roles.sol\":4441:4470  _roles[role].members[account] */\n      0xffffffffffffffffffffffffffffffffffffffff\n      and\n      0xffffffffffffffffffffffffffffffffffffffff\n      and\n      dup2\n      mstore\n      0x20\n      add\n      swap1\n      dup2\n      mstore\n      0x20\n      add\n      0x00\n      keccak256\n      0x00\n      swap1\n      sload\n      swap1\n      0x0100\n      exp\n      swap1\n      div\n      0xff\n      and\n        /* \"Patients/access/Roles.sol\":4434:4470  return _roles[role].members[account] */\n      swap1\n      pop\n        /* \"Patients/access/Roles.sol\":4340:4478  function hasRole(bytes32 role, address account) public view virtual returns (bool) {... */\n      swap3\n      swap2\n      pop\n      pop\n      jump\t// out\n        /* \"Patients/access/Roles.sol\":3281:3330  bytes32 public constant DEFAULT_ADMIN_ROLE = 0x00 */\n    tag_48:\n        /* \"Patients/access/Roles.sol\":3326:3330  0x00 */\n      0x00\n        /* \"Patients/access/Roles.sol\":3281:3330  bytes32 public constant DEFAULT_ADMIN_ROLE = 0x00 */\n      dup1\n      shl\n      dup2\n      jump\t// out\n        /* \"Patients/Patient.sol\":2802:2941  function isAccess(address _doctor) external view returns(bool)... */\n    tag_52:\n        /* \"Patients/Patient.sol\":2859:2863  bool */\n      0x00\n        /* \"Patients/Patient.sol\":2878:2889  bool access */\n      dup1\n        /* \"Patients/Patient.sol\":2892:2912  _checkArray(_doctor) */\n      tag_118\n        /* \"Patients/Patient.sol\":2904:2911  _doctor */\n      dup4\n        /* \"Patients/Patient.sol\":2892:2903  _checkArray */\n      tag_119\n        /* \"Patients/Patient.sol\":2892:2912  _checkArray(_doctor) */\n      jump\t// in\n    tag_118:\n        /* \"Patients/Patient.sol\":2878:2912  bool access = _checkArray(_doctor) */\n      swap1\n      pop\n        /* \"Patients/Patient.sol\":2928:2934  access */\n      dup1\n        /* \"Patients/Patient.sol\":2921:2934  return access */\n      swap2\n      pop\n      pop\n        /* \"Patients/Patient.sol\":2802:2941  function isAccess(address _doctor) external view returns(bool)... */\n      swap2\n      swap1\n      pop\n      jump\t// out\n        /* \"Patients/Patient.sol\":2947:3282  function setupRole_Doctor(address _patient, address _doctor) external onlyOwner(_patient)... */\n    tag_56:\n        /* \"Patients/Patient.sol\":3027:3035  _patient */\n      dup2\n        /* \"Patients/access/Owner.sol\":352:372  _checkOwner(_sender) */\n      tag_121\n        /* \"Patients/access/Owner.sol\":364:371  _sender */\n      dup2\n        /* \"Patients/access/Owner.sol\":352:363  _checkOwner */\n      tag_76\n        /* \"Patients/access/Owner.sol\":352:372  _checkOwner(_sender) */\n      jump\t// in\n    tag_121:\n        /* \"Patients/access/Roles.sol\":3326:3330  0x00 */\n      0x00\n        /* \"Patients/Patient.sol\":3051:3069  DEFAULT_ADMIN_ROLE */\n      dup1\n      shl\n        /* \"Patients/Patient.sol\":3071:3079  _patient */\n      dup4\n        /* \"Patients/access/Roles.sol\":3925:3948  _checkRole(role,sender) */\n      tag_123\n        /* \"Patients/access/Roles.sol\":3936:3940  role */\n      dup3\n        /* \"Patients/access/Roles.sol\":3941:3947  sender */\n      dup3\n        /* \"Patients/access/Roles.sol\":3925:3935  _checkRole */\n      tag_79\n        /* \"Patients/access/Roles.sol\":3925:3948  _checkRole(role,sender) */\n      jump\t// in\n    tag_123:\n        /* \"Patients/Patient.sol\":3096:3109  bool isExists */\n      0x00\n        /* \"Patients/Patient.sol\":3112:3132  _checkArray(_doctor) */\n      tag_125\n        /* \"Patients/Patient.sol\":3124:3131  _doctor */\n      dup6\n        /* \"Patients/Patient.sol\":3112:3123  _checkArray */\n      tag_119\n        /* \"Patients/Patient.sol\":3112:3132  _checkArray(_doctor) */\n      jump\t// in\n    tag_125:\n        /* \"Patients/Patient.sol\":3096:3132  bool isExists = _checkArray(_doctor) */\n      swap1\n      pop\n        /* \"Patients/Patient.sol\":3157:3161  true */\n      0x01\n        /* \"Patients/Patient.sol\":3145:3161  isExists == true */\n      iszero\n      iszero\n        /* \"Patients/Patient.sol\":3145:3153  isExists */\n      dup2\n        /* \"Patients/Patient.sol\":3145:3161  isExists == true */\n      iszero\n      iszero\n      sub\n        /* \"Patients/Patient.sol\":3142:3182  if(isExists == true)... */\n      tag_126\n      jumpi\n        /* \"Patients/Patient.sol\":3175:3182  return; */\n      pop\n      jump(tag_124)\n        /* \"Patients/Patient.sol\":3142:3182  if(isExists == true)... */\n    tag_126:\n        /* \"Patients/Patient.sol\":3190:3215  string memory addr_doctor */\n      0x00\n        /* \"Patients/Patient.sol\":3218:3243  _addressToString(_doctor) */\n      tag_127\n        /* \"Patients/Patient.sol\":3235:3242  _doctor */\n      dup7\n        /* \"Patients/Patient.sol\":3218:3234  _addressToString */\n      tag_82\n        /* \"Patients/Patient.sol\":3218:3243  _addressToString(_doctor) */\n      jump\t// in\n    tag_127:\n        /* \"Patients/Patient.sol\":3190:3243  string memory addr_doctor = _addressToString(_doctor) */\n      swap1\n      pop\n        /* \"Patients/Patient.sol\":3253:3257  docs */\n      0x03\n        /* \"Patients/Patient.sol\":3263:3274  addr_doctor */\n      dup2\n        /* \"Patients/Patient.sol\":3253:3275  docs.push(addr_doctor) */\n      swap1\n      dup1\n      0x01\n      dup2\n      sload\n      add\n      dup1\n      dup3\n      sstore\n      dup1\n      swap2\n      pop\n      pop\n      0x01\n      swap1\n      sub\n      swap1\n      0x00\n      mstore\n      keccak256(0x00, 0x20)\n      add\n      0x00\n      swap1\n      swap2\n      swap1\n      swap2\n      swap1\n      swap2\n      pop\n      swap1\n      dup2\n      tag_129\n      swap2\n      swap1\n      tag_130\n      jump\t// in\n    tag_129:\n      pop\n        /* \"Patients/Patient.sol\":3085:3282  {... */\n      pop\n      pop\n        /* \"Patients/access/Roles.sol\":3959:3960  _ */\n    tag_124:\n        /* \"Patients/access/Owner.sol\":383:384  _ */\n      pop\n      pop\n        /* \"Patients/Patient.sol\":2947:3282  function setupRole_Doctor(address _patient, address _doctor) external onlyOwner(_patient)... */\n      pop\n      pop\n      pop\n      jump\t// out\n        /* \"Patients/access/Owner.sol\":754:972  function transferOwnership(address _newOwner) public virtual onlyOwner(_owner) ... */\n    tag_59:\n        /* \"Patients/access/Owner.sol\":825:831  _owner */\n      0x00\n      dup1\n      sload\n      swap1\n      0x0100\n      exp\n      swap1\n      div\n      0xffffffffffffffffffffffffffffffffffffffff\n      and\n        /* \"Patients/access/Owner.sol\":352:372  _checkOwner(_sender) */\n      tag_132\n        /* \"Patients/access/Owner.sol\":364:371  _sender */\n      dup2\n        /* \"Patients/access/Owner.sol\":352:363  _checkOwner */\n      tag_76\n        /* \"Patients/access/Owner.sol\":352:372  _checkOwner(_sender) */\n      jump\t// in\n    tag_132:\n        /* \"Patients/access/Owner.sol\":879:880  0 */\n      0x00\n        /* \"Patients/access/Owner.sol\":858:881  _newOwner != address(0) */\n      0xffffffffffffffffffffffffffffffffffffffff\n      and\n        /* \"Patients/access/Owner.sol\":858:867  _newOwner */\n      dup3\n        /* \"Patients/access/Owner.sol\":858:881  _newOwner != address(0) */\n      0xffffffffffffffffffffffffffffffffffffffff\n      and\n      sub\n        /* \"Patients/access/Owner.sol\":850:924  require(_newOwner != address(0), \"Ownable: new owner is the zero address\") */\n      tag_134\n      jumpi\n      mload(0x40)\n      0x08c379a000000000000000000000000000000000000000000000000000000000\n      dup2\n      mstore\n      0x04\n      add\n      tag_135\n      swap1\n      tag_136\n      jump\t// in\n    tag_135:\n      mload(0x40)\n      dup1\n      swap2\n      sub\n      swap1\n      revert\n    tag_134:\n        /* \"Patients/access/Owner.sol\":935:964  _transferOwnership(_newOwner) */\n      tag_137\n        /* \"Patients/access/Owner.sol\":954:963  _newOwner */\n      dup3\n        /* \"Patients/access/Owner.sol\":935:953  _transferOwnership */\n      tag_138\n        /* \"Patients/access/Owner.sol\":935:964  _transferOwnership(_newOwner) */\n      jump\t// in\n    tag_137:\n        /* \"Patients/access/Owner.sol\":754:972  function transferOwnership(address _newOwner) public virtual onlyOwner(_owner) ... */\n      pop\n      pop\n      jump\t// out\n        /* \"Patients/access/Roles.sol\":9506:9730  function _revokeRole(bytes32 role, address account) private  {... */\n    tag_67:\n        /* \"Patients/access/Roles.sol\":9582:9604  hasRole(role, account) */\n      tag_140\n        /* \"Patients/access/Roles.sol\":9590:9594  role */\n      dup3\n        /* \"Patients/access/Roles.sol\":9596:9603  account */\n      dup3\n        /* \"Patients/access/Roles.sol\":9582:9589  hasRole */\n      tag_45\n        /* \"Patients/access/Roles.sol\":9582:9604  hasRole(role, account) */\n      jump\t// in\n    tag_140:\n        /* \"Patients/access/Roles.sol\":9578:9723  if (hasRole(role, account)) {... */\n      iszero\n      tag_141\n      jumpi\n        /* \"Patients/access/Roles.sol\":9653:9658  false */\n      0x00\n        /* \"Patients/access/Roles.sol\":9621:9627  _roles */\n      0x01\n        /* \"Patients/access/Roles.sol\":9621:9633  _roles[role] */\n      0x00\n        /* \"Patients/access/Roles.sol\":9628:9632  role */\n      dup5\n        /* \"Patients/access/Roles.sol\":9621:9633  _roles[role] */\n      dup2\n      mstore\n      0x20\n      add\n      swap1\n      dup2\n      mstore\n      0x20\n      add\n      0x00\n      keccak256\n        /* \"Patients/access/Roles.sol\":9621:9641  _roles[role].members */\n      0x00\n      add\n        /* \"Patients/access/Roles.sol\":9621:9650  _roles[role].members[account] */\n      0x00\n        /* \"Patients/access/Roles.sol\":9642:9649  account */\n      dup4\n        /* \"Patients/access/Roles.sol\":9621:9650  _roles[role].members[account] */\n      0xffffffffffffffffffffffffffffffffffffffff\n      and\n      0xffffffffffffffffffffffffffffffffffffffff\n      and\n      dup2\n      mstore\n      0x20\n      add\n      swap1\n      dup2\n      mstore\n      0x20\n      add\n      0x00\n      keccak256\n      0x00\n        /* \"Patients/access/Roles.sol\":9621:9658  _roles[role].members[account] = false */\n      0x0100\n      exp\n      dup2\n      sload\n      dup2\n      0xff\n      mul\n      not\n      and\n      swap1\n      dup4\n      iszero\n      iszero\n      mul\n      or\n      swap1\n      sstore\n      pop\n        /* \"Patients/access/Roles.sol\":9705:9710  admin */\n      0x02\n      0x00\n      swap1\n      sload\n      swap1\n      0x0100\n      exp\n      swap1\n      div\n      0xffffffffffffffffffffffffffffffffffffffff\n      and\n        /* \"Patients/access/Roles.sol\":9678:9711  RoleRevoked(role, account, admin) */\n      0xffffffffffffffffffffffffffffffffffffffff\n      and\n        /* \"Patients/access/Roles.sol\":9696:9703  account */\n      dup2\n        /* \"Patients/access/Roles.sol\":9678:9711  RoleRevoked(role, account, admin) */\n      0xffffffffffffffffffffffffffffffffffffffff\n      and\n        /* \"Patients/access/Roles.sol\":9690:9694  role */\n      dup4\n        /* \"Patients/access/Roles.sol\":9678:9711  RoleRevoked(role, account, admin) */\n      0xf6391f5c32d9c69d2a47ea670b442974b53935d1edc7fd64eb21e047a839171b\n      mload(0x40)\n      mload(0x40)\n      dup1\n      swap2\n      sub\n      swap1\n      log4\n        /* \"Patients/access/Roles.sol\":9578:9723  if (hasRole(role, account)) {... */\n    tag_141:\n        /* \"Patients/access/Roles.sol\":9506:9730  function _revokeRole(bytes32 role, address account) private  {... */\n      pop\n      pop\n      jump\t// out\n        /* \"Patients/access/Roles.sol\":3369:3471  function setAdmin(address _sender) internal onlyOwner(_sender)... */\n    tag_71:\n        /* \"Patients/access/Roles.sol\":3423:3430  _sender */\n      dup1\n        /* \"Patients/access/Owner.sol\":352:372  _checkOwner(_sender) */\n      tag_143\n        /* \"Patients/access/Owner.sol\":364:371  _sender */\n      dup2\n        /* \"Patients/access/Owner.sol\":352:363  _checkOwner */\n      tag_76\n        /* \"Patients/access/Owner.sol\":352:372  _checkOwner(_sender) */\n      jump\t// in\n    tag_143:\n        /* \"Patients/access/Roles.sol\":3456:3463  _sender */\n      dup2\n        /* \"Patients/access/Roles.sol\":3448:3453  admin */\n      0x02\n      0x00\n        /* \"Patients/access/Roles.sol\":3448:3463  admin = _sender */\n      0x0100\n      exp\n      dup2\n      sload\n      dup2\n      0xffffffffffffffffffffffffffffffffffffffff\n      mul\n      not\n      and\n      swap1\n      dup4\n      0xffffffffffffffffffffffffffffffffffffffff\n      and\n      mul\n      or\n      swap1\n      sstore\n      pop\n        /* \"Patients/access/Roles.sol\":3369:3471  function setAdmin(address _sender) internal onlyOwner(_sender)... */\n      pop\n      pop\n      jump\t// out\n        /* \"Patients/access/Roles.sol\":8358:8492  function _setupRole(bytes32 role, address account) internal virtual onlyOwner(admin)... */\n    tag_73:\n        /* \"Patients/access/Roles.sol\":8436:8441  admin */\n      0x02\n      0x00\n      swap1\n      sload\n      swap1\n      0x0100\n      exp\n      swap1\n      div\n      0xffffffffffffffffffffffffffffffffffffffff\n      and\n        /* \"Patients/access/Owner.sol\":352:372  _checkOwner(_sender) */\n      tag_146\n        /* \"Patients/access/Owner.sol\":364:371  _sender */\n      dup2\n        /* \"Patients/access/Owner.sol\":352:363  _checkOwner */\n      tag_76\n        /* \"Patients/access/Owner.sol\":352:372  _checkOwner(_sender) */\n      jump\t// in\n    tag_146:\n        /* \"Patients/access/Roles.sol\":8459:8484  _grantRole(role, account) */\n      tag_148\n        /* \"Patients/access/Roles.sol\":8470:8474  role */\n      dup4\n        /* \"Patients/access/Roles.sol\":8476:8483  account */\n      dup4\n        /* \"Patients/access/Roles.sol\":8459:8469  _grantRole */\n      tag_149\n        /* \"Patients/access/Roles.sol\":8459:8484  _grantRole(role, account) */\n      jump\t// in\n    tag_148:\n        /* \"Patients/access/Roles.sol\":8358:8492  function _setupRole(bytes32 role, address account) internal virtual onlyOwner(admin)... */\n      pop\n      pop\n      pop\n      jump\t// out\n        /* \"Patients/access/Owner.sol\":497:645  function _checkOwner(address _sender) internal view virtual ... */\n    tag_76:\n        /* \"Patients/access/Owner.sol\":593:600  _sender */\n      dup1\n        /* \"Patients/access/Owner.sol\":582:600  owner() == _sender */\n      0xffffffffffffffffffffffffffffffffffffffff\n      and\n        /* \"Patients/access/Owner.sol\":582:589  owner() */\n      tag_151\n        /* \"Patients/access/Owner.sol\":582:587  owner */\n      tag_40\n        /* \"Patients/access/Owner.sol\":582:589  owner() */\n      jump\t// in\n    tag_151:\n        /* \"Patients/access/Owner.sol\":582:600  owner() == _sender */\n      0xffffffffffffffffffffffffffffffffffffffff\n      and\n      eq\n        /* \"Patients/access/Owner.sol\":574:637  require(owner() == _sender, \"Ownable: caller is not the owner\") */\n      tag_152\n      jumpi\n      mload(0x40)\n      0x08c379a000000000000000000000000000000000000000000000000000000000\n      dup2\n      mstore\n      0x04\n      add\n      tag_153\n      swap1\n      tag_154\n      jump\t// in\n    tag_153:\n      mload(0x40)\n      dup1\n      swap2\n      sub\n      swap1\n      revert\n    tag_152:\n        /* \"Patients/access/Owner.sol\":497:645  function _checkOwner(address _sender) internal view virtual ... */\n      pop\n      jump\t// out\n        /* \"Patients/access/Roles.sol\":5190:5682  function _checkRole(bytes32 role, address account) internal view virtual {... */\n    tag_79:\n        /* \"Patients/access/Roles.sol\":5279:5301  hasRole(role, account) */\n      tag_156\n        /* \"Patients/access/Roles.sol\":5287:5291  role */\n      dup3\n        /* \"Patients/access/Roles.sol\":5293:5300  account */\n      dup3\n        /* \"Patients/access/Roles.sol\":5279:5286  hasRole */\n      tag_45\n        /* \"Patients/access/Roles.sol\":5279:5301  hasRole(role, account) */\n      jump\t// in\n    tag_156:\n        /* \"Patients/access/Roles.sol\":5274:5675  if (!hasRole(role, account)) {... */\n      tag_157\n      jumpi\n        /* \"Patients/access/Roles.sol\":5467:5495  Strings.toHexString(account) */\n      tag_158\n        /* \"Patients/access/Roles.sol\":5487:5494  account */\n      dup2\n        /* \"Patients/access/Roles.sol\":5467:5486  Strings.toHexString */\n      tag_159\n        /* \"Patients/access/Roles.sol\":5467:5495  Strings.toHexString(account) */\n      jump\t// in\n    tag_158:\n        /* \"Patients/access/Roles.sol\":5568:5606  Strings.toHexString(uint256(role), 32) */\n      tag_160\n        /* \"Patients/access/Roles.sol\":5596:5600  role */\n      dup4\n        /* \"Patients/access/Roles.sol\":5588:5601  uint256(role) */\n      0x00\n      shr\n        /* \"Patients/access/Roles.sol\":5603:5605  32 */\n      0x20\n        /* \"Patients/access/Roles.sol\":5568:5587  Strings.toHexString */\n      tag_161\n        /* \"Patients/access/Roles.sol\":5568:5606  Strings.toHexString(uint256(role), 32) */\n      jump\t// in\n    tag_160:\n        /* \"Patients/access/Roles.sol\":5372:5629  abi.encodePacked(... */\n      add(0x20, mload(0x40))\n      tag_162\n      swap3\n      swap2\n      swap1\n      tag_163\n      jump\t// in\n    tag_162:\n      mload(0x40)\n      0x20\n      dup2\n      dup4\n      sub\n      sub\n      dup2\n      mstore\n      swap1\n      0x40\n      mstore\n        /* \"Patients/access/Roles.sol\":5318:5663  revert(... */\n      mload(0x40)\n      0x08c379a000000000000000000000000000000000000000000000000000000000\n      dup2\n      mstore\n      0x04\n      add\n      tag_164\n      swap2\n      swap1\n      tag_165\n      jump\t// in\n    tag_164:\n      mload(0x40)\n      dup1\n      swap2\n      sub\n      swap1\n      revert\n        /* \"Patients/access/Roles.sol\":5274:5675  if (!hasRole(role, account)) {... */\n    tag_157:\n        /* \"Patients/access/Roles.sol\":5190:5682  function _checkRole(bytes32 role, address account) internal view virtual {... */\n      pop\n      pop\n      jump\t// out\n        /* \"Patients/Patient.sol\":1882:2393  function _addressToString(address _addr) private pure returns(string memory) ... */\n    tag_82:\n        /* \"Patients/Patient.sol\":1944:1957  string memory */\n      0x60\n        /* \"Patients/Patient.sol\":1974:1987  bytes32 value */\n      0x00\n        /* \"Patients/Patient.sol\":2014:2019  _addr */\n      dup3\n        /* \"Patients/Patient.sol\":1998:2021  uint256(uint160(_addr)) */\n      0xffffffffffffffffffffffffffffffffffffffff\n      and\n        /* \"Patients/Patient.sol\":1990:2022  bytes32(uint256(uint160(_addr))) */\n      0x00\n      shl\n        /* \"Patients/Patient.sol\":1974:2022  bytes32 value = bytes32(uint256(uint160(_addr))) */\n      swap1\n      pop\n        /* \"Patients/Patient.sol\":2032:2053  bytes memory alphabet */\n      0x00\n        /* \"Patients/Patient.sol\":2032:2074  bytes memory alphabet = \"0123456789abcdef\" */\n      mload(0x40)\n      dup1\n      0x40\n      add\n      0x40\n      mstore\n      dup1\n      0x10\n      dup2\n      mstore\n      0x20\n      add\n      0x3031323334353637383961626364656600000000000000000000000000000000\n      dup2\n      mstore\n      pop\n      swap1\n      pop\n        /* \"Patients/Patient.sol\":2085:2101  bytes memory str */\n      0x00\n        /* \"Patients/Patient.sol\":2114:2116  51 */\n      0x33\n        /* \"Patients/Patient.sol\":2104:2117  new bytes(51) */\n      0xffffffffffffffff\n      dup2\n      gt\n      iszero\n      tag_167\n      jumpi\n      tag_168\n      tag_169\n      jump\t// in\n    tag_168:\n    tag_167:\n      mload(0x40)\n      swap1\n      dup1\n      dup3\n      mstore\n      dup1\n      0x1f\n      add\n      not(0x1f)\n      and\n      0x20\n      add\n      dup3\n      add\n      0x40\n      mstore\n      dup1\n      iszero\n      tag_170\n      jumpi\n      dup2\n      0x20\n      add\n      0x01\n      dup3\n      mul\n      dup1\n      calldatasize\n      dup4\n      calldatacopy\n      dup1\n      dup3\n      add\n      swap2\n      pop\n      pop\n      swap1\n      pop\n    tag_170:\n      pop\n        /* \"Patients/Patient.sol\":2085:2117  bytes memory str = new bytes(51) */\n      swap1\n      pop\n        /* \"Patients/Patient.sol\":2127:2139  str[0] = \"0\" */\n      0x3000000000000000000000000000000000000000000000000000000000000000\n        /* \"Patients/Patient.sol\":2127:2130  str */\n      dup2\n        /* \"Patients/Patient.sol\":2131:2132  0 */\n      0x00\n        /* \"Patients/Patient.sol\":2127:2133  str[0] */\n      dup2\n      mload\n      dup2\n      lt\n      tag_171\n      jumpi\n      tag_172\n      tag_90\n      jump\t// in\n    tag_172:\n    tag_171:\n      0x20\n      add\n      add\n        /* \"Patients/Patient.sol\":2127:2139  str[0] = \"0\" */\n      swap1\n      not(0xffffffffffffffffffffffffffffffffffffffffffffffffffffffffffffff)\n      and\n      swap1\n      dup2\n      0x00\n      byte\n      swap1\n      mstore8\n      pop\n        /* \"Patients/Patient.sol\":2149:2161  str[1] = \"x\" */\n      0x7800000000000000000000000000000000000000000000000000000000000000\n        /* \"Patients/Patient.sol\":2149:2152  str */\n      dup2\n        /* \"Patients/Patient.sol\":2153:2154  1 */\n      0x01\n        /* \"Patients/Patient.sol\":2149:2155  str[1] */\n      dup2\n      mload\n      dup2\n      lt\n      tag_173\n      jumpi\n      tag_174\n      tag_90\n      jump\t// in\n    tag_174:\n    tag_173:\n      0x20\n      add\n      add\n        /* \"Patients/Patient.sol\":2149:2161  str[1] = \"x\" */\n      swap1\n      not(0xffffffffffffffffffffffffffffffffffffffffffffffffffffffffffffff)\n      and\n      swap1\n      dup2\n      0x00\n      byte\n      swap1\n      mstore8\n      pop\n        /* \"Patients/Patient.sol\":2176:2182  uint i */\n      0x00\n        /* \"Patients/Patient.sol\":2171:2359  for (uint i = 0; i < 20; i++) ... */\n    tag_175:\n        /* \"Patients/Patient.sol\":2192:2194  20 */\n      0x14\n        /* \"Patients/Patient.sol\":2188:2189  i */\n      dup2\n        /* \"Patients/Patient.sol\":2188:2194  i < 20 */\n      lt\n        /* \"Patients/Patient.sol\":2171:2359  for (uint i = 0; i < 20; i++) ... */\n      iszero\n      tag_176\n      jumpi\n        /* \"Patients/Patient.sol\":2237:2245  alphabet */\n      dup3\n        /* \"Patients/Patient.sol\":2274:2275  4 */\n      0x04\n        /* \"Patients/Patient.sol\":2257:2262  value */\n      dup6\n        /* \"Patients/Patient.sol\":2267:2269  12 */\n      0x0c\n        /* \"Patients/Patient.sol\":2263:2264  i */\n      dup5\n        /* \"Patients/Patient.sol\":2263:2269  i + 12 */\n      tag_178\n      swap2\n      swap1\n      tag_100\n      jump\t// in\n    tag_178:\n        /* \"Patients/Patient.sol\":2257:2270  value[i + 12] */\n      0x20\n      dup2\n      lt\n      tag_179\n      jumpi\n      tag_180\n      tag_90\n      jump\t// in\n    tag_180:\n    tag_179:\n      byte\n      0xf8\n      shl\n        /* \"Patients/Patient.sol\":2257:2275  value[i + 12] >> 4 */\n      not(0xffffffffffffffffffffffffffffffffffffffffffffffffffffffffffffff)\n      and\n      swap1\n      shr\n        /* \"Patients/Patient.sol\":2251:2276  uint8(value[i + 12] >> 4) */\n      0xf8\n      shr\n        /* \"Patients/Patient.sol\":2246:2277  uint(uint8(value[i + 12] >> 4)) */\n      0xff\n      and\n        /* \"Patients/Patient.sol\":2237:2278  alphabet[uint(uint8(value[i + 12] >> 4))] */\n      dup2\n      mload\n      dup2\n      lt\n      tag_181\n      jumpi\n      tag_182\n      tag_90\n      jump\t// in\n    tag_182:\n    tag_181:\n      0x20\n      add\n      add\n      mload\n      0xf8\n      shr\n      0xf8\n      shl\n        /* \"Patients/Patient.sol\":2224:2227  str */\n      dup3\n        /* \"Patients/Patient.sol\":2232:2233  2 */\n      0x02\n        /* \"Patients/Patient.sol\":2230:2231  i */\n      dup4\n        /* \"Patients/Patient.sol\":2230:2233  i*2 */\n      tag_183\n      swap2\n      swap1\n      tag_184\n      jump\t// in\n    tag_183:\n        /* \"Patients/Patient.sol\":2228:2229  2 */\n      0x02\n        /* \"Patients/Patient.sol\":2228:2233  2+i*2 */\n      tag_185\n      swap2\n      swap1\n      tag_100\n      jump\t// in\n    tag_185:\n        /* \"Patients/Patient.sol\":2224:2234  str[2+i*2] */\n      dup2\n      mload\n      dup2\n      lt\n      tag_186\n      jumpi\n      tag_187\n      tag_90\n      jump\t// in\n    tag_187:\n    tag_186:\n      0x20\n      add\n      add\n        /* \"Patients/Patient.sol\":2224:2278  str[2+i*2] = alphabet[uint(uint8(value[i + 12] >> 4))] */\n      swap1\n      not(0xffffffffffffffffffffffffffffffffffffffffffffffffffffffffffffff)\n      and\n      swap1\n      dup2\n      0x00\n      byte\n      swap1\n      mstore8\n      pop\n        /* \"Patients/Patient.sol\":2305:2313  alphabet */\n      dup3\n        /* \"Patients/Patient.sol\":2341:2345  0x0f */\n      0x0f\n        /* \"Patients/Patient.sol\":2325:2345  value[i + 12] & 0x0f */\n      0xf8\n      shl\n        /* \"Patients/Patient.sol\":2325:2330  value */\n      dup6\n        /* \"Patients/Patient.sol\":2335:2337  12 */\n      0x0c\n        /* \"Patients/Patient.sol\":2331:2332  i */\n      dup5\n        /* \"Patients/Patient.sol\":2331:2337  i + 12 */\n      tag_188\n      swap2\n      swap1\n      tag_100\n      jump\t// in\n    tag_188:\n        /* \"Patients/Patient.sol\":2325:2338  value[i + 12] */\n      0x20\n      dup2\n      lt\n      tag_189\n      jumpi\n      tag_190\n      tag_90\n      jump\t// in\n    tag_190:\n    tag_189:\n      byte\n      0xf8\n      shl\n        /* \"Patients/Patient.sol\":2325:2345  value[i + 12] & 0x0f */\n      and\n        /* \"Patients/Patient.sol\":2319:2346  uint8(value[i + 12] & 0x0f) */\n      0xf8\n      shr\n        /* \"Patients/Patient.sol\":2314:2347  uint(uint8(value[i + 12] & 0x0f)) */\n      0xff\n      and\n        /* \"Patients/Patient.sol\":2305:2348  alphabet[uint(uint8(value[i + 12] & 0x0f))] */\n      dup2\n      mload\n      dup2\n      lt\n      tag_191\n      jumpi\n      tag_192\n      tag_90\n      jump\t// in\n    tag_192:\n    tag_191:\n      0x20\n      add\n      add\n      mload\n      0xf8\n      shr\n      0xf8\n      shl\n        /* \"Patients/Patient.sol\":2292:2295  str */\n      dup3\n        /* \"Patients/Patient.sol\":2300:2301  2 */\n      0x02\n        /* \"Patients/Patient.sol\":2298:2299  i */\n      dup4\n        /* \"Patients/Patient.sol\":2298:2301  i*2 */\n      tag_193\n      swap2\n      swap1\n      tag_184\n      jump\t// in\n    tag_193:\n        /* \"Patients/Patient.sol\":2296:2297  3 */\n      0x03\n        /* \"Patients/Patient.sol\":2296:2301  3+i*2 */\n      tag_194\n      swap2\n      swap1\n      tag_100\n      jump\t// in\n    tag_194:\n        /* \"Patients/Patient.sol\":2292:2302  str[3+i*2] */\n      dup2\n      mload\n      dup2\n      lt\n      tag_195\n      jumpi\n      tag_196\n      tag_90\n      jump\t// in\n    tag_196:\n    tag_195:\n      0x20\n      add\n      add\n        /* \"Patients/Patient.sol\":2292:2348  str[3+i*2] = alphabet[uint(uint8(value[i + 12] & 0x0f))] */\n      swap1\n      not(0xffffffffffffffffffffffffffffffffffffffffffffffffffffffffffffff)\n      and\n      swap1\n      dup2\n      0x00\n      byte\n      swap1\n      mstore8\n      pop\n        /* \"Patients/Patient.sol\":2196:2199  i++ */\n      dup1\n      dup1\n      0x01\n      add\n      swap2\n      pop\n      pop\n        /* \"Patients/Patient.sol\":2171:2359  for (uint i = 0; i < 20; i++) ... */\n      jump(tag_175)\n    tag_176:\n      pop\n        /* \"Patients/Patient.sol\":2382:2385  str */\n      dup1\n        /* \"Patients/Patient.sol\":2368:2386  return string(str) */\n      swap4\n      pop\n      pop\n      pop\n      pop\n        /* \"Patients/Patient.sol\":1882:2393  function _addressToString(address _addr) private pure returns(string memory) ... */\n      swap2\n      swap1\n      pop\n      jump\t// out\n        /* \"Patients/Patient.sol\":2399:2797  function _checkArray(address addr_doc) private view returns(bool)... */\n    tag_119:\n        /* \"Patients/Patient.sol\":2459:2463  bool */\n      0x00\n        /* \"Patients/Patient.sol\":2479:2504  string memory addr_doctor */\n      dup1\n        /* \"Patients/Patient.sol\":2507:2533  _addressToString(addr_doc) */\n      tag_198\n        /* \"Patients/Patient.sol\":2524:2532  addr_doc */\n      dup4\n        /* \"Patients/Patient.sol\":2507:2523  _addressToString */\n      tag_82\n        /* \"Patients/Patient.sol\":2507:2533  _addressToString(addr_doc) */\n      jump\t// in\n    tag_198:\n        /* \"Patients/Patient.sol\":2479:2533  string memory addr_doctor = _addressToString(addr_doc) */\n      swap1\n      pop\n        /* \"Patients/Patient.sol\":2547:2556  uint256 i */\n      0x00\n        /* \"Patients/Patient.sol\":2543:2769  for(uint256 i=0;i<docs.length;i++)... */\n    tag_199:\n        /* \"Patients/Patient.sol\":2561:2565  docs */\n      0x03\n        /* \"Patients/Patient.sol\":2561:2572  docs.length */\n      dup1\n      sload\n      swap1\n      pop\n        /* \"Patients/Patient.sol\":2559:2560  i */\n      dup2\n        /* \"Patients/Patient.sol\":2559:2572  i<docs.length */\n      lt\n        /* \"Patients/Patient.sol\":2543:2769  for(uint256 i=0;i<docs.length;i++)... */\n      iszero\n      tag_200\n      jumpi\n        /* \"Patients/Patient.sol\":2600:2612  bool isEqual */\n      0x00\n        /* \"Patients/Patient.sol\":2687:2691  docs */\n      0x03\n        /* \"Patients/Patient.sol\":2692:2693  i */\n      dup3\n        /* \"Patients/Patient.sol\":2687:2694  docs[i] */\n      dup2\n      sload\n      dup2\n      lt\n      tag_202\n      jumpi\n      tag_203\n      tag_90\n      jump\t// in\n    tag_203:\n    tag_202:\n      swap1\n      0x00\n      mstore\n      keccak256(0x00, 0x20)\n      add\n        /* \"Patients/Patient.sol\":2670:2695  abi.encodePacked(docs[i]) */\n      add(0x20, mload(0x40))\n      tag_205\n      swap2\n      swap1\n      tag_93\n      jump\t// in\n    tag_205:\n      mload(0x40)\n      0x20\n      dup2\n      dup4\n      sub\n      sub\n      dup2\n      mstore\n      swap1\n      0x40\n      mstore\n        /* \"Patients/Patient.sol\":2660:2696  keccak256(abi.encodePacked(docs[i])) */\n      dup1\n      mload\n      swap1\n      0x20\n      add\n      keccak256\n        /* \"Patients/Patient.sol\":2643:2654  addr_doctor */\n      dup4\n        /* \"Patients/Patient.sol\":2626:2655  abi.encodePacked(addr_doctor) */\n      add(0x20, mload(0x40))\n      tag_206\n      swap2\n      swap1\n      tag_95\n      jump\t// in\n    tag_206:\n      mload(0x40)\n      0x20\n      dup2\n      dup4\n      sub\n      sub\n      dup2\n      mstore\n      swap1\n      0x40\n      mstore\n        /* \"Patients/Patient.sol\":2616:2656  keccak256(abi.encodePacked(addr_doctor)) */\n      dup1\n      mload\n      swap1\n      0x20\n      add\n      keccak256\n        /* \"Patients/Patient.sol\":2616:2696  keccak256(abi.encodePacked(addr_doctor)) == keccak256(abi.encodePacked(docs[i])) */\n      eq\n        /* \"Patients/Patient.sol\":2600:2697  bool isEqual = (keccak256(abi.encodePacked(addr_doctor)) == keccak256(abi.encodePacked(docs[i]))) */\n      swap1\n      pop\n        /* \"Patients/Patient.sol\":2725:2729  true */\n      0x01\n        /* \"Patients/Patient.sol\":2714:2729  isEqual == true */\n      iszero\n      iszero\n        /* \"Patients/Patient.sol\":2714:2721  isEqual */\n      dup2\n        /* \"Patients/Patient.sol\":2714:2729  isEqual == true */\n      iszero\n      iszero\n      sub\n        /* \"Patients/Patient.sol\":2711:2758  if(isEqual == true)... */\n      tag_207\n      jumpi\n        /* \"Patients/Patient.sol\":2754:2758  true */\n      0x01\n        /* \"Patients/Patient.sol\":2747:2758  return true */\n      swap4\n      pop\n      pop\n      pop\n      pop\n      jump(tag_197)\n        /* \"Patients/Patient.sol\":2711:2758  if(isEqual == true)... */\n    tag_207:\n        /* \"Patients/Patient.sol\":2586:2769  {... */\n      pop\n        /* \"Patients/Patient.sol\":2573:2576  i++ */\n      dup1\n      dup1\n      0x01\n      add\n      swap2\n      pop\n      pop\n        /* \"Patients/Patient.sol\":2543:2769  for(uint256 i=0;i<docs.length;i++)... */\n      jump(tag_199)\n    tag_200:\n      pop\n        /* \"Patients/Patient.sol\":2785:2790  false */\n      0x00\n        /* \"Patients/Patient.sol\":2778:2790  return false */\n      swap2\n      pop\n      pop\n        /* \"Patients/Patient.sol\":2399:2797  function _checkArray(address addr_doc) private view returns(bool)... */\n    tag_197:\n      swap2\n      swap1\n      pop\n      jump\t// out\n        /* \"Patients/access/Owner.sol\":980:1172  function _transferOwnership(address _newOwner) private  ... */\n    tag_138:\n        /* \"Patients/access/Owner.sol\":1053:1069  address oldOwner */\n      0x00\n        /* \"Patients/access/Owner.sol\":1072:1078  _owner */\n      dup1\n      0x00\n      swap1\n      sload\n      swap1\n      0x0100\n      exp\n      swap1\n      div\n      0xffffffffffffffffffffffffffffffffffffffff\n      and\n        /* \"Patients/access/Owner.sol\":1053:1078  address oldOwner = _owner */\n      swap1\n      pop\n        /* \"Patients/access/Owner.sol\":1098:1107  _newOwner */\n      dup2\n        /* \"Patients/access/Owner.sol\":1089:1095  _owner */\n      0x00\n      dup1\n        /* \"Patients/access/Owner.sol\":1089:1107  _owner = _newOwner */\n      0x0100\n      exp\n      dup2\n      sload\n      dup2\n      0xffffffffffffffffffffffffffffffffffffffff\n      mul\n      not\n      and\n      swap1\n      dup4\n      0xffffffffffffffffffffffffffffffffffffffff\n      and\n      mul\n      or\n      swap1\n      sstore\n      pop\n        /* \"Patients/access/Owner.sol\":1154:1163  _newOwner */\n      dup2\n        /* \"Patients/access/Owner.sol\":1123:1164  OwnershipTransferred(oldOwner, _newOwner) */\n      0xffffffffffffffffffffffffffffffffffffffff\n      and\n        /* \"Patients/access/Owner.sol\":1144:1152  oldOwner */\n      dup2\n        /* \"Patients/access/Owner.sol\":1123:1164  OwnershipTransferred(oldOwner, _newOwner) */\n      0xffffffffffffffffffffffffffffffffffffffff\n      and\n      0x8be0079c531659141344cd1fd0a4f28419497f9722a3daafe3b4186f6b6457e0\n      mload(0x40)\n      mload(0x40)\n      dup1\n      swap2\n      sub\n      swap1\n      log3\n        /* \"Patients/access/Owner.sol\":1042:1172  {... */\n      pop\n        /* \"Patients/access/Owner.sol\":980:1172  function _transferOwnership(address _newOwner) private  ... */\n      pop\n      jump\t// out\n        /* \"Patients/access/Roles.sol\":9087:9326  function _grantRole(bytes32 role, address account) private  ... */\n    tag_149:\n        /* \"Patients/access/Roles.sol\":9169:9191  hasRole(role, account) */\n      tag_210\n        /* \"Patients/access/Roles.sol\":9177:9181  role */\n      dup3\n        /* \"Patients/access/Roles.sol\":9183:9190  account */\n      dup3\n        /* \"Patients/access/Roles.sol\":9169:9176  hasRole */\n      tag_45\n        /* \"Patients/access/Roles.sol\":9169:9191  hasRole(role, account) */\n      jump\t// in\n    tag_210:\n        /* \"Patients/access/Roles.sol\":9164:9319  if (!hasRole(role, account)) ... */\n      tag_211\n      jumpi\n        /* \"Patients/access/Roles.sol\":9250:9254  true */\n      0x01\n        /* \"Patients/access/Roles.sol\":9218:9224  _roles */\n      dup1\n        /* \"Patients/access/Roles.sol\":9218:9230  _roles[role] */\n      0x00\n        /* \"Patients/access/Roles.sol\":9225:9229  role */\n      dup5\n        /* \"Patients/access/Roles.sol\":9218:9230  _roles[role] */\n      dup2\n      mstore\n      0x20\n      add\n      swap1\n      dup2\n      mstore\n      0x20\n      add\n      0x00\n      keccak256\n        /* \"Patients/access/Roles.sol\":9218:9238  _roles[role].members */\n      0x00\n      add\n        /* \"Patients/access/Roles.sol\":9218:9247  _roles[role].members[account] */\n      0x00\n        /* \"Patients/access/Roles.sol\":9239:9246  account */\n      dup4\n        /* \"Patients/access/Roles.sol\":9218:9247  _roles[role].members[account] */\n      0xffffffffffffffffffffffffffffffffffffffff\n      and\n      0xffffffffffffffffffffffffffffffffffffffff\n      and\n      dup2\n      mstore\n      0x20\n      add\n      swap1\n      dup2\n      mstore\n      0x20\n      add\n      0x00\n      keccak256\n      0x00\n        /* \"Patients/access/Roles.sol\":9218:9254  _roles[role].members[account] = true */\n      0x0100\n      exp\n      dup2\n      sload\n      dup2\n      0xff\n      mul\n      not\n      and\n      swap1\n      dup4\n      iszero\n      iszero\n      mul\n      or\n      swap1\n      sstore\n      pop\n        /* \"Patients/access/Roles.sol\":9301:9306  admin */\n      0x02\n      0x00\n      swap1\n      sload\n      swap1\n      0x0100\n      exp\n      swap1\n      div\n      0xffffffffffffffffffffffffffffffffffffffff\n      and\n        /* \"Patients/access/Roles.sol\":9274:9307  RoleGranted(role, account, admin) */\n      0xffffffffffffffffffffffffffffffffffffffff\n      and\n        /* \"Patients/access/Roles.sol\":9292:9299  account */\n      dup2\n        /* \"Patients/access/Roles.sol\":9274:9307  RoleGranted(role, account, admin) */\n      0xffffffffffffffffffffffffffffffffffffffff\n      and\n        /* \"Patients/access/Roles.sol\":9286:9290  role */\n      dup4\n        /* \"Patients/access/Roles.sol\":9274:9307  RoleGranted(role, account, admin) */\n      0x2f8788117e7eff1d82e926ec794901d17c78024a50270940304540a733656f0d\n      mload(0x40)\n      mload(0x40)\n      dup1\n      swap2\n      sub\n      swap1\n      log4\n        /* \"Patients/access/Roles.sol\":9164:9319  if (!hasRole(role, account)) ... */\n    tag_211:\n        /* \"Patients/access/Roles.sol\":9087:9326  function _grantRole(bytes32 role, address account) private  ... */\n      pop\n      pop\n      jump\t// out\n        /* \"github.com/OpenZeppelin/openzeppelin-contracts/blob/master/contracts/utils/Strings.sol\":2689:2837  function toHexString(address addr) internal pure returns (string memory) {... */\n    tag_159:\n        /* \"github.com/OpenZeppelin/openzeppelin-contracts/blob/master/contracts/utils/Strings.sol\":2747:2760  string memory */\n      0x60\n        /* \"github.com/OpenZeppelin/openzeppelin-contracts/blob/master/contracts/utils/Strings.sol\":2779:2830  toHexString(uint256(uint160(addr)), ADDRESS_LENGTH) */\n      tag_213\n        /* \"github.com/OpenZeppelin/openzeppelin-contracts/blob/master/contracts/utils/Strings.sol\":2807:2811  addr */\n      dup3\n        /* \"github.com/OpenZeppelin/openzeppelin-contracts/blob/master/contracts/utils/Strings.sol\":2791:2813  uint256(uint160(addr)) */\n      0xffffffffffffffffffffffffffffffffffffffff\n      and\n        /* \"github.com/OpenZeppelin/openzeppelin-contracts/blob/master/contracts/utils/Strings.sol\":375:377  20 */\n      0x14\n        /* \"github.com/OpenZeppelin/openzeppelin-contracts/blob/master/contracts/utils/Strings.sol\":2779:2830  toHexString(uint256(uint160(addr)), ADDRESS_LENGTH) */\n      0xff\n      and\n        /* \"github.com/OpenZeppelin/openzeppelin-contracts/blob/master/contracts/utils/Strings.sol\":2779:2790  toHexString */\n      tag_161\n        /* \"github.com/OpenZeppelin/openzeppelin-contracts/blob/master/contracts/utils/Strings.sol\":2779:2830  toHexString(uint256(uint160(addr)), ADDRESS_LENGTH) */\n      jump\t// in\n    tag_213:\n        /* \"github.com/OpenZeppelin/openzeppelin-contracts/blob/master/contracts/utils/Strings.sol\":2772:2830  return toHexString(uint256(uint160(addr)), ADDRESS_LENGTH) */\n      swap1\n      pop\n        /* \"github.com/OpenZeppelin/openzeppelin-contracts/blob/master/contracts/utils/Strings.sol\":2689:2837  function toHexString(address addr) internal pure returns (string memory) {... */\n      swap2\n      swap1\n      pop\n      jump\t// out\n        /* \"github.com/OpenZeppelin/openzeppelin-contracts/blob/master/contracts/utils/Strings.sol\":2005:2530  function toHexString(uint256 value, uint256 length) internal pure returns (string memory) {... */\n    tag_161:\n        /* \"github.com/OpenZeppelin/openzeppelin-contracts/blob/master/contracts/utils/Strings.sol\":2080:2093  string memory */\n      0x60\n        /* \"github.com/OpenZeppelin/openzeppelin-contracts/blob/master/contracts/utils/Strings.sol\":2105:2123  uint256 localValue */\n      0x00\n        /* \"github.com/OpenZeppelin/openzeppelin-contracts/blob/master/contracts/utils/Strings.sol\":2126:2131  value */\n      dup4\n        /* \"github.com/OpenZeppelin/openzeppelin-contracts/blob/master/contracts/utils/Strings.sol\":2105:2131  uint256 localValue = value */\n      swap1\n      pop\n        /* \"github.com/OpenZeppelin/openzeppelin-contracts/blob/master/contracts/utils/Strings.sol\":2141:2160  bytes memory buffer */\n      0x00\n        /* \"github.com/OpenZeppelin/openzeppelin-contracts/blob/master/contracts/utils/Strings.sol\":2186:2187  2 */\n      0x02\n        /* \"github.com/OpenZeppelin/openzeppelin-contracts/blob/master/contracts/utils/Strings.sol\":2177:2183  length */\n      dup5\n        /* \"github.com/OpenZeppelin/openzeppelin-contracts/blob/master/contracts/utils/Strings.sol\":2173:2174  2 */\n      0x02\n        /* \"github.com/OpenZeppelin/openzeppelin-contracts/blob/master/contracts/utils/Strings.sol\":2173:2183  2 * length */\n      tag_215\n      swap2\n      swap1\n      tag_184\n      jump\t// in\n    tag_215:\n        /* \"github.com/OpenZeppelin/openzeppelin-contracts/blob/master/contracts/utils/Strings.sol\":2173:2187  2 * length + 2 */\n      tag_216\n      swap2\n      swap1\n      tag_100\n      jump\t// in\n    tag_216:\n        /* \"github.com/OpenZeppelin/openzeppelin-contracts/blob/master/contracts/utils/Strings.sol\":2163:2188  new bytes(2 * length + 2) */\n      0xffffffffffffffff\n      dup2\n      gt\n      iszero\n      tag_217\n      jumpi\n      tag_218\n      tag_169\n      jump\t// in\n    tag_218:\n    tag_217:\n      mload(0x40)\n      swap1\n      dup1\n      dup3\n      mstore\n      dup1\n      0x1f\n      add\n      not(0x1f)\n      and\n      0x20\n      add\n      dup3\n      add\n      0x40\n      mstore\n      dup1\n      iszero\n      tag_219\n      jumpi\n      dup2\n      0x20\n      add\n      0x01\n      dup3\n      mul\n      dup1\n      calldatasize\n      dup4\n      calldatacopy\n      dup1\n      dup3\n      add\n      swap2\n      pop\n      pop\n      swap1\n      pop\n    tag_219:\n      pop\n        /* \"github.com/OpenZeppelin/openzeppelin-contracts/blob/master/contracts/utils/Strings.sol\":2141:2188  bytes memory buffer = new bytes(2 * length + 2) */\n      swap1\n      pop\n        /* \"github.com/OpenZeppelin/openzeppelin-contracts/blob/master/contracts/utils/Strings.sol\":2198:2213  buffer[0] = \"0\" */\n      0x3000000000000000000000000000000000000000000000000000000000000000\n        /* \"github.com/OpenZeppelin/openzeppelin-contracts/blob/master/contracts/utils/Strings.sol\":2198:2204  buffer */\n      dup2\n        /* \"github.com/OpenZeppelin/openzeppelin-contracts/blob/master/contracts/utils/Strings.sol\":2205:2206  0 */\n      0x00\n        /* \"github.com/OpenZeppelin/openzeppelin-contracts/blob/master/contracts/utils/Strings.sol\":2198:2207  buffer[0] */\n      dup2\n      mload\n      dup2\n      lt\n      tag_220\n      jumpi\n      tag_221\n      tag_90\n      jump\t// in\n    tag_221:\n    tag_220:\n      0x20\n      add\n      add\n        /* \"github.com/OpenZeppelin/openzeppelin-contracts/blob/master/contracts/utils/Strings.sol\":2198:2213  buffer[0] = \"0\" */\n      swap1\n      not(0xffffffffffffffffffffffffffffffffffffffffffffffffffffffffffffff)\n      and\n      swap1\n      dup2\n      0x00\n      byte\n      swap1\n      mstore8\n      pop\n        /* \"github.com/OpenZeppelin/openzeppelin-contracts/blob/master/contracts/utils/Strings.sol\":2223:2238  buffer[1] = \"x\" */\n      0x7800000000000000000000000000000000000000000000000000000000000000\n        /* \"github.com/OpenZeppelin/openzeppelin-contracts/blob/master/contracts/utils/Strings.sol\":2223:2229  buffer */\n      dup2\n        /* \"github.com/OpenZeppelin/openzeppelin-contracts/blob/master/contracts/utils/Strings.sol\":2230:2231  1 */\n      0x01\n        /* \"github.com/OpenZeppelin/openzeppelin-contracts/blob/master/contracts/utils/Strings.sol\":2223:2232  buffer[1] */\n      dup2\n      mload\n      dup2\n      lt\n      tag_222\n      jumpi\n      tag_223\n      tag_90\n      jump\t// in\n    tag_223:\n    tag_222:\n      0x20\n      add\n      add\n        /* \"github.com/OpenZeppelin/openzeppelin-contracts/blob/master/contracts/utils/Strings.sol\":2223:2238  buffer[1] = \"x\" */\n      swap1\n      not(0xffffffffffffffffffffffffffffffffffffffffffffffffffffffffffffff)\n      and\n      swap1\n      dup2\n      0x00\n      byte\n      swap1\n      mstore8\n      pop\n        /* \"github.com/OpenZeppelin/openzeppelin-contracts/blob/master/contracts/utils/Strings.sol\":2253:2262  uint256 i */\n      0x00\n        /* \"github.com/OpenZeppelin/openzeppelin-contracts/blob/master/contracts/utils/Strings.sol\":2278:2279  1 */\n      0x01\n        /* \"github.com/OpenZeppelin/openzeppelin-contracts/blob/master/contracts/utils/Strings.sol\":2269:2275  length */\n      dup6\n        /* \"github.com/OpenZeppelin/openzeppelin-contracts/blob/master/contracts/utils/Strings.sol\":2265:2266  2 */\n      0x02\n        /* \"github.com/OpenZeppelin/openzeppelin-contracts/blob/master/contracts/utils/Strings.sol\":2265:2275  2 * length */\n      tag_227\n      swap2\n      swap1\n      tag_184\n      jump\t// in\n    tag_227:\n        /* \"github.com/OpenZeppelin/openzeppelin-contracts/blob/master/contracts/utils/Strings.sol\":2265:2279  2 * length + 1 */\n      tag_228\n      swap2\n      swap1\n      tag_100\n      jump\t// in\n    tag_228:\n        /* \"github.com/OpenZeppelin/openzeppelin-contracts/blob/master/contracts/utils/Strings.sol\":2253:2279  uint256 i = 2 * length + 1 */\n      swap1\n      pop\n        /* \"github.com/OpenZeppelin/openzeppelin-contracts/blob/master/contracts/utils/Strings.sol\":2248:2388  for (uint256 i = 2 * length + 1; i > 1; --i) {... */\n    tag_224:\n        /* \"github.com/OpenZeppelin/openzeppelin-contracts/blob/master/contracts/utils/Strings.sol\":2285:2286  1 */\n      0x01\n        /* \"github.com/OpenZeppelin/openzeppelin-contracts/blob/master/contracts/utils/Strings.sol\":2281:2282  i */\n      dup2\n        /* \"github.com/OpenZeppelin/openzeppelin-contracts/blob/master/contracts/utils/Strings.sol\":2281:2286  i > 1 */\n      gt\n        /* \"github.com/OpenZeppelin/openzeppelin-contracts/blob/master/contracts/utils/Strings.sol\":2248:2388  for (uint256 i = 2 * length + 1; i > 1; --i) {... */\n      iszero\n      tag_225\n      jumpi\n        /* \"github.com/OpenZeppelin/openzeppelin-contracts/blob/master/contracts/utils/Strings.sol\":2319:2329  HEX_DIGITS */\n      0x3031323334353637383961626364656600000000000000000000000000000000\n        /* \"github.com/OpenZeppelin/openzeppelin-contracts/blob/master/contracts/utils/Strings.sol\":2343:2346  0xf */\n      0x0f\n        /* \"github.com/OpenZeppelin/openzeppelin-contracts/blob/master/contracts/utils/Strings.sol\":2330:2340  localValue */\n      dup5\n        /* \"github.com/OpenZeppelin/openzeppelin-contracts/blob/master/contracts/utils/Strings.sol\":2330:2346  localValue & 0xf */\n      and\n        /* \"github.com/OpenZeppelin/openzeppelin-contracts/blob/master/contracts/utils/Strings.sol\":2319:2347  HEX_DIGITS[localValue & 0xf] */\n      0x10\n      dup2\n      lt\n      tag_229\n      jumpi\n      tag_230\n      tag_90\n      jump\t// in\n    tag_230:\n    tag_229:\n      byte\n      0xf8\n      shl\n        /* \"github.com/OpenZeppelin/openzeppelin-contracts/blob/master/contracts/utils/Strings.sol\":2307:2313  buffer */\n      dup3\n        /* \"github.com/OpenZeppelin/openzeppelin-contracts/blob/master/contracts/utils/Strings.sol\":2314:2315  i */\n      dup3\n        /* \"github.com/OpenZeppelin/openzeppelin-contracts/blob/master/contracts/utils/Strings.sol\":2307:2316  buffer[i] */\n      dup2\n      mload\n      dup2\n      lt\n      tag_231\n      jumpi\n      tag_232\n      tag_90\n      jump\t// in\n    tag_232:\n    tag_231:\n      0x20\n      add\n      add\n        /* \"github.com/OpenZeppelin/openzeppelin-contracts/blob/master/contracts/utils/Strings.sol\":2307:2347  buffer[i] = HEX_DIGITS[localValue & 0xf] */\n      swap1\n      not(0xffffffffffffffffffffffffffffffffffffffffffffffffffffffffffffff)\n      and\n      swap1\n      dup2\n      0x00\n      byte\n      swap1\n      mstore8\n      pop\n        /* \"github.com/OpenZeppelin/openzeppelin-contracts/blob/master/contracts/utils/Strings.sol\":2376:2377  4 */\n      0x04\n        /* \"github.com/OpenZeppelin/openzeppelin-contracts/blob/master/contracts/utils/Strings.sol\":2361:2377  localValue >>= 4 */\n      dup4\n      swap1\n      shr\n      swap3\n      pop\n        /* \"github.com/OpenZeppelin/openzeppelin-contracts/blob/master/contracts/utils/Strings.sol\":2288:2291  --i */\n      dup1\n      tag_233\n      swap1\n      tag_234\n      jump\t// in\n    tag_233:\n      swap1\n      pop\n        /* \"github.com/OpenZeppelin/openzeppelin-contracts/blob/master/contracts/utils/Strings.sol\":2248:2388  for (uint256 i = 2 * length + 1; i > 1; --i) {... */\n      jump(tag_224)\n    tag_225:\n      pop\n        /* \"github.com/OpenZeppelin/openzeppelin-contracts/blob/master/contracts/utils/Strings.sol\":2415:2416  0 */\n      0x00\n        /* \"github.com/OpenZeppelin/openzeppelin-contracts/blob/master/contracts/utils/Strings.sol\":2401:2411  localValue */\n      dup3\n        /* \"github.com/OpenZeppelin/openzeppelin-contracts/blob/master/contracts/utils/Strings.sol\":2401:2416  localValue != 0 */\n      eq\n        /* \"github.com/OpenZeppelin/openzeppelin-contracts/blob/master/contracts/utils/Strings.sol\":2397:2493  if (localValue != 0) {... */\n      tag_235\n      jumpi\n        /* \"github.com/OpenZeppelin/openzeppelin-contracts/blob/master/contracts/utils/Strings.sol\":2468:2473  value */\n      dup5\n        /* \"github.com/OpenZeppelin/openzeppelin-contracts/blob/master/contracts/utils/Strings.sol\":2475:2481  length */\n      dup5\n        /* \"github.com/OpenZeppelin/openzeppelin-contracts/blob/master/contracts/utils/Strings.sol\":2439:2482  StringsInsufficientHexLength(value, length) */\n      mload(0x40)\n      0xe22e27eb00000000000000000000000000000000000000000000000000000000\n      dup2\n      mstore\n      0x04\n      add\n      tag_236\n      swap3\n      swap2\n      swap1\n      tag_237\n      jump\t// in\n    tag_236:\n      mload(0x40)\n      dup1\n      swap2\n      sub\n      swap1\n      revert\n        /* \"github.com/OpenZeppelin/openzeppelin-contracts/blob/master/contracts/utils/Strings.sol\":2397:2493  if (localValue != 0) {... */\n    tag_235:\n        /* \"github.com/OpenZeppelin/openzeppelin-contracts/blob/master/contracts/utils/Strings.sol\":2516:2522  buffer */\n      dup1\n        /* \"github.com/OpenZeppelin/openzeppelin-contracts/blob/master/contracts/utils/Strings.sol\":2502:2523  return string(buffer) */\n      swap3\n      pop\n      pop\n      pop\n        /* \"github.com/OpenZeppelin/openzeppelin-contracts/blob/master/contracts/utils/Strings.sol\":2005:2530  function toHexString(uint256 value, uint256 length) internal pure returns (string memory) {... */\n      swap3\n      swap2\n      pop\n      pop\n      jump\t// out\n    tag_114:\n      pop\n      dup1\n      sload\n      tag_238\n      swap1\n      tag_239\n      jump\t// in\n    tag_238:\n      0x00\n      dup3\n      sstore\n      dup1\n      0x1f\n      lt\n      tag_241\n      jumpi\n      pop\n      jump(tag_240)\n    tag_241:\n      0x1f\n      add\n      0x20\n      swap1\n      div\n      swap1\n      0x00\n      mstore\n      keccak256(0x00, 0x20)\n      swap1\n      dup2\n      add\n      swap1\n      tag_242\n      swap2\n      swap1\n      tag_243\n      jump\t// in\n    tag_242:\n    tag_240:\n      pop\n      jump\t// out\n    tag_243:\n    tag_244:\n      dup1\n      dup3\n      gt\n      iszero\n      tag_245\n      jumpi\n      0x00\n      dup2\n      0x00\n      swap1\n      sstore\n      pop\n      0x01\n      add\n      jump(tag_244)\n    tag_245:\n      pop\n      swap1\n      jump\t// out\n        /* \"#utility.yul\":88:205   */\n    tag_247:\n        /* \"#utility.yul\":197:198   */\n      0x00\n        /* \"#utility.yul\":194:195   */\n      dup1\n        /* \"#utility.yul\":187:199   */\n      revert\n        /* \"#utility.yul\":334:483   */\n    tag_249:\n        /* \"#utility.yul\":370:377   */\n      0x00\n        /* \"#utility.yul\":410:476   */\n      0xffffffff00000000000000000000000000000000000000000000000000000000\n        /* \"#utility.yul\":403:408   */\n      dup3\n        /* \"#utility.yul\":399:477   */\n      and\n        /* \"#utility.yul\":388:477   */\n      swap1\n      pop\n        /* \"#utility.yul\":334:483   */\n      swap2\n      swap1\n      pop\n      jump\t// out\n        /* \"#utility.yul\":489:609   */\n    tag_250:\n        /* \"#utility.yul\":561:584   */\n      tag_308\n        /* \"#utility.yul\":578:583   */\n      dup2\n        /* \"#utility.yul\":561:584   */\n      tag_249\n      jump\t// in\n    tag_308:\n        /* \"#utility.yul\":554:559   */\n      dup2\n        /* \"#utility.yul\":551:585   */\n      eq\n        /* \"#utility.yul\":541:603   */\n      tag_309\n      jumpi\n        /* \"#utility.yul\":599:600   */\n      0x00\n        /* \"#utility.yul\":596:597   */\n      dup1\n        /* \"#utility.yul\":589:601   */\n      revert\n        /* \"#utility.yul\":541:603   */\n    tag_309:\n        /* \"#utility.yul\":489:609   */\n      pop\n      jump\t// out\n        /* \"#utility.yul\":615:752   */\n    tag_251:\n        /* \"#utility.yul\":660:665   */\n      0x00\n        /* \"#utility.yul\":698:704   */\n      dup2\n        /* \"#utility.yul\":685:705   */\n      calldataload\n        /* \"#utility.yul\":676:705   */\n      swap1\n      pop\n        /* \"#utility.yul\":714:746   */\n      tag_311\n        /* \"#utility.yul\":740:745   */\n      dup2\n        /* \"#utility.yul\":714:746   */\n      tag_250\n      jump\t// in\n    tag_311:\n        /* \"#utility.yul\":615:752   */\n      swap3\n      swap2\n      pop\n      pop\n      jump\t// out\n        /* \"#utility.yul\":758:1085   */\n    tag_17:\n        /* \"#utility.yul\":816:822   */\n      0x00\n        /* \"#utility.yul\":865:867   */\n      0x20\n        /* \"#utility.yul\":853:862   */\n      dup3\n        /* \"#utility.yul\":844:851   */\n      dup5\n        /* \"#utility.yul\":840:863   */\n      sub\n        /* \"#utility.yul\":836:868   */\n      slt\n        /* \"#utility.yul\":833:952   */\n      iszero\n      tag_313\n      jumpi\n        /* \"#utility.yul\":871:950   */\n      tag_314\n      tag_247\n      jump\t// in\n    tag_314:\n        /* \"#utility.yul\":833:952   */\n    tag_313:\n        /* \"#utility.yul\":991:992   */\n      0x00\n        /* \"#utility.yul\":1016:1068   */\n      tag_315\n        /* \"#utility.yul\":1060:1067   */\n      dup5\n        /* \"#utility.yul\":1051:1057   */\n      dup3\n        /* \"#utility.yul\":1040:1049   */\n      dup6\n        /* \"#utility.yul\":1036:1058   */\n      add\n        /* \"#utility.yul\":1016:1068   */\n      tag_251\n      jump\t// in\n    tag_315:\n        /* \"#utility.yul\":1006:1068   */\n      swap2\n      pop\n        /* \"#utility.yul\":962:1078   */\n      pop\n        /* \"#utility.yul\":758:1085   */\n      swap3\n      swap2\n      pop\n      pop\n      jump\t// out\n        /* \"#utility.yul\":1091:1181   */\n    tag_252:\n        /* \"#utility.yul\":1125:1132   */\n      0x00\n        /* \"#utility.yul\":1168:1173   */\n      dup2\n        /* \"#utility.yul\":1161:1174   */\n      iszero\n        /* \"#utility.yul\":1154:1175   */\n      iszero\n        /* \"#utility.yul\":1143:1175   */\n      swap1\n      pop\n        /* \"#utility.yul\":1091:1181   */\n      swap2\n      swap1\n      pop\n      jump\t// out\n        /* \"#utility.yul\":1187:1296   */\n    tag_253:\n        /* \"#utility.yul\":1268:1289   */\n      tag_318\n        /* \"#utility.yul\":1283:1288   */\n      dup2\n        /* \"#utility.yul\":1268:1289   */\n      tag_252\n      jump\t// in\n    tag_318:\n        /* \"#utility.yul\":1263:1266   */\n      dup3\n        /* \"#utility.yul\":1256:1290   */\n      mstore\n        /* \"#utility.yul\":1187:1296   */\n      pop\n      pop\n      jump\t// out\n        /* \"#utility.yul\":1302:1512   */\n    tag_20:\n        /* \"#utility.yul\":1389:1393   */\n      0x00\n        /* \"#utility.yul\":1427:1429   */\n      0x20\n        /* \"#utility.yul\":1416:1425   */\n      dup3\n        /* \"#utility.yul\":1412:1430   */\n      add\n        /* \"#utility.yul\":1404:1430   */\n      swap1\n      pop\n        /* \"#utility.yul\":1440:1505   */\n      tag_320\n        /* \"#utility.yul\":1502:1503   */\n      0x00\n        /* \"#utility.yul\":1491:1500   */\n      dup4\n        /* \"#utility.yul\":1487:1504   */\n      add\n        /* \"#utility.yul\":1478:1484   */\n      dup5\n        /* \"#utility.yul\":1440:1505   */\n      tag_253\n      jump\t// in\n    tag_320:\n        /* \"#utility.yul\":1302:1512   */\n      swap3\n      swap2\n      pop\n      pop\n      jump\t// out\n        /* \"#utility.yul\":1518:1595   */\n    tag_254:\n        /* \"#utility.yul\":1555:1562   */\n      0x00\n        /* \"#utility.yul\":1584:1589   */\n      dup2\n        /* \"#utility.yul\":1573:1589   */\n      swap1\n      pop\n        /* \"#utility.yul\":1518:1595   */\n      swap2\n      swap1\n      pop\n      jump\t// out\n        /* \"#utility.yul\":1601:1723   */\n    tag_255:\n        /* \"#utility.yul\":1674:1698   */\n      tag_323\n        /* \"#utility.yul\":1692:1697   */\n      dup2\n        /* \"#utility.yul\":1674:1698   */\n      tag_254\n      jump\t// in\n    tag_323:\n        /* \"#utility.yul\":1667:1672   */\n      dup2\n        /* \"#utility.yul\":1664:1699   */\n      eq\n        /* \"#utility.yul\":1654:1717   */\n      tag_324\n      jumpi\n        /* \"#utility.yul\":1713:1714   */\n      0x00\n        /* \"#utility.yul\":1710:1711   */\n      dup1\n        /* \"#utility.yul\":1703:1715   */\n      revert\n        /* \"#utility.yul\":1654:1717   */\n    tag_324:\n        /* \"#utility.yul\":1601:1723   */\n      pop\n      jump\t// out\n        /* \"#utility.yul\":1729:1868   */\n    tag_256:\n        /* \"#utility.yul\":1775:1780   */\n      0x00\n        /* \"#utility.yul\":1813:1819   */\n      dup2\n        /* \"#utility.yul\":1800:1820   */\n      calldataload\n        /* \"#utility.yul\":1791:1820   */\n      swap1\n      pop\n        /* \"#utility.yul\":1829:1862   */\n      tag_326\n        /* \"#utility.yul\":1856:1861   */\n      dup2\n        /* \"#utility.yul\":1829:1862   */\n      tag_255\n      jump\t// in\n    tag_326:\n        /* \"#utility.yul\":1729:1868   */\n      swap3\n      swap2\n      pop\n      pop\n      jump\t// out\n        /* \"#utility.yul\":1874:2203   */\n    tag_23:\n        /* \"#utility.yul\":1933:1939   */\n      0x00\n        /* \"#utility.yul\":1982:1984   */\n      0x20\n        /* \"#utility.yul\":1970:1979   */\n      dup3\n        /* \"#utility.yul\":1961:1968   */\n      dup5\n        /* \"#utility.yul\":1957:1980   */\n      sub\n        /* \"#utility.yul\":1953:1985   */\n      slt\n        /* \"#utility.yul\":1950:2069   */\n      iszero\n      tag_328\n      jumpi\n        /* \"#utility.yul\":1988:2067   */\n      tag_329\n      tag_247\n      jump\t// in\n    tag_329:\n        /* \"#utility.yul\":1950:2069   */\n    tag_328:\n        /* \"#utility.yul\":2108:2109   */\n      0x00\n        /* \"#utility.yul\":2133:2186   */\n      tag_330\n        /* \"#utility.yul\":2178:2185   */\n      dup5\n        /* \"#utility.yul\":2169:2175   */\n      dup3\n        /* \"#utility.yul\":2158:2167   */\n      dup6\n        /* \"#utility.yul\":2154:2176   */\n      add\n        /* \"#utility.yul\":2133:2186   */\n      tag_256\n      jump\t// in\n    tag_330:\n        /* \"#utility.yul\":2123:2186   */\n      swap2\n      pop\n        /* \"#utility.yul\":2079:2196   */\n      pop\n        /* \"#utility.yul\":1874:2203   */\n      swap3\n      swap2\n      pop\n      pop\n      jump\t// out\n        /* \"#utility.yul\":2209:2327   */\n    tag_257:\n        /* \"#utility.yul\":2296:2320   */\n      tag_332\n        /* \"#utility.yul\":2314:2319   */\n      dup2\n        /* \"#utility.yul\":2296:2320   */\n      tag_254\n      jump\t// in\n    tag_332:\n        /* \"#utility.yul\":2291:2294   */\n      dup3\n        /* \"#utility.yul\":2284:2321   */\n      mstore\n        /* \"#utility.yul\":2209:2327   */\n      pop\n      pop\n      jump\t// out\n        /* \"#utility.yul\":2333:2555   */\n    tag_26:\n        /* \"#utility.yul\":2426:2430   */\n      0x00\n        /* \"#utility.yul\":2464:2466   */\n      0x20\n        /* \"#utility.yul\":2453:2462   */\n      dup3\n        /* \"#utility.yul\":2449:2467   */\n      add\n        /* \"#utility.yul\":2441:2467   */\n      swap1\n      pop\n        /* \"#utility.yul\":2477:2548   */\n      tag_334\n        /* \"#utility.yul\":2545:2546   */\n      0x00\n        /* \"#utility.yul\":2534:2543   */\n      dup4\n        /* \"#utility.yul\":2530:2547   */\n      add\n        /* \"#utility.yul\":2521:2527   */\n      dup5\n        /* \"#utility.yul\":2477:2548   */\n      tag_257\n      jump\t// in\n    tag_334:\n        /* \"#utility.yul\":2333:2555   */\n      swap3\n      swap2\n      pop\n      pop\n      jump\t// out\n        /* \"#utility.yul\":2561:2687   */\n    tag_258:\n        /* \"#utility.yul\":2598:2605   */\n      0x00\n        /* \"#utility.yul\":2638:2680   */\n      0xffffffffffffffffffffffffffffffffffffffff\n        /* \"#utility.yul\":2631:2636   */\n      dup3\n        /* \"#utility.yul\":2627:2681   */\n      and\n        /* \"#utility.yul\":2616:2681   */\n      swap1\n      pop\n        /* \"#utility.yul\":2561:2687   */\n      swap2\n      swap1\n      pop\n      jump\t// out\n        /* \"#utility.yul\":2693:2789   */\n    tag_259:\n        /* \"#utility.yul\":2730:2737   */\n      0x00\n        /* \"#utility.yul\":2759:2783   */\n      tag_337\n        /* \"#utility.yul\":2777:2782   */\n      dup3\n        /* \"#utility.yul\":2759:2783   */\n      tag_258\n      jump\t// in\n    tag_337:\n        /* \"#utility.yul\":2748:2783   */\n      swap1\n      pop\n        /* \"#utility.yul\":2693:2789   */\n      swap2\n      swap1\n      pop\n      jump\t// out\n        /* \"#utility.yul\":2795:2917   */\n    tag_260:\n        /* \"#utility.yul\":2868:2892   */\n      tag_339\n        /* \"#utility.yul\":2886:2891   */\n      dup2\n        /* \"#utility.yul\":2868:2892   */\n      tag_259\n      jump\t// in\n    tag_339:\n        /* \"#utility.yul\":2861:2866   */\n      dup2\n        /* \"#utility.yul\":2858:2893   */\n      eq\n        /* \"#utility.yul\":2848:2911   */\n      tag_340\n      jumpi\n        /* \"#utility.yul\":2907:2908   */\n      0x00\n        /* \"#utility.yul\":2904:2905   */\n      dup1\n        /* \"#utility.yul\":2897:2909   */\n      revert\n        /* \"#utility.yul\":2848:2911   */\n    tag_340:\n        /* \"#utility.yul\":2795:2917   */\n      pop\n      jump\t// out\n        /* \"#utility.yul\":2923:3062   */\n    tag_261:\n        /* \"#utility.yul\":2969:2974   */\n      0x00\n        /* \"#utility.yul\":3007:3013   */\n      dup2\n        /* \"#utility.yul\":2994:3014   */\n      calldataload\n        /* \"#utility.yul\":2985:3014   */\n      swap1\n      pop\n        /* \"#utility.yul\":3023:3056   */\n      tag_342\n        /* \"#utility.yul\":3050:3055   */\n      dup2\n        /* \"#utility.yul\":3023:3056   */\n      tag_260\n      jump\t// in\n    tag_342:\n        /* \"#utility.yul\":2923:3062   */\n      swap3\n      swap2\n      pop\n      pop\n      jump\t// out\n        /* \"#utility.yul\":3068:3542   */\n    tag_29:\n        /* \"#utility.yul\":3136:3142   */\n      0x00\n        /* \"#utility.yul\":3144:3150   */\n      dup1\n        /* \"#utility.yul\":3193:3195   */\n      0x40\n        /* \"#utility.yul\":3181:3190   */\n      dup4\n        /* \"#utility.yul\":3172:3179   */\n      dup6\n        /* \"#utility.yul\":3168:3191   */\n      sub\n        /* \"#utility.yul\":3164:3196   */\n      slt\n        /* \"#utility.yul\":3161:3280   */\n      iszero\n      tag_344\n      jumpi\n        /* \"#utility.yul\":3199:3278   */\n      tag_345\n      tag_247\n      jump\t// in\n    tag_345:\n        /* \"#utility.yul\":3161:3280   */\n    tag_344:\n        /* \"#utility.yul\":3319:3320   */\n      0x00\n        /* \"#utility.yul\":3344:3397   */\n      tag_346\n        /* \"#utility.yul\":3389:3396   */\n      dup6\n        /* \"#utility.yul\":3380:3386   */\n      dup3\n        /* \"#utility.yul\":3369:3378   */\n      dup7\n        /* \"#utility.yul\":3365:3387   */\n      add\n        /* \"#utility.yul\":3344:3397   */\n      tag_256\n      jump\t// in\n    tag_346:\n        /* \"#utility.yul\":3334:3397   */\n      swap3\n      pop\n        /* \"#utility.yul\":3290:3407   */\n      pop\n        /* \"#utility.yul\":3446:3448   */\n      0x20\n        /* \"#utility.yul\":3472:3525   */\n      tag_347\n        /* \"#utility.yul\":3517:3524   */\n      dup6\n        /* \"#utility.yul\":3508:3514   */\n      dup3\n        /* \"#utility.yul\":3497:3506   */\n      dup7\n        /* \"#utility.yul\":3493:3515   */\n      add\n        /* \"#utility.yul\":3472:3525   */\n      tag_261\n      jump\t// in\n    tag_347:\n        /* \"#utility.yul\":3462:3525   */\n      swap2\n      pop\n        /* \"#utility.yul\":3417:3535   */\n      pop\n        /* \"#utility.yul\":3068:3542   */\n      swap3\n      pop\n      swap3\n      swap1\n      pop\n      jump\t// out\n        /* \"#utility.yul\":3548:3877   */\n    tag_33:\n        /* \"#utility.yul\":3607:3613   */\n      0x00\n        /* \"#utility.yul\":3656:3658   */\n      0x20\n        /* \"#utility.yul\":3644:3653   */\n      dup3\n        /* \"#utility.yul\":3635:3642   */\n      dup5\n        /* \"#utility.yul\":3631:3654   */\n      sub\n        /* \"#utility.yul\":3627:3659   */\n      slt\n        /* \"#utility.yul\":3624:3743   */\n      iszero\n      tag_349\n      jumpi\n        /* \"#utility.yul\":3662:3741   */\n      tag_350\n      tag_247\n      jump\t// in\n    tag_350:\n        /* \"#utility.yul\":3624:3743   */\n    tag_349:\n        /* \"#utility.yul\":3782:3783   */\n      0x00\n        /* \"#utility.yul\":3807:3860   */\n      tag_351\n        /* \"#utility.yul\":3852:3859   */\n      dup5\n        /* \"#utility.yul\":3843:3849   */\n      dup3\n        /* \"#utility.yul\":3832:3841   */\n      dup6\n        /* \"#utility.yul\":3828:3850   */\n      add\n        /* \"#utility.yul\":3807:3860   */\n      tag_261\n      jump\t// in\n    tag_351:\n        /* \"#utility.yul\":3797:3860   */\n      swap2\n      pop\n        /* \"#utility.yul\":3753:3870   */\n      pop\n        /* \"#utility.yul\":3548:3877   */\n      swap3\n      swap2\n      pop\n      pop\n      jump\t// out\n        /* \"#utility.yul\":3883:4357   */\n    tag_37:\n        /* \"#utility.yul\":3951:3957   */\n      0x00\n        /* \"#utility.yul\":3959:3965   */\n      dup1\n        /* \"#utility.yul\":4008:4010   */\n      0x40\n        /* \"#utility.yul\":3996:4005   */\n      dup4\n        /* \"#utility.yul\":3987:3994   */\n      dup6\n        /* \"#utility.yul\":3983:4006   */\n      sub\n        /* \"#utility.yul\":3979:4011   */\n      slt\n        /* \"#utility.yul\":3976:4095   */\n      iszero\n      tag_353\n      jumpi\n        /* \"#utility.yul\":4014:4093   */\n      tag_354\n      tag_247\n      jump\t// in\n    tag_354:\n        /* \"#utility.yul\":3976:4095   */\n    tag_353:\n        /* \"#utility.yul\":4134:4135   */\n      0x00\n        /* \"#utility.yul\":4159:4212   */\n      tag_355\n        /* \"#utility.yul\":4204:4211   */\n      dup6\n        /* \"#utility.yul\":4195:4201   */\n      dup3\n        /* \"#utility.yul\":4184:4193   */\n      dup7\n        /* \"#utility.yul\":4180:4202   */\n      add\n        /* \"#utility.yul\":4159:4212   */\n      tag_261\n      jump\t// in\n    tag_355:\n        /* \"#utility.yul\":4149:4212   */\n      swap3\n      pop\n        /* \"#utility.yul\":4105:4222   */\n      pop\n        /* \"#utility.yul\":4261:4263   */\n      0x20\n        /* \"#utility.yul\":4287:4340   */\n      tag_356\n        /* \"#utility.yul\":4332:4339   */\n      dup6\n        /* \"#utility.yul\":4323:4329   */\n      dup3\n        /* \"#utility.yul\":4312:4321   */\n      dup7\n        /* \"#utility.yul\":4308:4330   */\n      add\n        /* \"#utility.yul\":4287:4340   */\n      tag_261\n      jump\t// in\n    tag_356:\n        /* \"#utility.yul\":4277:4340   */\n      swap2\n      pop\n        /* \"#utility.yul\":4232:4350   */\n      pop\n        /* \"#utility.yul\":3883:4357   */\n      swap3\n      pop\n      swap3\n      swap1\n      pop\n      jump\t// out\n        /* \"#utility.yul\":4363:4481   */\n    tag_262:\n        /* \"#utility.yul\":4450:4474   */\n      tag_358\n        /* \"#utility.yul\":4468:4473   */\n      dup2\n        /* \"#utility.yul\":4450:4474   */\n      tag_259\n      jump\t// in\n    tag_358:\n        /* \"#utility.yul\":4445:4448   */\n      dup3\n        /* \"#utility.yul\":4438:4475   */\n      mstore\n        /* \"#utility.yul\":4363:4481   */\n      pop\n      pop\n      jump\t// out\n        /* \"#utility.yul\":4487:4709   */\n    tag_42:\n        /* \"#utility.yul\":4580:4584   */\n      0x00\n        /* \"#utility.yul\":4618:4620   */\n      0x20\n        /* \"#utility.yul\":4607:4616   */\n      dup3\n        /* \"#utility.yul\":4603:4621   */\n      add\n        /* \"#utility.yul\":4595:4621   */\n      swap1\n      pop\n        /* \"#utility.yul\":4631:4702   */\n      tag_360\n        /* \"#utility.yul\":4699:4700   */\n      0x00\n        /* \"#utility.yul\":4688:4697   */\n      dup4\n        /* \"#utility.yul\":4684:4701   */\n      add\n        /* \"#utility.yul\":4675:4681   */\n      dup5\n        /* \"#utility.yul\":4631:4702   */\n      tag_262\n      jump\t// in\n    tag_360:\n        /* \"#utility.yul\":4487:4709   */\n      swap3\n      swap2\n      pop\n      pop\n      jump\t// out\n        /* \"#utility.yul\":4715:4884   */\n    tag_263:\n        /* \"#utility.yul\":4799:4810   */\n      0x00\n        /* \"#utility.yul\":4833:4839   */\n      dup3\n        /* \"#utility.yul\":4828:4831   */\n      dup3\n        /* \"#utility.yul\":4821:4840   */\n      mstore\n        /* \"#utility.yul\":4873:4877   */\n      0x20\n        /* \"#utility.yul\":4868:4871   */\n      dup3\n        /* \"#utility.yul\":4864:4878   */\n      add\n        /* \"#utility.yul\":4849:4878   */\n      swap1\n      pop\n        /* \"#utility.yul\":4715:4884   */\n      swap3\n      swap2\n      pop\n      pop\n      jump\t// out\n        /* \"#utility.yul\":4890:5124   */\n    tag_264:\n        /* \"#utility.yul\":5030:5064   */\n      0x416363657373436f6e74726f6c3a2063616e206f6e6c792072656e6f756e6365\n        /* \"#utility.yul\":5026:5027   */\n      0x00\n        /* \"#utility.yul\":5018:5024   */\n      dup3\n        /* \"#utility.yul\":5014:5028   */\n      add\n        /* \"#utility.yul\":5007:5065   */\n      mstore\n        /* \"#utility.yul\":5099:5116   */\n      0x20726f6c657320666f722073656c660000000000000000000000000000000000\n        /* \"#utility.yul\":5094:5096   */\n      0x20\n        /* \"#utility.yul\":5086:5092   */\n      dup3\n        /* \"#utility.yul\":5082:5097   */\n      add\n        /* \"#utility.yul\":5075:5117   */\n      mstore\n        /* \"#utility.yul\":4890:5124   */\n      pop\n      jump\t// out\n        /* \"#utility.yul\":5130:5496   */\n    tag_265:\n        /* \"#utility.yul\":5272:5275   */\n      0x00\n        /* \"#utility.yul\":5293:5360   */\n      tag_364\n        /* \"#utility.yul\":5357:5359   */\n      0x2f\n        /* \"#utility.yul\":5352:5355   */\n      dup4\n        /* \"#utility.yul\":5293:5360   */\n      tag_263\n      jump\t// in\n    tag_364:\n        /* \"#utility.yul\":5286:5360   */\n      swap2\n      pop\n        /* \"#utility.yul\":5369:5462   */\n      tag_365\n        /* \"#utility.yul\":5458:5461   */\n      dup3\n        /* \"#utility.yul\":5369:5462   */\n      tag_264\n      jump\t// in\n    tag_365:\n        /* \"#utility.yul\":5487:5489   */\n      0x40\n        /* \"#utility.yul\":5482:5485   */\n      dup3\n        /* \"#utility.yul\":5478:5490   */\n      add\n        /* \"#utility.yul\":5471:5490   */\n      swap1\n      pop\n        /* \"#utility.yul\":5130:5496   */\n      swap2\n      swap1\n      pop\n      jump\t// out\n        /* \"#utility.yul\":5502:5921   */\n    tag_65:\n        /* \"#utility.yul\":5668:5672   */\n      0x00\n        /* \"#utility.yul\":5706:5708   */\n      0x20\n        /* \"#utility.yul\":5695:5704   */\n      dup3\n        /* \"#utility.yul\":5691:5709   */\n      add\n        /* \"#utility.yul\":5683:5709   */\n      swap1\n      pop\n        /* \"#utility.yul\":5755:5764   */\n      dup2\n        /* \"#utility.yul\":5749:5753   */\n      dup2\n        /* \"#utility.yul\":5745:5765   */\n      sub\n        /* \"#utility.yul\":5741:5742   */\n      0x00\n        /* \"#utility.yul\":5730:5739   */\n      dup4\n        /* \"#utility.yul\":5726:5743   */\n      add\n        /* \"#utility.yul\":5719:5766   */\n      mstore\n        /* \"#utility.yul\":5783:5914   */\n      tag_367\n        /* \"#utility.yul\":5909:5913   */\n      dup2\n        /* \"#utility.yul\":5783:5914   */\n      tag_265\n      jump\t// in\n    tag_367:\n        /* \"#utility.yul\":5775:5914   */\n      swap1\n      pop\n        /* \"#utility.yul\":5502:5921   */\n      swap2\n      swap1\n      pop\n      jump\t// out\n        /* \"#utility.yul\":5927:6004   */\n    tag_266:\n        /* \"#utility.yul\":5964:5971   */\n      0x00\n        /* \"#utility.yul\":5993:5998   */\n      dup2\n        /* \"#utility.yul\":5982:5998   */\n      swap1\n      pop\n        /* \"#utility.yul\":5927:6004   */\n      swap2\n      swap1\n      pop\n      jump\t// out\n        /* \"#utility.yul\":6010:6190   */\n    tag_267:\n        /* \"#utility.yul\":6058:6135   */\n      0x4e487b7100000000000000000000000000000000000000000000000000000000\n        /* \"#utility.yul\":6055:6056   */\n      0x00\n        /* \"#utility.yul\":6048:6136   */\n      mstore\n        /* \"#utility.yul\":6155:6159   */\n      0x11\n        /* \"#utility.yul\":6152:6153   */\n      0x04\n        /* \"#utility.yul\":6145:6160   */\n      mstore\n        /* \"#utility.yul\":6179:6183   */\n      0x24\n        /* \"#utility.yul\":6176:6177   */\n      0x00\n        /* \"#utility.yul\":6169:6184   */\n      revert\n        /* \"#utility.yul\":6196:6390   */\n    tag_87:\n        /* \"#utility.yul\":6236:6240   */\n      0x00\n        /* \"#utility.yul\":6256:6276   */\n      tag_371\n        /* \"#utility.yul\":6274:6275   */\n      dup3\n        /* \"#utility.yul\":6256:6276   */\n      tag_266\n      jump\t// in\n    tag_371:\n        /* \"#utility.yul\":6251:6276   */\n      swap2\n      pop\n        /* \"#utility.yul\":6290:6310   */\n      tag_372\n        /* \"#utility.yul\":6308:6309   */\n      dup4\n        /* \"#utility.yul\":6290:6310   */\n      tag_266\n      jump\t// in\n    tag_372:\n        /* \"#utility.yul\":6285:6310   */\n      swap3\n      pop\n        /* \"#utility.yul\":6334:6335   */\n      dup3\n        /* \"#utility.yul\":6331:6332   */\n      dup3\n        /* \"#utility.yul\":6327:6336   */\n      sub\n        /* \"#utility.yul\":6319:6336   */\n      swap1\n      pop\n        /* \"#utility.yul\":6358:6359   */\n      dup2\n        /* \"#utility.yul\":6352:6356   */\n      dup2\n        /* \"#utility.yul\":6349:6360   */\n      gt\n        /* \"#utility.yul\":6346:6383   */\n      iszero\n      tag_373\n      jumpi\n        /* \"#utility.yul\":6363:6381   */\n      tag_374\n      tag_267\n      jump\t// in\n    tag_374:\n        /* \"#utility.yul\":6346:6383   */\n    tag_373:\n        /* \"#utility.yul\":6196:6390   */\n      swap3\n      swap2\n      pop\n      pop\n      jump\t// out\n        /* \"#utility.yul\":6396:6576   */\n    tag_90:\n        /* \"#utility.yul\":6444:6521   */\n      0x4e487b7100000000000000000000000000000000000000000000000000000000\n        /* \"#utility.yul\":6441:6442   */\n      0x00\n        /* \"#utility.yul\":6434:6522   */\n      mstore\n        /* \"#utility.yul\":6541:6545   */\n      0x32\n        /* \"#utility.yul\":6538:6539   */\n      0x04\n        /* \"#utility.yul\":6531:6546   */\n      mstore\n        /* \"#utility.yul\":6565:6569   */\n      0x24\n        /* \"#utility.yul\":6562:6563   */\n      0x00\n        /* \"#utility.yul\":6555:6570   */\n      revert\n        /* \"#utility.yul\":6582:6762   */\n    tag_268:\n        /* \"#utility.yul\":6630:6707   */\n      0x4e487b7100000000000000000000000000000000000000000000000000000000\n        /* \"#utility.yul\":6627:6628   */\n      0x00\n        /* \"#utility.yul\":6620:6708   */\n      mstore\n        /* \"#utility.yul\":6727:6731   */\n      0x22\n        /* \"#utility.yul\":6724:6725   */\n      0x04\n        /* \"#utility.yul\":6717:6732   */\n      mstore\n        /* \"#utility.yul\":6751:6755   */\n      0x24\n        /* \"#utility.yul\":6748:6749   */\n      0x00\n        /* \"#utility.yul\":6741:6756   */\n      revert\n        /* \"#utility.yul\":6768:7088   */\n    tag_239:\n        /* \"#utility.yul\":6812:6818   */\n      0x00\n        /* \"#utility.yul\":6849:6850   */\n      0x02\n        /* \"#utility.yul\":6843:6847   */\n      dup3\n        /* \"#utility.yul\":6839:6851   */\n      div\n        /* \"#utility.yul\":6829:6851   */\n      swap1\n      pop\n        /* \"#utility.yul\":6896:6897   */\n      0x01\n        /* \"#utility.yul\":6890:6894   */\n      dup3\n        /* \"#utility.yul\":6886:6898   */\n      and\n        /* \"#utility.yul\":6917:6935   */\n      dup1\n        /* \"#utility.yul\":6907:6988   */\n      tag_378\n      jumpi\n        /* \"#utility.yul\":6973:6977   */\n      0x7f\n        /* \"#utility.yul\":6965:6971   */\n      dup3\n        /* \"#utility.yul\":6961:6978   */\n      and\n        /* \"#utility.yul\":6951:6978   */\n      swap2\n      pop\n        /* \"#utility.yul\":6907:6988   */\n    tag_378:\n        /* \"#utility.yul\":7035:7037   */\n      0x20\n        /* \"#utility.yul\":7027:7033   */\n      dup3\n        /* \"#utility.yul\":7024:7038   */\n      lt\n        /* \"#utility.yul\":7004:7022   */\n      dup2\n        /* \"#utility.yul\":7001:7039   */\n      sub\n        /* \"#utility.yul\":6998:7082   */\n      tag_379\n      jumpi\n        /* \"#utility.yul\":7054:7072   */\n      tag_380\n      tag_268\n      jump\t// in\n    tag_380:\n        /* \"#utility.yul\":6998:7082   */\n    tag_379:\n        /* \"#utility.yul\":6819:7088   */\n      pop\n        /* \"#utility.yul\":6768:7088   */\n      swap2\n      swap1\n      pop\n      jump\t// out\n        /* \"#utility.yul\":7094:7242   */\n    tag_269:\n        /* \"#utility.yul\":7196:7207   */\n      0x00\n        /* \"#utility.yul\":7233:7236   */\n      dup2\n        /* \"#utility.yul\":7218:7236   */\n      swap1\n      pop\n        /* \"#utility.yul\":7094:7242   */\n      swap3\n      swap2\n      pop\n      pop\n      jump\t// out\n        /* \"#utility.yul\":7248:7389   */\n    tag_270:\n        /* \"#utility.yul\":7297:7301   */\n      0x00\n        /* \"#utility.yul\":7320:7323   */\n      dup2\n        /* \"#utility.yul\":7312:7323   */\n      swap1\n      pop\n        /* \"#utility.yul\":7343:7346   */\n      dup2\n        /* \"#utility.yul\":7340:7341   */\n      0x00\n        /* \"#utility.yul\":7333:7347   */\n      mstore\n        /* \"#utility.yul\":7377:7381   */\n      0x20\n        /* \"#utility.yul\":7374:7375   */\n      0x00\n        /* \"#utility.yul\":7364:7382   */\n      keccak256\n        /* \"#utility.yul\":7356:7382   */\n      swap1\n      pop\n        /* \"#utility.yul\":7248:7389   */\n      swap2\n      swap1\n      pop\n      jump\t// out\n        /* \"#utility.yul\":7419:8293   */\n    tag_271:\n        /* \"#utility.yul\":7522:7525   */\n      0x00\n        /* \"#utility.yul\":7559:7564   */\n      dup2\n        /* \"#utility.yul\":7553:7565   */\n      sload\n        /* \"#utility.yul\":7588:7624   */\n      tag_384\n        /* \"#utility.yul\":7614:7623   */\n      dup2\n        /* \"#utility.yul\":7588:7624   */\n      tag_239\n      jump\t// in\n    tag_384:\n        /* \"#utility.yul\":7640:7729   */\n      tag_385\n        /* \"#utility.yul\":7722:7728   */\n      dup2\n        /* \"#utility.yul\":7717:7720   */\n      dup7\n        /* \"#utility.yul\":7640:7729   */\n      tag_269\n      jump\t// in\n    tag_385:\n        /* \"#utility.yul\":7633:7729   */\n      swap5\n      pop\n        /* \"#utility.yul\":7760:7761   */\n      0x01\n        /* \"#utility.yul\":7749:7758   */\n      dup3\n        /* \"#utility.yul\":7745:7762   */\n      and\n        /* \"#utility.yul\":7776:7777   */\n      0x00\n        /* \"#utility.yul\":7771:7937   */\n      dup2\n      eq\n      tag_387\n      jumpi\n        /* \"#utility.yul\":7951:7952   */\n      0x01\n        /* \"#utility.yul\":7946:8287   */\n      dup2\n      eq\n      tag_388\n      jumpi\n        /* \"#utility.yul\":7738:8287   */\n      jump(tag_386)\n        /* \"#utility.yul\":7771:7937   */\n    tag_387:\n        /* \"#utility.yul\":7855:7859   */\n      0xff\n        /* \"#utility.yul\":7851:7860   */\n      not\n        /* \"#utility.yul\":7840:7849   */\n      dup4\n        /* \"#utility.yul\":7836:7861   */\n      and\n        /* \"#utility.yul\":7831:7834   */\n      dup7\n        /* \"#utility.yul\":7824:7862   */\n      mstore\n        /* \"#utility.yul\":7917:7923   */\n      dup2\n        /* \"#utility.yul\":7910:7924   */\n      iszero\n        /* \"#utility.yul\":7903:7925   */\n      iszero\n        /* \"#utility.yul\":7895:7901   */\n      dup3\n        /* \"#utility.yul\":7891:7926   */\n      mul\n        /* \"#utility.yul\":7886:7889   */\n      dup7\n        /* \"#utility.yul\":7882:7927   */\n      add\n        /* \"#utility.yul\":7875:7927   */\n      swap4\n      pop\n        /* \"#utility.yul\":7771:7937   */\n      jump(tag_386)\n        /* \"#utility.yul\":7946:8287   */\n    tag_388:\n        /* \"#utility.yul\":8013:8051   */\n      tag_389\n        /* \"#utility.yul\":8045:8050   */\n      dup6\n        /* \"#utility.yul\":8013:8051   */\n      tag_270\n      jump\t// in\n    tag_389:\n        /* \"#utility.yul\":8073:8074   */\n      0x00\n        /* \"#utility.yul\":8087:8241   */\n    tag_390:\n        /* \"#utility.yul\":8101:8107   */\n      dup4\n        /* \"#utility.yul\":8098:8099   */\n      dup2\n        /* \"#utility.yul\":8095:8108   */\n      lt\n        /* \"#utility.yul\":8087:8241   */\n      iszero\n      tag_392\n      jumpi\n        /* \"#utility.yul\":8175:8182   */\n      dup2\n        /* \"#utility.yul\":8169:8183   */\n      sload\n        /* \"#utility.yul\":8165:8166   */\n      dup2\n        /* \"#utility.yul\":8160:8163   */\n      dup10\n        /* \"#utility.yul\":8156:8167   */\n      add\n        /* \"#utility.yul\":8149:8184   */\n      mstore\n        /* \"#utility.yul\":8225:8226   */\n      0x01\n        /* \"#utility.yul\":8216:8223   */\n      dup3\n        /* \"#utility.yul\":8212:8227   */\n      add\n        /* \"#utility.yul\":8201:8227   */\n      swap2\n      pop\n        /* \"#utility.yul\":8123:8127   */\n      0x20\n        /* \"#utility.yul\":8120:8121   */\n      dup2\n        /* \"#utility.yul\":8116:8128   */\n      add\n        /* \"#utility.yul\":8111:8128   */\n      swap1\n      pop\n        /* \"#utility.yul\":8087:8241   */\n      jump(tag_390)\n    tag_392:\n        /* \"#utility.yul\":8270:8276   */\n      dup4\n        /* \"#utility.yul\":8265:8268   */\n      dup9\n        /* \"#utility.yul\":8261:8277   */\n      add\n        /* \"#utility.yul\":8254:8277   */\n      swap6\n      pop\n        /* \"#utility.yul\":7953:8287   */\n      pop\n      pop\n        /* \"#utility.yul\":7738:8287   */\n    tag_386:\n      pop\n        /* \"#utility.yul\":7526:8293   */\n      pop\n      pop\n        /* \"#utility.yul\":7419:8293   */\n      swap3\n      swap2\n      pop\n      pop\n      jump\t// out\n        /* \"#utility.yul\":8299:8568   */\n    tag_93:\n        /* \"#utility.yul\":8428:8431   */\n      0x00\n        /* \"#utility.yul\":8450:8542   */\n      tag_394\n        /* \"#utility.yul\":8538:8541   */\n      dup3\n        /* \"#utility.yul\":8529:8535   */\n      dup5\n        /* \"#utility.yul\":8450:8542   */\n      tag_271\n      jump\t// in\n    tag_394:\n        /* \"#utility.yul\":8443:8542   */\n      swap2\n      pop\n        /* \"#utility.yul\":8559:8562   */\n      dup2\n        /* \"#utility.yul\":8552:8562   */\n      swap1\n      pop\n        /* \"#utility.yul\":8299:8568   */\n      swap3\n      swap2\n      pop\n      pop\n      jump\t// out\n        /* \"#utility.yul\":8574:8673   */\n    tag_272:\n        /* \"#utility.yul\":8626:8632   */\n      0x00\n        /* \"#utility.yul\":8660:8665   */\n      dup2\n        /* \"#utility.yul\":8654:8666   */\n      mload\n        /* \"#utility.yul\":8644:8666   */\n      swap1\n      pop\n        /* \"#utility.yul\":8574:8673   */\n      swap2\n      swap1\n      pop\n      jump\t// out\n        /* \"#utility.yul\":8679:8925   */\n    tag_273:\n        /* \"#utility.yul\":8760:8761   */\n      0x00\n        /* \"#utility.yul\":8770:8883   */\n    tag_397:\n        /* \"#utility.yul\":8784:8790   */\n      dup4\n        /* \"#utility.yul\":8781:8782   */\n      dup2\n        /* \"#utility.yul\":8778:8791   */\n      lt\n        /* \"#utility.yul\":8770:8883   */\n      iszero\n      tag_399\n      jumpi\n        /* \"#utility.yul\":8869:8870   */\n      dup1\n        /* \"#utility.yul\":8864:8867   */\n      dup3\n        /* \"#utility.yul\":8860:8871   */\n      add\n        /* \"#utility.yul\":8854:8872   */\n      mload\n        /* \"#utility.yul\":8850:8851   */\n      dup2\n        /* \"#utility.yul\":8845:8848   */\n      dup5\n        /* \"#utility.yul\":8841:8852   */\n      add\n        /* \"#utility.yul\":8834:8873   */\n      mstore\n        /* \"#utility.yul\":8806:8808   */\n      0x20\n        /* \"#utility.yul\":8803:8804   */\n      dup2\n        /* \"#utility.yul\":8799:8809   */\n      add\n        /* \"#utility.yul\":8794:8809   */\n      swap1\n      pop\n        /* \"#utility.yul\":8770:8883   */\n      jump(tag_397)\n    tag_399:\n        /* \"#utility.yul\":8917:8918   */\n      0x00\n        /* \"#utility.yul\":8908:8914   */\n      dup5\n        /* \"#utility.yul\":8903:8906   */\n      dup5\n        /* \"#utility.yul\":8899:8915   */\n      add\n        /* \"#utility.yul\":8892:8919   */\n      mstore\n        /* \"#utility.yul\":8741:8925   */\n      pop\n        /* \"#utility.yul\":8679:8925   */\n      pop\n      pop\n      pop\n      jump\t// out\n        /* \"#utility.yul\":8931:9321   */\n    tag_274:\n        /* \"#utility.yul\":9037:9040   */\n      0x00\n        /* \"#utility.yul\":9065:9104   */\n      tag_401\n        /* \"#utility.yul\":9098:9103   */\n      dup3\n        /* \"#utility.yul\":9065:9104   */\n      tag_272\n      jump\t// in\n    tag_401:\n        /* \"#utility.yul\":9120:9209   */\n      tag_402\n        /* \"#utility.yul\":9202:9208   */\n      dup2\n        /* \"#utility.yul\":9197:9200   */\n      dup6\n        /* \"#utility.yul\":9120:9209   */\n      tag_269\n      jump\t// in\n    tag_402:\n        /* \"#utility.yul\":9113:9209   */\n      swap4\n      pop\n        /* \"#utility.yul\":9218:9283   */\n      tag_403\n        /* \"#utility.yul\":9276:9282   */\n      dup2\n        /* \"#utility.yul\":9271:9274   */\n      dup6\n        /* \"#utility.yul\":9264:9268   */\n      0x20\n        /* \"#utility.yul\":9257:9262   */\n      dup7\n        /* \"#utility.yul\":9253:9269   */\n      add\n        /* \"#utility.yul\":9218:9283   */\n      tag_273\n      jump\t// in\n    tag_403:\n        /* \"#utility.yul\":9308:9314   */\n      dup1\n        /* \"#utility.yul\":9303:9306   */\n      dup5\n        /* \"#utility.yul\":9299:9315   */\n      add\n        /* \"#utility.yul\":9292:9315   */\n      swap2\n      pop\n        /* \"#utility.yul\":9041:9321   */\n      pop\n        /* \"#utility.yul\":8931:9321   */\n      swap3\n      swap2\n      pop\n      pop\n      jump\t// out\n        /* \"#utility.yul\":9327:9602   */\n    tag_95:\n        /* \"#utility.yul\":9459:9462   */\n      0x00\n        /* \"#utility.yul\":9481:9576   */\n      tag_405\n        /* \"#utility.yul\":9572:9575   */\n      dup3\n        /* \"#utility.yul\":9563:9569   */\n      dup5\n        /* \"#utility.yul\":9481:9576   */\n      tag_274\n      jump\t// in\n    tag_405:\n        /* \"#utility.yul\":9474:9576   */\n      swap2\n      pop\n        /* \"#utility.yul\":9593:9596   */\n      dup2\n        /* \"#utility.yul\":9586:9596   */\n      swap1\n      pop\n        /* \"#utility.yul\":9327:9602   */\n      swap3\n      swap2\n      pop\n      pop\n      jump\t// out\n        /* \"#utility.yul\":9608:9799   */\n    tag_100:\n        /* \"#utility.yul\":9648:9651   */\n      0x00\n        /* \"#utility.yul\":9667:9687   */\n      tag_407\n        /* \"#utility.yul\":9685:9686   */\n      dup3\n        /* \"#utility.yul\":9667:9687   */\n      tag_266\n      jump\t// in\n    tag_407:\n        /* \"#utility.yul\":9662:9687   */\n      swap2\n      pop\n        /* \"#utility.yul\":9701:9721   */\n      tag_408\n        /* \"#utility.yul\":9719:9720   */\n      dup4\n        /* \"#utility.yul\":9701:9721   */\n      tag_266\n      jump\t// in\n    tag_408:\n        /* \"#utility.yul\":9696:9721   */\n      swap3\n      pop\n        /* \"#utility.yul\":9744:9745   */\n      dup3\n        /* \"#utility.yul\":9741:9742   */\n      dup3\n        /* \"#utility.yul\":9737:9746   */\n      add\n        /* \"#utility.yul\":9730:9746   */\n      swap1\n      pop\n        /* \"#utility.yul\":9765:9768   */\n      dup1\n        /* \"#utility.yul\":9762:9763   */\n      dup3\n        /* \"#utility.yul\":9759:9769   */\n      gt\n        /* \"#utility.yul\":9756:9792   */\n      iszero\n      tag_409\n      jumpi\n        /* \"#utility.yul\":9772:9790   */\n      tag_410\n      tag_267\n      jump\t// in\n    tag_410:\n        /* \"#utility.yul\":9756:9792   */\n    tag_409:\n        /* \"#utility.yul\":9608:9799   */\n      swap3\n      swap2\n      pop\n      pop\n      jump\t// out\n        /* \"#utility.yul\":9805:9958   */\n    tag_275:\n        /* \"#utility.yul\":9858:9864   */\n      0x00\n        /* \"#utility.yul\":9892:9897   */\n      dup2\n        /* \"#utility.yul\":9886:9898   */\n      sload\n        /* \"#utility.yul\":9876:9898   */\n      swap1\n      pop\n        /* \"#utility.yul\":9918:9951   */\n      tag_412\n        /* \"#utility.yul\":9944:9950   */\n      dup2\n        /* \"#utility.yul\":9918:9951   */\n      tag_239\n      jump\t// in\n    tag_412:\n        /* \"#utility.yul\":9908:9951   */\n      swap1\n      pop\n        /* \"#utility.yul\":9805:9958   */\n      swap2\n      swap1\n      pop\n      jump\t// out\n        /* \"#utility.yul\":9964:10144   */\n    tag_169:\n        /* \"#utility.yul\":10012:10089   */\n      0x4e487b7100000000000000000000000000000000000000000000000000000000\n        /* \"#utility.yul\":10009:10010   */\n      0x00\n        /* \"#utility.yul\":10002:10090   */\n      mstore\n        /* \"#utility.yul\":10109:10113   */\n      0x41\n        /* \"#utility.yul\":10106:10107   */\n      0x04\n        /* \"#utility.yul\":10099:10114   */\n      mstore\n        /* \"#utility.yul\":10133:10137   */\n      0x24\n        /* \"#utility.yul\":10130:10131   */\n      0x00\n        /* \"#utility.yul\":10123:10138   */\n      revert\n        /* \"#utility.yul\":10150:10295   */\n    tag_276:\n        /* \"#utility.yul\":10203:10207   */\n      0x00\n        /* \"#utility.yul\":10226:10229   */\n      dup2\n        /* \"#utility.yul\":10218:10229   */\n      swap1\n      pop\n        /* \"#utility.yul\":10249:10252   */\n      dup2\n        /* \"#utility.yul\":10246:10247   */\n      0x00\n        /* \"#utility.yul\":10239:10253   */\n      mstore\n        /* \"#utility.yul\":10283:10287   */\n      0x20\n        /* \"#utility.yul\":10280:10281   */\n      0x00\n        /* \"#utility.yul\":10270:10288   */\n      keccak256\n        /* \"#utility.yul\":10262:10288   */\n      swap1\n      pop\n        /* \"#utility.yul\":10150:10295   */\n      swap2\n      swap1\n      pop\n      jump\t// out\n        /* \"#utility.yul\":10301:10394   */\n    tag_277:\n        /* \"#utility.yul\":10338:10344   */\n      0x00\n        /* \"#utility.yul\":10385:10387   */\n      0x20\n        /* \"#utility.yul\":10380:10382   */\n      0x1f\n        /* \"#utility.yul\":10373:10378   */\n      dup4\n        /* \"#utility.yul\":10369:10383   */\n      add\n        /* \"#utility.yul\":10365:10388   */\n      div\n        /* \"#utility.yul\":10355:10388   */\n      swap1\n      pop\n        /* \"#utility.yul\":10301:10394   */\n      swap2\n      swap1\n      pop\n      jump\t// out\n        /* \"#utility.yul\":10400:10507   */\n    tag_278:\n        /* \"#utility.yul\":10444:10452   */\n      0x00\n        /* \"#utility.yul\":10494:10499   */\n      dup3\n        /* \"#utility.yul\":10488:10492   */\n      dup3\n        /* \"#utility.yul\":10484:10500   */\n      shl\n        /* \"#utility.yul\":10463:10500   */\n      swap1\n      pop\n        /* \"#utility.yul\":10400:10507   */\n      swap3\n      swap2\n      pop\n      pop\n      jump\t// out\n        /* \"#utility.yul\":10513:10906   */\n    tag_279:\n        /* \"#utility.yul\":10582:10588   */\n      0x00\n        /* \"#utility.yul\":10632:10633   */\n      0x08\n        /* \"#utility.yul\":10620:10630   */\n      dup4\n        /* \"#utility.yul\":10616:10634   */\n      mul\n        /* \"#utility.yul\":10655:10752   */\n      tag_418\n        /* \"#utility.yul\":10685:10751   */\n      0xffffffffffffffffffffffffffffffffffffffffffffffffffffffffffffffff\n        /* \"#utility.yul\":10674:10683   */\n      dup3\n        /* \"#utility.yul\":10655:10752   */\n      tag_278\n      jump\t// in\n    tag_418:\n        /* \"#utility.yul\":10773:10812   */\n      tag_419\n        /* \"#utility.yul\":10803:10811   */\n      dup7\n        /* \"#utility.yul\":10792:10801   */\n      dup4\n        /* \"#utility.yul\":10773:10812   */\n      tag_278\n      jump\t// in\n    tag_419:\n        /* \"#utility.yul\":10761:10812   */\n      swap6\n      pop\n        /* \"#utility.yul\":10845:10849   */\n      dup1\n        /* \"#utility.yul\":10841:10850   */\n      not\n        /* \"#utility.yul\":10834:10839   */\n      dup5\n        /* \"#utility.yul\":10830:10851   */\n      and\n        /* \"#utility.yul\":10821:10851   */\n      swap4\n      pop\n        /* \"#utility.yul\":10894:10898   */\n      dup1\n        /* \"#utility.yul\":10884:10892   */\n      dup7\n        /* \"#utility.yul\":10880:10899   */\n      and\n        /* \"#utility.yul\":10873:10878   */\n      dup5\n        /* \"#utility.yul\":10870:10900   */\n      or\n        /* \"#utility.yul\":10860:10900   */\n      swap3\n      pop\n        /* \"#utility.yul\":10589:10906   */\n      pop\n      pop\n        /* \"#utility.yul\":10513:10906   */\n      swap4\n      swap3\n      pop\n      pop\n      pop\n      jump\t// out\n        /* \"#utility.yul\":10912:10972   */\n    tag_280:\n        /* \"#utility.yul\":10940:10943   */\n      0x00\n        /* \"#utility.yul\":10961:10966   */\n      dup2\n        /* \"#utility.yul\":10954:10966   */\n      swap1\n      pop\n        /* \"#utility.yul\":10912:10972   */\n      swap2\n      swap1\n      pop\n      jump\t// out\n        /* \"#utility.yul\":10978:11120   */\n    tag_281:\n        /* \"#utility.yul\":11028:11037   */\n      0x00\n        /* \"#utility.yul\":11061:11114   */\n      tag_422\n        /* \"#utility.yul\":11079:11113   */\n      tag_423\n        /* \"#utility.yul\":11088:11112   */\n      tag_424\n        /* \"#utility.yul\":11106:11111   */\n      dup5\n        /* \"#utility.yul\":11088:11112   */\n      tag_266\n      jump\t// in\n    tag_424:\n        /* \"#utility.yul\":11079:11113   */\n      tag_280\n      jump\t// in\n    tag_423:\n        /* \"#utility.yul\":11061:11114   */\n      tag_266\n      jump\t// in\n    tag_422:\n        /* \"#utility.yul\":11048:11114   */\n      swap1\n      pop\n        /* \"#utility.yul\":10978:11120   */\n      swap2\n      swap1\n      pop\n      jump\t// out\n        /* \"#utility.yul\":11126:11201   */\n    tag_282:\n        /* \"#utility.yul\":11169:11172   */\n      0x00\n        /* \"#utility.yul\":11190:11195   */\n      dup2\n        /* \"#utility.yul\":11183:11195   */\n      swap1\n      pop\n        /* \"#utility.yul\":11126:11201   */\n      swap2\n      swap1\n      pop\n      jump\t// out\n        /* \"#utility.yul\":11207:11476   */\n    tag_283:\n        /* \"#utility.yul\":11317:11356   */\n      tag_427\n        /* \"#utility.yul\":11348:11355   */\n      dup4\n        /* \"#utility.yul\":11317:11356   */\n      tag_281\n      jump\t// in\n    tag_427:\n        /* \"#utility.yul\":11378:11469   */\n      tag_428\n        /* \"#utility.yul\":11427:11468   */\n      tag_429\n        /* \"#utility.yul\":11451:11467   */\n      dup3\n        /* \"#utility.yul\":11427:11468   */\n      tag_282\n      jump\t// in\n    tag_429:\n        /* \"#utility.yul\":11419:11425   */\n      dup5\n        /* \"#utility.yul\":11412:11416   */\n      dup5\n        /* \"#utility.yul\":11406:11417   */\n      sload\n        /* \"#utility.yul\":11378:11469   */\n      tag_279\n      jump\t// in\n    tag_428:\n        /* \"#utility.yul\":11372:11376   */\n      dup3\n        /* \"#utility.yul\":11365:11470   */\n      sstore\n        /* \"#utility.yul\":11283:11476   */\n      pop\n        /* \"#utility.yul\":11207:11476   */\n      pop\n      pop\n      pop\n      jump\t// out\n        /* \"#utility.yul\":11482:11555   */\n    tag_284:\n        /* \"#utility.yul\":11527:11530   */\n      0x00\n        /* \"#utility.yul\":11482:11555   */\n      swap1\n      jump\t// out\n        /* \"#utility.yul\":11561:11750   */\n    tag_285:\n        /* \"#utility.yul\":11638:11670   */\n      tag_432\n      tag_284\n      jump\t// in\n    tag_432:\n        /* \"#utility.yul\":11679:11744   */\n      tag_433\n        /* \"#utility.yul\":11737:11743   */\n      dup2\n        /* \"#utility.yul\":11729:11735   */\n      dup5\n        /* \"#utility.yul\":11723:11727   */\n      dup5\n        /* \"#utility.yul\":11679:11744   */\n      tag_283\n      jump\t// in\n    tag_433:\n        /* \"#utility.yul\":11614:11750   */\n      pop\n        /* \"#utility.yul\":11561:11750   */\n      pop\n      pop\n      jump\t// out\n        /* \"#utility.yul\":11756:11942   */\n    tag_286:\n        /* \"#utility.yul\":11816:11936   */\n    tag_435:\n        /* \"#utility.yul\":11833:11836   */\n      dup2\n        /* \"#utility.yul\":11826:11831   */\n      dup2\n        /* \"#utility.yul\":11823:11837   */\n      lt\n        /* \"#utility.yul\":11816:11936   */\n      iszero\n      tag_437\n      jumpi\n        /* \"#utility.yul\":11887:11926   */\n      tag_438\n        /* \"#utility.yul\":11924:11925   */\n      0x00\n        /* \"#utility.yul\":11917:11922   */\n      dup3\n        /* \"#utility.yul\":11887:11926   */\n      tag_285\n      jump\t// in\n    tag_438:\n        /* \"#utility.yul\":11860:11861   */\n      0x01\n        /* \"#utility.yul\":11853:11858   */\n      dup2\n        /* \"#utility.yul\":11849:11862   */\n      add\n        /* \"#utility.yul\":11840:11862   */\n      swap1\n      pop\n        /* \"#utility.yul\":11816:11936   */\n      jump(tag_435)\n    tag_437:\n        /* \"#utility.yul\":11756:11942   */\n      pop\n      pop\n      jump\t// out\n        /* \"#utility.yul\":11948:12491   */\n    tag_287:\n        /* \"#utility.yul\":12049:12051   */\n      0x1f\n        /* \"#utility.yul\":12044:12047   */\n      dup3\n        /* \"#utility.yul\":12041:12052   */\n      gt\n        /* \"#utility.yul\":12038:12484   */\n      iszero\n      tag_440\n      jumpi\n        /* \"#utility.yul\":12083:12121   */\n      tag_441\n        /* \"#utility.yul\":12115:12120   */\n      dup2\n        /* \"#utility.yul\":12083:12121   */\n      tag_270\n      jump\t// in\n    tag_441:\n        /* \"#utility.yul\":12167:12196   */\n      tag_442\n        /* \"#utility.yul\":12185:12195   */\n      dup5\n        /* \"#utility.yul\":12167:12196   */\n      tag_277\n      jump\t// in\n    tag_442:\n        /* \"#utility.yul\":12157:12165   */\n      dup2\n        /* \"#utility.yul\":12153:12197   */\n      add\n        /* \"#utility.yul\":12350:12352   */\n      0x20\n        /* \"#utility.yul\":12338:12348   */\n      dup6\n        /* \"#utility.yul\":12335:12353   */\n      lt\n        /* \"#utility.yul\":12332:12381   */\n      iszero\n      tag_443\n      jumpi\n        /* \"#utility.yul\":12371:12379   */\n      dup2\n        /* \"#utility.yul\":12356:12379   */\n      swap1\n      pop\n        /* \"#utility.yul\":12332:12381   */\n    tag_443:\n        /* \"#utility.yul\":12394:12474   */\n      tag_444\n        /* \"#utility.yul\":12450:12472   */\n      tag_445\n        /* \"#utility.yul\":12468:12471   */\n      dup6\n        /* \"#utility.yul\":12450:12472   */\n      tag_277\n      jump\t// in\n    tag_445:\n        /* \"#utility.yul\":12440:12448   */\n      dup4\n        /* \"#utility.yul\":12436:12473   */\n      add\n        /* \"#utility.yul\":12423:12434   */\n      dup3\n        /* \"#utility.yul\":12394:12474   */\n      tag_286\n      jump\t// in\n    tag_444:\n        /* \"#utility.yul\":12053:12484   */\n      pop\n      pop\n        /* \"#utility.yul\":12038:12484   */\n    tag_440:\n        /* \"#utility.yul\":11948:12491   */\n      pop\n      pop\n      pop\n      jump\t// out\n        /* \"#utility.yul\":12497:12614   */\n    tag_288:\n        /* \"#utility.yul\":12551:12559   */\n      0x00\n        /* \"#utility.yul\":12601:12606   */\n      dup3\n        /* \"#utility.yul\":12595:12599   */\n      dup3\n        /* \"#utility.yul\":12591:12607   */\n      shr\n        /* \"#utility.yul\":12570:12607   */\n      swap1\n      pop\n        /* \"#utility.yul\":12497:12614   */\n      swap3\n      swap2\n      pop\n      pop\n      jump\t// out\n        /* \"#utility.yul\":12620:12789   */\n    tag_289:\n        /* \"#utility.yul\":12664:12670   */\n      0x00\n        /* \"#utility.yul\":12697:12748   */\n      tag_448\n        /* \"#utility.yul\":12745:12746   */\n      0x00\n        /* \"#utility.yul\":12741:12747   */\n      not\n        /* \"#utility.yul\":12733:12738   */\n      dup5\n        /* \"#utility.yul\":12730:12731   */\n      0x08\n        /* \"#utility.yul\":12726:12739   */\n      mul\n        /* \"#utility.yul\":12697:12748   */\n      tag_288\n      jump\t// in\n    tag_448:\n        /* \"#utility.yul\":12693:12749   */\n      not\n        /* \"#utility.yul\":12778:12782   */\n      dup1\n        /* \"#utility.yul\":12772:12776   */\n      dup4\n        /* \"#utility.yul\":12768:12783   */\n      and\n        /* \"#utility.yul\":12758:12783   */\n      swap2\n      pop\n        /* \"#utility.yul\":12671:12789   */\n      pop\n        /* \"#utility.yul\":12620:12789   */\n      swap3\n      swap2\n      pop\n      pop\n      jump\t// out\n        /* \"#utility.yul\":12794:13089   */\n    tag_290:\n        /* \"#utility.yul\":12870:12874   */\n      0x00\n        /* \"#utility.yul\":13016:13045   */\n      tag_450\n        /* \"#utility.yul\":13041:13044   */\n      dup4\n        /* \"#utility.yul\":13035:13039   */\n      dup4\n        /* \"#utility.yul\":13016:13045   */\n      tag_289\n      jump\t// in\n    tag_450:\n        /* \"#utility.yul\":13008:13045   */\n      swap2\n      pop\n        /* \"#utility.yul\":13078:13081   */\n      dup3\n        /* \"#utility.yul\":13075:13076   */\n      0x02\n        /* \"#utility.yul\":13071:13082   */\n      mul\n        /* \"#utility.yul\":13065:13069   */\n      dup3\n        /* \"#utility.yul\":13062:13083   */\n      or\n        /* \"#utility.yul\":13054:13083   */\n      swap1\n      pop\n        /* \"#utility.yul\":12794:13089   */\n      swap3\n      swap2\n      pop\n      pop\n      jump\t// out\n        /* \"#utility.yul\":13094:14557   */\n    tag_108:\n        /* \"#utility.yul\":13209:13212   */\n      dup2\n        /* \"#utility.yul\":13203:13207   */\n      dup2\n        /* \"#utility.yul\":13200:13213   */\n      sub\n        /* \"#utility.yul\":13197:13223   */\n      tag_452\n      jumpi\n        /* \"#utility.yul\":13216:13221   */\n      pop\n      pop\n      jump(tag_451)\n        /* \"#utility.yul\":13197:13223   */\n    tag_452:\n        /* \"#utility.yul\":13247:13285   */\n      tag_453\n        /* \"#utility.yul\":13281:13284   */\n      dup3\n        /* \"#utility.yul\":13247:13285   */\n      tag_275\n      jump\t// in\n    tag_453:\n        /* \"#utility.yul\":13350:13368   */\n      0xffffffffffffffff\n        /* \"#utility.yul\":13342:13348   */\n      dup2\n        /* \"#utility.yul\":13339:13369   */\n      gt\n        /* \"#utility.yul\":13336:13392   */\n      iszero\n      tag_454\n      jumpi\n        /* \"#utility.yul\":13372:13390   */\n      tag_455\n      tag_169\n      jump\t// in\n    tag_455:\n        /* \"#utility.yul\":13336:13392   */\n    tag_454:\n        /* \"#utility.yul\":13416:13454   */\n      tag_456\n        /* \"#utility.yul\":13448:13452   */\n      dup3\n        /* \"#utility.yul\":13442:13453   */\n      sload\n        /* \"#utility.yul\":13416:13454   */\n      tag_239\n      jump\t// in\n    tag_456:\n        /* \"#utility.yul\":13501:13568   */\n      tag_457\n        /* \"#utility.yul\":13561:13567   */\n      dup3\n        /* \"#utility.yul\":13553:13559   */\n      dup3\n        /* \"#utility.yul\":13547:13551   */\n      dup6\n        /* \"#utility.yul\":13501:13568   */\n      tag_287\n      jump\t// in\n    tag_457:\n        /* \"#utility.yul\":13595:13596   */\n      0x00\n        /* \"#utility.yul\":13624:13626   */\n      0x1f\n        /* \"#utility.yul\":13616:13622   */\n      dup4\n        /* \"#utility.yul\":13613:13627   */\n      gt\n        /* \"#utility.yul\":13641:13642   */\n      0x01\n        /* \"#utility.yul\":13636:14312   */\n      dup2\n      eq\n      tag_459\n      jumpi\n        /* \"#utility.yul\":14356:14357   */\n      0x00\n        /* \"#utility.yul\":14373:14379   */\n      dup5\n        /* \"#utility.yul\":14370:14447   */\n      iszero\n      tag_460\n      jumpi\n        /* \"#utility.yul\":14422:14431   */\n      dup3\n        /* \"#utility.yul\":14417:14420   */\n      dup8\n        /* \"#utility.yul\":14413:14432   */\n      add\n        /* \"#utility.yul\":14407:14433   */\n      sload\n        /* \"#utility.yul\":14398:14433   */\n      swap1\n      pop\n        /* \"#utility.yul\":14370:14447   */\n    tag_460:\n        /* \"#utility.yul\":14473:14540   */\n      tag_461\n        /* \"#utility.yul\":14533:14539   */\n      dup6\n        /* \"#utility.yul\":14526:14531   */\n      dup3\n        /* \"#utility.yul\":14473:14540   */\n      tag_290\n      jump\t// in\n    tag_461:\n        /* \"#utility.yul\":14467:14471   */\n      dup7\n        /* \"#utility.yul\":14460:14541   */\n      sstore\n        /* \"#utility.yul\":14329:14551   */\n      pop\n        /* \"#utility.yul\":13606:14551   */\n      jump(tag_458)\n        /* \"#utility.yul\":13636:14312   */\n    tag_459:\n        /* \"#utility.yul\":13688:13692   */\n      0x1f\n        /* \"#utility.yul\":13684:13693   */\n      not\n        /* \"#utility.yul\":13676:13682   */\n      dup5\n        /* \"#utility.yul\":13672:13694   */\n      and\n        /* \"#utility.yul\":13714:13754   */\n      tag_462\n        /* \"#utility.yul\":13750:13753   */\n      dup8\n        /* \"#utility.yul\":13714:13754   */\n      tag_276\n      jump\t// in\n    tag_462:\n        /* \"#utility.yul\":13707:13754   */\n      swap7\n      pop\n        /* \"#utility.yul\":13781:13818   */\n      tag_463\n        /* \"#utility.yul\":13813:13817   */\n      dup7\n        /* \"#utility.yul\":13781:13818   */\n      tag_270\n      jump\t// in\n    tag_463:\n        /* \"#utility.yul\":13840:13841   */\n      0x00\n        /* \"#utility.yul\":13854:14061   */\n    tag_464:\n        /* \"#utility.yul\":13868:13875   */\n      dup3\n        /* \"#utility.yul\":13865:13866   */\n      dup2\n        /* \"#utility.yul\":13862:13876   */\n      lt\n        /* \"#utility.yul\":13854:14061   */\n      iszero\n      tag_466\n      jumpi\n        /* \"#utility.yul\":13947:13956   */\n      dup5\n        /* \"#utility.yul\":13942:13945   */\n      dup10\n        /* \"#utility.yul\":13938:13957   */\n      add\n        /* \"#utility.yul\":13932:13958   */\n      sload\n        /* \"#utility.yul\":13924:13930   */\n      dup3\n        /* \"#utility.yul\":13917:13959   */\n      sstore\n        /* \"#utility.yul\":13998:13999   */\n      0x01\n        /* \"#utility.yul\":13990:13996   */\n      dup3\n        /* \"#utility.yul\":13986:14000   */\n      add\n        /* \"#utility.yul\":13976:14000   */\n      swap2\n      pop\n        /* \"#utility.yul\":14045:14046   */\n      0x01\n        /* \"#utility.yul\":14034:14043   */\n      dup6\n        /* \"#utility.yul\":14030:14047   */\n      add\n        /* \"#utility.yul\":14017:14047   */\n      swap5\n      pop\n        /* \"#utility.yul\":13891:13895   */\n      0x20\n        /* \"#utility.yul\":13888:13889   */\n      dup2\n        /* \"#utility.yul\":13884:13896   */\n      add\n        /* \"#utility.yul\":13879:13896   */\n      swap1\n      pop\n        /* \"#utility.yul\":13854:14061   */\n      jump(tag_464)\n    tag_466:\n        /* \"#utility.yul\":14089:14095   */\n      dup7\n        /* \"#utility.yul\":14080:14087   */\n      dup4\n        /* \"#utility.yul\":14077:14096   */\n      lt\n        /* \"#utility.yul\":14074:14253   */\n      iszero\n      tag_467\n      jumpi\n        /* \"#utility.yul\":14147:14156   */\n      dup5\n        /* \"#utility.yul\":14142:14145   */\n      dup10\n        /* \"#utility.yul\":14138:14157   */\n      add\n        /* \"#utility.yul\":14132:14158   */\n      sload\n        /* \"#utility.yul\":14190:14238   */\n      tag_468\n        /* \"#utility.yul\":14232:14236   */\n      0x1f\n        /* \"#utility.yul\":14224:14230   */\n      dup10\n        /* \"#utility.yul\":14220:14237   */\n      and\n        /* \"#utility.yul\":14209:14218   */\n      dup3\n        /* \"#utility.yul\":14190:14238   */\n      tag_289\n      jump\t// in\n    tag_468:\n        /* \"#utility.yul\":14182:14188   */\n      dup4\n        /* \"#utility.yul\":14175:14239   */\n      sstore\n        /* \"#utility.yul\":14097:14253   */\n      pop\n        /* \"#utility.yul\":14074:14253   */\n    tag_467:\n        /* \"#utility.yul\":14299:14300   */\n      0x01\n        /* \"#utility.yul\":14295:14296   */\n      0x02\n        /* \"#utility.yul\":14287:14293   */\n      dup9\n        /* \"#utility.yul\":14283:14297   */\n      mul\n        /* \"#utility.yul\":14279:14301   */\n      add\n        /* \"#utility.yul\":14273:14277   */\n      dup9\n        /* \"#utility.yul\":14266:14302   */\n      sstore\n        /* \"#utility.yul\":13643:14312   */\n      pop\n      pop\n      pop\n        /* \"#utility.yul\":13606:14551   */\n    tag_458:\n      pop\n        /* \"#utility.yul\":13187:14557   */\n      pop\n      pop\n      pop\n        /* \"#utility.yul\":13094:14557   */\n      pop\n      pop\n    tag_451:\n      jump\t// out\n        /* \"#utility.yul\":14563:14743   */\n    tag_111:\n        /* \"#utility.yul\":14611:14688   */\n      0x4e487b7100000000000000000000000000000000000000000000000000000000\n        /* \"#utility.yul\":14608:14609   */\n      0x00\n        /* \"#utility.yul\":14601:14689   */\n      mstore\n        /* \"#utility.yul\":14708:14712   */\n      0x31\n        /* \"#utility.yul\":14705:14706   */\n      0x04\n        /* \"#utility.yul\":14698:14713   */\n      mstore\n        /* \"#utility.yul\":14732:14736   */\n      0x24\n        /* \"#utility.yul\":14729:14730   */\n      0x00\n        /* \"#utility.yul\":14722:14737   */\n      revert\n        /* \"#utility.yul\":14749:16144   */\n    tag_130:\n        /* \"#utility.yul\":14866:14903   */\n      tag_471\n        /* \"#utility.yul\":14899:14902   */\n      dup3\n        /* \"#utility.yul\":14866:14903   */\n      tag_272\n      jump\t// in\n    tag_471:\n        /* \"#utility.yul\":14968:14986   */\n      0xffffffffffffffff\n        /* \"#utility.yul\":14960:14966   */\n      dup2\n        /* \"#utility.yul\":14957:14987   */\n      gt\n        /* \"#utility.yul\":14954:15010   */\n      iszero\n      tag_472\n      jumpi\n        /* \"#utility.yul\":14990:15008   */\n      tag_473\n      tag_169\n      jump\t// in\n    tag_473:\n        /* \"#utility.yul\":14954:15010   */\n    tag_472:\n        /* \"#utility.yul\":15034:15072   */\n      tag_474\n        /* \"#utility.yul\":15066:15070   */\n      dup3\n        /* \"#utility.yul\":15060:15071   */\n      sload\n        /* \"#utility.yul\":15034:15072   */\n      tag_239\n      jump\t// in\n    tag_474:\n        /* \"#utility.yul\":15119:15186   */\n      tag_475\n        /* \"#utility.yul\":15179:15185   */\n      dup3\n        /* \"#utility.yul\":15171:15177   */\n      dup3\n        /* \"#utility.yul\":15165:15169   */\n      dup6\n        /* \"#utility.yul\":15119:15186   */\n      tag_287\n      jump\t// in\n    tag_475:\n        /* \"#utility.yul\":15213:15214   */\n      0x00\n        /* \"#utility.yul\":15237:15241   */\n      0x20\n        /* \"#utility.yul\":15224:15241   */\n      swap1\n      pop\n        /* \"#utility.yul\":15269:15271   */\n      0x1f\n        /* \"#utility.yul\":15261:15267   */\n      dup4\n        /* \"#utility.yul\":15258:15272   */\n      gt\n        /* \"#utility.yul\":15286:15287   */\n      0x01\n        /* \"#utility.yul\":15281:15899   */\n      dup2\n      eq\n      tag_477\n      jumpi\n        /* \"#utility.yul\":15943:15944   */\n      0x00\n        /* \"#utility.yul\":15960:15966   */\n      dup5\n        /* \"#utility.yul\":15957:16034   */\n      iszero\n      tag_478\n      jumpi\n        /* \"#utility.yul\":16009:16018   */\n      dup3\n        /* \"#utility.yul\":16004:16007   */\n      dup8\n        /* \"#utility.yul\":16000:16019   */\n      add\n        /* \"#utility.yul\":15994:16020   */\n      mload\n        /* \"#utility.yul\":15985:16020   */\n      swap1\n      pop\n        /* \"#utility.yul\":15957:16034   */\n    tag_478:\n        /* \"#utility.yul\":16060:16127   */\n      tag_479\n        /* \"#utility.yul\":16120:16126   */\n      dup6\n        /* \"#utility.yul\":16113:16118   */\n      dup3\n        /* \"#utility.yul\":16060:16127   */\n      tag_290\n      jump\t// in\n    tag_479:\n        /* \"#utility.yul\":16054:16058   */\n      dup7\n        /* \"#utility.yul\":16047:16128   */\n      sstore\n        /* \"#utility.yul\":15916:16138   */\n      pop\n        /* \"#utility.yul\":15251:16138   */\n      jump(tag_476)\n        /* \"#utility.yul\":15281:15899   */\n    tag_477:\n        /* \"#utility.yul\":15333:15337   */\n      0x1f\n        /* \"#utility.yul\":15329:15338   */\n      not\n        /* \"#utility.yul\":15321:15327   */\n      dup5\n        /* \"#utility.yul\":15317:15339   */\n      and\n        /* \"#utility.yul\":15367:15404   */\n      tag_480\n        /* \"#utility.yul\":15399:15403   */\n      dup7\n        /* \"#utility.yul\":15367:15404   */\n      tag_270\n      jump\t// in\n    tag_480:\n        /* \"#utility.yul\":15426:15427   */\n      0x00\n        /* \"#utility.yul\":15440:15648   */\n    tag_481:\n        /* \"#utility.yul\":15454:15461   */\n      dup3\n        /* \"#utility.yul\":15451:15452   */\n      dup2\n        /* \"#utility.yul\":15448:15462   */\n      lt\n        /* \"#utility.yul\":15440:15648   */\n      iszero\n      tag_483\n      jumpi\n        /* \"#utility.yul\":15533:15542   */\n      dup5\n        /* \"#utility.yul\":15528:15531   */\n      dup10\n        /* \"#utility.yul\":15524:15543   */\n      add\n        /* \"#utility.yul\":15518:15544   */\n      mload\n        /* \"#utility.yul\":15510:15516   */\n      dup3\n        /* \"#utility.yul\":15503:15545   */\n      sstore\n        /* \"#utility.yul\":15584:15585   */\n      0x01\n        /* \"#utility.yul\":15576:15582   */\n      dup3\n        /* \"#utility.yul\":15572:15586   */\n      add\n        /* \"#utility.yul\":15562:15586   */\n      swap2\n      pop\n        /* \"#utility.yul\":15631:15633   */\n      0x20\n        /* \"#utility.yul\":15620:15629   */\n      dup6\n        /* \"#utility.yul\":15616:15634   */\n      add\n        /* \"#utility.yul\":15603:15634   */\n      swap5\n      pop\n        /* \"#utility.yul\":15477:15481   */\n      0x20\n        /* \"#utility.yul\":15474:15475   */\n      dup2\n        /* \"#utility.yul\":15470:15482   */\n      add\n        /* \"#utility.yul\":15465:15482   */\n      swap1\n      pop\n        /* \"#utility.yul\":15440:15648   */\n      jump(tag_481)\n    tag_483:\n        /* \"#utility.yul\":15676:15682   */\n      dup7\n        /* \"#utility.yul\":15667:15674   */\n      dup4\n        /* \"#utility.yul\":15664:15683   */\n      lt\n        /* \"#utility.yul\":15661:15840   */\n      iszero\n      tag_484\n      jumpi\n        /* \"#utility.yul\":15734:15743   */\n      dup5\n        /* \"#utility.yul\":15729:15732   */\n      dup10\n        /* \"#utility.yul\":15725:15744   */\n      add\n        /* \"#utility.yul\":15719:15745   */\n      mload\n        /* \"#utility.yul\":15777:15825   */\n      tag_485\n        /* \"#utility.yul\":15819:15823   */\n      0x1f\n        /* \"#utility.yul\":15811:15817   */\n      dup10\n        /* \"#utility.yul\":15807:15824   */\n      and\n        /* \"#utility.yul\":15796:15805   */\n      dup3\n        /* \"#utility.yul\":15777:15825   */\n      tag_289\n      jump\t// in\n    tag_485:\n        /* \"#utility.yul\":15769:15775   */\n      dup4\n        /* \"#utility.yul\":15762:15826   */\n      sstore\n        /* \"#utility.yul\":15684:15840   */\n      pop\n        /* \"#utility.yul\":15661:15840   */\n    tag_484:\n        /* \"#utility.yul\":15886:15887   */\n      0x01\n        /* \"#utility.yul\":15882:15883   */\n      0x02\n        /* \"#utility.yul\":15874:15880   */\n      dup9\n        /* \"#utility.yul\":15870:15884   */\n      mul\n        /* \"#utility.yul\":15866:15888   */\n      add\n        /* \"#utility.yul\":15860:15864   */\n      dup9\n        /* \"#utility.yul\":15853:15889   */\n      sstore\n        /* \"#utility.yul\":15288:15899   */\n      pop\n      pop\n      pop\n        /* \"#utility.yul\":15251:16138   */\n    tag_476:\n      pop\n        /* \"#utility.yul\":14841:16144   */\n      pop\n      pop\n      pop\n        /* \"#utility.yul\":14749:16144   */\n      pop\n      pop\n      jump\t// out\n        /* \"#utility.yul\":16150:16375   */\n    tag_291:\n        /* \"#utility.yul\":16290:16324   */\n      0x4f776e61626c653a206e6577206f776e657220697320746865207a65726f2061\n        /* \"#utility.yul\":16286:16287   */\n      0x00\n        /* \"#utility.yul\":16278:16284   */\n      dup3\n        /* \"#utility.yul\":16274:16288   */\n      add\n        /* \"#utility.yul\":16267:16325   */\n      mstore\n        /* \"#utility.yul\":16359:16367   */\n      0x6464726573730000000000000000000000000000000000000000000000000000\n        /* \"#utility.yul\":16354:16356   */\n      0x20\n        /* \"#utility.yul\":16346:16352   */\n      dup3\n        /* \"#utility.yul\":16342:16357   */\n      add\n        /* \"#utility.yul\":16335:16368   */\n      mstore\n        /* \"#utility.yul\":16150:16375   */\n      pop\n      jump\t// out\n        /* \"#utility.yul\":16381:16747   */\n    tag_292:\n        /* \"#utility.yul\":16523:16526   */\n      0x00\n        /* \"#utility.yul\":16544:16611   */\n      tag_488\n        /* \"#utility.yul\":16608:16610   */\n      0x26\n        /* \"#utility.yul\":16603:16606   */\n      dup4\n        /* \"#utility.yul\":16544:16611   */\n      tag_263\n      jump\t// in\n    tag_488:\n        /* \"#utility.yul\":16537:16611   */\n      swap2\n      pop\n        /* \"#utility.yul\":16620:16713   */\n      tag_489\n        /* \"#utility.yul\":16709:16712   */\n      dup3\n        /* \"#utility.yul\":16620:16713   */\n      tag_291\n      jump\t// in\n    tag_489:\n        /* \"#utility.yul\":16738:16740   */\n      0x40\n        /* \"#utility.yul\":16733:16736   */\n      dup3\n        /* \"#utility.yul\":16729:16741   */\n      add\n        /* \"#utility.yul\":16722:16741   */\n      swap1\n      pop\n        /* \"#utility.yul\":16381:16747   */\n      swap2\n      swap1\n      pop\n      jump\t// out\n        /* \"#utility.yul\":16753:17172   */\n    tag_136:\n        /* \"#utility.yul\":16919:16923   */\n      0x00\n        /* \"#utility.yul\":16957:16959   */\n      0x20\n        /* \"#utility.yul\":16946:16955   */\n      dup3\n        /* \"#utility.yul\":16942:16960   */\n      add\n        /* \"#utility.yul\":16934:16960   */\n      swap1\n      pop\n        /* \"#utility.yul\":17006:17015   */\n      dup2\n        /* \"#utility.yul\":17000:17004   */\n      dup2\n        /* \"#utility.yul\":16996:17016   */\n      sub\n        /* \"#utility.yul\":16992:16993   */\n      0x00\n        /* \"#utility.yul\":16981:16990   */\n      dup4\n        /* \"#utility.yul\":16977:16994   */\n      add\n        /* \"#utility.yul\":16970:17017   */\n      mstore\n        /* \"#utility.yul\":17034:17165   */\n      tag_491\n        /* \"#utility.yul\":17160:17164   */\n      dup2\n        /* \"#utility.yul\":17034:17165   */\n      tag_292\n      jump\t// in\n    tag_491:\n        /* \"#utility.yul\":17026:17165   */\n      swap1\n      pop\n        /* \"#utility.yul\":16753:17172   */\n      swap2\n      swap1\n      pop\n      jump\t// out\n        /* \"#utility.yul\":17178:17360   */\n    tag_293:\n        /* \"#utility.yul\":17318:17352   */\n      0x4f776e61626c653a2063616c6c6572206973206e6f7420746865206f776e6572\n        /* \"#utility.yul\":17314:17315   */\n      0x00\n        /* \"#utility.yul\":17306:17312   */\n      dup3\n        /* \"#utility.yul\":17302:17316   */\n      add\n        /* \"#utility.yul\":17295:17353   */\n      mstore\n        /* \"#utility.yul\":17178:17360   */\n      pop\n      jump\t// out\n        /* \"#utility.yul\":17366:17732   */\n    tag_294:\n        /* \"#utility.yul\":17508:17511   */\n      0x00\n        /* \"#utility.yul\":17529:17596   */\n      tag_494\n        /* \"#utility.yul\":17593:17595   */\n      0x20\n        /* \"#utility.yul\":17588:17591   */\n      dup4\n        /* \"#utility.yul\":17529:17596   */\n      tag_263\n      jump\t// in\n    tag_494:\n        /* \"#utility.yul\":17522:17596   */\n      swap2\n      pop\n        /* \"#utility.yul\":17605:17698   */\n      tag_495\n        /* \"#utility.yul\":17694:17697   */\n      dup3\n        /* \"#utility.yul\":17605:17698   */\n      tag_293\n      jump\t// in\n    tag_495:\n        /* \"#utility.yul\":17723:17725   */\n      0x20\n        /* \"#utility.yul\":17718:17721   */\n      dup3\n        /* \"#utility.yul\":17714:17726   */\n      add\n        /* \"#utility.yul\":17707:17726   */\n      swap1\n      pop\n        /* \"#utility.yul\":17366:17732   */\n      swap2\n      swap1\n      pop\n      jump\t// out\n        /* \"#utility.yul\":17738:18157   */\n    tag_154:\n        /* \"#utility.yul\":17904:17908   */\n      0x00\n        /* \"#utility.yul\":17942:17944   */\n      0x20\n        /* \"#utility.yul\":17931:17940   */\n      dup3\n        /* \"#utility.yul\":17927:17945   */\n      add\n        /* \"#utility.yul\":17919:17945   */\n      swap1\n      pop\n        /* \"#utility.yul\":17991:18000   */\n      dup2\n        /* \"#utility.yul\":17985:17989   */\n      dup2\n        /* \"#utility.yul\":17981:18001   */\n      sub\n        /* \"#utility.yul\":17977:17978   */\n      0x00\n        /* \"#utility.yul\":17966:17975   */\n      dup4\n        /* \"#utility.yul\":17962:17979   */\n      add\n        /* \"#utility.yul\":17955:18002   */\n      mstore\n        /* \"#utility.yul\":18019:18150   */\n      tag_497\n        /* \"#utility.yul\":18145:18149   */\n      dup2\n        /* \"#utility.yul\":18019:18150   */\n      tag_294\n      jump\t// in\n    tag_497:\n        /* \"#utility.yul\":18011:18150   */\n      swap1\n      pop\n        /* \"#utility.yul\":17738:18157   */\n      swap2\n      swap1\n      pop\n      jump\t// out\n        /* \"#utility.yul\":18163:18336   */\n    tag_295:\n        /* \"#utility.yul\":18303:18328   */\n      0x416363657373436f6e74726f6c3a206163636f756e7420000000000000000000\n        /* \"#utility.yul\":18299:18300   */\n      0x00\n        /* \"#utility.yul\":18291:18297   */\n      dup3\n        /* \"#utility.yul\":18287:18301   */\n      add\n        /* \"#utility.yul\":18280:18329   */\n      mstore\n        /* \"#utility.yul\":18163:18336   */\n      pop\n      jump\t// out\n        /* \"#utility.yul\":18342:18744   */\n    tag_296:\n        /* \"#utility.yul\":18502:18505   */\n      0x00\n        /* \"#utility.yul\":18523:18608   */\n      tag_500\n        /* \"#utility.yul\":18605:18607   */\n      0x17\n        /* \"#utility.yul\":18600:18603   */\n      dup4\n        /* \"#utility.yul\":18523:18608   */\n      tag_269\n      jump\t// in\n    tag_500:\n        /* \"#utility.yul\":18516:18608   */\n      swap2\n      pop\n        /* \"#utility.yul\":18617:18710   */\n      tag_501\n        /* \"#utility.yul\":18706:18709   */\n      dup3\n        /* \"#utility.yul\":18617:18710   */\n      tag_295\n      jump\t// in\n    tag_501:\n        /* \"#utility.yul\":18735:18737   */\n      0x17\n        /* \"#utility.yul\":18730:18733   */\n      dup3\n        /* \"#utility.yul\":18726:18738   */\n      add\n        /* \"#utility.yul\":18719:18738   */\n      swap1\n      pop\n        /* \"#utility.yul\":18342:18744   */\n      swap2\n      swap1\n      pop\n      jump\t// out\n        /* \"#utility.yul\":18750:18917   */\n    tag_297:\n        /* \"#utility.yul\":18890:18909   */\n      0x206973206d697373696e6720726f6c6520000000000000000000000000000000\n        /* \"#utility.yul\":18886:18887   */\n      0x00\n        /* \"#utility.yul\":18878:18884   */\n      dup3\n        /* \"#utility.yul\":18874:18888   */\n      add\n        /* \"#utility.yul\":18867:18910   */\n      mstore\n        /* \"#utility.yul\":18750:18917   */\n      pop\n      jump\t// out\n        /* \"#utility.yul\":18923:19325   */\n    tag_298:\n        /* \"#utility.yul\":19083:19086   */\n      0x00\n        /* \"#utility.yul\":19104:19189   */\n      tag_504\n        /* \"#utility.yul\":19186:19188   */\n      0x11\n        /* \"#utility.yul\":19181:19184   */\n      dup4\n        /* \"#utility.yul\":19104:19189   */\n      tag_269\n      jump\t// in\n    tag_504:\n        /* \"#utility.yul\":19097:19189   */\n      swap2\n      pop\n        /* \"#utility.yul\":19198:19291   */\n      tag_505\n        /* \"#utility.yul\":19287:19290   */\n      dup3\n        /* \"#utility.yul\":19198:19291   */\n      tag_297\n      jump\t// in\n    tag_505:\n        /* \"#utility.yul\":19316:19318   */\n      0x11\n        /* \"#utility.yul\":19311:19314   */\n      dup3\n        /* \"#utility.yul\":19307:19319   */\n      add\n        /* \"#utility.yul\":19300:19319   */\n      swap1\n      pop\n        /* \"#utility.yul\":18923:19325   */\n      swap2\n      swap1\n      pop\n      jump\t// out\n        /* \"#utility.yul\":19331:20298   */\n    tag_163:\n        /* \"#utility.yul\":19713:19716   */\n      0x00\n        /* \"#utility.yul\":19735:19883   */\n      tag_507\n        /* \"#utility.yul\":19879:19882   */\n      dup3\n        /* \"#utility.yul\":19735:19883   */\n      tag_296\n      jump\t// in\n    tag_507:\n        /* \"#utility.yul\":19728:19883   */\n      swap2\n      pop\n        /* \"#utility.yul\":19900:19995   */\n      tag_508\n        /* \"#utility.yul\":19991:19994   */\n      dup3\n        /* \"#utility.yul\":19982:19988   */\n      dup6\n        /* \"#utility.yul\":19900:19995   */\n      tag_274\n      jump\t// in\n    tag_508:\n        /* \"#utility.yul\":19893:19995   */\n      swap2\n      pop\n        /* \"#utility.yul\":20012:20160   */\n      tag_509\n        /* \"#utility.yul\":20156:20159   */\n      dup3\n        /* \"#utility.yul\":20012:20160   */\n      tag_298\n      jump\t// in\n    tag_509:\n        /* \"#utility.yul\":20005:20160   */\n      swap2\n      pop\n        /* \"#utility.yul\":20177:20272   */\n      tag_510\n        /* \"#utility.yul\":20268:20271   */\n      dup3\n        /* \"#utility.yul\":20259:20265   */\n      dup5\n        /* \"#utility.yul\":20177:20272   */\n      tag_274\n      jump\t// in\n    tag_510:\n        /* \"#utility.yul\":20170:20272   */\n      swap2\n      pop\n        /* \"#utility.yul\":20289:20292   */\n      dup2\n        /* \"#utility.yul\":20282:20292   */\n      swap1\n      pop\n        /* \"#utility.yul\":19331:20298   */\n      swap4\n      swap3\n      pop\n      pop\n      pop\n      jump\t// out\n        /* \"#utility.yul\":20304:20406   */\n    tag_299:\n        /* \"#utility.yul\":20345:20351   */\n      0x00\n        /* \"#utility.yul\":20396:20398   */\n      0x1f\n        /* \"#utility.yul\":20392:20399   */\n      not\n        /* \"#utility.yul\":20387:20389   */\n      0x1f\n        /* \"#utility.yul\":20380:20385   */\n      dup4\n        /* \"#utility.yul\":20376:20390   */\n      add\n        /* \"#utility.yul\":20372:20400   */\n      and\n        /* \"#utility.yul\":20362:20400   */\n      swap1\n      pop\n        /* \"#utility.yul\":20304:20406   */\n      swap2\n      swap1\n      pop\n      jump\t// out\n        /* \"#utility.yul\":20412:20789   */\n    tag_300:\n        /* \"#utility.yul\":20500:20503   */\n      0x00\n        /* \"#utility.yul\":20528:20567   */\n      tag_513\n        /* \"#utility.yul\":20561:20566   */\n      dup3\n        /* \"#utility.yul\":20528:20567   */\n      tag_272\n      jump\t// in\n    tag_513:\n        /* \"#utility.yul\":20583:20654   */\n      tag_514\n        /* \"#utility.yul\":20647:20653   */\n      dup2\n        /* \"#utility.yul\":20642:20645   */\n      dup6\n        /* \"#utility.yul\":20583:20654   */\n      tag_263\n      jump\t// in\n    tag_514:\n        /* \"#utility.yul\":20576:20654   */\n      swap4\n      pop\n        /* \"#utility.yul\":20663:20728   */\n      tag_515\n        /* \"#utility.yul\":20721:20727   */\n      dup2\n        /* \"#utility.yul\":20716:20719   */\n      dup6\n        /* \"#utility.yul\":20709:20713   */\n      0x20\n        /* \"#utility.yul\":20702:20707   */\n      dup7\n        /* \"#utility.yul\":20698:20714   */\n      add\n        /* \"#utility.yul\":20663:20728   */\n      tag_273\n      jump\t// in\n    tag_515:\n        /* \"#utility.yul\":20753:20782   */\n      tag_516\n        /* \"#utility.yul\":20775:20781   */\n      dup2\n        /* \"#utility.yul\":20753:20782   */\n      tag_299\n      jump\t// in\n    tag_516:\n        /* \"#utility.yul\":20748:20751   */\n      dup5\n        /* \"#utility.yul\":20744:20783   */\n      add\n        /* \"#utility.yul\":20737:20783   */\n      swap2\n      pop\n        /* \"#utility.yul\":20504:20789   */\n      pop\n        /* \"#utility.yul\":20412:20789   */\n      swap3\n      swap2\n      pop\n      pop\n      jump\t// out\n        /* \"#utility.yul\":20795:21108   */\n    tag_165:\n        /* \"#utility.yul\":20908:20912   */\n      0x00\n        /* \"#utility.yul\":20946:20948   */\n      0x20\n        /* \"#utility.yul\":20935:20944   */\n      dup3\n        /* \"#utility.yul\":20931:20949   */\n      add\n        /* \"#utility.yul\":20923:20949   */\n      swap1\n      pop\n        /* \"#utility.yul\":20995:21004   */\n      dup2\n        /* \"#utility.yul\":20989:20993   */\n      dup2\n        /* \"#utility.yul\":20985:21005   */\n      sub\n        /* \"#utility.yul\":20981:20982   */\n      0x00\n        /* \"#utility.yul\":20970:20979   */\n      dup4\n        /* \"#utility.yul\":20966:20983   */\n      add\n        /* \"#utility.yul\":20959:21006   */\n      mstore\n        /* \"#utility.yul\":21023:21101   */\n      tag_518\n        /* \"#utility.yul\":21096:21100   */\n      dup2\n        /* \"#utility.yul\":21087:21093   */\n      dup5\n        /* \"#utility.yul\":21023:21101   */\n      tag_300\n      jump\t// in\n    tag_518:\n        /* \"#utility.yul\":21015:21101   */\n      swap1\n      pop\n        /* \"#utility.yul\":20795:21108   */\n      swap3\n      swap2\n      pop\n      pop\n      jump\t// out\n        /* \"#utility.yul\":21114:21524   */\n    tag_184:\n        /* \"#utility.yul\":21154:21161   */\n      0x00\n        /* \"#utility.yul\":21177:21197   */\n      tag_520\n        /* \"#utility.yul\":21195:21196   */\n      dup3\n        /* \"#utility.yul\":21177:21197   */\n      tag_266\n      jump\t// in\n    tag_520:\n        /* \"#utility.yul\":21172:21197   */\n      swap2\n      pop\n        /* \"#utility.yul\":21211:21231   */\n      tag_521\n        /* \"#utility.yul\":21229:21230   */\n      dup4\n        /* \"#utility.yul\":21211:21231   */\n      tag_266\n      jump\t// in\n    tag_521:\n        /* \"#utility.yul\":21206:21231   */\n      swap3\n      pop\n        /* \"#utility.yul\":21266:21267   */\n      dup3\n        /* \"#utility.yul\":21263:21264   */\n      dup3\n        /* \"#utility.yul\":21259:21268   */\n      mul\n        /* \"#utility.yul\":21288:21318   */\n      tag_522\n        /* \"#utility.yul\":21306:21317   */\n      dup2\n        /* \"#utility.yul\":21288:21318   */\n      tag_266\n      jump\t// in\n    tag_522:\n        /* \"#utility.yul\":21277:21318   */\n      swap2\n      pop\n        /* \"#utility.yul\":21467:21468   */\n      dup3\n        /* \"#utility.yul\":21458:21465   */\n      dup3\n        /* \"#utility.yul\":21454:21469   */\n      div\n        /* \"#utility.yul\":21451:21452   */\n      dup5\n        /* \"#utility.yul\":21448:21470   */\n      eq\n        /* \"#utility.yul\":21428:21429   */\n      dup4\n        /* \"#utility.yul\":21421:21430   */\n      iszero\n        /* \"#utility.yul\":21401:21484   */\n      or\n        /* \"#utility.yul\":21378:21517   */\n      tag_523\n      jumpi\n        /* \"#utility.yul\":21497:21515   */\n      tag_524\n      tag_267\n      jump\t// in\n    tag_524:\n        /* \"#utility.yul\":21378:21517   */\n    tag_523:\n        /* \"#utility.yul\":21162:21524   */\n      pop\n        /* \"#utility.yul\":21114:21524   */\n      swap3\n      swap2\n      pop\n      pop\n      jump\t// out\n        /* \"#utility.yul\":21530:21701   */\n    tag_234:\n        /* \"#utility.yul\":21569:21572   */\n      0x00\n        /* \"#utility.yul\":21592:21616   */\n      tag_526\n        /* \"#utility.yul\":21610:21615   */\n      dup3\n        /* \"#utility.yul\":21592:21616   */\n      tag_266\n      jump\t// in\n    tag_526:\n        /* \"#utility.yul\":21583:21616   */\n      swap2\n      pop\n        /* \"#utility.yul\":21638:21642   */\n      0x00\n        /* \"#utility.yul\":21631:21636   */\n      dup3\n        /* \"#utility.yul\":21628:21643   */\n      sub\n        /* \"#utility.yul\":21625:21666   */\n      tag_527\n      jumpi\n        /* \"#utility.yul\":21646:21664   */\n      tag_528\n      tag_267\n      jump\t// in\n    tag_528:\n        /* \"#utility.yul\":21625:21666   */\n    tag_527:\n        /* \"#utility.yul\":21693:21694   */\n      0x01\n        /* \"#utility.yul\":21686:21691   */\n      dup3\n        /* \"#utility.yul\":21682:21695   */\n      sub\n        /* \"#utility.yul\":21675:21695   */\n      swap1\n      pop\n        /* \"#utility.yul\":21530:21701   */\n      swap2\n      swap1\n      pop\n      jump\t// out\n        /* \"#utility.yul\":21707:21825   */\n    tag_301:\n        /* \"#utility.yul\":21794:21818   */\n      tag_530\n        /* \"#utility.yul\":21812:21817   */\n      dup2\n        /* \"#utility.yul\":21794:21818   */\n      tag_266\n      jump\t// in\n    tag_530:\n        /* \"#utility.yul\":21789:21792   */\n      dup3\n        /* \"#utility.yul\":21782:21819   */\n      mstore\n        /* \"#utility.yul\":21707:21825   */\n      pop\n      pop\n      jump\t// out\n        /* \"#utility.yul\":21831:22163   */\n    tag_237:\n        /* \"#utility.yul\":21952:21956   */\n      0x00\n        /* \"#utility.yul\":21990:21992   */\n      0x40\n        /* \"#utility.yul\":21979:21988   */\n      dup3\n        /* \"#utility.yul\":21975:21993   */\n      add\n        /* \"#utility.yul\":21967:21993   */\n      swap1\n      pop\n        /* \"#utility.yul\":22003:22074   */\n      tag_532\n        /* \"#utility.yul\":22071:22072   */\n      0x00\n        /* \"#utility.yul\":22060:22069   */\n      dup4\n        /* \"#utility.yul\":22056:22073   */\n      add\n        /* \"#utility.yul\":22047:22053   */\n      dup6\n        /* \"#utility.yul\":22003:22074   */\n      tag_301\n      jump\t// in\n    tag_532:\n        /* \"#utility.yul\":22084:22156   */\n      tag_533\n        /* \"#utility.yul\":22152:22154   */\n      0x20\n        /* \"#utility.yul\":22141:22150   */\n      dup4\n        /* \"#utility.yul\":22137:22155   */\n      add\n        /* \"#utility.yul\":22128:22134   */\n      dup5\n        /* \"#utility.yul\":22084:22156   */\n      tag_301\n      jump\t// in\n    tag_533:\n        /* \"#utility.yul\":21831:22163   */\n      swap4\n      swap3\n      pop\n      pop\n      pop\n      jump\t// out\n\n    auxdata: 0xa26469706673582212200b0f3cb3ae847db981068b00295987a53c37254d8dc5864b6943327d99ec393d64736f6c63430008160033\n}\n",
				"bytecode": {
					"linkReferences": {},
					"object": "608060405234801561000f575f80fd5b50336100208161002660201b60201c565b506100e7565b5f805f9054906101000a900473ffffffffffffffffffffffffffffffffffffffff169050815f806101000a81548173ffffffffffffffffffffffffffffffffffffffff021916908373ffffffffffffffffffffffffffffffffffffffff1602179055508173ffffffffffffffffffffffffffffffffffffffff168173ffffffffffffffffffffffffffffffffffffffff167f8be0079c531659141344cd1fd0a4f28419497f9722a3daafe3b4186f6b6457e060405160405180910390a35050565b611dc3806100f45f395ff3fe608060405234801561000f575f80fd5b50600436106100a7575f3560e01c80638da5cb5b1161006f5780638da5cb5b1461015f57806391d148541461017d578063a217fddf146101ad578063a8f2be76146101cb578063ac0cc465146101fb578063f2fde38b14610217576100a7565b806301ffc9a7146100ab578063248a9ca3146100db57806336568abe1461010b5780634420e486146101275780634cc2f08114610143575b5f80fd5b6100c560048036038101906100c09190611209565b610233565b6040516100d2919061124e565b60405180910390f35b6100f560048036038101906100f0919061129a565b61029c565b60405161010291906112d4565b60405180910390f35b61012560048036038101906101209190611347565b6102b9565b005b610141600480360381019061013c9190611385565b610356565b005b61015d600480360381019061015891906113b0565b610377565b005b610167610541565b60405161017491906113fd565b60405180910390f35b61019760048036038101906101929190611347565b610568565b6040516101a4919061124e565b60405180910390f35b6101b56105cc565b6040516101c291906112d4565b60405180910390f35b6101e560048036038101906101e09190611385565b6105d2565b6040516101f2919061124e565b60405180910390f35b610215600480360381019061021091906113b0565b6105e8565b005b610231600480360381019061022c9190611385565b610666565b005b5f7f01ffc9a7000000000000000000000000000000000000000000000000000000007bffffffffffffffffffffffffffffffffffffffffffffffffffffffff1916827bffffffffffffffffffffffffffffffffffffffffffffffffffffffff1916149050919050565b5f60015f8381526020019081526020015f20600101549050919050565b60025f9054906101000a900473ffffffffffffffffffffffffffffffffffffffff1673ffffffffffffffffffffffffffffffffffffffff168173ffffffffffffffffffffffffffffffffffffffff1614610348576040517f08c379a000000000000000000000000000000000000000000000000000000000815260040161033f90611496565b60405180910390fd5b610352828261070a565b5050565b61035f81610666565b610368816107ff565b6103745f801b8261084d565b50565b8161038181610887565b5f801b8361038f82826108ff565b5f7fffffffffffffffffffffffffffffffffffffffffffffffffffffffffffffffff90505f6103bd86610983565b90505f5b60016003805490506103d391906114ea565b81101561050a575f600382815481106103ef576103ee61151d565b5b905f5260205f20016040516020016104079190611643565b604051602081830303815290604052805190602001208360405160200161042e91906116bb565b604051602081830303815290604052805190602001201490507fffffffffffffffffffffffffffffffffffffffffffffffffffffffffffffffff8414801561047a575060011515811515145b15610483578193505b7fffffffffffffffffffffffffffffffffffffffffffffffffffffffffffffffff84146104fc5760036001836104b991906116d1565b815481106104ca576104c961151d565b5b905f5260205f2001600383815481106104e6576104e561151d565b5b905f5260205f200190816104fa91906118e3565b505b5080806001019150506103c1565b50600380548061051d5761051c6119c8565b5b600190038181905f5260205f20015f6105369190611158565b905550505050505050565b5f805f9054906101000a900473ffffffffffffffffffffffffffffffffffffffff16905090565b5f60015f8481526020019081526020015f205f015f8373ffffffffffffffffffffffffffffffffffffffff1673ffffffffffffffffffffffffffffffffffffffff1681526020019081526020015f205f9054906101000a900460ff16905092915050565b5f801b81565b5f806105dd83610c7e565b905080915050919050565b816105f281610887565b5f801b8361060082826108ff565b5f61060a85610c7e565b9050600115158115150361061e575061065f565b5f61062886610983565b9050600381908060018154018082558091505060019003905f5260205f20015f90919091909150908161065b91906119f5565b5050505b5050505050565b5f8054906101000a900473ffffffffffffffffffffffffffffffffffffffff1661068f81610887565b5f73ffffffffffffffffffffffffffffffffffffffff168273ffffffffffffffffffffffffffffffffffffffff16036106fd576040517f08c379a00000000000000000000000000000000000000000000000000000000081526004016106f490611b34565b60405180910390fd5b61070682610d38565b5050565b6107148282610568565b156107fb575f60015f8481526020019081526020015f205f015f8373ffffffffffffffffffffffffffffffffffffffff1673ffffffffffffffffffffffffffffffffffffffff1681526020019081526020015f205f6101000a81548160ff02191690831515021790555060025f9054906101000a900473ffffffffffffffffffffffffffffffffffffffff1673ffffffffffffffffffffffffffffffffffffffff168173ffffffffffffffffffffffffffffffffffffffff16837ff6391f5c32d9c69d2a47ea670b442974b53935d1edc7fd64eb21e047a839171b60405160405180910390a45b5050565b8061080981610887565b8160025f6101000a81548173ffffffffffffffffffffffffffffffffffffffff021916908373ffffffffffffffffffffffffffffffffffffffff1602179055505050565b60025f9054906101000a900473ffffffffffffffffffffffffffffffffffffffff1661087881610887565b6108828383610df9565b505050565b8073ffffffffffffffffffffffffffffffffffffffff166108a6610541565b73ffffffffffffffffffffffffffffffffffffffff16146108fc576040517f08c379a00000000000000000000000000000000000000000000000000000000081526004016108f390611b9c565b60405180910390fd5b50565b6109098282610568565b61097f5761091681610eed565b610923835f1c6020610f1a565b604051602001610934929190611c4e565b6040516020818303038152906040526040517f08c379a00000000000000000000000000000000000000000000000000000000081526004016109769190611ccf565b60405180910390fd5b5050565b60605f8273ffffffffffffffffffffffffffffffffffffffff165f1b90505f6040518060400160405280601081526020017f303132333435363738396162636465660000000000000000000000000000000081525090505f603367ffffffffffffffff8111156109f6576109f5611719565b5b6040519080825280601f01601f191660200182016040528015610a285781602001600182028036833780820191505090505b5090507f3000000000000000000000000000000000000000000000000000000000000000815f81518110610a5f57610a5e61151d565b5b60200101907effffffffffffffffffffffffffffffffffffffffffffffffffffffffffffff191690815f1a9053507f780000000000000000000000000000000000000000000000000000000000000081600181518110610ac257610ac161151d565b5b60200101907effffffffffffffffffffffffffffffffffffffffffffffffffffffffffffff191690815f1a9053505f5b6014811015610c725782600485600c84610b0c91906116d1565b60208110610b1d57610b1c61151d565b5b1a60f81b7effffffffffffffffffffffffffffffffffffffffffffffffffffffffffffff1916901c60f81c60ff1681518110610b5c57610b5b61151d565b5b602001015160f81c60f81b82600283610b759190611cef565b6002610b8191906116d1565b81518110610b9257610b9161151d565b5b60200101907effffffffffffffffffffffffffffffffffffffffffffffffffffffffffffff191690815f1a90535082600f60f81b85600c84610bd491906116d1565b60208110610be557610be461151d565b5b1a60f81b1660f81c60ff1681518110610c0157610c0061151d565b5b602001015160f81c60f81b82600283610c1a9190611cef565b6003610c2691906116d1565b81518110610c3757610c3661151d565b5b60200101907effffffffffffffffffffffffffffffffffffffffffffffffffffffffffffff191690815f1a9053508080600101915050610af2565b50809350505050919050565b5f80610c8983610983565b90505f5b600380549050811015610d2d575f60038281548110610caf57610cae61151d565b5b905f5260205f2001604051602001610cc79190611643565b6040516020818303038152906040528051906020012083604051602001610cee91906116bb565b604051602081830303815290604052805190602001201490506001151581151503610d1f5760019350505050610d33565b508080600101915050610c8d565b505f9150505b919050565b5f805f9054906101000a900473ffffffffffffffffffffffffffffffffffffffff169050815f806101000a81548173ffffffffffffffffffffffffffffffffffffffff021916908373ffffffffffffffffffffffffffffffffffffffff1602179055508173ffffffffffffffffffffffffffffffffffffffff168173ffffffffffffffffffffffffffffffffffffffff167f8be0079c531659141344cd1fd0a4f28419497f9722a3daafe3b4186f6b6457e060405160405180910390a35050565b610e038282610568565b610ee9576001805f8481526020019081526020015f205f015f8373ffffffffffffffffffffffffffffffffffffffff1673ffffffffffffffffffffffffffffffffffffffff1681526020019081526020015f205f6101000a81548160ff02191690831515021790555060025f9054906101000a900473ffffffffffffffffffffffffffffffffffffffff1673ffffffffffffffffffffffffffffffffffffffff168173ffffffffffffffffffffffffffffffffffffffff16837f2f8788117e7eff1d82e926ec794901d17c78024a50270940304540a733656f0d60405160405180910390a45b5050565b6060610f138273ffffffffffffffffffffffffffffffffffffffff16601460ff16610f1a565b9050919050565b60605f8390505f6002846002610f309190611cef565b610f3a91906116d1565b67ffffffffffffffff811115610f5357610f52611719565b5b6040519080825280601f01601f191660200182016040528015610f855781602001600182028036833780820191505090505b5090507f3000000000000000000000000000000000000000000000000000000000000000815f81518110610fbc57610fbb61151d565b5b60200101907effffffffffffffffffffffffffffffffffffffffffffffffffffffffffffff191690815f1a9053507f78000000000000000000000000000000000000000000000000000000000000008160018151811061101f5761101e61151d565b5b60200101907effffffffffffffffffffffffffffffffffffffffffffffffffffffffffffff191690815f1a9053505f600185600261105d9190611cef565b61106791906116d1565b90505b6001811115611106577f3031323334353637383961626364656600000000000000000000000000000000600f8416601081106110a9576110a861151d565b5b1a60f81b8282815181106110c0576110bf61151d565b5b60200101907effffffffffffffffffffffffffffffffffffffffffffffffffffffffffffff191690815f1a905350600483901c9250806110ff90611d30565b905061106a565b505f821461114d5784846040517fe22e27eb000000000000000000000000000000000000000000000000000000008152600401611144929190611d66565b60405180910390fd5b809250505092915050565b50805461116490611577565b5f825580601f106111755750611192565b601f0160209004905f5260205f20908101906111919190611195565b5b50565b5b808211156111ac575f815f905550600101611196565b5090565b5f80fd5b5f7fffffffff0000000000000000000000000000000000000000000000000000000082169050919050565b6111e8816111b4565b81146111f2575f80fd5b50565b5f81359050611203816111df565b92915050565b5f6020828403121561121e5761121d6111b0565b5b5f61122b848285016111f5565b91505092915050565b5f8115159050919050565b61124881611234565b82525050565b5f6020820190506112615f83018461123f565b92915050565b5f819050919050565b61127981611267565b8114611283575f80fd5b50565b5f8135905061129481611270565b92915050565b5f602082840312156112af576112ae6111b0565b5b5f6112bc84828501611286565b91505092915050565b6112ce81611267565b82525050565b5f6020820190506112e75f8301846112c5565b92915050565b5f73ffffffffffffffffffffffffffffffffffffffff82169050919050565b5f611316826112ed565b9050919050565b6113268161130c565b8114611330575f80fd5b50565b5f813590506113418161131d565b92915050565b5f806040838503121561135d5761135c6111b0565b5b5f61136a85828601611286565b925050602061137b85828601611333565b9150509250929050565b5f6020828403121561139a576113996111b0565b5b5f6113a784828501611333565b91505092915050565b5f80604083850312156113c6576113c56111b0565b5b5f6113d385828601611333565b92505060206113e485828601611333565b9150509250929050565b6113f78161130c565b82525050565b5f6020820190506114105f8301846113ee565b92915050565b5f82825260208201905092915050565b7f416363657373436f6e74726f6c3a2063616e206f6e6c792072656e6f756e63655f8201527f20726f6c657320666f722073656c660000000000000000000000000000000000602082015250565b5f611480602f83611416565b915061148b82611426565b604082019050919050565b5f6020820190508181035f8301526114ad81611474565b9050919050565b5f819050919050565b7f4e487b71000000000000000000000000000000000000000000000000000000005f52601160045260245ffd5b5f6114f4826114b4565b91506114ff836114b4565b9250828203905081811115611517576115166114bd565b5b92915050565b7f4e487b71000000000000000000000000000000000000000000000000000000005f52603260045260245ffd5b7f4e487b71000000000000000000000000000000000000000000000000000000005f52602260045260245ffd5b5f600282049050600182168061158e57607f821691505b6020821081036115a1576115a061154a565b5b50919050565b5f81905092915050565b5f819050815f5260205f209050919050565b5f81546115cf81611577565b6115d981866115a7565b9450600182165f81146115f357600181146116085761163a565b60ff198316865281151582028601935061163a565b611611856115b1565b5f5b8381101561163257815481890152600182019150602081019050611613565b838801955050505b50505092915050565b5f61164e82846115c3565b915081905092915050565b5f81519050919050565b5f5b83811015611680578082015181840152602081019050611665565b5f8484015250505050565b5f61169582611659565b61169f81856115a7565b93506116af818560208601611663565b80840191505092915050565b5f6116c6828461168b565b915081905092915050565b5f6116db826114b4565b91506116e6836114b4565b92508282019050808211156116fe576116fd6114bd565b5b92915050565b5f8154905061171281611577565b9050919050565b7f4e487b71000000000000000000000000000000000000000000000000000000005f52604160045260245ffd5b5f819050815f5260205f209050919050565b5f6020601f8301049050919050565b5f82821b905092915050565b5f600883026117a27fffffffffffffffffffffffffffffffffffffffffffffffffffffffffffffffff82611767565b6117ac8683611767565b95508019841693508086168417925050509392505050565b5f819050919050565b5f6117e76117e26117dd846114b4565b6117c4565b6114b4565b9050919050565b5f819050919050565b611800836117cd565b61181461180c826117ee565b848454611773565b825550505050565b5f90565b61182861181c565b6118338184846117f7565b505050565b5b818110156118565761184b5f82611820565b600181019050611839565b5050565b601f82111561189b5761186c816115b1565b61187584611758565b81016020851015611884578190505b61189861189085611758565b830182611838565b50505b505050565b5f82821c905092915050565b5f6118bb5f19846008026118a0565b1980831691505092915050565b5f6118d383836118ac565b9150826002028217905092915050565b8181036118f15750506119c6565b6118fa82611704565b67ffffffffffffffff81111561191357611912611719565b5b61191d8254611577565b61192882828561185a565b5f601f831160018114611955575f8415611943578287015490505b61194d85826118c8565b8655506119bf565b601f19841661196387611746565b965061196e866115b1565b5f5b8281101561199557848901548255600182019150600185019450602081019050611970565b868310156119b257848901546119ae601f8916826118ac565b8355505b6001600288020188555050505b5050505050505b565b7f4e487b71000000000000000000000000000000000000000000000000000000005f52603160045260245ffd5b6119fe82611659565b67ffffffffffffffff811115611a1757611a16611719565b5b611a218254611577565b611a2c82828561185a565b5f60209050601f831160018114611a5d575f8415611a4b578287015190505b611a5585826118c8565b865550611abc565b601f198416611a6b866115b1565b5f5b82811015611a9257848901518255600182019150602085019450602081019050611a6d565b86831015611aaf5784890151611aab601f8916826118ac565b8355505b6001600288020188555050505b505050505050565b7f4f776e61626c653a206e6577206f776e657220697320746865207a65726f20615f8201527f6464726573730000000000000000000000000000000000000000000000000000602082015250565b5f611b1e602683611416565b9150611b2982611ac4565b604082019050919050565b5f6020820190508181035f830152611b4b81611b12565b9050919050565b7f4f776e61626c653a2063616c6c6572206973206e6f7420746865206f776e65725f82015250565b5f611b86602083611416565b9150611b9182611b52565b602082019050919050565b5f6020820190508181035f830152611bb381611b7a565b9050919050565b7f416363657373436f6e74726f6c3a206163636f756e74200000000000000000005f82015250565b5f611bee6017836115a7565b9150611bf982611bba565b601782019050919050565b7f206973206d697373696e6720726f6c65200000000000000000000000000000005f82015250565b5f611c386011836115a7565b9150611c4382611c04565b601182019050919050565b5f611c5882611be2565b9150611c64828561168b565b9150611c6f82611c2c565b9150611c7b828461168b565b91508190509392505050565b5f601f19601f8301169050919050565b5f611ca182611659565b611cab8185611416565b9350611cbb818560208601611663565b611cc481611c87565b840191505092915050565b5f6020820190508181035f830152611ce78184611c97565b905092915050565b5f611cf9826114b4565b9150611d04836114b4565b9250828202611d12816114b4565b91508282048414831517611d2957611d286114bd565b5b5092915050565b5f611d3a826114b4565b91505f8203611d4c57611d4b6114bd565b5b600182039050919050565b611d60816114b4565b82525050565b5f604082019050611d795f830185611d57565b611d866020830184611d57565b939250505056fea26469706673582212200b0f3cb3ae847db981068b00295987a53c37254d8dc5864b6943327d99ec393d64736f6c63430008160033",
					"opcodes": "PUSH1 0x80 PUSH1 0x40 MSTORE CALLVALUE DUP1 ISZERO PUSH2 0xF JUMPI PUSH0 DUP1 REVERT JUMPDEST POP CALLER PUSH2 0x20 DUP2 PUSH2 0x26 PUSH1 0x20 SHL PUSH1 0x20 SHR JUMP JUMPDEST POP PUSH2 0xE7 JUMP JUMPDEST PUSH0 DUP1 PUSH0 SWAP1 SLOAD SWAP1 PUSH2 0x100 EXP SWAP1 DIV PUSH20 0xFFFFFFFFFFFFFFFFFFFFFFFFFFFFFFFFFFFFFFFF AND SWAP1 POP DUP2 PUSH0 DUP1 PUSH2 0x100 EXP DUP2 SLOAD DUP2 PUSH20 0xFFFFFFFFFFFFFFFFFFFFFFFFFFFFFFFFFFFFFFFF MUL NOT AND SWAP1 DUP4 PUSH20 0xFFFFFFFFFFFFFFFFFFFFFFFFFFFFFFFFFFFFFFFF AND MUL OR SWAP1 SSTORE POP DUP2 PUSH20 0xFFFFFFFFFFFFFFFFFFFFFFFFFFFFFFFFFFFFFFFF AND DUP2 PUSH20 0xFFFFFFFFFFFFFFFFFFFFFFFFFFFFFFFFFFFFFFFF AND PUSH32 0x8BE0079C531659141344CD1FD0A4F28419497F9722A3DAAFE3B4186F6B6457E0 PUSH1 0x40 MLOAD PUSH1 0x40 MLOAD DUP1 SWAP2 SUB SWAP1 LOG3 POP POP JUMP JUMPDEST PUSH2 0x1DC3 DUP1 PUSH2 0xF4 PUSH0 CODECOPY PUSH0 RETURN INVALID PUSH1 0x80 PUSH1 0x40 MSTORE CALLVALUE DUP1 ISZERO PUSH2 0xF JUMPI PUSH0 DUP1 REVERT JUMPDEST POP PUSH1 0x4 CALLDATASIZE LT PUSH2 0xA7 JUMPI PUSH0 CALLDATALOAD PUSH1 0xE0 SHR DUP1 PUSH4 0x8DA5CB5B GT PUSH2 0x6F JUMPI DUP1 PUSH4 0x8DA5CB5B EQ PUSH2 0x15F JUMPI DUP1 PUSH4 0x91D14854 EQ PUSH2 0x17D JUMPI DUP1 PUSH4 0xA217FDDF EQ PUSH2 0x1AD JUMPI DUP1 PUSH4 0xA8F2BE76 EQ PUSH2 0x1CB JUMPI DUP1 PUSH4 0xAC0CC465 EQ PUSH2 0x1FB JUMPI DUP1 PUSH4 0xF2FDE38B EQ PUSH2 0x217 JUMPI PUSH2 0xA7 JUMP JUMPDEST DUP1 PUSH4 0x1FFC9A7 EQ PUSH2 0xAB JUMPI DUP1 PUSH4 0x248A9CA3 EQ PUSH2 0xDB JUMPI DUP1 PUSH4 0x36568ABE EQ PUSH2 0x10B JUMPI DUP1 PUSH4 0x4420E486 EQ PUSH2 0x127 JUMPI DUP1 PUSH4 0x4CC2F081 EQ PUSH2 0x143 JUMPI JUMPDEST PUSH0 DUP1 REVERT JUMPDEST PUSH2 0xC5 PUSH1 0x4 DUP1 CALLDATASIZE SUB DUP2 ADD SWAP1 PUSH2 0xC0 SWAP2 SWAP1 PUSH2 0x1209 JUMP JUMPDEST PUSH2 0x233 JUMP JUMPDEST PUSH1 0x40 MLOAD PUSH2 0xD2 SWAP2 SWAP1 PUSH2 0x124E JUMP JUMPDEST PUSH1 0x40 MLOAD DUP1 SWAP2 SUB SWAP1 RETURN JUMPDEST PUSH2 0xF5 PUSH1 0x4 DUP1 CALLDATASIZE SUB DUP2 ADD SWAP1 PUSH2 0xF0 SWAP2 SWAP1 PUSH2 0x129A JUMP JUMPDEST PUSH2 0x29C JUMP JUMPDEST PUSH1 0x40 MLOAD PUSH2 0x102 SWAP2 SWAP1 PUSH2 0x12D4 JUMP JUMPDEST PUSH1 0x40 MLOAD DUP1 SWAP2 SUB SWAP1 RETURN JUMPDEST PUSH2 0x125 PUSH1 0x4 DUP1 CALLDATASIZE SUB DUP2 ADD SWAP1 PUSH2 0x120 SWAP2 SWAP1 PUSH2 0x1347 JUMP JUMPDEST PUSH2 0x2B9 JUMP JUMPDEST STOP JUMPDEST PUSH2 0x141 PUSH1 0x4 DUP1 CALLDATASIZE SUB DUP2 ADD SWAP1 PUSH2 0x13C SWAP2 SWAP1 PUSH2 0x1385 JUMP JUMPDEST PUSH2 0x356 JUMP JUMPDEST STOP JUMPDEST PUSH2 0x15D PUSH1 0x4 DUP1 CALLDATASIZE SUB DUP2 ADD SWAP1 PUSH2 0x158 SWAP2 SWAP1 PUSH2 0x13B0 JUMP JUMPDEST PUSH2 0x377 JUMP JUMPDEST STOP JUMPDEST PUSH2 0x167 PUSH2 0x541 JUMP JUMPDEST PUSH1 0x40 MLOAD PUSH2 0x174 SWAP2 SWAP1 PUSH2 0x13FD JUMP JUMPDEST PUSH1 0x40 MLOAD DUP1 SWAP2 SUB SWAP1 RETURN JUMPDEST PUSH2 0x197 PUSH1 0x4 DUP1 CALLDATASIZE SUB DUP2 ADD SWAP1 PUSH2 0x192 SWAP2 SWAP1 PUSH2 0x1347 JUMP JUMPDEST PUSH2 0x568 JUMP JUMPDEST PUSH1 0x40 MLOAD PUSH2 0x1A4 SWAP2 SWAP1 PUSH2 0x124E JUMP JUMPDEST PUSH1 0x40 MLOAD DUP1 SWAP2 SUB SWAP1 RETURN JUMPDEST PUSH2 0x1B5 PUSH2 0x5CC JUMP JUMPDEST PUSH1 0x40 MLOAD PUSH2 0x1C2 SWAP2 SWAP1 PUSH2 0x12D4 JUMP JUMPDEST PUSH1 0x40 MLOAD DUP1 SWAP2 SUB SWAP1 RETURN JUMPDEST PUSH2 0x1E5 PUSH1 0x4 DUP1 CALLDATASIZE SUB DUP2 ADD SWAP1 PUSH2 0x1E0 SWAP2 SWAP1 PUSH2 0x1385 JUMP JUMPDEST PUSH2 0x5D2 JUMP JUMPDEST PUSH1 0x40 MLOAD PUSH2 0x1F2 SWAP2 SWAP1 PUSH2 0x124E JUMP JUMPDEST PUSH1 0x40 MLOAD DUP1 SWAP2 SUB SWAP1 RETURN JUMPDEST PUSH2 0x215 PUSH1 0x4 DUP1 CALLDATASIZE SUB DUP2 ADD SWAP1 PUSH2 0x210 SWAP2 SWAP1 PUSH2 0x13B0 JUMP JUMPDEST PUSH2 0x5E8 JUMP JUMPDEST STOP JUMPDEST PUSH2 0x231 PUSH1 0x4 DUP1 CALLDATASIZE SUB DUP2 ADD SWAP1 PUSH2 0x22C SWAP2 SWAP1 PUSH2 0x1385 JUMP JUMPDEST PUSH2 0x666 JUMP JUMPDEST STOP JUMPDEST PUSH0 PUSH32 0x1FFC9A700000000000000000000000000000000000000000000000000000000 PUSH28 0xFFFFFFFFFFFFFFFFFFFFFFFFFFFFFFFFFFFFFFFFFFFFFFFFFFFFFFFF NOT AND DUP3 PUSH28 0xFFFFFFFFFFFFFFFFFFFFFFFFFFFFFFFFFFFFFFFFFFFFFFFFFFFFFFFF NOT AND EQ SWAP1 POP SWAP2 SWAP1 POP JUMP JUMPDEST PUSH0 PUSH1 0x1 PUSH0 DUP4 DUP2 MSTORE PUSH1 0x20 ADD SWAP1 DUP2 MSTORE PUSH1 0x20 ADD PUSH0 KECCAK256 PUSH1 0x1 ADD SLOAD SWAP1 POP SWAP2 SWAP1 POP JUMP JUMPDEST PUSH1 0x2 PUSH0 SWAP1 SLOAD SWAP1 PUSH2 0x100 EXP SWAP1 DIV PUSH20 0xFFFFFFFFFFFFFFFFFFFFFFFFFFFFFFFFFFFFFFFF AND PUSH20 0xFFFFFFFFFFFFFFFFFFFFFFFFFFFFFFFFFFFFFFFF AND DUP2 PUSH20 0xFFFFFFFFFFFFFFFFFFFFFFFFFFFFFFFFFFFFFFFF AND EQ PUSH2 0x348 JUMPI PUSH1 0x40 MLOAD PUSH32 0x8C379A000000000000000000000000000000000000000000000000000000000 DUP2 MSTORE PUSH1 0x4 ADD PUSH2 0x33F SWAP1 PUSH2 0x1496 JUMP JUMPDEST PUSH1 0x40 MLOAD DUP1 SWAP2 SUB SWAP1 REVERT JUMPDEST PUSH2 0x352 DUP3 DUP3 PUSH2 0x70A JUMP JUMPDEST POP POP JUMP JUMPDEST PUSH2 0x35F DUP2 PUSH2 0x666 JUMP JUMPDEST PUSH2 0x368 DUP2 PUSH2 0x7FF JUMP JUMPDEST PUSH2 0x374 PUSH0 DUP1 SHL DUP3 PUSH2 0x84D JUMP JUMPDEST POP JUMP JUMPDEST DUP2 PUSH2 0x381 DUP2 PUSH2 0x887 JUMP JUMPDEST PUSH0 DUP1 SHL DUP4 PUSH2 0x38F DUP3 DUP3 PUSH2 0x8FF JUMP JUMPDEST PUSH0 PUSH32 0xFFFFFFFFFFFFFFFFFFFFFFFFFFFFFFFFFFFFFFFFFFFFFFFFFFFFFFFFFFFFFFFF SWAP1 POP PUSH0 PUSH2 0x3BD DUP7 PUSH2 0x983 JUMP JUMPDEST SWAP1 POP PUSH0 JUMPDEST PUSH1 0x1 PUSH1 0x3 DUP1 SLOAD SWAP1 POP PUSH2 0x3D3 SWAP2 SWAP1 PUSH2 0x14EA JUMP JUMPDEST DUP2 LT ISZERO PUSH2 0x50A JUMPI PUSH0 PUSH1 0x3 DUP3 DUP2 SLOAD DUP2 LT PUSH2 0x3EF JUMPI PUSH2 0x3EE PUSH2 0x151D JUMP JUMPDEST JUMPDEST SWAP1 PUSH0 MSTORE PUSH1 0x20 PUSH0 KECCAK256 ADD PUSH1 0x40 MLOAD PUSH1 0x20 ADD PUSH2 0x407 SWAP2 SWAP1 PUSH2 0x1643 JUMP JUMPDEST PUSH1 0x40 MLOAD PUSH1 0x20 DUP2 DUP4 SUB SUB DUP2 MSTORE SWAP1 PUSH1 0x40 MSTORE DUP1 MLOAD SWAP1 PUSH1 0x20 ADD KECCAK256 DUP4 PUSH1 0x40 MLOAD PUSH1 0x20 ADD PUSH2 0x42E SWAP2 SWAP1 PUSH2 0x16BB JUMP JUMPDEST PUSH1 0x40 MLOAD PUSH1 0x20 DUP2 DUP4 SUB SUB DUP2 MSTORE SWAP1 PUSH1 0x40 MSTORE DUP1 MLOAD SWAP1 PUSH1 0x20 ADD KECCAK256 EQ SWAP1 POP PUSH32 0xFFFFFFFFFFFFFFFFFFFFFFFFFFFFFFFFFFFFFFFFFFFFFFFFFFFFFFFFFFFFFFFF DUP5 EQ DUP1 ISZERO PUSH2 0x47A JUMPI POP PUSH1 0x1 ISZERO ISZERO DUP2 ISZERO ISZERO EQ JUMPDEST ISZERO PUSH2 0x483 JUMPI DUP2 SWAP4 POP JUMPDEST PUSH32 0xFFFFFFFFFFFFFFFFFFFFFFFFFFFFFFFFFFFFFFFFFFFFFFFFFFFFFFFFFFFFFFFF DUP5 EQ PUSH2 0x4FC JUMPI PUSH1 0x3 PUSH1 0x1 DUP4 PUSH2 0x4B9 SWAP2 SWAP1 PUSH2 0x16D1 JUMP JUMPDEST DUP2 SLOAD DUP2 LT PUSH2 0x4CA JUMPI PUSH2 0x4C9 PUSH2 0x151D JUMP JUMPDEST JUMPDEST SWAP1 PUSH0 MSTORE PUSH1 0x20 PUSH0 KECCAK256 ADD PUSH1 0x3 DUP4 DUP2 SLOAD DUP2 LT PUSH2 0x4E6 JUMPI PUSH2 0x4E5 PUSH2 0x151D JUMP JUMPDEST JUMPDEST SWAP1 PUSH0 MSTORE PUSH1 0x20 PUSH0 KECCAK256 ADD SWAP1 DUP2 PUSH2 0x4FA SWAP2 SWAP1 PUSH2 0x18E3 JUMP JUMPDEST POP JUMPDEST POP DUP1 DUP1 PUSH1 0x1 ADD SWAP2 POP POP PUSH2 0x3C1 JUMP JUMPDEST POP PUSH1 0x3 DUP1 SLOAD DUP1 PUSH2 0x51D JUMPI PUSH2 0x51C PUSH2 0x19C8 JUMP JUMPDEST JUMPDEST PUSH1 0x1 SWAP1 SUB DUP2 DUP2 SWAP1 PUSH0 MSTORE PUSH1 0x20 PUSH0 KECCAK256 ADD PUSH0 PUSH2 0x536 SWAP2 SWAP1 PUSH2 0x1158 JUMP JUMPDEST SWAP1 SSTORE POP POP POP POP POP POP POP JUMP JUMPDEST PUSH0 DUP1 PUSH0 SWAP1 SLOAD SWAP1 PUSH2 0x100 EXP SWAP1 DIV PUSH20 0xFFFFFFFFFFFFFFFFFFFFFFFFFFFFFFFFFFFFFFFF AND SWAP1 POP SWAP1 JUMP JUMPDEST PUSH0 PUSH1 0x1 PUSH0 DUP5 DUP2 MSTORE PUSH1 0x20 ADD SWAP1 DUP2 MSTORE PUSH1 0x20 ADD PUSH0 KECCAK256 PUSH0 ADD PUSH0 DUP4 PUSH20 0xFFFFFFFFFFFFFFFFFFFFFFFFFFFFFFFFFFFFFFFF AND PUSH20 0xFFFFFFFFFFFFFFFFFFFFFFFFFFFFFFFFFFFFFFFF AND DUP2 MSTORE PUSH1 0x20 ADD SWAP1 DUP2 MSTORE PUSH1 0x20 ADD PUSH0 KECCAK256 PUSH0 SWAP1 SLOAD SWAP1 PUSH2 0x100 EXP SWAP1 DIV PUSH1 0xFF AND SWAP1 POP SWAP3 SWAP2 POP POP JUMP JUMPDEST PUSH0 DUP1 SHL DUP2 JUMP JUMPDEST PUSH0 DUP1 PUSH2 0x5DD DUP4 PUSH2 0xC7E JUMP JUMPDEST SWAP1 POP DUP1 SWAP2 POP POP SWAP2 SWAP1 POP JUMP JUMPDEST DUP2 PUSH2 0x5F2 DUP2 PUSH2 0x887 JUMP JUMPDEST PUSH0 DUP1 SHL DUP4 PUSH2 0x600 DUP3 DUP3 PUSH2 0x8FF JUMP JUMPDEST PUSH0 PUSH2 0x60A DUP6 PUSH2 0xC7E JUMP JUMPDEST SWAP1 POP PUSH1 0x1 ISZERO ISZERO DUP2 ISZERO ISZERO SUB PUSH2 0x61E JUMPI POP PUSH2 0x65F JUMP JUMPDEST PUSH0 PUSH2 0x628 DUP7 PUSH2 0x983 JUMP JUMPDEST SWAP1 POP PUSH1 0x3 DUP2 SWAP1 DUP1 PUSH1 0x1 DUP2 SLOAD ADD DUP1 DUP3 SSTORE DUP1 SWAP2 POP POP PUSH1 0x1 SWAP1 SUB SWAP1 PUSH0 MSTORE PUSH1 0x20 PUSH0 KECCAK256 ADD PUSH0 SWAP1 SWAP2 SWAP1 SWAP2 SWAP1 SWAP2 POP SWAP1 DUP2 PUSH2 0x65B SWAP2 SWAP1 PUSH2 0x19F5 JUMP JUMPDEST POP POP POP JUMPDEST POP POP POP POP POP JUMP JUMPDEST PUSH0 DUP1 SLOAD SWAP1 PUSH2 0x100 EXP SWAP1 DIV PUSH20 0xFFFFFFFFFFFFFFFFFFFFFFFFFFFFFFFFFFFFFFFF AND PUSH2 0x68F DUP2 PUSH2 0x887 JUMP JUMPDEST PUSH0 PUSH20 0xFFFFFFFFFFFFFFFFFFFFFFFFFFFFFFFFFFFFFFFF AND DUP3 PUSH20 0xFFFFFFFFFFFFFFFFFFFFFFFFFFFFFFFFFFFFFFFF AND SUB PUSH2 0x6FD JUMPI PUSH1 0x40 MLOAD PUSH32 0x8C379A000000000000000000000000000000000000000000000000000000000 DUP2 MSTORE PUSH1 0x4 ADD PUSH2 0x6F4 SWAP1 PUSH2 0x1B34 JUMP JUMPDEST PUSH1 0x40 MLOAD DUP1 SWAP2 SUB SWAP1 REVERT JUMPDEST PUSH2 0x706 DUP3 PUSH2 0xD38 JUMP JUMPDEST POP POP JUMP JUMPDEST PUSH2 0x714 DUP3 DUP3 PUSH2 0x568 JUMP JUMPDEST ISZERO PUSH2 0x7FB JUMPI PUSH0 PUSH1 0x1 PUSH0 DUP5 DUP2 MSTORE PUSH1 0x20 ADD SWAP1 DUP2 MSTORE PUSH1 0x20 ADD PUSH0 KECCAK256 PUSH0 ADD PUSH0 DUP4 PUSH20 0xFFFFFFFFFFFFFFFFFFFFFFFFFFFFFFFFFFFFFFFF AND PUSH20 0xFFFFFFFFFFFFFFFFFFFFFFFFFFFFFFFFFFFFFFFF AND DUP2 MSTORE PUSH1 0x20 ADD SWAP1 DUP2 MSTORE PUSH1 0x20 ADD PUSH0 KECCAK256 PUSH0 PUSH2 0x100 EXP DUP2 SLOAD DUP2 PUSH1 0xFF MUL NOT AND SWAP1 DUP4 ISZERO ISZERO MUL OR SWAP1 SSTORE POP PUSH1 0x2 PUSH0 SWAP1 SLOAD SWAP1 PUSH2 0x100 EXP SWAP1 DIV PUSH20 0xFFFFFFFFFFFFFFFFFFFFFFFFFFFFFFFFFFFFFFFF AND PUSH20 0xFFFFFFFFFFFFFFFFFFFFFFFFFFFFFFFFFFFFFFFF AND DUP2 PUSH20 0xFFFFFFFFFFFFFFFFFFFFFFFFFFFFFFFFFFFFFFFF AND DUP4 PUSH32 0xF6391F5C32D9C69D2A47EA670B442974B53935D1EDC7FD64EB21E047A839171B PUSH1 0x40 MLOAD PUSH1 0x40 MLOAD DUP1 SWAP2 SUB SWAP1 LOG4 JUMPDEST POP POP JUMP JUMPDEST DUP1 PUSH2 0x809 DUP2 PUSH2 0x887 JUMP JUMPDEST DUP2 PUSH1 0x2 PUSH0 PUSH2 0x100 EXP DUP2 SLOAD DUP2 PUSH20 0xFFFFFFFFFFFFFFFFFFFFFFFFFFFFFFFFFFFFFFFF MUL NOT AND SWAP1 DUP4 PUSH20 0xFFFFFFFFFFFFFFFFFFFFFFFFFFFFFFFFFFFFFFFF AND MUL OR SWAP1 SSTORE POP POP POP JUMP JUMPDEST PUSH1 0x2 PUSH0 SWAP1 SLOAD SWAP1 PUSH2 0x100 EXP SWAP1 DIV PUSH20 0xFFFFFFFFFFFFFFFFFFFFFFFFFFFFFFFFFFFFFFFF AND PUSH2 0x878 DUP2 PUSH2 0x887 JUMP JUMPDEST PUSH2 0x882 DUP4 DUP4 PUSH2 0xDF9 JUMP JUMPDEST POP POP POP JUMP JUMPDEST DUP1 PUSH20 0xFFFFFFFFFFFFFFFFFFFFFFFFFFFFFFFFFFFFFFFF AND PUSH2 0x8A6 PUSH2 0x541 JUMP JUMPDEST PUSH20 0xFFFFFFFFFFFFFFFFFFFFFFFFFFFFFFFFFFFFFFFF AND EQ PUSH2 0x8FC JUMPI PUSH1 0x40 MLOAD PUSH32 0x8C379A000000000000000000000000000000000000000000000000000000000 DUP2 MSTORE PUSH1 0x4 ADD PUSH2 0x8F3 SWAP1 PUSH2 0x1B9C JUMP JUMPDEST PUSH1 0x40 MLOAD DUP1 SWAP2 SUB SWAP1 REVERT JUMPDEST POP JUMP JUMPDEST PUSH2 0x909 DUP3 DUP3 PUSH2 0x568 JUMP JUMPDEST PUSH2 0x97F JUMPI PUSH2 0x916 DUP2 PUSH2 0xEED JUMP JUMPDEST PUSH2 0x923 DUP4 PUSH0 SHR PUSH1 0x20 PUSH2 0xF1A JUMP JUMPDEST PUSH1 0x40 MLOAD PUSH1 0x20 ADD PUSH2 0x934 SWAP3 SWAP2 SWAP1 PUSH2 0x1C4E JUMP JUMPDEST PUSH1 0x40 MLOAD PUSH1 0x20 DUP2 DUP4 SUB SUB DUP2 MSTORE SWAP1 PUSH1 0x40 MSTORE PUSH1 0x40 MLOAD PUSH32 0x8C379A000000000000000000000000000000000000000000000000000000000 DUP2 MSTORE PUSH1 0x4 ADD PUSH2 0x976 SWAP2 SWAP1 PUSH2 0x1CCF JUMP JUMPDEST PUSH1 0x40 MLOAD DUP1 SWAP2 SUB SWAP1 REVERT JUMPDEST POP POP JUMP JUMPDEST PUSH1 0x60 PUSH0 DUP3 PUSH20 0xFFFFFFFFFFFFFFFFFFFFFFFFFFFFFFFFFFFFFFFF AND PUSH0 SHL SWAP1 POP PUSH0 PUSH1 0x40 MLOAD DUP1 PUSH1 0x40 ADD PUSH1 0x40 MSTORE DUP1 PUSH1 0x10 DUP2 MSTORE PUSH1 0x20 ADD PUSH32 0x3031323334353637383961626364656600000000000000000000000000000000 DUP2 MSTORE POP SWAP1 POP PUSH0 PUSH1 0x33 PUSH8 0xFFFFFFFFFFFFFFFF DUP2 GT ISZERO PUSH2 0x9F6 JUMPI PUSH2 0x9F5 PUSH2 0x1719 JUMP JUMPDEST JUMPDEST PUSH1 0x40 MLOAD SWAP1 DUP1 DUP3 MSTORE DUP1 PUSH1 0x1F ADD PUSH1 0x1F NOT AND PUSH1 0x20 ADD DUP3 ADD PUSH1 0x40 MSTORE DUP1 ISZERO PUSH2 0xA28 JUMPI DUP2 PUSH1 0x20 ADD PUSH1 0x1 DUP3 MUL DUP1 CALLDATASIZE DUP4 CALLDATACOPY DUP1 DUP3 ADD SWAP2 POP POP SWAP1 POP JUMPDEST POP SWAP1 POP PUSH32 0x3000000000000000000000000000000000000000000000000000000000000000 DUP2 PUSH0 DUP2 MLOAD DUP2 LT PUSH2 0xA5F JUMPI PUSH2 0xA5E PUSH2 0x151D JUMP JUMPDEST JUMPDEST PUSH1 0x20 ADD ADD SWAP1 PUSH31 0xFFFFFFFFFFFFFFFFFFFFFFFFFFFFFFFFFFFFFFFFFFFFFFFFFFFFFFFFFFFFFF NOT AND SWAP1 DUP2 PUSH0 BYTE SWAP1 MSTORE8 POP PUSH32 0x7800000000000000000000000000000000000000000000000000000000000000 DUP2 PUSH1 0x1 DUP2 MLOAD DUP2 LT PUSH2 0xAC2 JUMPI PUSH2 0xAC1 PUSH2 0x151D JUMP JUMPDEST JUMPDEST PUSH1 0x20 ADD ADD SWAP1 PUSH31 0xFFFFFFFFFFFFFFFFFFFFFFFFFFFFFFFFFFFFFFFFFFFFFFFFFFFFFFFFFFFFFF NOT AND SWAP1 DUP2 PUSH0 BYTE SWAP1 MSTORE8 POP PUSH0 JUMPDEST PUSH1 0x14 DUP2 LT ISZERO PUSH2 0xC72 JUMPI DUP3 PUSH1 0x4 DUP6 PUSH1 0xC DUP5 PUSH2 0xB0C SWAP2 SWAP1 PUSH2 0x16D1 JUMP JUMPDEST PUSH1 0x20 DUP2 LT PUSH2 0xB1D JUMPI PUSH2 0xB1C PUSH2 0x151D JUMP JUMPDEST JUMPDEST BYTE PUSH1 0xF8 SHL PUSH31 0xFFFFFFFFFFFFFFFFFFFFFFFFFFFFFFFFFFFFFFFFFFFFFFFFFFFFFFFFFFFFFF NOT AND SWAP1 SHR PUSH1 0xF8 SHR PUSH1 0xFF AND DUP2 MLOAD DUP2 LT PUSH2 0xB5C JUMPI PUSH2 0xB5B PUSH2 0x151D JUMP JUMPDEST JUMPDEST PUSH1 0x20 ADD ADD MLOAD PUSH1 0xF8 SHR PUSH1 0xF8 SHL DUP3 PUSH1 0x2 DUP4 PUSH2 0xB75 SWAP2 SWAP1 PUSH2 0x1CEF JUMP JUMPDEST PUSH1 0x2 PUSH2 0xB81 SWAP2 SWAP1 PUSH2 0x16D1 JUMP JUMPDEST DUP2 MLOAD DUP2 LT PUSH2 0xB92 JUMPI PUSH2 0xB91 PUSH2 0x151D JUMP JUMPDEST JUMPDEST PUSH1 0x20 ADD ADD SWAP1 PUSH31 0xFFFFFFFFFFFFFFFFFFFFFFFFFFFFFFFFFFFFFFFFFFFFFFFFFFFFFFFFFFFFFF NOT AND SWAP1 DUP2 PUSH0 BYTE SWAP1 MSTORE8 POP DUP3 PUSH1 0xF PUSH1 0xF8 SHL DUP6 PUSH1 0xC DUP5 PUSH2 0xBD4 SWAP2 SWAP1 PUSH2 0x16D1 JUMP JUMPDEST PUSH1 0x20 DUP2 LT PUSH2 0xBE5 JUMPI PUSH2 0xBE4 PUSH2 0x151D JUMP JUMPDEST JUMPDEST BYTE PUSH1 0xF8 SHL AND PUSH1 0xF8 SHR PUSH1 0xFF AND DUP2 MLOAD DUP2 LT PUSH2 0xC01 JUMPI PUSH2 0xC00 PUSH2 0x151D JUMP JUMPDEST JUMPDEST PUSH1 0x20 ADD ADD MLOAD PUSH1 0xF8 SHR PUSH1 0xF8 SHL DUP3 PUSH1 0x2 DUP4 PUSH2 0xC1A SWAP2 SWAP1 PUSH2 0x1CEF JUMP JUMPDEST PUSH1 0x3 PUSH2 0xC26 SWAP2 SWAP1 PUSH2 0x16D1 JUMP JUMPDEST DUP2 MLOAD DUP2 LT PUSH2 0xC37 JUMPI PUSH2 0xC36 PUSH2 0x151D JUMP JUMPDEST JUMPDEST PUSH1 0x20 ADD ADD SWAP1 PUSH31 0xFFFFFFFFFFFFFFFFFFFFFFFFFFFFFFFFFFFFFFFFFFFFFFFFFFFFFFFFFFFFFF NOT AND SWAP1 DUP2 PUSH0 BYTE SWAP1 MSTORE8 POP DUP1 DUP1 PUSH1 0x1 ADD SWAP2 POP POP PUSH2 0xAF2 JUMP JUMPDEST POP DUP1 SWAP4 POP POP POP POP SWAP2 SWAP1 POP JUMP JUMPDEST PUSH0 DUP1 PUSH2 0xC89 DUP4 PUSH2 0x983 JUMP JUMPDEST SWAP1 POP PUSH0 JUMPDEST PUSH1 0x3 DUP1 SLOAD SWAP1 POP DUP2 LT ISZERO PUSH2 0xD2D JUMPI PUSH0 PUSH1 0x3 DUP3 DUP2 SLOAD DUP2 LT PUSH2 0xCAF JUMPI PUSH2 0xCAE PUSH2 0x151D JUMP JUMPDEST JUMPDEST SWAP1 PUSH0 MSTORE PUSH1 0x20 PUSH0 KECCAK256 ADD PUSH1 0x40 MLOAD PUSH1 0x20 ADD PUSH2 0xCC7 SWAP2 SWAP1 PUSH2 0x1643 JUMP JUMPDEST PUSH1 0x40 MLOAD PUSH1 0x20 DUP2 DUP4 SUB SUB DUP2 MSTORE SWAP1 PUSH1 0x40 MSTORE DUP1 MLOAD SWAP1 PUSH1 0x20 ADD KECCAK256 DUP4 PUSH1 0x40 MLOAD PUSH1 0x20 ADD PUSH2 0xCEE SWAP2 SWAP1 PUSH2 0x16BB JUMP JUMPDEST PUSH1 0x40 MLOAD PUSH1 0x20 DUP2 DUP4 SUB SUB DUP2 MSTORE SWAP1 PUSH1 0x40 MSTORE DUP1 MLOAD SWAP1 PUSH1 0x20 ADD KECCAK256 EQ SWAP1 POP PUSH1 0x1 ISZERO ISZERO DUP2 ISZERO ISZERO SUB PUSH2 0xD1F JUMPI PUSH1 0x1 SWAP4 POP POP POP POP PUSH2 0xD33 JUMP JUMPDEST POP DUP1 DUP1 PUSH1 0x1 ADD SWAP2 POP POP PUSH2 0xC8D JUMP JUMPDEST POP PUSH0 SWAP2 POP POP JUMPDEST SWAP2 SWAP1 POP JUMP JUMPDEST PUSH0 DUP1 PUSH0 SWAP1 SLOAD SWAP1 PUSH2 0x100 EXP SWAP1 DIV PUSH20 0xFFFFFFFFFFFFFFFFFFFFFFFFFFFFFFFFFFFFFFFF AND SWAP1 POP DUP2 PUSH0 DUP1 PUSH2 0x100 EXP DUP2 SLOAD DUP2 PUSH20 0xFFFFFFFFFFFFFFFFFFFFFFFFFFFFFFFFFFFFFFFF MUL NOT AND SWAP1 DUP4 PUSH20 0xFFFFFFFFFFFFFFFFFFFFFFFFFFFFFFFFFFFFFFFF AND MUL OR SWAP1 SSTORE POP DUP2 PUSH20 0xFFFFFFFFFFFFFFFFFFFFFFFFFFFFFFFFFFFFFFFF AND DUP2 PUSH20 0xFFFFFFFFFFFFFFFFFFFFFFFFFFFFFFFFFFFFFFFF AND PUSH32 0x8BE0079C531659141344CD1FD0A4F28419497F9722A3DAAFE3B4186F6B6457E0 PUSH1 0x40 MLOAD PUSH1 0x40 MLOAD DUP1 SWAP2 SUB SWAP1 LOG3 POP POP JUMP JUMPDEST PUSH2 0xE03 DUP3 DUP3 PUSH2 0x568 JUMP JUMPDEST PUSH2 0xEE9 JUMPI PUSH1 0x1 DUP1 PUSH0 DUP5 DUP2 MSTORE PUSH1 0x20 ADD SWAP1 DUP2 MSTORE PUSH1 0x20 ADD PUSH0 KECCAK256 PUSH0 ADD PUSH0 DUP4 PUSH20 0xFFFFFFFFFFFFFFFFFFFFFFFFFFFFFFFFFFFFFFFF AND PUSH20 0xFFFFFFFFFFFFFFFFFFFFFFFFFFFFFFFFFFFFFFFF AND DUP2 MSTORE PUSH1 0x20 ADD SWAP1 DUP2 MSTORE PUSH1 0x20 ADD PUSH0 KECCAK256 PUSH0 PUSH2 0x100 EXP DUP2 SLOAD DUP2 PUSH1 0xFF MUL NOT AND SWAP1 DUP4 ISZERO ISZERO MUL OR SWAP1 SSTORE POP PUSH1 0x2 PUSH0 SWAP1 SLOAD SWAP1 PUSH2 0x100 EXP SWAP1 DIV PUSH20 0xFFFFFFFFFFFFFFFFFFFFFFFFFFFFFFFFFFFFFFFF AND PUSH20 0xFFFFFFFFFFFFFFFFFFFFFFFFFFFFFFFFFFFFFFFF AND DUP2 PUSH20 0xFFFFFFFFFFFFFFFFFFFFFFFFFFFFFFFFFFFFFFFF AND DUP4 PUSH32 0x2F8788117E7EFF1D82E926EC794901D17C78024A50270940304540A733656F0D PUSH1 0x40 MLOAD PUSH1 0x40 MLOAD DUP1 SWAP2 SUB SWAP1 LOG4 JUMPDEST POP POP JUMP JUMPDEST PUSH1 0x60 PUSH2 0xF13 DUP3 PUSH20 0xFFFFFFFFFFFFFFFFFFFFFFFFFFFFFFFFFFFFFFFF AND PUSH1 0x14 PUSH1 0xFF AND PUSH2 0xF1A JUMP JUMPDEST SWAP1 POP SWAP2 SWAP1 POP JUMP JUMPDEST PUSH1 0x60 PUSH0 DUP4 SWAP1 POP PUSH0 PUSH1 0x2 DUP5 PUSH1 0x2 PUSH2 0xF30 SWAP2 SWAP1 PUSH2 0x1CEF JUMP JUMPDEST PUSH2 0xF3A SWAP2 SWAP1 PUSH2 0x16D1 JUMP JUMPDEST PUSH8 0xFFFFFFFFFFFFFFFF DUP2 GT ISZERO PUSH2 0xF53 JUMPI PUSH2 0xF52 PUSH2 0x1719 JUMP JUMPDEST JUMPDEST PUSH1 0x40 MLOAD SWAP1 DUP1 DUP3 MSTORE DUP1 PUSH1 0x1F ADD PUSH1 0x1F NOT AND PUSH1 0x20 ADD DUP3 ADD PUSH1 0x40 MSTORE DUP1 ISZERO PUSH2 0xF85 JUMPI DUP2 PUSH1 0x20 ADD PUSH1 0x1 DUP3 MUL DUP1 CALLDATASIZE DUP4 CALLDATACOPY DUP1 DUP3 ADD SWAP2 POP POP SWAP1 POP JUMPDEST POP SWAP1 POP PUSH32 0x3000000000000000000000000000000000000000000000000000000000000000 DUP2 PUSH0 DUP2 MLOAD DUP2 LT PUSH2 0xFBC JUMPI PUSH2 0xFBB PUSH2 0x151D JUMP JUMPDEST JUMPDEST PUSH1 0x20 ADD ADD SWAP1 PUSH31 0xFFFFFFFFFFFFFFFFFFFFFFFFFFFFFFFFFFFFFFFFFFFFFFFFFFFFFFFFFFFFFF NOT AND SWAP1 DUP2 PUSH0 BYTE SWAP1 MSTORE8 POP PUSH32 0x7800000000000000000000000000000000000000000000000000000000000000 DUP2 PUSH1 0x1 DUP2 MLOAD DUP2 LT PUSH2 0x101F JUMPI PUSH2 0x101E PUSH2 0x151D JUMP JUMPDEST JUMPDEST PUSH1 0x20 ADD ADD SWAP1 PUSH31 0xFFFFFFFFFFFFFFFFFFFFFFFFFFFFFFFFFFFFFFFFFFFFFFFFFFFFFFFFFFFFFF NOT AND SWAP1 DUP2 PUSH0 BYTE SWAP1 MSTORE8 POP PUSH0 PUSH1 0x1 DUP6 PUSH1 0x2 PUSH2 0x105D SWAP2 SWAP1 PUSH2 0x1CEF JUMP JUMPDEST PUSH2 0x1067 SWAP2 SWAP1 PUSH2 0x16D1 JUMP JUMPDEST SWAP1 POP JUMPDEST PUSH1 0x1 DUP2 GT ISZERO PUSH2 0x1106 JUMPI PUSH32 0x3031323334353637383961626364656600000000000000000000000000000000 PUSH1 0xF DUP5 AND PUSH1 0x10 DUP2 LT PUSH2 0x10A9 JUMPI PUSH2 0x10A8 PUSH2 0x151D JUMP JUMPDEST JUMPDEST BYTE PUSH1 0xF8 SHL DUP3 DUP3 DUP2 MLOAD DUP2 LT PUSH2 0x10C0 JUMPI PUSH2 0x10BF PUSH2 0x151D JUMP JUMPDEST JUMPDEST PUSH1 0x20 ADD ADD SWAP1 PUSH31 0xFFFFFFFFFFFFFFFFFFFFFFFFFFFFFFFFFFFFFFFFFFFFFFFFFFFFFFFFFFFFFF NOT AND SWAP1 DUP2 PUSH0 BYTE SWAP1 MSTORE8 POP PUSH1 0x4 DUP4 SWAP1 SHR SWAP3 POP DUP1 PUSH2 0x10FF SWAP1 PUSH2 0x1D30 JUMP JUMPDEST SWAP1 POP PUSH2 0x106A JUMP JUMPDEST POP PUSH0 DUP3 EQ PUSH2 0x114D JUMPI DUP5 DUP5 PUSH1 0x40 MLOAD PUSH32 0xE22E27EB00000000000000000000000000000000000000000000000000000000 DUP2 MSTORE PUSH1 0x4 ADD PUSH2 0x1144 SWAP3 SWAP2 SWAP1 PUSH2 0x1D66 JUMP JUMPDEST PUSH1 0x40 MLOAD DUP1 SWAP2 SUB SWAP1 REVERT JUMPDEST DUP1 SWAP3 POP POP POP SWAP3 SWAP2 POP POP JUMP JUMPDEST POP DUP1 SLOAD PUSH2 0x1164 SWAP1 PUSH2 0x1577 JUMP JUMPDEST PUSH0 DUP3 SSTORE DUP1 PUSH1 0x1F LT PUSH2 0x1175 JUMPI POP PUSH2 0x1192 JUMP JUMPDEST PUSH1 0x1F ADD PUSH1 0x20 SWAP1 DIV SWAP1 PUSH0 MSTORE PUSH1 0x20 PUSH0 KECCAK256 SWAP1 DUP2 ADD SWAP1 PUSH2 0x1191 SWAP2 SWAP1 PUSH2 0x1195 JUMP JUMPDEST JUMPDEST POP JUMP JUMPDEST JUMPDEST DUP1 DUP3 GT ISZERO PUSH2 0x11AC JUMPI PUSH0 DUP2 PUSH0 SWAP1 SSTORE POP PUSH1 0x1 ADD PUSH2 0x1196 JUMP JUMPDEST POP SWAP1 JUMP JUMPDEST PUSH0 DUP1 REVERT JUMPDEST PUSH0 PUSH32 0xFFFFFFFF00000000000000000000000000000000000000000000000000000000 DUP3 AND SWAP1 POP SWAP2 SWAP1 POP JUMP JUMPDEST PUSH2 0x11E8 DUP2 PUSH2 0x11B4 JUMP JUMPDEST DUP2 EQ PUSH2 0x11F2 JUMPI PUSH0 DUP1 REVERT JUMPDEST POP JUMP JUMPDEST PUSH0 DUP2 CALLDATALOAD SWAP1 POP PUSH2 0x1203 DUP2 PUSH2 0x11DF JUMP JUMPDEST SWAP3 SWAP2 POP POP JUMP JUMPDEST PUSH0 PUSH1 0x20 DUP3 DUP5 SUB SLT ISZERO PUSH2 0x121E JUMPI PUSH2 0x121D PUSH2 0x11B0 JUMP JUMPDEST JUMPDEST PUSH0 PUSH2 0x122B DUP5 DUP3 DUP6 ADD PUSH2 0x11F5 JUMP JUMPDEST SWAP2 POP POP SWAP3 SWAP2 POP POP JUMP JUMPDEST PUSH0 DUP2 ISZERO ISZERO SWAP1 POP SWAP2 SWAP1 POP JUMP JUMPDEST PUSH2 0x1248 DUP2 PUSH2 0x1234 JUMP JUMPDEST DUP3 MSTORE POP POP JUMP JUMPDEST PUSH0 PUSH1 0x20 DUP3 ADD SWAP1 POP PUSH2 0x1261 PUSH0 DUP4 ADD DUP5 PUSH2 0x123F JUMP JUMPDEST SWAP3 SWAP2 POP POP JUMP JUMPDEST PUSH0 DUP2 SWAP1 POP SWAP2 SWAP1 POP JUMP JUMPDEST PUSH2 0x1279 DUP2 PUSH2 0x1267 JUMP JUMPDEST DUP2 EQ PUSH2 0x1283 JUMPI PUSH0 DUP1 REVERT JUMPDEST POP JUMP JUMPDEST PUSH0 DUP2 CALLDATALOAD SWAP1 POP PUSH2 0x1294 DUP2 PUSH2 0x1270 JUMP JUMPDEST SWAP3 SWAP2 POP POP JUMP JUMPDEST PUSH0 PUSH1 0x20 DUP3 DUP5 SUB SLT ISZERO PUSH2 0x12AF JUMPI PUSH2 0x12AE PUSH2 0x11B0 JUMP JUMPDEST JUMPDEST PUSH0 PUSH2 0x12BC DUP5 DUP3 DUP6 ADD PUSH2 0x1286 JUMP JUMPDEST SWAP2 POP POP SWAP3 SWAP2 POP POP JUMP JUMPDEST PUSH2 0x12CE DUP2 PUSH2 0x1267 JUMP JUMPDEST DUP3 MSTORE POP POP JUMP JUMPDEST PUSH0 PUSH1 0x20 DUP3 ADD SWAP1 POP PUSH2 0x12E7 PUSH0 DUP4 ADD DUP5 PUSH2 0x12C5 JUMP JUMPDEST SWAP3 SWAP2 POP POP JUMP JUMPDEST PUSH0 PUSH20 0xFFFFFFFFFFFFFFFFFFFFFFFFFFFFFFFFFFFFFFFF DUP3 AND SWAP1 POP SWAP2 SWAP1 POP JUMP JUMPDEST PUSH0 PUSH2 0x1316 DUP3 PUSH2 0x12ED JUMP JUMPDEST SWAP1 POP SWAP2 SWAP1 POP JUMP JUMPDEST PUSH2 0x1326 DUP2 PUSH2 0x130C JUMP JUMPDEST DUP2 EQ PUSH2 0x1330 JUMPI PUSH0 DUP1 REVERT JUMPDEST POP JUMP JUMPDEST PUSH0 DUP2 CALLDATALOAD SWAP1 POP PUSH2 0x1341 DUP2 PUSH2 0x131D JUMP JUMPDEST SWAP3 SWAP2 POP POP JUMP JUMPDEST PUSH0 DUP1 PUSH1 0x40 DUP4 DUP6 SUB SLT ISZERO PUSH2 0x135D JUMPI PUSH2 0x135C PUSH2 0x11B0 JUMP JUMPDEST JUMPDEST PUSH0 PUSH2 0x136A DUP6 DUP3 DUP7 ADD PUSH2 0x1286 JUMP JUMPDEST SWAP3 POP POP PUSH1 0x20 PUSH2 0x137B DUP6 DUP3 DUP7 ADD PUSH2 0x1333 JUMP JUMPDEST SWAP2 POP POP SWAP3 POP SWAP3 SWAP1 POP JUMP JUMPDEST PUSH0 PUSH1 0x20 DUP3 DUP5 SUB SLT ISZERO PUSH2 0x139A JUMPI PUSH2 0x1399 PUSH2 0x11B0 JUMP JUMPDEST JUMPDEST PUSH0 PUSH2 0x13A7 DUP5 DUP3 DUP6 ADD PUSH2 0x1333 JUMP JUMPDEST SWAP2 POP POP SWAP3 SWAP2 POP POP JUMP JUMPDEST PUSH0 DUP1 PUSH1 0x40 DUP4 DUP6 SUB SLT ISZERO PUSH2 0x13C6 JUMPI PUSH2 0x13C5 PUSH2 0x11B0 JUMP JUMPDEST JUMPDEST PUSH0 PUSH2 0x13D3 DUP6 DUP3 DUP7 ADD PUSH2 0x1333 JUMP JUMPDEST SWAP3 POP POP PUSH1 0x20 PUSH2 0x13E4 DUP6 DUP3 DUP7 ADD PUSH2 0x1333 JUMP JUMPDEST SWAP2 POP POP SWAP3 POP SWAP3 SWAP1 POP JUMP JUMPDEST PUSH2 0x13F7 DUP2 PUSH2 0x130C JUMP JUMPDEST DUP3 MSTORE POP POP JUMP JUMPDEST PUSH0 PUSH1 0x20 DUP3 ADD SWAP1 POP PUSH2 0x1410 PUSH0 DUP4 ADD DUP5 PUSH2 0x13EE JUMP JUMPDEST SWAP3 SWAP2 POP POP JUMP JUMPDEST PUSH0 DUP3 DUP3 MSTORE PUSH1 0x20 DUP3 ADD SWAP1 POP SWAP3 SWAP2 POP POP JUMP JUMPDEST PUSH32 0x416363657373436F6E74726F6C3A2063616E206F6E6C792072656E6F756E6365 PUSH0 DUP3 ADD MSTORE PUSH32 0x20726F6C657320666F722073656C660000000000000000000000000000000000 PUSH1 0x20 DUP3 ADD MSTORE POP JUMP JUMPDEST PUSH0 PUSH2 0x1480 PUSH1 0x2F DUP4 PUSH2 0x1416 JUMP JUMPDEST SWAP2 POP PUSH2 0x148B DUP3 PUSH2 0x1426 JUMP JUMPDEST PUSH1 0x40 DUP3 ADD SWAP1 POP SWAP2 SWAP1 POP JUMP JUMPDEST PUSH0 PUSH1 0x20 DUP3 ADD SWAP1 POP DUP2 DUP2 SUB PUSH0 DUP4 ADD MSTORE PUSH2 0x14AD DUP2 PUSH2 0x1474 JUMP JUMPDEST SWAP1 POP SWAP2 SWAP1 POP JUMP JUMPDEST PUSH0 DUP2 SWAP1 POP SWAP2 SWAP1 POP JUMP JUMPDEST PUSH32 0x4E487B7100000000000000000000000000000000000000000000000000000000 PUSH0 MSTORE PUSH1 0x11 PUSH1 0x4 MSTORE PUSH1 0x24 PUSH0 REVERT JUMPDEST PUSH0 PUSH2 0x14F4 DUP3 PUSH2 0x14B4 JUMP JUMPDEST SWAP2 POP PUSH2 0x14FF DUP4 PUSH2 0x14B4 JUMP JUMPDEST SWAP3 POP DUP3 DUP3 SUB SWAP1 POP DUP2 DUP2 GT ISZERO PUSH2 0x1517 JUMPI PUSH2 0x1516 PUSH2 0x14BD JUMP JUMPDEST JUMPDEST SWAP3 SWAP2 POP POP JUMP JUMPDEST PUSH32 0x4E487B7100000000000000000000000000000000000000000000000000000000 PUSH0 MSTORE PUSH1 0x32 PUSH1 0x4 MSTORE PUSH1 0x24 PUSH0 REVERT JUMPDEST PUSH32 0x4E487B7100000000000000000000000000000000000000000000000000000000 PUSH0 MSTORE PUSH1 0x22 PUSH1 0x4 MSTORE PUSH1 0x24 PUSH0 REVERT JUMPDEST PUSH0 PUSH1 0x2 DUP3 DIV SWAP1 POP PUSH1 0x1 DUP3 AND DUP1 PUSH2 0x158E JUMPI PUSH1 0x7F DUP3 AND SWAP2 POP JUMPDEST PUSH1 0x20 DUP3 LT DUP2 SUB PUSH2 0x15A1 JUMPI PUSH2 0x15A0 PUSH2 0x154A JUMP JUMPDEST JUMPDEST POP SWAP2 SWAP1 POP JUMP JUMPDEST PUSH0 DUP2 SWAP1 POP SWAP3 SWAP2 POP POP JUMP JUMPDEST PUSH0 DUP2 SWAP1 POP DUP2 PUSH0 MSTORE PUSH1 0x20 PUSH0 KECCAK256 SWAP1 POP SWAP2 SWAP1 POP JUMP JUMPDEST PUSH0 DUP2 SLOAD PUSH2 0x15CF DUP2 PUSH2 0x1577 JUMP JUMPDEST PUSH2 0x15D9 DUP2 DUP7 PUSH2 0x15A7 JUMP JUMPDEST SWAP5 POP PUSH1 0x1 DUP3 AND PUSH0 DUP2 EQ PUSH2 0x15F3 JUMPI PUSH1 0x1 DUP2 EQ PUSH2 0x1608 JUMPI PUSH2 0x163A JUMP JUMPDEST PUSH1 0xFF NOT DUP4 AND DUP7 MSTORE DUP2 ISZERO ISZERO DUP3 MUL DUP7 ADD SWAP4 POP PUSH2 0x163A JUMP JUMPDEST PUSH2 0x1611 DUP6 PUSH2 0x15B1 JUMP JUMPDEST PUSH0 JUMPDEST DUP4 DUP2 LT ISZERO PUSH2 0x1632 JUMPI DUP2 SLOAD DUP2 DUP10 ADD MSTORE PUSH1 0x1 DUP3 ADD SWAP2 POP PUSH1 0x20 DUP2 ADD SWAP1 POP PUSH2 0x1613 JUMP JUMPDEST DUP4 DUP9 ADD SWAP6 POP POP POP JUMPDEST POP POP POP SWAP3 SWAP2 POP POP JUMP JUMPDEST PUSH0 PUSH2 0x164E DUP3 DUP5 PUSH2 0x15C3 JUMP JUMPDEST SWAP2 POP DUP2 SWAP1 POP SWAP3 SWAP2 POP POP JUMP JUMPDEST PUSH0 DUP2 MLOAD SWAP1 POP SWAP2 SWAP1 POP JUMP JUMPDEST PUSH0 JUMPDEST DUP4 DUP2 LT ISZERO PUSH2 0x1680 JUMPI DUP1 DUP3 ADD MLOAD DUP2 DUP5 ADD MSTORE PUSH1 0x20 DUP2 ADD SWAP1 POP PUSH2 0x1665 JUMP JUMPDEST PUSH0 DUP5 DUP5 ADD MSTORE POP POP POP POP JUMP JUMPDEST PUSH0 PUSH2 0x1695 DUP3 PUSH2 0x1659 JUMP JUMPDEST PUSH2 0x169F DUP2 DUP6 PUSH2 0x15A7 JUMP JUMPDEST SWAP4 POP PUSH2 0x16AF DUP2 DUP6 PUSH1 0x20 DUP7 ADD PUSH2 0x1663 JUMP JUMPDEST DUP1 DUP5 ADD SWAP2 POP POP SWAP3 SWAP2 POP POP JUMP JUMPDEST PUSH0 PUSH2 0x16C6 DUP3 DUP5 PUSH2 0x168B JUMP JUMPDEST SWAP2 POP DUP2 SWAP1 POP SWAP3 SWAP2 POP POP JUMP JUMPDEST PUSH0 PUSH2 0x16DB DUP3 PUSH2 0x14B4 JUMP JUMPDEST SWAP2 POP PUSH2 0x16E6 DUP4 PUSH2 0x14B4 JUMP JUMPDEST SWAP3 POP DUP3 DUP3 ADD SWAP1 POP DUP1 DUP3 GT ISZERO PUSH2 0x16FE JUMPI PUSH2 0x16FD PUSH2 0x14BD JUMP JUMPDEST JUMPDEST SWAP3 SWAP2 POP POP JUMP JUMPDEST PUSH0 DUP2 SLOAD SWAP1 POP PUSH2 0x1712 DUP2 PUSH2 0x1577 JUMP JUMPDEST SWAP1 POP SWAP2 SWAP1 POP JUMP JUMPDEST PUSH32 0x4E487B7100000000000000000000000000000000000000000000000000000000 PUSH0 MSTORE PUSH1 0x41 PUSH1 0x4 MSTORE PUSH1 0x24 PUSH0 REVERT JUMPDEST PUSH0 DUP2 SWAP1 POP DUP2 PUSH0 MSTORE PUSH1 0x20 PUSH0 KECCAK256 SWAP1 POP SWAP2 SWAP1 POP JUMP JUMPDEST PUSH0 PUSH1 0x20 PUSH1 0x1F DUP4 ADD DIV SWAP1 POP SWAP2 SWAP1 POP JUMP JUMPDEST PUSH0 DUP3 DUP3 SHL SWAP1 POP SWAP3 SWAP2 POP POP JUMP JUMPDEST PUSH0 PUSH1 0x8 DUP4 MUL PUSH2 0x17A2 PUSH32 0xFFFFFFFFFFFFFFFFFFFFFFFFFFFFFFFFFFFFFFFFFFFFFFFFFFFFFFFFFFFFFFFF DUP3 PUSH2 0x1767 JUMP JUMPDEST PUSH2 0x17AC DUP7 DUP4 PUSH2 0x1767 JUMP JUMPDEST SWAP6 POP DUP1 NOT DUP5 AND SWAP4 POP DUP1 DUP7 AND DUP5 OR SWAP3 POP POP POP SWAP4 SWAP3 POP POP POP JUMP JUMPDEST PUSH0 DUP2 SWAP1 POP SWAP2 SWAP1 POP JUMP JUMPDEST PUSH0 PUSH2 0x17E7 PUSH2 0x17E2 PUSH2 0x17DD DUP5 PUSH2 0x14B4 JUMP JUMPDEST PUSH2 0x17C4 JUMP JUMPDEST PUSH2 0x14B4 JUMP JUMPDEST SWAP1 POP SWAP2 SWAP1 POP JUMP JUMPDEST PUSH0 DUP2 SWAP1 POP SWAP2 SWAP1 POP JUMP JUMPDEST PUSH2 0x1800 DUP4 PUSH2 0x17CD JUMP JUMPDEST PUSH2 0x1814 PUSH2 0x180C DUP3 PUSH2 0x17EE JUMP JUMPDEST DUP5 DUP5 SLOAD PUSH2 0x1773 JUMP JUMPDEST DUP3 SSTORE POP POP POP POP JUMP JUMPDEST PUSH0 SWAP1 JUMP JUMPDEST PUSH2 0x1828 PUSH2 0x181C JUMP JUMPDEST PUSH2 0x1833 DUP2 DUP5 DUP5 PUSH2 0x17F7 JUMP JUMPDEST POP POP POP JUMP JUMPDEST JUMPDEST DUP2 DUP2 LT ISZERO PUSH2 0x1856 JUMPI PUSH2 0x184B PUSH0 DUP3 PUSH2 0x1820 JUMP JUMPDEST PUSH1 0x1 DUP2 ADD SWAP1 POP PUSH2 0x1839 JUMP JUMPDEST POP POP JUMP JUMPDEST PUSH1 0x1F DUP3 GT ISZERO PUSH2 0x189B JUMPI PUSH2 0x186C DUP2 PUSH2 0x15B1 JUMP JUMPDEST PUSH2 0x1875 DUP5 PUSH2 0x1758 JUMP JUMPDEST DUP2 ADD PUSH1 0x20 DUP6 LT ISZERO PUSH2 0x1884 JUMPI DUP2 SWAP1 POP JUMPDEST PUSH2 0x1898 PUSH2 0x1890 DUP6 PUSH2 0x1758 JUMP JUMPDEST DUP4 ADD DUP3 PUSH2 0x1838 JUMP JUMPDEST POP POP JUMPDEST POP POP POP JUMP JUMPDEST PUSH0 DUP3 DUP3 SHR SWAP1 POP SWAP3 SWAP2 POP POP JUMP JUMPDEST PUSH0 PUSH2 0x18BB PUSH0 NOT DUP5 PUSH1 0x8 MUL PUSH2 0x18A0 JUMP JUMPDEST NOT DUP1 DUP4 AND SWAP2 POP POP SWAP3 SWAP2 POP POP JUMP JUMPDEST PUSH0 PUSH2 0x18D3 DUP4 DUP4 PUSH2 0x18AC JUMP JUMPDEST SWAP2 POP DUP3 PUSH1 0x2 MUL DUP3 OR SWAP1 POP SWAP3 SWAP2 POP POP JUMP JUMPDEST DUP2 DUP2 SUB PUSH2 0x18F1 JUMPI POP POP PUSH2 0x19C6 JUMP JUMPDEST PUSH2 0x18FA DUP3 PUSH2 0x1704 JUMP JUMPDEST PUSH8 0xFFFFFFFFFFFFFFFF DUP2 GT ISZERO PUSH2 0x1913 JUMPI PUSH2 0x1912 PUSH2 0x1719 JUMP JUMPDEST JUMPDEST PUSH2 0x191D DUP3 SLOAD PUSH2 0x1577 JUMP JUMPDEST PUSH2 0x1928 DUP3 DUP3 DUP6 PUSH2 0x185A JUMP JUMPDEST PUSH0 PUSH1 0x1F DUP4 GT PUSH1 0x1 DUP2 EQ PUSH2 0x1955 JUMPI PUSH0 DUP5 ISZERO PUSH2 0x1943 JUMPI DUP3 DUP8 ADD SLOAD SWAP1 POP JUMPDEST PUSH2 0x194D DUP6 DUP3 PUSH2 0x18C8 JUMP JUMPDEST DUP7 SSTORE POP PUSH2 0x19BF JUMP JUMPDEST PUSH1 0x1F NOT DUP5 AND PUSH2 0x1963 DUP8 PUSH2 0x1746 JUMP JUMPDEST SWAP7 POP PUSH2 0x196E DUP7 PUSH2 0x15B1 JUMP JUMPDEST PUSH0 JUMPDEST DUP3 DUP2 LT ISZERO PUSH2 0x1995 JUMPI DUP5 DUP10 ADD SLOAD DUP3 SSTORE PUSH1 0x1 DUP3 ADD SWAP2 POP PUSH1 0x1 DUP6 ADD SWAP5 POP PUSH1 0x20 DUP2 ADD SWAP1 POP PUSH2 0x1970 JUMP JUMPDEST DUP7 DUP4 LT ISZERO PUSH2 0x19B2 JUMPI DUP5 DUP10 ADD SLOAD PUSH2 0x19AE PUSH1 0x1F DUP10 AND DUP3 PUSH2 0x18AC JUMP JUMPDEST DUP4 SSTORE POP JUMPDEST PUSH1 0x1 PUSH1 0x2 DUP9 MUL ADD DUP9 SSTORE POP POP POP JUMPDEST POP POP POP POP POP POP JUMPDEST JUMP JUMPDEST PUSH32 0x4E487B7100000000000000000000000000000000000000000000000000000000 PUSH0 MSTORE PUSH1 0x31 PUSH1 0x4 MSTORE PUSH1 0x24 PUSH0 REVERT JUMPDEST PUSH2 0x19FE DUP3 PUSH2 0x1659 JUMP JUMPDEST PUSH8 0xFFFFFFFFFFFFFFFF DUP2 GT ISZERO PUSH2 0x1A17 JUMPI PUSH2 0x1A16 PUSH2 0x1719 JUMP JUMPDEST JUMPDEST PUSH2 0x1A21 DUP3 SLOAD PUSH2 0x1577 JUMP JUMPDEST PUSH2 0x1A2C DUP3 DUP3 DUP6 PUSH2 0x185A JUMP JUMPDEST PUSH0 PUSH1 0x20 SWAP1 POP PUSH1 0x1F DUP4 GT PUSH1 0x1 DUP2 EQ PUSH2 0x1A5D JUMPI PUSH0 DUP5 ISZERO PUSH2 0x1A4B JUMPI DUP3 DUP8 ADD MLOAD SWAP1 POP JUMPDEST PUSH2 0x1A55 DUP6 DUP3 PUSH2 0x18C8 JUMP JUMPDEST DUP7 SSTORE POP PUSH2 0x1ABC JUMP JUMPDEST PUSH1 0x1F NOT DUP5 AND PUSH2 0x1A6B DUP7 PUSH2 0x15B1 JUMP JUMPDEST PUSH0 JUMPDEST DUP3 DUP2 LT ISZERO PUSH2 0x1A92 JUMPI DUP5 DUP10 ADD MLOAD DUP3 SSTORE PUSH1 0x1 DUP3 ADD SWAP2 POP PUSH1 0x20 DUP6 ADD SWAP5 POP PUSH1 0x20 DUP2 ADD SWAP1 POP PUSH2 0x1A6D JUMP JUMPDEST DUP7 DUP4 LT ISZERO PUSH2 0x1AAF JUMPI DUP5 DUP10 ADD MLOAD PUSH2 0x1AAB PUSH1 0x1F DUP10 AND DUP3 PUSH2 0x18AC JUMP JUMPDEST DUP4 SSTORE POP JUMPDEST PUSH1 0x1 PUSH1 0x2 DUP9 MUL ADD DUP9 SSTORE POP POP POP JUMPDEST POP POP POP POP POP POP JUMP JUMPDEST PUSH32 0x4F776E61626C653A206E6577206F776E657220697320746865207A65726F2061 PUSH0 DUP3 ADD MSTORE PUSH32 0x6464726573730000000000000000000000000000000000000000000000000000 PUSH1 0x20 DUP3 ADD MSTORE POP JUMP JUMPDEST PUSH0 PUSH2 0x1B1E PUSH1 0x26 DUP4 PUSH2 0x1416 JUMP JUMPDEST SWAP2 POP PUSH2 0x1B29 DUP3 PUSH2 0x1AC4 JUMP JUMPDEST PUSH1 0x40 DUP3 ADD SWAP1 POP SWAP2 SWAP1 POP JUMP JUMPDEST PUSH0 PUSH1 0x20 DUP3 ADD SWAP1 POP DUP2 DUP2 SUB PUSH0 DUP4 ADD MSTORE PUSH2 0x1B4B DUP2 PUSH2 0x1B12 JUMP JUMPDEST SWAP1 POP SWAP2 SWAP1 POP JUMP JUMPDEST PUSH32 0x4F776E61626C653A2063616C6C6572206973206E6F7420746865206F776E6572 PUSH0 DUP3 ADD MSTORE POP JUMP JUMPDEST PUSH0 PUSH2 0x1B86 PUSH1 0x20 DUP4 PUSH2 0x1416 JUMP JUMPDEST SWAP2 POP PUSH2 0x1B91 DUP3 PUSH2 0x1B52 JUMP JUMPDEST PUSH1 0x20 DUP3 ADD SWAP1 POP SWAP2 SWAP1 POP JUMP JUMPDEST PUSH0 PUSH1 0x20 DUP3 ADD SWAP1 POP DUP2 DUP2 SUB PUSH0 DUP4 ADD MSTORE PUSH2 0x1BB3 DUP2 PUSH2 0x1B7A JUMP JUMPDEST SWAP1 POP SWAP2 SWAP1 POP JUMP JUMPDEST PUSH32 0x416363657373436F6E74726F6C3A206163636F756E7420000000000000000000 PUSH0 DUP3 ADD MSTORE POP JUMP JUMPDEST PUSH0 PUSH2 0x1BEE PUSH1 0x17 DUP4 PUSH2 0x15A7 JUMP JUMPDEST SWAP2 POP PUSH2 0x1BF9 DUP3 PUSH2 0x1BBA JUMP JUMPDEST PUSH1 0x17 DUP3 ADD SWAP1 POP SWAP2 SWAP1 POP JUMP JUMPDEST PUSH32 0x206973206D697373696E6720726F6C6520000000000000000000000000000000 PUSH0 DUP3 ADD MSTORE POP JUMP JUMPDEST PUSH0 PUSH2 0x1C38 PUSH1 0x11 DUP4 PUSH2 0x15A7 JUMP JUMPDEST SWAP2 POP PUSH2 0x1C43 DUP3 PUSH2 0x1C04 JUMP JUMPDEST PUSH1 0x11 DUP3 ADD SWAP1 POP SWAP2 SWAP1 POP JUMP JUMPDEST PUSH0 PUSH2 0x1C58 DUP3 PUSH2 0x1BE2 JUMP JUMPDEST SWAP2 POP PUSH2 0x1C64 DUP3 DUP6 PUSH2 0x168B JUMP JUMPDEST SWAP2 POP PUSH2 0x1C6F DUP3 PUSH2 0x1C2C JUMP JUMPDEST SWAP2 POP PUSH2 0x1C7B DUP3 DUP5 PUSH2 0x168B JUMP JUMPDEST SWAP2 POP DUP2 SWAP1 POP SWAP4 SWAP3 POP POP POP JUMP JUMPDEST PUSH0 PUSH1 0x1F NOT PUSH1 0x1F DUP4 ADD AND SWAP1 POP SWAP2 SWAP1 POP JUMP JUMPDEST PUSH0 PUSH2 0x1CA1 DUP3 PUSH2 0x1659 JUMP JUMPDEST PUSH2 0x1CAB DUP2 DUP6 PUSH2 0x1416 JUMP JUMPDEST SWAP4 POP PUSH2 0x1CBB DUP2 DUP6 PUSH1 0x20 DUP7 ADD PUSH2 0x1663 JUMP JUMPDEST PUSH2 0x1CC4 DUP2 PUSH2 0x1C87 JUMP JUMPDEST DUP5 ADD SWAP2 POP POP SWAP3 SWAP2 POP POP JUMP JUMPDEST PUSH0 PUSH1 0x20 DUP3 ADD SWAP1 POP DUP2 DUP2 SUB PUSH0 DUP4 ADD MSTORE PUSH2 0x1CE7 DUP2 DUP5 PUSH2 0x1C97 JUMP JUMPDEST SWAP1 POP SWAP3 SWAP2 POP POP JUMP JUMPDEST PUSH0 PUSH2 0x1CF9 DUP3 PUSH2 0x14B4 JUMP JUMPDEST SWAP2 POP PUSH2 0x1D04 DUP4 PUSH2 0x14B4 JUMP JUMPDEST SWAP3 POP DUP3 DUP3 MUL PUSH2 0x1D12 DUP2 PUSH2 0x14B4 JUMP JUMPDEST SWAP2 POP DUP3 DUP3 DIV DUP5 EQ DUP4 ISZERO OR PUSH2 0x1D29 JUMPI PUSH2 0x1D28 PUSH2 0x14BD JUMP JUMPDEST JUMPDEST POP SWAP3 SWAP2 POP POP JUMP JUMPDEST PUSH0 PUSH2 0x1D3A DUP3 PUSH2 0x14B4 JUMP JUMPDEST SWAP2 POP PUSH0 DUP3 SUB PUSH2 0x1D4C JUMPI PUSH2 0x1D4B PUSH2 0x14BD JUMP JUMPDEST JUMPDEST PUSH1 0x1 DUP3 SUB SWAP1 POP SWAP2 SWAP1 POP JUMP JUMPDEST PUSH2 0x1D60 DUP2 PUSH2 0x14B4 JUMP JUMPDEST DUP3 MSTORE POP POP JUMP JUMPDEST PUSH0 PUSH1 0x40 DUP3 ADD SWAP1 POP PUSH2 0x1D79 PUSH0 DUP4 ADD DUP6 PUSH2 0x1D57 JUMP JUMPDEST PUSH2 0x1D86 PUSH1 0x20 DUP4 ADD DUP5 PUSH2 0x1D57 JUMP JUMPDEST SWAP4 SWAP3 POP POP POP JUMP INVALID LOG2 PUSH5 0x6970667358 0x22 SLT KECCAK256 SIGNEXTEND 0xF EXTCODECOPY 0xB3 0xAE DUP5 PUSH30 0xB981068B00295987A53C37254D8DC5864B6943327D99EC393D64736F6C63 NUMBER STOP ADDMOD AND STOP CALLER "
				},
				"gasEstimates": {
					"creation": {
						"codeDepositCost": "1523800",
						"executionCost": "infinite",
						"totalCost": "infinite"
					},
					"external": {
						"DEFAULT_ADMIN_ROLE()": "374",
						"getRoleAdmin(bytes32)": "infinite",
						"hasRole(bytes32,address)": "3144",
						"isAccess(address)": "infinite",
						"owner()": "2515",
						"register(address)": "infinite",
						"renounceRole(bytes32,address)": "33732",
						"revokeRole_Doctor(address,address)": "infinite",
						"setupRole_Doctor(address,address)": "infinite",
						"supportsInterface(bytes4)": "630",
						"transferOwnership(address)": "32950"
					},
					"internal": {
						"_addressToString(address)": "infinite",
						"_checkArray(address)": "infinite"
					}
				},
				"methodIdentifiers": {
					"DEFAULT_ADMIN_ROLE()": "a217fddf",
					"getRoleAdmin(bytes32)": "248a9ca3",
					"hasRole(bytes32,address)": "91d14854",
					"isAccess(address)": "a8f2be76",
					"owner()": "8da5cb5b",
					"register(address)": "4420e486",
					"renounceRole(bytes32,address)": "36568abe",
					"revokeRole_Doctor(address,address)": "4cc2f081",
					"setupRole_Doctor(address,address)": "ac0cc465",
					"supportsInterface(bytes4)": "01ffc9a7",
					"transferOwnership(address)": "f2fde38b"
				}
			},
			"storageLayout": {
				"storage": [
					{
						"astId": 379,
						"contract": "Patients/Patient.sol:Patient",
						"label": "_owner",
						"offset": 0,
						"slot": "0",
						"type": "t_address"
					},
					{
						"astId": 535,
						"contract": "Patients/Patient.sol:Patient",
						"label": "_roles",
						"offset": 0,
						"slot": "1",
						"type": "t_mapping(t_bytes32,t_struct(RoleData)530_storage)"
					},
					{
						"astId": 540,
						"contract": "Patients/Patient.sol:Patient",
						"label": "admin",
						"offset": 0,
						"slot": "2",
						"type": "t_address"
					},
					{
						"astId": 10,
						"contract": "Patients/Patient.sol:Patient",
						"label": "docs",
						"offset": 0,
						"slot": "3",
						"type": "t_array(t_string_storage)dyn_storage"
					}
				],
				"types": {
					"t_address": {
						"encoding": "inplace",
						"label": "address",
						"numberOfBytes": "20"
					},
					"t_array(t_string_storage)dyn_storage": {
						"base": "t_string_storage",
						"encoding": "dynamic_array",
						"label": "string[]",
						"numberOfBytes": "32"
					},
					"t_bool": {
						"encoding": "inplace",
						"label": "bool",
						"numberOfBytes": "1"
					},
					"t_bytes32": {
						"encoding": "inplace",
						"label": "bytes32",
						"numberOfBytes": "32"
					},
					"t_mapping(t_address,t_bool)": {
						"encoding": "mapping",
						"key": "t_address",
						"label": "mapping(address => bool)",
						"numberOfBytes": "32",
						"value": "t_bool"
					},
					"t_mapping(t_bytes32,t_struct(RoleData)530_storage)": {
						"encoding": "mapping",
						"key": "t_bytes32",
						"label": "mapping(bytes32 => struct AccessControl.RoleData)",
						"numberOfBytes": "32",
						"value": "t_struct(RoleData)530_storage"
					},
					"t_string_storage": {
						"encoding": "bytes",
						"label": "string",
						"numberOfBytes": "32"
					},
					"t_struct(RoleData)530_storage": {
						"encoding": "inplace",
						"label": "struct AccessControl.RoleData",
						"members": [
							{
								"astId": 527,
								"contract": "Patients/Patient.sol:Patient",
								"label": "members",
								"offset": 0,
								"slot": "0",
								"type": "t_mapping(t_address,t_bool)"
							},
							{
								"astId": 529,
								"contract": "Patients/Patient.sol:Patient",
								"label": "adminRole",
								"offset": 0,
								"slot": "1",
								"type": "t_bytes32"
							}
						],
						"numberOfBytes": "64"
					}
				}
			},
			"userdoc": {
				"kind": "user",
				"methods": {},
				"version": 1
			}
		}
	}
}